:1000000000000420750300005D0300005F03000092
:1000100061030000630300006503000000000000AE
:100020000000000000000000000000006703000066
:1000300069030000000000006B0300006D03000076
:10004000712700006F030000C12700006F0300004C
:100050006F0300006F0300006F0300006F030000D8
:100060006F0300006F0300006F0300006F030000C8
:100070006F0300006F0300006F0300006F030000B8
:100080006F030000191400006F0300006F030000ED
:100090006F0300006F0300006F0300006F03000098
:1000A0006F0300006F0300006F0300006F03000088
:1000B0006F0300006F03000000000000000000005C
:1000C0006F0300006F0300006F0300006F03000068
:1000D0006F0300006F0300006F0300006F03000058
:1000E0006F0300006F0300006F03000000000000BA
:1000F000000000006F030000000000006F0300001C
:1001000000000000000000000000000000000000EF
:1001100000000000000000000000000000000000DF
:1001200000000000000000000000000000000000CF
:1001300000000000000000000000000000000000BF
:1001400000000000000000000000000000000000AF
:10015000000000000000000000000000000000009F
:10016000000000000000000000000000000000008F
:10017000000000000000000000000000000000007F
:10018000000000000000000000000000000000006F
:10019000000000000000000000000000000000005F
:1001A000000000000000000000000000000000004F
:1001B000000000000000000000000000000000003F
:1001C000000000000000000000000000000000002F
:1001D000000000000000000000000000000000001F
:1001E000000000000000000000000000000000000F
:1001F00000000000000000000000000000000000FF
:10020000354936480A1A02D0072291438D463449AF
:1002100034480A1A06D00722914381F30988022242
:1002200082F3148830483149314A00F044F83148AB
:100230003149324A00F03FF831483249324A00F041
:100240003AF832483249334A00F035F832483349F7
:10025000334A00F030F833483349344A00F02BF881
:1002600033483449344A00F026F8344834490022EF
:1002700000F02CF833483449002200F027F83348C6
:100280003349091A082902DB002202604160314A21
:1002900090471F481F49884205D00268043003B4C4
:1002A000904703BCF7E700208646EC46002000217B
:1002B000294A9047FEE7884207D0521A05D00378B2
:1002C00001300B700131013AF9D17047884202D0F8
:1002D00002700130FAE770470000042000E00320BC
:1002E0000000042000000420984A00007C00002048
:1002F000B0000020D0030000D00300000038000050
:10030000984A00007C0000207C000020403900005A
:1003100040390000403900004039000040390000F9
:10032000403900004039000040390000984A000080
:10033000CC4A0000B0000020B0000020B000002037
:100340000007002000070020000700200007002011
:10035000002700209D03000001320000FEE7FEE7B9
:10036000FEE7FEE7FEE7FEE7FEE7FEE7FEE7FEE765
:1003700000F002B8FFF7FCBF0F484FF007018843B9
:1003800085460E4880470E48016841F470010160BF
:10039000BFF34F8FBFF36F8FFFF732BF09480A4992
:1003A0000A4A884207D0521A05D0037801300B70F0
:1003B0000131013AF9D1704700000420AD3300004B
:1003C00088ED00E0C4380000000000207C00002020
:1003D000F0B595B01D46164608460C4602F05AF890
:1003E0001A9B0D93CDE9086500252B46082205A927
:1003F00020460A958DF82C500C9502F067F8079B63
:100400000293069B03939DF814308DF8115003F06E
:100410000302012A1DD1BDF81420059DC3F3C203B8
:10042000C2F383168DF81030B20008230EA92046BF
:1004300002F04CF8C5F3952508AB0093324602ABA9
:100440000EA9284600F0BCFE204602F027F815B0A1
:10045000F0BD022AF8D1BDF81650C3F3C203C5F3AC
:1004600089158DF810300827082D2E4628BF08263C
:100470003B4632460EA9204602F028F8AD1B08ABD9
:1004800002AA31460EA8374400F0FEFE002DEBD143
:10049000DAE7704707B5044B0093044A4023FFF79F
:1004A00097FF03B05DF804FBF1040000B1000020E9
:1004B00030B50C4D0FCD89B06C460FC495E80F00D8
:1004C00084E80F000623084800930022694602F0E2
:1004D000C7F808B100F038FF044B00221A7009B0C9
:1004E00030BD00BF403900007C000020B00000207B
:1004F00038B50D480D4C0E4D002323700378EB5C8E
:10050000D2B263B1043002F01FFE08B100F01CFF4C
:10051000084B1A7812B12378002BFBD038BD0C3071
:1005200002F0A2FBF1E700BF7C000020F1000020F8
:100530009C060020B000002008B50848084A03784F
:10054000D35C33B1043002F06FFDBDE80840FFF723
:10055000AFBF0C3002F020FBF7E700BF7C000020AB
:100560009C060020FFF7A4BF08B5FFF7FBFF044877
:10057000042100F071FD034B01225A7108BD00BF38
:10058000983800009000002000230428CB604B60C6
:1005900098BF044B044A98BF53F820308A600B6020
:1005A000704700BFC43D0000A03D0000CB680022A2
:1005B0005A717047C368DB6800225A717047CB6874
:1005C00001225A717047C368DB6801225A71704773
:1005D0000D4A8A6070B50D4A0D4C0023121BCB608A
:1005E0004B600B6012091D469A4207D0E6683679C7
:1005F000FF2E05D0854202D1A3680B6070BD013586
:1006000001331034F0E700BFD83D0000A8380000E7
:10061000983800002DE9F3478368D3F84831C3F3D5
:1006200040059B07074606D50022114602B0BDE8EB
:10063000F04701F0FDB9144E144CDFF85880DFF894
:100640005890DFF858A0A41B2409A54202D102B09B
:10065000BDE8F087F168B3680A79FF2A07D10C4A30
:100660000821384601F0B8F901351036EDE7487930
:10067000002814BF41464946CDE90012384652468B
:10068000082101F0A9F9EFE798380000A838000028
:100690008E3900007D39000085390000AD39000039
:1006A0002DE9F74F154D164C9946641B52F8043C42
:1006B00006468846174624094FF0000B5C4507D1D3
:1006C000104A0221304603B0BDE8F04F01F084B972
:1006D000A9680193184603F03BF8AA46019B103520
:1006E00040B93B46424651463046CC4603B0BDE891
:1006F000F04F60470BF1010BE0E700BF98380000B6
:10070000A8380000CE390000014BFFF7C9BF00BF79
:10071000E50A0000014BFFF7C3BF00BFAD050000B5
:10072000014BFFF7BDBF00BFBF050000014BFFF746
:10073000B7BF00BFC10B0000037813F0040216D04E
:1007400003F00303012B03D0022B09D001207047D3
:100750000A6800880232C0F3831002440A60F5E799
:100760000B684288023303EB92130B60EEE71046EE
:10077000704700002DE9F04FDFF810A10F4685B05B
:100780000446861C0020154600F042FEDAF80420DC
:100790003A60DAF8083003F580739B1A0AF21C47B6
:1007A0000AF583690AF21448B34219D30020002DD8
:1007B00068D004F00F039B0143F0050363F30F00BF
:1007C000DAF80430DAB2033233444AF82200002067
:1007D000CAF8043000F01EFE012005B0BDE8F08F1D
:1007E0000121384600F045FE484600F05AFE4046DA
:1007F00000F057FEDAF808000090C0B203300AEBB0
:1008000080006946FFF798FF009B30BBDAB20AEB25
:100810008202D16801919A1C0133DBB20AEB830397
:100820000092D3F80CB001F00303012B22D0022B6D
:1008300015D08346404600F037FE10B1009BCAF841
:1008400008305946384600F014FEDAF80830DAF875
:10085000042003F580739B1AA6E7D8B2CEE7BDF853
:100860000630C3F3891303334FEA1B4B02EB9303A8
:100870000093DFE7BDF80430C3F383134FEA1B4B4B
:100880001344F5E7A40544F0060099E7C4010020ED
:10089000012907B5034604D08168D1F848118907BA
:1008A00007D500221146184603B05DF804EB01F0AD
:1008B000BFB853680193054B00931368044A0221A3
:1008C00001F08AF803B05DF804FB00BFEE390000C8
:1008D000E43900008368D3F848319B0703D5002230
:1008E000114601F0A5B8024A022101F075B800BF17
:1008F000033A0000FFF7EEBF30B599B10A4B0B4A3F
:100900000B49D21AD20800239A4201D1052006E0F1
:1009100031F823500468A54202D10360002030BDA5
:100920000133F1E70846FAE738380000983800004C
:100930001C0000202DE9F84F1E4B1F4801221A70A1
:1009400001F061FD814690BB1C48DFF880801C4CA3
:10095000DFF87CA001F047FEA4EB0804E4084D4654
:10096000A54208D10023174A19469C421AD022F802
:1009700023100133F9E700273E4608EBC50BB542CB
:1009800009D058F83610DBF80000142202F060FE9F
:100990000028C8BF01370136B442F0D12AF82570CB
:1009A0000135DDE70848A200002102F09EFE48461E
:1009B000BDE8F88FC4010020A8380000943D000075
:1009C000983800001E0000204C000020383800003D
:1009D0001C00002007B5019001A8FFF78DFF30B97A
:1009E000019A044B53F8320003B05DF804FB002079
:1009F000FAE700BF38380000002310B5CB604B6029
:100A0000034B8B600C460121FFF7E4FF206010BD13
:100A1000A03D0000094B013903EBC000032909D8B0
:100A2000DFE801F00A0204060420704700797047ED
:100A30004079704700207047022070473838000026
:100A400030B5124C00EB400054F8215002FA00F38C
:100A5000072202FA00F06B400D4A03406B40C3F3DB
:100A6000821044F8213002EB8101C3F3C2028242BA
:100A700038BF0246C3F34220824203F0070338BF67
:100A80000246934238BF13464B8030BD4C000020D5
:100A90001C00002013B50446019101A8114693B132
:100AA000FFF72AFF10B1002002B010BD01990B4AD8
:100AB00004EB440052F8212007238340134023FA1B
:100AC00000F0C0B2F0E7FFF717FF0028EBD1019A62
:100AD000034B03EBC2039879E6E700BF4C0000200C
:100AE00038380000294B2A4A2DE9F04F9B1A4FEA6B
:100AF000D30ACB685B7985B005460E461BB9254AFB
:100B0000022100F069FF244B244ADFF8A480082169
:100B1000284600F061FF224A0821284600F05CFFC9
:100B20000024544502D105B0BDE8F08FF36893F876
:100B3000049001231A4621464846FFF7ABFF0023E5
:100B40000746012221464846FFF7A4FF012103285A
:100B500081468346204628BF4FF00309FFF73AFF3E
:100B60005FFA89F90F4A58F82910034658F8270008
:100B70000D4F0090CB4598BF1746CDE901170B4AA2
:100B80000821284600F028FF0134CAE79838000001
:100B900038380000163A0000293A0000353A0000C3
:100BA000533A0000A5400000143A0000903A0000BB
:100BB000B03D000013460A46C168FFF793BF00002E
:100BC0002DE9F04F2DED028B054683B09B4616466E
:100BD000002A5DD0DBF80070CB68554993F804A07B
:100BE000384602F0B5FD0446F0B9012E09D1514A4C
:100BF0000221284603B0BDEC028BBDE8F04F00F0A7
:100C0000EBBEDBF804304C4F57F8041B00930A226C
:100C1000184602F01DFD002800F083800134052CE9
:100C2000009BF1D1454A15E04549384602F090FD58
:100C3000044668B9012E36D04FF00108414B424AB4
:100C4000A3EB02094FEAD9030093DFF808914FE0C4
:100C50003E4A3B460221284603B0BDEC028BBDE86C
:100C6000F04F00F0B9BE00231A4631465046FFF758
:100C700011FFA04211D200213046FFF7ABFE4246E1
:100C800003460221284600F0A7FE0136BE42EAD103
:100C900003B0BDEC028BBDE8F08F224631465046D2
:100CA000FFF7CEFEF1E7274F274BDFF8A480FF1AAE
:100CB000FF080026EAE700213846FFF78BFE18EE12
:100CC000101A202202F0C4FC034608B1013716E0D6
:100CD0000246019039465046FFF7DCFEA042019BD8
:100CE00018D3224639465046FFF7AAFE08F10108FC
:100CF000B045CDD25BF8283008EE103A0027009BB3
:100D0000BB42D8D15BF828304A460221284600F081
:100D100063FEEBE719463846FFF75CFE0C4A0346D4
:100D2000F3E7022EE4B2BED04FF0020886E700BF20
:100D3000A63A0000AD3A0000B03D0000183B0000AC
:100D4000C43A00009838000038380000CC3A00005F
:100D5000E13A0000043B000013460A46C168FFF771
:100D60002FBF0000034BD3E90130C31A584258414A
:100D7000704700BFC40100202DE9F04385B0FFF7A4
:100D8000F1FF0546002840F00A81864CC4F818049B
:100D9000BFF34F8FA3680093DBB2033304EB8300F0
:100DA0006946FFF7C9FC009B18B1D4F81824002A43
:100DB00063D0DAB2991C013304EB8202DBB204EB9C
:100DC0008303D268DB68029302F00303022B0192D3
:100DD00000915DD1BDF8063073489DF80450C3F30F
:100DE00089184746502F28BF502707F1080167F39D
:100DF0008F13C1F30901ADF8063001F01CFBC5F3F8
:100E0000C2050646002800F0B18001F043FB002334
:100E1000082201A9304601F04FFB0099CB43DBB219
:100E20000133C9B20331B7EB830F4FEA830204EBFE
:100E300081012AD95FFA82F90823A7EB0907304616
:100E400001F03AFBFFB209F10803584903F0FC0333
:100E50003A46304601F030FB009B08F1030803EBF3
:100E600098030093D4F81834002B49D1D4F81074A7
:100E7000DFF84C914FF0070867E062689A428BD820
:100E8000A260284605B0BDE8F08308233A46E0E7B3
:100E9000012B6BD1BDF804504348C5F383110629DB
:100EA00028BF062161F38915023101F00F01890085
:100EB000ADF8045001F0BFFAC5F3C205064600289C
:100EC00054D001F0E7FA0023082201A9304601F0CE
:100ED000F3FA0027BDF80420C2F38312BB00974247
:100EE00003F10803BED200994A1CC9B20331009233
:100EF00004EB81010422304601F0DEFA0137E9E714
:100F0000304601F0CBFAFFF72DFF80F00100C5B2AB
:100F1000B7E7FB685A79B2B11B79BDF8081003EB4B
:100F2000430259F8211008FA02F3052D03EA0103E0
:100F300023FA02F308BF0325AB4204D33B683146D2
:100F40001B6838469847FB681F68002FE1D1304680
:100F500001F0A4FA384600F05BFAD4F818340BB963
:100F6000009BA360002000F055FACCE7D4F81044B1
:100F700074B90F4B5B88012BC5D90E4B0E480F4936
:100F8000C01AC008000440F0020000F061F8BAE79F
:100F9000236820469B689847E3681C68E8E70025BB
:100FA0006FE700BFC4010020A8380000D001002076
:100FB0002C0000203838000058380000353B000075
:100FC0004C0000202DE9F34704460E46924601A945
:100FD000012218469946FFF7CDFB1B4F10B3019D28
:100FE0004FF00008AA1CC84508EB020123D117489E
:100FF000002100F01BFA80F31000000440EA1440C6
:10100000E4006B1C04F03804DBB2EDB244F00104E0
:1010100007EB8303033544EA881444EA8624D86046
:1010200047F825403B781BB1FFF7A6FE0028FBD10F
:1010300002B0BDE8F087C9B207EB81015AF8283049
:10104000CB6008F10108CEE7C4010020E0050020D4
:1010500000231A46FFF7B6BF2DE9F84388461B491F
:10106000D1F81034054600241A468AB9EA6814718A
:10107000A3B9C1F810541360154B164EF61AF608B2
:10108000002703F10709B7420DD12046BDE8F883D8
:10109000D2681079A04212D01268E6E7DB681968BE
:1010A00011601D60E8E719F83720EB6842453946C2
:1010B000187928BF4246FFF7C3FC0137E3E7013444
:1010C0000A2CD1D14FF0FF34DFE700BFC40100206C
:1010D000383800009838000038B5084B0125D3F89F
:1010E00010441D7004B938BDE3685D712368204663
:1010F0005B689847E3681C68F4E700BFC401002000
:1011000030B5C38885B004460D4633B1144A009209
:101110001449154A284600F06AFF217A05291DD096
:10112000637A4BB1A088FFF775FC104B104953F858
:101130002020284600F05BFF227A0E4BA08853F84F
:10114000222003920021FFF745FC039A0A49034637
:10115000284605B0BDE8304000F049BF05B030BDBD
:10116000403F0000283F0000203F0000983F000063
:10117000C3410000BC3F0000453F000007B50346E7
:101180000846197A052911D05B7A2BB1094A0A4918
:10119000019000F02CFF01980849019000F027FF12
:1011A000019803B05DF804EB00F016BF002AF8D0F8
:1011B000F2E700BF403F0000C3410000A340000031
:1011C0002DE9F04385B01F460C9D002395F80C9047
:1011D0002B7306460C46904629463846FFF790FF8B
:1011E000B8F1060F09D8DFE808F00412181F2833F9
:1011F00040003146284600F0FAFE002229463846D3
:10120000FFF7BCFF85F80C9005B0BDE8F0832268BD
:101210003146284600F0EBFEEFE7D4E900233146E3
:10122000284600F0E4FEE8E7A36800933146D4E9DD
:101230000023284600F0DBFEDFE7E3680193A368A4
:1012400000933146D4E90023284600F0D0FED4E7CD
:1012500023690293E3680193A36800933146D4E9BC
:101260000023284600F0C3FEC7E7636903932369A0
:101270000293E3680193A36800933146D4E9002305
:10128000284600F0B4FEB8E708292DE9F74F80465C
:101290000E4617461C463DD800251B7B257321466C
:1012A00010460193FFF72CFFDFF88CA0DFF88CB01D
:1012B000AE4232D918F805205946204600F097FE74
:1012C0000135082DF4D11B49DFF874A0DFF874B0A4
:1012D000204600F08CFE4FF000094E4524D918F846
:1012E00009507E2D1ED8284602F0AAF9002814BF06
:1012F0002A462E225946204600F079FE09F10109BE
:10130000B9F1080FE9D1012221463846FFF736FF2F
:10131000019B237303B0BDE8F08F5146204600F0D7
:1013200066FECDE72E22E5E75146204600F05FFE3F
:10133000E4E700BF593F0000553F00004F3F000069
:10134000573F00005B3F00001FB50021039001AA3A
:1013500044F20100CDE9011100F004F805B05DF898
:1013600004FB000010B572B6FFF7B6FEFFF704FDF0
:101370000028FBD1164C63884BB11648164B174911
:10138000C01AC008000440F00100FFF761FE144BD2
:10139000D3F8F030DB0700D500BE6388012B09D9F4
:1013A0000C480D4B0F49C01AC008000440F0020061
:1013B000FFF74EFEBFF34F8F09490B4BCA6802F48B
:1013C000E0621343CB60BFF34F8F00BFFDE700BF68
:1013D0002C0000205838000038380000D03F0000B2
:1013E00000ED00E0DC3F00000400FA0572B6024A9E
:1013F00013680133136070477C060020034A1368AA
:10140000013B136003B962B6704700BF7C06002041
:10141000FFF7ECBFFFF7F2BF024B034A1B681068EF
:10142000184700BF880600208006002010B503463C
:1014300053E8000F0A4643E8002494F0000FF7D168
:1014400010BD10B5034653E8002F42EA010043E8FF
:10145000000494F0000FF6D110BD10B5034653E818
:10146000000F00EA010243E8002494F0000FF6D1D7
:1014700010BD10B5034653E8002F02EB010043E80E
:10148000000494F0000FF6D110BD10B5034653E8E8
:10149000002FA2EB010043E8000494F0000FF6D106
:1014A00010BD0121FFF7CDBF0021FFF7D6BF00001F
:1014B0002DE9F0478368D3F84831C3F340059B0713
:1014C00088B0074606D50022114608B0BDE8F047AF
:1014D00000F0AEBA012906D91E4A022108B0BDE8C3
:1014E000F04700F079BA1C4C1C4EDFF874A04FF0A6
:1014F0006408A946361B1C23B6FBF3F6AE4204F182
:101500001C0402D108B0BDE8F08754F81C0C54E963
:101510000623017900689A1A1B1ADBB2039308FBB1
:1015200003F3B3FBF2F3CDE9019334F8043C0093E9
:10153000CDE9061254F8083C11FB08F13846B1FB1E
:10154000F2F1CDE904215246082100F045FA0135B7
:10155000D4E700BF05400000A8380000C4380000F0
:101560001840000010B590B1D0E9012301689B1A22
:10157000DBB20A60013BDBB2FF2B026802D1002024
:10158000107110BD11684C1C14600B70F2E70E2036
:10159000F7E738B504460020FFF73AFF2268636892
:1015A0001168994213D9481E106011F8013CE56892
:1015B000218B01FB0355A36811791B1ADBB29942F9
:1015C00000D213710020FFF725FF284638BD002503
:1015D000F8E738B5054600200C46FFF719FF2A68E2
:1015E0001368591C1160E968641A298BB4FBF1F483
:1015F0001C70BDE838400020FFF70CBF2DE9F84310
:10160000089E1D460C46F1B9194E1A49891BB2EBCA
:10161000D10F4FEAD10905D2174F043607EB8207E5
:10162000A14502D100232B6009E056F834803868C8
:10163000D8F8001002F08CF818B9C5F80080BDE8A1
:10164000F8830134ECE70028ECD00178436839B125
:101650003146104698473368002BE3D02E60EEE702
:10166000110103EB02125B58002BDBD02A60E6E786
:1016700000380000383800000000002008B102F0F7
:101680008EB8704707B58368DA7E8A421ED01B2267
:101690008DF800205B228DF8012031228DF8022088
:1016A0003B228DF8032033228DF8042001F12F0214
:1016B0008DF805206D22D9768DF8062000228DF850
:1016C0000720044900696A4600F091FC03B05DF808
:1016D00004FB00BFC34100000A4609B1FFF7D2BFB7
:1016E0008168CA760069024A024900F080BC00BFE6
:1016F00045450000C341000007B583681A7F8A4250
:1017000018D01B228DF800205B228DF80120342296
:101710008DF8022001F12F028DF803206D22197738
:101720008DF8042000228DF80520044900696A46DE
:1017300000F05DFC03B05DF804FB00BFC341000096
:101740002DE9F34105460F461446002614B902B0B0
:10175000BDE8F081686803682246D3F80C80B919A7
:1017600001ABC047019B1E44E41A002BEED1AB68CD
:101770001A78032AEAD0D3F848219206FBD5B3F8A9
:1017800048216FF34512A3F84821DFE70A460149D3
:1017900000F02DBC2841000011B10069FFF7F6BF31
:1017A00070470000014900F022BC00BFA4400000C7
:1017B0000A4619B10249006900F019BC704700BF20
:1017C0002E4100000A4619B10249006900F00FBC21
:1017D000704700BF344100002DE9F04F044685B04A
:1017E0000E4690460025705D01F022FF20BB5FFA97
:1017F00088FA3046FFF742FFA3685B7E401BA3EBED
:10180000080B584506EB050918D94A46002712F877
:10181000011B039308460292019101F009FFDDE9E3
:10182000022318B101990A2931D0BB4608EB070100
:101830008B422BD90137EAE70135D4E74B46002725
:10184000B84217D013F8012B0A2A05EB070A1BD15F
:10185000206900F0C1FB49463A462046FFF770FF79
:101860002069FFF79FFF5FFA88F120460AF1010522
:10187000FFF792FF2069711900F0B9FB206905B0EC
:10188000BDE8F04FFFF78EBF0137D9E75F4620690B
:1018900000F0A2FB3A4649462046FFF751FF3D447F
:1018A000705D01F0C5FE38B92069FFF77BFF514636
:1018B0002046FFF771FF9CE70135F1E72DE9F34181
:1018C00005468068424F002480222146A0308DF8D2
:1018D000034001F00AFF3F49286900F088FB2869AE
:1018E00000F07AFB4FF47A7647F0010768680368E6
:1018F0000122D3F810800DF1030101ABC047019B19
:101900005BB94FF6C010B847019B002BEED1013EEA
:10191000B6B2002EEAD10D2035E09DF80330AA685A
:101920001B2B48D092F8A0101B29EDD1522B42D18D
:101930001444002384F8A03092F8A1105B291FD131
:1019400002F1A20602211D4616F8010B4C1C3B2891
:10195000E1B264B21AD1002C20DB01F1A0041444DE
:10196000002314F8010BD8B9FA2B28BFFA23FA2D5B
:1019700013752B4628BFFA23937582F8A00002E066
:1019800082F8A0300B2002B0BDE8F08105EB8503A2
:1019900000EB4303303B80299DB2D5D10C20F2E708
:1019A00003EB830300EB43004E1C303883B2300658
:1019B000F1B2F3D4D5E711190134E4B2092C81F85E
:1019C000A030A1D9002382F8A0300420DBE700BFBB
:1019D00060450000524500000CB473B506AB0446E8
:1019E00053F8046B01938368D3F848516D0719D5F8
:1019F000DD7E8D4216D0B3F81B50FFF76DFE2069D7
:101A000001AA314600F072FBE9B22046FFF764FEFE
:101A1000290A02D02046FFF76FFE02B0BDE87040F1
:101A200002B07047206901AA314600F05FFBF4E77D
:101A30002DE9F04F8BB0836817466C4A009204463C
:101A40006B4A5B680D460821FFF7C6FFA668706801
:101A5000FFF714FEB168033082B211B12046FFF7E0
:101A6000BBFE644A00212046FFF7B6FF002F3DD0A1
:101A7000002D3BD04FF00C0AA9460AFB075A082656
:101A8000D9F80400FFF7FAFD8046D9F80000FFF707
:101A9000F5FD4044B04209F10C0988BF86B2CA4541
:101AA000EED106F10408544B544A00931FFA88F80B
:101AB00006F107090821204643461FFA89F9FFF776
:101AC0008BFF4F494A462046FFF786FE2DB1DFF8CF
:101AD0002CB14FF0000ABA450AD1A368D3F80C80A4
:101AE000B8F1000F3ED10BB0BDE8F08F0826D8E763
:101AF000D5E9002373B32AB30192424A0092082128
:101B0000414A2046FFF768FF6868FFF7B7FD03907A
:101B10002868FFF7B3FD0399B31C591A091AC9B213
:101B20002046FFF739FE394920693A2200F05FFA72
:101B3000A96899B14A462046FFF74EFE0AF1010A0C
:101B40000C35C8E7009343465A4608212046FFF764
:101B500043FFEDE7002AEBD00092F4E72069FFF79E
:101B600021FEEBE700220592174606AE009605AB74
:101B70000121404602F10109FFF740FD059D3DB1FD
:101B80002868FFF77BFDB84200D987B24A46EDE7E7
:101B9000B9F1010FA7D01E4ADFF860A02946204600
:101BA000FFF71AFF2A46BD1CADB205AB0096012116
:101BB000404602F10109FFF721FD059B002B92D061
:101BC0001B68009308212B4652462046FFF704FF6E
:101BD000059B596831B17A1D92B22046FFF7FCFD92
:101BE0004A46E2E72069FFF7DDFDF9E757450000C7
:101BF000BD410000C641000066450000D041000024
:101C0000D8410000CC460000EB4100005B3F0000E3
:101C1000F441000000221146FFF70ABF022910B567
:101C2000044608D18368D3F848319B0703D5BDE843
:101C30001040FFF7EFBF2069054A064900F0D7F9C9
:101C40002069054A0349BDE8104000F0D0B900BF43
:101C50004E450000C341000049450000012906D05F
:101C6000022906D18368D3F848319B0701D5FFF7D5
:101C7000D1BF024A0221FFF7AFBE00BF7241000090
:101C800038B58368D3F84821C2F3400592070C4663
:101C900006D500221146FFF7CBFE2C46204638BD64
:101CA0000029FBD05B68024A0221FFF795FEF5E7A9
:101CB00002420000012937B50546144604D103B09D
:101CC000BDE83040FFF7A6BF023918BF0121FFF77A
:101CD000D7FF48B963680193044B0093044A236813
:101CE00002212846FFF778FE03B030BDEE39000030
:101CF0001D420000012907B504D103B05DF804EBD3
:101D0000FFF788BF02290AD153680193084B00935B
:101D10001368084AFFF760FE03B05DF804FB8CBF50
:101D20000121002103B05DF804EBFFF7A9BF00BF5C
:101D3000EE3900001D420000013910B518BF012125
:101D40000446FFF79DFF40B9044A0549206900F0A9
:101D50004EF9A36845F218021A8310BD3F450000F2
:101D6000C34100000129F7B50446154633D1856803
:101D7000FFF7A4FD18BBA36820691F7D9E7DFA2193
:101D8000FFF704FD20691D49FA2200F030F92046D2
:101D9000FFF794FD98B9A368197D6976A368C91BFC
:101DA0009B7D2B762046C9B2FFF70CFD297E891B4F
:101DB000C9B2204603B0BDE8F040FFF7F9BCA36804
:101DC00045F218021A830E4A0421204603B0BDE8EA
:101DD000F040FFF701BE022994BF00210121FFF767
:101DE0004FFF48B96B680193064B00932B68064A76
:101DF00002212046FFF7F0FD03B0F0BD3A4100009C
:101E000026420000EE3900001D4200002DE9F0419D
:101E1000013986B018BF01210546FFF731FF40BBED
:101E2000AB68DFF85480D3F840610446EEB1082C6B
:101E30001BD030460023092203A900F047FB9DF880
:101E40001420A968304609230132A03100F03EFB7E
:101E5000AB68049EA0330093671C234642460021D2
:101E60002846FFF7B9FD3C46E0E7AB68002283F85F
:101E7000A02006B0BDE8F08160420000013910B535
:101E800018BF01210446FFF7FBFE30B9A368B3F881
:101E9000482160F38202A3F8482110BD013910B532
:101EA00018BF01210446FFF7EBFE30B9A268B2F873
:101EB000483143F00403A2F8483110BD013910B590
:101EC00018BF01210446FFF7DBFE30B9A368B3F861
:101ED000482160F3C302A3F8482110BD013910B5B1
:101EE00018BF01210446FFF7CBFE30B9A268B2F853
:101EF000483143F00803A2F8483110BD022973B5F8
:101F00000D4694BF0021012104461646FFF7B8FE96
:101F1000014658B9022D0BD1736801930C4B009305
:101F20000C4A336829462046FFF756FD02B070BDC3
:101F3000A368094AD3F8483113F0080F074B18BFBC
:101F40001346074A204602B0BDE87040FFF744BD83
:101F5000EE3900001D420000A43B00006A42000070
:101F60006E420000013910B518BF01210446FFF789
:101F700087FE48B9A368C3F83801E3685B68BDE829
:101F80001040186800F02BBB10BD00007FB5013970
:101F900018BF01210446FFF773FE0546B8B9E36890
:101FA0005B681E68304600F017FBB268A168C3B2D8
:101FB000CDE9013264204343B3FBF2F3DBB200937B
:101FC000D1F83831034A29462046FFF705FD04B011
:101FD00070BD00BF7F420000826810B504462AB180
:101FE00043690168006998470023A36010BD0EB4DF
:101FF00003B5039921B104AB01AA019300F076F86F
:1020000002B05DF804EB03B070470A2938B5044606
:102010000D4602D10D21FFF7F8FFA3682268591C75
:10202000A160D554D4E901329A4204D32046BDE8D8
:102030003840FFF7D1BF38BD2DE9F84F9846DDE9AC
:102040000A43154682460F460A464FF00109AA4246
:102050000FD2C14538BFC14613F0010B01D16CB995
:1020600000240126B8F1010F1BD908F1FF386E4397
:10207000F8E709F10109B2FBF5F2E8E79B070ED595
:10208000B8F1000F0CBF30262026A145E9D2013C53
:1020900031465046FFF7B9FF002CF6D1E0E7202685
:1020A000F3E7B7FBF6F39D42E1D9DFF83C80B7FBDD
:1020B000F6F3504618F8031006FB1377FFF7A5FF59
:1020C0003346AB42B6FBF5F6F1D2BBF1000F02D0BE
:1020D0000CB1A14501D3BDE8F88F20215046013C49
:1020E000FFF793FFF4E700BFD84600002DE9F74F54
:1020F000054617468846002900F03E8118F8011B66
:1021000049B92B7B002B00F03781284603B0BDE88E
:10211000F04FFFF761BF252940F0B780002698F8FF
:1021200000302D2B424608F1010823D0302B24D05B
:102130002B2B25D000242A2B02F1010123D13B684F
:102140001A1D1B683A601C440A4613782E2B26D1B0
:1021500001324FF0000A104610F8011BA1F1300CBB
:10216000BCF1090F1DD80A2303FB0A13A3F1300A9F
:102170000246F0E746F00106D1E746F00206CEE758
:1021800046F00406CBE711F8013CA3F13000092822
:10219000DBD80A2202FB0434303C0A46CBE74FF07E
:1021A000000A12F8011B01F0FB0068289046F8D0E5
:1021B000782909D86F290CD8632962D022D825291B
:1021C00063D0582900F0888098F80030002B95D112
:1021D00097E770390829F7D801A353F821F000BF19
:1021E00053230000C9210000C9210000E92200009A
:1021F000C9210000C7220000C9210000C921000038
:10220000D9220000642901D06929DDD13A68D2F8C9
:102210000090111D89EAE9723960A2EBE9724FF072
:10222000010B092A35DCD34538BFD3462CB1B9F1AF
:10223000000F01DB720700D5013CB30702D5BAF1EC
:10224000000F03D0F00701D44CBB0024B9F1000FFC
:102250002DDAC9F100092D212846FFF7D6FE06F038
:102260000302022A04D1BAF1000F01D11CBB0024E1
:10227000CDE9004653460A2249462846FFF7DCFED0
:10228000A2E73B681A1D19783A602846FFF7BDFEA1
:102290009AE70A230BF1010BB2FBF3F2C1E7A34566
:1022A000D4D220212846013CFFF7AFFECCE77107CE
:1022B000D5D52B21D0E7A345DAD230212846013CE1
:1022C000FFF7A3FED2E73968CDE900460A1D3A6060
:1022D00053460A220968D0E739680A1D3A60CDE9F9
:1022E000004653461022F5E73B681A1D3A6016F087
:1022F0000106D3F8009024D1B9F1000F03D048466D
:1023000001F04DFA0646B4421DD809F1FF3919F81B
:10231000011F00293FF458AF2846FFF776FEF6E785
:1023200028460136FFF771FE19F806100029F7D18B
:10233000A642BFF449AF20212846013CFFF765FEC5
:10234000F6E70026F0E720212846013CFFF75DFE76
:10235000D9E73B681A1D3A60302128461C68FFF710
:1023600054FE78212846FFF750FE00220823CDE9CD
:1023700000322146102280E703B0BDE8F08F00BF95
:102380002DE9F84FB0F806A04579D2F800B09DF8D5
:1023900028900AFB05F5043D88460BEB0301A94292
:1023A00003F1040488BFA5EB030BB4FBFAF6074660
:1023B0000AFB1644C2F800B04EB9AAEB04055D450D
:1023C00028BF5D46BBF1000F04D1BDE8F88F3F6820
:1023D000013EF1E7043408EB06003C442A46B9F11B
:1023E000000F0DD02146ABEB050B01F055F9DA4596
:1023F0002E443F6855464FF0000428BF5D46E1E794
:1024000001462046EFE7FFF7ADB8F8B5467901463B
:10241000721E0546002393422D6803D30024A64272
:1024200002D8F8BD0133F6E70F682846FFF7D1F868
:1024300001343946F3E72DE9F843068BCD1C0746F6
:10244000FFF7A7F8043E35440446B5FBF6F5F0B1B6
:102450004FF48073EDB28380C680013D07608146F2
:102460004FF00008A84512D23846FFF792F806460A
:1024700048B163790133637108F10108C9F80000BC
:1024800007608146EEE72046FFF7BFFF344620464F
:10249000BDE8F88301210430FEF7EBBF10B5012140
:1024A00004460430FEF7F1FFC0B220B92046BDE873
:1024B0001040FFF7AABF10BD1FB503920022009283
:1024C00003AAFFF75DFF05B05DF804FB1FB503929B
:1024D0000122009203AAFFF753FF05B05DF804FB49
:1024E000026813685268934291BFD01A8068013025
:1024F000801888BFC01A704710B504460020FEF748
:1025000087FF2046FFF7ECFF04460020FEF782FF1E
:10251000204610BD2DE9F04F8368D3F84831C3F34E
:1025200040059B078BB0064606D5002211460BB02E
:10253000BDE8F04FFFF77CBA012906D9204A0221F5
:102540000BB0BDE8F04FFFF747BA1E4C1E4BDFF84B
:102550008090DFF880A01B1B1C22B3FBF2F8A8457B
:1025600002D10BB0BDE8F08FE36809932368A76838
:10257000D3F808B02046FFF7BFFF94F810E0134AE5
:10258000642303FB00F1BEF1000F18BF4A4603FBB2
:102590000BF3B3FBF7F3CDE9043BB1FBF7F1099B78
:1025A0000191CDE90672CDE90207009352466369B5
:1025B00008213046FFF710FA01351C34CFE700BF81
:1025C000054000003838000038380000F1460000AF
:1025D000FA460000064700000368986870470368E1
:1025E00000229A607047836800225A60C3E904227F
:1025F0009A60DA601A6070471FB503788DF8003072
:102600004368019383688DF80830C368054A0393D3
:10261000054B684653F8213052F82110984705B011
:102620005DF804FB8C060020940600201FB503789B
:102630008DF800304368019383688DF80830C368D3
:10264000054A0393054B684653F8213052F8211090
:10265000984705B05DF804FB8C0600209406002026
:10266000F0B5194B90F800C0DFF86CE043F82C206F
:10267000164B16460A6943F82C204B7F0EF80C3097
:102680000C4607460FCC89B06D460FC594E80F0085
:1026900085E80F003B78CDF810C01EF803304BB131
:1026A000002E0B4A694608BF3246381D00F0E0FB99
:1026B00009B0F0BD002E074A694608BF324607F14F
:1026C0000C0000F099F9F3E7940600208C06002036
:1026D000F92500002D2600009C060020024AD2F8B1
:1026E0000034002BFBD0704700E001400A4908B5D8
:1026F0000223C1F80435BFF36F8FBFF34F8FC1F8CA
:102700000805FFF7EBFF0023C1F80435BFF36F8F17
:10271000BFF34F8F08BD00BF00E0014070B50E4E03
:1027200001231546C6F80435BFF36F8FBFF34F8FF3
:102730000024AC4207D10023C6F80435BFF36F8FE5
:10274000BFF34F8F70BD51F8243040F82430FFF7AD
:10275000C5FF0134EDE700BF00E0014000F180401B
:10276000002382B0036003680193019B02B07047AD
:102770004FF0804110B5D1F8003163B14FF4807053
:10278000FFF7ECFF0D4B58790122C1F8082310B96F
:102790005A711B6898474FF08042D2F8043163B1F8
:1027A0004FF48270FFF7DAFF0223C2F80833034BBD
:1027B000BDE810401B680120184710BDA00600208E
:1027C000014B1B68184700BFA806002038B50B4B0B
:1027D00098420C4601D0002038BD0020FEF718FEBC
:1027E000074B1D7915B901221C601A710020FEF7F4
:1027F00011FE002DEFD01120EEE700BF00200040B9
:10280000A8060020034B984201BF034B00221A6028
:102810001A71704700200040A80600200023435092
:1028200082B043580193019B02B070470A4610B52D
:102830004FF48E71FFF7F2FF136A9168C95C136A57
:1028400001331362C0F81C1510BD8B690A4610B520
:102850004FF4847123B9FFF7E1FFD0F8183510BDAC
:10286000FFF7DCFF536AD168D0F81805C854536AE3
:1028700001335362F3E700001FB501238DF80030E8
:10288000044BCDE90110D3E900126846904705B02A
:102890005DF804FBB006002030B54D4DD5F804338B
:1028A0009A0585B051D5D5F82431002B4DD04FF481
:1028B00092712846FFF7B2FF4FF40173C5F8083351
:1028C000444B93F829200AB901226A604049022248
:1028D0008DF80020D1F88024C1F8802403929A69F1
:1028E0000292DA6801920022C3E906226846D3E91F
:1028F000001290473648D0F81C315BB1354A516917
:10290000136A99424DD992F82830002B49D11146CB
:10291000FFF78CFF2E48D0F84431002B56D04FF4EF
:10292000A271FFF77BFF2B4B93F829200AB10122FC
:1029300002609A69002A49D0586AD96800229A61CF
:1029400005B0BDE83040FFF797BFD5F804335B070B
:10295000D0D5D5F80831002BCCD01E4C1C482146D0
:10296000FFF773FF636AA2699A42C3D1E369E16822
:102970004BB1A3612369E3600023606AE361636292
:10298000FFF77AFFB6E794F829300BB901236B60A3
:102990000F4B4FF40172C3F808230023606AA36150
:1029A000EEE70B484FF48E71FFF738FF5369002BA9
:1029B000B0D051690291002391688DF800300191E7
:1029C00053616846D2E900139847A3E705B030BDCC
:1029D00000200040B00600201F2886BF00F01F0026
:1029E000044B4FF0A04300F5E070022243F8202092
:1029F000704700BF000300502DE9F843604D90F888
:102A000004802C2303FB0853064693F82A300C4617
:102A10009146002B40F0AF805A490068FFF7D6FE80
:102A20000746002840F0A9802268531C10D01F2AB6
:102A300087BF554902F01F0313464FF0A041012004
:102A4000984003F5E073C1F80805032041F823001E
:102A50006168481C0DD01F298BBF01F01F030B4676
:102A600049484FF0A04003F5E0734FF0000C40F8E8
:102A700023C03068A369C0F8243594F814C0637D7E
:102A8000BCF1010F4CEA0303C0F86C35C0F8141513
:102A9000C0F80C252BD1A368591C0DD01F2B8BBF60
:102AA00003F01F021A4638494FF0A04102F5E072C8
:102AB0004FF0000C41F822C0E1684A1C13D01F29D6
:102AC00087BF314A01F01F0C8C464FF0A0424FF0F7
:102AD000010E0EFA0CFE0CF5E07CC2F808E54FF092
:102AE000030E42F82CE0C0F80815C0F810352C226F
:102AF00002FB08F2AB18C3F804902369AB50B9F19C
:102B0000000F20D04FF48E71247FFFF787FE4FF423
:102B1000A2713068FFF782FE32681C4BC2F80433A2
:102B2000130B42F307326101002AC9B21EDB1848B9
:102B3000841884F800130121520903F01F0301FADD
:102B400003F340F8223033680422C3F800252C2315
:102B500003FB08530022C3E9062283F829205A61A7
:102B6000012283F82A203846BDE8F883094A03F099
:102B70000F03D154E7E70827F5E71127F3E700BF74
:102B8000B0060020992800000003005080000200D9
:102B900000E100E014ED00E02DE9F0410368057963
:102BA000284C0022C3F800252C2202FB05420146D6
:102BB0005268A2B1244AC3F808231A0B43F307331F
:102BC000002B0CDB02F01F005B0901228240203346
:102BD0001E4840F82320BFF34F8FBFF36F8F0B6861
:102BE000D3F80C05D3F81485D3F80865D3F810751D
:102BF0004FF0FF329042C3F81425C3F80C25C3F8F8
:102C00000825C3F8102501D0FFF7E6FEB8F1FF3F15
:102C100002D04046FFF7E0FE7A1C02D03846FFF7AC
:102C2000DBFE731C02D03046FFF7D6FE0868FFF7C4
:102C3000E9FD2C2303FB0544002384F82A3063605C
:102C4000BDE8F081B00600208402020000E100E04F
:102C50000279044B2C2101FB02335869003818BF5C
:102C600001207047B00600202DE9F84F064690F885
:102C7000048089469246FFF7EBFF044600283CD1CA
:102C8000204F2C2508FB057B4FF48E71CBF814A048
:102C9000CBF80890CBF820008BF828003068FFF7BD
:102CA000BDFD3068012383605946FFF7BFFDDBF8A7
:102CB00004305D461BBB3068DBF814402B6A9C4235
:102CC00011D83368D3F81C21002AFBD00122DA6026
:102CD00000202C2303FB087700237B61BDE8F88FDD
:102CE00095F828303BB9D0F81C31002BF8D0594664
:102CF000FFF79CFDE2E70F20EBE71120EEE720460F
:102D0000ECE700BFB00600200023435082B04358D8
:102D10000193019B02B070471FB501238DF800306D
:102D2000044BCDE90110D3E900126846904705B085
:102D30005DF804FBDC0600207FB5434AD2F824612D
:102D4000002E60D010464FF49271FFF7DDFF022392
:102D50008DF80030D2F88034C2F880340393D2F872
:102D60003C350293394BDA6801920022C3E906220E
:102D70006846D3E9001290473348D0F8443173B124
:102D80004FF4A271FFF7C0FF304B9A693AB10022AD
:102D9000C3E90622D968D0F83C05FFF7BDFF2A48F1
:102DA000D0F82031ABB14FF49071FFF7ADFF0123A4
:102DB000C360264B5A6962B1D0F84C1502910022CB
:102DC00099688DF8002001915A616846D3E9001294
:102DD00090471D48D0F858319BB14FF4AC71FFF7C4
:102DE00093FF1A4B5A6962B1D0F84C150291002238
:102DF00099688DF8002001915A616846D3E9001264
:102E0000904704B070BDD2F81031002BB4D04FF40D
:102E100088711046FFF778FF0C4BD2F83C05996992
:102E20008842A9D1DC69D96864B1D2F8005225F092
:102E30002005C2F800521A699C61DA60DE61FFF772
:102E40006BFF99E79C61FAE700200040DC06002058
:102E50001F2886BF00F01F00044B4FF0A04300F571
:102E6000E070022243F82020704700BF00030050AA
:102E70002DE9F843664E90F80480242303FB086391
:102E8000044693F820300D469146002B40F0BC805C
:102E900060490068FFF79AFC0746002840F0B680BA
:102EA00029684B1C10D01F2987BF5B4A01F01F0304
:102EB0000B464FF0A0420120984003F5E073C2F8A2
:102EC0000805032042F823006A68501C0DD01F2A11
:102ED0008BBF02F01F0313464F484FF0A04003F58D
:102EE000E0734FF0000C40F823C02068AB69C0F8D5
:102EF000243595F814C06B7DBCF1010F4CEA030337
:102F0000C0F86C35C0F80C15C0F814252BD1AB688F
:102F1000591C0DD01F2B8BBF03F01F021A463E49D0
:102F20004FF0A04102F5E0724FF0000C41F822C0D2
:102F3000E9684A1C13D01F2987BF374A01F01F0CCC
:102F40008C464FF0A0424FF0010E0EFA0CFE0CF52D
:102F5000E07CC2F808E54FF0030E42F82CE0C0F820
:102F60000815C0F81035242202FB08F2B318C3F884
:102F700004902B69B350B9F1000F2FD04FF4887132
:102F80002A7FFFF7C1FE20684FF49071FFF7BCFE67
:102F900020684FF49271FFF7B7FE20684FF4A271DA
:102FA000FFF7B2FE4FF4AC712068FFF7ADFE236867
:102FB0001A49C3F80413190B43F307335201002BCA
:102FC000D2B21CDB1648C51885F8002301225B0924
:102FD00001F01F0102FA01F140F8231023680822D2
:102FE000C3F80025242303FB08660023C6E9063343
:102FF0007361012386F820303846BDE8F883094B19
:1030000001F00F015A54E9E70827F5E71127F3E724
:10301000DC060020392D00000003005010034200A0
:1030200000E100E014ED00E02DE9F0413D4D0679AE
:103030000468242303FB065302465B68ABB13A4B9A
:10304000C4F8083344F30733002B4FEA14310CDB88
:1030500001F01F005B09012181402033334840F813
:103060002310BFF34F8FBFF36F8FD4F8003223F0DC
:103070002003C4F80032242303FB06539B6933B1B9
:103080004FF4A2712046FFF73FFE012363604FF427
:10309000AC712046FFF738FE0123E360242303FBD5
:1030A0000653D4F858110029FBD0996919B1D4F806
:1030B00044110029F5D00023C4F800351368D3F873
:1030C0000C05D3F81485D3F80815D3F810754FF014
:1030D000FF329042C3F80C25C3F81425C3F8082525
:1030E000C3F8102501D0FFF7B3FEB8F1FF3F02D0BF
:1030F0004046FFF7ADFE7A1C02D03846FFF7A8FE27
:103100004B1C02D00846FFF7A3FE2046FFF77AFBD0
:10311000242303FB0655002385F820306B60BDE8AF
:10312000F08100BFDC0600201003420000E100E057
:103130000279044B242101FB02335869003818BF7F
:1031400001207047DC06002001F06043B3F1005F0E
:103150002DE9F0470646884692463BD190F8049008
:10316000FFF7E6FF0446002836D11D4F30682425BE
:1031700005FB09754FF49071C5F814A0C5F80880D7
:10318000FFF7C2FD4FF4AC713068FFF7BDFD336847
:103190006A69A968C3F84415C3F8482501229A60F2
:1031A0006A68DAB9D3F82021D3F858011AB900288F
:1031B000F8D00F2007E00028FBD10122DA60D3F815
:1031C0005821002AFBD0242303FB097700237B61CD
:1031D000BDE8F0871020FBE71120F9E72046F7E76C
:1031E000DC06002008B54FF480410020FDF7A2FB6B
:1031F00008B1FEF7A9F8BDE80840FDF7B5B9000031
:1032000030B5514CFBB0FFF7EDFF6388022B09D9B5
:103210004E484F4B4F49C01AC008000440F003000D
:10322000FDF716FF02AA0023154642F8043B0133BE
:10323000782BFAD16388022B09D94448444B46497C
:10324000C01AC008000440F00300FDF701FF4FF46E
:10325000FE20FFF74BFA6388022B09D93B483C4B11
:103260003E49C01AC008000440F00300FDF7F0FE1C
:10327000782229464FF4FE20FFF750FA6388022B8C
:1032800011D9334B31483649C01AC008000440F008
:1032900003000190FDF7DCFE6388022B03D92E4961
:1032A0000198FDF7D5FE4FF4FE20FFF71FFA638863
:1032B000022B09D92548264B2849C01AC00800040A
:1032C00040F00300FDF7C4FE782229464FF4FE20AB
:1032D000FFF724FA6388022B11D91D4B1B482049A4
:1032E000C01AC008000440F003000190FDF7B0FED2
:1032F0006388022B03D918490198FDF7A9FE4FF402
:10330000FE20FFF7F3F96388022B09D90F48104B11
:103310001249C01AC008000440F00300FDF798FEEF
:10332000782229464FF4FE20FFF7F8F96388022B34
:1033300009D90648064B0A49C01AC008000440F0E3
:103340000300FDF785FEFEE72C0000205838000042
:1033500038380000084800001448000025480000E4
:10336000384800004FF08053D3F83001A0F1080333
:1033700058425841704700004FF08053D3F8302135
:10338000082A06D1D3F83431052B02D8024AD05C82
:1033900070470020704700BF4F480000024AD2F833
:1033A0000034002BFBD0704700E0014010B5FFF760
:1033B000D9FF40B14FF080430022C3F80C21C3F87D
:1033C0001021C3F83825FFF7CDFF002846D04FF075
:1033D0008052654BD2F80414C3F82015D2F80814B3
:1033E000C3F82415D2F80C14C3F82815D2F8101419
:1033F000C3F82C15D2F81414C3F83015D2F81814E9
:10340000C3F83415D2F81C14C3F84015D2F82014B0
:10341000C3F84415D2F82414C3F84815D2F8281478
:10342000C3F84C15D2F82C14C3F85015D2F8301448
:10343000C3F85415D2F83414C3F86015D2F8381410
:10344000C3F86415D2F83C14C3F86815D2F84014D8
:10345000C3F86C15D2F84424C3F87025FFF78CFF2D
:1034600018B1424B424AC3F88C26FFF785FF18B1CA
:10347000404BFB22C3F81825FFF77EFF70B14FF0D9
:1034800080414FF08053D1F8E42ED3F8583222F027
:103490000F0203F00F031343C1F8E43EFFF76CFF84
:1034A00020B1354B4FF40072C3F84026FFF75AFFA6
:1034B00048B14FF08043D3F80024D20744BF6FF0E7
:1034C0000102C3F800242D4AD2F8883043F4700377
:1034D000C2F88830BFF34F8FBFF36F8F4FF0805328
:1034E000D3F83021082A0ED1D3F83431052B02D875
:1034F000234AD35C3BB14FF01023D3F808224FF09E
:103500008043C3F858254FF01023D3F80022002A37
:1035100003DBD3F80432002B22DA1A4901234FF0DF
:103520001020C1F804351224FFF738FFC0F800421C
:10353000FFF734FFC0F80442FFF730FF0023C1F863
:103540000435FFF72BFFBFF34F8F0C490E4BCA68B2
:1035500002F4E0621343CB60BFF34F8F00BFFDE77F
:103560000A4B0B4A1A6010BD00C0004000500040DA
:103570004881030000F000400090024000ED00E0B0
:103580004948000000E001400400FA0598000020CE
:103590000090D0037F2805D8034A044B105C5B5C85
:1035A000184070470020704764480000E44800005D
:1035B000A0F16103192B98BF20387047A0F1410397
:1035C000192B98BF203070477F299ABF01700120C6
:1035D0006FF02E00704700BF5AB10A787F2A0AD8D0
:1035E00000B102600021501AC3E9001118BF012088
:1035F0007047104670476FF02E007047A0F16103CE
:10360000192B98BF20387047A0F14103192B98BFA0
:10361000203070477F2805D8034A044B105C5B5C60
:10362000184070470020704764480000E4480000DC
:10363000024B5B689B6808211B6818479C000020B0
:10364000024B5B689B6809211B6818479C0000209F
:10365000B2B1012A03461AD0024410B502F1FF3C70
:1036600005E011F8012B904208D19C450AD01C4678
:1036700013F8010B8E460028F3D10A78801A10BD8A
:103680001046704760789EF80120801A10BD0078BF
:103690000A78801A704700BF844640EA010313F09D
:1036A000030F18D18446202A0BD32DE9F007B1E887
:1036B000F807A0E8F807A2F12002202AF7D2BDE817
:1036C000F007042A07D351F8043B40F8043BA2F169
:1036D0000402042AF7D2002A05D011F8013B00F8B1
:1036E000013B013AF9D1604670478446002A2DD04B
:1036F00010F0030F04D000F8011B013A26D0F7E7C1
:10370000C9B241EA012141EA0141202A12D3A2F1C2
:1037100020022DE9F0030B460C460D460E460F46DF
:1037200088468946A0E8FA03203AFBD2BDE8F003B8
:1037300020320BD0042A05D340F8041B043A05D0EC
:10374000042AF9D200F8011B013AFBD16046704708
:1037500010F0030F19D111F0030F16D12DE97000ED
:103760004FF001364FF0803350F8044B51F8045BB2
:10377000AC4205D1A4EB060525EA04051D40F3D0B3
:10378000A0F10400A1F1040170BC10F8012B11F8A4
:10379000013BD21A01D1002BF7D11046704700F13E
:1037A000010110F0030F11D010F8012B002A23D0D3
:1037B00010F0030F0AD010F8012B002A1CD010F0D3
:1037C000030F03D010F8012B002A15D02DE970004B
:1037D0004FF001324FF0803350F8044BA4EB020558
:1037E00025EA04051D4000D1F6E7A0F1040070BCF5
:1037F00010F8012B002AFBD1A0EB0100704700005C
:1038000000000000103F0000000000001841000010
:1038100000000000BC46000000000000AC460000B4
:10382000000000009C460000000000008C460000E4
:0838300000000000AC4700009D
:10383800F347000000000000F94700000000000006
:10384800FD470000000000000248000000000000E2
:10385800733D000000000303FB3F00000000000070
:10386800E93F000000000003773D0000000000036E
:10387800CF46000000000000ED47000000000000F7
:10388800E846000000000000E447000000000000D7
:1038980060390000000000006C3900009000002032
:1038A800F4000020BC010020C4010020FC0000201E
:0C38B800380000207E3D000018000000D9
:1038C40000000000000000000000000000000000F4
:0C38D400000000000000000000000000E8
:1038E00000000000000000000000000000000000D8
:1038F00000000000000000000000000000000000C8
:1039000000000000000000000000000000000000B7
:1039100000000000000000000000000000000000A7
:103920000000000000000000000000000000000097
:103930000000000000000000000000000000000087
:10394000FFFFFFFFFFFFFFFFFFFFFFFFFFFFFFFF87
:1039500000000000000000000000D6010601000089
:10396000950400003905000093040000756172742D
:103970005F6C6F675F6261636B656E6400656E614B
:10398000626C65640064697361626C6564002573D0
:103990000D0A092D205374617475733A20646561B2
:1039A00063746976617465640D0A0D0A0025730DF0
:1039B0000A092D205374617475733A2025730D0A1A
:1039C000092D2049443A2025640D0A0D0A00496E4C
:1039D00076616C6964206261636B656E643A202570
:1039E000730D0A0025733A257325730D0A0020759F
:1039F0006E6B6E6F776E20706172616D657465724B
:103A00003A20004E6F7420737570706F7274656425
:103A10002E0D0A002A004C6F6773206172652068C2
:103A2000616C746564210D0A006D6F64756C655F6F
:103A30006E616D6500252D343073207C20637572B6
:103A400072656E74207C206275696C742D696E20BD
:103A50000D0A002D2D2D2D2D2D2D2D2D2D2D2D2D06
:103A60002D2D2D2D2D2D2D2D2D2D2D2D2D2D2D2D86
:103A70002D2D2D2D2D2D2D2D2D2D2D2D2D2D2D2D76
:103A80002D2D2D2D2D2D2D2D2D2D2D2D2D0D0A00D6
:103A9000252D343073207C20252D3773207C202564
:103AA0007325730D0A00656E61626C650042616486
:103AB00020706172616D6574657220636F756E74DC
:103AC0002E0D0A0064697361626C6500556E6B6E41
:103AD0006F776E206F7074696F6E3A2025730D0AD0
:103AE000004C6576656C20756E617661696C61620B
:103AF0006C6520666F72206D6F64756C653A202569
:103B0000730D0A00556E6B6E6F776E206D6F647566
:103B10006C653A25730D0A00556E6B6E6F776E20DB
:103B20007365766572697479206C6576656C3A2088
:103B300025730D0A004261636B656E647320666CC9
:103B40007573686564006C6F6700436F6D6D616EBF
:103B5000647320666F7220636F6E74726F6C6C6931
:103B60006E67206C6F67676572004C6F6767657280
:103B7000206261636B656E647320636F6D6D616E4F
:103B800064732E00636F6E666967004D616E6167D6
:103B900065206C6F6767657220636F6E6669677515
:103BA000726174696F6E00276C6F6720646973615E
:103BB000626C65203C6D6F64756C655F303E202ED5
:103BC0002E203C6D6F64756C655F6E3E27206469C6
:103BD0007361626C6573206C6F677320696E20730C
:103BE0007065636966696564206D6F64756C657383
:103BF0002028616C6C206966206E6F206D6F647583
:103C00006C657320737065636966696564292E004D
:103C1000276C6F6720656E61626C65203C6C657611
:103C2000656C3E203C6D6F64756C655F303E202E88
:103C30002E2E20203C6D6F64756C655F6E3E2720D4
:103C4000656E61626C6573206C6F677320757020A0
:103C5000746F20676976656E206C6576656C206987
:103C60006E20737065636966696564206D6F647545
:103C70006C65732028616C6C206966206E6F206D06
:103C80006F64756C657320737065636966696564DC
:103C9000292E00676F00526573756D65206C6F6724
:103CA00067696E670068616C740048616C74206CB1
:103CB0006F6767696E67006C6973745F6261636BDD
:103CC000656E6473004C69737473206C6F6767650D
:103CD00072206261636B656E64732E004C6F676760
:103CE000657220737461747573006C6F6164004C4D
:103CF0006F616420636F6E66696775726174696F66
:103D00006E2073746F72656420696E206E6F6E2D05
:103D1000766F6C6174696C65206D656D6F72792E5C
:103D20000073746F72650053746F726520637572EF
:103D300072656E7420636F6E66696775726174690F
:103D40006F6E20696E206E6F6E2D766F6C61746978
:103D50006C65206D656D6F72792E006465627567A4
:103D600000696E666F006E6F6E65007761726E69D6
:103D70006E67006170700062616C6C6F632E6C6FB7
:103D8000675F6D656D706F6F6C0000000100000073
:103D9000D1050000E40500207F000000640600203B
:103DA00001000000F9090000010000008905000081
:103DB000663D0000D63F00006B3D0000613D000005
:103DC0005B3D00005B3D0000D63F0000613D000010
:103DD000663D00006B3D000000000000E03D00007B
:103DE000C43A0000A73B0000A03D00002D070000E2
:103DF000A63A0000103C0000A83D00002D0700007E
:103E0000933C0000963C00000000000021070000E9
:103E1000A53C0000AA3C00000000000015070000BF
:103E2000E33C0000DC3C000000000000090700004B
:103E30000000000000000000000000000000000082
:103E400000000000483E0000EA3C0000EF3C00009B
:103E500000000000D5080000213D0000273D0000C3
:103E600000000000F5080000000000000000000055
:103E7000000000000000000000000000803E000084
:103E8000753900006A3B00008C3D00000000000016
:103E9000843B00008B3B0000403E0000000000001F
:103EA000C43A0000A73B0000A03D0000590D0000EF
:103EB000A63A0000103C0000A83D0000590D00008B
:103EC000933C0000963C000000000000C705000085
:103ED000A53C0000AA3C000000000000B505000061
:103EE000B73C0000C53C00000000000015060000C3
:103EF000E33C0000DC3C000000000000B50B0000CB
:103F000000000000000000000000000000000000B1
:103F1000463B00004A3B0000783E0000910800004C
:103F20001B5B313B33316D0025734C6F677320642D
:103F3000726F70706564202825642925730D0A004E
:103F40001B5B306D003C25733E2025733A2000201A
:103F50002530327800202020007C002563001B5B88
:103F6000313B33306D001B5B313B33326D001B5BEB
:103F7000313B33336D001B5B313B33346D001B5BD6
:103F8000313B33356D001B5B313B33366D001B5BC2
:103F9000313B33376D000000403F00005E3F0000C2
:103FA000203F0000663F00006E3F0000763F0000AB
:103FB0007E3F0000863F00008E3F000000000000B2
:103FC000D63F00006B3D0000613D00005B3D0000FE
:103FD000466174616C206572726F720053797374FC
:103FE000656D2072657365740061746669666F2E15
:103FF0006D5F7265715F6669666F006170705F7496
:10400000696D65720042616420617267756D656EED
:104010007420636F756E740025730D0A092D204599
:104020006C656D656E742073697A653A0925642044
:104030002B202564206279746573206F6620646587
:1040400062756720696E666F726D6174696F6E0D5F
:104050000A092D2055736167653A092575252520C4
:10406000282575206F7574206F6620257520656C76
:10407000656D656E7473290D0A092D204D6178698F
:104080006D756D3A092575252520282575206F75D4
:1040900074206F6620257520656C656D656E747380
:1040A000290D0A0D0A0062616C6C6F6300436F6D2D
:1040B0006D616E647320666F722042414C4C4F43B9
:1040C000206D616E6167656D656E74005072696E1A
:1040D0007420737461747573206F662062616C6CF8
:1040E0006F6320696E7374616E6365732E000000E8
:1040F00000000000F8400000E33C0000CC4000005D
:1041000000000000B11400000000000000000000EA
:104110000000000000000000A6400000AD400000CC
:10412000F0400000B11400001B5B256443001B5BE2
:10413000256441001B5B256444001B5B2564420031
:104140006E6F74207465726D696E617465643A2077
:1041500025630A003A20636F6D6D616E64206E6F97
:104160007420666F756E64002D68002D2D68656C77
:104170007000506C65617365207370656369667962
:10418000206120737562636F6D6D616E642E0A002D
:104190005461622066756E6374696F6E3A20636F56
:1041A0006D6D616E647320636F756E746572206FE0
:1041B000766572666C6F7765642E0A000A25732532
:1041C00073000A2573004F7074696F6E733A0A00AA
:1041D0002020252D2A733A0053686F7720636F6D76
:1041E0006D616E642068656C702E0020202573253B
:1041F00073257300537562636F6D6D616E64733AFE
:104200000A0025733A2077726F6E672070617261C1
:104210006D6574657220636F756E740A0025733A5C
:10422000257325730A004E6F20726573706F6E736D
:10423000652066726F6D20746865207465726D69A3
:104240006E616C2C20617373756D656420383078F5
:1042500032342073637265656E2073697A650A0073
:104260005B2533645D2025730A006F666600456335
:10427000686F207374617475733A2025730A004C5B
:104280006F7374206C6F67733A2025750A4D6178DF
:10429000206C6F67207175657565207574696C6930
:1042A0007A6174696F6E3A2025752525205B257526
:1042B0002F25755D0A00726573697A6500436F6E1C
:1042C000736F6C652067657473207465726D696EB9
:1042D000616C2073637265656E2073697A65206F07
:1042E0007220617373756D657320383020696E209C
:1042F000636173652074686520726561646F7574AD
:10430000206661696C732E204974206D757374206A
:10431000626520657865637574656420616674659F
:10432000722065616368207465726D696E616C20CE
:104330007769647468206368616E676520746F20B4
:10434000656E7375726520636F7272656374207435
:1043500065787420646973706C61792E0068697384
:10436000746F727900436F6D6D616E64206869735C
:10437000746F72792E00636C690055736566756C95
:104380002C206E6F7420556E69782D6C696B6520DA
:10439000434C4920636F6D6D616E64732E00636CD6
:1043A00065617200436C6561722073637265656E4E
:1043B0002E0064656661756C7400417373756D657C
:1043C0002038302063686172732073637265656E94
:1043D00020776964746820616E642073656E642060
:1043E000746869732073657474696E6720746F20D4
:1043F000746865207465726D696E616C2E00636F00
:104400006C6F727300546F67676C6520636F6C6FBD
:104410007265642073796E7461782E006563686FCD
:1044200000546F67676C6520434C49206563686F73
:104430002E00737461747300434C4920737461746B
:104440006973746963732E00526573657420434CFD
:1044500049207374617469737469637320666F7241
:1044600020746865204C6F67676572206D6F647596
:104470006C652E0073686F770047657420434C4964
:10448000207374617469737469637320666F72203A
:10449000746865204C6F67676572206D6F64756C1A
:1044A000652E0044697361626C6520434C49206548
:1044B00063686F2E204172726F777320616E642083
:1044C000627574746F6E733A204261636B737061CE
:1044D00063652C2044656C6574652C20456E642CE6
:1044E00020486F6D652C20496E736572742061726F
:1044F00065206E6F742068616E646C65642E004583
:104500006E61626C6520434C49206563686F2E00C4
:1045100044697361626C6520636F6C6F72656420BF
:1045200073796E7461782E00456E61626C652063EC
:104530006F6C6F7265642073796E7461782E001BE6
:104540005B3F336C001B5B6D001B5B324A001B5BE7
:1045500048001B5B366E00202D200000000000008C
:104560000338FDD870472D682C202D2D68656C70A0
:1045700000000000000000007C450000FE43000039
:1045800005440000F4450000B51C00001C44000078
:10459000214400002C460000FD1E000032440000B3
:1045A00038440000BC450000F51C0000000000007D
:1045B00000000000000000000000000000000000FB
:1045C000C4450000E33F0000484400000000000034
:1045D000651F0000744400007944000000000000E2
:1045E0008D1F00000000000000000000000000001F
:1045F0000000000000000000FC4500006A420000CE
:1046000010450000000000007D1E0000A43B0000DB
:1046100028450000000000009D1E00000000000072
:10462000000000000000000000000000000000008A
:10463000344600006A420000A3440000000000006D
:10464000BD1E0000A43B0000FF440000000000006D
:10465000DD1E00000000000000000000000000005F
:1046600000000000000000006C460000B2430000A3
:10467000BA43000000000000391D000000000000E7
:104680000000000000000000000000009E43000049
:10469000A4430000000000001D1C00007643000041
:1046A0007A430000744500005D1C00005D4300007B
:1046B00065430000000000000D1E0000B64200002F
:1046C000BD42000064460000651D00002C20006310
:1046D0006C695F756172740030313233343536374E
:1046E00038394142434445467077725F6D676D7457
:1046F000004F766572666C6F77004E6F206F76653F
:1047000072666C6F770025730D0A092D20456C6564
:104710006D656E742073697A653A0925640D0A091E
:104720002D2055736167653A0925752525202825B3
:1047300075206F7574206F6620257520656C656D1A
:10474000656E7473290D0A092D204D6178696D75A8
:104750006D3A092575252520282575206F7574204B
:104760006F6620257520656C656D656E7473290D07
:104770000A092D204D6F64653A090925730D0A0D4C
:104780000A007175657565005072696E74207374E6
:1047900061747573206F6620717565756520696E2B
:1047A0007374616E6365732E000000008247000021
:1047B000AD400000BC4700001525000000000000CF
:1047C000C4470000E33C00008847000000000000F0
:1047D000152500000000000000000000000000009F
:1047E00000000000736F72746C69737400636C6F07
:1047F000636B00434C4F434B0050525300554152A2
:1048000054005541525445004170702073746172D8
:104810007465640045726173696E672070616765D5
:1048200020313237004572617365642053756363CC
:10483000657366756C6C79005772697474656E2067
:10484000746F20666C617368000000000001010154
:10485000000000000000000043000000504F5349DA
:104860005800000020202020202020202068282818
:104870002828202020202020202020202020202028
:1048800020202020481010101010101010101010B0
:104890001010101084848484848484848484101090
:1048A00010101010108181818181810101010101AD
:1048B00001010101010101010101010101010110D9
:1048C0001010101010828282828282020202020282
:1048D00002020202020202020202020202020210AA
:1048E0001010102000070320041702010857104081
:1048F00080000000584800005C490000704A000039
:1049000053756E004D6F6E005475650057656400F9
:10491000546875004672690053617400000000001D
:104920004A616E00466562004D617200417072001E
:104930004D6179004A756E004A756C0041756700DB
:10494000536570004F6374004E6F760044656300DA
:1049500000000000414D00504D000000944A00004E
:10496000904A0000904A0000904A0000904A0000DF
:10497000904A0000904A0000904A0000904A0000CF
:10498000904A0000FFFFFFFFFFFFFFFFFFFFFFFF59
:10499000FFFF0000D0490000004900000C4A000061
:1049A0002049000054490000B4490000644A000056
:1049B000C0490000256D2F25642F257900000000D7
:1049C00025612025622025652025542025590000D9
:1049D00053756E646179004D6F6E64617900547532
:1049E0006573646179005765646E6573646179000D
:1049F0005468757273646179004672696461790004
:104A00005361747572646179000000004A616E75CB
:104A1000617279004665627275617279004D6172EA
:104A2000636800417072696C004D6179004A756E6F
:104A300065004A756C79004175677573740053653C
:104A40007074656D626572004F63746F62657200A9
:104A50004E6F76656D62657200446563656D626573
:104A60007200000025483A254D3A25530000000009
:104A700095350000B1350000BD3500001536000049
:104A8000FD35000009360000C9350000D9350000A9
:084A9000000000002E000000F0
:104A9800000000000020004000000000002000404E
:104AA8000000000000000000FF0000000090D0039C
:104AB800F4480000F4480000F4480000F4480000FE
:044AC800F4480000AE
:040000030000037581
:00000001FF
