:020000022000DC
:1070000000000420757302005D7302005F730200CC
:1070100061730200637302006573020000000000E8
:107020000000000000000000000000006773020084
:1070300069730200000000006B7302006D730200B0
:107040006DA602006F73020095B002006F7302001C
:107050006F7302006F730200D1AC02006F73020005
:107060006F7302006F7302006F730200B5B202000B
:107070006F7302006F7302006F7302006F73020080
:107080006F730200A17F02006F7302006F73020032
:107090006F7302006F730200F1CC02006F73020085
:1070A0006F7302006F7302006F7302006F73020050
:1070B0006F7302006F730200000000000000000008
:1070C0006F7302006F7302006F7302006F73020030
:1070D00065B302006F7302006F7302006F730200EA
:1070E0006F7302006F7302006F73020000000000F4
:1070F000000000006F730200000000006F730200C8
:10710000000000000000000000000000000000007F
:10711000000000000000000000000000000000006F
:10712000000000000000000000000000000000005F
:10713000000000000000000000000000000000004F
:10714000000000000000000000000000000000003F
:10715000000000000000000000000000000000002F
:10716000000000000000000000000000000000001F
:10717000000000000000000000000000000000000F
:1071800000000000000000000000000000000000FF
:1071900000000000000000000000000000000000EF
:1071A00000000000000000000000000000000000DF
:1071B00000000000000000000000000000000000CF
:1071C00000000000000000000000000000000000BF
:1071D00000000000000000000000000000000000AF
:1071E000000000000000000000000000000000009F
:1071F000000000000000000000000000000000008F
:10720000354936480A1A02D0072291438D4634493F
:1072100034480A1A06D00722914381F309880222D2
:1072200082F3148830483149314A00F044F831483B
:107230003149324A00F03FF831483249324A00F0D1
:107240003AF832483249334A00F035F83248334987
:10725000334A00F030F833483349344A00F02BF811
:1072600033483449344A00F026F83448344900227F
:1072700000F02CF833483449002200F027F8334856
:107280003349091A082902DB002202604160314AB1
:1072900090471F481F49884205D00268043003B454
:1072A000904703BCF7E700208646EC46002000210B
:1072B000294A9047FEE7884207D0521A05D0037842
:1072C00001300B700131013AF9D17047884202D088
:1072D00002700130FAE770470000042000E003204C
:1072E000000004200000042058E60200BC2C00200E
:1072F000B53C0020D0730200D073020078D90200A0
:1073000058E60200BC2C0020BC2C0020F4D902005E
:10731000F4D90200F4D90200F4D90200F4D9020031
:10732000F4D90200F4D90200F4D9020058E60200B0
:1073300054F60200B83C0020B83C0020B83C0020C5
:1073400078810020788100207881002078810020D9
:1073500078A100209D730200E9B80200FEE7FEE775
:10736000FEE7FEE7FEE7FEE7FEE7FEE7FEE7FEE7F5
:1073700000F002B8FFF7FCBF0F484FF00701884349
:1073800085460E4880470E48016841F4700101604F
:10739000BFF34F8FBFF36F8FFFF732BF09480A4922
:1073A0000A4A884207D0521A05D0037801300B7080
:1073B0000131013AF9D1704700000420C99E020052
:1073C00088ED00E0E0D90200A82C0020BC2C0020B1
:1073D00070B50C4E33687BB10B4D2B7853B1002444
:1073E0003368012113F8340003F02CFB2B780134AF
:1073F000A342F5D8002070BD044940F2351004F0D6
:107400006BFAE9E7C83C0020B83C0020F4D9020040
:1074100070B5164E336882B013B3154D2B784BB14F
:107420000024336813F8340003F0D4FB2B780134C4
:10743000A342F6D80DF1070000238DF8073000F0C5
:1074400079FB0C4B9DF8070000240025C3E900459B
:1074500000F0A6FB084802B0BDE8704000F022BB77
:10746000064940F2431004F037FAD6E7C83C002042
:10747000B83C0020C03C0020C02C0020F4D9020001
:1074800000B583B04FF0010C8DF807C0144B9DF888
:1074900007E0186044F2010C604559609A6013D00F
:1074A00044F20201884206D1DA60DA6812689A6111
:1074B000DA685268DA6172B69DF80730002BFBD1AA
:1074C00062B603B05DF804FB1A611A6992685A61EA
:1074D0001A6912689A611A695268DA61EBE700BFAB
:1074E000CC3C002000B583B002900091019244F2A0
:1074F000010071466A4600F003F803B000BD00BF0A
:1075000072B6044BD3F8F030DB0700D500BEFFF7AE
:10751000B7BF00BF00ED00E030B484688D68C36879
:10752000CA68A54272EB03032CBF0120002030BCC7
:10753000704700BF10B5044682B000230DF107006C
:107540008DF8073000F0F6FA23692BB94FF0FF32BF
:107550004FF0FF33C4E902239DF8070000F020FB41
:10756000D4E90530984700230DF107008DF8073066
:1075700000F0E0FA2369BBB1D4E90212B2F1FF3F97
:1075800008BFB1F1FF3F0FD05B1842F10002C4E920
:1075900002329DF8070000F003FB0748214600F087
:1075A000C1FE012002B010BD9DF8070000F0F8FAFE
:1075B000002002B010BD00BFE8DA02002DE9F04F54
:1075C0002DED028B83B008EE100A00F07FFC40B175
:1075D000AB4AD2E9003113F1807341F10001C2E9F5
:1075E000003118EE100A002100F0A4FCA54D00287F
:1075F00040F01E8118EE100A012100F09BFC0028CB
:1076000040F0FF80A04801A900F050FD00283AD0CA
:107610009D4C4FF0FF384FF0FF3909E033B301A91B
:10762000204600F075FD01A9204600F03FFD50B353
:107630000378012B11D0022BF0D1944E304600F08C
:1076400093FE30B1C0E90289304600F08DFE00287B
:10765000F8D18F4B01221A70E1E72B6841689942FB
:1076600000F0C380894800F09FFED8E74168D1E967
:107670000223B3F1FF3F08BFB2F1FF3FCFD08348F1
:1076800000F050FECBE7814FDFF81482DFF8F09175
:10769000384600F079FE002858D0D0E90223B3F133
:1076A000FF3F08BFB2F1FF3F00F09680296891B11B
:1076B0002968D1E9020182428B414BD22B68D3E980
:1076C0000223B3F1FF3F08BFB2F1FF3F03D02968A7
:1076D000384600F027FE384600F046FE0446404695
:1076E0006C4ED4E902BA00F045FCD9E900133268C7
:1076F000401843F100039042726873EB020203D218
:1077000010F1807043F10003BBEB00006AEB030350
:10771000012873F1000322DBB0F5350F56D25A462B
:107720004FF496030021404600F02CFB002845D082
:107730000D2818D058494FF4867004F0CDF8002376
:1077400038462B6000F020FE0028A6D12B68002BC5
:1077500000F08C8003B0BDEC028BBDE8F08F0021FF
:10776000404600F0CDFB6369002B39D0484B1B78B5
:10777000002BE4D0404600F0FDFBD9F80030D6E9FC
:107780000012C018D9F8043043F10003884273EBAB
:10779000020203D210F1807043F10003D4E9021217
:1077A0008842934129D2B2F1FF3F08BFB1F1FF3FB8
:1077B000C5D02146384600F0B5FDC0E72B68BBB107
:1077C0002C6003B0BDEC028BBDE8F08F404600F0AA
:1077D000D1FB324A0244A3E7384600F0C5FD57E723
:1077E0002D49A52004F078F8C0E700232B6016E7A8
:1077F00018EE100A00F076FAE2E72046FFF79AFE4C
:107800009DE72748234E00F0B5FB1D4B1A685B68C7
:107810008018D6E9001243F10003884273EB02029C
:1078200003D210F1807043F10003C6E90003E9E6DA
:107830002B68002B3FF4DEAE18EE100A00F09AFB26
:107840000021044618EE100A00F08EFB201A20F0EA
:107850007F43B3F5960F49D22C686369002B4FD054
:107860000B4B1B78F3B900232B60C3E618EE100A0C
:1078700003B0BDEC028BBDE8F04F00F045BA00BF8D
:10788000F03C0020703D0020543D0020E8DA02006A
:10789000F83C0020683D00206CDA0200FFFFB400D5
:1078A000E02C0020194800F065FB194B194A1968B3
:1078B0005B684018D2E9001243F10003884273EB81
:1078C000020203D210F1807043F10003D4E90212E6
:1078D0008842934110D2B2F1FF3F08BFB1F1FF3FA0
:1078E000C1D00D48214600F01DFDBCE70B4940F218
:1078F000411003F0F1FFAFE72046FFF71BFEB2E7B0
:107900000649A52003F0E8FFAAE700BFE02C00200D
:10791000F03C0020683D0020E8DA02006CDA02004A
:1079200010B5134B13491C68134882B00823582222
:10793000019400F03FFB044610B1204602B010BD98
:107940000E4A0F4801A900F051F904460028F4D16D
:107950000B48012100F0A6FA01231946094A0848FC
:1079600000F0E4F9084B012220461A7002B010BD65
:10797000E4DA0200FC3C0020543D0020BD7502000A
:10798000E02C0020FFFF7F00F83C002070B50C4683
:107990001646054680B1B6B1A4F101042B68B4FACD
:1079A00084F44FF0FF304FF0FF316409C3E9020166
:1079B000C3E90446002070BD064940F25A2003F096
:1079C0008BFF002EE8D1034940F25B2003F084FFD7
:1079D000072070BD6CDA0200F0B50E4683B0174682
:1079E000044600284ED0002501A88DF8045000F070
:1079F000A1F8D4E90223B3F1FF3F08BFB2F1FF3F82
:107A000006D09DF8040000F0CBF8284603B0F0BD86
:107A10001F4800F0AFFA1F4B1F4A19685B684018F7
:107A2000D2E9001243F10003884273EB020224D32F
:107A3000301843F10003A060E3609DF8040000F0FB
:107A4000AFF82369A76103B12661144801A900F0CA
:107A5000EBFA034670B1002510481D705C6001A967
:107A600000F014FB0028D1D0094800F087FA28461E
:107A700003B0F0BD042003B0F0BD10F1807043F1FD
:107A80000003D5E7064940F26B2003F025FFAAE783
:107A9000E02C0020F03C0020683D0020543D0020F8
:107AA0006CDA020030B5044683B088B3002501A823
:107AB0008DF8045000F03EF8D4E90223B3F1FF3F03
:107AC00008BFB2F1FF3F1CD04FF0FF334FF0FF3241
:107AD000C4E902239DF8040000F062F8124801A9ED
:107AE00000F0A2FA034648B10122027001A90E4833
:107AF0005C6000F0CBFA88B903B030BD042003B05D
:107B000030BD9DF8040000F04BF8284603B030BDAE
:107B1000064940F2932003F0DFFEC7E7044800F077
:107B20002DFA284603B030BD543D00206CDA020027
:107B3000E02C002070B50446EFF30583C3F308037F
:107B40001BB9EFF31483DB071DD4EFF3108072B67B
:107B50000F4B9A68A2B9012199600E490E4ED1F8D7
:107B6000805035401D60C1F88060D1F884505D6060
:107B70004FF0FF33C1F88430227000B962B670BD97
:107B800001232370F9E70549432003F0A5FEDCE754
:107B9000743D002000E100E0FC06FFBDF4DA0200C5
:107BA00010B50446EFF30583C3F308031BB9EFF3E5
:107BB0001483DB070FD40A4B9A685AB154B9EFF318
:107BC000108172B6074A18681060586850609C604F
:107BD00001B962B610BD0449512003F07DFEEAE709
:107BE000743D002000E100E0F4DA02002DE9F041EC
:107BF0000D461646044600284ED0002D52D0002EC9
:107C000056D06379304A314F42F8236007EBC30303
:107C10001B79002B3DD12E88D4F80080B6F5805F0B
:107C200031D2C8F80865AD7894F90460AB1E012B19
:107C300002D96B1F022B40D83346002E1CDB06F105
:107C400060466D0106F56146EDB286F80053002BE3
:107C500008DB1F495809012203F01F0302FA03F34E
:107C600041F82030637907EBC3020121117147F815
:107C700033400020BDE8F081164A06F00F066D0182
:107C8000EDB29555E3E714494FF4BE7003F024FEBE
:107C9000C7E70820BDE8F0811049552003F01CFE1D
:107CA000002DACD10D49562003F016FE002EA8D1B0
:107CB0000A49572003F010FEA3E709496B2003F09F
:107CC0000BFE94F90430B8E7883D0020803D002089
:107CD00000E100E014ED00E0E8DB020074DB0200EC
:107CE00054DC020010B5044618B1236801221A6062
:107CF00010BD0449872003F0EFFD236801221A60BC
:107D000010BD00BF74DB020010B5044618B1236833
:107D100001225A6010BD04498D2003F0DDFD236867
:107D200001225A6010BD00BF74DB0200F0B50C46A2
:107D300083B016461F460546E8B104F15002920092
:107D4000286892B24FF48035A54026F07F41002686
:107D5000C0F80853C0F84853865004F5A8748258F8
:107D60000192019A40F82410C0F844530FB1C0F8B2
:107D7000045303B0F0BD0249962003F0ADFDDCE7EB
:107D800074DB02002DE9F04F0D4683B09846814622
:107D9000002870D001F150064FF48037B6008F40B4
:107DA00022F07F44B6B2D9F8002002EB8500C2F879
:107DB0004873C2F80873D2F80415D0F84035C0F8FB
:107DC00040154FF0000A42F806A05B1A23F07F43EB
:107DD00091590091012B00994FEA850B3DD0D2F8C3
:107DE0000465C2F84473A31B23F07F43012B22D008
:107DF0009344C8F1FF18CBF84045D2F80435D94375
:107E0000214408F57F4821F07F4188450FD339B1DF
:107E10000020C2F84473C2F8047303B0BDE8F08FC9
:107E20000134CBF84045D2F804158B42F0D00D2038
:107E300003B0BDE8F08F194B05F5A875013442F881
:107E4000254043F001034FF480609847D9F80020A3
:107E5000D2F804359E42DBD0E9E7104B4FF4806046
:107E600043F001039847D9F8002042F806A093593F
:107E70000193019BB3E70A49CD2005F1500622F09A
:107E80007F444FF4803703F027FDB6000449B32048
:107E9000AF40B6B203F020FD85E700BFC0DC0200B2
:107EA00074DB020038B50D46044638B1236802225F
:107EB000C3F844230DB1C3F8042338BD0249A920F7
:107EC00003F00AFDF2E700BF74DB020010B50446C0
:107ED00082B068B12368D3F8040138B10022C3F836
:107EE0000421D3F804310193019B012002B010BD9D
:107EF0000249BA2003F0F0FCECE700BF74DB02009B
:107F000038B54FF4803303FA01F4054628B12B68E5
:107F1000C3F84843C3F8084338BD0549B32003F00C
:107F2000DBFC2B68C3F84843C3F8084338BD00BFE7
:107F300074DB020030B55031890083B08CB2054645
:107F400050B12B68185928B100221A511B590193BE
:107F5000019B012003B030BD0249BA2003F0BCFCF4
:107F6000EFE700BF74DB0200036801F5A87153F866
:107F7000210070470368D3F80405704790F9043076
:107F8000002B09DB5A09054803F01F030121403289
:107F900001FA03F340F82230704700BF00E100E02F
:107FA000024A034B10681B68184700BF803D002041
:107FB000883D002099B110B4B2FBF3F403FB142404
:107FC000A4B244B9C0E9001484608281C381204610
:107FD0005DF8044B704709205DF8044B70470E2094
:107FE000704700BF82B050E8022FC188B2EB324F19
:107FF0004FF0000317BF92B241EA014142EA01414A
:1080000004E04268B2EB324F08BF012340E802129D
:10801000002AE8D18DF807309DF80730002B0CBFFF
:108020001120002002B0704710B483B050E8013F27
:108030001FFA83FCC489A4448489A44528BFACEBFF
:10804000040C0489A44502BFBFF32F8F002207E070
:10805000CCEA030C40E801C4002CE7D14FF0010248
:108060008DF803200193019C9DF803200C6032B130
:10807000006810FA84F003B05DF8044B704702F01A
:10808000FF03184603B05DF8044B70470A884B881D
:108090009A4201D00020704750E8012FC2EA024204
:1080A00040E80123002BF7D10120704710B483B0C2
:1080B00050E8023F1FFAA3FCC488A44502BFBFF3E7
:1080C0002F8F00220EE0C489A4448489A44528BFD0
:1080D000ACEB040CC3EA0C4C40E802C4002CE7D122
:1080E0004FF001028DF803200193019C9DF80320BD
:1080F0000C6032B1006800EB144003B05DF8044B33
:10810000704702F0FF03184603B05DF8044B704758
:108110000A884B889A4201D00020704750E8022F0D
:10812000C2EA224240E80223002BF7D10120704727
:108130004B0901F01F024FF0010C0CFA02F100EBA9
:10814000830000F017B800BF01F01F02012303FAFB
:1081500002F24B0900EB8300D14300F017B800BFD7
:108160004B0901F01F0150F82300C84000F0010046
:10817000704700BF034653E8002F42EA010043E87E
:10818000000C9CF0000FF6D1704700BF034653E887
:10819000002F02EA010043E8000C9CF0000FF6D12A
:1081A000704700BF034653E8000F00EB010243E8AD
:1081B000002C9CF0000FF6D1704700BF034653E837
:1081C000002F02EB010043E8000C9CF0000FF6D1F9
:1081D000704700BF034653E8002FA2EB010043E8BD
:1081E000000C9CF0000FF6D1704700BF034601223F
:1081F00053E8000F40EA020143E8001C9CF0000F26
:10820000F6D1704741DF7047064A074B10B500248E
:1082100014701C60BFF35F8F0449054800F046F8F6
:10822000204610BD943D0020983D002044DD020012
:108230008C3D002010B582B000230DF107008DF8B1
:108240000730FFF777FCF1EE104A24F09F03E1EED0
:10825000103ABFF35F8F134B4022C3F884219DF87F
:108260000700FFF79DFC630707D104F03BFD60B9F1
:1082700020BF40BF20BF02B010BD0B497D2003F0DE
:108280002BFB04F02FFD0028F2D0FFF7BBFF30F0EE
:108290000203F0D004494FF4B07002B0BDE81040C2
:1082A00003F01ABB00E100E0C8DC020038B50C4660
:1082B000054648B174B1D4E900329342C5E90043A0
:1082C00004BF00236B6038BD0549502003F004FB58
:1082D000002CF0D10249512003F0FEFAEBE700BF79
:1082E00050DD020010B5044668B1236893B163689D
:1082F00043B12268D2E901210B449342636004BF79
:108300000023636010BD0649632003F0E5FA23688B
:10831000002BECD10249642003F0DEFAE7E700BF4E
:1083200050DD020070B50D46064680B1ADB17468EF
:10833000206818B908E02468206828B1B368294685
:1083400098470028F7D120682860256070BD05494E
:108350003A2003F0C1FA002DE9D102493B2003F095
:10836000BBFAE4E7E4DD020010B5044628B1636817
:10837000186808B102681A6010BD0249512003F064
:10838000ABFAF4E7E4DD020010B5044610B163680F
:10839000186810BD03495D2003F09EFA63681868F1
:1083A00010BD00BFE4DD020038B50C460546B8B18B
:1083B00064B16A6813681BB910E01A461B686BB198
:1083C0009C42FAD123681360012038BD07496A2016
:1083D00003F082FA6B681B68002BEED1002038BDD9
:1083E0000249692003F078FAE2E700BFE4DD020009
:1083F00043682DE9F04188461BB1304AD468A34256
:1084000038D200232E4FA8F8003001264FF6FF7512
:108410007A6802F5805C083294450CD8A8F80060B0
:108420000136B6B2142E07F11407F1D100201FE077
:108430009C45F3D91A4613680133EFD053880333B0
:1084400002EB83039C45E9D3B2F804E0AE45EFD0DC
:108450001488002CECD09468611CE9D00168A1421A
:1084600001D01A46D8E7174B42601B8903810120CF
:10847000BDE8F08112699342C3D813F00302C0D162
:10848000104C05892489A542BBD105689C68A5428A
:10849000B7D10B484468A34296B204F5805502F167
:1084A000010200F1140001D9AB4202D3132AF1D129
:1084B000BCE7A8F800600120DAE700BFA82C002084
:1084C000EC3D0020C03D00202DE9F04F964E346871
:1084D0008DB005464FF6FF7A002C00F08C80237893
:1084E0005A1E052A00F2A184DFE802F0532020037F
:1084F000033D002D40F0BB822279012A00F0B982B1
:10850000022A00F03683002A00F02083CDE90955C5
:1085100007950B9507AF48F20E65023B0895042BB3
:108520004AD8DFE803F0818D7843AA00B4F81490AC
:10853000002D40F065827D4F09EB890207EB820236
:108540004FEA89081589526802EB8505A27D062A43
:1085500000F27684DFE812F0C201AF0194018301DA
:108560005F0148012401002D40F07882704C637F48
:10857000002B00F0AD8023786577013B062B73D884
:10858000DFE813F0BD010C03E6010C0272004503A5
:10859000FE01002D40F027822279032A00F28D800F
:1085A000DFE812F0F200BF007D00A40004238DF884
:1085B0001C30E388ADF828305E4C04F1100554F807
:1085C000043B384603B19847AC42F8D15A4C5B495A
:1085D0005B4800233360FFF79BFD2368002B50D0DE
:1085E00001212046FFF7F6FD002855D0346800250C
:1085F000002C7FF474AF51495148FFF757FD0446F2
:10860000306000287FF46BAF4E494FF4B46003F044
:1086100063F9346863E703238DF81C30D4F806202F
:10862000E368CDE90932C7E701238DF81C302189C1
:10863000A288E3680993ADF82810ADF82A20BBE7BB
:1086400002238DF81C30A37D2089A188E26809925D
:10865000A3F10603B3FA83F35B09ADF82800ADF884
:108660002A108DF82C30A7E7002307AF0793C7E93E
:10867000023348F20E653B61089505238DF81C30E6
:108680009AE730494FF4247003F026F9012120467F
:10869000FFF7A0FD0028A9D10DB0BDE8F08F2A4A50
:1086A0002A4802210023237191801168012201F0E0
:1086B000E9FB0028F0D034682378254907AF002271
:1086C00007924A60C7E902223A6148F20D6524E741
:1086D0002378072B00F2AD82DFE813F0C002AB0273
:1086E000AB02D702EF02520152010F01164D104B9F
:1086F000296816480022227100925F8807EB8703E1
:108700000A4F07F8232007EB8307AB883B817B6880
:108710002B600223AB800F4A7960082301F07EFBB7
:10872000C7E7024F3B461BE0E83D0020EC3D002040
:10873000C03D0020A83D002004400020E03D002076
:10874000F43F002060DE020008400020A82C00203A
:10875000B83D0020D4DE02000135132D00F0E08288
:108760001A78022A03F11403F6D105EB850007EB12
:108770008003B04A5968002307F820300093AE48C0
:10878000082301F04BFB94E70123AC49237100233C
:108790000968AB4A0093A848082301F03FFB88E72B
:1087A000224641F61D55E188144608EB090207EB05
:1087B0008202C81CB2F808C060441081C84407EBAC
:1087C00088077A89033A521A7A8141F61D510022AC
:1087D00007AF8D42079208BF1546C7E90122C7E9D6
:1087E00003223FF49AAEF7E2964B974A5968974BAB
:1087F00091481D880623A37500230093042301F0EC
:108800000DFB10BB05EB850507EB850301221A74F0
:108810000DB0BDE8F08F8B48A3698C4903604FF021
:10882000000BC0F804B0FFF7E3FD002800F0E4827D
:108830000223A37504238048CDF800B02946E2182E
:1088400001F0ECFA00283FF427AFA17D326802293D
:1088500013782DD8E18848F20D651446AEE7E38819
:1088600022690120A0750020009005F10C017248DA
:108870009B0001F0D3FA0028E7D10DB0BDE8F08FDE
:1088800023696D48002B14BF03230123A375002324
:10889000009305F10801042304F10C0201F0BEFA73
:1088A00000283FF4F9AEA17D326802291378D1D9AE
:1088B00048F20D6577E7032B0CBF05230623A3754C
:1088C000002300935C48291D042304F1080201F0F1
:1088D000A5FA0028B9D10DB0BDE8F08F0223A37529
:1088E00000230093042354482946E21801F096FA25
:1088F0000028AAD10DB0BDE8F08F01232370544F9A
:108900005448DFF84CC10023984603EB830207EB81
:10891000820110F8012F1FFA83FE52B1CA6880F855
:1089200000804FEA830922B99CF81020002A40F009
:1089300013820133132B0CF1140CE6D107AF002383
:1089400007932370C7E90233638063603B6193E65A
:1089500062683A4853888588016803339BB20020D7
:108960009B0001EB8501009003252570324801F042
:1089700055FA0546002D3FF48FAE3468237824E77E
:108980002E4A2D48116800230722227000932C4A9A
:108990006360082301F042FA0546EBE763882C4F39
:1089A00003EB830307EB8307FB687BB979682248F5
:1089B00004222270012201F065FA0546DAE74946F1
:1089C000704407EB8007FB68002BF0D01B4A1A4865
:1089D000052302219180237011680023012201F0F8
:1089E00051FA0546C6E71C4A002151604FF406457E
:1089F00007AF0022C7E90022C7E902223A618CE5ED
:108A0000A27D022A00F2BB80E088114F4FEA89085C
:108A100008EB090107EB810107AF4A89033A121AF3
:108A20004A81002207924FF40645C7E902223A61C3
:108A300073E500BFD4DE0200A82C0020084000200F
:108A4000DCDE02009C3D0020D0DE0200144000204D
:108A5000EC3D0020C93D0020B83D002007AF0023B9
:108A600007934FF40645C7E902333B6104E607AFBD
:108A7000D7E7B14B1B7803F0FF020292002B00F006
:108A8000A081DFF8D0E2BEF80490B9F1120F00F235
:108A9000A781AA4FDEF80010059509EB890007EBC6
:108AA00080002A4603781FFA89F86BB109F10109A1
:108AB0001FFA89F8B8F1120F00F1140000F28F814B
:108AC0000378029A002BF1D1436803F580550833EF
:108AD0000493002900F06F814B88033301EB83017D
:108AE0008D4231D903920B6801332DD04B8803336B
:108AF00001EB83039D4227D3B1F804C0D44521D0B4
:108B0000B1F800B0BBF1000F1CD08A68013219D057
:108B1000E388039A6345DCD1CEF800100AB1AEF8C1
:108B2000048000230093864A8648042301F076F9E6
:108B3000002840F0748109EB890307EB83030122CD
:108B40001A74A9E59D4227D80021AFE7022307AF99
:108B500023710DF11A01E36807933846CDE90855F2
:108B6000FFF746FC002840F0BC80237848F20965F6
:108B70003FE7CDE9095507950B9507AFCDE46F4F5A
:108B8000E08809EB890207EB8202C11C15892944A0
:108B900011814FEA89083BE71946A4E76088674FCF
:108BA000626800EB800307EB83034FEA800E59688D
:108BB00001F5805C002A7BD101F1080294457FF623
:108BC000FFAE8946136801333FF4F9AE538803338F
:108BD00002EB8305AC45FFF4F2AEB2F80480D04559
:108BE00000F09980B2F80080B8F1000F00F0938097
:108BF0009168013100F08F809BB253486260002180
:108C00000091858801689B0001EB8501ACE66288D4
:108C10004A4F9300134407EB830706250023796826
:108C20004A4A009347482570082301F0F7F80546A3
:108C3000A0E6013B062B3FF617AD01A252F823F048
:108C4000FF8802009D8B0200518902009D8902006D
:108C5000698602000F8C0200818902002389374F48
:108C60003B4A01332381002363806377394602F155
:108C7000130011F8143BB3FA83F35B0902F8013FC8
:108C80009042F6D1012323703AE660882B4F2E4D97
:108C9000626800EB800307EB8303B2F802C05968F7
:108CA000AB8803336344AB804FEA800E01F5805CF0
:108CB0005388033302EB830280E762881F4F224907
:108CC00002EB820307EB830308688D881D815D68D2
:108CD000586002200D6088800021197402FA00F3A8
:108CE00098E70899164A8B88E3800B8823811548FA
:108CF00000950423BDF81A4001F090F8002840F0D8
:108D000089800E4B04EB840403EB84040123237459
:108D10000DB0BDE8F08FAC457FF651AE2A4651E765
:108D2000054A012307AF1370002307935360C7E977
:108D30000133C7E903333FE4B83D0020EC3D002098
:108D4000D0DE0200A82C002008400020D4DE020063
:108D5000C93D00201840002049686268A4F802E07C
:108D600001F5805C002A52D05088033002EB80026B
:108D7000944518D998461068013013D050880330B4
:108D800002EB8005AC450DD3B2F804E0D64514D013
:108D9000B2F800E0BEF1000F0FD0936801330CD0A1
:108DA00083B22AE743464B4407EB8307FB68002B5B
:108DB0003FF4FDAD0AE6049992E6AC45F2D92A46A5
:108DC000D9E7214B079507AFC3E90055C7E901551E
:108DD000C7E9035548F201652378FFF79EBB059D5F
:108DE000002307AF0793CEE90033C7E90133C7E992
:108DF00003332378FFF791BB07AF0790C7E9010062
:108E0000C7E9030048F209652378FFF786BB01F143
:108E10000802ADE7346848F20D652378E9E5346867
:108E200048F20D65237807AFE3E507AF002348F26A
:108E30000E620793C7E902333B610892FFF7BCBBA0
:108E4000224648F20E65AEE4184000204068FFF765
:108E50003BBB00BF094A116804290BD038B515681F
:108E6000074C03460121104644F82530FFF7A6F9C8
:108E7000002038BD48F20B60704700BF1040002052
:108E8000A83D00202DE9F04FA54B8FB01A780023A4
:108E9000CDE90933CDE90B330D9372B1A14C04F147
:108EA000100554F8043B09A803B19847AC42F8D127
:108EB000002528460FB0BDE8F08F994B181D02F031
:108EC000FF06FFF793F90028F2D1D6F8F83F5D1CB2
:108ED00000F084804FF0805211695269924C93499E
:108EE00023610022A3F5A0332046E36000F08AFF4F
:108EF00005460028DDD18E498E48DFF84C92DFF818
:108F00004CA21C238C22FFF755F88B4BE1681A68A2
:108F100003928A4A9B8852880792CDE9045501F54D
:108F2000805201F5A831019114210291AC464FF015
:108F3000010B4FF6FF770696B2F58056316800F0C8
:108F40001D817F48814255D171687E48814200F081
:108F5000A280013081424FD1049B8BB10CEB8C017C
:108F600009EB810303985860022018810CF101037A
:108F7000CDF81CC009F821001FFA83FC049B05935F
:108F800006F5805E06F10800022300E02046046832
:108F900001341ED04188033100EB8104A6451944F9
:108FA00089B270D3B0F80480B8450B460ED0B0F843
:108FB0000080B8F1000F09D08068B0F1FF3F05D004
:108FC000DAF80080404588BFCAF80000A645DDD821
:108FD0000B46022B14BF0821042157E04FF0102349
:108FE0004FF080525B69116952695C1C08BF02FB3B
:108FF00001F373E701310AD1A2F6FC7102E08A4263
:1090000000F0A6800868013001F10401F7D0029950
:10901000013989B202910CEB8C0109EB81000CF152
:10902000010C4660032009F821001FFA8CFC01990D
:1090300002F5805291427FF47FAF069E002E00F031
:10904000E5803D4A9380059B13B13C4B079A5A80BB
:10905000394B039A1A60029B012B40F2D080EDB28B
:10906000062D40F09A802E492E4C012200230A70D2
:1090700004F110054B6054F8043B09A803B198476C
:10908000AC42F8D114E74FF4806308210D4301216D
:1090900003960691CBE70CEB8C0109EB81040020D1
:1090A00009F821000221666021810CFA01F6A2F67E
:1090B000F8710868013020D0B1F802E00EF1030029
:1090C00001EB8000824222D38888B8421CD00888F5
:1090D000D0B18868B0F1FF3F16D0DAF80080404583
:1090E00001D9CAF8000020890330704420814888E3
:1090F000033001EB80018A42DBD80CF1010C45F012
:1091000002051FFA8CFC92E784F810B0EBE7664486
:1091100009EB86064FF4806186F810B03181ECE7E8
:10912000B83D0020A83D0020A82C0020F0DE020061
:10913000683F0020F43F002008400020C03D002090
:10914000DEC0ADDEFE011EF1EC3D0020E43D00205E
:109150000399D9B10CEB8C0009EB800102244E601D
:109160000C810CF10101CDF81CC009F820401FFA58
:1091700081FC0121059145F0010558E7481C3FF4A9
:109180003BAF264881423FF437AF40E70123194601
:109190000693039602230491EDE72DD9204808A9F0
:1091A000FEF742FF053D0023012203604360836018
:1091B000C3600361436183610270062D07D8DFE855
:1091C00005F015061506041804000323037108A909
:1091D0001348FEF75BFF13480121FEF7E3FF054646
:1091E00000287FF465AEFFF76FF962E60123037193
:1091F000EDE702230371EAE715F0FD0FCED10A4A2D
:109200000023137048F20A65536052E6059B002B59
:109210003FF421AF054B079A5A801CE7DEC0ADDE54
:10922000F43F002004400020B83D0020C03D002055
:1092300030B370B50D4682B0F1B10DF106010446B0
:10924000FFF7D6F818B948F2096002B070BDBDF852
:1092500006000D4B666800EB800003EB80000121E7
:109260000C30FEF7ABFF636801220C330020C5E928
:109270000063A27202B070BD48F2046002B070BD1B
:1092800048F20460704700BFEC3D002010B310B5F9
:1092900082B00DF106010446FFF7AAF8B0B1BDF89F
:1092A00006300E4A03EB830302EB8303DA684AB10C
:1092B000A27A3AB1DA680021013A0846DA60A1726E
:1092C00002B010BD48F2056002B010BD48F209605E
:1092D00002B010BD48F20460704700BFEC3D0020B2
:1092E0002DE9F0474A4B1B7882B0002B3AD00D464F
:1092F000002900F086800A884FF6FF739A422BD02F
:109300004B884BB34E6816F0030674D1B1F8089041
:1093100009F1030189B240F2FE33994274D88046C4
:109320003C483346024614789FB254B9B2F80AE07A
:10933000B2F808C0F4448C441FFA8CFCBCF5806F72
:1093400016D90133132B02F11402ECD148F2066650
:10935000304602B0BDE8F08748F20366304602B0FE
:10936000BDE8F08748F20166304602B0BDE8F087FC
:1093700003EB830300EB830371445981264801A961
:10938000FEF752FE0223046004614461446084607D
:10939000C460846103706B68036182468782012127
:1093A0001E48FEF70BFF2B88AAF808306B88CAF816
:1093B0000C0001A91848AAF80430AAF80690AAF8E7
:1093C0000A40FEF763FEB8F1000F09D0DAF80C206E
:1093D000134B88F80A401B89A8F80830C8E9002414
:1093E00010480121FEF7DEFE04460028B6D1FFF743
:1093F0006BF82646B2E748F20266304602B0BDE896
:10940000F08748F20466A9E748F20866A6E700BFBD
:10941000B83D0020EC3D0020F43F0020E43D00205A
:10942000C03D0020044000202DE9F04782B0002814
:1094300037D04A4B1B78002B3FD00D4689B30A88A2
:109440004FF6FF739A4232D04B8883B34F6817F0C0
:1094500003077DD1B1F8089009F1030189B240F208
:10946000FE33994277D806463D483B46024614787B
:109470001FFA83F854B9B2F80AE0B2F808C0F4440D
:109480008C441FFA8CFCBCF5806F1CD90133132B64
:1094900002F11402EBD148F20667384602B0BDE88B
:1094A000F08748F20467384602B0BDE8F08748F21A
:1094B0000367384602B0BDE8F08748F201673846D6
:1094C00002B0BDE8F08703EB830300EB8303714434
:1094D0005981244801A9FEF7A7FD03230460046114
:1094E000446144608460C460846103706B6803619C
:1094F0008246A0F8148001211B48FEF75FFE2B88EE
:10950000AAF808306B88AAF804303368CAF8183013
:109510000423CAF80C0001A9AAF80A408AF81630F8
:109520001048AAF80690FEF7B1FD104BDAF80C20AF
:109530001B89B472C6E900240D4833810121FEF76E
:1095400031FE04460028AED1FEF7BEFF2746AAE74B
:1095500048F20267A7E748F20867A4E7B83D002091
:10956000EC3D0020F43F0020E43D0020C03D002001
:109570000440002030B51A4B1B7883B003B3054676
:1095800040B301A91748FEF74FFD002404220460F0
:109590000346C46044608460046144618461027075
:1095A0002A68DA6001A90F48FEF770FD0E48012114
:1095B000FEF7F8FD054640B12546284603B030BD0C
:1095C00048F20165284603B030BDFEF77DFF28460E
:1095D00003B030BD48F20465284603B030BD00BF7B
:1095E000B83D0020F43F00200440002010B5184B87
:1095F0001B7882B00BB301A91648FEF715FD034690
:109600000022062102605A609A60DA601A615A618B
:109610009A6119700F4801A9FEF738FD0E4B1A78B0
:109620000AB101225A770D480121FEF7BBFD04461D
:1096300040B10024204602B010BD48F2016420462B
:1096400002B010BDFEF740FF204602B010BD00BFC3
:10965000B83D0020F43F0020C03D00200440002021
:109660002F4B1B78002B50D0002853D0002951D00D
:109670008B88122B51D82B4A03F1010C03EB830387
:10968000F0B51FFA8CFC02EB830E4FF6FF75002637
:109690009EF800206AB1A1F804C00CF1010C1FFA79
:1096A0008CFCBCF1140F0EF1140EF1D148F20960DC
:1096B000F0BDDEF804300A6803F5805442B35388E5
:1096C000033302EB8303A34204D30E60E3E7944227
:1096D000FBD913461A680132F7D05A88033203EBDC
:1096E00082029442F1D39F88AF42F0D01F88002FAE
:1096F000EDD09F68B7F1FF3FE9D00B4A0B601289AC
:109700000281C0E900730020F0BD48F2016070479B
:109710000833D8E748F20460704748F209607047A0
:10972000B83D0020EC3D0020C03D00202DE9F04F69
:10973000374C83B024780191002C5ED0002A61D090
:10974000002B5FD09C88122C13D8324E651C04EB82
:10975000840406EB8406ADB24FF6FF774FF00008A5
:1097600034784CB19D800135ADB2142D06F114064C
:10977000F6D148F209603AE01C68D6F804C00CF54E
:10978000805E002C36D0B4F802C00CF1030C04EB60
:109790008C04744505D3C3F80080E3E7E645FAD9A5
:1097A000644621680131F6D0B4F802C00CF1030C14
:1097B00004EB8C0CE645EED3B4F80490B945EDD03B
:1097C000B4F800A0BAF1000FE8D0D4F808B0BBF1AB
:1097D000FF3FE3D081451C60CFD101998A45CCD1B0
:1097E0000D4BC2F800B01B8913815460002003B0F8
:1097F000BDE8F08F0CF10804CBE748F2016003B03C
:10980000BDE8F08F48F2046003B0BDE8F08F00BF00
:10981000B83D0020EC3D0020C03D0020544B1B789B
:10982000002B00F09F80002800F09F80002314226E
:109830002DE9F04F194603604E4CDFF83CA1436020
:109840009E468360C3600382028099461D464FF6A0
:10985000FF7698461EE0BCF80420B24269D0BCF8FE
:109860000020002A65D0DCF80820013261D082880F
:1098700001328280BCF8022003320CEB820C63457B
:1098800032D80EF1010EBEF1130F04F1140449D0C9
:10989000B0F80C90B4F80AC022896368624492B2AE
:1098A000002B58D01F68574555D15F68DFF8CCB002
:1098B000BB44BBF1010F4ED82E4F61440EEB8E0C12
:1098C00007EB8C0C1544DCF80CC0C2F5806292B238
:1098D000E0444A4503F1080C89B2ADB21FFA88F89A
:1098E00088BF828103F58053DCF800200132C8D0A4
:1098F000BCF8022003320CEB82029342ABD2C28945
:10990000A3EB0C0302EBA303C381C3880EF1010E8A
:109910004FF001070133BEF1130F0774C38004F148
:109920001404B5D1A0F80280018145810020BDE872
:10993000F08FB0F80690C28909F10109A0F80690ED
:10994000BCF8029003324A44C281BCF802200332C0
:109950000CEB820C93E7B0F800B00BF1FF3BA0F8E2
:1099600000B0A9E748F20160704748F20460704710
:10997000B83D0020EC3D0020DEC0ADDE02FEE10E71
:1099800029DF704728DF704708467047002070477E
:10999000024B187A003818BF01207047BC400020E5
:1099A000034B187A0122B0FA80F05A7440097047CC
:1099B000BC40002008B510461A4603F081FF002085
:1099C00008BD00BF10B5064B06480024C3E900449B
:1099D000C3E902441C61FEF705FB204610BD00BF31
:1099E000BC400020AC40002010B50A4C0A4B43603C
:1099F0002046FEF7FBFB08B1002010BD03F072F912
:109A000002462274054906481C238C22FEF7D2FA2E
:109A1000002010BDBC400020E4DE020020400020F9
:109A2000AC40002030B53A4D2B7A87B0002B39D0AE
:109A3000384B1C6802232B722379002B3DD0012B5D
:109A400024D023689A68BAB10023CDE90233009389
:109A5000049303230193A36805932379002B4AD031
:109A6000012B07D102238DF80030E368616904916E
:109A70001B030293684690472749284800232B720E
:109A80006B6007B0BDE83040FEF742BBD4E903038A
:109A90001844FFF777FF20B31128D2D101232B728E
:109AA00007B030BD1C491D48FEF700FB194B0446AA
:109AB00018600028BED16860F2E7D4E90523D21A05
:109AC000B2F5805F28BF4FF480529208E1682069A8
:109AD000012A38BF012219441844FFF751FF00281A
:109AE000DAD12B7C002BDBD10146022007B0BDE888
:109AF000304000F015B801238DF800302369E1688B
:109B0000029363696846CDE903139047B4E700BF49
:109B1000BC400020D4400020D0400020AC400020B9
:109B2000831E012B41D810B5354C237A86B0002B0B
:109B300039D0022B30D103283DD0324B00221B6894
:109B4000E2601A79002A43D0012A25D1D3E9042101
:109B500001328A421A611FD1002020721A6891686E
:109B6000B1B10022CDE90222009204929A680190DC
:109B700005921A79002A38D0012A07D102228DF8DD
:109B80000020DA68586904901203029268468847F8
:109B90001D491E48FEF7BCFA637C3BB906B0BDE820
:109BA0001040FFF73FBF06B010BD704706B0BDE8DC
:109BB000104003F087B8E3680133082B01D8E36055
:109BC000EAE7104B00221B68E26022720D20C5E715
:109BD000D3E90512881AB0F5805F94BF121802F518
:109BE000805291429A61D7D1B6E701228DF80020C8
:109BF0001A690292DA685B69CDE90323C6E700BF00
:109C0000BC400020D4400020D0400020AC400020C8
:109C1000F0B585B007460C46184803A915461E4600
:109C2000FEF702FA30B38446240B866007600123F6
:109C3000CCF80C40124E1148CCF814500024CCF84B
:109C4000044003A9CCF81040CCF818408CF804303C
:109C5000FEF71CFA301DFEF7C9FA10B1204605B018
:109C6000F0BD737C002BFAD10190FFF7DBFE019869
:109C700005B0F0BD042005B0F0BD00BFAC40002031
:109C8000BC400020F0B585B006460F46164803A933
:109C900015461C46FEF7C8F910B384460A9B0660B9
:109CA00083600761114ECCF8144000240E48CCF8B4
:109CB0000C5003A9CCF80440CCF81840FEF7E6F9A4
:109CC000301DFEF793FA10B1204605B0F0BD737C4D
:109CD000002BFAD10190FFF7A5FE019805B0F0BD69
:109CE000042005B0F0BD00BFAC400020BC40002007
:109CF00000F0FD03012B00D0704730B53D4DA0F1C1
:109D00000100B0FA80F02B7A0022400987B06A7413
:109D10002874002B4DD0384B1C6802232B722379FA
:109D2000002B51D0012B07D1D4E903031844FFF7CE
:109D300029FE50B311281BD023689A6872B1002302
:109D4000CDE902330093049303230193A3680593A1
:109D5000237923B3012B0FD0684690472749284821
:109D600000232B726B6007B0BDE83040FEF7D0B91E
:109D700001232B7207B030BD02238DF80030E36859
:109D8000616904911B030293E6E72B7C002BF1D160
:109D90000146022007B0BDE83040FFF7C1BE0123F5
:109DA0008DF800302369E16802936369CDE90313FC
:109DB000D2E712491248FEF779F90F4B04461860B2
:109DC0000028AAD16860D5E7D4E90523D21AB2F5F4
:109DD000805F28BF4FF480529208E1682069012A11
:109DE00038BF012219441844FFF7CAFD0028A1D149
:109DF000CBE700BFBC400020D4400020D040002072
:109E0000AC40002040B139B110B40C680160234669
:109E100011465DF8044B18470E2070472DE9F047B6
:109E2000DDF820A048B342B306684EB31D460BB31D
:109E30004768D7F80490B3FBF9F809FB1838B8F174
:109E4000000F17D142EA0104A4078E460FD1C4685F
:109E5000A1420CD3046901F1FF3E7544A54206D826
:109E6000CDF820A0F468A446BDE8F0476047102074
:109E7000BDE8F0870920BDE8F0870E20BDE8F08737
:109E80000820F5E7D8B1F0B50668D6B1AAB14468A4
:109E900027687C1E0C428E460DD1C468A1420AD3AD
:109EA0004C1E07FB024E0469A64504D83469A4463B
:109EB000BDE8F04060471020F0BD0920F0BD0E2045
:109EC00070470820F0BD00BF4FF0805310B4D3F8A6
:109ED0003021082A23D0844AD2F8883043F4700312
:109EE000C2F88830BFF34F8FBFF36F8F4FF08053AE
:109EF000D3F83021082A00F0B3804FF01023D3F8B4
:109F00000022002AC0F2BF80D3F80432002BC0F236
:109F1000BA80764B764A5DF8044B1A6070474FF072
:109F200080410020C1F80C01724AC1F81001C1F84B
:109F30003805D3F80414C2F82015D3F80814C2F871
:109F40002415D3F80C14C2F82815D3F81014C2F84D
:109F50002C15D3F81414C2F83015D3F81814C2F81D
:109F60003415D3F81C14C2F84015D3F82014C2F8E5
:109F70004415D3F82414C2F84815D3F82814C2F8AD
:109F80004C15D3F82C14C2F85015D3F83014C2F87D
:109F90005415D3F83414C2F86015D3F83814C2F845
:109FA0006415D3F83C14C2F86815D3F84014C2F80D
:109FB0006C15D3F83411D3F84434C2F87035052940
:109FC00042D84D4B5B5C1BB14C4B4D4AC3F88C26C1
:109FD0004C4B5B5C73B14FF080534B49D3F830214D
:109FE000FB20C1F81805082AD3F834117FF473AFA9
:109FF000052929D8454B5B5CBBB14FF080524FF02F
:10A000008040D2F85832D0F8E41ED2F8304121F026
:10A010000F0103F00F030B43C0F8E43E082CD2F805
:10A0200034117FF458AF05290ED8394B5B5C5BB116
:10A030004FF08053374AD3F830314FF40071082B7A
:10A04000C2F840167FF447AF4FF08043D3F80024A6
:10A05000D2077FF540AF6FF00102C3F800243AE762
:10A06000D3F83431052B08D94FF010224FF080433C
:10A07000D2F80822C3F858253FE7274AD35C002BC3
:10A080003FF43BAFF0E7254A0123C2F80435D2F88C
:10A090000034002BFBD04FF0102312211F4AC3F8CD
:10A0A0000012D2F80034002BFBD04FF01023122105
:10A0B0001A4AC3F80412D2F80034002BFBD0002354
:10A0C0001649C2F80435D1F80034002BFBD0BFF399
:10A0D0004F8F0549124BCA6802F4E0621343CB600C
:10A0E000BFF34F8F00BFFDE700ED00E0E82C00203C
:10A0F0000090D00300C0004018DF02000050004074
:10A100004881030018DF020000F0004018DF020061
:10A1100018DF02000090024010DF020000E0014062
:10A120000400FA05032838B5044626D8154B1C5DF3
:10A13000630904F01F050CD0012B0FD14FF6FF73FC
:10A14000EB40DB070AD5104A0123AB40C2F80C35BF
:10A1500038BD4FF0FF33EB40DA0706D40B494FF41C
:10A16000F67001F0B9FB1F2CEDD825464FF0A04248
:10A170000123AB40C2F80C3538BD0549412001F040
:10A18000ABFBD3E7F8DF0200000300508CDF0200D6
:10A1900020DF0200032838B5044626D8154B1C5D85
:10A1A000630904F01F050CD0012B0FD14FF6FF738C
:10A1B000EB40DB070AD5104A0123AB40C2F8083553
:10A1C00038BD4FF0FF33EB40DA0706D40B494FF4AC
:10A1D000F67001F081FB1F2CEDD825464FF0A04210
:10A1E0000123AB40C2F8083538BD0549472001F0CE
:10A1F00073FBD3E7F8DF0200000300508CDF02009E
:10A2000020DF0200C30707D4830700D47047314B17
:10A210000C22C3F8182770474FF0804310B4D3F8CE
:10A220004036D9071FD44FF0A0432A4903224024C7
:10A23000C3F81827C3F82027C1F82427C3F830270C
:10A24000C3F808454FF400724FF48074C3F8084512
:10A25000C1F808254FF48052C3F80825820731D48D
:10A260005DF8044B70474FF01023D3F8043303F02C
:10A270000703072BD7D1184A0123C2F80435D2F8B7
:10A280000034002BFBD04FF010210020D1F8043314
:10A29000114C23F0070343F00403C1F80433C2F860
:10A2A0000405D4F80034002BFBD0BFF34F8F0B49CB
:10A2B0000B4BCA6802F4E0621343CB60BFF34F8FCD
:10A2C00000BFFDE7034B5DF8044B0C22C3F81827D1
:10A2D000704700BF0003005000E0014000ED00E0C7
:10A2E0000400FA0510B568B90E4CA368012262702B
:10A2F0003BB1D3E900230020A2609847A368002B5C
:10A30000F7D110BD0128FCD1064C2369A070002BA9
:10A31000F7D0D3E900230120226198472369002B5D
:10A32000F7D110BDD840002070B910B5074CA36814
:10A33000012262703BB1D3E900230020A26098475C
:10A34000A368002BF7D110BD704700BFD840002094
:10A3500038B50E4C237843B185250D4BD3F8003426
:10A360000BB10123A370284638BD0A486360A3607F
:10A370002361E36000F0F8F8054602F0B3FC10B189
:10A3800001232370E9E700F005F9F9E7D840002040
:10A3900000000140E5A2020030B5234D2B7883B0C8
:10A3A0000446002B33D0AB7803F0FF02ABB114B1FD
:10A3B00063680120984700230DF107008DF80730EE
:10A3C000FDF7B8FBEB689DF807000133EB60FDF784
:10A3D000E7FBEB6803B303B030BD0DF107008DF868
:10A3E0000720FDF7A7FB64B12A6942B1944208D067
:10A3F000134601E09C4204D01B68002BFAD1226076
:10A400002C61EB68002BDDD100F0ECF8DAE70749AE
:10A41000F62001F061FAC6E704494FF4897003B0F1
:10A42000BDE8304001F058BAD8400020FCDF0200FF
:10A4300030B51E4C237883B09BB1E368CBB10023C9
:10A440000DF107008DF80730FDF774FBE368013B61
:10A45000E360E3689BB19DF80700FDF7A1FB03B043
:10A4600030BD134940F2171001F036FAE368002BB3
:10A47000E5D10F494FF48C7001F02EFADFE702F0BE
:10A4800031FC68B90B4BD3F80054002DE3D100F038
:10A49000C9F89DF80700A570FDF782FB03B030BD39
:10A4A00003497B2001F018FAECE700BFD8400020F8
:10A4B000FCDF02000000014010B5012882B004D08A
:10A4C000032821D0B0B102B010BD224C00230DF101
:10A4D00007008DF80730FDF72DFB237823B3E368E1
:10A4E0009DF8070001221344E360A270FDF758FBBA
:10A4F00002B010BD184B0122C3F88020BFF34F8F6C
:10A50000BFF36F8F02B010BD124B1B7833B100F058
:10A5100041F802B0BDE81040FFF78ABF0F4940F292
:10A52000522001F0D9F9F2E70D486360A36023617E
:10A53000E36000F019F802F0D5FB40B1094AD2F807
:10A54000002401232370002AC9D0A370C7E700F0BC
:10A5500021F8F3E7D840002000E100E0FCDF020032
:10A56000E5A202000000014010B5044640B1074AD0
:10A57000107918B901211460918010BD852010BD9B
:10A580000349A42001F0A8F9F1E700BFEC40002046
:10A5900074E0020008B5104B1B794BB10F4B1A68E1
:10A5A000D2070DD54FF080430122C3F8182508BD0E
:10A5B0000B49BD2001F090F9084B1A68D207F1D47D
:10A5C000C02283F8002301221A604FF08043012249
:10A5D000C3F8182508BD00BFEC40002000E100E0F2
:10A5E00074E0020000B50D4B1B7983B083B14FF0CE
:10A5F00080430022C3F80421D3F80421019201987A
:10A6000002210122C3F804139A6003B05DF804FB31
:10A610000349EA2001F060F9E9E700BFEC400020BF
:10A6200074E0020000B50F4B1B7983B0A3B14FF06B
:10A63000804202210023C2F80813C2F80431D2F884
:10A640000431019301230199D360D2F81834DB035C
:10A65000FBD403B05DF804FB0349F72001F03CF99B
:10A66000E5E700BFEC40002074E0020010B54FF0B9
:10A67000804382B0D3F8002162B10021164AC3F8AA
:10A680000011D3F80011507900910121009CC3F80A
:10A690000813A8B14FF08043D3F80421CAB10022B7
:10A6A000C3F80421D3F8042101920B4A0198022136
:10A6B000C3F808131368012002B0BDE81040184722
:10A6C0001368517198474FF08043D3F80421002A52
:10A6D000E5D102B010BD00BFEC40002030B5224CE7
:10A6E00094F86A3083B0002B3AD14FF6FF704FF0E8
:10A6F000FF0C5A09012A18BF4FF0FF3103F01F0267
:10A7000008BF014621FA02F2D20748BFE21803F15E
:10A71000010348BF82F830C0302BEAD14FF0FF353B
:10A720002C22FF211148256003F0F3F81049114B4A
:10A7300025660020C0226066888083F806234022B8
:10A740001A600D4BC3F87C01D3F87C1101914FF0D6
:10A7500000420121019D84F86A10C3F8042300E03F
:10A76000082003B030BD00BFF4400020F8400020B6
:10A770005841002000E100E000600040034B93F8E6
:10A780006A00003818BF0120704700BFF440002065
:10A790002DE9F047470904460E46914678D0012F2F
:10A7A00065D000F01F08A24DA2494FF40C7001F0D3
:10A7B00093F82A1992F93030002B66DAB378C3F394
:10A7C000400C9B0767D52B68013300F002816B6852
:10A7D000013300F0138101220821531C8B4243D224
:10A7E00055F82300013062D0931C8B423CD255F8BF
:10A7F000230001305BD0D31C8B4235D255F82300A7
:10A80000013054D0131D8B422ED255F82300013055
:10A810004DD0531D8B4227D255F82300013046D02E
:10A82000931D8B4220D255F8230001303FD0D31D19
:10A830008B4219D255F82300013038D002F10803B9
:10A840008B4211D255F82300013030D002F10903B8
:10A850008B4209D255F82300013028D00A328A42AF
:10A8600002D2EB6A013321D00420BDE8F0874FF615
:10A87000FF7304F01F0823FA08F3DA0793D56C4D31
:10A880002A1992F93030002B98DB0820BDE8F087B8
:10A890004FF0FF33EDE72B6A013300F0A1806B6AC4
:10A8A000013300F0A48009220C2196E70B232A191A
:10A8B00045F823904FFA83F982F83090BCF1000FED
:10A8C00002D12B4483F85840B07843071DD4C00709
:10A8D00049D5002F72D0012F58D057494FF4F67048
:10A8E00000F0FAFF554B03EB8808D8F8003723F047
:10A8F0000203C8F800375249E20804F00707885CF1
:10A900000123BB4003438B54B07810F002001DD0EC
:10A910004FEA890303F1804303F5C0433178D3F84C
:10A92000100520F44F3020F44070C3F810052202C7
:10A930000904D3F8100501F4403102F47C520A43B3
:10A940000243C3F810250020BDE8F087A9F10809EB
:10A9500045FA89F5327895F8603043EA821385F834
:10A960006030BDE8F08796F801A0E7B1012F14D15F
:10A970004FF6FF7323FA08F3DA070ED52F4A08F5CE
:10A98000E0784FEA8A0342F82830B4E74FF6FF73C5
:10A9900023FA08F3D907A0D5A4E727494FF4F670A6
:10A9A00000F09AFFEAE74FF0FF3323FA08F818F0B7
:10A9B000010F33D0A0464FF0A042E0E74FF0FF3345
:10A9C00023FA08F818F0010F1FD0A0464FF0A0435B
:10A9D00089E7C5F800904FF0000982F8309073E7DE
:10A9E0000823C5F8209082F83030994669E709239A
:10A9F000C5F8249082F83030994662E7C5F8049093
:10AA00004FF0010982F830905EE70B494FF4F67081
:10AA100000F062FFA0464FF0A04364E706494FF400
:10AA2000F67000F059FFA0464FF0A042A7E700BF24
:10AA3000F4400020ECE002008CDF02000003005034
:10AA4000584100202DE9F043460983B004460D46E5
:10AA50007ED0012E3FD000F01F08594F594907EB17
:10AA600004094FF4187000F037FF99F93030002BCB
:10AA700040DA544940F2612000F02EFF99F930305D
:10AA8000072B39DCDAB2072A22D89A0002F1804279
:10AA900002F5C042D2F8101541F00101C2F81015BC
:10AAA00003F1400252B2920092B202F1804202F5EA
:10AAB000C0420021116012680192019A45B157F815
:10AAC00023202AB14049012202FA03F3C1F80433DA
:10AAD00003B0BDE8F0834FF6FF7304F01F0823FABC
:10AAE00008F3DF07B9D5364F07EB040999F9303081
:10AAF000002BBEDB072BC5DD083B47FA83F797F831
:10AB000060309B09032B2ED0012B0CBF4FF4003576
:10AB10004FF44035002E3CD0012E1CD02B494FF471
:10AB2000F67000F0D9FE1F2C1BD8A0464FF0A043B2
:10AB300003EB8803D3F8001721F44031C3F8001762
:10AB4000D3F800272A43C3F8002703B0BDE8F083F9
:10AB50004FF0FF33C1E74FF6FF7323FA08F3DA072C
:10AB6000DCD51B4BE4E726B3012E19D017494FF46F
:10AB7000F67000F0B1FE1F2C18D825464FF0A04308
:10AB8000D3F81025EA4002F0010202321504002E2B
:10AB9000C2D14FF0FF3323FA08F3D907C5D4BDE77C
:10ABA0004FF6FF7323FA08F3DB07DFD5084B454662
:10ABB000E6E74FF0FF3323FA08F3D807DDD4D5E7F3
:10ABC000F4400020ECE00200006000408CDF020056
:10ABD00000030050F8B54609044652D0012E2CD08F
:10ABE00000F01F07354D3649254440F28B2000F018
:10ABF00073FE95F93030002B2CDA31494FF4237075
:10AC000000F06AFE95F93030072B25DD002E41D08B
:10AC1000012E39D14FF6FF73FB40DB0734D5294BAA
:10AC200003EB8707D7F8003723F44033C7F8003722
:10AC3000D7F80037C7F80037F8BD4FF6FF7304F0B8
:10AC40001F07FB40D907CDD51C4D254495F9303061
:10AC5000002BD2DB072BD9DCDAB2072AECD89A001A
:10AC600002F1804202F5C042174CD2F810050121D2
:10AC700020F0010001FA03F3C2F81005C4F808330C
:10AC8000F8BD4FF0FF33DAE710494FF4F67000F0EB
:10AC900023FEC4E74FF0FF3323FA07F7FA0703D583
:10ACA00027464FF0A043BBE708494FF4F67000F089
:10ACB00013FE27464FF0A043B2E700BFF440002048
:10ACC000ECE0020000030050006000408CDF020056
:10ACD0002DE9F04F002387B0CDE90433BE4AD2F806
:10ACE0000011012900F093811E46BB4BD3F80421CB
:10ACF000012A00F07D81B84BD3F80821012A00F029
:10AD00005B81B54BD3F80C21012A00F04681B24B90
:10AD1000D3F81021012A00F03181AF4BD3F8142170
:10AD2000012A00F01C81AC4BD3F81821012A00F055
:10AD30000781A94BD3F81C21012A09D0A64BD3F8CF
:10AD40007C21012A00F0708146BB07B0BDE8F08F7E
:10AD5000D3F804231706F1D50022C3F81C21D3F839
:10AD60001C110291D3F87C110298012946F080064B
:10AD700014D1C3F87C21D3F87C3103934FF0A04267
:10AD8000039BD2F82015954B0491C2F82015D3F8F7
:10AD900020250592C3F8202546F00046904F012556
:10ADA0000024A30003F180432E4203F5C0434FEA81
:10ADB00045050BD0D3F8100557F82420D3F810150B
:10ADC000C0F30520C1F3014102B190470134082CC2
:10ADD000E7D1002EB9DADFF810A2DFF8109219F9E6
:10ADE000014B651C10D0C4F3C20202F118030DEB35
:10ADF000030204F0070112F8082C01238B401A42C9
:10AE0000E6B204F03F0413D1D145E8D14FF0A0439E
:10AE10007249D3F820250492C3F82025D1F82035B3
:10AE20000593C1F820351343D7D107B0BDE8F08FA3
:10AE3000620906F01F0843D14FF0FF3323FA08F3ED
:10AE4000D80740F1168100944FF0A04B23460BEB3E
:10AE50008305D5F80077C7F30147022F14BF4FF4DD
:10AE600000334FF44033002A45D14FF0FF3222FA2D
:10AE700008F818F0010F45D0D5F8002722F4403229
:10AE8000C5F80027D5F800271A43C5F80027544B0A
:10AE90001A1992F9302053F82250009B01229A404F
:10AEA000CBF82025002DAFD0B109032905D0022F02
:10AEB00040D0032FA8D10229A6D12046A847A3E756
:10AEC0004FF6FF7323FA08F3D90740F1C5804FEA24
:10AED000880505F1A045DFF804B1D5F8007ACDF872
:10AEE0000080C7F30147022F05F540750CBF4FF4F2
:10AEF00040334FF400334FF6FF7222FA08F818F08F
:10AF0000010FB9D1374901934FF4F67000F0E4FC1A
:10AF1000D5F80027019B334922F44032C5F80027B9
:10AF2000D5F800271A43C5F800274FF4F67000F053
:10AF3000D3FCACE701297FF467AF2046A84763E75D
:10AF4000D3F8042352067FF5F4AE0022C3F818218B
:10AF5000D3F818310293029B46F04006E9E6D3F895
:10AF6000042391067FF5DFAE0022C3F81421D3F845
:10AF700014310293029B46F02006D4E6D3F8042352
:10AF8000D0067FF5CAAE0022C3F81021D3F81031E5
:10AF90000293029B46F01006BFE6D3F80423140781
:10AFA0007FF5B5AE0022C3F80C21D3F80C31029323
:10AFB000029B46F00806AAE6D3F8042355077FF55E
:10AFC000A0AE0022C3F80821D3F808310293029BF7
:10AFD00046F0040695E600BF006000400003005004
:10AFE000F44000208CDF0200584100205441002032
:10AFF000D3F8042397077FF57EAE0022C3F804211F
:10B00000D3F804310293029B46F0020673E6D2F8AD
:10B01000046316F001063FF468AEC2F80031D2F8BE
:10B0200000310293029B60E60022C3F87C21D3F832
:10B030007C3103934FF0A042039BD2F82015134BB1
:10B040000491C2F82015D3F820250592C3F82025D5
:10B05000002E3FF4C0AE9FE60D4901924FF4F6700A
:10B0600000F03AFCDFF824B0019ACDF800804346A6
:10B07000EDE6074901924FF4F67000F02DFC4FF019
:10B08000A04B019A00942346E1E600BF0003005064
:10B090008CDF020010B5074C236813B1BDE81040E7
:10B0A00018470549512000F017FC2368BDE81040FF
:10B0B000184700BF6041002064E102002DE9F04123
:10B0C000054616460C46002951D0002E55D06B7906
:10B0D000304A314F42F8236003EB4303FB5C002B03
:10B0E0003CD1A67895F90480B31E012B02D9731FB9
:10B0F000022B47D84346B8F1000F27DB08F1604820
:10B10000760108F56148F6B288F80063002B08DB89
:10B1100022495809012203F01F0302FA03F341F800
:10B1200020302688D5F80080B6F5805F19D2C8F89F
:10B1300008656B792079E17803EB4303FA185070C6
:10B1400091700120F8540020BDE8F081144A08F005
:10B150000F087601F6B202F80860D7E70820BDE8CC
:10B16000F08110494FF4BE7000F0B6FBDFE70E49E6
:10B17000512000F0B1FB002EA9D10B49522000F064
:10B18000ABFBA4E709496B2000F0A6FB95F904305E
:10B19000B1E700BF704100206841002000E100E0FD
:10B1A00014ED00E0E8DB0200DCE1020054DC020008
:10B1B00038B543790A4D03EB43010446695C012924
:10B1C00007D15A001344226802200121E85411607B
:10B1D00038BD0449822000F07FFB63795A00F1E713
:10B1E00068410020DCE102002DE9F0410C46417984
:10B1F0002E4D01EB41011E466B5C82B08046174626
:10B20000002B4AD098F80630A34241D9D8F8003034
:10B2100027F07F424FF48037A740C3F84873C3F844
:10B22000087398F8051001EB4100284490F801C01C
:10B230004800BCF1000F1AD004F5A87C014443F883
:10B240002C20D3F804E50D44AEEB020C724588BF08
:10B250000CF1FF1CAA7888BF0CF57F4C624521DCFD
:10B260005EB90020C3F8447302B0BDE8F08104F574
:10B27000A87143F82120002EF3D05034A400A4B2CA
:10B2800000221A511A590192019AC3F80473E8E78F
:10B290000749B52000F020FBB8E70549B42000F0CD
:10B2A0001BFBAFE70D2002B0BDE8F0816841002034
:10B2B000DCE102002DE9F041274E284FDFF8A080A5
:10B2C00084B000244FF48035D6F804332B4211D0DB
:10B2D00057F824300022E0B263B1C6F84853C6F8EC
:10B2E000085347F8242057F824200392D8F8003058
:10B2F000039A98470134032C4FEA4505E4D1164BD5
:10B30000D3F80423D10702D5D3F80021C2B9124BD8
:10B31000D3F80423920710D5D3F804216AB1002290
:10B32000C3F80421D3F804210D4B0192019A1B6844
:10B33000052004B0BDE8F041184704B0BDE8F08135
:10B340000022C3F80021064AD3F8003102930420FA
:10B350001368029A9847DAE700B0004040B1004015
:10B36000704100202DE9F041274E284FDFF8A080E2
:10B3700084B000244FF48035D6F804332B4211D02A
:10B3800057F824300022E0B263B1C6F84853C6F83B
:10B39000085347F8242057F824200392D8F80430A3
:10B3A000039A98470134042C4FEA4505E4D1164B23
:10B3B000D3F80423D10702D5D3F80021C2B9124B28
:10B3C000D3F80423920710D5D3F804216AB10022E0
:10B3D000C3F80421D3F804210D4B0192019A5B6854
:10B3E000052004B0BDE8F041184704B0BDE8F08185
:10B3F0000022C3F80021064AD3F800310293204608
:10B400005368029A9847DAE7004002404041024000
:10B410007041002072DF704773DF704776DF70473E
:10B420007ADF70477CDF70477FDF70478FDF7047C0
:10B43000B1DF7047024A40F21911FCF753B800BF60
:10B4400050E20200024A40F2BD11FCF74BB800BFC7
:10B4500050E202002DE9F041274C284D2378284E78
:10B46000284F0022132BADF6A87D2A7006F57A58D6
:10B4700024D803EB830303EB8303D90002AA06EB72
:10B480008101043913460DF1D00C51F8040F03F873
:10B49000010B9C45F9D11C4B1C49188801F05EFF3B
:10B4A00090B91B482378297802680133DBB2013157
:10B4B0000132132B297002602370DAD9154A3B78C8
:10B4C00012780133934203DB0DF6A87DBDE8F081CD
:10B4D00002AAD9B210460192397001F08FFE084BD2
:10B4E000019A013810F8011F43F8041B9845F9D15F
:10B4F00000212170C3E700BF7D8000207C800020F8
:10B50000784100207E800020FE2C002064800020F6
:10B5100000800020B43C002008B5037803B108BDCA
:10B52000064B3B211888FFF779FF0028F7D0BDE8CC
:10B530000840034A4FF4D971FBF7D4BFFE2C00201A
:10B5400050E2020030B5ADF5835D1D4B1D4D83B05B
:10B550000021044632A8197001F050FEA5F57A5377
:10B56000421E12F8011F43F8041BAB42F9D1164BDF
:10B570000DF1FF3203F5487053F8041F02F8011F64
:10B580008342F9D111481249124A00230360012075
:10B5900008701149114813700B60008810496A4601
:10B5A00001F0DCFE02202CB1FEF7BCFD0DF5835D41
:10B5B00003B030BDFEF7EEFD0DF5835D03B030BD89
:10B5C0007E800020F87F0020744100200080002051
:10B5D0007D8000207C80002080800020FE2C0020C8
:10B5E00064800020022A104601D0FFF7ABBF024B57
:10B5F00000221A70704700BFFC7F0020E8B908B530
:10B600001B4B1A7822B91B4A01201870116008BD23
:10B61000184B1B68C91A002905DD174BC81783FB97
:10B620000131C0EBA110154B1B784BB14FF0A0437B
:10B630004FF48002C3F80C2508BD002001F000BDC6
:10B6400007EE900AF8EEE77AB2EE047AC7EE877A50
:10B6500017EE900A02F0CAF841EC100B02F0E0F885
:10B6600051EC100B02F0AEF8C0B201F0E9FCDDE7DE
:10B67000FC7F0020F87F0020F712DA4B5C8100206D
:10B6800070B54FF0A0430D4D4FF48002C3F808256C
:10B6900045F00105C8244FF47A40A847013CFAD18F
:10B6A000012001F05FFF064A06480123936021460E
:10B6B0006022BDE87040FFF797BD00BFF0E20200D6
:10B6C00000400240F8E2020030B50388212B83B02D
:10B6D000044616D93B3B9AB21C2A14D81C2B12D80C
:10B6E000DFE803F0B1111111111111111111111134
:10B6F000111111111111111111111198111111A61E
:10B70000C0000F2B01D803B030BD103B112BFAD86D
:10B7100001A252F823F000BF7FB70200C9B70200B0
:10B7200007B70200F9B7020007B7020007B7020027
:10B7300007B7020007B7020007B7020007B7020009
:10B7400007B7020007B7020007B7020007B70200F9
:10B7500007B7020007B7020007B7020061B702008F
:10B7600000238088ADF8043001A9FFF75FFE0028B0
:10B77000C9D0514A40F23921FBF7B4FEC3E701209A
:10B78000FEF7D0FC0020FEF705FD4C4A4C4BA1888B
:10B790004C4819800025156001F0C8F8002879D1BF
:10B7A000FBF716FE00286FD1474BA0881B88ADF829
:10B7B000043001A9FFF73AFE0028A4D03E4A40F227
:10B7C0001A21FBF78FFE9EE70120FEF7E3FC3C4BBE
:10B7D0004FF6FF721A80FBF71BFE002866D13B4B29
:10B7E00001211878FFF718FE002859D1002003B076
:10B7F000BDE83040FEF796BC314A00231088852111
:10B800001A46FFF711FE00283FF47DAF2A4A40F2A6
:10B810002D2122E02A4A0023108819461A46FFF7F4
:10B8200007FE00283FF46FAF234A40F23F2114E0A7
:10B83000A0881321FFF7F2FD00283FF464AF1E4AF1
:10B8400040F24F2109E0A0881321FFF7E7FD00280F
:10B850003FF459AF184A40F2472103B0BDE83040E9
:10B86000FBF740BE1A4A1B491368A079097803EB1D
:10B8700040038B421360FFF646AF0023136003B012
:10B88000BDE83040FFF7E6BD0B4A40F21221FBF75E
:10B8900029FE89E7084A4FF40471FBF723FE7FE78E
:10B8A000054A40F2DF11FBF71DFE9FE7024A40F216
:10B8B0002321FBF717FE92E750E2020000800020F0
:10B8C000FE2C002058800020E4E20200FC2C002026
:10B8D000808000207C80002003460A4601481946EB
:10B8E000FBF700BEEFBEADDE00B5A449ADB0192038
:10B8F00001F0AAFD0120FEF785FCFCF711F80028F5
:10B9000040F0DB80FEF724FD002840F0308100206D
:10B91000FEF742FD9A4B9B4A93E8030040F6FF7303
:10B920001D90ADF878109848ADF874301DA9FFF758
:10B93000C5FB9548012360220021FFF755FC002834
:10B9400040F00F819048FFF733FC01F0B3F8002876
:10B9500040F0018100231DA901201D9301F01CFA74
:10B96000002840F0F2801DA801F06CFA002840F099
:10B97000E680684601F0E2FA002001F061FBFCF786
:10B9800043FC002840F0D580112380498DF83830E1
:10B9900014220EA8FFF746FD002840F0C5807C4A1F
:10B9A0001D9200214FF4C8731DA8ADF87810ADF8B2
:10B9B0007A30FFF735FD002840F0B180754800214E
:10B9C00000F0C4FE002840F0A580734B73481D931F
:10B9D00000221DA90E9200F097FF002840F09480ED
:10B9E0006F4B70480E930EA901F04EFC002840F0FA
:10B9F00085806C4B6C4C9B7C8DF81E3041F2235043
:10BA00003C220021ADF81C000EA801F082FF0223A9
:10BA10003C2200218DF838301DA840F20163ADF8BA
:10BA20003A3001F076FF224607A9012322910EA8A1
:10BA300052F8041BADF8843000F03CF9002858D1CE
:10BA40005A4AA1681DA800F035F900284CD10023FE
:10BA50000121402408930D938DF820108DF83510A6
:10BA600053485149099308AACDE90B330A94FFF7CB
:10BA7000D1FC98BB002320934E494F4A1D934FF4AD
:10BA8000A02421934FF4A033CDE91E431DA8032326
:10BA9000CDE922128DF8803000F032FCC0B9444B61
:10BAA00001211878FFF7B8FC60B90020FEF73AFBD7
:10BAB000FCF7C0FB01F01AFAFAE7404AB521FBF7A0
:10BAC00011FD1FE73D4A40F2DF11FBF70BFDECE7EC
:10BAD0003A4A4FF4EA71FBF705FDE0E7374A4FF4C5
:10BAE0008671FBF7FFFCC5E7344AFD21FBF7FAFC42
:10BAF000ADE7324AFA21FBF7F5FCA1E72F4A4FF4F4
:10BB0000CE71FBF7EFFC74E72C4A4FF4CB71FBF7D7
:10BB1000E9FC65E7294ADC21FBF7E4FC55E7274A05
:10BB2000D321FBF7DFFC49E7244AC921FBF7DAFC04
:10BB300035E7224A40F2B221FBF7D4FC24E71F4A42
:10BB400040F27121FBF7CEFC13E71C4A40F26D2155
:10BB5000FBF7C8FC07E7194A40F26721FBF7C2FC74
:10BB6000F8E6164A40F2A521FBF7BCFCEAE6134AC8
:10BB700040F28321FBF7B6FCC9E600BFFDB5020029
:10BB8000E8E2020081B60200F8E20200CCE2020024
:10BB90000C0020004480002035B4020058800020B2
:10BBA000E5B5020064800020EC2C0020F82C002079
:10BBB000FC2C002019B5020045B4020050E202003E
:10BBC0006DDF704779DF70477DDF704764DF704756
:10BBD0002DE9F04F85B099460E9E0388BDF83CA034
:10BBE0000091174632880192002B53D04FF0000885
:10BBF000C3464546804605E0B8F800200BF1010B2E
:10BC00005A4529DDD8F8041051F82B000390002282
:10BC10000DF10B0103A8FFF7D9FF044630BB9DF8D7
:10BC20000B20BA42E8D12DB33288D119514536DC08
:10BC30004A440DF10B0103A80125FFF7C7FF0028B7
:10BC400032D131889DF80B200A443280B8F80020A8
:10BC50000BF1010B5A45D5DCE5B13388019A013B64
:10BC60009B1A9BB2FF2B1AD809F80230204605B068
:10BC7000BDE8F08F3288511C3A440232524589B2F5
:10BC80000DDC009B318009F801303288013292B21C
:10BC90003280CDE70024204605B0BDE8F08F0C24AB
:10BCA000204605B0BDE8F08F0446204605B0BDE84B
:10BCB000F08F00BF2DE9F04790F82D301446002298
:10BCC0002788228086B006460D46002B40F0FE8075
:10BCD000B278002A40F0F380F178A1B1DA1CBA42C0
:10BCE00000F2F0800222EA542388012213449BB21E
:10BCF0002380EA54238813449BB22380E954238889
:10BD000013449BB223807268AAB1D91CB94200F2D5
:10BD1000D980022192F90020E954238801339BB293
:10BD20000A212380E954238801339BB22380EA54FB
:10BD30002388013323803389002B40F0F280338A3B
:10BD4000002B40F02681338B002B40F03C81336A7E
:10BD5000002B42D02088821DBA4200F2B3801A889C
:10BD6000052A40F28B816FF4486802EB080189B222
:10BD70004FF27D3C614540F281815988052940F2AE
:10BD80007D816FF4486E8E441FFA8EFEE64540F2C8
:10BD900075814FF6FF7C624502D08A4200F26E81C7
:10BDA00005222A542288013292B212212280A954FB
:10BDB0002288013292B222801988A9542A44090AA1
:10BDC00051702288023292B222805B88AB542A449E
:10BDD0001B0A5370238802332380736A002B2FD0F1
:10BDE0009988B4F800C0881C0CF102020244BA42DF
:10BDF00068D8FE2866D8033105F80C102288013275
:10BE000092B2FF212280A9542288013292B222806C
:10BE10001988A9542A44090A51702088023080B236
:10BE200020809A8862B199680393002900F02681E6
:10BE3000284401F045FD039B9A88238813442380FE
:10BE400096F82C30002B40F0D780307800283AD07C
:10BE50003388012B00F0128123889A1CBA4231D812
:10BE6000012804D17178023119448F422AD3023F4C
:10BE7000FF1ABFB2A81804A9ADF81070FFF7A4FE0E
:10BE800008BB3378022B00F001817178BDF81020D7
:10BE90009142C0F0F7809742C0F0F4801746092223
:10BEA000FE2F0FD82388791CE954238801339BB2D5
:10BEB0002380EA54238801331F44278003E004339E
:10BEC000BB4249D90C2006B0BDE8F087082FF9D94C
:10BED00004A8FFF775FE0028F5D123880822EA544C
:10BEE000238801339BB21B222380EA542388DDF888
:10BEF000112001339BB22380EA502B44BDF815205A
:10BF00009A8023889DF8102006339BB212F0FE021F
:10BF100018BF01222380EA54238801339BB2238077
:10BF2000D6E606F108080222CDE900472B46114665
:10BF30004046FFF74DFE0028C5D1CDE900474046F9
:10BF40002B4610220621FFF743FE0028BBD1338A7F
:10BF5000002B3FF4F8AE1CE004A8FFF733FE0028E6
:10BF6000B1D123880322EA54238801339BB21922DA
:10BF70002380EA542388BDF8102001339BB223802C
:10BF8000EA542B44120A5A70238802339BB223804E
:10BF9000A2E606F11008CDE900472B460222032154
:10BFA0004046FFF715FE00288DD1CDE900474046F9
:10BFB0002B4610220721FFF70BFE002883D1338B7D
:10BFC000002B3FF4C4AE06F11808CDE900472B461C
:10BFD000022214214046FFF7FBFD00287FF473AFD7
:10BFE000CDE9004740462B4610221521FFF7F0FD12
:10BFF00000283FF4ACAE66E7B16A00293ED04FF0AE
:10C0000000094B464FF0160A2BE02388E85423889A
:10C0100001339BB2238005F803A0238801339BB230
:10C02000238031F82220EA542B44120A5A702088C7
:10C03000023080B22080B8F8042028444AB1D8F8F1
:10C040000810D9B101F03CFCB8F80420238813444F
:10C05000238096F82C205FFA89F39A427FF6F5AE9A
:10C06000B16A03EB430201EB820809F10109B8F858
:10C070000430D81C0233FE2BC7D923E7072006B0B3
:10C08000BDE8F087012B08D0082209E7BDF8103081
:10C090009F42F9D31F46092202E78F42F4D30F468D
:10C0A0000822FDE675DF704776DF70477ADF70475C
:10C0B0007BDF704770B51D4D2B8884B2A34282B0E0
:10C0C00011D11B4E297A327B91420ED3337C002250
:10C0D0002A72F3B9736933B100228DF80420ADF8E8
:10C0E000064001A8984702B070BD05F10A01184644
:10C0F000FFF7D8FF40B11128F5D0B369002BF2D07B
:10C1000002B0BDE8704018472B7A01332B7202B0A1
:10C1100070BD3B212046FFF7C7FF30F00803D9D0A0
:10C12000B369002BD6D09847D4E700BFA080002089
:10C130008480002070B50288122A82B003466ED037
:10C1400015D8102A30D0112A0FD16A4C8288238842
:10C150009A420AD16068FBF7A5FC18B1664B9B694F
:10C1600003B198474FF6FF73238002B070BD502A89
:10C17000FBD1614DC188EA899142F6D1028A022A37
:10C18000F3D15C4C828826889642EED1123000F0C2
:10C19000A9F9002800F09980637A002B40F09C8078
:10C1A000D5E90113324668E090F80FC0BCF1010FE9
:10C1B000DBD1504C21884FF6FF7291427ED14F4D1A
:10C1C0008288B0F812E022800021217203CDC4F8E9
:10C1D0000A00C4F80E106189714560D8A1897145C3
:10C1E0005DD3E1899B8A40F2F315A94294BF481AB6
:10C1F000481B984253D82944994250D33E4D84F865
:10C2000009C0EB89002BB0D16B69002BADD00121A7
:10C210008DF80410ADF8062001A89847A5E7354C25
:10C22000828821889142A0D14089658985421FD8A2
:10C23000A58985421CD3E0899B8940F2F31C6045A7
:10C2400094BF051AA0EB0C059D4211D8604498429A
:10C250000ED3294B5B694FF480722281002B84D06E
:10C2600001228DF80420ADF8061001A898477CE75C
:10C27000214D002363726968AB68207A002818BFDB
:10C2800019466068FBF7A8FB00283FF46EAFAB6966
:10C29000002B3FF46AAF02B0BDE870401847164D5E
:10C2A000EB8900216172002B7FF45FAF69686068E1
:10C2B000FBF792FB00283FF458AFE8E70E4B9B6971
:10C2C000002B3FF452AF0420E5E76068FBF7EAFB80
:10C2D00000283FF44AAFDAE76B6900222272002B94
:10C2E0003FF443AF01228DF80420ADF8066001A8A9
:10C2F00098473AE7A080002084800020B480002086
:10C3000070B3F8B586460768164E174D0446BEE86A
:10C310000F00B446ACE80F009EE8070035608CE8DB
:10C320000700BFB13846FFF7C1FE90B9236818680F
:10C33000596803C50D4B0E490E4A18464FF6FF7457
:10C3400040F8041F1C800021FBF720FB002818BFC9
:10C350000320F8BD2846FFF7ABFE0028EAD0F8BD61
:10C360000E20704784800020B4800020A080002030
:10C37000C0800020B5C002002DE9F04F0388B0F85E
:10C380000490103B99B007460A2B12D8DFE803F05F
:10C390002873111111111111117A140047484946DF
:10C3A000FBF7C6FE46484946FBF7C2FEFB7B022B65
:10C3B0007ED019B0BDE8F08F037A42483F2B4FEA98
:10C3C0001314494667D9FBF7B3FE3F484946FBF7CC
:10C3D000AFFE3E48494619B0BDE8F04FFBF7A8BE96
:10C3E0003B4A9368DB43009351686846FBF7CEFEF7
:10C3F000009B0193019B9BB34FF0000844462146EC
:10C4000001A8FBF7ADFE30B118AB03EB480308F110
:10C41000010823F8284C0134142CF0D1CDF83480D5
:10C420000DAD0FCD02AC0FC40FCD0FC495E80700C2
:10C4300084E80700B8F1000F12D0264E0DF10A0B68
:10C440004FF0000A3BF8025F1D4C20462946043499
:10C45000FBF77AFEA642F8D10AF1010AC245F1D1F2
:10C46000B9F1130F9AD91C4AF0210420FBF73AF8CE
:10C4700019B0BDE8F08F1148494619B0BDE8F04F3A
:10C48000FBF762BE037A002B93D1437A0D481B075A
:10C490004946F2D59FE7FBF757FE032C95D00A4893
:10C4A0004946FBF751FE022C93D008484946E4E781
:10C4B0000A484946FBF73CFE7BE700BFE8800020C6
:10C4C000E4800020F8800020F4800020F08000202C
:10C4D000E08000205C81002000E30200EC8000206E
:10C4E000AADF7047008800F00100704730B591B0B6
:10C4F00013460A888C78ADF80C200022ADF8002095
:10C500008DF802204A7C012C38BF0124013A8DF8B5
:10C510000E40042A09D8DFE812F0C200C600CA00A3
:10C52000CE00050022228DF800208A7C013A042AE0
:10C5300009D8DFE812F0C400C800CC00D000050024
:10C5400022228DF80120CA7B91F80CC04CEAC20C63
:10C550000A7C4CEA021C9DF802200CF0190C22F017
:10C5600019024CEA020C0A7D002A14BF02220122A1
:10C5700062F3420C4A7B8DF802C0002412F0300FA7
:10C58000CDE90944CDE90B44CDE90D440F9469D1BF
:10C590000022CDE9072206924A7B8DF824208C6880
:10C5A0008A7BB1F804C08DF8252003AACDF814D0F9
:10C5B000ADF81CC004921CB1CA880894ADF81820CC
:10C5C0008C69002C30D04FF0000C8DF806C0ADF80F
:10C5D00004C025680B9501AA65680D92227B0A9517
:10C5E000013A042A2CD8DFE802F08E9296822800C5
:10C5F00022228DF80520A27A94F808C04CEAC20CD9
:10C60000E27A4CEA021CA27B002A9DF806200CF07C
:10C61000190422F0190244EA020414BF0222012282
:10C6200062F342048DF80640CA6902B10C9204AA72
:10C6300009A9FFF755FF11B030BD22228DF8042063
:10C64000627B013A042AD6D801A555F822F000BF32
:10C65000F7C60200FFC60200DFC60200E7C60200FE
:10C66000F1C50200CA7CADF80840013A8DF80A40D5
:10C6700002AC042A07D8DFE802F0525E5A560300E3
:10C6800022228DF809209DF80A200E94012464F3DB
:10C6900042028DF80A2011228DF8082078E7112235
:10C6A0008DF8002041E721228DF800203DE731225E
:10C6B0008DF8002039E712228DF8002035E711228D
:10C6C0008DF801203FE721228DF801203BE7312240
:10C6D0008DF8012037E712228DF8012033E731224F
:10C6E0008DF8052087E712228DF8052083E71222B6
:10C6F0008DF80420A4E711228DF805207BE7212284
:10C700008DF8052077E711228DF8042098E7212283
:10C710008DF8042094E731228DF8042090E711224F
:10C720008DF80920AFE712228DF80920ABE73122FE
:10C730008DF80920A7E721228DF80920A3E700BF83
:10C7400090DF7047A5DF7047B5DF704708B90E204E
:10C75000704730B4FB220271074CC0F8064000233A
:10C760004FF0CB1541F6FB320560016143818281B8
:10C7700030BC1846704700BFCB0017008288002AE3
:10C780003CD130B50388242B85B00C4611D80F2B33
:10C7900030D9103B142B2DD8DFE803F070822C2CFD
:10C7A0002C2C2C2C2C2C2C2C2C2C2C2C2C2C2C8B6A
:10C7B0005F003A2B36D0552B1CD1C388C988A27292
:10C7C000172B38BF17238B4228BF0B4623811046F7
:10C7D000FFF7BAFFE37A6BB922695AB12189ADF844
:10C7E0000C1040F67720ADF80800ADF80A3002A929
:10C7F00020469047A37A53B905B030BD7047112841
:10C80000237B47D1627B01219A42A17245D3E18803
:10C810000020FFF797FF0028EED14FF4807363816B
:10C8200005B030BD4389C98825698B4228BF0B46B6
:10C83000172B38BF1723238165B1E17A51B140F638
:10C840007721ADF80810ADF80A20ADF80C3002A938
:10C850002046A84700236381CEE70B69027A4A731A
:10C86000002BC7D000204DF67A218DF80D000291E3
:10C870008DF80C2002A920469847BBE7C27B0B79B4
:10C880000B73012A2DD0022A29D14988E1802289FF
:10C890008A4229D3627B9A42ACD29BB200220FE03B
:10C8A0001649C4F80610002241F6FB336281A381C9
:10C8B000A2E7037A097B8B424FF0000228BF0B46A8
:10C8C000104663F30F0263F31F42029202A96A4605
:10C8D00003900090ADF80400FFF732FF8AE7C988A3
:10C8E000D5E70988E180D2E70020FFF72BFF002879
:10C8F00085D10122237BE272CCE700BFCB00170079
:10C90000B0DF704766DF704760B159B10378DE2B46
:10C910000AD009684160DE224FF6FF73027043803F
:10C92000002070470E2070470820704738B1037808
:10C93000DE2B02D1418000207047082070470E2076
:10C94000704700BFF9B170B5054684B050B10B789F
:10C95000DE2B0C4606D180884B88984214D02B8859
:10C96000012B01D004B070BD2E7A012EFAD163885C
:10C97000A8889842F6D126720021FFF7C3FF00284D
:10C980004DD12072EEE770470B7AEBB92B88112B53
:10C9900031D0512BE4D1AB79022BE3D1AA7B02F049
:10C9A000FD0104292ED0052ADCD100226946C1E907
:10C9B00001220092CA608DF80030FFF7A1FF002825
:10C9C000D0D063689847CDE70021FFF79BFF03466F
:10C9D000B0B1112813D0636898472B88112B06D06B
:10C9E000512BBDD1A88863888342D4D0BAE7AA88E6
:10C9F00063889A42B6D14FF6FF736380B2E7012392
:10CA00002372EAE769460022C1E901220092CA6066
:10CA10004FF4C0728DF80030ADF80420CDE7112836
:10CA200004D0636804B0BDE870401847267299E7E7
:10CA30000388502B00D07047C2884B899A4270B54A
:10CA400004460D461AD0A37C032B22D0042B04D11C
:10CA50006B69A088022229469847E2886B889A422F
:10CA600000D070BD238A012BFBD16B69002BF8D05D
:10CA7000A27CA0882946BDE870401847038A012B94
:10CA8000E1D1837C022BDFD14B698088002298475B
:10CA9000D9E70449044A01230B70137000F020FA0F
:10CAA000A37CD3E75C810020B43C002010DF7047FA
:10CAB00011DF704770B53E4D2B7884B0002B67D1E5
:10CAC0003C4E3D49012302A83370FBF7EFFB039B6B
:10CAD00023B90FE0FBF706FC039B5BB1D3E9003100
