:020000022000DC
:1070000000000420757302005D7302005F730200CC
:1070100061730200637302006573020000000000E8
:107020000000000000000000000000006773020084
:1070300069730200000000006B7302006D730200B0
:10704000F9CA02006F7302005DD902006F7302007B
:107050006F7302006F73020055D802006F73020055
:107060006F7302006F7302006F7302002DDF020066
:107070006F7302006F7302006F7302006F73020080
:107080006F7302009D8C02006F7302006F73020029
:107090006F7302006F730200651A03006F730200C2
:1070A0006F7302006F7302006F7302006F73020050
:1070B0006F7302006F730200000000000000000008
:1070C0006F7302006F7302006F7302006F73020030
:1070D00041DF02006F7302006F7302006F730200E2
:1070E0006F7302006F7302006F73020000000000F4
:1070F000000000006F730200000000006F730200C8
:10710000000000000000000000000000000000007F
:10711000000000000000000000000000000000006F
:10712000000000000000000000000000000000005F
:10713000000000000000000000000000000000004F
:10714000000000000000000000000000000000003F
:10715000000000000000000000000000000000002F
:10716000000000000000000000000000000000001F
:10717000000000000000000000000000000000000F
:1071800000000000000000000000000000000000FF
:1071900000000000000000000000000000000000EF
:1071A00000000000000000000000000000000000DF
:1071B00000000000000000000000000000000000CF
:1071C00000000000000000000000000000000000BF
:1071D00000000000000000000000000000000000AF
:1071E000000000000000000000000000000000009F
:1071F000000000000000000000000000000000008F
:10720000354936480A1A02D0072291438D4634493F
:1072100034480A1A06D00722914381F309880222D2
:1072200082F3148830483149314A00F044F831483B
:107230003149324A00F03FF831483249324A00F0D1
:107240003AF832483249334A00F035F83248334987
:10725000334A00F030F833483349344A00F02BF811
:1072600033483449344A00F026F83448344900227F
:1072700000F02CF833483449002200F027F8334856
:107280003349091A082902DB002202604160314AB1
:1072900090471F481F49884205D00268043003B454
:1072A000904703BCF7E700208646EC46002000210B
:1072B000294A9047FEE7884207D0521A05D0037842
:1072C00001300B700131013AF9D17047884202D088
:1072D00002700130FAE770470000042000E003204C
:1072E0000000042000000420C8370300BC2C00204C
:1072F000C03C0020D0730200D0730200682303005A
:10730000C8370300BC2C0020BC2C0020E423030061
:10731000E4230300E4230300E4230300E423030045
:10732000E4230300E4230300E4230300C83703003D
:10733000CC470300C03C0020C03C0020C03C0020E3
:107340009F810020A0810020A0810020A08100203A
:10735000A0A100209D73020035EF0200FEE7FEE7CA
:10736000FEE7FEE7FEE7FEE7FEE7FEE7FEE7FEE7F5
:1073700000F002B8FFF7FCBF0F484FF00701884349
:1073800085460E4880470E48016841F4700101604F
:10739000BFF34F8FBFF36F8FFFF732BF09480A4922
:1073A0000A4A884207D0521A05D0037801300B7080
:1073B0000131013AF9D170470000042011BE0200EA
:1073C00088ED00E0D0230300A82C0020BC2C002076
:1073D00084B003468DF807309DF807305B08DBB2B8
:1073E0001A460D4B9B5C8DF80F309DF8073003F06B
:1073F0000103002B04D09DF80F301B09DBB204E021
:107400009DF80F3003F00F03DBB28DF80E309DF8BE
:107410000E30184604B07047D83C002084B00346B4
:107420000A468DF8073013468DF806309DF8073070
:1074300003F00103002B01D00F2300E0F0238DF8AF
:107440000F309DF8073003F00103002B04D09DF8A6
:1074500006301B01DBB201E09DF806308DF80E30DE
:107460009DF807305B08DBB21A46114B9A5C9DF819
:1074700007305B08DBB219469DF80F301340DAB2D3
:107480000B4B5A549DF807305B08DBB21A46084B89
:107490009A5C9DF807305B08DBB219469DF80E3008
:1074A0001343DAB2024B5A5400BF04B0704700BF16
:1074B000D83C002000B585B003468DF80730002386
:1074C000039310E00F4B1A68039BDB0013440293F5
:1074D000029B1B789DF807209A4201D1029B0DE088
:1074E000039B01330393084B1B781A46039B93427B
:1074F000E8DB0649882006F021FE0023184605B087
:107500005DF804FBC03C0020C43C0020E8230300DD
:1075100000B585B003460A468DF8073013468DF84E
:1075200006309DF807301846FFF7C4FF0390039B11
:10753000002B0BD0039B5B68002B07D0039B5B6881
:107540009DF806109DF807201046984700BF05B02B
:107550005DF804FB2DE9F04F87B003460A468DF82D
:107560000F3013468DF80E309DF80F301846FFF798
:107570002FFF0346042B00F2C28001A252F823F031
:107580009575020009760200257602005576020004
:107590006B7602009DF80E30002B00F0AD809DF858
:1075A0000F3001211846FFF739FF00238DF81730FF
:1075B0000DF11703184600F063FF9DF80F104FF010
:1075C00001024FF00003A1F12004C1F1200003FAF1
:1075D00001F702FA04F4274322FA00F0074302FA03
:1075E00001F6494BD3E9002346EA020100913B43EF
:1075F0000193454BDDE90012C3E900129DF81730F5
:10760000184600F053FF77E09DF80E30002B01D0B4
:10761000022200E000229DF80F3011461846FFF7C5
:10762000FDFE6CE09DF80E30002B0CD09DF80F3065
:1076300003211846FFF7F2FE9DF80F30012118468E
:10764000FFF766FF5BE09DF80F3001211846FFF75A
:10765000E5FE54E09DF80E30002B4FD19DF80F3021
:1076600004211846FFF7DAFE48E09DF80E30002BA3
:1076700006D09DF80F3003211846FFF7CFFE3EE0FD
:107680009DF80F3000211846FFF7C8FE9DF80F3017
:1076900000211846FFF73CFF00238DF816300DF14E
:1076A0001603184600F0ECFE9DF80F104FF0010293
:1076B0004FF00003A1F12006C1F1200003FA01F50B
:1076C00002FA06F6354322FA00F0054302FA01F405
:1076D0006FEA04086FEA05090B4BD3E9002308EAB7
:1076E000020A09EA030B084BC3E900AB9DF8163008
:1076F000184600F0DBFE02E000BF00E000BF00BF64
:1077000007B0BDE8F08F00BFD03C002000B583B0CB
:107710000648074B1B685B080022194600F088FDED
:10772000019000BF03B05DF804FB00BFC02C002037
:10773000C83C002000B587B001900023059328E0E5
:107740001C4B1A68059BDB0013440493049B1B78B5
:10775000184605F0CFFF03468DF80F30049B5B7889
:10776000012B0CBF01230023DBB21A469DF80F301A
:107770009A420CBF012300238DF80E30049B1B7826
:107780009DF80E2011461846FFF7E4FE059B0133D5
:107790000593094B1B781A46059B9342D0DB074B98
:1077A000D3E90023134301D0FFF7B0FF00BF07B0B8
:1077B0005DF804FBC03C0020C43C0020D03C00200D
:1077C00000B585B001900B468DF80330019BDBB20C
:1077D0001846FFF76FFE0390039B1B78184605F0D1
:1077E00089FF03468DF80B30039B5B78012B0CBFA0
:1077F00001230023DBB21A469DF80B309A420CBFDE
:10780000012300238DF80A309DF80A30002B06D0A2
:10781000054BD3E90023134301D1FFF777FF00BFE6
:1078200005B05DF804FB00BFD03C002000B58BB074
:1078300003900B4601928DF80B30019B092B01D868
:10784000072367E005F00AFE034683F00103DBB27D
:10785000002B09D005F09EFD0990099B0893089B19
:10786000002B01D0089B55E02C4A039B13602C4A47
:107870009DF80B3013702B4A019B136020220021CE
:1078800029480AF03EFD29494FF000024FF000035D
:10789000C1E9002331E09DF80B30DB00039A13446B
:1078A000079303238DF8143000238DF815309DF8CD
:1078B00016306FF300038DF816309DF816306FF315
:1078C00041038DF816309DF816306FF382038DF862
:1078D0001630079B9B788DF81530079B1B78184650
:1078E00005AB134A194605F0C5FD0990099B06939F
:1078F000069B002B01D0069B0CE09DF80B305A1E16
:107900008DF80B20002BC6D10A4A00210A4800F04E
:1079100055FC034618460BB05DF804FBC03C002044
:10792000C43C0020C83C0020D83C0020D03C0020B3
:10793000C177020035770200E423030000B583B06D
:10794000114B1B68002B04D1104940F2351006F092
:10795000F5FB002301930CE00B4B1A68019BDB0045
:1079600013441B780121184605F000FE019B0133EA
:107970000193074B1B781A46019B9342ECD30023DB
:10798000184603B05DF804FBC03C0020E823030068
:10799000C43C002000B583B01D4B1B68002B04D1F4
:1079A0001C4940F2431006F0C9FB002301930BE091
:1079B000174B1A68019BDB0013441B78184605F02F
:1079C00059FE019B01330193134B1B781A46019B0F
:1079D0009342EDD300238DF803300DF103031846D5
:1079E00000F04EFD0D494FF000024FF00003C1E9D9
:1079F00000239DF80330184600F058FD084B184648
:107A000000F06EFC0346184603B05DF804FB00BFAF
:107A1000C03C0020E8230300C43C0020D03C0020F0
:107A2000C02C002086B003900291019201238DF8B2
:107A300017309DF81730204A039B13601E4A029BA3
:107A400053601D4A019B9360039B44F201029342E1
:107A500012D0039B44F20202934220D1019B164AAA
:107A6000D360154BDB681B68134A9361124BDB68CC
:107A70005B68114AD36112E0019B0F4A13610E4B00
:107A80001B699B680C4A53610B4B1B691B680A4AB4
:107A90009361094B1B695B68074AD36100BF72B6EB
:107AA00000BF00BF9DF81730DBB2002BFAD162B6E1
:107AB00000BF00BF06B07047F83C002000B583B09F
:107AC00002900091019244F2010071466A4600F072
:107AD00003F803B000BD00BF00B587B0039002916A
:107AE000019272B600BF039B44F20202934217D088
:107AF000039B44F20202934218D8039B44F2010212
:107B0000934210D0039B44F2010293420ED8039B90
:107B1000012B0DD0039B41F2010293420AD005E0F4
:107B2000019B059307E0019B049304E000BF02E082
:107B300000BF00E000BF084B1B6803F00103002BEF
:107B400000D000BE019A02990398FFF76BFF00BFB7
:107B500007B05DF804FB00BFF0ED00E02DE9F04355
:107B600083B0144801F07FF8034600221C461546F6
:107B7000114BD3E9002314EB020845EB0309CDE9CF
:107B800000890E4BD3E90023DDE90001904271EB3F
:107B9000030307D2DDE9002312F1807643F10007E9
:107BA000CDE90067DDE900231046194603B0BDE8C2
:107BB000F08300BFE02C0020203D0020283D002065
:107BC00088B001900091019B0793009B0693079B4F
:107BD000D3E90223CDE90423069BD3E90223CDE9AF
:107BE0000223DDE90423DDE90201904271EB030386
:107BF0002CBF01230023DBB2184608B070470000F9
:107C0000F0B585B00190019B5B69002B03D143491E
:107C1000A52006F093FA00238DF80F30404B1B7817
:107C2000002B75D0019B002B72D0FFF797FF019BB3
:107C3000D3E90223904271EB030358D300238DF85C
:107C40000D300DF10D03184600F01AFC019B1B6965
:107C5000002B06D101994FF0FF324FF0FF33C1E9FD
:107C600002239DF80D30184600F020FC019B5B6953
:107C7000019A92691046984700238DF80C3003ABA7
:107C8000184600F0FDFB019B1B69002B1AD0019BDD
:107C9000D3E90223B3F1FF3F08BFB2F1FF3F11D098
:107CA000019BD3E902230199096900200C4605468E
:107CB000161943EB0507019BC3E9026701238DF801
:107CC0000E3002E000238DF80E309DF80C3018467F
:107CD00000F0ECFB9DF80E30002B19D0019B1946EB
:107CE000104801F003FB01238DF80F3010E0019BD9
:107CF000D3E90223B3F1FF3F08BFB2F1FF3F07D042
:107D0000019B1946074801F0F1FA01238DF80F3065
:107D10009DF80F30184605B0F0BD00BF6C2403007D
:107D20001C3D00206024030030B58BB00190009111
:107D30000D230993009B00221A70019BD3E90223B3
:107D4000CDE90623FFF70AFFDDE90623141A63EBEA
:107D50000105CDE90445DDE90423012A73F100039F
:107D600018DB049BB3F5350F05D300F00BFB02467F
:107D7000144B134400E0069B03934FF49603039ABD
:107D80000021114800F062FE0990099B002B05D1EB
:107D9000012314E000210C4800F030FF099B0D2B5B
:107DA00007D10198FFF72CFF03461A46009B1A7073
:107DB00004E006494FF4867006F0C0F90023184627
:107DC0000BB030BDFFFFB400E02C00206C2403009A
:107DD00000B583B0044801F0C3FA0190019B184636
:107DE00003B05DF804FB00BF6024030000B583B05E
:107DF000044801F0D7FA0190019B184603B05DF8E2
:107E000004FB00BF6024030000B583B0FFF7E0FF70
:107E10000190019B002B06D001994FF0FF324FF0EB
:107E2000FF33C1E90223019B002BEFD100BF00BF4C
:107E300003B05DF804FB0000054BD3E9002312F109
:107E4000807043F10001024BC3E9000100BF70479D
:107E5000203D002010B582B00190124B1B68002B12
:107E60001DD0019800F0FFFE04460021019800F0AB
:107E7000EBFE03461946204600F078FA0346B3F5B8
:107E8000960F04D3084940F2411006F057F9054B0C
:107E90001B681846FFF7B4FE024B00221A6000BFB1
:107EA00002B010BD183D00206C24030000B583B063
:107EB0000190FFF753FE02460B460349C1E9002338
:107EC00000BF03B05DF804FB283D002000B587B07B
:107ED0000190FFF78BFF049000238DF81730049B6F
:107EE000002B58D0049BD3E90223B3F1FF3F08BF16
:107EF000B2F1FF3F02D1FFF76BFF54E02E4B1B683E
:107F0000002B03D101238DF817301DE0049BD3E92A
:107F10000201294B1B68D3E90223904271EB030352
:107F200012D201238DF81730234B1B68D3E90223AB
:107F3000B3F1FF3F08BFB2F1FF3F05D01E4B1B68F6
:107F400019461E4801F0D2F99DF81730002B2BD0AE
:107F5000FFF73EFF04900DF10F0319460498FFF759
:107F6000E3FE0346002B12D0134B1B68002B02D1FB
:107F7000019800F077FC104A049B13609DF80F30C5
:107F800083F00103DBB2002BA3D000BF0FE00A4B4C
:107F900000221A609DE7084B1B68002B06D1019850
:107FA00000F076FC02E094E700BF00E000BF00BFF5
:107FB00007B05DF804FB00BF183D002060240300FB
:107FC00000B587B001902B4A03AB1946104600F06C
:107FD00080FF059045E0059B1B78022B2BD0022BE0
:107FE0002FDC002B02D0012B11D02AE0059B5B680F
:107FF000D3E90223B3F1FF3F08BFB2F1FF3F22D024
:10800000059B5B6819461C4801F070F91BE0059B55
:108010005A681A4B1B689A4203D1184B00221A6007
:1080200012E0059B5B681946134801F0CFF903463F
:108030008DF8133008E0FFF7E7FE114B01221A70AC
:1080400002E000BF00E000BF0A4A03AB1946104639
:1080500000F058FF074A03AB1946104600F039FFFD
:108060000590059B002BB6D100BF00BF07B05DF89F
:1080700004FB00BF883D002060240300183D002061
:108080001C3D002000B583B00190019800F0A9FDCF
:108090000346002B01D0FFF7CFFE0021019800F02E
:1080A000BEFD0346002B02D00198FFF7D3FE01214D
:1080B000019800F0B4FD0346002B02D00198FFF7B1
:1080C000F5FE0198FFF77CFF0198FFF7FFFE00BF68
:1080D00003B05DF804FB000008B5024800F0D0FDD5
:1080E00000BF08BDE02C002000B585B0034600911C
:1080F0008DF80730114A02AB1946104600F0BCFE5D
:108100000390039B002B13D0039B9DF807201A704C
:10811000039B009A5A60094A02AB1946104600F0C8
:10812000C4FE0346002B01D0FFF7D6FF002300E07A
:108130000423184605B05DF804FB00BF883D00200D
:1081400000B583B0164B1B680093164808235822CD
:10815000154900F04AFE0190019B002B01D0019BC4
:1081600019E06B46114A1946114800F01BFB0190BB
:10817000019B002B01D0019B0DE001210C4800F078
:108180001FFD01230B4A0121094800F097FB0A4B10
:1081900001221A70019B184603B05DF804FB00BF72
:1081A000E4240300883D0020303D0020858002004B
:1081B000E02C0020FFFF7F001C3D002000B587B0B1
:1081C00003900B4601928DF80B30039B002B04D1DA
:1081D000164940F25A2005F0B1FF019B002B04D153
:1081E000124940F25B2005F0A9FF019B002B01D151
:1081F000072317E0039B1B68059305994FF0FF3297
:108200004FF0FF33C1E90223059B019A5A619DF8A3
:108210000B30012B0CBF01230023DBB21A46059B58
:108220001A610023184607B05DF804FB6C240300B4
:10823000F0B589B0039002910192039B002B04D109
:10824000264940F26B2005F079FF039B069300233B
:108250008DF817300DF11703184600F011F9069B41
:10826000D3E90223B3F1FF3F08BFB2F1FF3F11D1C1
:10827000FFF774FC02460B46029900200C460546A7
:10828000161943EB0507069BC3E9026701238DF826
:108290001F3002E000238DF81F309DF8173018467C
:1082A00000F004F99DF81F3083F00103DBB2002BCE
:1082B00001D000230EE0069B019A9A61069B1B6980
:1082C000002B02D0069B029A1A6106990020FFF744
:1082D0000BFF0346184609B0F0BD00BF6C24030035
:1082E00000B587B00190019B002B04D11E4940F2DC
:1082F000932005F023FF019B049300238DF80F309A
:108300000DF10F03184600F0BBF8049BD3E90223DC
:10831000B3F1FF3F08BFB2F1FF3F03D100238DF857
:10832000173009E004994FF0FF324FF0FF33C1E9F5
:10833000022301238DF817309DF80F30184600F006
:10834000B5F89DF8173083F00103DBB2002B01D0A4
:10835000002304E004990120FFF7C6FE03461846F7
:1083600007B05DF804FB00BF6C24030082B00190ED
:108370000091019A009BD31A23F07F43184602B064
:108380007047000008B5034800F06DFC034618462E
:1083900008BD00BFE02C002082B0EFF310830093F3
:1083A000009B019372B600BF019B184602B0704754
:1083B00062B600BF00BF704700B585B00190FFF7FF
:1083C000EBFF0390164B9B68002B1BD1144B012233
:1083D0009A60144BD3F88020134B1340104A13605B
:1083E000104B114AC3F880200E4BD3F884300C4A4E
:1083F00053600C4B4FF0FF32C3F88420019B0022E6
:108400001A7002E0019B01221A70039B002B01D11C
:10841000FFF7CEFF0023184605B05DF804FB00BF50
:108420009C3D002000E100E0FC06FFBD00B585B0EA
:1084300003468DF80730104B9B68002B16D09DF833
:108440000730002B12D1FFF7A7FF03900B4A0A4B0E
:108450001B681360094A084B5B685360064B002297
:108460009A60039B002B01D1FFF7A2FF002318465F
:1084700005B05DF804FB00BF9C3D002000E100E07A
:1084800000B583B0019000F02BF80346012B03D018
:108490000549432005F052FE0198FFF78DFF00BF0C
:1084A00003B05DF804FB00BFE824030000B583B00F
:1084B00003468DF8073000F013F80346012B03D074
:1084C0000649512005F03AFE9DF807301846FFF79F
:1084D000ADFF00BF03B05DF804FB00BFE82403005C
:1084E00084B0EFF305830193019BC3F30803039367
:1084F000039B002B0DD1EFF314830093009B029399
:10850000029B03F00103002B0CBF01230023DBB20D
:1085100000E00123184604B07047000082B0034613
:108520008DF807309DF90730002B0CDB9DF80730E4
:1085300003F01F0205499DF907305B09012000FA8D
:1085400002F241F8232000BF02B0704700E100E0D2
:1085500082B003468DF807309DF90730002B0DDB04
:108560009DF8073003F01F0206499DF907305B09AB
:10857000012000FA02F2403341F8232000BF02B08C
:10858000704700BF00E100E082B0034600918DF823
:1085900007309DF90730002B0ADB009BDAB20C494B
:1085A0009DF907305201D2B20B4483F800230BE04F
:1085B000009BDAB207499DF8073003F00F03043B34
:1085C0005201D2B20B441A7600BF02B0704700BF0E
:1085D00000E100E000ED00E000B583B003460A468C
:1085E0008DF8073013468DF806309DF80630012BC4
:1085F00003D99DF80630032B0BD99DF80630042BC8
:1086000003D99DF80630072B03D908496B2005F0E4
:1086100095FD9DF806209DF9073011461846FFF795
:10862000B3FF00BF03B05DF804FB00BF6825030083
:1086300000B583B003468DF807309DF90730184622
:10864000FFF76CFF00BF03B05DF804FB00B585B019
:108650000190019B002B0AD0074B43F001030393C9
:10866000019B9B010293039B0298984700E000BF87
:1086700005B05DF804FB00BFC026030084B0039082
:1086800002910192039B029A02F5A872019943F8A4
:10869000221000BF04B0704782B001900091019B8E
:1086A000009A02F5A87253F82230184602B07047BB
:1086B00082B001900091019B009AC3F8042300BF8F
:1086C00002B0704782B001900091019B009AC3F8FC
:1086D000082300BF02B0704782B001900B46ADF88E
:1086E0000230BDF80230019A13441B68184602B0EC
:1086F000704784B001900B46ADF80230BDF80230EF
:10870000019A134400221A60BDF80230019A134402
:108710001B680393039B00BF04B0704782B00190B5
:10872000019BD3F80435184602B0704700B583B0FA
:1087300001900091009BB3F5805F04D306494FF48C
:10874000BE7005F0FBFC019B009AC3F8082500BF32
:1087500003B05DF804FB00BFD425030082B0019094
:108760000B468DF803309DF80320019B13441A46F5
:108770000123136000BF02B0704782B001900091E6
:10878000019B009AC3F8442300BF02B0704782B037
:1087900001900091019B009AC3F8482300BF02B0EA
:1087A0007047000000B587B0039002910192039BCF
:1087B000002B03D12849552005F0C0FC029B002B5B
:1087C00003D12549562005F0B9FC019B002B03D1AC
:1087D0002149572005F0B2FC039B5B7919461F4ADB
:1087E000019B42F82130039B5B791D4ADB00134457
:1087F0001B79002B03D008230593059B27E0039BDF
:108800001A68029B1B8819461046FFF78FFF039BCF
:1088100093F90420029B9B7819461046FFF7DCFE73
:10882000039B93F904301846FFF702FF039B5B7923
:108830000B4ADB00134401221A71039B5B79194632
:10884000074A039B42F8313000230593059B1846E5
:1088500007B05DF804FB00BF40260300A83D0020E0
:10886000AC3D002000B583B00190019B002B03D1EB
:108870000649872005F062FC019B1B680021184611
:10888000FFF76CFF00BF03B05DF804FB4026030058
:1088900000B583B00190019B002B03D106498D20C8
:1088A00005F04CFC019B1B6804211846FFF756FF9E
:1088B00000BF03B05DF804FB4026030000B587B09D
:1088C0000390029101928DF80330039B002B03D19A
:1088D0002149962005F032FC4FF48032029B02FAC7
:1088E00003F30593029B50339BB29B00ADF812300B
:1088F000019B23F07F430193039B1B680599184656
:10890000FFF7E0FE039B1B6805991846FFF73FFF42
:10891000039B1B68BDF8122011461846FFF7E9FEBD
:10892000039B1B68019A02991846FFF7A7FE039B59
:108930001B6805991846FFF720FF9DF80330002BB0
:1089400005D0039B1B6805991846FFF7B1FE00BFD1
:1089500007B05DF804FB00BF4026030000B585B0FA
:108960000390029113468DF80730039B002B03D12F
:108970000B49A92005F0E2FB039B1B6802991846EE
:10898000FFF7FBFE9DF80730002B05D0039B1B680B
:1089900002991846FFF78CFE00BF05B05DF804FB96
:1089A0004026030000B583B001900091019B002B8D
:1089B00003D10A49B32005F0C1FB019B1B68009954
:1089C0001846FFF7E4FE019B1B6800991846FFF765
:1089D00079FE00BF03B05DF804FB00BF4026030032
:1089E00000B583B001900B46ADF80230019B002B1F
:1089F00003D10F49BA2005F0A1FB019B1B68BDF80C
:108A0000022011461846FFF767FE0346002B09D0E7
:108A1000019B1B68BDF8022011461846FFF769FE4E
:108A2000012300E00023184603B05DF804FB00BFFB
:108A30004026030082B001900091019A009BD31A56
:108A400023F07F43184602B07047000000B58BB09A
:108A50000390029101920093039B002B03D157498D
:108A6000CD2005F06BFB4FF48032029B02FA03F33A
:108A70000993029B50339BB29B00ADF82230019BBF
:108A800023F07F43019309990398FFF78BFF039B22
:108A90001B681846FFF742FE0790039B1B6802996C
:108AA0001846FFF7F9FD0690039B1B68079A029989
:108AB0001846FFF7E3FD039B1B68BDF82220114613
:108AC0001846FFF716FE07990698FFF7B3FF03460F
:108AD000012B0AD11020FFF7B9FD039B1B68BDF8DD
:108AE000222011461846FFF704FE039B1B68184618
:108AF000FFF714FE079007990198FFF79BFF059079
:108B0000039B1B6809991846FFF737FE059B012B4D
:108B100015D1039B1868019B01331A460299FFF790
:108B2000ADFD1020FFF792FD039B1B681846FFF771
:108B3000F5FD0246079B934235D00D2339E0039B98
:108B40001B68019A02991846FFF798FD039B1B6862
:108B50001846FFF7E3FD0790019B013B0799184674
:108B6000FFF768FF0590009BC3F1FF1303F57F43F8
:108B7000059A9A4201D90D231BE0059B002B12D1C7
:108B8000039B1868019B01331A460299FFF776FD93
:108B9000039B1B681846FFF7C1FD0246079B9342E3
:108BA00001D00D2305E0012209990398FFF7D6FEB5
:108BB000002318460BB05DF804FB00BF40260300FD
:108BC00000B583B001900B468DF803309DF803305B
:108BD0001A4602210198FFF7C1FE00BF03B05DF8FD
:108BE00004FB00B583B001904FF482710198FFF748
:108BF000F7FE0346184603B05DF804FB00B583B0EA
:108C0000019000914FF48032009B02FA03F3194661
:108C10000198FFF7C7FE00BF03B05DF804FB00B585
:108C200085B001900091009B50339BB29B00ADF842
:108C30000E30BDF80E3019460198FFF7D1FE0346FD
:108C4000184605B05DF804FB00B583B001900091B3
:108C5000019B1B6800991846FFF71EFD0346184646
:108C600003B05DF804FB00B583B00190019B1B6865
:108C70001846FFF753FD0346184603B05DF804FBA2
:108C800000B583B00190019B93F904301846FFF7BB
:108C90005FFC00BF03B05DF804FB000008B5044BA7
:108CA0001B68044A12681046984700BF08BD00BF01
:108CB000A83D0020AC3D002086B001900091019BB2
:108CC00053E8011F8AB2D88902449889824228BF9A
:108CD000121A1889824202BFBFF32F8F002307E0C8
:108CE000C2EA010243E801200028E9D14FF0010364
:108CF0008DF80F30059002910492029A009B1A6041
:108D00009DF80F30DBB2184606B0704784B0019072
:108D1000019951E8013FC3EA034341E80132002AC7
:108D2000F7D10392029300BF04B0704786B0019060
:108D30000091019B53E8021F1FFAA1F2D8888242DA
:108D400002BFBFF32F8F00230DE0D889024498891A
:108D5000824228BF121AC1EA024243E802200028D8
:108D6000E8D14FF001038DF80F3005900291049285
:108D7000029A009B1A609DF80F30DBB2184606B0CD
:108D8000704784B00190019951E8023FC3EA234340
:108D900041E80232002AF7D10392029300BF04B0E7
:108DA000704786B00190019B53E8021FDA88B1EB4F
:108DB000314F4FF0000017BF89B242EA024241EA48
:108DC000024204E05968B1EB314F08BF012043E88B
:108DD00002210029E8D18DF80F00059104929DF839
:108DE0000F30DBB2184606B0704784B00390029192
:108DF00011461A460B46ADF806301346ADF804305E
:108E0000029B002B01D10E231FE0BDF80630BDF8F8
:108E10000420B3FBF2F101FB02F29B1A9BB2002B80
:108E200001D0092311E0039B029A1A60039B0022E0
:108E30005A60039B00229A60039BBDF806209A812A
:108E4000039BBDF80420DA810023184604B0704764
:108E500000B585B001900198FFF7A3FF03468DF898
:108E60000F309DF80F30002B01D0002300E01123BC
:108E7000184605B05DF804FB00B585B0019000917F
:108E8000009B19460198FFF717FF0346002B07D0F8
:108E9000019B1B68009A128813440393039B00E014
:108EA0000023184605B05DF804FB00B583B00190BF
:108EB0000091009B1A88009B5B889A4204D101981C
:108EC000FFF724FF012300E00023184603B05DF8FC
:108ED00004FB00B585B001900091009B19460198F4
:108EE000FFF724FF0346002B07D0019B1B68009A65
:108EF000528813440393039B00E00023184605B0F7
:108F00005DF804FB00B583B001900091009B1A88C6
:108F1000009B5B889A4204D10198FFF732FF01233E
:108F200000E00023184603B05DF804FB00B585B0EF
:108F300001900091009B5B099B00019A1A44009BE1
:108F400003F01F03012101FA03F31946104600F054
:108F50004EF8039000BF05B05DF804FB00B585B086
:108F600001900091009B5B099B00019A1A44009BB1
:108F700003F01F03012101FA03F3DB4319461046F6
:108F800000F04DF8039000BF05B05DF804FB82B01F
:108F900001900091009B5B099B00019A13441A68A1
:108FA000009B03F01F0322FA03F303F00103002BDD
:108FB00014BF01230023DBB2184602B0704710B47F
:108FC00087B001900091019B009A53E8004F44EA5A
:108FD000020043E8000191F0000FF6D105940490DF
:108FE0000391059B184607B05DF8044B704710B419
:108FF00087B001900091019B009A53E8004F44EA2A
:10900000020043E8000191F0000FF6D105940490AE
:109010000391049B184607B05DF8044B704710B4E9
:1090200087B001900091019B009A53E8004F04EA39
:10903000020043E8000191F0000FF6D1059404907E
:109040000391049B184607B05DF8044B704710B4B9
:1090500087B001900091019B009A53E8004F04EB08
:10906000020043E8000191F0000FF6D1059404904E
:109070000391059B184607B05DF8044B704710B488
:1090800087B001900091019B009A53E8004F04EBD8
:10909000020043E8000191F0000FF6D1059404901E
:1090A0000391049B184607B05DF8044B704710B459
:1090B00087B001900091019B009A53E8004FA4EB08
:1090C000020043E8000191F0000FF6D105940490EE
:1090D0000391049B184607B05DF8044B704700B538
:1090E00083B0019001210198FFF769FF03461846FC
:1090F00003B05DF804FB000082B003468DF8073032
:109100009DF90730002B0DDB9DF8073003F01F029F
:1091100006499DF907305B09012000FA02F260332D
:1091200041F8232000BF02B0704700BF00E100E01B
:1091300000B583B00190019B002B03D1064972203A
:1091400004F0FCFF019B00221A60BFF35F8F00BF99
:1091500000BF03B05DF804FB5C27030041DF7047EC
:1091600000BF184600B585B000238DF807300DF11B
:1091700007031846FFF784F9F1EE103A0393039BB7
:1091800023F09F030293029BE1EE103A00BFBFF36E
:109190005F8F00BF2620FFF7AFFF9DF8073018460E
:1091A000FFF784F9039B03F00703002B03D0044966
:1091B0007D2004F0C3FF00BF05B05DF804FB00BFD5
:1091C000D027030008B5064B00221A700548FFF7A8
:1091D000AFFF0549054800F02DF80023184608BDEB
:1091E000B83D0020B43D00204C280300BC3D0020C9
:1091F00000B583B0FFF7B6FF08F006FC0346002B6E
:109200000ED0FFF7ABFF0190019B002B0BD0019B11
:10921000022B08D006494FF4B07004F08FFF02E033
:1092200020BF40BF20BF00BF03B05DF804FB00BFFC
:10923000D027030000B583B001900091019B002B63
:1092400003D11049502004F079FF009B002B03D17B
:109250000C49512004F072FF019B009A1A60019B97
:109260001B681A68019B5A60019B5A68019B1B6826
:109270005B689A4202D1019B00225A6000BF03B092
:109280005DF804FB5828030000B583B00190019BF2
:10929000002B03D11449632004F050FF019B1B688D
:1092A000002B03D11049642004F048FF019B5B6848
:1092B000002B14D0019B5B681A46019B1B689B68BE
:1092C00013441A46019B5A60019B5A68019B1B6814
:1092D0005B689A4204D1019B00225A6000E000BF03
:1092E00003B05DF804FB00BF5828030000B585B04B
:1092F00001900091019B002B03D118493A2004F002
:109300001DFF009B002B03D114493B2004F016FFE6
:10931000019B5B6803930FE0019B9B68039A1268B3
:10932000009910469847034683F00103DBB2002BF7
:1093300007D1039B1B680393039B1B68002BEBD196
:1093400000E000BF039B1A68009B1A60039B009A11
:109350001A6000BF05B05DF804FB00BFEC280300F5
:1093600000B585B00190019B002B03D10C49512021
:1093700004F0E4FE019B5B681B680393019B5B6840
:109380001B68002B06D0019B5B681A68019B5B6819
:1093900012681A60039B184605B05DF804FB00BF15
:1093A000EC28030000B583B00190019B002B03D192
:1093B00005495D2004F0C2FE019B5B681B681846EE
:1093C00003B05DF804FB00BFEC28030000B585B0D6
:1093D00001900091019B002B03D11649692004F0F4
:1093E000ADFE009B002B03D112496A2004F0A6FEBB
:1093F00000238DF80F30019B5B6802930FE0029B06
:109400001B68009A9A4207D1009B1A68029B1A6057
:1094100001238DF80F3006E0029B1B680293029B2C
:109420001B68002BEBD19DF80F30184605B05DF896
:1094300004FB00BFEC28030082B00190019B03F005
:109440000303002B0CBF01230023DBB2184602B03C
:109450007047000000B585B00190002303930EE033
:109460000B4A039B52F82330002B05D0084A039B7C
:1094700052F8233001989847039B01330393039BD1
:10948000032BEDD900BF00BF05B05DF804FB00BFA2
:10949000D43D002082B001900091019B1B78013BDC
:1094A000052B61D801A252F823F000BFC594020039
:1094B000CD940200F3940200259502004595020028
:1094C00061950200009B00221A704EE0009B012271
:1094D0001A70019B1A89009B9A81019B9A88009BB4
:1094E000DA81019BDA68009B9A60009B00221A7463
:1094F0003BE0009B02221A70019B1A89009B9A8113
:10950000019B9A88009BDA81019BDA68009B9A6034
:10951000019B9B7D062B0CBF01230023DAB2009B2D
:109520001A7422E0009B03221A70019BDA88009BC8
:109530009A81019B1A89009BDA81019BDA68009B62
:109540009A6012E0009B04221A70019BDA88009B4B
:109550009A81009B0022DA81009B00229A6004E03D
:10956000009B05221A7000E000BF00BF02B07047E8
:1095700084B001900091019B0393039A009B9A424F
:1095800006D2039B1B68B3F1FF3F01D0012300E02B
:10959000002303F00103DBB2184604B0704782B029
:1095A0000190019B5B8803339B00019A134418468A
:1095B00002B0704700B583B0019000910198FFF7A9
:1095C000EEFF0246009B934201D2022311E0019B71
:1095D0009B884FF6FF72934208D0019B1B88002B9B
:1095E00004D0019B9B68B3F1FF3F01D1012300E050
:1095F0000023184603B05DF804FB000000B583B0FB
:109600000190019B002B13D00D4BDB681A46019B88
:1096100093420DD30A4B1B691A46019B934207D80C
:109620000198FFF709FF0346002B01D0012300E05A
:10963000002303F00103DBB2184603B05DF804FB1E
:10964000A82C002082B00190019B002B04D0019B2C
:109650001B680B4A934201D003230DE0019B0433A6
:109660001B68084A934204D0074A934203D101235E
:1096700002E0002300E00323184602B0704700BF59
:10968000DEC0ADDEFE011EF1FF011EF184B00190CF
:10969000019B1B68B3F1FF3F06D0019B1B680E4A7C
:1096A000934201D0002314E0012303930CE0039BB9
:1096B0009B00019A13441B68B3F1FF3F01D00023C4
:1096C00007E0039B01330393039BB3F5806FEED355
:1096D0000123184604B07047DEC0ADDE82B00346F9
:1096E0000A46ADF806301346ADF80430BDF8062042
:1096F000134913469B0013449B000B4408331A88FC
:10970000BDF804301344ADF80430BDF806200C4910
:1097100013469B0013449B000B440A331A88BDF880
:1097200004301344ADF80430BDF80430B3F5806F55
:1097300094BF01230023DBB2184602B0704700BF7C
:10974000843E002084B00190009148F209630393A5
:109750000023ADF80A3027E0BDF80A201649134669
:109760009B0013449B000B4404331B68009A9A42ED
:1097700015D9BDF80A20104913469B0013449B00DD
:109780000B4404331B6803F58053009A9A4206D2B7
:1097900000230393019BBDF80A201A8008E0BDF85E
:1097A0000A300133ADF80A30BDF80A30122BD3D994
:1097B000039B184604B07047843E002000B589B072
:1097C000039002910192039B03F580530693039B40
:1097D00008330393029B02221A80039B079332E013
:1097E00006990798FFF7E6FE03468DF817309DF8B7
:1097F0001730002B0AD1079B9A68184B1B689A42B6
:1098000013D9079B9B68154A13600EE0019B002B40
:1098100002D0019B01221A709DF81730022B04D14F
:10982000029B4FF480621A8014E0029B1A88079B07
:109830005B8813449BB203339AB2029B1A80079849
:10984000FFF7ADFE079006990798FFF791FE0346D4
:10985000002BC5D109B05DF804FB00BFE43D00203A
:1098600082B001900091009B9B7D022B09D9019B46
:109870001A89009BDB8813449BB203339AB2019B85
:109880001A81019B5A89009BDB88D31A9BB2033B48
:109890009AB2019B5A8100BF02B0704700B583B0F5
:1098A000074B1B681946002300930823054A064806
:1098B00002F00FF80346184603B05DF804FB00BF42
:1098C00000400020D8290300A82C002000B585B056
:1098D00003900399002300930823044A044801F0ED
:1098E000F8FF0346184605B05DF804FBE0290300C5
:1098F000A82C002000B585B003460091ADF80630D5
:1099000000238DF80F30BDF806300333ADF80A3070
:10991000BDF80A3040F2FE32934202D948F20863A1
:109920004BE00023ADF80C303BE0BDF80C2025499E
:1099300013469B0013449B000B441B78002B2BD138
:10994000BDF80A20BDF80C3011461846FFF7C6FED8
:109950000346002B20D001238DF80F30009BBDF86B
:109960000C201A80BDF80C20164913469B001344A6
:109970009B000B440A331988BDF80C20BDF80A304F
:109980000B4498B20F4913469B0013449B000B44B1
:109990000A3302461A8008E0BDF80C300133ADF8F6
:1099A0000C30BDF80C30122BBFD99DF80F30002BB6
:1099B00001D0002301E048F20663184605B05DF8C7
:1099C00004FB00BF843E002082B003460A46ADF887
:1099D00006301346ADF80430BDF804200D49134697
:1099E0009B0013449B000B440A331A88BDF80630D1
:1099F000D31A9BB2BDF80420033B98B20549134625
:109A00009B0013449B000B440A3302461A8000BF9C
:109A100002B07047843E002008B501210248FFF7DC
:109A20002EFB0346184608BDE43D002000B585B076
:109A300003460091ADF80630BDF8062024491346D0
:109A40009B0013449B000B4404331B6803F58053B5
:109A50000293009B1B680393039B002B04D0039885
:109A6000FFF79DFD039026E0BDF806201849134638
:109A70009B0013449B000B4404331B68083303937F
:109A800019E002990398FFF795FD0346022B10D0C9
:109A9000022B10DC002B02D0012B05D00BE0009B29
:109AA000039A1A6001230EE00398FFF778FD0390F4
:109AB00001E0002307E002990398FFF759FD0346F0
:109AC000002BDED10023184605B05DF804FB00BF73
:109AD000843E002000B585B001900091019B5B6839
:109AE0001846FFF78BFD0346002B19D0019B1A89FE
:109AF000244B1B899A4213D1019B1A68019B5B6816
:109B00009B689A420CD1019B5B6819460098FFF74D
:109B100019FE0346002B0CBF01230023DBB22CE00F
:109B2000009B00221A8023E00023029310E0029B96
:109B30000393039B9A68019B1B689A4208D1029A7F
:109B4000019B5A600F4B1A89019B1A81012314E073
:109B5000009B1B8802AA11461846FFF767FF0346C1
:109B6000002BE4D1009B1B8801339AB2009B1A8022
:109B7000009B1B88122BD7D90023184605B05DF82F
:109B800004FB00BF0840002000B587B0039002919D
:109B900001920093324B1B78DBB283F00103DBB2FE
:109BA000002B02D048F2016355E0019B002B02D04C
:109BB000009B002B49D148F204634CE0009B9B883A
:109BC0001946284A0B469B000B449B0013441B7804
:109BD000002B33D124E0009B1B680593039B002BD3
:109BE00006D0059B9A88039B1B889A4200D017E0F9
:109BF000029B002B06D0059B1A88029B1B889A4269
:109C000000D00DE0059B9A68019B1A60009B1A68C2
:109C1000019B5A60144B1A89019B1A8100231AE098
:109C2000009B9B88009A11461846FFF7FFFE0346EB
:109C3000002BD0D1009B00221A6000E000BF009BE7
:109C40009B8801339AB2009B9A80009B9B88122BC1
:109C5000B4D948F20963184607B05DF804FB00BFA9
:109C6000C43D0020843E00200840002000B587B09D
:109C70000291019200930346ADF80E30BDF80E201C
:109C8000324913469B0013449B000B4404331B686A
:109C900008330593BDF80E202C4913469B0013444E
:109CA0009B000B4404331B6803F58053049342E08C
:109CB00004990598FFF77EFC0346022B25D0022B62
:109CC00038DC002B16D0012B34D1019B1B880133CB
:109CD0009AB2019B1A80009B1A88059B5B881344EB
:109CE0009BB203339AB2009B1A800598FFF757FC8A
:109CF000059020E0029B1B8801339AB2029B1A80D8
:109D00000598FFF74CFC059015E0019B1B8801337B
:109D10009AB2019B1A80009B1A880499059BCB1A62
:109D20009B109BB213449AB2009B1A80089B01229D
:109D30001A7007E000BF04990598FFF719FC034665
:109D4000002BB5D107B05DF804FB00BF843E0020B6
:109D500000B585B00190084B01991846FFF78CF8C3
:109D600003901C220021039808F0CBFA039B1846AD
:109D700005B05DF804FB00BF743E002000B583B061
:109D80000190044B01991846FFF78FF800BF03B00C
:109D90005DF804FB743E002000B583B00190054BD4
:109DA00001991846FFF795F80346184603B05DF889
:109DB00004FB00BF743E002000B583B00190044B4B
:109DC00001991846FFF79EF800BF03B05DF804FB49
:109DD000743E002008B50A4B1B68002B04D10949CA
:109DE0004FF4247004F0AAF901210548FFF75FF948
:109DF0000346002B14BF01230023DBB2184608BD25
:109E0000CC3D00206829030000B587B000230593EE
:109E10000023ADF812301423ADF8103000238DF874
:109E20000F300023ADF80C30F7E0BDF80C301A030A
:109E3000824BDB68134402930298FFF703FC03464E
:109E40008DF807309DF80730032B08D0032B00F363
:109E5000DE80002B65D0012B00F09880D7E00298BF
:109E6000FFF714FC0346002B3BD0754B1B68002BFF
:109E700029D0BDF81220734913469B0013449B0060
:109E80000B4402221A70BDF812206E4913469B0043
:109E900013449B000B440433029A1A60BDF812204D
:109EA000684913469B0013449B000B44083302226D
:109EB0001A80654ABDF812305380BDF81230013364
:109EC000ADF8123008E05E4A029B13605C4B022240
:109ED0009A8001238DF80F30059B43F00103059311
:109EE00096E0BDF81030013BADF81030BDF81220FF
:109EF000544913469B0013449B000B440433029ABD
:109F00001A60BDF812204F4913469B0013449B0072
:109F10000B4403221A70BDF812300133ADF8123031
:109F200076E0BDF81220474913469B0013449B007E
:109F30000B4400221A70BDF81220424913469B00C0
:109F400013449B000B440433029A1A60BDF812209C
:109F500013469B0013449B0008333A4A9918BDF8F6
:109F6000122013469B0013449B001033354A1344C0
:109F70001A460298FFF722FC059B43F00203059363
:109F8000BDF812300133ADF8123041E09DF80F30CA
:109F9000002B29D0BDF812202A4913469B001344F8
:109FA0009B000B4402221A70BDF81220244B196842
:109FB000244813469B0013449B0003440433196058
:109FC000BDF812201F4913469B0013449B000B440D
:109FD000083302221A801C4ABDF812305380BDF8A3
:109FE00012300133ADF81230154A029B1360002283
:109FF00016490298FFF7E2FB114B9B88022B01D117
:10A00000042300E00823059A1343059300E000BFF2
:10A01000BDF80C300133ADF80C30BDF80C30132B0B
:10A020007FF603AFBDF81030012B01D80023059354
:10A03000059BDBB2184607B05DF804FBA82C002096
:10A0400000400020843E0020084000200440002002
:10A0500000B587B003900291039B02229A75029982
:10A06000039B1A1D002300930423074801F031FCD1
:10A070000590059B002B01D1002301E048F20D6300
:10A08000184607B05DF804FBA82C002000B587B087
:10A0900003900291039B1B69002B01D0032200E077
:10A0A0000122039B9A75029B08331946039B03F117
:10A0B0000C02002300930423074801F00AFC0590DA
:10A0C000059B002B01D1002301E048F20D631846E7
:10A0D00007B05DF804FB00BFA82C002000B587B0D6
:10A0E00003900291039B1B78032B01D1052200E012
:10A0F0000622039B9A75029B04331946039B03F1C6
:10A100000802002300930423074801F0E2FB0590B6
:10A11000059B002B01D1002301E048F20D63184696
:10A1200007B05DF804FB00BFA82C002000B587B085
:10A1300003900B46ADF80A300399002300930423E3
:10A140000D4A0E4801F0C5FB0590059B002B02D07F
:10A1500048F20D630BE0BDF80A20094913469B0045
:10A1600013449B000B44103301221A70002318463D
:10A1700007B05DF804FB00BFE8290300A82C00200D
:10A18000843E002000B589B0019002AB00221A6025
:10A190005A609A60019BDB6802930DF1160202ABD4
:10A1A00011461846FFF796FC0346002B12D0039B7E
:10A1B0000693069B9A88019BDA80069B1A88019B6E
:10A1C0001A81039BBDF8162011461846FFF7AEFF13
:10A1D000079002E048F209630793079B184609B00D
:10A1E0005DF804FB00B587B00190019B981D02AAA1
:10A1F0000D4B0021FFF7C8FC0590059B002B08D1F3
:10A20000039B094A928811461846FFF78FFF059075
:10A2100004E008220021044808F073F8059B184662
:10A2200007B05DF804FB00BF2840002000B587B0F0
:10A2300003900291039B01229A75029B0C331846EE
:10A24000039B1A69039BDB889B0000210091014658
:10A25000074801F03EFB0590059B002B01D1002330
:10A2600001E048F20D63184607B05DF804FB00BF3B
:10A27000A82C002082B0184B1B8901339AB2164BD0
:10A280001A81154B00225A80134B00225A77002363
:10A29000ADF8063018E0BDF80620104913469B00C3
:10A2A00013449B000B441A78BDF80630002A0CBFFB
:10A2B00001220022D1B2084A13440A469A72BDF81C
:10A2C00006300133ADF80630BDF80630122BE2D966
:10A2D00000BF00BF02B0704708400020843E00204D
:10A2E00084B0019000238DF80F300023ADF80C30BE
:10A2F00031E0BDF80C301C4A13449B7A002B25D06A
:10A30000BDF80C30184A134400229A72BDF80C2094
:10A31000164913469B0013449B000B440C331B68E7
:10A32000002B13D1BDF80C20104913469B00134499
:10A330009B000B4410331B78002B07D0019BBDF80A
:10A340000C201A8001238DF80F3008E0BDF80C3086
:10A350000133ADF80C30BDF80C30122BC9D99DF883
:10A360000F30184604B0704708400020843E00209B
:10A3700008B5084B05221A70074B02229A80064B3B
:10A380001B68194600230122044801F0F3FA034632
:10A39000184608BD0840002000400020A82C0020DE
:10A3A00000B583B0164B5B88ADF80230BDF80220D3
:10A3B000144913469B0013449B000B440C331B6849
:10A3C000002B14D10E4B04221A70BDF802200D4947
:10A3D00013469B0013449B000B4404331B6819462F
:10A3E00000230122084801F0C5FA019002E0FFF7BE
:10A3F000BFFF0190019B184603B05DF804FB00BF4E
:10A4000008400020843E0020A82C002000B587B022
:10A41000104B5B680593104B1A680F4B9B889B0091
:10A4200013440493059B5B880333ADF80E30094B4E
:10A4300003221A700499074B5A68BDF80E309B002E
:10A4400000200090054801F044FA0346184607B082
:10A450005DF804FB0840002000400020A82C0020EC
:10A4600000B583B00A4B5B880A491846FFF7DEFA4D
:10A470000346002B03D0FFF7C9FF019002E0FFF76E
:10A480008FFF0190019B184603B05DF804FB00BFED
:10A49000084000200C40002008B50A4B06221A7024
:10A4A000084B5B881946084A0B469B000B449B00EF
:10A4B000134404331B681846FFF708FA034618468E
:10A4C00008BD00BF08400020843E002008B5054BB1
:10A4D00007221A70034B00225A60FFF7DFF9034688
:10A4E000184608BD0840002008B50D48FFF7F8FEE3
:10A4F000034683F00103DBB2002B0BD0094B002293
:10A500001A70084B00225A80064B00225A6041F60E
:10A510001D5302E0FFF7A4FF0346184608BD00BF25
:10A520000A4000200840002082B0094B5B6801937C
:10A53000019B5B880333ADF80230064B9A88BDF867
:10A54000023013449AB2034B9A8000BF02B07047A6
:10A55000084000200040002082B01E4B1B68019381
:10A560001D4B5B8819461D4A0B469B000B449B0004
:10A57000134404331B68174A1360174B5B88194652
:10A58000164A0B469B000B449B0013440433019A6C
:10A590001A60114B5B8819460E4B98880F4A0B4680
:10A5A0009B000B449B001344083302461A80094B5E
:10A5B00002229A80084B5B881946084A0B469B008A
:10A5C0000B449B001344103300221A7000BF02B0EA
:10A5D000704700BF0040002008400020843E00205B
:10A5E00008B51A4B1B78072B2CD801A252F823F080
:10A5F00011A6020045A6020045A602001DA6020003
:10A6000029A6020035A6020035A602003DA60200DA
:10A61000FFF730FE0D4B01221A7014E0FFF784FFA4
:10A620000A4B02221A700EE0FFF796FF074B062234
:10A630001A7008E0054B07221A7004E0034B012250
:10A640001A7000E000BF00BF08BD00BF0840002036
:10A6500000B587B00190009148F20E630593019B0D
:10A66000002B05D0624B00225A604FF40643BAE03B
:10A67000009B1B79032B00F2A98001A252F823F062
:10A6800091A602009FA602002DA702004DA702007E
:10A69000009B01221A71FFF701F9059099E0002350
:10A6A0008DF813300023ADF810302BE0BDF81020EA
:10A6B000504913469B0013449B000B441B78022B0C
:10A6C0001BD1BDF810204B4913469B0013449B003F
:10A6D0000B4400221A7001238DF81330BDF81020AE
:10A6E000444913469B0013449B000B4404331B68EE
:10A6F0001846FFF7EBF8059008E0BDF8103001337D
:10A70000ADF81030BDF81030122BCFD99DF81330B2
:10A7100083F00103DBB2002B5AD0354B01221A70B3
:10A72000334B00225A6041F61D535CE0009B00222F
:10A730001A71314B02229A802F4B1B681946002355
:10A7400001222E4801F016F9059042E0009B0022FC
:10A750001A712B4B5B88ADF80E30274B1B680293A8
:10A76000BDF80E20234913469B0013449B000B4465
:10A7700004331B68204A1360BDF80E201D491346A0
:10A780009B0013449B000B440433029A1A60BDF8EB
:10A790000E20194B9888174913469B0013449B00C1
:10A7A0000B44083302461A80134B02229A80BDF8EC
:10A7B0000E20104913469B0013449B000B440022BB
:10A7C0001A700298FFF782F8059002E000BF00E0DF
:10A7D00000BF059B002B05D0054B00225A6048F2B4
:10A7E0000D6300E00023184607B05DF804FB00BFCE
:10A7F000C43D0020843E002000400020A82C002002
:10A800000840002000B587B001900091009B9B8A12
:10A810001A4613469B0013449B003B4A134404937F
:10A82000019B002B06D000990498FFF719F84FF40C
:10A83000064364E0049B5A68049B1B899B001344F5
:10A840000393009B9B7D062B4DD801A252F823F069
:10A8500095A80200B9A80200A1A80200ADA80200B4
:10A860006DA80200C5A80200DFA80200274B002245
:10A870005A60009B9B69254A136025492348FFF7CE
:10A8800029F9034683F00103DBB2002B02D048F222
:10A89000096334E003990098FFF7DAFB059026E09E
:10A8A00003990098FFF7F2FB059020E003990098C8
:10A8B000FFF7BCFC05901AE003990098FFF70EFC27
:10A8C000059014E0009B06229A75104B5B68104AB5
:10A8D000128811461846FFF729FC059007E041F65B
:10A8E0001D53059303E048F20E63059300BF059BDB
:10A8F000002B03D000990498FEF7B2FF059B184681
:10A9000007B05DF804FB00BF843E0020304000200B
:10A910003C40002000B585B001900091019B002BC8
:10A9200002D04FF4064329E0009B1B79022B1BD079
:10A93000022B1DDC002B02D0012B08D018E0009B5D
:10A9400002221A710098FFF71DFC039015E0009891
:10A95000FFF748FC0390039B48F2096293420BD136
:10A9600041F61D53039307E041F61D53039304E0A2
:10A9700048F20E63039300E000BF039B184605B046
:10A980005DF804FB00B585B00190019B002B02D05F
:10A990004FF406433DE0214B5B7F002B03D01F4B60
:10A9A00000225A7701E0FFF71BFE1C4B1B78013B8E
:10A9B000062B29D801A252F823F000BFD9A9020022
:10A9C000E1A90200E9A90200F1A9020009AA020016
:10A9D000F9A9020001AA0200FFF786FD039017E023
:10A9E000FFF73EFD039013E0FFF710FD03900FE02B
:10A9F000FFF7D6FC03900BE0FFF74EFD039007E056
:10AA0000FFF764FD039003E048F20E63039300BF79
:10AA1000039B184605B05DF804FB00BF084000200A
:10AA200000B589B00190404B1B68002B05D13F4811
:10AA3000FFF7B2F903463C4A13603B4B1B68002BFF
:10AA400004D13B494FF4B46003F078FB364B1B68EC
:10AA50001B78013B052B2CD801A252F823F000BF34
:10AA600079AA020089AA020089AA020099AA020012
:10AA700099AA0200A9AA02002B4B1B68194601984B
:10AA8000FFF7E6FD019018E0274B1B681946019877
:10AA9000FFF7B8FE019010E0234B1B6819460198A0
:10AAA000FFF738FF019008E00198FFF76BFF019076
:10AAB00003E048F20E63019300BF019B002B2BD0F3
:10AAC00003AB00221A605A609A60DA601A61019B37
:10AAD00041F61D52934201D0019B00E000230493F4
:10AAE000114B1B6803AA11461846FEF7D3FC03ABB3
:10AAF0001846FEF7AFFC0C4B00221A6000230193AE
:10AB00000A48FFF759F9FFF765F9034683F0010397
:10AB1000DBB2002B02D186E700BF00E000BF00BF20
:10AB200009B05DF804FB00BF404000204440002015
:10AB30006829030008B501210548FEF788FA034695
:10AB4000002B02D10020FFF76BFF00BF08BD00BF44
:10AB5000CC3D002000B583B00190019B5B68184696
:10AB6000FFF75EFF00BF03B05DF804FB00B58BB0DC
:10AB70000390029101928DF803300023ADF8243048
:10AB80000023ADF82630534B1B78DBB283F0010372
:10AB9000DBB2002B02D048F2016397E0029B002B4E
:10ABA00002D148F2046391E0029B1B884FF6FF72CA
:10ABB000934203D0029B5B88002B02D148F20363CF
:10ABC00084E0029B5B681846FEF736FC034683F080
:10ABD0000103DBB2002B02D048F2026376E0019B56
:10ABE000002B11D1029B9B68ADF826300DF11A02A3
:10ABF000BDF8263011461846FEF77CFE0890089BEB
:10AC0000002B09D0089B61E0019B1B88ADF81A302E
:10AC1000019B5B88ADF8263005AB1846FFF798F826
:10AC20000790079B002B0AD1BDF81A20BDF82630EB
:10AC300011461846FEF7C8FE48F2076346E0079B38
:10AC40009DF803201A70079B00229A75BDF81A2000
:10AC5000079B9A82029B5A68079B1A61FEF7DCFEEB
:10AC60000246079BDA60029B1A88079B1A81029BA7
:10AC70005A88079B9A80079BBDF82620DA809DF8AA
:10AC80000330032B06D1079B04229A75039B1A6895
:10AC9000079B9A61079BBDF824205A8105AB184693
:10ACA000FFF76CF8039B002B0DD0039B00225A602A
:10ACB000079BDA68039B1A60039B00229A72064B7B
:10ACC0001A89039B1A81FFF735FF002318460BB042
:10ACD0005DF804FBC43D00200840002000B585B0AD
:10ACE00001900C4B1B68042B03D148F20B630393B8
:10ACF0000BE0084B1B680849019A41F82320012109
:10AD00000448FEF7BCF900230393039B184605B0E3
:10AD10005DF804FBD03D0020D43D002084B040F617
:10AD2000F8731B68B3F1FF3F02D10F4B1B6802E0C1
:10AD300040F6F8731B6803934FF080531B6902932E
:10AD40004FF080535B690193039BB3F1FF3F04D144
:10AD5000019B029A02FB03F300E0039B0093009B1C
:10AD6000184604B0704700BF1410001000B583B03F
:10AD70004FF4A0330193FFF7D1FF0346054A136157
:10AD8000044B1A69019BD31A024AD36000BF03B077
:10AD90005DF804FBA82C002008B5FFF7E7FF0022B0
:10ADA0000349044800F078FD0346184608BD00BF7B
:10ADB000F8290300A82C002008B504481C238C2285
:10ADC0000349FEF712F800BF08BD00BF743E002023
:10ADD000E83D002000B58BB002AB00221A605A603B
:10ADE0009A60DA601A61454B1B78DBB2002B05D004
:10ADF00002AB1846FEF72EFB00237BE04048FEF72F
:10AE00006EF90346002B01D0002373E0FFF7C4FF67
:10AE10000990099B002B01D0099B6BE0FFF7CCFF49
:10AE2000FEF7F2FF03468DF823309DF82330062B02
:10AE30000ED0062B18DC002B01D0022B14D12F4B87
:10AE400000221A702D4B00225A6048F20A6351E02A
:10AE50002A4B01221A70294B00225A6002AB184675
:10AE6000FEF7F8FA002345E000BF01AB1846FEF7F5
:10AE70006FFF0790079B002B02D148F2076339E070
:10AE8000079B01221A709DF82330013B0A2B29D819
:10AE900001A252F823F000BFC5AE0200E5AE0200E9
:10AEA000C5AE0200E5AE0200DDAE0200E5AE020076
:10AEB000DDAE0200E5AE0200CDAE0200D5AE02006E
:10AEC000CDAE0200079B00221A710CE0079B032203
:10AED0001A7108E0079B02221A7104E0079B012205
:10AEE0001A7100E000BF01AB1846FEF747FFFFF7FD
:10AEF00021FE002318460BB05DF804FBC43D002082
:10AF0000C83D002000B585B001900091019B002B49
:10AF100002D0009B002B02D148F204632AE00DF11D
:10AF20000A0319460198FEF7D5FD0346002B1FD0F2
:10AF3000019B5B680393BDF80A301A4613469B00D9
:10AF400013449B0008330D4A13440433012118466F
:10AF5000FEF795F8009B039A1A60019B5B6803F16A
:10AF60000C02009B5A60019B01229A72002301E0AF
:10AF700048F20963184605B05DF804FB843E0020E2
:10AF800000B585B00190019B002B02D148F204630B
:10AF90003BE00DF10A0319460198FEF79BFD0346BD
:10AFA000002B2ED0BDF80A3019461A4A0B469B00DA
:10AFB0000B449B0013440C331B68002B1DD0019BDA
:10AFC0009B7A002B19D0BDF80A301A461149134656
:10AFD0009B0013449B000B440C331B68591E0D4807
:10AFE00013469B0013449B0003440C331960019BE0
:10AFF00000229A720023039306E048F2056303934C
:10B0000002E048F209630393039B184605B05DF81C
:10B0100004FB00BF843E002000B583B00190009186
:10B020000223002200990198FFF7A0FD034618466D
:10B0300003B05DF804FB00B583B001900091019B63
:10B04000002B02D148F2046306E00323002200999A
:10B050000198FFF78BFD0346184603B05DF804FB2B
:10B0600000B585B00190184B1B78DBB283F001036B
:10B07000DBB2002B02D048F2016321E0019B002BE0
:10B0800002D148F204631BE002AB1846FEF760FEF3
:10B090000390039B002B02D148F2076310E0039B4F
:10B0A00004221A70039B00221A71019B1A68039BE9
:10B0B000DA6002AB1846FEF761FEFFF73BFD0023A6
:10B0C000184605B05DF804FBC43D002000B583B010
:10B0D000154B1B78DBB283F00103DBB2002B02D0EF
:10B0E00048F201631BE06B461846FEF731FE019003
:10B0F000019B002B02D148F2076310E0019B06225E
:10B100001A706B461846FEF739FE084B1B78002B69
:10B1100002D0064B01225A77FFF70CFD0023184698
:10B1200003B05DF804FB00BFC43D002008400020D0
:10B1300000B583B001900091009B019A002100208E
:10B14000FEF722FD0346184603B05DF804FB00B588
:10B1500085B0029201930346ADF80E300B46ADF870
:10B160000C3003A90DF10E00019B029AFEF70CFDB5
:10B170000346184605B05DF804FB000010B586B024
:10B1800003904FF48063ADF814300023ADF8123013
:10B190004F4B1B78DBB283F00103DBB2002B02D0F4
:10B1A00048F2016391E0039B002B02D148F2046353
:10B1B0008BE012220021039807F0A3F8039B1422CE
:10B1C0001A800023ADF816307AE0BDF81620414908
:10B1D00013469B0013449B000B4408331988BDF8A9
:10B1E00016203C4813469B0013449B0003440A333B
:10B1F0001B880B44ADF81030BDF8162035491346B6
:10B200009B0013449B000B4404331B681846FEF755
:10B2100019FA0346032B05D1039B1B88013B9AB205
:10B22000039B1A80BDF816202A4913469B0013443D
:10B230009B000B440C331968039B5A888BB2134450
:10B240009AB2039B5A80039B1989BDF816202148A6
:10B2500013469B0013449B0003440A331B880B4492
:10B260009AB2039B1A81039B5A89BDF8103013448C
:10B270009AB2039B5A81BDF81420BDF81030D31A3E
:10B28000ADF81230039B9B89BDF812209A4203D976
:10B29000039BBDF812209A81039B191D039B9A1DE5
:10B2A000039B03F10E04039B1033BDF816000093BB
:10B2B0002346FEF7DBFCBDF816300133ADF816303F
:10B2C000BDF81630122B80D90023184606B010BDE9
:10B2D000C43D0020843E002029DF704700BF18468F
:10B2E00028DF704700BF184600B589B00190009173
:10B2F000019B1B689B68002B35D002AB00221A60B3
:10B300005A609A60DA601A615A61009B0393019B4C
:10B310009B680793019B1B79002B02D0012B0DD05A
:10B320001AE001238DF80830019B1B690493019BEF
:10B33000DB680593019B5B6906930DE002238DF8A2
:10B340000830019BDB684FF4805202FB03F3049347
:10B35000019B5B69069300BF019B1B689B6802AA67
:10B360001046984700E000BF09B05DF804FB00B547
:10B3700087B00190019B5A69019B9B69D31AB3F571
:10B38000805F28BF4FF4805305930422059BB3FBD5
:10B39000F2F3012B38BF01230593019B1A69019B2E
:10B3A0009B6913440493019BDB681A46019B9B69CC
:10B3B00013440393059A03990498FFF78DFF0346FE
:10B3C000184607B05DF804FB00B583B00190019BFF
:10B3D000DA68019B1B6913441846FFF781FF034697
:10B3E000184603B05DF804FB08B5034B0349184643
:10B3F000FDF788FD00BF08BDD4400020FC400020C0
:10B4000008B5084B08491846FDF763FD0346074A8F
:10B410001360064B1B68002B14BF01230023DBB213
:10B42000184608BDD4400020FC400020F840002011
:10B4300000B583B02A4B1B7A002B0BD1FFF7E0FF3E
:10B44000034683F00103DBB2002B03D0244B002220
:10B450005A6042E0224B02221A72224B1B681B796F
:10B46000002B02D0012B07D00DE01E4B1B681846A5
:10B47000FFF77DFF019009E01A4B1B681846FFF7A4
:10B48000A3FF019002E00323019300BF019B002B67
:10B4900003D0019B112B0CD00FE0114B1B7C83F0D0
:10B4A0000103DBB2002B17D00021022000F060F96D
:10B4B00012E00B4B01221A720FE00A4B1B680321AA
:10B4C0001846FFF711FF064B00221A72044B0022A8
:10B4D0005A60FFF789FF00E000BF03B05DF804FB8E
:10B4E000E4400020F840002008B50848FDF7F7FDCB
:10B4F0000346002B08D1064B5B7C83F00103DBB2D3
:10B50000002B01D0FFF794FF00BF08BDE8400020EA
:10B51000E440002084B001901B4B0022DA60019BC4
:10B520001B79002B02D0012B19D028E0019B5A690E
:10B53000019B9B69D31AB3F5805F28BF4FF48053FA
:10B540000393019B9A69039B1A44019B9A61019B97
:10B550009A69019B5B699A420ED1012310E0019B1D
:10B560001B695A1C019B1A61019B1A69019B5B694B
:10B570009A4203D1012303E000BF00E000BF002393
:10B58000184604B0704700BFE440002082B001902C
:10B59000084BDB680133074AD360064BDB68082B96
:10B5A00004D9044B0022DA60012300E0002318468E
:10B5B00002B07047E440002000B583B001900091D4
:10B5C000019B0C4A5A600C48FDF789FD0346002B8D
:10B5D0000BD106F019FA03461A46074B1A740748AE
:10B5E0001C238C220649FDF700FC0023184603B0FB
:10B5F0005DF804FBEC290300E4400020D440002067
:10B600004840002000B583B0019000911422002131
:10B61000054806F076FE054B1846FDF719FC002399
:10B62000184603B05DF804FBE4400020D44000203D
:10B6300000B587B00390029101920093174A04ABC2
:10B6400019461046FDF718FC0590059B002B01D10B
:10B6500004231FE01C220021059806F052FE059BE2
:10B6600000221A71059B039A1A60059B089A9A603A
:10B67000059B029A1A61059B019ADA60059B009A64
:10B680005A61064A04AB19461046FDF70EFCFFF757
:10B690002BFF0023184607B05DF804FBD4400020C0
:10B6A00000B585B00390029101920093029B009A2D
:10B6B0001946019806F0FCFD0023184605B05DF818
:10B6C00004FB000000B587B0039002910192009343
:10B6D000184A04AB19461046FDF7CEFB0590059BB2
:10B6E000002B01D1042320E01C220021059806F044
:10B6F00008FE059B01221A71059B039A1A60059B9F
:10B70000009A9A604FF48052029BB3FBF2F2059BC1
:10B71000DA60059B019A5A61064A04AB1946104645
:10B72000FDF7C3FBFFF7E0FE0023184607B05DF806
:10B7300004FB00BFD440002082B001900091009B28
:10B74000184602B0704782B001900091002318465D
:10B7500002B0704782B00190044B1B7A002B14BFDB
:10B7600001230023DBB2184602B07047E4400020FA
:10B7700000B585B001900091019B022B02D0019B86
:10B78000032B48D1274B1B7A022B05D0022B35DC2B
:10B79000002B42D0012B31E000238DF80F30019BAC
:10B7A000022B03D0019B032B09D011E01E4B1B6819
:10B7B0001846FFF7AFFE03468DF80F3008E01A4B2E
:10B7C0001B681846FFF7E2FE03468DF80F3000BFF6
:10B7D0009DF80F30002B10D0124B00221A72124B22
:10B7E0001A68019B022B01D1002300E00D231946AA
:10B7F0001046FFF779FDFFF7F7FD00BF094B5B7CB3
:10B8000083F00103DBB2002B02D0FFF711FE05E04D
:10B8100006F0DEF802E000BF00E000BF05B05DF812
:10B8200004FB00BFE4400020F840002082B0034643
:10B8300000918DF80730064B01225A74044B1B7A95
:10B84000002B0CBF01230023DBB2184602B0704767
:10B85000E440002000B583B0034600918DF8073026
:10B860009DF80730012B03D09DF80730032B0DD135
:10B87000084B00225A749DF80730012B0CBF01239E
:10B880000023DAB2034B1A74FFF7D2FD00BF03B0F6
:10B890005DF804FBE440002000B585B00390029100
:10B8A0000192039B002B01D10E230EE0029B002B83
:10B8B00001D10E2309E0039B029A1A60039B1B68C7
:10B8C0001B680199039898470346184605B05DF830
:10B8D00004FB10B586B00590049103920293059B7A
:10B8E000002B01D10E2342E0039B002B01D10E233C
:10B8F0003DE0059B1B68002B01D1082337E0029B2C
:10B90000002B01D1092332E0059B5B685A68029B3A
:10B91000B3FBF2F101FB02F29B1A002B01D00923C9
:10B9200025E0049800F07BF80346002B01D110239A
:10B930001DE0039B184600F072F80346002B01D16E
:10B94000102314E0029A0499059800F04EF803467B
:10B95000002B01D110230AE0059B1B68DC68089BC3
:10B960000093029B039A04990598A0470346184642
:10B9700006B010BD10B584B00390029101920093FF
:10B98000039B002B01D10E232CE0039B1B68002B93
:10B9900001D1082326E0019B002B01D1092321E0DE
:10B9A0000299039800F048F80346002B01D11023B8
:10B9B00018E0039B5B681B68019A02FB03F31A46BD
:10B9C0000299039800F011F80346002B01D11023CF
:10B9D00008E0039B1B681C69009B019A029903986D
:10B9E000A0470346184604B010BD84B003900291EE
:10B9F0000192039BDB68029A9A4209D3029A019B47
:10BA000013445A1E039B1B699A4201D8012300E08C
:10BA1000002303F00103DBB2184604B0704782B084
:10BA20000190019B03F00303002B0CBF01230023B3
:10BA3000DBB2184602B0704782B001900091019BC2
:10BA40005B681B685A1E009B1340002B0CBF012330
:10BA50000023DBB2184602B070470000BFF34F8FDF
:10BA600000BF064BDB6803F4E0620449044B134358
:10BA7000CB60BFF34F8F00BF00BFFDE700ED00E0DC
:10BA80000400FA0582B0164B1B680193154B1B6826
:10BA90000093019B082B1FD1009B052B1AD801A2F4
:10BAA00052F823F0BDBA0200C1BA0200C5BA0200C2
:10BAB000C9BA0200CDBA0200D1BA020001230CE0DB
:10BAC00001230AE0012308E0012306E0012304E04A
:10BAD000012302E0012300E00023184602B0704772
:10BAE000300100103401001082B0164B1B68019326
:10BAF000154B1B680093019B082B1FD1009B052B46
:10BB00001AD801A252F823F021BB020025BB020083
:10BB100029BB02002DBB020031BB020035BB020075
:10BB200001230CE001230AE0012308E0012306E0E1
:10BB3000012304E0012302E0012300E00023184672
:10BB400002B07047300100103401001082B0164B73
:10BB50001B680193154B1B680093019B082B1FD199
:10BB6000009B052B1AD801A252F823F085BB0200D6
:10BB700089BB02008DBB020091BB020095BB020095
:10BB800099BB020001230CE000230AE0002308E037
:10BB9000002306E0002304E0002302E0002300E08D
:10BBA0000023184602B07047300100103401001025
:10BBB00082B0164B1B680193154B1B680093019BC9
:10BBC000082B1FD1009B052B1AD801A252F823F095
:10BBD000E9BB0200EDBB0200F1BB0200F5BB0200B5
:10BBE000F9BB0200FDBB020001230CE000230AE0C8
:10BBF000002308E0002306E0002304E0002302E025
:10BC0000002300E00023184602B070473001001006
:10BC10003401001082B0164B1B680193154B1B6852
:10BC20000093019B082B1FD1009B052B1AD801A262
:10BC300052F823F04DBC020051BC020055BC02007A
:10BC400059BC02005DBC020061BC020001230CE093
:10BC500000230AE0002308E0002306E0002304E0BC
:10BC6000002302E0002300E00023184602B07047E2
:10BC7000300100103401001082B0164B1B68019394
:10BC8000154B1B680093019B082B1FD1009B052BB4
:10BC90001AD801A252F823F0B1BC0200B5BC0200D0
:10BCA000B9BC0200BDBC0200C1BC0200C5BC0200A0
:10BCB00001230CE000230AE0002308E0002306E053
:10BCC000002304E0002302E0002300E000231846E4
:10BCD00002B07047300100103401001082B0164BE2
:10BCE0001B680193154B1B680093019B082B1FD108
:10BCF000009B052B1AD801A252F823F015BD0200B3
:10BD000019BD02001DBD020021BD020025BD0200BB
:10BD100029BD020001230CE001230AE0012308E011
:10BD2000012306E0012304E0012302E0012300E0F7
:10BD30000023184602B07047300100103401001093
:10BD400082B0164B1B680193154B1B680093019B37
:10BD5000082B1FD1009B052B1AD801A252F823F003
:10BD600079BD02007DBD020081BD020085BD0200DB
:10BD700089BD02008DBD020000230CE000230AE013
:10BD8000002308E0002306E0012304E0012302E091
:10BD9000012300E00023184602B070473001001074
:10BDA0003401001008B5FFF7CBFF0346002B07D086
:10BDB0004FF010234FF08042D3F80832C2F85835C4
:10BDC00000BF08BD00BF044BD3F80034002BFAD0ED
:10BDD00000BF00BF704700BF00E0014000B583B066
:10BDE0000190054A019BC2F80435FFF7EBFF00BF45
:10BDF00003B05DF804FB00BF00E00140024B034AC2
:10BE00001A6000BF704700BFE82C00200090D003EC
:10BE100008B5FFF737FE0346002B0ED04FF08043E6
:10BE20000022C3F80C214FF080430022C3F81021F8
:10BE30004FF080430022C3F83825FFF755FE034634
:10BE4000002B76D04FF08053734AD3F80434C2F8F5
:10BE500020354FF08053704AD3F80834C2F82435A7
:10BE60004FF080536C4AD3F80C34C2F828354FF0A9
:10BE70008053694AD3F81034C2F82C354FF0805300
:10BE8000654AD3F81434C2F830354FF08053624A13
:10BE9000D3F81834C2F834354FF080535E4AD3F8E3
:10BEA0001C34C2F840354FF080535B4AD3F820343D
:10BEB000C2F844354FF08053574AD3F82434C2F8BF
:10BEC00048354FF08053544AD3F82834C2F84C35E3
:10BED0004FF08053504AD3F82C34C2F850354FF00D
:10BEE00080534D4AD3F83034C2F854354FF0805364
:10BEF000494AD3F83434C2F860354FF08053464A8B
:10BF0000D3F83834C2F864354FF08053424AD3F83E
:10BF10003C34C2F868354FF080533F4AD3F8403480
:10BF2000C2F86C354FF080533B4AD3F84434C2F822
:10BF30007035FFF70BFE0346002B02D0374B384A13
:10BF40001A60FFF735FE0346002B03D0354BFB226A
:10BF5000C3F81825FFF75EFE0346002B0AD0324BCC
:10BF60001B6823F00F02314B1B6803F00F032E49AF
:10BF700013430B60FFF780FE0346002B03D02C4BCE
:10BF80004FF400721A60FFF7A9FE0346002B0DD094
:10BF90004FF08043D3F8003403F00103002B05D0A9
:10BFA0004FF080436FF00102C3F80024214BD3F817
:10BFB0008830204A43F47003C2F88830BFF34F8FB3
:10BFC00000BFBFF36F8F00BFFFF7ECFE4FF01023F1
:10BFD000D3F80032002B05DB4FF01023D3F80432E6
:10BFE000002B15DA0120FFF7F9FE4FF01023122283
:10BFF000C3F80022FFF7E6FE4FF010231222C3F829
:10C000000422FFF7DFFE0020FFF7E8FEFFF726FD22
:10C01000FFF7F4FE00BF08BD00C000408C56004092
:10C020004881030000F00040E40E00405802001078
:10C030004096024000ED00E0BFF34F8F00BF064B7B
:10C04000DB6803F4E0620449044B1343CB60BFF3A5
:10C050004F8F00BF00BFFDE700ED00E00400FA05D0
:10C0600000B583B00190019B1B68184600F0C3F82F
:10C070000346002B04D10B494FF4F67002F05EF832
:10C08000019B1B681F2B02D84FF0A04306E0019BC9
:10C090001B6803F01F02019B1A60034B184603B094
:10C0A0005DF804FB182A03000003005000B585B0BA
:10C0B0000190084611461A4603468DF803300B4698
:10C0C0008DF8023013468DF8013001AB1846FFF7AA
:10C0D000C7FF03909DF803209DF802305B001A43D0
:10C0E0009DF801309B001A439DF818301B0242EA6C
:10C0F00003019DF81C301B04019A1943039B02F5B0
:10C10000E07243F8221000BF05B05DF804FB00B5F3
:10C1100085B00390002301930023009300230122A4
:10C1200001210398FFF7C2FF00BF05B05DF804FBD3
:10C1300000B585B003900B468DF80B309DF80B30A1
:10C140000022019200220092002200210398FFF7B2
:10C15000ADFF00BF05B05DF804FB00B585B00190F0
:10C1600001AB1846FFF77CFF0390019B012202FA06
:10C1700003F31946039800F02AF800BF05B05DF8F4
:10C1800004FB00B585B0019001AB1846FFF768FFCE
:10C190000390019B012202FA03F31946039800F071
:10C1A00020F800BF05B05DF804FB00B583B0019036
:10C1B0000091009B002B03D10198FFF7E2FF02E002
:10C1C0000198FFF7CAFF00BF03B05DF804FB82B01F
:10C1D00001900091019B009AC3F8082500BF02B0AE
:10C1E000704782B001900091019B009AC3F80C2522
:10C1F00000BF02B0704784B00190019B5B090293BD
:10C2000000230393029B002B03D0029B012B04D03D
:10C2100007E04FF0FF33039303E04FF6FF73039300
:10C2200000BF019B03F01F030193039A019B22FAB5
:10C2300003F303F00103002B14BF01230023DBB23F
:10C24000184604B07047000000B583B00190019B10
:10C25000032B03D90749412001F070FF064A019BD7
:10C2600013441B7800211846FFF79FFF00BF03B05F
:10C270005DF804FB842A0300F02A030000B583B0B4
:10C280000190019B032B03D90749472001F056FF7A
:10C29000064A019B13441B7801211846FFF785FFCE
:10C2A00000BF03B05DF804FB842A0300F02A0300FA
:10C2B00000B583B00023019305E00198FFF7DEFF8E
:10C2C000019B01330193019B032BF6D900BF00BFF3
:10C2D00003B05DF804FB000008B54FF01023D3F85D
:10C2E000043303F00703072B21D1124B0122C3F8BB
:10C2F000042500BF0F4BD3F80034002BFAD04FF0C9
:10C300001023D3F8043323F007034FF0102243F037
:10C310000403C2F80433074B0022C3F8042500BF0E
:10C32000044BD3F80034002BFAD0FFF785FE00BF92
:10C3300008BD00BF00E0014000B583B04FF080436E
:10C34000D3F8403603F00103002B01D0FFF7C4FF00
:10C350000023019309E0094A019B13441B78184606
:10C36000FFF7D5FE019B01330193019B032BF2D90B
:10C37000FFF79EFF00BF03B05DF804FBF02A030047
:10C3800000B583B00023019307E02623032118465C
:10C39000FFF7CEFE019B01330193019B002BF4D0EC
:10C3A00000BF00BF03B05DF804FB00B583B001908F
:10C3B000019B03F00103002B01D0FFF7BDFF019BA0
:10C3C00003F00203002B01D0FFF7DAFF00BF03B038
:10C3D0005DF804FB82B003468DF807309DF9073005
:10C3E000002B13DB9DF8073003F01F0209499DF96C
:10C3F00007305B09012000FA02F2203341F82320C4
:10C40000BFF34F8F00BFBFF36F8F00BF00BF02B0FD
:10C41000704700BF00E100E0044BD3F80034002B6C
:10C4200014BF01230023DBB218467047000001400F
:10C4300008B505F0E9FA034683F00103DBB2002BEF
:10C4400003D109497B2001F079FEFFF7E5FF0346A0
:10C4500083F00103DBB2002B04D000F02DFB034B73
:10C4600000229A7000BF08BDF42A0300004100209A
:10C4700000B583B000230193184B1B78002B02D02A
:10C48000852301931CE0154B00229A60134B002278
:10C490005A60124B00221A61104B0022DA601048D9
:10C4A00000F0B6FA019005F0AFFA034683F00103FD
:10C4B000DBB2002B01D000F0D1FA084B01221A7038
:10C4C000FFF7AAFF0346002B02D0044B01229A700B
:10C4D000019B184603B05DF804FB00BF004100203B
:10C4E000A9C6020084B001900091019B1B680393D0
:10C4F00006E0039A009B9A420DD0039B1B680393AE
:10C50000039B002BF5D1019B1A68009B1A60019BCD
:10C51000009A1A6000E000BF04B0704784B0019038
:10C52000019B1B680393039B002B03D0039B1A689A
:10C53000019B1A60039B184604B0704700B585B094
:10C540000190294B1B78002B03D12849F62001F0DC
:10C55000F5FD254B9B78DBB2002B19D0019B002BFE
:10C5600003D0019B5B680120984700238DF80F30B2
:10C570000DF10F031846FBF783FF1B4BDB680133FC
:10C58000194AD3609DF80F301846FBF78FFF1EE065
:10C5900000238DF80E300DF10E031846FBF770FFE7
:10C5A000019B002B03D001991148FFF79BFF0E4B15
:10C5B000DB68002B01D100F065FA0B4BDB6801331F
:10C5C000094AD3609DF80E301846FBF76FFF064B03
:10C5D000DB68002B04D105494FF4897001F0AEFDF2
:10C5E00000BF05B05DF804FB00410020F42A030001
:10C5F0001041002000B583B0164B1B78002B04D1EE
:10C60000154940F2171001F099FD124BDB68002B21
:10C6100004D111494FF48C7001F090FD00238DF886
:10C6200007300DF107031846FBF72AFF094BDB68BB
:10C63000013B084AD360074BDB68002B01D1FFF7B1
:10C64000F7FE9DF807301846FBF730FF00BF03B038
:10C650005DF804FB00410020F42A030000B585B01A
:10C6600003468DF807309DF80730002B02D10C4BA4
:10C67000039301E00B4B03930398FFF74FFF0290E6
:10C68000029B002B06D0029B5B689DF8072010469A
:10C690009847F1E700BF00BF05B05DF804FB00BF9D
:10C6A000084100201041002000B583B003468DF8FA
:10C6B00007309DF80730002B05D10A4B01225A7034
:10C6C0000020FFF7CBFF9DF80730012B05D1054B6C
:10C6D00001229A700120FFF7C1FF00BF03B05DF88F
:10C6E00004FB00BF0041002000B583B00190009121
:10C6F000019B002B05D1054B01225A700020FFF74A
:10C70000ADFF00BF03B05DF804FB00BF0041002097
:10C7100000B585B0034600918DF807309DF80730CD
:10C72000032B29D0032B35DC002B02D0012B04D0A6
:10C7300030E00020FFF74EFE2DE000238DF80F3093
:10C740000DF10F031846FBF79BFE154B1B7883F08A
:10C750000103DBB2002B01D0FFF78AFE104BDB6830
:10C7600001330F4AD3600E4B01229A709DF80F30AF
:10C770001846FBF79BFE0EE0094B1B78002B04D1FB
:10C78000084940F2522001F0D9FC00F067F9FFF7A8
:10C7900031FF00E000BF00BF05B05DF804FB00BF43
:10C7A00000410020F42A030082B003468DF80730D0
:10C7B0009DF90730002B0CDB9DF8073003F01F02BA
:10C7C00005499DF907305B09012000FA02F241F8A2
:10C7D000232000BF02B0704700E100E082B00346B2
:10C7E00000918DF807309DF90730002B0ADB009B84
:10C7F000DAB20C499DF907305201D2B20B4483F8EA
:10C8000000230BE0009BDAB207499DF8073003F0E4
:10C810000F03043B5201D2B20B441A7600BF02B0A0
:10C82000704700BF00E100E000ED00E082B0019041
:10C83000019B1B0B5BB2184602B0704700B583B07A
:10C8400003460A468DF8073013468DF806309DF8EA
:10C850000630012B03D99DF80630032B0BD99DF828
:10C860000630042B03D99DF80630072B03D908495D
:10C870006B2001F063FC9DF806209DF907301146FE
:10C880001846FFF7ABFF00BF03B05DF804FB00BF25
:10C890006C2B030000B583B003468DF807309DF97B
:10C8A00007301846FFF780FF00BF03B05DF804FBB8
:10C8B00082B003468DF807300F4A9DF90730002BF0
:10C8C00000DA1F335B115BB252F823209DF9073069
:10C8D000594203F01F0301F01F0158BF4B425BB2E6
:10C8E00022FA03F303F00103002B14BF01230023FA
:10C8F000DBB2184602B0704700E100E082B0019060
:10C900004FF08042019BC2F8043300BF02B0704771
:10C9100082B001904FF08042019BC2F8083300BF03
:10C9200002B0704782B003468DF807309DF807309B
:10C9300003F1804301221A6000BF02B0704784B047
:10C940000346ADF80630BDF8063003F180430022FF
:10C950001A60BDF8063003F180431B680393039B04
:10C9600000BF04B0704782B00346ADF80630BDF892
:10C97000063003F180431B68002B14BF0123002302
:10C98000DBB2184602B0704782B001904FF080428F
:10C99000019BC2F8183500BF02B070474FF08043CA
:10C9A000D3F818341B0C03F00103002B14BF012330
:10C9B0000023DBB21846704700B583B006238DF81C
:10C9C00007304FF08040FFF731FF03461846FFF76E
:10C9D0006FFF034683F00103DBB2002B13D04FF04F
:10C9E0008040FFF723FF03461A469DF8073019469B
:10C9F0001046FFF723FF4FF08040FFF717FF034675
:10CA00001846FFF747FF00BF03B05DF804FB0000C6
:10CA100000B585B00190019B002B03D10D49A420E6
:10CA200001F08CFB002303930B4B1B79002B02D0EE
:10CA30008523039308E0084A019B1360064B0122FB
:10CA40001A71054B00225A71039B184605B05DF818
:10CA500004FB00BFD82B03001441002008B5074B8E
:10CA60001B79002B03D10649BD2001F067FBFFF7BE
:10CA7000A3FF0120FFF788FF00BF08BD144100207D
:10CA8000D82B030008B50A4B1B79002B03D10949A9
:10CA9000EA2001F053FB4FF48270FFF750FF0220B1
:10CAA000FFF72CFF0820FFF73DFF00BF08BD00BFC8
:10CAB00014410020D82B030008B50D4B1B79002B27
:10CAC00003D10C49F72001F039FB0220FFF720FFCA
:10CAD0004FF48270FFF733FF0C20FFF723FF00BFF6
