:020000022000DC
:1070000000000420757302005D7302005F730200CC
:1070100061730200637302006573020000000000E8
:107020000000000000000000000000006773020084
:1070300069730200000000006B7302006D730200B0
:1070400065A902006F73020025B402006F7302008D
:107050006F7302006F73020061B002006F73020071
:107060006F7302006F7302006F73020045B6020077
:107070006F7302006F7302006F7302006F73020080
:107080006F730200798302006F7302006F73020056
:107090006F7302006F730200A5D702006F730200C6
:1070A0006F7302006F7302006F7302006F73020050
:1070B0006F7302006F730200000000000000000008
:1070C0006F7302006F7302006F7302006F73020030
:1070D000F5B602006F7302006F7302006F73020057
:1070E0006F7302006F7302006F73020000000000F4
:1070F000000000006F730200000000006F730200C8
:10710000000000000000000000000000000000007F
:10711000000000000000000000000000000000006F
:10712000000000000000000000000000000000005F
:10713000000000000000000000000000000000004F
:10714000000000000000000000000000000000003F
:10715000000000000000000000000000000000002F
:10716000000000000000000000000000000000001F
:10717000000000000000000000000000000000000F
:1071800000000000000000000000000000000000FF
:1071900000000000000000000000000000000000EF
:1071A00000000000000000000000000000000000DF
:1071B00000000000000000000000000000000000CF
:1071C00000000000000000000000000000000000BF
:1071D00000000000000000000000000000000000AF
:1071E000000000000000000000000000000000009F
:1071F000000000000000000000000000000000008F
:10720000354936480A1A02D0072291438D4634493F
:1072100034480A1A06D00722914381F309880222D2
:1072200082F3148830483149314A00F044F831483B
:107230003149324A00F03FF831483249324A00F0D1
:107240003AF832483249334A00F035F83248334987
:10725000334A00F030F833483349344A00F02BF811
:1072600033483449344A00F026F83448344900227F
:1072700000F02CF833483449002200F027F8334856
:107280003349091A082902DB002202604160314AB1
:1072900090471F481F49884205D00268043003B454
:1072A000904703BCF7E700208646EC46002000210B
:1072B000294A9047FEE7884207D0521A05D0037842
:1072C00001300B700131013AF9D17047884202D088
:1072D00002700130FAE770470000042000E003204C
:1072E00000000420000004202CEA0200BC2C002036
:1072F000BD3C0020D0730200D073020060DD0200AC
:107300002CEA0200BC2C0020BC2C0020DCDD02009A
:10731000DCDD0200DCDD0200DCDD0200DCDD020081
:10732000DCDD0200DCDD0200DCDD02002CEA020014
:1073300030FA0200C03C0020C03C0020C03C0020CD
:10734000A1810020A4810020A4810020A48100202C
:10735000A4A100209D730200A9BC0200FEE7FEE785
:10736000FEE7FEE7FEE7FEE7FEE7FEE7FEE7FEE7F5
:1073700000F002B8FFF7FCBF0F484FF00701884349
:1073800085460E4880470E48016841F4700101604F
:10739000BFF34F8FBFF36F8FFFF732BF09480A4922
:1073A0000A4A884207D0521A05D0037801300B7080
:1073B0000131013AF9D1704700000420A1A2020076
:1073C00088ED00E0C8DD0200A82C0020BC2C0020C5
:1073D00038B5194B1D783DB3184A1168C0B2002367
:1073E0000C4604E00133AB4204F108041CD011F850
:1073F00033209042F6D103F0E7FD6378A3F1010357
:10740000B3FA83F35B09834200D038BD0C4BD3E958
:1074100000231343F9D10B4B0B4819680022BDE838
:107420003840490800F0C4BC0849882004F034FC06
:1074300000231B78FFDE00BFC03C0020F03C002092
:10744000C83C0020C43C0020C02C0020DCDD020031
:107450002DE9F04FDFF8908298F8003083B0002BD0
:1074600000F034810024DFF884929A4F9A4EA246AD
:10747000D7F800B01BF8340003F0A6FD1BF8345019
:107480000BEBC40369085B7816F801C015F0010E18
:10749000A3F10103B3FA83F314BF4FEA1C120CF0FB
:1074A0000F025B09042A00F2E880DFE802F0746151
:1074B00033200300834240F09F80BEF1000F0CBFD9
:1074C000F0230F230CEA030C0CBF0323302343EA01
:1074D0000C03735498F8002001349442C8DBD9E9B6
:1074E0000023134340F0E88003B0BDE8F08F8342EF
:1074F00000F0C380BEF1000F0CBFF0230F230CEA95
:10750000030C0CBF0423402343EA0C03735498F884
:107510000020E1E7834240F0B380BEF1000F14BFCA
:107520000F23F0230CEA030C98F8002014BF30233B
:10753000032343EA0C037354002A00F0B680D7F803
:1075400000C00023614604E0934201F1080100F00D
:10755000AC801CF83300A84203F10103F4D14B685E
:10756000002BB9D028460121984798F80020B3E7AE
:10757000834219BF00231A4620230222BEF1000FC6
:1075800016BF1A46F0230F230CEA03031A43725462
:1075900098F80020A0E783426FD1BEF1000F14BF1E
:1075A0000F23F0230CEA030C14BF1023012343EA3A
:1075B0000C030DF1070073548DF807A000F0A6FC32
:1075C0000122A5F12003C5F1200122FA01F102FAFE
:1075D00003F3AA40D9F800509DF807002A43C9F8E0
:1075E0000020D9F804200B431343C9F8043000F0FD
:1075F000C3FC98F800206FE7BEF1000F14BF0F2303
:10760000F0230CEA030398F800C07354BCF1000F98
:1076100046D038680023024603E09C4502F1080288
:107620003ED010F83310A94203F10103F5D153689D
:1076300013B10021284698470DF107008DF807A0E7
:1076400000F064FC0122A5F12003C5F1200102FA3B
:1076500003F322FA01F1AA40D9F800509DF807007F
:1076600025EA0202C9F80020D9F804200B4322EAD7
:107670000303C9F8043000F07FFC98F800202BE7E2
:10768000BEF1000F0CBFF0230F230CEA030C0CBF5C
:107690000123102343EA0C03735498F800201BE7DE
:1076A0000E49882004F0F8FAC6E70C49882004F057
:1076B000F3FA98F800200FE7094B0A4819680022EE
:1076C000490803B0BDE8F04F00F072BBDFF81C9032
:1076D00005E700BFF03C0020D03C0020DCDD0200CC
:1076E000C43C0020C02C0020C03C0020C83C00202E
:1076F000092A3FD9F0B583B0144605460E4603F07B
:10770000B9F988B3204B214A1E70214B1560002126
:1077100020481C60202206F0F0FA1F4B00200021B8
:10772000741EC3E90001E4B236B31C4F05EBC40478
:10773000032602E0A5421FD01C469DF8063094F8AF
:1077400002C020788DF8046023F007033A4601A9AF
:107750008DF806308DF805C003F096F9A4F1080302
:107760000028E7D003B0F0BD03F034F90028C9D0F9
:1077700003B0F0BD07207047094A0A48002103B052
:10778000BDE8F04000F0EEBAC03C0020F03C002024
:10779000C43C0020D03C0020C83C0020D173020033
:1077A0005174020054DE020070B50C4E33687BB198
:1077B0000B4D2B7853B100243368012113F83400AA
:1077C00003F0BCFA2B780134A342F5D8002070BD39
:1077D000044940F2351004F05FFAE9E7F03C00207C
:1077E000C03C0020DCDD020070B5164E336882B06C
:1077F00013B3154D2B784BB10024336813F83400C4
:1078000003F064FB2B780134A342F6D80DF1070096
:1078100000238DF8073000F079FB0C4B9DF8070032
:1078200000240025C3E9004500F0A6FB084802B08B
:10783000BDE8704000F022BB064940F2431004F05E
:107840002BFAD6E7F03C0020C03C0020C83C0020CA
:10785000C02C0020DCDD020000B583B04FF0010C2D
:107860008DF807C0144B9DF807E0186044F2010C36
:10787000604559609A6013D044F20201884206D1F3
:10788000DA60DA6812689A61DA685268DA6172B6A8
:107890009DF80730002BFBD162B603B05DF804FB06
:1078A0001A611A6992685A611A6912689A611A69AA
:1078B0005268DA61EBE700BFF43C002000B583B00A
:1078C00002900091019244F2010071466A4600F074
:1078D00003F803B000BD00BF72B6044BD3F8F0301C
:1078E000DB0700D500BEFFF7B7BF00BF00ED00E02B
:1078F00030B484688D68C368CA68A54272EB03031C
:107900002CBF0120002030BC704700BF10B50446DA
:1079100082B000230DF107008DF8073000F0F6FA71
:1079200023692BB94FF0FF324FF0FF33C4E9022334
:107930009DF8070000F020FBD4E9053098470023AC
:107940000DF107008DF8073000F0E0FA2369BBB1B4
:10795000D4E90212B2F1FF3F08BFB1F1FF3F0FD0EF
:107960005B1842F10002C4E902329DF8070000F002
:1079700003FB0748214600F0C1FE012002B010BD04
:107980009DF8070000F0F8FA002002B010BD00BF1B
:10799000D4DE02002DE9F04F2DED028B83B008EE0E
:1079A000100A00F07FFC40B1AB4AD2E9003113F17C
:1079B000807341F10001C2E9003118EE100A002184
:1079C00000F0A4FCA54D002840F01E8118EE100A1E
:1079D000012100F09BFC002840F0FF80A04801A995
:1079E00000F050FD00283AD09D4C4FF0FF384FF08A
:1079F000FF3909E033B301A9204600F075FD01A964
:107A0000204600F03FFD50B30378012B11D0022B2C
:107A1000F0D1944E304600F093FE30B1C0E90289B7
:107A2000304600F08DFE0028F8D18F4B01221A70ED
:107A3000E1E72B684168994200F0C380894800F073
:107A40009FFED8E74168D1E90223B3F1FF3F08BFA9
:107A5000B2F1FF3FCFD0834800F050FECBE7814F1B
:107A6000DFF81482DFF8F091384600F079FE002844
:107A700058D0D0E90223B3F1FF3F08BFB2F1FF3F76
:107A800000F09680296891B12968D1E9020182420B
:107A90008B414BD22B68D3E90223B3F1FF3F08BFE0
:107AA000B2F1FF3F03D02968384600F027FE384680
:107AB00000F046FE044640466C4ED4E902BA00F09F
:107AC00045FCD9E900133268401843F100039042A5
:107AD000726873EB020203D210F1807043F100036D
:107AE000BBEB00006AEB0303012873F1000322DB08
:107AF000B0F5350F56D25A464FF496030021404652
:107B000000F02CFB002845D00D2818D058494FF420
:107B1000867004F0C1F8002338462B6000F020FE88
:107B20000028A6D12B68002B00F08C8003B0BDECA0
:107B3000028BBDE8F08F0021404600F0CDFB636969
:107B4000002B39D0484B1B78002BE4D0404600F086
:107B5000FDFBD9F80030D6E90012C018D9F804307E
:107B600043F10003884273EB020203D210F18070EC
:107B700043F10003D4E902128842934129D2B2F1C1
:107B8000FF3F08BFB1F1FF3FC5D02146384600F0A6
:107B9000B5FDC0E72B68BBB12C6003B0BDEC028B18
:107BA000BDE8F08F404600F0D1FB324A0244A3E723
:107BB000384600F0C5FD57E72D49A52004F06CF8C4
:107BC000C0E700232B6016E718EE100A00F076FAE3
:107BD000E2E72046FFF79AFE9DE72748234E00F094
:107BE000B5FB1D4B1A685B688018D6E9001243F19B
:107BF0000003884273EB020203D210F1807043F15C
:107C00000003C6E90003E9E62B68002B3FF4DEAE73
:107C100018EE100A00F09AFB0021044618EE100A34
:107C200000F08EFB201A20F07F43B3F5960F49D267
:107C30002C686369002B4FD00B4B1B78F3B90023E2
:107C40002B60C3E618EE100A03B0BDEC028BBDE852
:107C5000F04F00F045BA00BF183D0020983D0020CD
:107C60007C3D0020D4DE0200203D0020903D00201D
:107C700058DE0200FFFFB400E02C0020194800F09D
:107C800065FB194B194A19685B684018D2E9001264
:107C900043F10003884273EB020203D210F18070BB
:107CA00043F10003D4E902128842934110D2B2F1A9
:107CB000FF3F08BFB1F1FF3FC1D00D48214600F0A2
:107CC0001DFDBCE70B4940F2411003F0E5FFAFE7B3
:107CD0002046FFF71BFEB2E70649A52003F0DCFFB4
:107CE000AAE700BFE02C0020183D0020903D0020B6
:107CF000D4DE020058DE020010B5134B13491C6895
:107D0000134882B008235822019400F03FFB044638
:107D100010B1204602B010BD0E4A0F4801A900F074
:107D200051F904460028F4D10B48012100F0A6FACD
:107D300001231946094A084800F0E4F9084B0122DA
:107D400020461A7002B010BDD0DE0200243D002093
:107D50007C3D002095790200E02C0020FFFF7F0091
:107D6000203D002070B50C461646054680B1B6B1E0
:107D7000A4F101042B68B4FA84F44FF0FF304FF003
:107D8000FF316409C3E90201C3E90446002070BD64
:107D9000064940F25A2003F07FFF002EE8D1034944
:107DA00040F25B2003F078FF072070BD58DE020030
:107DB000F0B50E4683B01746044600284ED0002585
:107DC00001A88DF8045000F0A1F8D4E90223B3F122
:107DD000FF3F08BFB2F1FF3F06D09DF8040000F05E
:107DE000CBF8284603B0F0BD1F4800F0AFFA1F4B98
:107DF0001F4A19685B684018D2E9001243F100037A
:107E0000884273EB020224D3301843F10003A060D0
:107E1000E3609DF8040000F0AFF82369A76103B1A7
:107E20002661144801A900F0EBFA034670B1002561
:107E300010481D705C6001A900F014FB0028D1D02F
:107E4000094800F087FA284603B0F0BD042003B0CB
:107E5000F0BD10F1807043F10003D5E7064940F210
:107E60006B2003F019FFAAE7E02C0020183D00204A
:107E7000903D00207C3D002058DE020030B50446D5
:107E800083B088B3002501A88DF8045000F03EF8B7
:107E9000D4E90223B3F1FF3F08BFB2F1FF3F1CD08A
:107EA0004FF0FF334FF0FF32C4E902239DF8040086
:107EB00000F062F8124801A900F0A2FA034648B1A6
:107EC0000122027001A90E485C6000F0CBFA88B96B
:107ED00003B030BD042003B030BD9DF8040000F0B5
:107EE0004BF8284603B030BD064940F2932003F01A
:107EF000D3FEC7E7044800F02DFA284603B030BD92
:107F00007C3D002058DE0200E02C002070B50446C5
:107F1000EFF30583C3F308031BB9EFF31483DB0707
:107F20001DD4EFF3108072B60F4B9A68A2B90121ED
:107F300099600E490E4ED1F8805035401D60C1F851
:107F40008060D1F884505D604FF0FF33C1F8843019
:107F5000227000B962B670BD01232370F9E70549AC
:107F6000432003F099FEDCE79C3D002000E100E0A7
:107F7000FC06FFBDE0DE020010B50446EFF305830A
:107F8000C3F308031BB9EFF31483DB070FD40A4BC9
:107F90009A685AB154B9EFF3108172B6074A18685B
:107FA0001060586850609C6001B962B610BD044909
:107FB000512003F071FEEAE79C3D002000E100E063
:107FC000E0DE02002DE9F0410D4616460446002889
:107FD0004ED0002D52D0002E56D06379304A314F0A
:107FE00042F8236007EBC3031B79002B3DD12E8899
:107FF000D4F80080B6F5805F31D2C8F80865AD7856
:1080000094F90460AB1E012B02D96B1F022B40D8E0
:108010003346002E1CDB06F160466D0106F5614615
:10802000EDB286F80053002B08DB1F4958090122E6
:1080300003F01F0302FA03F341F82030637907EBE2
:10804000C3020121117147F833400020BDE8F081DF
:10805000164A06F00F066D01EDB29555E3E7144997
:108060004FF4BE7003F018FEC7E70820BDE8F081AA
:108070001049552003F010FE002DACD10D495620BB
:1080800003F00AFE002EA8D10A49572003F004FE8F
:10809000A3E709496B2003F0FFFD94F90430B8E72A
:1080A000B03D0020A83D002000E100E014ED00E01C
:1080B000D4DF020060DF020040E0020010B5044699
:1080C00018B1236801221A6010BD0449872003F00B
:1080D000E3FD236801221A6010BD00BF60DF0200CB
:1080E00010B5044618B1236801225A6010BD044936
:1080F0008D2003F0D1FD236801225A6010BD00BF1E
:1081000060DF0200F0B50C4683B016461F460546F8
:10811000E8B104F150029200286892B24FF4803521
:10812000A54026F07F410026C0F80853C0F8485308
:10813000865004F5A87482580192019A40F82410E0
:10814000C0F844530FB1C0F8045303B0F0BD024966
:10815000962003F0A1FDDCE760DF02002DE9F04F7F
:108160000D4683B098468146002870D001F1500634
:108170004FF48037B6008F4022F07F44B6B2D9F872
:10818000002002EB8500C2F84873C2F80873D2F8E9
:108190000415D0F84035C0F840154FF0000A42F8F9
:1081A00006A05B1A23F07F4391590091012B00999F
:1081B0004FEA850B3DD0D2F80465C2F84473A31B87
:1081C00023F07F43012B22D09344C8F1FF18CBF852
:1081D0004045D2F80435D943214408F57F4821F0C1
:1081E0007F4188450FD339B10020C2F84473C2F8EB
:1081F000047303B0BDE8F08F0134CBF84045D2F8EA
:1082000004158B42F0D00D2003B0BDE8F08F194B60
:1082100005F5A875013442F8254043F001034FF4F9
:1082200080609847D9F80020D2F804359E42DBD010
:10823000E9E7104B4FF4806043F001039847D9F809
:10824000002042F806A093590193019BB3E70A4925
:10825000CD2005F1500622F07F444FF4803703F023
:108260001BFDB6000449B320AF40B6B203F014FDC5
:1082700085E700BFB0E0020060DF020038B50D46C0
:10828000044638B123680222C3F844230DB1C3F871
:10829000042338BD0249A92003F0FEFCF2E700BF29
:1082A00060DF020010B5044682B068B12368D3F8DD
:1082B000040138B10022C3F80421D3F8043101933A
:1082C000019B012002B010BD0249BA2003F0E4FC7A
:1082D000ECE700BF60DF020038B54FF4803303FAEB
:1082E00001F4054628B12B68C3F84843C3F8084396
:1082F00038BD0549B32003F0CFFC2B68C3F84843D1
:10830000C3F8084338BD00BF60DF020030B550310C
:10831000890083B08CB2054650B12B68185928B13A
:1083200000221A511B590193019B012003B030BD5B
:108330000249BA2003F0B0FCEFE700BF60DF0200A3
:10834000036801F5A87153F8210070470368D3F85A
:108350000405704790F90430002B09DB5A090548E1
:1083600003F01F030121403201FA03F340F82230E9
:10837000704700BF00E100E0024A034B10681B6831
:10838000184700BFA83D0020B03D002099B110B4AF
:10839000B2FBF3F403FB1424A4B244B9C0E9001403
:1083A00084608281C38120465DF8044B70470920B8
:1083B0005DF8044B70470E20704700BF82B050E854
:1083C000022FC188B2EB324F4FF0000317BF92B2B9
:1083D00041EA014142EA014104E04268B2EB324F16
:1083E00008BF012340E80212002AE8D18DF80730C7
:1083F0009DF80730002B0CBF1120002002B0704701
:1084000010B483B050E8013F1FFA83FCC489A44430
:108410008489A44528BFACEB040C0489A44502BFA1
:10842000BFF32F8F002207E0CCEA030C40E801C421
:10843000002CE7D14FF001028DF803200193019C3D
:108440009DF803200C6032B1006810FA84F003B08C
:108450005DF8044B704702F0FF03184603B05DF867
:10846000044B70470A884B889A4201D0002070471D
:1084700050E8012FC2EA024240E80123002BF7D165
:108480000120704710B483B050E8023F1FFAA3FCEC
:10849000C488A44502BFBFF32F8F00220EE0C48919
:1084A000A4448489A44528BFACEB040CC3EA0C4C5B
:1084B00040E802C4002CE7D14FF001028DF8032000
:1084C0000193019C9DF803200C6032B1006800EB21
:1084D000144003B05DF8044B704702F0FF031846E8
:1084E00003B05DF8044B70470A884B889A4201D06C
:1084F0000020704750E8022FC2EA224240E80223DF
:10850000002BF7D1012070474B0901F01F024FF0FB
:10851000010C0CFA02F100EB830000F017B800BF69
:1085200001F01F02012303FA02F24B0900EB830062
:10853000D14300F017B800BF4B0901F01F0150F8FC
:108540002300C84000F00100704700BF034653E815
:10855000002F42EA010043E8000C9CF0000FF6D126
:10856000704700BF034653E8002F02EA010043E8CA
:10857000000C9CF0000FF6D1704700BF034653E893
:10858000000F00EB010243E8002C9CF0000FF6D135
:10859000704700BF034653E8002F02EB010043E899
:1085A000000C9CF0000FF6D1704700BF034653E863
:1085B000002FA2EB010043E8000C9CF0000FF6D165
:1085C000704700BF0346012253E8000F40EA020152
:1085D00043E8001C9CF0000FF6D1704741DF704764
:1085E000064A074B10B5002414701C60BFF35F8F60
:1085F0000449054800F046F8204610BDBC3D002067
:10860000C03D002034E10200B43D002010B582B02E
:1086100000230DF107008DF80730FFF777FCF1EE2E
:10862000104A24F09F03E1EE103ABFF35F8F134B23
:108630004022C3F884219DF80700FFF79DFC6307E3
:1086400007D105F0A9F860B920BF40BF20BF02B034
:1086500010BD0B497D2003F01FFB05F09DF800289D
:10866000F2D0FFF7BBFF30F00203F0D004494FF423
:10867000B07002B0BDE8104003F00EBB00E100E0B6
:10868000B8E0020038B50C46054648B174B1D4E9EB
:1086900000329342C5E9004304BF00236B6038BD3C
:1086A0000549502003F0F8FA002CF0D1024951207E
:1086B00003F0F2FAEBE700BF40E1020010B5044618
:1086C00068B1236893B1636843B12268D2E901219C
:1086D0000B449342636004BF0023636010BD0649EE
:1086E000632003F0D9FA2368002BECD102496420FF
:1086F00003F0D2FAE7E700BF40E1020070B50D4693
:10870000064680B1ADB17468206818B908E02468E5
:10871000206828B1B368294698470028F7D1206817
:108720002860256070BD05493A2003F0B5FA002D98
:10873000E9D102493B2003F0AFFAE4E7D4E10200BB
:1087400010B5044628B16368186808B102681A6059
:1087500010BD0249512003F09FFAF4E7D4E1020072
:1087600010B5044610B16368186810BD03495D2058
:1087700003F092FA6368186810BD00BFD4E10200EC
:1087800038B50C460546B8B164B16A6813681BB9C0
:1087900010E01A461B686BB19C42FAD12368136043
:1087A000012038BD07496A2003F076FA6B681B6820
:1087B000002BEED1002038BD0249692003F06CFA8D
:1087C000E2E700BFD4E1020043682DE9F0418846AA
:1087D0001BB1304AD468A34238D200232E4FA8F8E8
:1087E000003001264FF6FF757A6802F5805C08328A
:1087F00094450CD8A8F800600136B6B2142E07F1E3
:108800001407F1D100201FE09C45F3D91A461368E4
:108810000133EFD05388033302EB83039C45E9D344
:10882000B2F804E0AE45EFD01488002CECD0946888
:10883000611CE9D00168A14201D01A46D8E7174B64
:1088400042601B8903810120BDE8F08112699342D7
:10885000C3D813F00302C0D1104C05892489A54266
:10886000BBD105689C68A542B7D10B484468A342B8
:1088700096B204F5805502F1010200F1140001D90D
:10888000AB4202D3132AF1D1BCE7A8F80060012063
:10889000DAE700BFA82C0020143E0020E83D0020AD
:1088A0002DE9F04F964E34688DB005464FF6FF7AAD
:1088B000002C00F08C8023785A1E052A00F2A18437
:1088C000DFE802F053202003033D002D40F0BB827F
:1088D0002279012A00F0B982022A00F03683002AA8
:1088E00000F02083CDE9095507950B9507AF48F2B5
:1088F0000E65023B0895042B4AD8DFE803F0818D12
:108900007843AA00B4F81490002D40F065827D4FA2
:1089100009EB890207EB82024FEA89081589526840
:1089200002EB8505A27D062A00F27684DFE812F0CC
:10893000C201AF01940183015F0148012401002DB0
:1089400040F07882704C637F002B00F0AD8023787C
:108950006577013B062B73D8DFE813F0BD010C03EC
:10896000E6010C0272004503FE01002D40F0278253
:108970002279032A00F28D80DFE812F0F200BF00B6
:108980007D00A40004238DF81C30E388ADF8283066
:108990005E4C04F1100554F8043B384603B1984787
:1089A000AC42F8D15A4C5B495B4800233360FFF777
:1089B0009BFD2368002B50D001212046FFF7F6FDD8
:1089C000002855D034680025002C7FF474AF51493D
:1089D0005148FFF757FD0446306000287FF46BAF25
:1089E0004E494FF4B46003F057F9346863E703234A
:1089F0008DF81C30D4F80620E368CDE90932C7E7CA
:108A000001238DF81C302189A288E3680993ADF811
:108A10002810ADF82A20BBE702238DF81C30A37D77
:108A20002089A188E2680992A3F10603B3FA83F3CF
:108A30005B09ADF82800ADF82A108DF82C30A7E7B7
:108A4000002307AF0793C7E9023348F20E653B6185
:108A5000089505238DF81C309AE730494FF42470AF
:108A600003F01AF901212046FFF7A0FD0028A9D143
:108A70000DB0BDE8F08F2A4A2A4802210023237155
:108A800091801168012201F0E9FB0028F0D03468E0
:108A90002378254907AF002207924A60C7E90222DE
:108AA0003A6148F20D6524E72378072B00F2AD8286
:108AB000DFE813F0C002AB02AB02D702EF025201B3
:108AC00052010F01164D104B2968164800222271E1
:108AD00000925F8807EB87030A4F07F8232007EB14
:108AE0008307AB883B817B682B600223AB800F4AF6
:108AF0007960082301F07EFBC7E7024F3B461BE08D
:108B0000103E0020143E0020E83D0020D03D002013
:108B10002C400020083E00201C40002050E20200B3
:108B200030400020A82C0020E03D0020C4E20200DC
:108B30000135132D00F0E0821A78022A03F11403A4
:108B4000F6D105EB850007EB8003B04A5968002396
:108B500007F820300093AE48082301F04BFB94E760
:108B60000123AC49237100230968AB4A0093A8484C
:108B7000082301F03FFB88E7224641F61D55E188B6
:108B8000144608EB090207EB8202C81CB2F808C0C1
:108B900060441081C84407EB88077A89033A521A67
:108BA0007A8141F61D51002207AF8D42079208BF1E
:108BB0001546C7E90122C7E903223FF49AAEF7E25E
:108BC000964B974A5968974B91481D880623A37581
:108BD00000230093042301F00DFB10BB05EB85057A
:108BE00007EB850301221A740DB0BDE8F08F8B48A6
:108BF000A3698C4903604FF0000BC0F804B0FFF785
:108C0000E3FD002800F0E4820223A37504238048DA
:108C1000CDF800B02946E21801F0ECFA00283FF444
:108C200027AFA17D3268022913782DD8E18848F258
:108C30000D651446AEE7E38822690120A075002087
:108C4000009005F10C0172489B0001F0D3FA002856
:108C5000E7D10DB0BDE8F08F23696D48002B14BF3C
:108C600003230123A3750023009305F108010423C6
:108C700004F10C0201F0BEFA00283FF4F9AEA17D28
:108C8000326802291378D1D948F20D6577E7032BB2
:108C90000CBF05230623A375002300935C48291D00
:108CA000042304F1080201F0A5FA0028B9D10DB09F
:108CB000BDE8F08F0223A3750023009304235448DA
:108CC0002946E21801F096FA0028AAD10DB0BDE8B5
:108CD000F08F01232370544F5448DFF84CC1002318
:108CE000984603EB830207EB820110F8012F1FFA6D
:108CF00083FE52B1CA6880F800804FEA830922B926
:108D00009CF81020002A40F013820133132B0CF141
:108D1000140CE6D107AF002307932370C7E9023391
:108D2000638063603B6193E662683A485388858854
:108D3000016803339BB200209B0001EB850100908A
:108D400003252570324801F055FA0546002D3FF401
:108D50008FAE3468237824E72E4A2D48116800230B
:108D60000722227000932C4A6360082301F042FA24
:108D70000546EBE763882C4F03EB830307EB830780
:108D8000FB687BB97968224804222270012201F035
:108D900065FA0546DAE74946704407EB8007FB6849
:108DA000002BF0D01B4A1A48052302219180237022
:108DB00011680023012201F051FA0546C6E71C4A5A
:108DC000002151604FF4064507AF0022C7E9002299
:108DD000C7E902223A618CE5A27D022A00F2BB803B
:108DE000E088114F4FEA890808EB090107EB810180
:108DF00007AF4A89033A121A4A81002207924FF4B8
:108E00000645C7E902223A6173E500BFC4E20200E9
:108E1000A82C002030400020CCE20200C43D0020FD
:108E2000C0E202003C400020143E0020F13D002042
:108E3000E03D002007AF002307934FF40645C7E944
:108E400002333B6104E607AFD7E7B14B1B7803F071
:108E5000FF020292002B00F0A081DFF8D0E2BEF802
:108E60000490B9F1120F00F2A781AA4FDEF80010AA
:108E7000059509EB890007EB80002A4603781FFA65
:108E800089F86BB109F101091FFA89F8B8F1120FDD
:108E900000F1140000F28F810378029A002BF1D1C7
:108EA000436803F5805508330493002900F06F816F
:108EB0004B88033301EB83018D4231D903920B6858
:108EC00001332DD04B88033301EB83039D4227D31D
:108ED000B1F804C0D44521D0B1F800B0BBF1000F07
:108EE0001CD08A68013219D0E388039A6345DCD12B
:108EF000CEF800100AB1AEF8048000230093864A31
:108F00008648042301F076F9002840F0748109EBCB
:108F1000890307EB830301221A74A9E59D4227D830
:108F20000021AFE7022307AF23710DF11A01E368B7
:108F300007933846CDE90855FFF746FC002840F076
:108F4000BC80237848F209653FE7CDE909550795CC
:108F50000B9507AFCDE46F4FE08809EB890207EB73
:108F60008202C11C1589294411814FEA89083BE717
:108F70001946A4E76088674F626800EB800307EB3F
:108F800083034FEA800E596801F5805C002A7BD18B
:108F900001F1080294457FF6FFAE8946136801335C
:108FA0003FF4F9AE5388033302EB8305AC45FFF47D
:108FB000F2AEB2F80480D04500F09980B2F800809B
:108FC000B8F1000F00F093809168013100F08F80BC
:108FD0009BB25348626000210091858801689B0024
:108FE00001EB8501ACE662884A4F9300134407EB1E
:108FF00083070625002379684A4A0093474825706D
:10900000082301F0F7F80546A0E6013B062B3FF6E2
:1090100017AD01A252F823F0D78C0200758F020021
:10902000298D0200758D0200418A0200E78F02003F
:10903000598D02002389374F3B4A01332381002396
:1090400063806377394602F1130011F8143BB3FAD9
:1090500083F35B0902F8013F9042F6D101232370AC
:109060003AE660882B4F2E4D626800EB800307EBD9
:109070008303B2F802C05968AB8803336344AB8002
:109080004FEA800E01F5805C5388033302EB8302C4
:1090900080E762881F4F224902EB820307EB8303BC
:1090A00008688D881D815D68586002200D60888089
:1090B0000021197402FA00F398E70899164A8B8880
:1090C000E3800B882381154800950423BDF81A40DE
:1090D00001F090F8002840F089800E4B04EB8404E6
:1090E00003EB8404012323740DB0BDE8F08FAC457D
:1090F0007FF651AE2A4651E7054A012307AF1370A8
:10910000002307935360C7E90133C7E903333FE402
:10911000E03D0020143E0020C0E20200A82C002008
:1091200030400020C4E20200F13D00204040002019
:1091300049686268A4F802E001F5805C002A52D018
:109140005088033002EB8002944518D99846106885
:10915000013013D05088033002EB8005AC450DD3AD
:10916000B2F804E0D64514D0B2F800E0BEF1000F2A
:109170000FD0936801330CD083B22AE743464B44A7
:1091800007EB8307FB68002B3FF4FDAD0AE604996B
:1091900092E6AC45F2D92A46D9E7214B079507AFAD
:1091A000C3E90055C7E90155C7E9035548F2016510
:1091B0002378FFF79EBB059D002307AF0793CEE9F9
:1091C0000033C7E90133C7E903332378FFF791BBC5
:1091D00007AF0790C7E90100C7E9030048F2096536
:1091E0002378FFF786BB01F10802ADE7346848F247
:1091F0000D652378E9E5346848F20D65237807AFFB
:10920000E3E507AF002348F20E620793C7E9023394
:109210003B610892FFF7BCBB224648F20E65AEE404
:10922000404000204068FFF73BBB00BF094A11687F
:1092300004290BD038B51568074C034601211046A8
:1092400044F82530FFF7A6F9002038BD48F20B603E
:10925000704700BF38400020D03D00202DE9F04F7E
:10926000A54B8FB01A780023CDE90933CDE90B3334
:109270000D9372B1A14C04F1100554F8043B09A8F8
:1092800003B19847AC42F8D1002528460FB0BDE89D
:10929000F08F994B181D02F0FF06FFF793F9002895
:1092A000F2D1D6F8F83F5D1C00F084804FF0805278
:1092B00011695269924C934923610022A3F5A033AE
:1092C0002046E36000F08AFF05460028DDD18E4984
:1092D0008E48DFF84C92DFF84CA21C238C22FFF75B
:1092E00055F88B4BE1681A6803928A4A9B8852882A
:1092F0000792CDE9045501F5805201F5A83101919D
:1093000014210291AC464FF0010B4FF6FF77069601
:10931000B2F58056316800F01D817F48814255D1F9
:1093200071687E48814200F0A280013081424FD1B5
:10933000049B8BB10CEB8C0109EB81030398586003
:10934000022018810CF10103CDF81CC009F821009E
:109350001FFA83FC049B059306F5805E06F1080066
:10936000022300E02046046801341ED04188033106
:1093700000EB8104A645194489B270D3B0F804808B
:10938000B8450B460ED0B0F80080B8F1000F09D0F8
:109390008068B0F1FF3F05D0DAF80080404588BF13
:1093A000CAF80000A645DDD80B46022B14BF0821E1
:1093B000042157E04FF010234FF080525B69116990
:1093C00052695C1C08BF02FB01F373E701310AD14B
:1093D000A2F6FC7102E08A4200F0A6800868013023
:1093E00001F10401F7D00299013989B202910CEB25
:1093F0008C0109EB81000CF1010C4660032009F897
:1094000021001FFA8CFC019902F5805291427FF4F1
:109410007FAF069E002E00F0E5803D4A9380059BBD
:1094200013B13C4B079A5A80394B039A1A60029B3E
:10943000012B40F2D080EDB2062D40F09A802E49EB
:109440002E4C012200230A7004F110054B6054F8E1
:10945000043B09A803B19847AC42F8D114E74FF494
:10946000806308210D43012103960691CBE70CEBA5
:109470008C0109EB8104002009F8210002216660BB
:1094800021810CFA01F6A2F6F8710868013020D0AB
:10949000B1F802E00EF1030001EB8000824222D31A
:1094A0008888B8421CD00888D0B18868B0F1FF3FE6
:1094B00016D0DAF80080404501D9CAF800002089AA
:1094C0000330704420814888033001EB80018A42D8
:1094D000DBD80CF1010C45F002051FFA8CFC92E779
:1094E00084F810B0EBE7664409EB86064FF4806120
:1094F00086F810B03181ECE7E03D0020D03D00203F
:10950000A82C0020E0E20200903F00201C40002038
:1095100030400020E83D0020DEC0ADDEFE011EF13F
:10952000143E00200C3E00200399D9B10CEB8C00B6
:1095300009EB800102244E600C810CF10101CDF891
:109540001CC009F820401FFA81FC0121059145F05B
:10955000010558E7481C3FF43BAF264881423FF4E1
:1095600037AF40E70123194606930396022304917F
:10957000EDE72DD9204808A9FEF742FF053D00235D
:109580000122036043608360C360036143618361C0
:109590000270062D07D8DFE805F015061506041839
:1095A00004000323037108A91348FEF75BFF134867
:1095B0000121FEF7E3FF054600287FF465AEFFF7C3
:1095C0006FF962E601230371EDE702230371EAE715
:1095D00015F0FD0FCED10A4A0023137048F20A6538
:1095E000536052E6059B002B3FF421AF054B079AD1
:1095F0005A801CE7DEC0ADDE1C4000202C4000205D
:10960000E03D0020E83D002030B370B50D4682B04B
:10961000F1B10DF106010446FFF7D6F818B948F28A
:10962000096002B070BDBDF806000D4B666800EB26
:10963000800003EB800001210C30FEF7ABFF636874
:1096400001220C330020C5E90063A27202B070BD94
:1096500048F2046002B070BD48F20460704700BF79
:10966000143E002010B310B582B00DF1060104467F
:10967000FFF7AAF8B0B1BDF806300E4A03EB83033A
:1096800002EB8303DA684AB1A27A3AB1DA680021C0
:10969000013A0846DA60A17202B010BD48F20560D6
:1096A00002B010BD48F2096002B010BD48F204607B
:1096B000704700BF143E00202DE9F0474A4B1B784D
:1096C00082B0002B3AD00D46002900F086800A882F
:1096D0004FF6FF739A422BD04B884BB34E6816F06F
:1096E000030674D1B1F8089009F1030189B240F280
:1096F000FE33994274D880463C483346024614787B
:109700009FB254B9B2F80AE0B2F808C0F4448C44ED
:109710001FFA8CFCBCF5806F16D90133132B02F1B4
:109720001402ECD148F20666304602B0BDE8F0877C
:1097300048F20366304602B0BDE8F08748F20166A1
:10974000304602B0BDE8F08703EB830300EB8303F0
:1097500071445981264801A9FEF752FE0223046094
:109760000461446144608460C460846103706B6818
:1097700003618246878201211E48FEF70BFF2B887A
:10978000AAF808306B88CAF80C0001A91848AAF892
:109790000430AAF80690AAF80A40FEF763FEB8F172
:1097A000000F09D0DAF80C20134B88F80A401B8907
:1097B000A8F80830C8E9002410480121FEF7DEFEB1
:1097C00004460028B6D1FFF76BF82646B2E748F208
:1097D0000266304602B0BDE8F08748F20466A9E7A9
:1097E00048F20866A6E700BFE03D0020143E0020D6
:1097F0001C4000200C3E0020E83D00202C400020B2
:109800002DE9F04782B0002837D04A4B1B78002B57
:109810003FD00D4689B30A884FF6FF739A4232D083
:109820004B8883B34F6817F003077DD1B1F80890D8
:1098300009F1030189B240F2FE33994277D8064616
:109840003D483B46024614781FFA83F854B9B2F8F3
:109850000AE0B2F808C0F4448C441FFA8CFCBCF552
:10986000806F1CD90133132B02F11402EBD148F2A3
:109870000667384602B0BDE8F08748F2046738460C
:1098800002B0BDE8F08748F20367384602B0BDE891
:10989000F08748F20167384602B0BDE8F08703EB75
:1098A000830300EB830371445981244801A9FEF727
:1098B000A7FD032304600461446144608460C460C4
:1098C000846103706B6803618246A0F814800121F3
:1098D0001B48FEF75FFE2B88AAF808306B88AAF8B1
:1098E00004303368CAF818300423CAF80C0001A900
:1098F000AAF80A408AF816301048AAF80690FEF72F
:10990000B1FD104BDAF80C201B89B472C6E90024B3
:109910000D4833810121FEF731FE04460028AED107
:10992000FEF7BEFF2746AAE748F20267A7E748F21C
:109930000867A4E7E03D0020143E00201C40002002
:109940000C3E0020E83D00202C40002030B51A4B92
:109950001B7883B003B3054640B301A91748FEF74F
:109960004FFD0024042204600346C4604460846008
:1099700004614461846102702A68DA6001A90F48B9
:10998000FEF770FD0E480121FEF7F8FD054640B1D7
:109990002546284603B030BD48F20165284603B08D
:1099A00030BDFEF77DFF284603B030BD48F20465A8
:1099B000284603B030BD00BFE03D00201C40002021
:1099C0002C40002010B5184B1B7882B00BB301A9B6
:1099D0001648FEF715FD03460022062102605A6074
:1099E0009A60DA601A615A619A6119700F4801A988
:1099F000FEF738FD0E4B1A780AB101225A770D484E
:109A00000121FEF7BBFD044640B10024204602B010
:109A100010BD48F20164204602B010BDFEF740FFC1
:109A2000204602B010BD00BFE03D00201C400020D9
:109A3000E83D00202C4000202F4B1B78002B50D0FD
:109A4000002853D0002951D08B88122B51D82B4A93
:109A500003F1010C03EB8303F0B51FFA8CFC02EB5E
:109A6000830E4FF6FF7500269EF800206AB1A1F81C
:109A700004C00CF1010C1FFA8CFCBCF1140F0EF1A8
:109A8000140EF1D148F20960F0BDDEF804300A6826
:109A900003F5805442B35388033302EB8303A3429C
:109AA00004D30E60E3E79442FBD913461A680132EF
:109AB000F7D05A88033203EB82029442F1D39F8895
:109AC000AF42F0D01F88002FEDD09F68B7F1FF3F65
:109AD000E9D00B4A0B6012890281C0E900730020B3
:109AE000F0BD48F2016070470833D8E748F20460DF
:109AF000704748F209607047E03D0020143E0020A6
:109B0000E83D00202DE9F04F374C83B024780191D7
:109B1000002C5ED0002A61D0002B5FD09C88122CD4
:109B200013D8324E651C04EB840406EB8406ADB2F8
:109B30004FF6FF774FF0000834784CB19D80013527
:109B4000ADB2142D06F11406F6D148F209603AE0E0
:109B50001C68D6F804C00CF5805E002C36D0B4F832
:109B600002C00CF1030C04EB8C04744505D3C3F85C
:109B70000080E3E7E645FAD9644621680131F6D072
:109B8000B4F802C00CF1030C04EB8C0CE645EED3E8
:109B9000B4F80490B945EDD0B4F800A0BAF1000FC4
:109BA000E8D0D4F808B0BBF1FF3FE3D081451C609A
:109BB000CFD101998A45CCD10D4BC2F800B01B8999
:109BC00013815460002003B0BDE8F08F0CF108044D
:109BD000CBE748F2016003B0BDE8F08F48F20460C3
:109BE00003B0BDE8F08F00BFE03D0020143E002030
:109BF000E83D0020544B1B78002B00F09F8000288C
:109C000000F09F80002314222DE9F04F19460360D5
:109C10004E4CDFF83CA143609E468360C3600382E4
:109C2000028099461D464FF6FF7698461EE0BCF826
:109C30000420B24269D0BCF80020002A65D0DCF8CC
:109C40000820013261D0828801328280BCF8022073
:109C500003320CEB820C634532D80EF1010EBEF1DB
:109C6000130F04F1140449D0B0F80C90B4F80AC0F2
:109C700022896368624492B2002B58D01F6857450E
:109C800055D15F68DFF8CCB0BB44BBF1010F4ED8B3
:109C90002E4F61440EEB8E0C07EB8C0C1544DCF858
:109CA0000CC0C2F5806292B2E0444A4503F1080C50
:109CB00089B2ADB21FFA88F888BF828103F580535C
:109CC000DCF800200132C8D0BCF8022003320CEBD3
:109CD00082029342ABD2C289A3EB0C0302EBA30333
:109CE000C381C3880EF1010E4FF001070133BEF1AD
:109CF000130F0774C38004F11404B5D1A0F80280D7
:109D0000018145810020BDE8F08FB0F80690C2893E
:109D100009F10109A0F80690BCF8029003324A4408
:109D2000C281BCF8022003320CEB820C93E7B0F83E
:109D300000B00BF1FF3BA0F800B0A9E748F20160CA
:109D4000704748F204607047E03D0020143E002058
:109D5000DEC0ADDE02FEE10E29DF704728DF70476E
:109D60000846704700207047024B187A003818BF29
:109D700001207047E4400020034B187A0122B0FA1A
:109D800080F05A7440097047E440002008B510463E
:109D90001A4603F089FF002008BD00BF10B5064B2E
:109DA00006480024C3E90044C3E902441C61FEF7ED
:109DB00005FB204610BD00BFE4400020D440002039
:109DC00010B50A4C0A4B43602046FEF7FBFB08B176
:109DD000002010BD03F0E0FC02462274054906484D
:109DE0001C238C22FEF7D2FA002010BDE440002094
:109DF000D4E2020048400020D440002030B53A4D63
:109E00002B7A87B0002B39D0384B1C6802232B7279
:109E10002379002B3DD0012B24D023689A68BAB156
:109E20000023CDE902330093049303230193A36835
:109E300005932379002B4AD0012B07D102238DF8FB
:109E40000030E368616904911B0302936846904700
:109E50002749284800232B726B6007B0BDE83040CB
:109E6000FEF742BBD4E903031844FFF777FF20B3A2
:109E70001128D2D101232B7207B030BD1C491D48D7
:109E8000FEF700FB194B044618600028BED168603D
:109E9000F2E7D4E90523D21AB2F5805F28BF4FF468
:109EA00080529208E1682069012A38BF01221944D2
:109EB0001844FFF751FF0028DAD12B7C002BDBD1AF
:109EC0000146022007B0BDE8304000F015B801237C
:109ED0008DF800302369E168029363696846CDE933
:109EE00003139047B4E700BFE4400020FC4000208B
:109EF000F8400020D4400020831E012B41D810B52B
:109F0000354C237A86B0002B39D0022B30D1032870
:109F10003DD0324B00221B68E2601A79002A43D000
:109F2000012A25D1D3E9042101328A421A611FD1C5
:109F3000002020721A689168B1B10022CDE9022296
:109F4000009204929A68019005921A79002A38D0FA
:109F5000012A07D102228DF80020DA68586904909E
:109F600012030292684688471D491E48FEF7BCFA54
:109F7000637C3BB906B0BDE81040FFF73FBF06B0B9
:109F800010BD704706B0BDE8104003F0F5BBE368B4
:109F90000133082B01D8E360EAE7104B00221B686D
:109FA000E26022720D20C5E7D3E90512881AB0F5E8
:109FB000805F94BF121802F5805291429A61D7D106
:109FC000B6E701228DF800201A690292DA685B690F
:109FD000CDE90323C6E700BFE4400020FC40002099
:109FE000F8400020D4400020F0B585B007460C466C
:109FF000184803A915461E46FEF702FA30B38446F8
:10A00000240B866007600123CCF80C40124E1148E7
:10A01000CCF814500024CCF8044003A9CCF810402C
:10A02000CCF818408CF80430FEF71CFA301DFEF70F
:10A03000C9FA10B1204605B0F0BD737C002BFAD1EF
:10A040000190FFF7DBFE019805B0F0BD042005B0DC
:10A05000F0BD00BFD4400020E4400020F0B585B042
:10A0600006460F46164803A915461C46FEF7C8F9D2
:10A0700010B384460A9B066083600761114ECCF8DA
:10A08000144000240E48CCF80C5003A9CCF804402E
:10A09000CCF81840FEF7E6F9301DFEF793FA10B140
:10A0A000204605B0F0BD737C002BFAD10190FFF77C
:10A0B000A5FE019805B0F0BD042005B0F0BD00BFBD
:10A0C000D4400020E440002000F0FD03012B00D02C
:10A0D000704730B53D4DA0F10100B0FA80F02B7A09
:10A0E0000022400987B06A742874002B4DD0384B89
:10A0F0001C6802232B722379002B51D0012B07D12E
:10A10000D4E903031844FFF729FE50B311281BD0EC
:10A1100023689A6872B10023CDE902330093049357
:10A1200003230193A3680593237923B3012B0FD055
:10A13000684690472749284800232B726B6007B078
:10A14000BDE83040FEF7D0B901232B7207B030BD17
:10A1500002238DF80030E368616904911B030293C8
:10A16000E6E72B7C002BF1D10146022007B0BDE8C9
:10A170003040FFF7C1BE01238DF800302369E1684C
:10A1800002936369CDE90313D2E712491248FEF73F
:10A1900079F90F4B044618600028AAD16860D5E70A
:10A1A000D4E90523D21AB2F5805F28BF4FF480525C
:10A1B0009208E1682069012A38BF01221944184435
:10A1C000FFF7CAFD0028A1D1CBE700BFE440002083
:10A1D000FC400020F8400020D440002040B139B1BC
:10A1E00010B40C680160234611465DF8044B184713
:10A1F0000E2070472DE9F047DDF820A048B342B3A8
:10A2000006684EB31D460BB34768D7F80490B3FBFE
:10A21000F9F809FB1838B8F1000F17D142EA010428
:10A22000A4078E460FD1C468A1420CD3046901F182
:10A23000FF3E7544A54206D8CDF820A0F468A44698
:10A24000BDE8F04760471020BDE8F0870920BDE871
:10A25000F0870E20BDE8F0870820F5E7D8B1F0B50B
:10A260000668D6B1AAB1446827687C1E0C428E46A7
:10A270000DD1C468A1420AD34C1E07FB024E0469EB
:10A28000A64504D83469A446BDE8F04060471020D4
:10A29000F0BD0920F0BD0E2070470820F0BD00BFC2
:10A2A0004FF0805310B4D3F83021082A23D0844AC9
:10A2B000D2F8883043F47003C2F88830BFF34F8F70
:10A2C000BFF36F8F4FF08053D3F83021082A00F08E
:10A2D000B3804FF01023D3F80022002AC0F2BF80D1
:10A2E000D3F80432002BC0F2BA80764B764A5DF880
:10A2F000044B1A6070474FF080410020C1F80C01F8
:10A30000724AC1F81001C1F83805D3F80414C2F834
:10A310002015D3F80814C2F82415D3F80C14C2F889
:10A320002815D3F81014C2F82C15D3F81414C2F859
:10A330003015D3F81814C2F83415D3F81C14C2F829
:10A340004015D3F82014C2F84415D3F82414C2F8E9
:10A350004815D3F82814C2F84C15D3F82C14C2F8B9
:10A360005015D3F83014C2F85415D3F83414C2F889
:10A370006015D3F83814C2F86415D3F83C14C2F849
:10A380006815D3F84014C2F86C15D3F83411D3F81B
:10A390004434C2F87035052942D84D4B5B5C1BB183
:10A3A0004C4B4D4AC3F88C264C4B5B5C73B14FF061
:10A3B00080534B49D3F83021FB20C1F81805082AF7
:10A3C000D3F834117FF473AF052929D8454B5B5C72
:10A3D000BBB14FF080524FF08040D2F85832D0F8E5
:10A3E000E41ED2F8304121F00F0103F00F030B43BC
:10A3F000C0F8E43E082CD2F834117FF458AF052998
:10A400000ED8394B5B5C5BB14FF08053374AD3F8C1
:10A4100030314FF40071082BC2F840167FF447AF7B
:10A420004FF08043D3F80024D2077FF540AF6FF0A0
:10A430000102C3F800243AE7D3F83431052B08D9D8
:10A440004FF010224FF08043D2F80822C3F858256D
:10A450003FE7274AD35C002B3FF43BAFF0E7254AA8
:10A460000123C2F80435D2F80034002BFBD04FF0A2
:10A47000102312211F4AC3F80012D2F80034002B17
:10A48000FBD04FF0102312211A4AC3F80412D2F85D
:10A490000034002BFBD000231649C2F80435D1F854
:10A4A0000034002BFBD0BFF34F8F0549124BCA6815
:10A4B00002F4E0621343CB60BFF34F8F00BFFDE7B0
:10A4C00000ED00E0E82C00200090D00300C0004028
:10A4D00008E30200005000404881030008E3020046
:10A4E00000F0004008E3020008E302000090024090
:10A4F00000E3020000E001400400FA05032838B53B
:10A50000044626D8154B1C5D630904F01F050CD0CA
:10A51000012B0FD14FF6FF73EB40DB070AD5104A32
:10A520000123AB40C2F80C3538BD4FF0FF33EB4090
:10A53000DA0706D40B494FF4F67001F0ADFB1F2C7F
:10A54000EDD825464FF0A0420123AB40C2F80C35B0
:10A5500038BD0549412001F09FFBD3E7E8E3020045
:10A56000000300507CE3020010E30200032838B52A
:10A57000044626D8154B1C5D630904F01F050CD05A
:10A58000012B0FD14FF6FF73EB40DB070AD5104AC2
:10A590000123AB40C2F8083538BD4FF0FF33EB4024
:10A5A000DA0706D40B494FF4F67001F075FB1F2C47
:10A5B000EDD825464FF0A0420123AB40C2F8083544
:10A5C00038BD0549472001F067FBD3E7E8E3020007
:10A5D000000300507CE3020010E3020010B568B9EC
:10A5E0000E4CA368012262703BB1D3E90023002026
:10A5F000A2609847A368002BF7D110BD0128FCD1B9
:10A60000064C2369A070002BF7D0D3E9002301206A
:10A61000226198472369002BF7D110BD004100202B
:10A6200070B910B5074CA368012262703BB1D3E941
:10A6300000230020A2609847A368002BF7D110BD2B
:10A64000704700BF0041002038B50E4C237843B15D
:10A6500085250D4BD3F800340BB10123A370284698
:10A6600038BD0A486360A3602361E36000F0F8F836
:10A67000054603F091F810B101232370E9E700F0DB
:10A6800005F9F9E70041002000000140DDA50200C6
:10A6900030B5234D2B7883B00446002B33D0AB78F4
:10A6A00003F0FF02ABB114B16368012098470023A7
:10A6B0000DF107008DF80730FDF728FCEB689DF8D9
:10A6C00007000133EB60FDF757FCEB6803B303B001
:10A6D00030BD0DF107008DF80720FDF717FC64B1C0
:10A6E0002A6942B1944208D0134601E09C4204D04A
:10A6F0001B68002BFAD122602C61EB68002BDDD1A6
:10A7000000F0ECF8DAE70749F62001F0C5FAC6E7F1
:10A7100004494FF4897003B0BDE8304001F0BCBA81
:10A7200000410020ECE3020030B51E4C237883B0DA
:10A730009BB1E368CBB100230DF107008DF8073022
:10A74000FDF7E4FBE368013BE360E3689BB19DF840
:10A750000700FDF711FC03B030BD134940F217109C
:10A7600001F09AFAE368002BE5D10F494FF48C70A1
:10A7700001F092FADFE703F00FF868B90B4BD3F85A
:10A780000054002DE3D100F0C9F89DF80700A57032
:10A79000FDF7F2FB03B030BD03497B2001F07CFAEA
:10A7A000ECE700BF00410020ECE3020000000140A4
:10A7B00010B5012882B004D0032821D0B0B102B076
:10A7C00010BD224C00230DF107008DF80730FDF776
:10A7D0009DFB237823B3E3689DF80700012213440F
:10A7E000E360A270FDF7C8FB02B010BD184B012258
:10A7F000C3F88020BFF34F8FBFF36F8F02B010BD3F
:10A80000124B1B7833B100F041F802B0BDE81040A4
:10A81000FFF78ABF0F4940F2522001F03DFAF2E7FC
:10A820000D486360A3602361E36000F019F802F053
:10A83000B3FF40B1094AD2F8002401232370002A53
:10A84000C9D0A370C7E700F021F8F3E7004100206A
:10A8500000E100E0ECE30200DDA5020000000140A1
:10A8600010B5044640B1074A107918B901211460A7
:10A87000918010BD852010BD0349A42001F00CFA81
:10A88000F1E700BF1441002064E4020008B5104B5A
:10A890001B794BB10F4B1A68D2070DD54FF080438F
:10A8A0000122C3F8182508BD0B49BD2001F0F4F9B9
:10A8B000084B1A68D207F1D4C02283F80023012282
:10A8C0001A604FF080430122C3F8182508BD00BF6D
:10A8D0001441002000E100E064E4020000B50D4BEB
:10A8E0001B7983B083B14FF080430022C3F8042169
:10A8F000D3F804210192019802210122C3F8041324
:10A900009A6003B05DF804FB0349EA2001F0C4F942
:10A91000E9E700BF1441002064E4020000B50F4BDA
:10A920001B7983B0A3B14FF0804202210023C2F80B
:10A930000813C2F80431D2F80431019301230199BC
:10A94000D360D2F81834DB03FBD403B05DF804FB0A
:10A950000349F72001F0A0F9E5E700BF144100200A
:10A9600064E4020010B54FF0804382B0D3F80021B8
:10A9700062B10021164AC3F80011D3F800115079D2
:10A9800000910121009CC3F80813A8B14FF0804347
:10A99000D3F80421CAB10022C3F80421D3F804215A
:10A9A00001920B4A01980221C3F808131368012091
:10A9B00002B0BDE8104018471368517198474FF036
:10A9C0008043D3F80421002AE5D102B010BD00BFB6
:10A9D0001441002030B5224C94F86A3083B0002B2B
:10A9E0003AD14FF6FF704FF0FF0C5A09012A18BFF9
:10A9F0004FF0FF3103F01F0208BF014621FA02F2B7
:10AA0000D20748BFE21803F1010348BF82F830C003
:10AA1000302BEAD14FF0FF352C22FF211148256061
:10AA200003F06BF91049114B25660020C0226066C7
:10AA3000888083F8062340221A600D4BC3F87C01FE
:10AA4000D3F87C1101914FF000420121019D84F85F
:10AA50006A10C3F8042300E0082003B030BD00BF33
:10AA60001C410020204100208041002000E100E046
:10AA700000600040034B93F86A00003818BF0120C3
:10AA8000704700BF1C4100202DE9F04747090446EC
:10AA90000E46914678D0012F65D000F01F08A24DD8
:10AAA000A2494FF40C7001F0F7F82A1992F93030EE
:10AAB000002B66DAB378C3F3400C9B0767D52B688D
:10AAC000013300F002816B68013300F01381012231
:10AAD0000821531C8B4243D255F82300013062D029
:10AAE000931C8B423CD255F8230001305BD0D31C21
:10AAF0008B4235D255F82300013054D0131D8B42C0
:10AB00002ED255F8230001304DD0531D8B4227D251
:10AB100055F82300013046D0931D8B4220D255F8C2
:10AB2000230001303FD0D31D8B4219D255F82300AA
:10AB3000013038D002F108038B4211D255F82300BE
:10AB4000013030D002F109038B4209D255F82300BD
:10AB5000013028D00A328A4202D2EB6A013321D076
:10AB60000420BDE8F0874FF6FF7304F01F0823FAB6
:10AB700008F3DA0793D56C4D2A1992F93030002B7F
:10AB800098DB0820BDE8F0874FF0FF33EDE72B6A34
:10AB9000013300F0A1806B6A013300F0A480092228
:10ABA0000C2196E70B232A1945F823904FFA83F9D5
:10ABB00082F83090BCF1000F02D12B4483F858404A
:10ABC000B07843071DD4C00749D5002F72D0012F9C
:10ABD00058D057494FF4F67001F05EF8554B03EB2F
:10ABE0008808D8F8003723F00203C8F80037524924
:10ABF000E20804F00707885C0123BB4003438B5441
:10AC0000B07810F002001DD04FEA890303F18043B1
:10AC100003F5C0433178D3F8100520F44F3020F409
:10AC20004070C3F8100522020904D3F8100501F49E
:10AC3000403102F47C520A430243C3F8102500203D
:10AC4000BDE8F087A9F1080945FA89F5327895F849
:10AC5000603043EA821385F86030BDE8F08796F8EB
:10AC600001A0E7B1012F14D14FF6FF7323FA08F3C7
:10AC7000DA070ED52F4A08F5E0784FEA8A0342F842
:10AC80002830B4E74FF6FF7323FA08F3D907A0D5AD
:10AC9000A4E727494FF4F67000F0FEFFEAE74FF013
:10ACA000FF3323FA08F818F0010F33D0A0464FF015
:10ACB000A042E0E74FF0FF3323FA08F818F0010F45
:10ACC0001FD0A0464FF0A04389E7C5F800904FF091
:10ACD000000982F8309073E70823C5F8209082F8C5
:10ACE0003030994669E70923C5F8249082F830305E
:10ACF000994662E7C5F804904FF0010982F8309058
:10AD00005EE70B494FF4F67000F0C6FFA0464FF027
:10AD1000A04364E706494FF4F67000F0BDFFA0467B
:10AD20004FF0A042A7E700BF1C410020DCE4020076
:10AD30007CE3020000030050804100202DE9F04335
:10AD4000460983B004460D467ED0012E3FD000F068
:10AD50001F08594F594907EB04094FF4187000F0C8
:10AD60009BFF99F93030002B40DA544940F26120C2
:10AD700000F092FF99F93030072B39DCDAB2072A5C
:10AD800022D89A0002F1804202F5C042D2F8101592
:10AD900041F00101C2F8101503F1400252B29200D5
:10ADA00092B202F1804202F5C042002111601268A5
:10ADB0000192019A45B157F823202AB14049012256
:10ADC00002FA03F3C1F8043303B0BDE8F0834FF691
:10ADD000FF7304F01F0823FA08F3DF07B9D5364FD5
:10ADE00007EB040999F93030002BBEDB072BC5DDDA
:10ADF000083B47FA83F797F860309B09032B2ED066
:10AE0000012B0CBF4FF400354FF44035002E3CD0E1
:10AE1000012E1CD02B494FF4F67000F03DFF1F2C83
:10AE20001BD8A0464FF0A04303EB8803D3F80017CC
:10AE300021F44031C3F80017D3F800272A43C3F8A0
:10AE4000002703B0BDE8F0834FF0FF33C1E74FF6B2
:10AE5000FF7323FA08F3DA07DCD51B4BE4E726B3CC
:10AE6000012E19D017494FF4F67000F015FF1F2C72
:10AE700018D825464FF0A043D3F81025EA4002F039
:10AE8000010202321504002EC2D14FF0FF3323FA23
:10AE900008F3D907C5D4BDE74FF6FF7323FA08F3CB
:10AEA000DB07DFD5084B4546E6E74FF0FF3323FAD3
:10AEB00008F3D807DDD4D5E71C410020DCE402000C
:10AEC000006000407CE3020000030050F8B5460932
:10AED000044652D0012E2CD000F01F07354D3649C4
:10AEE000254440F28B2000F0D7FE95F93030002B3E
:10AEF0002CDA31494FF4237000F0CEFE95F9303052
:10AF0000072B25DD002E41D0012E39D14FF6FF73DE
:10AF1000FB40DB0734D5294B03EB8707D7F8003715
:10AF200023F44033C7F80037D7F80037C7F80037A5
:10AF3000F8BD4FF6FF7304F01F07FB40D907CDD5CE
:10AF40001C4D254495F93030002BD2DB072BD9DC82
:10AF5000DAB2072AECD89A0002F1804202F5C04228
:10AF6000174CD2F81005012120F0010001FA03F37B
:10AF7000C2F81005C4F80833F8BD4FF0FF33DAE724
:10AF800010494FF4F67000F087FEC4E74FF0FF332E
:10AF900023FA07F7FA0703D527464FF0A043BBE78C
:10AFA00008494FF4F67000F077FE27464FF0A043B3
:10AFB000B2E700BF1C410020DCE4020000030050A7
:10AFC000006000407CE3020070B54509044619D0DA
:10AFD000012D2BD000F01F061E4940F2B22000F0D8
:10AFE0005BFE012D2AD01C494FF4F67000F054FE90
:10AFF0001F2C13D9194BD3F810053446E04000F04C
:10B00000010070BD4FF0FF33C340D8071CD54FF08F
:10B01000FF33E340DA0758BF2646E4D54FF0A0439C
:10B02000D3F81005E04000F0010070BD00F01F06ED
:10B030004FF6FF73F340DB07CED5DBE74FF6FF7328
:10B04000F340D907D6D4CEE7024940F2B22000F04F
:10B0500023FEDCE7DCE402007CE302000003005096
:10B060002DE9F04F002387B0CDE90433BE4AD2F872
:10B070000011012900F093811E46BB4BD3F8042137
:10B08000012A00F07D81B84BD3F80821012A00F095
:10B090005B81B54BD3F80C21012A00F04681B24BFD
:10B0A000D3F81021012A00F03181AF4BD3F81421DD
:10B0B000012A00F01C81AC4BD3F81821012A00F0C2
:10B0C0000781A94BD3F81C21012A09D0A64BD3F83C
:10B0D0007C21012A00F0708146BB07B0BDE8F08FEB
:10B0E000D3F804231706F1D50022C3F81C21D3F8A6
:10B0F0001C110291D3F87C110298012946F08006B8
:10B1000014D1C3F87C21D3F87C3103934FF0A042D3
:10B11000039BD2F82015954B0491C2F82015D3F863
:10B1200020250592C3F8202546F00046904F0125C2
:10B130000024A30003F180432E4203F5C0434FEAED
:10B1400045050BD0D3F8100557F82420D3F8101577
:10B15000C0F30520C1F3014102B190470134082C2E
:10B16000E7D1002EB9DADFF810A2DFF8109219F952
:10B17000014B651C10D0C4F3C20202F118030DEBA1
:10B18000030204F0070112F8082C01238B401A4235
:10B19000E6B204F03F0413D1D145E8D14FF0A0430B
:10B1A0007249D3F820250492C3F82025D1F8203520
:10B1B0000593C1F820351343D7D107B0BDE8F08F10
:10B1C000620906F01F0843D14FF0FF3323FA08F35A
:10B1D000D80740F1168100944FF0A04B23460BEBAB
:10B1E0008305D5F80077C7F30147022F14BF4FF44A
:10B1F00000334FF44033002A45D14FF0FF3222FA9A
:10B2000008F818F0010F45D0D5F8002722F4403295
:10B21000C5F80027D5F800271A43C5F80027544B76
:10B220001A1992F9302053F82250009B01229A40BB
:10B23000CBF82025002DAFD0B109032905D0022F6E
:10B2400040D0032FA8D10229A6D12046A847A3E7C2
:10B250004FF6FF7323FA08F3D90740F1C5804FEA90
:10B26000880505F1A045DFF804B1D5F8007ACDF8DE
:10B270000080C7F30147022F05F540750CBF4FF45E
:10B2800040334FF400334FF6FF7222FA08F818F0FB
:10B29000010FB9D1374901934FF4F67000F0FCFC6F
:10B2A000D5F80027019B334922F44032C5F8002726
:10B2B000D5F800271A43C5F800274FF4F67000F0C0
:10B2C000EBFCACE701297FF467AF2046A84763E7B2
:10B2D000D3F8042352067FF5F4AE0022C3F81821F8
:10B2E000D3F818310293029B46F04006E9E6D3F802
:10B2F000042391067FF5DFAE0022C3F81421D3F8B2
:10B3000014310293029B46F02006D4E6D3F80423BE
:10B31000D0067FF5CAAE0022C3F81021D3F8103151
:10B320000293029B46F01006BFE6D3F804231407ED
:10B330007FF5B5AE0022C3F80C21D3F80C3102938F
:10B34000029B46F00806AAE6D3F8042355077FF5CA
:10B35000A0AE0022C3F80821D3F808310293029B63
:10B3600046F0040695E600BF006000400003005070
:10B370001C4100207CE30200804100207C41002031
:10B38000D3F8042397077FF57EAE0022C3F804218B
:10B39000D3F804310293029B46F0020673E6D2F81A
:10B3A000046316F001063FF468AEC2F80031D2F82B
:10B3B00000310293029B60E60022C3F87C21D3F89F
:10B3C0007C3103934FF0A042039BD2F82015134B1E
:10B3D0000491C2F82015D3F820250592C3F8202542
:10B3E000002E3FF4C0AE9FE60D4901924FF4F67077
:10B3F00000F052FCDFF824B0019ACDF800804346FB
:10B40000EDE6074901924FF4F67000F045FC4FF06D
:10B41000A04B019A00942346E1E600BF00030050D0
:10B420007CE3020010B5074C236813B1BDE810405F
:10B4300018470549512000F02FFC2368BDE8104053
:10B44000184700BF8841002054E502002DE9F04173
:10B45000054616460C46002951D0002E55D06B7972
:10B46000304A314F42F8236003EB4303FB5C002B6F
:10B470003CD1A67895F90480B31E012B02D9731F25
:10B48000022B47D84346B8F1000F27DB08F160488C
:10B49000760108F56148F6B288F80063002B08DBF6
:10B4A00022495809012203F01F0302FA03F341F86D
:10B4B00020302688D5F80080B6F5805F19D2C8F80C
:10B4C00008656B792079E17803EB4303FA18507033
:10B4D00091700120F8540020BDE8F081144A08F072
:10B4E0000F087601F6B202F80860D7E70820BDE839
:10B4F000F08110494FF4BE7000F0CEFBDFE70E493B
:10B50000512000F0C9FB002EA9D10B49522000F0B8
:10B51000C3FBA4E709496B2000F0BEFB95F904309A
:10B52000B1E700BF984100209041002000E100E019
:10B5300014ED00E0D4DF0200CCE5020040E00200A0
:10B5400038B543790A4D03EB43010446695C012990
:10B5500007D15A001344226802200121E8541160E7
:10B5600038BD0449822000F097FB63795A00F1E767
:10B5700090410020CCE502002DE9F0410C464179D4
:10B580002E4D01EB41011E466B5C82B08046174692
:10B59000002B4AD098F80630A34241D9D8F80030A1
:10B5A00027F07F424FF48037A740C3F84873C3F8B1
:10B5B000087398F8051001EB4100284490F801C089
:10B5C0004800BCF1000F1AD004F5A87C014443F8F0
:10B5D0002C20D3F804E50D44AEEB020C724588BF75
:10B5E0000CF1FF1CAA7888BF0CF57F4C624521DC6A
:10B5F0005EB90020C3F8447302B0BDE8F08104F5E1
:10B60000A87143F82120002EF3D05034A400A4B236
:10B6100000221A511A590192019AC3F80473E8E7FB
:10B620000749B52000F038FBB8E70549B42000F021
:10B6300033FBAFE70D2002B0BDE8F0819041002060
:10B64000CCE502002DE9F041274E284FDFF8A0801D
:10B6500084B000244FF48035D6F804332B4211D047
:10B6600057F824300022E0B263B1C6F84853C6F858
:10B67000085347F8242057F824200392D8F80030C4
:10B68000039A98470134032C4FEA4505E4D1164B41
:10B69000D3F80423D10702D5D3F80021C2B9124B45
:10B6A000D3F80423920710D5D3F804216AB10022FD
:10B6B000C3F80421D3F804210D4B0192019A1B68B1
:10B6C000052004B0BDE8F041184704B0BDE8F081A2
:10B6D0000022C3F80021064AD3F800310293042067
:10B6E0001368029A9847DAE700B0004040B1004082
:10B6F000984100202DE9F041274E284FDFF8A08027
:10B7000084B000244FF48035D6F804332B4211D096
:10B7100057F824300022E0B263B1C6F84853C6F8A7
:10B72000085347F8242057F824200392D8F804300F
:10B73000039A98470134042C4FEA4505E4D1164B8F
:10B74000D3F80423D10702D5D3F80021C2B9124B94
:10B75000D3F80423920710D5D3F804216AB100224C
:10B76000C3F80421D3F804210D4B0192019A5B68C0
:10B77000052004B0BDE8F041184704B0BDE8F081F1
:10B780000022C3F80021064AD3F800310293204674
:10B790005368029A9847DAE700400240404102406D
:10B7A0009841002072DF704773DF704776DF704783
:10B7B0007ADF70477CDF70477FDF70478FDF70472D
:10B7C000B1DF7047024A40F21911FCF777B800BFA9
:10B7D00040E60200024A40F2C311FCF76FB800BF16
:10B7E00040E6020010B5012000F0C0FC044A054804
:10B7F00001239360BDE8104028220021FFF7BCBE62
:10B8000000400240E0E602002DE9F041274C284DBF
:10B810002378284E284F0022132BADF6A87D2A70DE
:10B8200006F57A5824D803EB830303EB8303D9008E
:10B8300002AA06EB8101043913460DF1D00C51F830
:10B84000040F03F8010B9C45F9D11C4B1C491888C7
:10B8500001F06AFE90B91B48237829780268013309
:10B86000DBB201310132132B297002602370DAD967
:10B87000154A3B7812780133934203DB0DF6A87D1D
:10B88000BDE8F08102AAD9B210460192397000F0E9
:10B890002BFE084B019A013810F8011F43F8041BD6
:10B8A0009845F9D100212170C3E700BFA580002091
:10B8B000A4800020A0410020A6800020062D0020AA
:10B8C0008080002028800020BC3C002008B5037840
:10B8D00003B108BD064B3B211888FFF767FF00281E
:10B8E000F7D0BDE80840034A4FF4DC71FBF7E6BF30
:10B8F000062D002040E6020038B504460D4600F053
:10B9000043FC7CBB1A4B1A7822B91A4A01211970E0
:10B91000156038BD174B1968691A002905DD164DE9
:10B92000CC1785FB0131C4EBA114144B1B78002B01
:10B93000EFD107EE904AF8EEE77AB2EE047AC7EE5E
:10B94000877A17EE900A02F045F941EC100B02F0ED
:10B950005BF951EC100B02F029F9BDE83840C0B298
:10B9600000F0E2BCBDE83840002000F0DDBC00BFC4
:10B970002480002020800020F712DA4B9C810020D8
:10B98000262804D00F4A4FF42671FBF797BF08B55D
:10B990000D4B0E491888372201F0C6FD30F0080221
:10B9A00007D043F20202904203D043F20142904298
:10B9B00000D108BDBDE80840024A40F29321FBF7E0
:10B9C0007DBF00BF40E60200062D002080800020E1
:10B9D00030B5ADF5835D1D4B1D4D83B00021044690
:10B9E00032A8197000F080FDA5F57A53421E12F8B6
:10B9F000011F43F8041BAB42F9D1164B0DF1FF3286
:10BA000003F5487053F8041F02F8011F8342F9D16F
:10BA100011481249124A002303600120087011499D
:10BA2000114813700B60008810496A4601F07CFDD4
:10BA300002202CB1FEF762FD0DF5835D03B030BD31
:10BA4000FEF794FD0DF5835D03B030BDA6800020A8
:10BA5000208000209C41002028800020A58000201C
:10BA6000A4800020A8800020062D002080800020D7
:10BA7000022A104601D0FFF7ABBF024B00221A701A
:10BA8000704700BF2480002030B50388212B83B08D
:10BA9000044616D93B3B9AB21C2A14D81C2B12D848
:10BAA000DFE803F0B1111111111111111111111170
:10BAB000111111111111111111111198111111A65A
:10BAC000C0000F2B01D803B030BD103B112BFAD8AA
:10BAD00001A252F823F000BF3FBB020089BB020065
:10BAE000C7BA0200B9BB0200C7BA0200C7BA020057
:10BAF000C7BA0200C7BA0200C7BA0200C7BA02003A
:10BB0000C7BA0200C7BA0200C7BA0200C7BA020029
:10BB1000C7BA0200C7BA0200C7BA020021BB0200BE
:10BB200000238088ADF8043001A9FFF747FE002804
:10BB3000C9D0514A40F24121FBF7C0FEC3E70120C2
:10BB4000FEF7DCFC0020FEF711FD4C4A4C4BA188AF
:10BB50004C4819800025156001F0BCFB002879D104
:10BB6000FBF722FE00286FD1474BA0881B88ADF859
:10BB7000043001A9FFF722FE0028A4D03E4A40F27B
:10BB80002221FBF79BFE9EE70120FEF7EFFC3C4BDA
:10BB90004FF6FF721A80FBF727FE002866D13B4B59
:10BBA00001211878FFF700FE002859D1002003B0CA
:10BBB000BDE83040FEF7A2BC314A00231088852141
:10BBC0001A46FFF7F9FD00283FF47DAF2A4A40F2FC
:10BBD000352122E02A4A0023108819461A46FFF729
:10BBE000EFFD00283FF46FAF234A40F2472114E0F5
:10BBF000A0881321FFF7DAFD00283FF464AF1E4A46
:10BC000040F2572109E0A0881321FFF7CFFD00285B
:10BC10003FF459AF184A40F24F2103B0BDE830401D
:10BC2000FBF74CBE1A4A1B491368A079097803EB4D
:10BC300040038B421360FFF646AF0023136003B04E
:10BC4000BDE83040FFF7E0BD0B4A40F21A21FBF798
:10BC500035FE89E7084A4FF40671FBF72FFE7FE7B0
:10BC6000054A40F2E511FBF729FE9FE7024A40F240
:10BC70002B21FBF723FE92E740E6020028800020FC
:10BC8000062D002098800020D4E60200042D00201C
:10BC9000A8800020A480002003460A4601481946D7
:10BCA000FBF70CBEEFBEADDE00B5AA49ADB0192062
:10BCB00000F0CEF9FCF720F8002840F0E580FEF710
:10BCC000C3FC002840F040810020FEF7E1FCA24BBD
:10BCD000A24A93E8030040F6FF731D90ADF8781078
:10BCE0009F48ADF874301DA9FFF7B0FB9C480123B5
:10BCF00028220021FFF740FC002840F01F819848CF
:10BD0000FFF71EFC01F030FC002840F011810023F9
:10BD10001DA901201D9301F099FD002840F002812A
:10BD20001DA801F0E9FD002840F0F680684600F00B
:10BD300079FA002000F0F8FAFCF752FC002840F0F5
:10BD4000E580884840F233320121FBF7D1FC00281E
:10BD500040F0D680112384498DF8383014220EA883
:10BD6000FFF728FD002840F0C680804A1D92002180
:10BD70004FF4C8731DA8ADF87810ADF87A30FFF70E
:10BD800017FD002840F0B2807948002101F0B2F997
:10BD9000002840F0A680774B77481D9300221DA90C
:10BDA0000E9201F085FA002840F09580734B74489C
:10BDB0000E930EA901F04EFB002840F08680704BD8
:10BDC000704C9B7C8DF81E3041F223503C220021A8
:10BDD000ADF81C000EA801F090FF02233C220021C8
:10BDE0008DF838301DA840F20163ADF83A3001F00B
:10BDF00084FF224607A9012322910EA852F8041BB2
:10BE0000ADF8843000F02AFC002859D15E4AA168C0
:10BE10001DA800F023FC00284DD1002301214FF480
:10BE2000486408930D938DF820108DF8351057480D
:10BE30005449099308AACDE90B330A94FFF7B2FCE1
:10BE400098BB002320935249524A1D934FF4A024DB
:10BE500021934FF4A033CDE91E431DA80323CDE960
:10BE600022128DF8803000F01FFFC0B9474B01212E
:10BE70001878FFF799FC60B90020FEF73FFBFCF74C
:10BE8000C5FB00F0A7F9FAE7434AB521FBF716FD19
:10BE900015E7414A40F2E511FBF710FDECE73E4A99
:10BEA0004FF4ED71FBF70AFDE0E73B4A4FF4867172
:10BEB000FBF704FDC5E7384AFD21FBF7FFFCACE7C3
:10BEC000354AFA21FBF7FAFCA0E7334A4FF4D17167
:10BED000FBF7F4FC73E7304A4FF4CE71FBF7EEFC4E
:10BEE00064E72D4ADC21FBF7E9FC54E72A4AD32119
:10BEF000FBF7E4FC48E7284AC921FBF7DFFC34E7FD
:10BF0000254A40F2A921FBF7D9FC23E7224A4FF446
:10BF10003971FBF7D3FC14E71F4A40F27921FBF794
:10BF2000CDFC03E71C4A40F27521FBF7C7FCF7E69E
:10BF3000194A40F26F21FBF7C1FCE8E6164A40F2CD
:10BF4000D721FBF7BBFCDAE6134A40F2B721FBF737
:10BF5000B5FCB9E6F9B80200D8E60200E5B7020080
:10BF6000E0E60200EC2C0020BCE602000C00200001
:10BF70006C800020C5B702009880002071BA0200D2
:10BF800080800020F42C0020002D0020042D0020B3
:10BF9000CDB80200D5B7020040E6020070B51F2000
:10BFA000FEF794FF244C254B254801210025D9603C
:10BFB0004FF0170C25714FF0A04E2560016002E094
:10BFC000D0F84021AAB95964D3F84425172AF7D9E3
:10BFD0001C4D2B7813B91C4B01225A63237921681D
:10BFE000182B1A4B19D01B68012098472B78E3B9FE
:10BFF00070BDC0F84051DEF810252668D20F02FA55
:10C000000CF23243226022790CF1FF3C0132D2B2B1
:10C01000BCF1FF3F2271D6D1DAE71B6841F317016B
:10C02000002098472B78002BE2D0BDE8704001211A
:10C030001F20FEF783BE00BFB880002000A0004094
:10C0400000900040AC80002000600040B0800020E4
:10C0500030B583B002249DF80620ADF804404FF0BF
:10C06000A043384D384C296022F007028DF8062095
:10C07000032220604FF00055C3F8742740F20F22CE
:10C08000C3F808554FF48001C3F858270022C3F8BD
:10C090000815C3F87C27FEF7EDFC002844D02B4A96
:10C0A00001A91F20FEF7F0FC002846D1284A0121F3
:10C0B0001023C2F840152020C2F844350021042383
:10C0C000C2F84805C2F80032C2F8101502F58052D5
:10C0D00025682049C2F840550220C2F804051E4BCD
:10C0E0001E4C1F48C1F81445A2F56C6201F545517C
:10C0F000C3F810251B4CC3F81405043102F6C862BE
:10C1000000F58240C3F818150C30C3F81C45A1F5A2
:10C110009A71C3F814290722C3F82005C3F824151F
:10C12000C3F8002503B030BDFEF754FC0028B6D09C
:10C130000D4A8B21FBF7C2FBB1E70B4A8F21FBF7BE
:10C14000BDFBB3E7B0800020B48000209DBF02009B
:10C15000009000400060004000F00140031D11000D
:10C160003460004064600040E8E602000121044AB7
:10C17000044B4840107059661F20FEF7DFBD00BF1A
:10C18000AC8000200060004008B51F20FEF79EFE36
:10C19000014B01225A6308BD0060004041DF704737
:10C1A000037833B1032B03D1054B00225A7070473B
:10C1B00070474368002BFAD1024B01221A70704776
:10C1C000C0800020C2800020014B01221A707047FD
:10C1D000C080002010B5114C6378012B86B001D0CF
:10C1E00023780BB906B010BD002301A903A8CDE93F
:10C1F0000133CDE903330593FDF71EFC28B1084A4E
:10C2000000232370137006B010BD03A8FDF79EFB3A
:10C210000028F4D101232370E4E700BFC080002090
:10C220009C81002030B5054687B01848FCF7FEFF1A
:10C23000FDF714F800BB164C237823B9FFF7AEFFC7
:10C240002378002BFAD0002301A8CDE90133CDE9F2
:10C250000333ADF81430FDF7CDFC90B90DF1040CAB
:10C26000BCE80F002860BCF80000288228466960FE
:10C27000AA60EB6007B030BD064ACF21FBF71EFB7A
:10C28000D9E7044AD621FBF719FBE7E7A1C1020071
:10C29000C280002064E702002DE9F041DFF88480CD
:10C2A00082B005460E46174647F2100133462A462D
:10C2B00048F21000FDF726FC04466946284624BBD8
:10C2C000CDE90044FDF7A0F970B9019C94F8B24F94
:10C2D000BC42284612D0FDF7C5F90028E4D04246FA
:10C2E000ED21FBF7EBFADFE74246E321FBF7E6FA45
:10C2F000019C94F8B24FBC422846ECD1FDF7B2F94C
:10C3000038B9012002B0BDE8F081002002B0BDE8DC
:10C31000F081044AE921FBF7D1FA012002B0BDE81F
:10C32000F08100BF64E7020070B56A4E8EB005462A
:10C33000FDF748FB3278013A0024D2B2694606A8DC
:10C34000CDE90644CDE900440894FFF7A5FF10BBF2
:10C35000014661484FF47A62A0F8B01F80F8B21F1E
:10C3600001F0CBFC5D4906A8FDF7A6F948F206628C
:10C37000904205D048F20862904201D0002875D161
:10C38000574D0A2445F001054FF47A40A847013C77
:10C39000FAD10EB070BD02A906A8CDE90244FDF79E
:10C3A00033F9002868D103994B4840F6B47201F084
:10C3B0007BFC002309A8CDE90933CDE90B33ADF8A7
:10C3C0003430FDF717FC00285CD1434CB4F8B03F83
:10C3D000B3F57A6F31D333780133337094F8B26F99
:10C3E00006A80136F6B2FDF73DF900286CD1694682
:10C3F000324606A8FFF750FF0023CDE9043300289A
:10C400004CD101464FF47A62A4F8B00F324801F0E3
:10C4100074FC3249257006A884F8B26FFDF74CF918
:10C42000A0F50642063A022AAAD90028A8D02D4A29
:10C430004FF4A971FBF742FAA2E75A1CE55406A88B
:10C44000A4F8B02FFDF70EF910BB244906A8FDF79C
:10C45000D7F9A0F50642063A012A91D900288FD0D3
:10C46000204A40F27111FBF729FA89E71D4A4FF47F
:10C47000C871FBF723FA83E71A4A40F21311FBF75E
:10C480001DFA90E7174A40F21B11FBF717FA9CE7D9
:10C49000144A40F26111FBF711FAD6E704A906A885
:10C4A000FDF7B2F805990C4840F6B47201F0FCFBB8
:10C4B00006A8FDF7D7F800283FF462AF094A40F21A
:10C4C0003511FBF7FBF95BE7064A4FF49371FBF775
:10C4D000F5F98CE7BC3C0020082D0020E8E70200BD
:10C4E000E0E7020064E7020030B589B000250A46A3
:10C4F000044601A905A8CDE90555CDE901550795E3
:10C50000FFF7CAFE10B9204609B030BD03A905A83F
:10C51000CDE90355FDF778F80028F4D1049B5A1CA7
:10C52000A21A022A13D9224603F57A6053F8041B93
:10C5300042F8041B8342F9D105A8FDF793F80028BF
:10C54000E1D0084A4FF4E671FBF7B8F9DBE75A1E71
:10C55000611E03F69F7312F8010F01F8010F9A4252
:10C56000F9D1E9E764E702006DDF704779DF7047D2
:10C570007DDF704764DF70472DE9F04F85B0994645
:10C580000E9E0388BDF83CA00091174632880192A8
:10C59000002B53D04FF00008C3464546804605E0C7
:10C5A000B8F800200BF1010B5A4529DDD8F804102A
:10C5B00051F82B00039000220DF10B0103A8FFF7A7
:10C5C000D9FF044630BB9DF80B20BA42E8D12DB309
:10C5D0003288D119514536DC4A440DF10B0103A8CC
:10C5E0000125FFF7C7FF002832D131889DF80B20C5
:10C5F0000A443280B8F800200BF1010B5A45D5DC13
:10C60000E5B13388019A013B9B1A9BB2FF2B1AD8E4
:10C6100009F80230204605B0BDE8F08F3288511C81
:10C620003A440232524589B20DDC009B318009F850
:10C6300001303288013292B23280CDE700242046A8
:10C6400005B0BDE8F08F0C24204605B0BDE8F08FA2
:10C650000446204605B0BDE8F08F00BF2DE9F04745
:10C6600090F82D30144600222788228086B0064696
:10C670000D46002B40F0FE80B278002A40F0F38097
:10C68000F178A1B1DA1CBA4200F2F0800222EA5439
:10C690002388012213449BB22380EA542388134445
:10C6A0009BB22380E954238813449BB22380726891
:10C6B000AAB1D91CB94200F2D980022192F9002016
:10C6C000E954238801339BB20A212380E95423884B
:10C6D00001339BB22380EA542388013323803389BA
:10C6E000002B40F0F280338A002B40F02681338B00
:10C6F000002B40F03C81336A002B42D02088821D01
:10C70000BA4200F2B3801A88052A40F28B816FF496
:10C71000486802EB080189B24FF27D3C614540F266
:10C7200081815988052940F27D816FF4486E8E44DD
:10C730001FFA8EFEE64540F275814FF6FF7C62459A
:10C7400002D08A4200F26E8105222A5422880132E8
:10C7500092B212212280A9542288013292B2228000
:10C760001988A9542A44090A51702288023292B2C7
:10C7700022805B88AB542A441B0A537023880233FF
:10C780002380736A002B2FD09988B4F800C0881CCE
:10C790000CF102020244BA4268D8FE2866D803317E
:10C7A00005F80C102288013292B2FF212280A95490
:10C7B0002288013292B222801988A9542A44090A97
:10C7C00051702088023080B220809A8862B19968C6
:10C7D0000393002900F02681284401F065FA039BA9
:10C7E0009A8823881344238096F82C30002B40F03D
:10C7F000D780307800283AD03388012B00F012819E
:10C8000023889A1CBA4231D8012804D171780231A8
:10C8100019448F422AD3023FFF1ABFB2A81804A9B5
:10C82000ADF81070FFF7A4FE08BB3378022B00F0C0
:10C8300001817178BDF810209142C0F0F7809742D5
:10C84000C0F0F48017460922FE2F0FD82388791CE8
:10C85000E954238801339BB22380EA5423880133AF
:10C860001F44278003E00433BB4249D90C2006B0A3
:10C87000BDE8F087082FF9D904A8FFF775FE002856
:10C88000F5D123880822EA54238801339BB21B2266
:10C890002380EA542388DDF8112001339BB22380E2
:10C8A000EA502B44BDF815209A8023889DF810206B
:10C8B00006339BB212F0FE0218BF01222380EA5415
:10C8C000238801339BB22380D6E606F108080222B2
:10C8D000CDE900472B4611464046FFF74DFE0028A4
:10C8E000C5D1CDE9004740462B4610220621FFF76F
:10C8F00043FE0028BBD1338A002B3FF4F8AE1CE086
:10C9000004A8FFF733FE0028B1D123880322EA549C
:10C91000238801339BB219222380EA542388BDF86F
:10C92000102001339BB22380EA542B44120A5A7020
:10C93000238802339BB22380A2E606F11008CDE9DA
:10C9400000472B46022203214046FFF715FE002830
:10C950008DD1CDE9004740462B4610220721FFF735
:10C960000BFE002883D1338B002B3FF4C4AE06F1BD
:10C970001808CDE900472B46022214214046FFF754
:10C98000FBFD00287FF473AFCDE9004740462B46FE
:10C9900010221521FFF7F0FD00283FF4ACAE66E74A
:10C9A000B16A00293ED04FF000094B464FF0160AFD
:10C9B0002BE02388E854238801339BB2238005F8B9
:10C9C00003A0238801339BB2238031F82220EA544C
:10C9D0002B44120A5A702088023080B22080B8F8A6
:10C9E000042028444AB1D8F80810D9B101F05CF904
:10C9F000B8F8042023881344238096F82C205FFA8B
:10CA000089F39A427FF6F5AEB16A03EB430201EB7C
:10CA1000820809F10109B8F80430D81C0233FE2B52
:10CA2000C7D923E7072006B0BDE8F087012B08D05F
:10CA3000082209E7BDF810309F42F9D31F460922AA
:10CA400002E78F42F4D30F460822FDE675DF7047F8
:10CA500076DF70477ADF70477BDF704770B51D4D1A
:10CA60002B8884B2A34282B011D11B4E297A327B2B
:10CA700091420ED3337C00222A72F3B9736933B129
:10CA800000228DF80420ADF8064001A8984702B0B6
:10CA900070BD05F10A011846FFF7D8FF40B1112813
:10CAA000F5D0B369002BF2D002B0BDE87040184752
:10CAB0002B7A01332B7202B070BD3B212046FFF769
:10CAC000C7FF30F00803D9D0B369002BD6D0984700
:10CAD000D4E700BFE0800020C480002070B5028849
