:1000000000000420750300005D0300002969000062
:1000100061030000630300006503000000000000AE
:100020000000000000000000000000006703000066
:1000300069030000000000006B0300006D03000076
:10004000791100006F030000B91100008911000050
:10005000951100006F030000410900001518000011
:10006000D91A0000311B0000891B0000B5160000E2
:100070006F0300008D1600006F0300006F03000087
:10008000ED360000AD5A00009D150000AD110000D6
:10009000491A0000611A0000791A0000911A000044
:1000A000A91A0000C11A0000E11B0000391C000061
:1000B000AD1200006D0F0000000000000000000005
:1000C0006F0300006913000025140000A111000057
:1000D00065170000510E00006F0300002936000074
:1000E0006F030000691600006F03000000000000AD
:1000F00000000000E114000000000000C119000031
:1001000000000000000000000000000000000000EF
:1001100000000000000000000000000000000000DF
:1001200000000000000000000000000000000000CF
:1001300000000000000000000000000000000000BF
:1001400000000000000000000000000000000000AF
:10015000000000000000000000000000000000009F
:10016000000000000000000000000000000000008F
:10017000000000000000000000000000000000007F
:10018000000000000000000000000000000000006F
:10019000000000000000000000000000000000005F
:1001A000000000000000000000000000000000004F
:1001B000000000000000000000000000000000003F
:1001C000000000000000000000000000000000002F
:1001D000000000000000000000000000000000001F
:1001E000000000000000000000000000000000000F
:1001F00000000000000000000000000000000000FF
:10020000354936480A1A02D0072291438D463449AF
:1002100034480A1A06D00722914381F30988022242
:1002200082F3148830483149314A00F044F83148AB
:100230003149324A00F03FF831483249324A00F041
:100240003AF832483249334A00F035F832483349F7
:10025000334A00F030F833483349344A00F02BF881
:1002600033483449344A00F026F8344834490022EF
:1002700000F02CF833483449002200F027F83348C6
:100280003349091A082902DB002202604160314A21
:1002900090471F481F49884205D00268043003B4C4
:1002A000904703BCF7E700208646EC46002000217B
:1002B000294A9047FEE7884207D0521A05D00378B2
:1002C00001300B700131013AF9D17047884202D0F8
:1002D00002700130FAE770470000042000E00320BC
:1002E0000000042000000420FCB40000F401002001
:1002F00058020020D0030000D0030000CC90000082
:10030000FCB40000F4010020F40100200895000076
:100310000895000008950000089500000895000069
:10032000089500000895000008950000FCB4000046
:1003300060B500005802002058020020580200203A
:10034000241D0020241D0020241D0020241D002029
:10035000243D00209D0300006D370000FEE7FEE70E
:10036000FEE7FEE7FEE7FEE7FEE7FEE7FEE7FEE765
:1003700000F002B8FFF7FCBF0F484FF007018843B9
:1003800085460E4880470E48016841F470010160BF
:10039000BFF34F8FBFF36F8FFFF732BF09480A4992
:1003A0000A4A884207D0521A05D0037801300B70F0
:1003B0000131013AF9D1704700000420058C00009A
:1003C00088ED00E01493000000000020F4010020FC
:1003D00030B50A4B0A4C53F8213054F821100278FA
:1003E00085B0D0E901548DF80020C26801958DF8E0
:1003F000084003926846984705B030BDB00200201F
:10040000A802002030B50A4B0A4C53F8213054F8AA
:100410002110027885B0D0E901548DF80020C2681F
:1004200001958DF8084003926846984705B030BDA5
:10043000B0020020A8020020F0B5184B067843F85F
:100440002620174B0446487F98551546154A8E4678
:10045000096942F8261022789F5CBEE80F0089B037
:10046000EC46ACE80F009EE80F008CE80F00049605
:100470004FB1002D0C4A694608BF2A46201D01F0E5
:100480006FFF09B0F0BD002D084A694608BF2A4633
:1004900004F10C0001F0E4FC09B0F0BDB002002052
:1004A000B8020020A8020020D103000005040000CB
:1004B000034653E8000F00EA010243E8002C9CF0D9
:1004C000000FF6D1704700BF10B54FF0804382B0E7
:1004D000D3F8002162B10021164AC3F80011D3F805
:1004E0000011507900910121009CC3F80813A8B1B4
:1004F0004FF08043D3F80421CAB10022C3F804218D
:10050000D3F8042101920B4A01980221C3F8081381
:100510001368012002B0BDE81040184713685171FC
:1005200098474FF08043D3F80421002AE5D102B068
:1005300010BD00BFBC02002030B5224C94F86A30D8
:1005400083B0002B3AD14FF6FF704FF0FF0C5A09E1
:10055000012A18BF4FF0FF3103F01F0208BF014608
:1005600021FA02F2D20748BFE21803F1010348BFA3
:1005700082F830C0302BEAD14FF0FF352C22FF211A
:100580001148256008F017FD1049114B2566002021
:10059000C0226066888083F8062340221A600D4BD3
:1005A000C3F87C01D3F87C1101914FF00042012186
:1005B000019D84F86A10C3F8042300E0082003B00A
:1005C00030BD00BFC4020020C80200202803002064
:1005D00000E100E000600040034B93F86A0000383F
:1005E00018BF0120704700BFC402002070B57D4BCA
:1005F00003EB000E9EF930C0BCF1000F01DB0820B8
:1006000070BD91F802C01CF0020FCCF340055DD123
:100610001C6A013400F0DF805C6A013400F0D18094
:100620004FF00C0E4FF00A0C53F82C40013459D007
:100630000CF10104744547D253F82460013600F0F0
:10064000B8800CF1020474453ED253F824600136A0
:1006500000F0AF800CF10306764535D253F8264002
:1006600001343ED00CF1040676452DD253F82640D5
:10067000013436D00CF10506764525D253F82640D4
:1006800001342ED00CF1060676451DD253F82640D3
:10069000013426D00CF10706764515D253F82640D2
:1006A00001341ED00CF1080676450DD253F82640D1
:1006B000013416D00CF1090CF44505D2DC6A013482
:1006C00008BF4FF00B0C0DD0042070BD1C68013426
:1006D00071D05C6801347BD04FF0080E4FF0020CF3
:1006E000A2E7B44643F82C201A184FFA8CFE82F881
:1006F00030E015B99C448CF858008A7854071CD413
:10070000D50747D51F2887BF374A00F01F04044686
:100710004FF0A04202EB8402D2F8004724F002041A
:10072000C2F80047314DC40800F0070C2E5D0122CD
:1007300002FA0CF232432A558A7812F002021CD0D7
:100740004FEA8E0303F1804303F5C0430978D3F8E1
:10075000104524F44F3424F44074C3F810450202C9
:100760000904D3F8100501F4403102F47C520A4325
:100770000243C3F81025002070BDAEF1080E43FA05
:100780008EF30C7893F86010104641EA841283F8D7
:10079000602070BD1F284C7887BF134D00F01F02EA
:1007A00002464FF0A04502F5E072A40045F8224051
:1007B000B8E7A44696E71A6000228EF830209646E5
:1007C0009BE74FF0090C8EF830C05A62E64691E77D
:1007D0004FF0010C86E74FF0080C8EF830C01A621B
:1007E000E64687E7C40200200003005028030020EB
:1007F00010B4334C231883B093F93030072B25DD28
:10080000083B44FA83F393F860309B09032B46D0EE
:10081000012B0CBF4FF400324FF440321F288ABF27
:10082000284B4FF0A04300F01F0003EB8000D0F8EE
:10083000003723F44033C0F80037D0F800371A43AC
:10084000C0F8002703B05DF8044B7047DAB2072AFE
:10085000F8D89A0002F1804202F5C042D2F81005A1
:1008600040F00100C2F8100503F1400252B29200BC
:1008700092B202F1804202F5C0420020106012687C
:100880000192019A0029DDD054F82320002AD9D002
:100890000D49012202FA03F3C1F80433D2E71F28FD
:1008A0008ABF084A4FF0A04200F01F03D2F810257B
:1008B00098BF0346DA4002F0010202321204ADE7AB
:1008C000C40200200003005000600040194B0344A4
:1008D00093F93030072B13DD1F288ABF164B4FF0DA
:1008E000A04300F01F0003EB8000D0F8003723F492
:1008F0004033C0F80037D0F80037C0F800377047F1
:10090000DAB2072A14D89A0002F1804202F5C042F6
:1009100010B4D2F81005094C012120F0010001FAB1
:1009200003F3C2F81005C4F808335DF8044B7047B0
:10093000704700BFC4020020000300500060004068
:100940002DE9F047002384B0CDE902331C4AD2F8E8
:100950000011012900F030821E46194BD3F8042102
:10096000012A00F01A82164BD3F80821012A00F060
:100970000582134BD3F80C21012A00F0F081104BB3
:10098000D3F81021012A00F0DB810D4BD3F814219C
:10099000012A00F0C1810A4BD3F81821012A00F086
:1009A000AC81074BD3F81C21012A0BD0044BD3F8A0
:1009B0007C21012A00F0218256BB04B0BDE8F087FB
:1009C00000600040D3F804231206EFD50022C3F8DC
:1009D0001C21D3F81C110091D3F87C110098012937
:1009E00046F0800614D1C3F87C21D3F87C31019302
:1009F0004FF0A042019BD2F82015CF4B0291C2F8D4
:100A00002015D3F820250392C3F8202546F0004690
:100A1000CA4F00240125A30003F18043354203F5AA
:100A2000C0434FEA45050BD0D3F8100557F82420F2
:100A3000D3F81015C0F30520C1F3014102B190476E
:100A40000134082CE7D1002EB7DABC4CBA4E012590
:100A50004FF0A04794F96000431C48D0C0F3C20295
:100A600002F110030DEB030200F0070312F8082C4B
:100A700005FA03F31A42C1B200F03F0037D01F2835
:100A800000F22B8102464FF0A04909EB820305FAE0
:100A900002F2D3F800C7D3F800E72EF4403EC3F8C3
:100AA00000E704EB000ECCF3014C9EF930E0D3F8E4
:100AB00000A754F82E80BCF1020F0CBF4FF4403E4B
:100AC0004FF4003E4EEA0A0EC3F800E7C9F82025AD
:100AD000B8F1000F0BD08909032900F08281BCF125
:100AE000020F00F07B81BCF1030F00F0A68194F9A6
:100AF0006100411C48D0C0F3C20202F110030DEBAB
:100B0000030200F0070312F8082C05FA03F31A4257
:100B1000C1B200F03F0037D01F2800F2E280024649
:100B20004FF0A04909EB820305FA02F2D3F800C79F
:100B3000D3F800E72EF4403EC3F800E704EB000EC4
:100B4000CCF3014C9EF930E0D3F800A754F82E8086
:100B5000BCF1020F0CBF4FF4403E4FF4003E4EEA92
:100B60000A0EC3F800E7C9F82025B8F1000F0BD032
:100B70008909032900F03A81BCF1020F00F03381AA
:100B8000BCF1030F00F05D8194F96200421C48D073
:100B9000C0F3C20202F110030DEB030200F00703E1
:100BA00012F8082C05FA03F31A42C1B200F03F0014
:100BB00037D01F2800F2998002464FF0A04909EB78
:100BC000820305FA02F2D3F800C7D3F800E72EF447
:100BD000403EC3F800E704EB000ECCF3014C9EF955
:100BE00030E0D3F800A754F82E80BCF1020F0CBF00
:100BF0004FF4403E4FF4003E4EEA0A0EC3F800E7C1
:100C0000C9F82025B8F1000F0BD08909032900F09D
:100C1000F280BCF1020F00F0EB80BCF1030F00F09A
:100C2000088194F96300431C47D0C0F3C20202F16B
:100C300010030DEB030200F0070312F8082C05FA6D
:100C400003F31A42C1B200F03F0036D01F2850D83B
:100C500002464FF0A04909EB820305FA02F2D3F8ED
:100C600000C7D3F800E72EF4403EC3F800E704EBDA
:100C7000000ECCF3014C9EF930E0D3F800A754F8F5
:100C80002E80BCF1020F0CBF4FF4403E4FF4003EEB
:100C90004EEA0A0EC3F800E7C9F82025B8F1000FA4
:100CA0000BD08909032900F09780BCF1020F00F0F6
:100CB0009080BCF1030F00F0B880D7F82025029295
:100CC000C7F82025D6F820350393C6F820351343FE
:100CD0007FF4C0AE04B0BDE8F08701F01F02B1465A
:100CE000D3E601F01F02B1461CE701F01F02B14636
:100CF00065E701F01F02B146ADE7D3F804235106C2
:100D00007FF54FAE0022C3F81821D3F818310093B5
:100D1000009B46F0400644E6D3F8042390067FF596
:100D20003AAE0022C3F81421D3F814310093009B8B
:100D300046F020062FE600BF00030050C40200204A
:100D4000D3F80423D4067FF520AE0022C3F8102187
:100D5000D3F810310093009B46F0100615E6D3F847
:100D6000042315077FF50BAE0022C3F80C21D3F83E
:100D70000C310093009B46F0080600E6D3F80423EC
:100D800057077FF5F6AD0022C3F80821D3F80831E4
:100D90000093009B46F00406EBE5D3F8042392078A
:100DA0007FF5E1AD0022C3F80421D3F804310093AC
:100DB000009B46F00206D6E5D2F8046316F0010661
:100DC0003FF4CBADC2F80031D2F800310093009B64
:100DD000C3E501297FF471AFC0476EE701297FF4B5
:100DE00086AEC04783E601297FF4CEAEC047CBE68E
:100DF00001297FF416AFC04713E70022C3F87C2116
:100E0000D3F87C3101934FF0A042019BD2F820151A
:100E10000E4B0291C2F82015D3F820250392C3F897
:100E20002025002E3FF411AEF0E502297FF445AFF6
:100E3000D2E702297FF4F5AEDDE702297FF457AE51
:100E4000CFE702297FF4A0AED0E700BF0003005037
:100E500070B5424B424CD3F8142184B092B1627900
:100E60000021C3F81411D3F81411009142F00802C4
:100E700002F01201122913460098627104BF42F079
:100E800020036371354BD3F8042192B162790021BC
:100E9000C3F80411D3F80411019142F0040202F0E6
:100EA0001101112913460198627104BF42F0200319
:100EB00063712A4BD3F80821BAB10025C3F8085151
:100EC000D3F808210292042202992648C3F8082385
:100ED00029462268C3F800559047236822482946CE
:100EE00098470123237104B070BD637903F00F02AA
:100EF0000F2A03D0D80715D4190713D5627922F029
:100F00000C0212F020061346627111D022F0300359
:100F1000226843F0100301210020637104B0BDE892
:100F20007040104762799207DDD45B07DBD5E5E7B7
:100F30000C4A92E8030002AD85E8030012E90300C1
:100F400043F0100382E803006371C4E9026623687A
:100F500001212846984704B070BD00BF00500240F0
:100F600030030020400300203803002010B5404B20
:100F7000D3F8002186B04AB33E4C0022C3F80021CA
:100F8000A27CD3F800010190D34303F0010304EBEA
:100F9000830101984968002954D0607C002102280F
:100FA0008DF81410E1745ED004EB8202A3745068D3
:100FB00051600122049023688DF80C2003A8984703
:100FC000637C022B06D10123637403E0D3F8041180
:100FD00079B9284C237D53B10023012122688DF873
:100FE0000C1004938DF8143003A82375904706B0B5
:100FF00010BDC3F80421D3F804111E4C02910299CC
:10100000C3F80025A37C627404EB83018DF81420DF
:1010100048688DF80C2028B12368049003A84A6022
:101020009847A37CDB4303F0010304EB83035A6876
:101030002AB1002058602168049203A88847002341
:10104000A374C7E7617C0229A7D0E37C002BB7D14A
:10105000012221688DF80C3004938DF8142003A828
:10106000E2748847ACE7012363740846A1E700BF38
:1010700000D001404803002010B54FF0804386B0F7
:10108000D3F80443620703D5D3F80821002A62D1BC
:10109000A30605D54FF08043D3F81421002A4FD181
:1010A000600605D54FF08043D3F81821002A3BD1C4
:1010B000210604D54FF08043D3F81C214ABBE2053A
:1010C00004D54FF08043D3F82021B2B9A30512D53F
:1010D0004FF08043D3F824216AB10022C3F82421C1
:1010E000D3F82421214B0592059A1B68022006B0F3
:1010F000BDE81040184706B010BD0022C3F82021FB
:101100001A4AD3F82031049301201368049A9847AF
:10111000DCE70020C3F81C01144AD3F81C31039308
:101120001368039A9847CAE70022C3F81821104AA7
:10113000D3F81831029301201368029A9847B7E751
:101140000020C3F814010A4AD3F81431019313683C
:10115000019A9847A4E70022C3F80821054AD3F86A
:10116000083100931368009A984791E768030020BC
:10117000640300206003002008B5FFF77DFFBDE891
:101180000840FFF7A1B900BF014B1B68184700BF1B
:101190006C030020014B1B68184700BF740300203C
:1011A000014B1B68184700BF7C030020014B1B68E4
:1011B000184700BF84030020014B1B68184700BF7D
:1011C0008C030020184B984270B50D4625D0B0F125
:1011D000402F24D003F50033984222D0A3F580336A
:1011E000984218D0A3F58833984201D0002070BDF2
:1011F0000E4E002004F0FCFA347924B1002004F0F3
:10120000FFFA112070BD012320463560337104F0D0
:10121000F7FA204670BD064EEBE7064EE9E7064EAC
:10122000E7E7064EE5E700BF003000408C030020F2
:10123000840300206C030020740300207C03002042
:10124000144B984216D0B0F1402F18D003F500335C
:10125000984219D0A3F58033984209D0A3F588337A
:10126000984200D070470C4B00221A601A717047E8
:101270000A4BF9E70A4B00221A601A717047094BB2
:1012800000221A601A717047074B00221A601A7107
:10129000704700BF003000408C0300208403002012
:1012A0006C030020740300207C03002000B52C4B4D
:1012B000D3F8102185B052B100212A4AC3F8101189
:1012C000D3F81011537903910399590741D4244B52
:1012D000D3F8142152B10021224AC3F81411D3F8D3
:1012E0001411537902911B0702992CD41C4BD3F88B
:1012F0001C215AB11B4A0021C3F81C115079D3F8A4
:101300001C31019310F01000019B17D0144BD3F83F
:10131000042182B1134A0021C3F80411D3F8041147
:101320001368009101210098117123B1032005B0C9
:101330005DF804EB184705B05DF804FB1368002B5B
:10134000E4D09847E2E71368002BCFD002209847FB
:10135000CCE71368002BBAD001209847B7E700BF4D
:1013600000C001409403002000B52C4BD3F810219D
:1013700085B052B100212A4AC3F81011D3F81011D8
:10138000537B03910399590741D4244BD3F814217B
:1013900052B10021224AC3F81411D3F81411537B1F
:1013A00002911B0702992CD41C4BD3F81C215AB173
:1013B0001B4A0021C3F81C11507BD3F81C31019348
:1013C00010F01000019B17D0144BD3F8042182B108
:1013D000134A0021C3F80411D3F804119368009153
:1013E00001210098117323B1032005B05DF804EBCF
:1013F000184705B05DF804FB9368002BE4D09847CC
:10140000E2E79368002BCFD002209847CCE793689F
:10141000002BBAD001209847B7E700BF0010024068
:101420009403002000B52C4BD3F8102185B052B1A5
:1014300000212A4AC3F81011D3F81011537D0391EB
:101440000399590741D4244BD3F8142152B10021F8
:10145000224AC3F81411D3F81411537D02911B07CB
:1014600002992CD41C4BD3F81C215AB11B4A0021E1
:10147000C3F81C11507DD3F81C31019310F01000FB
:10148000019B17D0144BD3F8042182B1134A0021D9
:10149000C3F80411D3F804111369009101210098D5
:1014A000117523B1032005B05DF804EB184705B0B2
:1014B0005DF804FB1369002BE4D09847E2E7136959
:1014C000002BCFD002209847CCE71369002BBAD06D
:1014D00001209847B7E700BF002002409403002096
:1014E00000B52C4BD3F8102185B052B100212A4A07
:1014F000C3F81011D3F81011537F039103995907C2
:1015000041D4244BD3F8142152B10021224AC3F80C
:101510001411D3F81411537F02911B0702992CD494
:101520001C4BD3F81C215AB11B4A0021C3F81C11D3
:10153000507FD3F81C31019310F01000019B17D09D
:10154000144BD3F8042182B1134A0021C3F80411CB
:10155000D3F804119369009101210098117723B108
:10156000032005B05DF804EB184705B05DF804FBF7
:101570009369002BE4D09847E2E79369002BCFD022
:1015800002209847CCE79369002BBAD001209847F6
:10159000B7E700BF00D002409403002000B5304BF5
:1015A000D3F8002187B01AB1D3F80423D00740D470
:1015B0002B4BD3F804211AB1D3F8042391071ED47E
:1015C000274BD3F80821BAB1D3F80423520713D517
:1015D0000022C3F808214FF48472D3F80811ADF843
:1015E0001020204B039106AA12E903001B68039AFE
:1015F00007B05DF804EB184707B05DF804FB002264
:10160000C3F80421D3F804210292029AD3F81815E2
:10161000144AD3F84835ADF814304FF4827006AB55
:10162000ADF81000ADF8121013E9030013689847E5
:10163000C6E70022C3F80021D3F800210192019AE5
:10164000D3F80C35074A8DF812304FF4807106AB91
:10165000ADF8101013E9030013689847A8E700BF1E
:1016600000200140B4030020064BD3F800213AB11A
:10167000054A002050719168C3F8000113681847AB
:10168000704700BF00900240B8030020074B0022C3
:10169000C3F8002182B0D3F800210192019A044AD4
:1016A000D3F808051368C0B202B0184700D0004054
:1016B000C40300202DE9F041274E284FDFF8A08019
:1016C00084B000244FF48035D6F804332B4211D077
:1016D00057F824300022E0B263B1C6F84853C6F888
:1016E000085347F8242057F824200392D8F80030F4
:1016F000039A98470134032C4FEA4505E4D1164B71
:10170000D3F80423D10702D5D3F80021C2B9124B74
:10171000D3F80423920710D5D3F804216AB100222C
:10172000C3F80421D3F804210D4B0192019A1B68E0
:10173000052004B0BDE8F041184704B0BDE8F081D1
:101740000022C3F80021064AD3F800310293042096
:101750001368029A9847DAE700B0004040B10040B1
:10176000C80300202DE9F041274E284FDFF8A08064
:1017700084B000244FF48035D6F804332B4211D0C6
:1017800057F824300022E0B263B1C6F84853C6F8D7
:10179000085347F8242057F824200392D8F804303F
:1017A000039A98470134042C4FEA4505E4D1164BBF
:1017B000D3F80423D10702D5D3F80021C2B9124BC4
:1017C000D3F80423920710D5D3F804216AB100227C
:1017D000C3F80421D3F804210D4B0192019A5B68F0
:1017E000052004B0BDE8F041184704B0BDE8F08121
:1017F0000022C3F80021064AD3F8003102932046A4
:101800005368029A9847DAE700400240404102409C
:10181000C80300202DE9F041674B684FD3F804213D
:1018200088B012B30021C3F80411D3F8040197F86B
:101830002E2000900098002A3BD17868F968069025
:1018400038898DF81420ADF81C00002900F0A18023
:10185000388B7960012178833881FA6019603B68A0
:1018600005A89847002387F82F3097F82E3023BB20
:10187000514BD3F810216AB10022C3F81021D3F8DC
:101880001031039302218DF814103B6803993A74C8
:1018900005A89847484BD3F8144164B30022C3F815
:1018A0001421D3F814310593059B3A7408B0BDE8B0
:1018B000F08197F82F30002B4ED13F4BD3F8002109
:1018C000002AD5D00020C3F8000197F82D107A8B9C
:1018D000D3F8004101948A42019C8CB24BD85BD072
:1018E000354B0022C3F80421D3F8042102920122CF
:1018F00002995A60BCE77E69002ED7D04FF00048AD
:101900000125B6FA86F101F146039B0003F18042FE
:1019100002F5E042A3F58C73D2F800E083F00400F6
:1019200028FA01F1C0F3800CDB0805A826EA0106BD
:10193000BEF1000F0BD01460126804928DF81830BD
:101940003A688DF814508DF819C0049B9047002E0A
:10195000D7D108B0BDE8F081FB6878683A898DF886
:1019600014100690ADF81C209BB13A8B7A837B60F3
:101970003A81F96073E73889121B92B280B27A8398
:10198000801A7A6802EB4002C3F82C26C3F830169E
:10199000A6E700233B7462E7FA6842B1788301202E
:1019A00087F82F00C3F82C26C3F8301698E70123D8
:1019B00087F82F307A8393E700700040D00300202F
:1019C0001D4BD3F8182102B9704710B400211B4AEF
:1019D000C3F81811D3F8181192F88B3083B0FF2B8D
:1019E000019101990ED092F88A10C1B11F2B8ABFC4
:1019F00013484FF0A04003F01F03012101FA03F345
:101A0000C0F80C35D2E91B4100230E4882F889301A
:101A100082F87430234603B05DF8044B18471F2B3F
:101A20008ABF07484FF0A04003F01F03012101FACD
:101A300003F3C0F80835E5E700F002400004002099
:101A40000003005074040020034B044A19881268F4
:101A500000201880104700BF900400209C04002044
:101A6000034B044A598852680020588001201047CF
:101A7000900400209C040020034B044A998892683B
:101A80000020988002201047900400209C04002031
:101A9000034B044AD988D2680020D880032010471D
:101AA000900400209C040020034B044A1989126909
:101AB0000020188104201047900400209C0400207E
:101AC000034B044A59895269002058810520104768
:101AD000900400209C0400202DE9F041114D124F8C
:101AE000DFF8488082B000244FF480362B6806FA75
:101AF00004F201347BB1D7F80433A5F500401A4253
:101B00004FF0000180B206D029602B680193D8E91C
:101B10000031019A9847042C05F10405E6D102B082
:101B2000BDE8F0814081004000800040B404002006
:101B30002DE9F041114D124FDFF8488082B00024AA
:101B40004FF480362B6806FA04F201347BB1D7F8E3
:101B5000043305F5E0401A424FF0000180B206D090
:101B600029602B680193D8E90331019A9847042C26
:101B700005F10405E6D102B0BDE8F08140910040D6
:101B800000900040B40400202DE9F041114D124FA7
:101B9000DFF8488082B000244FF480362B6806FAC4
:101BA00004F201347BB1D7F8043305F5C0401A4282
:101BB0004FF0000180B206D029602B680193D8E96C
:101BC0000631019A9847042C05F10405E6D102B0CC
:101BD000BDE8F08140A1004000A00040B404002016
:101BE0002DE9F041114D124FDFF8488082B00024FA
:101BF0004FF480362B6806FA04F201347BB1D7F833
:101C0000043305F5C0401A424FF0000180B206D0FF
:101C100029602B680193D8E90931019A9847062C6D
:101C200005F10405E6D102B0BDE8F08140A1014014
:101C300000A00140B40400202DE9F041114D124FE5
:101C4000DFF8488082B000244FF480362B6806FA13
:101C500004F201347BB1D7F8043305F5A0401A42F1
:101C60004FF0000180B206D029602B680193D8E9BB
:101C70000C31019A9847062C05F10405E6D102B013
:101C8000BDE8F08140B1014000B00140B404002043
:101C900010B5714AD2F8043399058AB068D5D2F8E4
:101CA0002431002B64D000216C4BC2F82411D2F8EF
:101CB000240193F8291001904FF40170019CC2F89F
:101CC000080309B9012151606349D86802228DF8DF
:101CD0001820D1F88024C1F880249FED5D7B99699C
:101CE00083ED067BCDE90812D3E90012079006A820
:101CF0009047594AD2F81C31C3B1584B5869196AF8
:101D000088426AD993F8281001F0FF00002964D1B5
:101D1000C2F81C01D2F81C11039103999C68186A3F
:101D2000196A205C01311962C2F81C054A4AD2F8CE
:101D30004431DBB10021494BC2F84411D2F84401CF
:101D400093F829100090009809B1012111609A6957
:101D500062B1D8685C6A00210122CDE9070499616B
:101D60008DF8182006A8D3E9001290470AB010BDDC
:101D7000394AD2F804335B07BBD5D2F80831002BBF
:101D8000B7D0364B996900293ED00021C2F808111E
:101D9000D2F8081104910499D868596AD2F8182524
:101DA00042545A6A996901325A625A6A8A42A0D1E7
:101DB000DA69002A31D09A611A69D8685C6ADA60F7
:101DC000002101220894D961596207905C68196862
:101DD0008DF8182006A8A0478BE71F4A0020C2F8FC
:101DE0001C01D2F81C210292029A5A69002A9DD045
:101DF000D3E901215C698DF81800CDE90714586119
:101E0000196806A8904791E7C2F80811D2F80801AE
:101E100005900598D2F81825C7E793F8292012B93C
:101E20000D4A012151600C4AD8684FF40171C2F883
:101E300008135C6A0021012299618DF81820D3E90A
:101E40000012CDE9070406A8904752E7AFF30080DF
:101E5000000000000000000000200040F00400200E
:101E60002DE9F043694D90F804802C2303FB0853BF
:101E700083B093F82A30002B40F08D8006460C4644
:101E8000006863491746FFF79DF900287FD1216854
:101E900033684A1C14D01F2987BFDFF884E101F0A2
:101EA0001F020A464FF0A04E4FF0010C0CFA02FC44
:101EB00002F5E072CEF808C54FF0030C4EF822C0D0
:101EC000D4F804C0BCF1FF3F0FD0BCF11F0F8BBF93
:101ED0000CF01F026246DFF848E14FF0A04E02F519
:101EE000E0724FF000094EF82290A269C3F8242551
:101EF00094F814E0627DBEF1010F4EEA0202C3F8CD
:101F00006C25C3F814C5C3F80C154FD02C2303FB64
:101F100008F3EA1857602269EA502FB33368227F2A
:101F20000021C3F81C11D3F81C410094009CC3F895
:101F30004411D3F84411019101993649C3F80413AF
:101F400043F3073100294FEA133428DB324F5201A3
:101F50007B18D2B283F800230123490904F01F043F
:101F600003FA04F447F8214033680422C3F800253B
:101F70002C2303FB085501220023C5E9063385F80D
:101F800029306B6185F82A2003B0BDE8F083112069
:101F900003B0BDE8F083082003B0BDE8F0831F491B
:101FA00004F00F045201D2B20A55DEE7A1684A1CC0
:101FB0000ED01F298BBF01F01F020A46DFF860E038
:101FC0004FF0A04E02F5E0724FF0000C4EF822C028
:101FD000E268B2F1FF3F14D01F2A87BFDFF84090BC
:101FE00002F01F0C94464FF0A0494FF0010E0EFA7C
:101FF0000CFE0CF5E07CC9F808E54FF0030E49F83B
:102000002CE0C3F80825C3F810157FE7F004002082
:10201000911C00008000020000E100E014ED00E0EF
:1020200000030050F8B50346067900683A4C0022D8
:10203000C0F800252C2202FB06425268BAB1374A8A
:10204000C0F8082340F30732002A4FEA10310EDBB4
:102050005209334D2032012001F01F0100FA01F135
:1020600045F82210BFF34F8FBFF36F8F1868D0F879
:102070000C55D0F81415D0F80835D0F810254FF0CD
:10208000FF37BD42C0F81475C0F80C75C0F808756C
:10209000C0F810750CD01F2D86BF05F01F05214F0D
:1020A0004FF0A04705F5E0754FF0020C47F825C04A
:1020B0004D1C0BD01F2986BF01F01F01194D4FF099
:1020C000A04501F5E071022745F82170511C0BD0A5
:1020D0001F2A86BF02F01F0212494FF0A04102F5ED
:1020E000E072022541F822505A1C0BD01F2B86BFEC
:1020F00003F01F030B4A4FF0A04203F5E0730221E7
:1021000042F82310FFF79CF82C2303FB064400231E
:1021100084F82A306360F8BDF004002084020200D5
:1021200000E100E000030050F0B52E4C90F804C030
:102130002C2303FB0C4385B05D69002D45D15A610A
:1021400002681D6283F82850C2F81C519960D2F8C9
:102150001C110291029901219160C2F81C51D2F820
:102160001C11019101999868196A465C196A01313C
:1021700019625968C2F81C6511B1284605B0F0BD56
:102180005E69196A8E4219D92F4602E093F8281029
:10219000F9B9D2F81C110029F8D0C2F81C71D2F894
:1021A0001C1103910399196A10F801E0196A0131B1
:1021B0001962C2F81CE5196A8E42EAD8D2F81C31BD
:1021C000002BFBD00123D36004E01125284605B085
:1021D000F0BD0F252C2303FB0C442846002363612C
:1021E00005B0F0BDF004002010B55B4BD3F82421FE
:1021F0008AB0002A58D00022C3F82421D3F8241131
:10220000049102228DF818200499544AD3F88014BE
:10221000C3F880149FED4E7B0991D3F83C45D068FC
:1022200082ED067BCDE90704D2E9001306A89847A2
:10223000494BD3F8442152B10021484AC3F8441114
:10224000D3F84401916903900398002961D1424B6E
:10225000D3F8202162B10020C3F82001D3F8202157
:10226000029201213D4A029CD9605169002943D163
:10227000394BD3F85821AAB10020C3F85801D3F83C
:102280005811364A01910199516959B1D3F84C4519
:102290008DF81800D2E901315061CDE9071406A884
:1022A000116898470AB010BDD3F810110029BFD0AB
:1022B000C3F81021D3F81011284C05910599A16994
:1022C000D3F83C058842B3D1E169002933D0C4E991
:1022D0000612D3F8002222F02002C3F80022E2689E
:1022E0000792012122698DF818100890636821680F
:1022F000E26006A898479BE7D3F84C458DF8180094
:10230000D2E901315061CDE9071406A81168984758
:10231000AEE79FED0F7BD3F83C45D0684FF0010C42
:10232000CDE9070482ED067BD2E900138DF818C0D1
:1023300006A898478BE7E268A1610123CDE9072051
:102340008DF8183006A8D4E90013984770E700BF4D
:1023500000000000000000000020004020050020D8
:102360002DE9F0470779744E07EBC70306EB8303AB
:1023700086B093F82030002B40F0A38005460C4631
:1023800000686E499046FEF71DFF002840F09580DA
:10239000D4F800C02A68BCF1FF3F4FEAC70912D049
:1023A000BCF11F0F87BFDFF8A0E10CF01F036346ED
:1023B0004FF0A04E0121994003F5E073CEF80815C7
:1023C00003214EF8231061684B1C0ED01F298BBFD0
:1023D00001F01F030B46DFF870E14FF0A04E03F54C
:1023E000E0734FF0000A4EF823A0A369C2F8243529
:1023F00094F814E0637DBEF1010F4EEA0303C2F8C6
:102400006C35C2F80CC5C2F8141565D009EB07028B
:1024100006EB8203C3F80480236946F82230B8F142
:10242000000F39D02B68227F0021C3F81011D3F898
:1024300010410194019CC3F82011D3F8204102946B
:10244000029CC3F82411D3F824410394039CC3F8DD
:102450004411D3F844410494049CC3F85811D3F8B0
:102460005811059105993649C3F8041343F3073110
:1024700000294FEA133428DBDFF8D0C052010CEBFF
:102480000103D2B283F800230123490904F01F0499
:1024900003FA04F44CF821402B684F4406EB8706FE
:1024A0000121002286F820100821C3F80015C6E992
:1024B0000622726106B0BDE8F087112006B0BDE8C3
:1024C000F087082006B0BDE8F0871E4904F00F042D
:1024D0005201D2B20A55E0E7A368591C0ED01F2B57
:1024E0008BBF03F01F011946DFF85CE04FF0A04EF0
:1024F00001F5E0714FF0000C4EF821C0E168B1F138
:10250000FF3F14D01F2987BFDFF83CA001F01F0C4C
:102510008C464FF0A04A4FF0010E0EFA0CFE0CF55F
:10252000E07CCAF808E54FF0030E4AF82CE0C2F848
:102530000815C2F8103569E720050020E9210000E0
:102540001003420014ED00E00003005000E100E041
:10255000F0B50579554C05EBC50204EB8202034644
:102560005268006883B0EE00CAB1514AC0F808232F
:1025700040F30732002A4FEA103110DB5209DFF82E
:1025800038C12032012701F01F0107FA01F14CF890
:102590002210BFF34F8FBFF36F8F196800E0014621
:1025A000731904EB83039A69D0F8003223F02003F7
:1025B000C0F8003242B10023C0F84431D0F84431B1
:1025C0000093009B012343600023C0F85831D0F8EA
:1025D00058310193019B7319012204EB8303C260FC
:1025E0009A69D0F85831002BFBD01AB1D0F8443199
:1025F000002BF6D00023C0F80035D1F80CC5D1F877
:102600001475D1F80835D1F810254FF0FF3EF44588
:10261000C1F80CE5C1F814E5C1F808E5C1F810E50A
:102620000DD0BCF11F0F86BF0CF01F0CDFF884E04B
:102630004FF0A04E0CF5E07C02214EF82C10791CD6
:102640000CD01F2F86BF07F01F07DFF868C04FF0C0
:10265000A04C07F5E07702214CF82710511C0BD055
:102660001F2A86BF02F01F02124F4FF0A04702F54B
:10267000E072022147F822105A1C0BD01F2B86BF94
:1026800003F01F030B494FF0A04103F5E073022252
:1026900041F82320FEF7D4FD354404EB85040023E4
:1026A00084F82030636003B0F0BD00BF2005002037
:1026B000100342000003005000E100E001F0604C14
:1026C000BCF1005F43D170B590F804E0234C0EEBF1
:1026D000CE0C04EB8C0C0346DCF8140082B04FEAFD
:1026E000CE05002835D11B68CCF81420C3F8200192
:1026F000D3F820210192019AC3F85801D3F8582148
:102700000092009ADCF81460CCF808100122C3F89B
:102710004415C3F848659A60DCF8042012B102B091
:1027200070BDC8B9D3F82021D3F85801002AF8D0D9
:1027300090B90122DA60D3F85821002AFBD005EBCA
:102740000E0304EB830300225A6102B070BD102017
:102750007047112002B070BD0F20F0E72005002067
:1027600000B50A480A4A0B49126883B000234FF0AB
:10277000010C0370ADF805308DF807308DF804C0FA
:1027800001A80B70904703B05DF804FB44050020DE
:102790007006002074060020704700BF10B582B09C
:1027A0000D4B0E4900228DF80420D3F820050C4A69
:1027B000D3F8C0441368ADF80600002C0CBF4FF4EA
:1027C000807C4FF0012C43EA0C030968136001A8D8
:1027D000884702B010BD00BF0070024070060020A4
:1027E0004C0500204FF08053D3F83031082B03D133
:1027F000164B0022C3F81C2C154B16499A7B00205F
:10280000032A08700CD010B51C6882B06CB10F4B55
:102810000122DA64BFF36F8FBFF34F8F02B010BD98
:102820000D486FF48031FDF743BE6FF480310A48E4
:10283000FDF73EFE094BADF8064006221B688DF8F9
:10284000042001A8984702B010BD00BF00700240EC
:102850005005002045050020480500207006002096
:1028600010B5264BD3F80044C3F8004482B0BFF340
:102870006F8FBFF34F8FBFF36F8FBFF34F8FE105A4
:102880000ED51F481F4A002302218DF80730ADF8EE
:1028900005308DF804100368012101A811709847D4
:1028A000A2050DD5164A17491268002303208DF89A
:1028B0000400ADF805308DF8073001A80B70904783
:1028C000630519D50F4B1A78B2B10C4901200022CB
:1028D0001A70C1F808058865BFF36F8FBFF34F8F7B
:1028E000074BADF8052004211B688DF804100DEB93
:1028F00001008DF80720984702B010BD007002401B
:10290000700600204405002030B53F4B93F90020AD
:102910001C78002A83B01ADB3C493D4A04F00F03BF
:1029200015680A681033012000FA03F31A432B429A
:102930000A600AD1374B8DF8070006221B688DF814
:1029400004208DF8064001A8984703B030BD04F07C
:102950000F02314B2D4833F812300168012503F185
:102960008043954003F51C3329430160196812B276
:10297000E1B100211960BFF36F8FBFF34F8F4FF0AC
:102980008053802CD3F8303121D0082B04BF234B47
:10299000C3F81C1C224B00211970224B110103EBC0
:1029A0000212927B032A2AD05B5843B3184B1B6850
:1029B0002B40CAD1174A8DF80640062112688DF8BF
:1029C00004108DF8073001A8904703B030BD082BE4
:1029D00008BF124B124A08BFC3F81C1C124B00213F
:1029E000117093F89E20032A03D0D3F89030002B67
:1029F000DCD16FF001010648FDF75AFDD6E7E94347
:102A00000348FDF755FDD1E7740600204C05002072
:102A10004805002070060020C095000000700240AC
:102A200045050020E0050020500500202DE9F04F6D
:102A3000DFF820A2DFF82082DAF80040D8F8003072
:102A4000234089B000F09B8013F0012400F09A80AD
:102A500094FAA4F4002C00F09A80B4FA84F94D465C
:102A60000F2D1DD8DFF8F4B10FFA89FA0BEB0A1617
:102A70004FEA0A1AB2895BF80A30716806A89847CB
:102A800069F07F077FB24C4608B94BF80A00012372
:102A900003FA09F905F008036FEA090B01932AE02C
:102AA000A9F110056BB24FF0010B0293634B0BFAC7
:102AB00009FB5FFA85F903EB091615F008036FEAC5
:102AC0000B0B4C4601936AD14D465D4A05F5947354
:102AD00052F8233000220192B2897168376803935B
:102AE00006A8B847069A1AB1079A039B93427BD867
:102AF000029F00B930604FF08053D3F83031082B7B
:102B000003D14F4B8222C3F81C2CD8F80030079A0F
:102B100003EA0B03C8F80030B3681344B360494BB1
:102B20000121002F1970069B019946DB00294DD029
:102B30004349AD00C1F8A037C1F8A42728232B448E
:102B4000DBB203F1804303F51C3301221A60BFF3AB
:102B50006F8FBFF34F8F3C4A3C4B394913EA270331
:102B600038BF134633F8142002F1804202F51C32BC
:102B700002E0D1F8003113B91368002BF9D009B085
:102B8000BDE8F08F93FAA3F4002C7FF466AF102316
:102B90002A4E029325464FF0FF3B994695E7284B76
:102BA000D3F8C034DA0346D53568B2897168029F1C
:102BB00006A80023A8474D469BE771B32049AD0006
:102BC000C1F8A036C1F8A4260423B8E705EB8501B7
:102BD000890001F1804101F51C31AD00C1F80037D9
:102BE000C1F804272823AAE702245946B4735046A3
:102BF000FDF75EFC164B8DF8174006221B688DF81A
:102C000016908DF8142005A89847DAF80040D8F8F7
:102C1000003023407FF418AFB1E705EB8501890050
:102C200001F1804101F51C31AD00C1F80036C1F859
:102C30000426042383E74D464EE700BF50050020DD
:102C40000070024045050020D4950000C0950000AA
:102C500070060020480500204C050020E0050020FB
:102C600010B54FF0805382B0D3F83031082B03D128
:102C7000164B0022C3F81C2C154B164C93F83E2023
:102C80000021032A217006D01B6B73B102B0BDE88E
:102C90001040FFF7CBBE10486FF40021FDF708FC91
:102CA0002378002BF2D002B010BD6FF400210A4847
:102CB000FDF7FEFB094B062103221B688DF804106B
:102CC000ADF8062001A89847EAE700BF007002406F
:102CD0005005002045050020480500207006002012
:102CE0004FF08053D3F83031082B03D1114B002221
:102CF000C3F81C2C104B114993F88E200020032A96
:102D0000087002D0D3F8803003B1704700B56FF07F
:102D1000807183B00A48FDF7CBFB0A4B06210822DD
:102D20001B688DF80410ADF8062001A8984703B081
:102D30005DF804FB007002405005002045050020AE
:102D400048050020700600204FF08053D3F8303142
:102D5000082B03D1144B0022C3F81C2C134B14492D
:102D600093F81E210020032A087003D0D3F81031F5
:102D70002BB170470F486FF48071FDF799BB00B518
:102D80006FF4807183B00B48FDF792FB0A4B06216C
:102D900088221B688DF80410ADF8062001A898471A
:102DA00003B05DF804FB00BF007002405005002036
:102DB0004505002048050020700600204FF0805394
:102DC000D3F83031082B03D10A4B0022C3F81C2C56
:102DD000094B0A4993F89E200020032A087003D06B
:102DE000D3F8903003B1704705486FF00101FDF74B
:102DF0005FBB00BF00700240500500204505002069
:102E0000480500204FF08053D3F83031082B03D110
:102E10000A4B0022C3F81C2C094B0A4993F8AE2038
:102E20000020032A087003D0D3F8A03003B1704704
:102E300005486FF00201FDF73BBB00BF0070024088
:102E40005005002045050020480500204FF0805324
:102E5000D3F83031082B03D10A4B0022C3F81C2CC5
:102E6000094B0A4993F8BE200020032A087003D0BA
:102E7000D3F8B03003B1704705486FF00401FDF797
:102E800017BB00BF00700240500500204505002020
:102E9000480500204FF08053D3F83031082B03D180
:102EA0000A4B0022C3F81C2C094B0A4993F8CE2088
:102EB0000020032A087003D0D3F8C03003B1704754
:102EC00005486FF00801FDF7F3BA00BF007002403B
:102ED0005005002045050020480500204FF0805394
:102EE000D3F83031082B03D10A4B0022C3F81C2C35
:102EF000094B0A4993F8DE200020032A087003D00A
:102F0000D3F8D03003B1704705486FF01001FDF7DA
:102F1000CFBA00BF007002405005002045050020D8
:102F2000480500204FF08053D3F83031082B03D1EF
:102F30000A4B0022C3F81C2C094B0A4993F80E21B6
:102F40000020032A087003D0D3F8003103B1704782
:102F500005486FF08001FDF7ABBA00BF007002407A
:102F60005005002045050020480500204FF0805303
:102F7000D3F83031082B03D10A4B0022C3F81C2CA4
:102F8000094B0A4993F8EE200020032A087003D069
:102F9000D3F8E03003B1704705486FF02001FDF72A
:102FA00087BA00BF00700240500500204505002090
:102FB000480500204FF08053D3F83031082B03D15F
:102FC0000A4B0022C3F81C2C094B0A4993F8FE2037
:102FD0000020032A087003D0D3F8F03003B1704703
:102FE00005486FF04001FDF763BA00BF0070024072
:102FF00050050020450500204805002010B54FF081
:10300000805382B0D3F83031082B03D1154B002206
:10301000C3F81C2C144B154C9A7F0021032A2170F5
:1030200006D01B6973B102B0BDE81040FFF7FEBCCB
:103030000F486FF40031FDF73BFA2378002BF2D0F4
:1030400002B010BD6FF400310948FDF731FA094BA9
:10305000062101221B688DF80410ADF8062001A896
:103060009847EAE70070024050050020450500201F
:10307000480500207006002010B54FF0805382B044
:10308000D3F83031082B03D1164B0022C3F81C2C87
:10309000154B164C93F84E200021032A217006D0C0
:1030A0001B6C73B102B0BDE81040FFF7BFBC104805
:1030B0006FF48011FDF7FCF92378002BF2D002B0F9
:1030C00010BD6FF480110A48FDF7F2F9094B042294
:1030D00006211B688DF80410ADF806200DEB0200E8
:1030E0009847E9E7007002405005002045050020A0
:1030F000480500207006002010B54FF0805382B0C4
:10310000D3F83031082B03D1164B0022C3F81C2C06
:10311000154B164C93F85E200021032A217006D02F
:103120001B6D73B102B0BDE81040FFF77FBC1048C3
:103130006FF40011FDF7BCF92378002BF2D002B038
:1031400010BD6FF400110A48FDF7B2F9094B0621D2
:1031500005221B688DF80410ADF8062001A89847D9
:10316000EAE700BF0070024050050020450500203E
:10317000480500207006002010B54FF0805382B043
:10318000D3F83031082B03D1154B0022C3F81C2C87
:10319000144B154C93F86E200021032A217006D0A1
:1031A0001B6E73B102B0BDE81040FFF73FBC0F4883
:1031B0006FF48001FDF77CF92378002BF2D002B088
:1031C00010BD6FF480010948FDF772F9084A062323
:1031D00012688DF80430ADF8063001A89047EBE78F
:1031E00000700240500500204505002048050020E1
:1031F0007006002010B54FF0805382B0D3F8303104
:10320000082B03D1164B0022C3F81C2C154B164C6F
:1032100093F87E200021032A217006D01B6F73B122
:1032200002B0BDE81040FFF701BC10486FF4000188
:10323000FDF73EF92378002BF2D002B010BD6FF4F9
:1032400000010A48FDF734F9094B062107221B68E3
:103250008DF80410ADF8062001A89847EAE700BFF2
:103260000070024050050020450500204805002060
:103270007006002010B54FF0805382B0D3F8303183
:10328000082B03D1164B0022C3F81C2C154B164CEF
:1032900093F82E200021032A217006D01B6A73B1F7
:1032A00002B0BDE81040FFF7C1BB10486FF48021A9
:1032B000FDF7FEF82378002BF2D002B010BD6FF4BA
:1032C00080210A48FDF7F4F8094B062102221B6809
:1032D0008DF80410ADF8062001A89847EAE700BF72
:1032E00000700240500500204505002048050020E0
:1032F000700600202DE9F047564BD3F86C44C3F814
:103300006C4482B0BFF36F8FBFF34F8F524F04B343
:10331000524DDFF85C81524E94FAA4F109B3B1FA30
:1033200081FCBCF10F0F61462ADD4E48D8F8002021
:10333000012303FA0CFC0368103942EA0C021CEA70
:10334000030FC8F80020C9B224EA0C040AD0002CEC
:10335000E2D13B78002B7AD102B0BDE8F047FFF70D
:1033600065BB1021062001228DF804002B688DF822
:1033700006108DF8072001A89847002CCCD1E8E76B
:103380000CF00F0ED8F8000036F81E2002F1804233
:1033900002F51C32012303FA0CFA136840EA0A0012
:1033A0004CF08009C8F8000024EA0A047146F3B121
:1033B00000231360BFF36F8FBFF34F8F4FF0805226
:1033C000B9F1800FD2F830212BD0082A04BF214A4E
:1033D000C2F81C3C244B00223A7003EB0E124FEA59
:1033E0000E1E927B032A14D053F80E308BB11D4B66
:1033F0001B681AEA0303AAD106212A688DF8041073
:103400008DF806908DF8073001A89047002C83D1E5
:103410009FE7012303FA01F1C9431248FDF748F879
:10342000E5E7082A04BF0B4AC2F81C3C0F4B0022F8
:103430003A7093F89E20032A03D0D3F89030002BE3
:10344000D5D16FF001010748FDF732F8CFE702B0A0
:10345000BDE8F0870070024045050020700600209E
:10346000C095000048050020E00500205005002020
:103470004C0500202DE9F04F644CDFF8989123684B
:10348000DFF89C81D9F80020DFF898A198F8007047
:10349000DAF88054DB439BB2134398F90020002AEA
:1034A00085B024DB07F00F0B0BF1100201269640CC
:1034B000334245D1564F03AE05F080056FF0011140
:1034C000544888F80050FCF7F3FF23683A6843F04B
:1034D00001032360052100233046ADF80D308DF83F
:1034E0000F308DF80C10904705B0BDE8F08F07F055
:1034F0000F0B012606FA0BF63342DBD0002002F058
:1035000077F93B0712D4802F6FD00BF2DA335B00D0
:10351000CAF80038DAF80438DAF80428DBB243F0E5
:1035200002031343CAF80438DAF804382368D9F8D8
:10353000002062EA0301314221D1354F03AE1AE087
:10354000002002F055F9D9F80030334936EA03007B
:103550004FEA0B1C01EB0B122DD123EA0603C9F82D
:103560000030236841F80C0023EA0603236003239C
:10357000274F937303AE002002F042F99CE722EA42
:1035800006023343C9F8002023604FEA0B12234B95
:103590008DF80E700021995003EB0B1303221C4F82
:1035A0009A7303AE06238DF80C308DF80F203B681C
:1035B00030469847DFE70020019202F019F92368AE
:1035C000019A23EA060317F00807236007D10BF5D9
:1035D000947B4AF82B70BFF36F8FBFF34F8F00209F
:1035E000019202F00DF9019AC1E740F2B473CAF8F2
:1035F0000038DAF80438DAF80428DBB243F00403C0
:103600001343CAF80438DAF804388FE74C05002071
:10361000700600204805002050050020E00500202D
:1036200074060020007002402DE9F041DFF8B4E09C
:10363000DEF80413002946D00024DFF8AC802746CA
:10364000012691FAA1F3244AB3FA83F04FEA800CE1
:10365000624443B3156806FA00F321EA03012DB171
:103660001760BFF36F8FBFF34F8F1C430029E8D162
:1036700004F4000634F400040FD0184F012594FA26
:10368000A4F3B3FA83F205FA02F193B124EA010438
:1036900057F822309847002CF1D1114B1B7853B1C9
:1036A0006EB9BDE8F081DEF8800142460028D7D12E
:1036B000C7E79847E3E7FFF7B9F9002EF1D0BDE877
:1036C000F041FFF7D7BE064B1B78002BE9D1BDE8D0
:1036D000F041FFF7ABB900BF00710240E895000070
:1036E00045050020007002408071024010B5084C72
:1036F000D4F8003182B04BB1064B1B6898470023C9
:10370000C4F80031D4F800310193019B02B010BD20
:1037100000000140780600200F4A0B46528810B97D
:10372000022A0DD87047022AFCD90C4A0C480D49D0
:10373000801AC00800041A4640F0030001F024B8C3
:10374000064A07480849801AC00800041A4640F093
:10375000030001F089B800BF70000020E89000006D
:10376000A0910000689600005096000008B5194925
:10377000192000F093F84FF48041002000F0F0FC95
:1037800098B901F0B3FD01F0FDFFF8B905F08CF830
:10379000C8B9114B5B88022B0AD8002000F006F94B
:1037A00000F06CFD05F096F8FAE701F0AFFDE8E7F0
:1037B0000A4B0B480B49C01AC008000440F0030034
:1037C00001F0B6F8E9E701F0A1FDE2E701F09EFDA6
:1037D000DCE700BF1937000070000020E89000000F
:1037E000A09100008496000070B51D20FDF76EF8D2
:1037F000244C254B254801210025D9604FF0170C9A
:1038000025714FF0A04E2560016002E0D0F8402104
:10381000AAB95964D3F84425172AF7D91C4D2B7837
:1038200013B91C4B01225A6323792168182B1A4BB8
:103830001AD01B68012098472B78EBB970BDC0F8EF
:103840004051DEF810252668C2F3407202FA0CF2ED
:103850003243226022790CF1FF3C0132D2B2BCF13A
:10386000FF3F2271D5D1D9E71B6841F31701002032
:1038700098472B78002BE1D0BDE8704001211D2036
:10388000FCF7B6BF8806002000A000400090004072
:103890007C060020006000408006002030B583B028
:1038A00002249DF80620ADF804404FF0A043364DA9
:1038B000364C296022F007028DF806200322206092
:1038C0004FF08055C3F8702740F20F22C3F8085517
:1038D0004FF00071C3F864270022C3F80815C3F83D
:1038E0007427FCF779FE002844D0294A01A91D203D
:1038F000FCF77CFE002844D1264A01211023C2F89F
:1039000040152020C2F8443500210423C2F84805A0
:10391000C2F80032C2F8101502F5805225681E491F
:10392000C2F840550220C2F804051C4B1C4C1D482F
:10393000C1F81445A2F56C6201F54551C3F8102594
:10394000194CC3F81405043102F6C86200F5824030
:10395000C3F818150C30C3F81C45A1F59A71C3F8CB
:1039600014290722C3F82005C3F82415C3F800253D
:1039700003B030BDFCF7E0FD0028B6D001F0C6FC76
:10398000B3E701F0C3FCB7E78006002084060020FF
:10399000E9370000009000400060004000F0014066
:1039A000031C110034600040646000400121044A9F
:1039B000044B4840107059661D20FCF719BF00BF2A
:1039C0007C06002000600040054A00230428C1E96D
:1039D0000132CB609CBF034B53F820300B60704723
:1039E000989C0000BC9C0000C368DB6800225A71F0
:1039F000704700BFC368DB6801225A71704700BF7F
:103A000010B50F4B0F4CA4EB030E00220E4CCA60F6
:103A10005FEA1E1EC1E900228C600DD003EB0E1E72
:103A2000DC6894F804C0BCF1FF0F02D0904204D0CF
:103A3000013210337345F3D110BD9B680B6010BD8C
:103A40000493000014930000D09C00000129034659
:103A500004D08168D1F84811890704D500221146A5
:103A6000184604F001B810B5054954681368054AB2
:103A700082B0CDE90014022103F038FD02B010BD80
:103A800024970000189700008368D3F848319B07FB
:103A900032D42DE9F0471A4C1A4E361B360982B043
:103AA00027D0DFF868A0DFF86890DFF86880074665
:103AB00004EB06160EE093F805E0A368BEF1000FD4
:103AC00014BFD446CC46CDE900C5103403F00EFD3A
:103AD000A6420ED0E3681D79FF2D42464FF0080143
:103AE0003846E8D1A368084A103403F0FFFCA64228
:103AF000F0D102B0BDE8F0870022114603F0B4BF58
:103B00000493000014930000509700003C970000BD
:103B1000449700007097000070B5304D84B005F5F3
:103B2000836003F0BDF805F2144003F0B9F8AB6808
:103B3000DAB2D11C05EB810015F821104C0710D525
:103B400001F00404017801F00301012938D00229B1
:103B500003F1020602F1030126D005EB8100002CDF
:103B6000F0D105EB82015A1CC8680190D2B205EB76
:103B7000820200F003010129D66803F1020425D076
:103B800002290FD1BDF80630C3F389130333360C75
:103B900004EB9304124803F08FF800B1AC60304698
:103BA00004B070BD0026F5E7438806EB9313DAB244
:103BB000D11C05EB810015F8211001F00404CEE7BB
:103BC00002880233C2F383121344F0E7BDF80430D5
:103BD000C3F38313360C1C44DCE700BF60070020EE
:103BE000740B00202DE9F0410F4C104D52F8046C7D
:103BF0002D1B2D0907460FD004EB051502E01034EC
:103C0000A54209D0A168304605F008FA0028F6D18F
:103C1000E3685871BDE8F08133463846044ABDE890
:103C2000F041022103F062BC0493000014930000F1
:103C3000949700002DE9F041104C114D52F8046C9E
:103C40002D1B2D09074610D004EB051502E010349A
:103C5000A5420AD0A168304605F0E0F90028F6D167
:103C6000E36801225A71BDE8F08133463846054ABF
:103C7000BDE8F041022103F039BC00BF049300000D
:103C80001493000094970000104A30B4104DA2EB3A
:103C9000050C00230F4ACB605FEADC0C4B608A60A6
:103CA00011D00D4C02E001339C4508D034F823209C
:103CB0009042F8D155F833300B6030BC7047002388
:103CC00030BC0B6070476346F6E700BFA892000067
:103CD000E8900000989C0000140000202DE9F04FAF
:103CE000CB68404EDFF828915B79A6EB090685B0DA
:103CF0008B468046F608002B6FD03B4A3B4B082191
:103D0000404603F0F3FB3A4A0821404603F0EEFB3D
:103D100086B3384DDFF8FCA0B70000240023EA5A30
:103D200094423ED004339F42F9D1D446002335F863
:103D30002320A24245D001339E42F8D100215046B3
:103D40008E46002335F82320944216D001339E423C
:103D5000F8D18E45CDE900C0274A4FF0000304F1A9
:103D6000010413D9254902914046082103F0BEFB06
:103D7000A642D3D105B0BDE8F08F8E45CDE900C095
:103D800059F833301C4A04F10104EBD81C49029164
:103D90004046082103F0AAFBB442BFD105B0BDE8FC
:103DA000F08FDBF80C2017495958137903EB4302C5
:103DB000072393400B40D340DBB2134A52F823C091
:103DC000B4E709EBC30393F806E00F4B71460429EF
:103DD00028BF042153F82100B3E70C4A022103F065
:103DE00085FB8AE7A8920000D4970000C8970000DE
:103DF000F497000014000020349800004C98000054
:103E000090970000F4000020A89C0000B4970000E8
:103E1000E8900000AC9700008C461346C1686246EB
:103E2000FFF75CBF2DE9F047124C134D52F8049C8C
:103E30002D1B2D09074615D01646884604EB05159F
:103E400002E01034A5420DD0A168484605F0E6F81E
:103E50000028F6D13346424621463846BDE8F047B1
:103E6000FFF73CBF4B463846044ABDE8F047022105
:103E700003F03CBB049300001493000094970000EF
:103E800002B970472DE9F04F2DED028B1C68984662
:103E9000CB68894993F804B008EE100A85B0204633
:103EA000914605F0BBF8002834D1B9F1010F00F0BC
:103EB000F080D8F804408149204605F0AFF800288A
:103EC00000F0F2807E49204605F0A8F8002800F0B6
:103ED000D7807C49204605F0A1F8002800F0E88052
:103EE0007949204605F09AF8002800F0DF807749EC
:103EF000204605F093F8002800F0DC80744A18EEA4
:103F0000100A2346022105B0BDEC028BBDE8F04F3C
:103F100003F0ECBA6F49204605F080F80746002808
:103F200040D1B9F1010F67D04FF0010A0190D1459E
:103F300033D90BEB4B0B07FA0BF303930AF18043D6
:103F4000013B654E654F08EB83080723BF1B03FA4F
:103F50000BF3FF08029358F804BF2FB3002402E0CC
:103F60000134A74220D056F8345020225946284622
:103F700004F0D4FF06EBC4020028F1D19279019B32
:103F80009A4219D2564A18EE100A2B46022103F023
:103F9000ADFA0AF1010AD145DDD105B0BDEC028BC5
:103FA000BDE8F08F4F4AAAE74F4A18EE100A5B4669
:103FB000022103F09BFAECE74C48039B50F82420C5
:103FC000029D4B4953402B405340C3F3C20240F87B
:103FD0002430C3F38210824238BF024603F0070048
:103FE0008242C3F3422338BF024601EB840193426D
:103FF00038BF13464B80CCE70190374C374B1B1B27
:10400000DB08CAD00BEB4B0B04EBC309072307FA01
:104010000BF7364EDFF8D880DFF8C4A0019D18EE0C
:10402000100A03FA0BFB0CE023680190022103F055
:104030005DFA01980834A14506F1040608F1040868
:10404000ABD0A379AB425246EED3326882EA070383
:1040500003EA0B035340C3F3C202C3F382118A4243
:1040600038BF0A4603F007018A4238BF0A46336068
:10407000C3F34223934238BF1346A8F80230D9E76E
:104080000127FBB2B9F1020F0193B6D04FF0020A3B
:104090004DE7184A18EE100A022105B0BDEC028B5C
:1040A000BDE8F04F03F022BA0746EAE70327E8E746
:1040B0000227E6E70427E4E750980000AC970000E9
:1040C00024A30000709800007898000080980000F9
:1040D00088980000A8980000E8900000A8920000CE
:1040E000C8980000B0980000EC980000F400002090
:1040F00014000020589800008C461346C1686246A0
:10410000FFF7BEBE2DE9F047124C134D52F8049C48
:104110002D1B2D09074615D01646884604EB0515BC
:1041200002E01034A5420DD0A168484604F076FFA5
:104130000028F6D13346424621463846BDE8F047CE
:10414000FFF79EBE4B463846044ABDE8F0470221C1
:1041500003F0CCB90493000014930000949700007E
:104160002DE9F84F204B214800221A7004F0B8FACC
:10417000834610B15846BDE8F88FDFF884801C4FA5
:104180001C48A7EB080704F047FCFF08F2D0DFF853
:1041900068A05D460026344608EBC509A5424FF0ED
:1041A000140208D058F83410D9F8000004F0B6FE14
:1041B0000028C8BF01360134A742EFD12AF8256094
:1041C0000135AF42E6D10C4BBA0000210AEB87075C
:1041D000598004339F42FBD10021084804F0EBFED4
:1041E0005846BDE8F88F00BF60070020A892000085
:1041F000A89200008C9C000014000020F400002015
:10420000E890000030B499B10D490E4D491BC90822
:1042100013D00D4C002302E0013399420AD034F848
:1042200023208242F8D1184655F8300030BC704740
:10423000044DF9E7002030BC70470846F6E700BFA0
:10424000A8920000E890000014000020094B0139FA
:1042500003EBC00003290BD8DFE801F004020806D5
:1042600004207047022070474079704700797047FA
:1042700000207047E8900000704700BF2DE9F0472C
:10428000BF4CD4E901239A4284B05BD00023C4F828
:104290001834BFF34F8FA568EAB2D31C04EB830137
:1042A00014F82330580718D566680B7803F0030319
:1042B000012B3DD0022B03D14B88023505EB931522
:1042C000EAB2D4F81804D31C04EB830128B9AE4237
:1042D00034D914F823305B07E7D404EB82026B1C5B
:1042E000DBB2D26804EB830302F00301DB6802292E
:1042F000CDE9012305F1020728D0012900F0F28061
:10430000D4F810543DB12B6828469B689847EB6859
:104310001D68002DF7D19B4B5B88012B00F292802A
:10432000D4E90130C01A18BF012004B0BDE8F087FD
:104330000B880235C3F383131D44C1E7A66004B0A4
:10434000BDE8F087002004B0BDE8F087BDF8063076
:104350008D489DF80460C3F389194D46502D28BF40
:10436000502505F1080165F38F13C1F30901ADF87C
:10437000063004F0B7F9C6F3C20680460028BFD065
:1043800004F0FAF90023082201A9404604F024FAB7
:10439000FB43DBB20133B5EB830F4FEA830240F2FC
:1043A000E180F9B25FFA82FA033104EB8101404601
:1043B0000823A5EB0A0504F00FFAEDB20AF1080391
:1043C000724903F0FC032A46404604F005FA09F15D
:1043D000030907EB9907D4F81834002B40F0CC8080
:1043E000D4F8105405B3DFF8B8A14FF00709EB6813
:1043F0005A79B2B11A7902EB4201BDF808205AF895
:10440000220009FA01F2052E02EA000208BF032683
:10441000CA40964205D82B6828461B6841469847F3
:10442000EB681D68002DE2D1404604F0A9F9002098
:1044300001F0DEF9D4F8183403B9A760002001F0C8
:10444000DFF96DE7524B534D0020ED1A01F0D0F922
:10445000D4E9016303F580739B1B012B4FEAD5055B
:1044600000F2A0804C4F0121384602F001FCFFF71A
:1044700053FB0146384602F0FBFBD4E9012303F568
:1044800080739B1A012BEED9D3B20333023205217C
:10449000002044F82310626001F0B2F93E48002188
:1044A00002F0D0FB80F31000721C3C4BD2B2F6B28B
:1044B00004EB8202ADB203369B0243F0110345EADE
:1044C0000045D56044F82630237813B9FFF7D4FEB1
:1044D00026E7FFF7D3FE0028F8D0FFF7CFFE00282D
:1044E000F7D1F3E7BDF804602748C6F38313062B22
:1044F00028BF062363F38916023303F00F018900F6
:10450000ADF8046004F0EEF8C6F3C2068046002859
:104510003FF4F6AE04F030F90023082201A940462A
:1045200004F05AF9BDF8043013F4707F3FF453AF30
:104530006FF00109A9EB05090825F9B203312B46F3
:10454000042204EB8101404604F046F9BDF8043032
:104550000137C3F3831309EB0702934205F1040506
:10456000EBD838E7F9B203312A4604EB810108237E
:10457000404604F031F92AE7404604F001F9CFE65D
:104580006007002070000020A89200006C07002047
:10459000E8900000A09100007C0B00200099000032
:1045A000F400002032466FE72DE9F047DFF8ECA079
:1045B0000546002098460F46914601F019F9DAF8B1
:1045C0000830DAF8046003F580739B1B052B61D873
:1045D0000AF21C440121204602F04AFBFFF79CFA34
:1045E0000146204602F044FBDAE9012303F580731B
:1045F0009B1A052BEED9D3B20333063240F20511D4
:1046000000204AF82310CAF8042001F0F9F8B31C7E
:10461000DBB20AEB8303089AC3F80C90F31CDBB2FD
:104620000AEB83030021C3F80C80331DDBB20AEBD5
:1046300083031948DA60731DDBB20AEB8303099A1E
:10464000DA6002F0FFFA80F310031B0443EA15431B
:10465000ED00721C05F0380545F48075D2B2F6B253
:104660009AF8001045F001050AEB8202033645EA8C
:104670008725D3604AF8265019B9FFF7FDFDBDE83C
:10468000F087FFF7FBFD0028F7D0FFF7F7FD0028C4
:10469000F7D1F2E73246AEE77C0B0020600700203E
:1046A0002DE9F047DFF8DCA00546002098460F46CC
:1046B000914601F09DF8DAF80830DAF8046003F565
:1046C00080739B1B042B58D80AF21C4401212046FE
:1046D00002F0CEFAFFF720FA0146204602F0C8FAAF
:1046E000DAE9012303F580739B1A042BEED9D3B2C8
:1046F00003330532C52100204AF82310CAF80420EC
:1047000001F07EF8B31CDBB20AEB8303089AC3F80E
:104710000C90F31CDBB20AEB83030021C3F80C807E
:10472000331DDBB20AEB83031548DA6002F08AFA24
:1047300080F31003E900721C01F0380141F0C1015F
:10474000D2B2F6B241EA87271B049AF800100AEBAE
:104750008202033643EA1543D3604AF8267019B93A
:10476000FFF78AFDBDE8F087FFF788FD0028F7D046
:10477000FFF784FD0028F7D1F2E73246B7E700BF24
:104780007C0B0020600700202DE9F047DFF8D4A063
:104790000546002098460F46914601F029F8DAF8C0
:1047A0000830DAF8046003F580739B1B032B54D8A0
:1047B0000AF21C440121204602F05AFAFFF7ACF934
:1047C0000146204602F054FADAE9013202F5807C13
:1047D000ACEB030CBCF1030FECD9DAB203320433B7
:1047E000852100204AF82210CAF8043001F008F8A8
:1047F000B31CDBB20AEB83030021C3F80C90F31C5B
:10480000DBB20AEB83031648C3F80C8002F01AFAF5
:1048100080F31003E900721C01F0380141F08101BE
:10482000D2B2F6B241EA87271B049AF800100AEBCD
:104830008202033643EA1543D3604AF8267019B959
:10484000FFF71AFDBDE8F087FFF718FD0028F7D045
:10485000FFF714FD0028F7D1F2E73346BDE700BFAC
:104860007C0B0020600700202DE9F843DFF8BC90A6
:10487000054600200F46904600F0BAFFD9E90163D3
:1048800003F580739B1B022B4CD809F21C440121B9
:10489000204602F0EDF9FFF73FF90146204602F00D
:1048A000E7F9D9E9012303F580739B1A022BEED9AE
:1048B000D3B2033303324521002049F82310C9F84D
:1048C000042000F09DFFB31CDBB209EB8303002141
:1048D000C3F80C80144802F0B5F980F31003E90026
:1048E000721C01F0380141F04101D2B2F6B241EA46
:1048F00087271B0499F8001009EB8202033643EA6C
:104900001543D36049F8267019B9FFF7B5FCBDE827
:10491000F883FFF7B3FC0028F7D0FFF7AFFC0028BF
:10492000F7D1F2E73246C3E77C0B00206007002096
:104930002DE9F041294C06460020884600F058FF3A
:10494000D4E9017303F58073DB1B012B44D804F217
:104950001C450121284602F08BF9FFF7DDF80146DE
:10496000284602F085F9D4E9012303F580739B1AE8
:10497000012BEED9D3B2033302320521002044F8D3
:104980002310626000F03CFF0021154802F05AF944
:1049900080F310037A1CF10001F03801D2B2FFB2AB
:1049A00020781B0441F0010104EB8202033743EA43
:1049B000164341EA8821D36044F8271018B9FFF75D
:1049C0005BFCBDE8F081FFF759FC0028F7D0FFF74A
:1049D00055FC0028F7D1F2E73A46CBE76007002004
:1049E0007C0B00202DE9F0418368D3F84831C3F3F4
:1049F00040059B0788B039D4044601AB05AA43F2B1
:104A0000274141F26E00CDE90655059501950295C5
:104A100001F010FF78B148F20963984203D13F4B8F
:104A20005B88012B29D83E4A0221204608B0BDE808
:104A3000F04102F05BBDCDE9030003A905A801F038
:104A40004FFD0028EFD13748374A0499121A04F075
:104A500089FA05A801F072FD0028E4D1334A082143
:104A6000204608B0BDE8F04102F040BD00221146EA
:104A700008B0BDE8F04102F0F7BF2D4B2D4A2E4E95
:104A80002846A3EB020800F0B3FED6E9017303F554
:104A90008073DB1B012B4FEAD8083CD806F21C457B
:104AA0000121284602F0E4F8FFF736F801462846CF
:104AB00002F0DEF8B368726803F580739B1A012B6D
:104AC000EED9D3B2033302320521002046F8231079
:104AD000726000F095FE1948002102F0B3F880F3EF
:104AE0001000FAB2164B0137FFB21FFA88F806EB36
:104AF000870703329B0243F0110348EA0040F86045
:104B000046F8223033781BB1FFF7B8FB0028FBD101
:104B1000FFF7B2FB87E73A46D3E700BF70000020FB
:104B200054990000F4000020D40100203C990000BA
:104B3000A0910000E8900000600700207C0B00209E
:104B4000149900002DE9F0432C4ED6F81044054688
:104B50000020002C4BD0234601E01B6853B1DB68DA
:104B60001A798242F9D101300A28F2D14FF0FF3090
:104B7000BDE8F083EA681071E3681C6814601D608A
:104B80001F4B204AA3EB020C5FEADC0CF0D000EBD9
:104B9000400607251C4C1D4F02F1070EB5400022B0
:104BA0001EF83230D4F800808B4228BF0B46B34049
:104BB00083EA08032B4083EA0803C3F3C208C3F364
:104BC0008219C84538BFC84603F00709C84538BF31
:104BD000C846C3F34229C84538BFC84627F82280D3
:104BE0000132624544F8043BDAD1BDE8F083EB685A
:104BF0001871C6F810541C60C2E700BF600700209F
:104C0000A8920000E8900000F400002016000020A8
:104C100038B5084BD3F8104401251D704CB12368FA
:104C2000E2685B68557120469847E3681C68002C71
:104C3000F5D138BD600700202DE9F041754B764A6B
:104C4000764888B0D21A92080024069307920590FD
:104C50006B4602AA43F2274141F26E00CDE90244BD
:104C6000CDE90044049401F0E5FD0546002868D034
:104C700048F20963984204D00327384608B0BDE8DB
:104C8000F08105A902A801F083FC654B5B88022B2B
:104C90000746F2D9634B644A644E2046A3EB0208F0
:104CA00000F0A6FDD6E9015303F580735B1B022BD0
:104CB0004FEAD80800F2AB8006F21C4401212046DE
:104CC00001F0D6FFFEF728FF0146204601F0D0FF95
:104CD000B368726803F580739B1A022BEED9D3B2C6
:104CE000033303324521002046F82310726000F0A0
:104CF00087FDAB1CDBB206EB83034D48DF60002170
:104D000001F0A0FF80F31000EAB24A4B0135EDB28A
:104D10001FFA88F806EB850503329B0243F059031E
:104D200048EA0040E86046F822303378002B5DD036
:104D3000FFF7A4FA002859D0FFF7A0FA0028F7D10E
:104D400054E005A902A801F0C7FC354B5B88022B93
:104D5000074692D9334B344A344E2846A3EB020817
:104D600000F046FDD6E9015303F580735B1B022B6F
:104D70004FEAD80849D806F21C440121204601F028
:104D800077FFFEF7C9FE0146204601F071FFB368C8
:104D9000726803F580739B1A022BEED9D3B20333EA
:104DA00003324521002046F82310726000F028FDF0
:104DB000AB1CDBB206EB83031D48DF60002101F072
:104DC00041FF80F31000EAB21B4B0135EDB21FFA30
:104DD00088F806EB850503329B0243F0590348EA45
:104DE0000040E86046F8223033782BB9FFF744FAE8
:104DF000384608B0BDE8F081FFF740FA0028F5D04A
:104E0000FFF73CFA0028F7D1F0E72A46C6E72A4622
:104E100065E700BFF4000020D40100206E102734A5
:104E200070000020A0910000E890000060070020C2
:104E30007C0B0020AC990000789900008368D3F8BF
:104E400048319B0712D410B50446FFF7F5FE30B980
:104E50002046084ABDE81040082102F047BB204622
:104E6000054ABDE81040022102F040BB0022114675
:104E700002F0FABDE0990000F899000030B5C3884F
:104E800085B004460D4623BB237A052B1FD0627ADA
:104E900082B9144AA08852F8232003920021FFF718
:104EA000B1F9039A10490346284605B0BDE83040E1
:104EB00002F04CBF1946A088FFF7C8F90B4B0C490C
:104EC00053F82020284602F041FF237AE1E705B09D
:104ED00030BD08490091084A0849284602F036FFCB
:104EE000D2E700BFC09E0000449E00009C9E0000D0
:104EF000409E0000389E0000189E0000209E00008A
:104F00002DE9F04385B01D460C9C002394F80C90CD
:104F1000237380460E46174621462846FFF7AEFF0C
:104F2000062F09D8DFE807F0042E343B444F1F005A
:104F30004146204602F00AFF2B7A052B05D06B7AFA
:104F40005BB92749204602F001FF204602F0F2FE3D
:104F500084F80C9005B0BDE8F083224A224920462F
:104F600002F0F4FEEDE77369039333690293F3688B
:104F70000193B3680093D6E900234146204602F02E
:104F8000E5FED9E732684146204602F0DFFED3E76E
:104F9000D6E900234146204602F0D8FECCE7B368AC
:104FA0000093D6E900234146204602F0CFFEC3E736
:104FB000F3680193B3680093D6E900234146204685
:104FC00002F0C4FEB8E733690293F3680193B36853
:104FD0000093D6E900234146204602F0B7FEABE736
:104FE0003CB20000389E0000409E0000082900D915
:104FF00070472DE9F04F1D4683B000241B7B2C73B6
:105000000E4607462946104690460193DFF8BCB08D
:10501000DFF8BCA0FFF732FF05E03A5D013402F093
:1050200095FE082C09D0A64251462846F5D8594687
:10503000013402F08BFE082CF5D12049DFF894B042
:10504000DFF894A0284602F081FE002414E017F84F
:105050000490B9F17E0F4FF02E02484605D803F0B8
:1050600055FF002814BF4A462E22514628460134D7
:1050700002F06CFE082C08D0A642E8D85946284613
:10508000013402F063FE082CF6D198F80830052BA5
:1050900002D098F809305BB90949284602F056FE5B
:1050A000284602F047FE019B2B7303B0BDE8F08F4A
:1050B000044A0549284602F049FEEDE75C9E0000DF
:1050C0003CB20000389E0000409E0000589E000048
:1050D000509E00004C9E0000609E0000F0B595B010
:1050E000084600240E4617461D4603F045FB1A9A53
:1050F0000D922346082205A93046CDE909540897A8
:105100008DF82C400C9403F09BFBDDE906219DF803
:1051100014308DF81140CDE9021203F00302012A88
:1051200028D0022A04D0304603F02AFB15B0F0BD87
:10513000BDF81650C3F3C203C5F389158DF81030BE
:105140000827082D2C4628BF08243B4622460EA9D6
:10515000304603F075FB2D1B08AB02AA21460EA8B2
:105160002744FFF743FF002DEBD1304603F008FB47
:1051700015B0F0BDBDF814100598C1F38312C3F348
:10518000C203C0F39525C1F383148DF810300EA926
:1051900030469200082303F053FB08AB00932246ED
:1051A00002AB0EA92846FFF7ABFE304603F0E8FA43
:1051B00015B0F0BD014B01221A7070475C0C002045
:1051C000704700BF00B583B0044B0093044A4023EE
:1051D000FFF784FF03B05DF804FB00BFE55100005A
:1051E0001C0C002038B50F480F4D03780F4CEB5CBA
:1051F0004FF0000C84F800C0D2B253B10430FDF778
:105200005DFA58B90A4B1B7813B12378002BFCD0F8
:1052100038BD0C30FCF788FF0028F3D000F076F89A
:10522000F0E700BFF4010020B80200205C0C002071
:10523000180C002010B51548154A0378D35C88B0C7
:10524000C3B10430FDF784F9124C0FCCEC46ACE846
:105250000F0094E80F008CE80F0006230B48009322
:1052600000226946FBF7E8F840B90B4B00221A70A0
:1052700008B010BD0C30FCF7D5FEE5E700F046F8AD
:10528000054B00221A7008B010BD00BFF4010020C9
:10529000B8020020D49E0000180C002010B50F4C5E
:1052A0000FCC88B0EC46ACE80F0094E80F008CE817
:1052B0000F0006230A4A0B4800936946FBF7BCF827
:1052C00020B9094B01221A7008B010BD00F01EF879
:1052D000054B01221A7008B010BD00BFD49E00001B
:1052E000B5510000F4010020180C002008B5FFF7AC
:1052F000D5FF04480421FFF725FC034B01225A7116
:1053000008BD00BF049300000802002000B585B06E
:105310000346002101AA44F20100CDE901110393E3
:1053200000F004F805B05DF804FB00BF70B572B67C
:10533000FFF76EFCFEF7A2FF0028FBD1194D6B882A
:10534000FBB9194BD3F8F030DB070DD5174C184ECD
:1053500000BE6B88012B07D9A01BC00800041549AB
:1053600040F00200FFF7E4FABFF34F8F0E49124BF3
:10537000CA6802F4E0621343CB60BFF34F8F00BFF3
:10538000FDE70A4C0A4E0D49A01BC008000440F07E
:105390000100FFF7CDFA044BD3F8F030DA07D8D587
:1053A000D6E700BF7000002000ED00E0A0910000F3
:1053B000E89000006C9F00000400FA05609F000068
:1053C00030B484688D68C368CA68A54272EB030371
:1053D0002CBF0120002030BC704700BF2DE9F04FEA
:1053E0002DED028B83B008EE100A00F031FB40B1C6
:1053F000B04AD2E9003113F1807341F10001C2E9F2
:10540000003118EE100A002100F03CFBAA4D60B3F9
:105410002B6853B3A94B2C681B7823B31CB3A84843
:1054200000F040FBA34BA74A19685B684018D2E91B
:10543000001243F10003884273EB020203D210F121
:10544000807043F10003D4E902128842934180F056
:105450006181B2F1FF3F08BFB1F1FF3F03D09A482D
:10546000214603F0EDFA00232B6018EE100A01210B
:1054700000F008FB002840F02D81944801A901F0BC
:105480009FFB00283AD0914C4FF0FF384FF0FF3986
:1054900009E033B301A9204601F0C4FB01A920466D
:1054A00001F08EFB50B30378012B11D0022BF0D109
:1054B000854E304603F0D8FA30B1C0E90289304653
:1054C00003F0D2FA0028F8D17C4B01221A70E1E7F0
:1054D0002B684168994200F0B6807B4803F0CEFA11
:1054E000D8E74168D1E90223B3F1FF3F08BFB2F129
:1054F000FF3FCFD0744803F0A3FACBE7724FDFF839
:10550000C081DFF8B091384603F0B4FA002852D0D9
:10551000D0E90223B3F1FF3F08BFB2F1FF3F00F033
:105520008E80296891B12968D1E9020182428B41BC
:1055300045D22B68D3E90223B3F1FF3F08BFB2F194
:10554000FF3F03D02968384603F07AFA384603F063
:105550008BFA044640465B4ED4E902BA00F0A2FA48
:10556000D9E900133268401843F100039042726891
:1055700073EB020203D210F1807043F10003BBEB26
:1055800000006AEB0303012873F1000325DBB0F58B
:10559000350F4ED25A464FF496030021404600F094
:1055A000D1F988B10D281CD0002338462B6003F0B8
:1055B00061FA0028ACD12B68002B00F0A28003B068
:1055C000BDEC028BBDE8F08F2B68002B3ED02C6029
:1055D00003B0BDEC028BBDE8F08F0021404600F027
:1055E00047FA364B1B78002BDED0404600F05AFAC3
:1055F000D9F80030D6E90012C018D9F8043043F1C8
:105600000003884273EB020203D210F1807043F171
:105610000003D4E90212884293411CD2B2F1FF3F49
:1056200008BFB1F1FF3FBFD02146384603F008FA6A
:10563000BAE7404600F036FA254A0244ABE738465E
:1056400003F012FA5FE700232B6023E718EE100A3D
:1056500000F04AF9BBE7002000F0CAF823692BB933
:105660004FF0FF324FF0FF33C4E90223002000F077
:10567000C7F8D4E905309847002000F0B9F823694D
:10568000A3B1D4E90212B2F1FF3F08BFB1F1FF3F6D
:105690000CD05B1842F10002A360E260002000F031
:1056A000AFF82146384603F0CBF97DE7002000F043
:1056B000A7F879E7680C0020D80C0020700C0020B7
:1056C00024020020D00C0020A09F00001002002027
:1056D000FFFFB4002748284E00F0E4F9274B1A6872
:1056E0005B688018D6E9001243F10003884273EB2F
:1056F000020203D210F1807043F10003C6E90003F7
:10570000BBE618EE100A03B0BDEC028BBDE8F04F0B
:1057100000F0EEB8002000F06BF823692BB94FF0D1
:10572000FF324FF0FF33C4E90223002000F068F895
:10573000D4E905309847002000F05AF82369A3B156
:10574000D4E90212B2F1FF3F08BFB1F1FF3F0CD024
:105750005B1842F10002C4E90232002000F050F868
:105760000748214603F06CF97DE6002000F048F878
:1057700079E600BF24020020D00C0020680C002035
:10578000A09F000010B5134B13491C68134882B04A
:1057900008235822019401F0B9F9044610B12046BB
:1057A00002B010BD0E4A0F4801A900F033F80446BC
:1057B0000028F4D10B48012100F042F901231946D9
:1057C000094A084800F098F8084B012220461A7050
:1057D00002B010BD9C9F0000740C0020100200203D
:1057E000DD53000024020020FFFF7F00700C00202A
:1057F00072B6024A1368013313607047DC0C002054
:10580000034A1368013B136003B962B6704700BFD7
:10581000DC0C002038B52B4C437944F823202A4C6B
:1058200004EBC3021279002A3AD102680D88C2F84B
:10583000085590F904208978002A1CDB234D490182
:10584000AB18C9B283F800130123510902F01F02FB
:1058500003FA02F245F8212043794FEAC30C44F8D9
:1058600033001B4B5B88A4440122022B8CF80420DC
:105870000AD8002038BD174D02F00F024901C9B205
:10588000A9544FEAC30CEAE7134B14481449C01A51
:10589000C008000440F00300FFF74AF8002038BDBC
:1058A0000B4B5B88012B01D8082038BD0A4B0B48F5
:1058B0000C49C01AC008000440F00200FFF738F895
:1058C000082038BDE80C0020E00C002000E100E0DA
:1058D0007800002014ED00E0E8900000B091000096
:1058E00018A00000F49F0000036801221A607047AE
:1058F000036801225A60704730B401F1500C4FEA3E
:105900008C0C00681FFA8CFC4FF480348C4000250E
:10591000C0F80843C0F8484340F80C5082B050F833
:105920000C50019501F5A87122F07F42019D40F8CD
:105930002120C0F844430BB1C0F8044302B030BC8E
:10594000704700BF2DE9F04F04684FF4803801F133
:10595000500508FA01F80746AD0004EB8100C4F8D1
:105960004883ADB2C4F8088322F07F494FF0000AA3
:10597000D4F80425D0F84065C0F8402544F805A0C7
:10598000A6EB020C85B0625902922CF07F4CBCF160
:10599000010F029A9B464FEA810640D0D4F8045585
:1059A000C4F84483A9EB050222F07F42012A24D0E7
:1059B000264409F1FF33C6F84095D4F80415CBF11D
:1059C000FF125B1A02F57F4223F07F439A4210D305
:1059D0003BB10020C4F84483C4F8048305B0BDE89B
:1059E000F08F09F10102C6F84025D4F80435994238
:1059F000EFD00D2005B0BDE8F08F01F5A8710F4B79
:105A000009F1010244F8212043F001034FF48060C2
:105A100098473C68D4F804359D42DAD0E9E7074A54
:105A2000019142F001024FF4806090473C68019977
:105A300044F805A062590392039AAFE730A0000032
:105A400003680222C3F8442309B1C3F80423704752
:105A50000368D3F8040100B97047002282B0C3F88C
:105A60000421D3F804310193019B012002B0704757
:105A700002684FF4803303FA01F1C2F84813C2F808
:105A80000813704750318900036889B2585800B92B
:105A9000704700225A5082B05B580193019B01204D
:105AA00002B070470368D3F804057047024A034BFD
:105AB00010681B68184700BFE00C0020E80C0020AD
:105AC00043682DE9F04188461BB1334AD468A342AC
:105AD0003CD2324E7268002302F5805CA8F8003098
