:020000022000DC
:1070000000000420757302005D7302005F730200CC
:1070100061730200637302006573020000000000E8
:107020000000000000000000000000006773020084
:1070300069730200000000006B7302006D730200B0
:1070400065AB02006F73020045B002006F7302006F
:107050006F7302006F730200C9AE02006F7302000B
:107060006F7302006F7302006F7302000DBD0200A8
:107070006F7302006F7302006F7302006F73020080
:107080006F730200318802006F7302006F73020099
:107090006F7302006F73020079DD02006F730200EC
:1070A0006F7302006F7302006F7302006F73020050
:1070B0006F7302006F730200000000000000000008
:1070C0006F7302006F7302006F7302006F73020030
:1070D0001DBD02006F7302006F7302006F73020028
:1070E0006F7302006F7302006F73020000000000F4
:1070F000000000006F730200000000006F730200C8
:10710000000000000000000000000000000000007F
:10711000000000000000000000000000000000006F
:10712000000000000000000000000000000000005F
:10713000000000000000000000000000000000004F
:10714000000000000000000000000000000000003F
:10715000000000000000000000000000000000002F
:10716000000000000000000000000000000000001F
:10717000000000000000000000000000000000000F
:1071800000000000000000000000000000000000FF
:1071900000000000000000000000000000000000EF
:1071A00000000000000000000000000000000000DF
:1071B00000000000000000000000000000000000CF
:1071C00000000000000000000000000000000000BF
:1071D00000000000000000000000000000000000AF
:1071E000000000000000000000000000000000009F
:1071F000000000000000000000000000000000008F
:10720000354936480A1A02D0072291438D4634493F
:1072100034480A1A06D00722914381F309880222D2
:1072200082F3148830483149314A00F044F831483B
:107230003149324A00F03FF831483249324A00F0D1
:107240003AF832483249334A00F035F83248334987
:10725000334A00F030F833483349344A00F02BF811
:1072600033483449344A00F026F83448344900227F
:1072700000F02CF833483449002200F027F8334856
:107280003349091A082902DB002202604160314AB1
:1072900090471F481F49884205D00268043003B454
:1072A000904703BCF7E700208646EC46002000210B
:1072B000294A9047FEE7884207D0521A05D0037842
:1072C00001300B700131013AF9D17047884202D088
:1072D00002700130FAE770470000042000E003204C
:1072E000000004200000042054FA0200BC2C0020FE
:1072F000EC3C0020D0730200D073020008E20200D0
:1073000054FA0200BC2C0020BC2C002048E30200F0
:1073100048E3020048E3020048E3020048E30200B9
:1073200048E3020048E3020048E3020054FA020086
:10733000840A0300EC3C0020EC3C0020EC3C0020E4
:10734000A18E0020A48E0020A48E0020A48E0020F8
:10735000A4AE00209D730200C1C20200FEE7FEE75A
:10736000FEE7FEE7FEE7FEE7FEE7FEE7FEE7FEE7F5
:1073700000F002B8FFF7FCBF0F484FF00701884349
:1073800085460E4880470E48016841F4700101604F
:10739000BFF34F8FBFF36F8FFFF732BF09480A4922
:1073A0000A4A884207D0521A05D0037801300B7080
:1073B0000131013AF9D170470000042015A60200FE
:1073C00088ED00E034E30200A82C0020BC2C002053
:1073D000F0B595B01D46164608460C4601F014FE61
:1073E0001A9B0D93CDE9086500252B46082205A9B7
:1073F00020460A958DF82C500C9501F021FE079B34
:107400000293069B03939DF814308DF8115003F0FE
:107410000302012A1DD1BDF81420059DC3F3C20348
:10742000C2F383168DF81030B20008230EA920464F
:1074300001F006FEC5F3952508AB0093324602AB7A
:107440000EA9284600F0C8FB204601F0E1FD15B06A
:10745000F0BD022AF8D1BDF81650C3F3C203C5F33C
:1074600089158DF810300827082D2E4628BF0826CC
:107470003B4632460EA9204601F0E2FDAD1B08ABAB
:1074800002AA31460EA8374400F00AFC002DEBD1C9
:10749000DAE70000014B01221A7070472D3D0020F1
:1074A0007047000070B50E4D06460FCD88B06C4693
:1074B0000FC495E80F00002E84E80F00094A0A481F
:1074C0004FF0060308BF00226946009303F0C6FA96
:1074D00008B100F0E3FD054B1E7008B070BD00BFA1
:1074E00048E3020095740200BC2C0020EC3C002014
:1074F00007B5044B0093044A4023FFF769FF03B02C
:107500005DF804FB0D750200ED3C002038B50D4818
:107510000D4C0E4D002323700378EB5CD2B263B1A7
:10752000043004F059FA08B100F0B8FD084B1A789D
:1075300012B12378002BFBD038BD0C3003F0DCFFF8
:10754000F1E700BFBC2C00202D3D0020C44D0020E1
:10755000EC3C002008B50848084A0378D35C3BB1EE
:10756000043004F0A9F9BDE808400020FFF79ABFF5
:107570000C3003F059FFF6E7BC2C0020C44D00206E
:107580000120FFF78FBF000008B5FFF7F9FF04489F
:10759000042100F08BFA034B01225A7108BD00BF91
:1075A00024E30200D02C0020037813F0040216D04C
:1075B00003F00303012B03D0022B09D001207047F5
:1075C0000A6800880232C0F3831002440A60F5E7BB
:1075D0000B684288023303EB92130B60EEE7104610
:1075E000704700002DE9F04FDFF81CA187B00F466F
:1075F00000230446861C0DF1070015468DF8073060
:1076000000F0A8FFDAF804203A60DAF8083003F551
:1076100080739B1A0AF21C470AF583690AF2144820
:10762000B3421AD30020002D69D004F00F039B0150
:1076300043F0050363F30F00DAF80430DAB20332E3
:1076400033444AF822009DF80700CAF8043000F0DD
:10765000A5FF012007B0BDE8F08F0121384601F0F9
:10766000FEF9484601F016FA404601F013FADAF83E
:1076700008000290C0B203300AEB800002A9FFF7B5
:1076800093FF029B30BBDAB20AEB8202D16803910E
:107690009A1C0133DBB20AEB83030292D3F80CB0DD
:1076A00001F00303012B22D0022B15D08346404664
:1076B00001F0F3F910B1029BCAF808305946384678
:1076C00001F0CDF9DAF80830DAF8042003F5807318
:1076D0009B1AA5E7D8B2CEE7BDF80E30C3F38913E5
:1076E00003334FEA1B4B02EB93030293DFE7BDF832
:1076F0000C30C3F383134FEA1B4B1344F5E7A40587
:1077000044F0060098E700BF003E0020064B074803
:1077100010B500221A7001F030FC044610B904487C
:1077200001F0D8FC204610BD003E002070E20200AF
:107730009CE3020030B50A4C71B10A4A0A49121B97
:10774000D20800239A4201D1002030BD31F82350E5
:10775000854202D00133F5E7034654F83300F4E7DD
:1077600084E2020024E30200BC2C0020094B013912
:1077700003EBC000032909D8DFE801F00A02040680
:1077800004207047007970474079704700207047A7
:107790000220704784E2020070470000034BD3E9E7
:1077A0000130C31A58425841704700BF003E0020C4
:1077B0002DE9F04186B0FFF7F1FF0546002840F0C3
:1077C000ED80774CC4F81804BFF34F8FA368029381
:1077D000DBB2033304EB830002A9FFF7E5FE029B53
:1077E00018B1D4F81824002A5AD0DAB2991C0133FF
:1077F00004EB8202DBB204EB8303D268DB68049300
:1078000002F00303022B0392029154D1BDF80E3013
:107810006448C3F38917502F3E4628BF502606F10F
:10782000080166F38F13C1F30901ADF80E3001F0C2
:10783000BCFB0546002800F09C8001F0E5FB00231E
:10784000082203A9284601F0F1FB0299CB43DBB2E1
:107850000133C9B20331B6EB830F4FEA830204EB65
:10786000810125D95FFA82F80823A6EB080628468D
:1078700001F0DCFBF6B208F108034B4903F0FC030E
:107880003246284601F0D2FB029B033703EB9707F1
:107890000297D4F81834002B43D1D4F8106453E085
:1078A00062689A4294D8A260284606B0BDE8F0818A
:1078B00008233246E5E7012B5BD1BDF80C3039488F
:1078C000C3F38311062928BF062161F3891302310E
:1078D00001F00F018900ADF80C3001F066FB0546A0
:1078E000002846D001F090FB0023082203A9284677
:1078F00001F09CFB0026BDF80C20C2F38312B300FC
:10790000964203F10803C4D202994A1CC9B203315A
:10791000029204EB81010422284601F087FB013624
:10792000E9E7284601F074FBFFF738FF80F001001B
:10793000C5B2B9E7F3685B7923B1336829461B68A0
:1079400030469847F3681E68002EF3D1284601F0B0
:107950005FFB0DF107008DF8076000F0FBFDD4F828
:1079600018340BB9029BA3609DF8070000F016FEC7
:10797000DAE7D4F8104454B90C4B0D480D49C01A3D
:10798000C008000440F0020000F05EF8CCE7236875
:1079900020469B689847E3681C68ECE7002583E76E
:1079A000003E002070E202000C3E002084E2020053
:1079B000BCE2020085E302002DE9F34704460E46CF
:1079C000924601A9012218469946FFF70BFE1C4F6B
:1079D00010B3019D4FF00008AA1CC84508EB020136
:1079E00025D11848002100F0F3FF80F310000004B7
:1079F00040EA1440E4006B1C04F03804DBB2EDB242
:107A000044F0010407EB8303033544EA881444EA95
:107A10008624D86047F825403B781BB1FFF7C8FEA5
:107A20000028FBD1FFF7B8FE02B0BDE8F087C9B26D
:107A300007EB81015AF82830CB6008F10108CCE748
:107A4000003E00201C42002000231A46FFF7B4BF6E
:107A500007B50123019201AAFFF7AEFF03B05DF85D
:107A600004FB07B5CDE9002302236A46FFF7A4FF14
:107A700003B05DF804FB1FB5CDE90123069B03931A
:107A800001AA0323FFF798FF05B05DF804FB1FB5BB
:107A9000CDE90023069B0293079B03936A460423C8
:107AA000FFF78AFF05B05DF804FB000030B50F4C0E
:107AB000D4F8102403460020114631B9D968087162
:107AC0004AB9C4F810340A6030BDC9680D798542DE
:107AD00006D00968F1E7D26814680C601360F3E718
:107AE00001300A28E8D14FF0FF30EDE7003E0020DA
:107AF00038B5084B0125D3F810441D7004B938BDC2
:107B0000E3685D71236820465B689847E3681C68FA
:107B1000F4E700BF003E002030B5C38885B00446BE
:107B20000D4633B1144A00921449154A284601F013
:107B300017F8217A05291DD0637A4BB1A088FFF789
:107B400015FE104B104953F82020284601F008F884
:107B5000227A0E4BA08853F8222003920021FFF7CF
:107B6000E9FD039A0A490346284605B0BDE83040BE
:107B700000F0F6BF05B030BDC8E30200B0E302007C
:107B8000A8E3020034E40200CDE3020058E402005E
:107B9000D0E3020007B503460846197A052911D03B
:107BA0005B7A2BB1094A0A49019000F0D9FF01988C
:107BB0000849019000F0D4FF019803B05DF804EB90
:107BC00000F0C3BF002AF8D0F2E700BFC8E302000C
:107BD000CDE30200C5E302002DE9F04385B01F4666
:107BE0000C9D002395F80C902B7306460C4690468E
:107BF00029463846FFF790FFB8F1060F09D8DFE8AD
:107C000008F00412181F283340003146284600F0BF
:107C1000A7FF002229463846FFF7BCFF85F80C90E5
:107C200005B0BDE8F08322683146284600F098FF91
:107C3000EFE7D4E900233146284600F091FFE8E75A
:107C4000A36800933146D4E90023284600F088FF5A
:107C5000DFE7E3680193A36800933146D4E900238A
:107C6000284600F07DFFD4E723690293E36801937F
:107C7000A36800933146D4E90023284600F070FF42
:107C8000C7E76369039323690293E3680193A368D9
:107C900000933146D4E90023284600F061FFB8E79D
:107CA00008292DE9F74F80460E4617461C463DD859
:107CB00000251B7B2573214610460193FFF72CFFFF
:107CC000DFF88CA0DFF88CB0AE4232D918F805206E
:107CD0005946204600F044FF0135082DF4D11B49D8
:107CE000DFF874A0DFF874B0204600F039FF4FF0E1
:107CF00000094E4524D918F809507E2D1ED8284673
:107D000006F0EEF9002814BF2A462E2259462046D6
:107D100000F026FF09F10109B9F1080FE9D10122AC
:107D200021463846FFF736FF019B237303B0BDE8B9
:107D3000F08F5146204600F013FFCDE72E22E5E7F5
:107D40005146204600F00CFFE4E700BFE4E30200E8
:107D5000E0E30200DAE30200E2E30200E6E302000D
:107D6000C30710B507D4F023054A4008145C23402C
:107D70001943115410BD0901C9B20F23F4E700BF24
:107D8000C842002030B5094B1C78094B1968002304
:107D90009C4202DC0022104630BD11F8335085426F
:107DA00001EBC302F7D00133F2E700BFB842002075
:107DB000E842002013B504460191FFF7E3FF38B114
:107DC00043682BB10199204602B0BDE81040184726
:107DD00002B010BD034B044819680022490800F0A6
:107DE00081BA00BFBC420020D82C002010B5C0B220
:107DF000FFF7C8FF0446007803F058F863785A1E6E
:107E000053425341834208D1044BD3E90023134327
:107E100003D1BDE81040FFF7DDBF10BDC042002018
:107E200037B54308374AD35CC2074CBF1B0903F080
:107E30000F0304460D46042B25D8DFE803F0032684
:107E40002F3C4000F9B10121FFF78AFF00230DF11B
:107E500007008DF8073000F07DFB0120A4F120031E
:107E6000C4F12001284A20FA01F100FA03F30B4380
:107E7000A040D2E9004120430B43C2E900039DF832
:107E8000070000F08BFB03B030BD002918BF0221B2
:107E9000204603B0BDE83040FFF762BF49B103217F
:107EA000FFF75EFF0121204603B0BDE83040FFF739
:107EB00081BF0121ECE70029E5D10421E8E709B100
:107EC0000321E5E7FFF74CFF29462046FFF772FF45
:107ED0000DF107008DF8075000F03CFB0120A4F1E4
:107EE0002003C4F12001084A20FA01F100FA03F34B
:107EF0000B43A040D2E9004124EA000021EA030339
:107F0000BBE700BFC8420020C04200202DE9F0417D
:107F1000124E134F00243378A34208DC114BD3E9EF
:107F20000023134318D0BDE8F041FFF753BF3D686D
:107F300005EBC40815F8340002F0B8FF98F80130DA
:107F40005A1E53425341181A4142414115F8340018
:107F5000FFF766FF0134DEE7BDE8F081B84200209C
:107F6000E8420020C0420020092AF7B505460C4629
:107F700016463ED902F0A0FEE8B11F4B1F481D6017
:107F80001F4B204F1C70204B002120221E6006F04A
:107F9000D8F81E4B00200021C3E90001013CE4B2E7
:107FA0000326FF2C0DD11A4A1A48002103B0BDE860
:107FB000F04000F085B902F03BFE0028DDD003B0B0
:107FC000F0BD9DF8063015F834008DF8046005EB1F
:107FD000C40223F007038DF8063001A993788DF8C9
:107FE00005303A4602F072FE013CE4B20028D8D0D7
:107FF000E5E70720E3E700BFE8420020C842002091
:10800000B8420020ED7D0200BC420020C0420020AA
:108010000D7F020078E4020070B5084D084E002480
:108020002B789C4201D3002070BD3368012113F8E6
:10803000340002F0CBFE0134F2E700BFB84200206A
:10804000E842002073B5114D114E00242B789C425C
:1080500015D300230DF107008DF8073000F07AFAF0
:108060000C4B00210020C3E900019DF8070000F03F
:1080700095FA094802B0BDE8704000F061B9336874
:1080800013F8340002F0F0FE0134DFE7B8420020BC
:10809000E8420020C0420020D82C00201FB500215B
:1080A000039001AA44F20100CDE9011100F004F8A7
:1080B00005B05DF804FB000038B572B6FFF718FD97
:1080C000FFF776FB0028FBD1104B114C114D1249E4
:1080D000E41AE408240444F00100FFF7B5FCD5F8E5
:1080E000F030DB0700D500BE0C4944F00200FFF77A
:1080F000ABFCBFF34F8FEA68094B02F4E062134315
:10810000EB60BFF34F8F00BFFDE700BF84E20200CA
:10811000BCE2020000ED00E07CE4020088E4020022
:108120000400FA0510B5D0E90243D1E90202A042E9
:1081300072EB03032CBF0120002010BD08B50A48D4
:1081400000F05FFB094AD2E90031C018084BD3E9BF
:10815000002341F10001904271EB030303D210F1BF
:10816000807041F1000108BDF82C0020F042002091
:108170006843002037B505460C460A4801A900F0BF
:1081800096FB60B10570446001A9064800F0B9FB98
:1081900018B1054800F03AFB002003B030BD0420C0
:1081A000FBE700BF54430020F82C0020294B73B597
:1081B0001E7804461EB90026304602B070BD002865
:1081C000F9D0FFF7BBFFD4E902239042994139D39C
:1081D00000230DF107008DF8073000F0BBF923698B
:1081E0002BB94FF0FF324FF0FF33C4E902239DF863
:1081F000070000F0D3F9D4E90530984700250DF1C8
:1082000007008DF8075000F0A5F92369C3B1D4E940
:108210000212B2F1FF3F08BFB1F1FF3F05D05B187A
:1082200042F10002C4E9023235469DF8070000F031
:10823000B5F9002DBFD00848214600F06AFFBBE722
:108240001D46F2E7B3F1FF3F08BFB2F1FF3FB2D0E6
:10825000F1E700BFF8420020A4E4020013B5114B7F
:1082600011491868019008231048582200F0EAFAD2
:10827000044698B90E4A0F4801A900F0B3F9044624
:1082800060B90C48012100F09FFA01230A4A09480D
:10829000194600F001FA094B01221A70204602B07B
:1082A00010BD00BFA0E40200FC42002054430020A7
:1082B0009D830200F82C0020FFFF7F00F842002081
:1082C00030B56AB103684FF0FF344FF0FF355A61A3
:1082D0004A1E5142C3E9024551411961002030BD97
:1082E0000720FCE7F7B5044600250DF10700174607
:1082F0000E468DF8075000F02DF9D4E90223B3F1B2
:10830000FF3F08BFB2F1FF3F07D1FFF717FF30185B
:1083100041F10001C4E9020101259DF8070000F0C8
:108320003DF955B12369A76103B1266121460020BB
:1083300003B0BDE8F040FFF71DBF284603B0F0BD15
:1083400037B5054600240DF107008DF8074000F011
:1083500001F9D5E90223B3F1FF3F08BFB2F1FF3FB6
:108360001FBF4FF0FF324FF0FF33C5E90223012456
:108370009DF8070000F012F934B12946012003B03E
:10838000BDE83040FFF7F6BE204603B030BD000028
:10839000014800F036BA00BFF82C00202DE9F74361
:1083A000064600F019FA40B1624AD2E9003113F1F1
:1083B000807341F10001C2E900310021304600F034
:1083C0001AFA38B15C4C236823B12068FFF7EEFE3F
:1083D000002323600121304600F00DFA20B1FFF7A1
:1083E000ADFE564BC3E900015548534C01A900F0BE
:1083F00098FA4FF0FF384FF0FF39A0B9DFF8448109
:108400004D4D404600F09BFE002800F08580D0E9ED
:108410000223B3F1FF3F08BFB2F1FF3F32D1404624
:1084200000F087FEEDE70378012B20D0022B08D166
:10843000444D284600F07DFE002877D0C0E902892F
:10844000F7E75BB94168D1E90223B3F1FF3F08BF09
:10845000B2F1FF3F02D03B4800F05BFE01A9384873
:1084600000F08AFA01A9364800F05BFAC5E74168D6
:108470002368994202D100232360EFE7314800F0DE
:1084800061FEEBE7296891B12968D1E902018242D6
:108490008B412FD22B68D3E90223B3F1FF3F08BFF2
:1084A000B2F1FF3F03D02968404600F032FE40465B
:1084B00000F03FFED0E902490746FFF73FFE201AD1
:1084C00069EB0109012879F1000318DBB0F5350FDC
:1084D00013D3FFF75DFF1C4A02441C484FF4960378
:1084E000002100F0F9F890B92B6813B9304600F07C
:1084F000CBF82F6003B0BDE8F0832246EDE71348C8
:10850000002100F06EF93846FFF750FE01E00D281B
:10851000F9D000232B6074E7074B1B68002BE9D1CF
:10852000304603B0BDE8F04300F0B2B8084B01227A
:108530001A7093E7F0420020704300206843002047
:1085400054430020A4E40200FFFFB400F82C0020F4
:10855000F842002070B5EFF3108672B60C4A9468AA
:1085600001239CB993600B4B0B4DD3F8801029402D
:108570001160C3F88050D3F8841051604FF0FF327F
:10858000C3F88420047006B962B670BD0370FAE7C0
:108590007443002000E100E0FC06FFBD084B9A6830
:1085A00010B55AB150B9EFF3108172B6054A1C6884
:1085B00014605C685460986001B962B610BD00BF79
:1085C0007443002000E100E0435882B03BB1002337
:1085D000435043580193019B012002B07047184655
:1085E000FBE70000F8B5204B4479204E43F82420E7
:1085F0001F4A204B06EBC4049B1A2279DB081B049C
:1086000032B143F002001C49FFF71EFA0820F8BD02
:1086100002680C88C2F8084590F904508A780479F9
:108620005201002DD2B219DB14494F1987F80023EB
:1086300001226D0904F01F0402FA04F441F82540F8
:10864000427906EBC201012446F832000C7143F076
:1086500003000B49FFF7F8F90020D8E7094904F0B7
:108660000F040A55ECE700BF884300208043002038
:1086700084E20200CCE20200B0E4020000E100E08B
:10868000D2E4020014ED00E0036801221A60704792
:10869000036801225A60704773B501F15005AD00BF
:1086A0000068ADB24FF480348C400026C0F8084317
:1086B000C0F84843465101F5A8714559019522F08B
:1086C0007F42019D40F82120C0F844430BB1C0F81F
:1086D000044302B070BD00002DE9F74F0D4622F0B3
:1086E0007F4402684FF4803705F150068F40804682
:1086F000B60002EB8500C2F84873B6B2C2F8087340
:10870000D2F8041599464FF0000BD0F84035C0F868
:10871000401542F806B05B1A9259009223F07F434D
:10872000012B009A4FEA850A0CD1264B4FF480604A
:1087300043F001039847D8F8003043F806B09B593E
:108740000193019BD8F80010D1F80465C1F8447377
:10875000A31B23F07F43012B1CD11A4B05F5A875F1
:10876000013443F0010341F825404FF480609847FD
:10877000D8F80030D3F804359E4209D1D8F800303B
:108780000020C3F84473C3F8047303B0BDE8F08F4E
:108790000D20FAE78A44C9F1FF13CAF84045D1F821
:1087A0000405221A013A22F07F4203F57F439342E7
:1087B000EED3002AE2D10134CAF84045D1F804359D
:1087C0009842DAE7F0E4020003680222C3F8442387
:1087D00009B1C3F80423704700684FF48271FFF7B2
:1087E000F3BE4FF4803303FA01F10368C3F8481372
:1087F000C3F80813704750318900006889B2FFF749
:10880000E3BE0368D3F804057047000090F9043014
:10881000002B09DB5A09012103F01F0301FA03F3BE
:108820004032024941F82230704700BF00E100E0C9
:10883000024B034A1B681068184700BF884300209A
:108840008043002010B561B1B2FBF3F403FB1424A4
:10885000A4B244B9C0E9001484608281C381204677
:1088600010BD0E20FCE70920FAE782B050E8022F85
:10887000C188B2EB324F4FF0000317BF92B241EA0A
:10888000014142EA014104E04268B2EB324F08BFC5
:10889000012340E80212002AE8D18DF807309DF844
:1088A0000730002B0CBF1120002002B0704737B5F5
:1088B00050E8013F9DB2C48925448489A54228BF60
:1088C0002D1B0489A54202BFBFF32F8F002207E0B2
:1088D000C5EA030540E80154002CE9D14FF001023C
:1088E0008DF803200193019A0A609DF8031001F0AE
:1088F000FF0321B1006810FA82F003B030BD1846C2
:10890000FBE70A884B889A4209D150E8012FC2EA56
:10891000024240E80123002BF7D1012070470020DC
:10892000704737B550E8023F1FFAA3F5C488A54247
:1089300002BFBFF32F8F00220DE0C4892544848934
:10894000A54228BF2D1BC3EA054540E80254002C70
:10895000E8D14FF001028DF803200193019A0A60DB
:108960009DF8031001F0FF0321B1006800EB1240F5
:1089700003B030BD1846FBE70A884B889A4209D1FC
:1089800050E8022FC2EA224240E80223002BF7D12E
:10899000012070470020704701F01F024B090121A0
:1089A000914000EB830000F02AB801F01F03012280
:1089B0009A404B0900EB8300D14300F038B84B09D3
:1089C00001F01F0150F82300C84000F0010070477B
:1089D00010B5034653E8000F0A4643E8002494F01C
:1089E000000FF7D110BD10B5034653E8000F40EA61
:1089F000010243E8002494F0000FF6D110BD10B539
:108A0000034653E8002F42EA010043E8000494F0D3
:108A1000000FF6D110BD10B5034653E8000F00EA71
:108A2000010243E8002494F0000FF6D110BD10B508
:108A3000034653E8002F02EA010043E8000494F0E3
:108A4000000FF6D110BD10B5034653E8000F00EB40
:108A5000010243E8002494F0000FF6D110BD10B5D8
:108A6000034653E8002F02EB010043E8000494F0B2
:108A7000000FF6D110BD10B5034653E8002FA2EB4E
:108A8000010043E8000494F0000FF6D110BD01216D
:108A9000FFF7A9BF0121FFF7B2BF0021FFF7BBBF5E
:108AA00010B590B1D0E9012301689B1ADBB20A60CE
:108AB000013BDBB2FF2B026802D10020107110BD18
:108AC00011684C1C14600B70F2E70E20F7E737B505
:108AD000054600240DF107008DF80740FFF73AFD29
:108AE0002A686B68116899420ED9481E106011F807
:108AF000013CEC68298A01FB0344AB6811791B1A1D
:108B0000DBB2994238BF13719DF80700FFF746FDAD
:108B1000204603B030BD37B5054600230DF10700F0
:108B20000C468DF80730FFF715FD2A681368591CAD
:108B30001160E968641A298AB4FBF1F41C709DF88D
:108B40000700FFF72BFD03B030BD826810B5044667
:108B50002AB143690168006998470023A36010BDEA
:108B60000EB403B5039921B104AB01AA019300F03F
:108B700077F802B05DF804EB03B070470A2938B506
:108B800004460D4602D10D21FFF7F8FFA3682268C5
:108B9000591CA160D554D4E901329A4204D320462D
:108BA000BDE83840FFF7D1BF38BD00002DE9F84FD0
:108BB0009846DDE90A43154682460F460A464FF0BD
:108BC0000109AA420FD2C14538BFC14613F0010BBB
:108BD00001D16CB900240126B8F1010F1BD908F1AD
:108BE000FF386E43F8E709F10109B2FBF5F2E8E757
:108BF0009B070ED5B8F1000F0CBF30262026A145EB
:108C0000E9D2013C31465046FFF7B8FF002CF6D1BF
:108C1000E0E72026F3E7B7FBF6F39D42E1D9DFF862
:108C20003C80B7FBF6F3504618F8031006FB1377A9
:108C3000FFF7A4FF3346AB42B6FBF5F6F1D2BBF12A
:108C4000000F02D00CB1A14501D3BDE8F88F20215F
:108C50005046013CFFF792FFF4E700BFF6E4020044
:108C60002DE9F74F054617468846002900F03E815A
:108C700018F8011B49B92B7B002B00F037812846DF
:108C800003B0BDE8F04FFFF760BF252940F0B78083
:108C9000002698F800302D2B424608F1010823D019
:108CA000302B24D02B2B25D000242A2B02F10101BC
:108CB00023D13B681A1D1B683A601C440A4613788E
:108CC0002E2B26D101324FF0000A104610F8011B5E
:108CD000A1F1300CBCF1090F1DD80A2303FB0A13C4
:108CE000A3F1300A0246F0E746F00106D1E746F06C
:108CF0000206CEE746F00406CBE711F8013CA3F1EB
:108D000030000928DBD80A2202FB0434303C0A4632
:108D1000CBE74FF0000A12F8011B01F0FB006828B6
:108D20009046F8D0782909D86F290CD8632962D0E9
:108D300022D8252963D0582900F0888098F800307F
:108D4000002B95D197E770390829F7D801A353F87C
:108D500021F000BFC78E02003D8D02003D8D020054
:108D60005D8E02003D8D02003B8E02003D8D0200B3
:108D70003D8D02004D8E0200642901D06929DDD1AC
:108D80003A68D2F80090111D89EAE9723960A2EBC5
:108D9000E9724FF0010B092A35DCD34538BFD346C1
:108DA0002CB1B9F1000F01DB720700D5013CB3070C
:108DB00002D5BAF1000F03D0F00701D44CBB002458
:108DC000B9F1000F2DDAC9F100092D212846FFF76E
:108DD000D5FE06F00302022A04D1BAF1000F01D138
:108DE0001CBB0024CDE9004653460A2249462846CA
:108DF000FFF7DCFEA2E73B681A1D19783A602846A7
:108E0000FFF7BCFE9AE70A230BF1010BB2FBF3F26A
:108E1000C1E7A345D4D220212846013CFFF7AEFE8E
:108E2000CCE77107D5D52B21D0E7A345DAD2302185
:108E30002846013CFFF7A2FED2E73968CDE900469B
:108E40000A1D3A6053460A220968D0E739680A1DAC
:108E50003A60CDE9004653461022F5E73B681A1DFB
:108E60003A6016F00106D3F8009024D1B9F1000F52
:108E700003D0484605F098F90646B4421DD809F1DA
:108E8000FF3919F8011F00293FF458AF2846FFF7B2
:108E900075FEF6E728460136FFF770FE19F8061052
:108EA0000029F7D1A642BFF449AF20212846013C52
:108EB000FFF764FEF6E70026F0E720212846013C94
:108EC000FFF75CFED9E73B681A1D3A60302128465F
:108ED0001C68FFF753FE78212846FFF74FFE00225B
:108EE0000823CDE900322146102280E703B0BDE817
:108EF000F08F00BF2DE9F84FB0F806A04579D2F801
:108F000000B09DF828900AFB05F5043D88460BEB60
:108F10000301A94203F1040488BFA5EB030BB4FBD2
:108F2000FAF607460AFB1644C2F800B04EB9AAEB9F
:108F300004055D4528BF5D46BBF1000F04D1BDE8C7
:108F4000F88F3F68013EF1E7043408EB06003C442B
:108F50002A46B9F1000F0DD02146ABEB050B05F009
:108F6000C7F8DA452E443F6855464FF0000428BF45
:108F70005D46E1E701462046EFE7FFF791BDF8B512
:108F800046790146721E0546002393422D6803D39D
:108F90000024A64202D8F8BD0133F6E70F68284640
:108FA000FFF7B9FD01343946F3E72DE9F843068AA6
:108FB000CD1C0746FFF78BFD043E35440446B5FB48
:108FC000F6F5F0B14FF48073EDB28380C680013DB9
:108FD000076081464FF00008A84512D23846FFF7D7
:108FE00076FD064648B163790133637108F10108E3
:108FF000C9F8000007608146EEE72046FFF7BFFF93
:1090000034462046BDE8F88301210430FFF727BD30
:1090100010B5012104460430FFF72DFDC0B220B980
:109020002046BDE81040FFF7AABF10BD1FB5039250
:109030000022009203AAFFF75DFF05B05DF804FB74
:109040001FB503920122009203AAFFF753FF05B058
:109050005DF804FB41DF7047064B10B500241C701F
:10906000054B1C60BFF35F8F0449054800F03BF8D7
:10907000204610BD944300209843002010E50200D4
:109080008C43002007B500230DF107008DF8073051
:10909000FFF760FAF1EE103A23F09F03E1EE103A89
:1090A000BFF35F8F0A4B4022C3F884219DF807006D
:1090B000FFF774FA04F046FE20B103B05DF804EB4C
:1090C000FFF7C8BF20BF40BF20BF03B05DF804FB5F
:1090D00000E100E0836800225A60C3E904229A603C
:1090E000DA601A6070470B684A684360934208BFB1
:1090F0000023016008BF43607047436843B10268C2
:10910000916852680B449342436004BF002343605C
:10911000704770B5446806460D46206818B1B368BC
:109120002946984718B923682B60256070BD2468CC
:10913000F3E74368186808B102681A60704743682B
:10914000186870474368186800B97047884203D1AF
:1091500002681A600120704703460068F4E70000C7
:1091600010B50D49A1F59472914201D800200FE08D
:109170008C1AE30F03EBE4035B1002EBC30452F819
:109180003330834205D802D204F10802ECE760686C
:1091900010BD2146E8E700BF1CEA020008B5FFF752
:1091A000DFFF024B002808BF184608BDDFE80200B9
:1091B00070B5064D0646002455F8043B0BB1304609
:1091C00098470134042CF7D170BD00BFA84300209C
:1091D0004388033300EB830399420BD382884FF615
:1091E000FF739A4208D0038833B18068431C584209
:1091F000584170470220704701207047033083B206
:1092000040F2FE329342F0B51ED8114C002526469E
:109210002078AFB280B92289B4F80AC062441A44F7
:1092200092B2B2F5806F07D8142202FB05650F8059
:109230006A8913446B81F0BD0135632D04F1140478
:10924000E6D148F20660F6E748F20860F3E700BFAF
:109250003C4400200B4A0C495388142000FB0311A6
:10926000CB6833B90420496810700122074801F027
:1092700043B907490523137002238B800122096833
:109280000023F3E7C04300203C440020A82C00202A
:10929000D04C002007B5002305490093054A096812
:1092A0000548082301F08EF803B05DF804FB00BF09
:1092B000D04C002028EA0200A82C002007B500238B
:1092C00001460093034A0448082301F07BF803B0E9
:1092D0005DF804FB20EA0200A82C002013B500234F
:1092E0000C4600930146084A0848042301F06AF836
:1092F00038B9074B142101FB043101230B7402B070
:1093000010BD48F20D60FAE71CEA0200A82C00200C
:109310003C44002037B50A480A4B42689C881968CB
:1093200053880325033305709BB2002000909B00F7
:1093300001EB8401044801F045F803B030BD00BFE3
:10934000C0430020D04C0020A82C002010B50146BE
:109350000448FFF7ACFA1C220446002104F0F1FE99
:10936000204610BDBC4C002068B10268084B9A42F0
:1093700009D14068074B984207D00133984214BF87
:10938000032001207047032070470020704700BF72
:10939000DEC0ADDEFE011EF12DE9F0410D460223D7
:1093A000154F2B80164600F5805100F108044FF050
:1093B00001088C420ED2236801330BD02046FFF700
:1093C00007FF48B10EB186F80080022809D14FF49A
:1093D00080632B80BDE8F081A3683A68934200D98E
:1093E0003B602B886288033313442B8063880333EC
:1093F00004EB8304DDE700BF3444002038B5144B90
:1094000014220D4602FB00302B68446804F580519D
:10941000A3B15C88033403EB84048C4215D2236827
:10942000013312D02046FFF7D3FE012808D00228CE
:109430000BD00028F1D12C60012038BD0834ECE7B6
:109440006388033304EB8304E7E70020F5E700BFFC
:109450003C440020426873B504460D4652B3224B8B
:10946000D9688A4226D31B699A4223D812F0030393
:1094700020D11E490089098988421BD12068916842
:10948000884217D11A4C1946606882428EB209D9B7
:1094900000F58050824205D22E80B3FA83F0400955
:1094A00002B070BD0131632904F11404ECD148F21B
:1094B0000963F2E700262E800196288801A9FFF7AC
:1094C0009DFF30B92B8801339BB2622B2B80F3D9DF
:1094D000E6E7019B226899689142EED16360034BF5
:1094E0001B892381DCE700BFA82C0020C04300209B
:1094F0003C4400202DE9F8431C461D4B1B780646D2
:109500000F46154673B382B37CB3DFF86C804FF01F
:109510001409A388622B02D948F2096020E009FBF4
:1095200003F318F803302BB9A0882146FFF766FF34
:1095300020B92060A3880133A380EAE723681EB125
:10954000998832889142EFD11FB119883A889142A7
:10955000EAD19A68C5E90023064B1B892B810020BC
:10956000BDE8F88348F20160FAE748F20460F7E7E3
:10957000B8430020C04300203C44002008B5074BFE
:109580005888191DFFF73AFF18B1BDE80840FFF7EA
:10959000C1BEBDE80840FFF75DBE00BFC04300206C
:1095A0002DE9F0479E4FDFF89C8288B006463B6865
:1095B00023B99C484146FFF7B4F938603D682978E3
:1095C0004B1E052B07D8DFE813F020007000700059
:1095D00002010201590148F20E641422002103A87D
:1095E00004F0AFFD41F61D539C4208BF00243B68C8
:1095F00004941A78023A042A00F20482DFE812F096
:10960000E501F10113021B0222022EB1864B00225A
:109610005A604FF40644E0E72B79032B18D8DFE8B3
:1096200003F010022631814B142101FB06F2D05CBD
:10963000022813D19918002098544868FFF73EFE7D
:1096400003E001232B71FFF725FE002800F0B9800D
:10965000754B00225A6048F20D64BEE70136632E56
:10966000E3D1714B01221A7000225A6000E1704967
:109670007048002302222B718A800968012200F0C1
:109680003BFFE2E76C4B694C5B88694A14214B4312
:10969000E11800262E714D681068156095884860A5
:1096A0000D810221E6549180C8E7B5F814A0AA7D87
:1096B000DFF87891AEB1022AEB8806D9142101FBBC
:1096C0000A91DA1C088902440A81142202FB0A99D1
:1096D000C3F57F43B9F80A20FD331344A9F80A30D3
:1096E00097E7142303FB0A9318895C6804EB800452
:1096F000062A69D8DFE802F0274E36441D5A0400D6
:1097000041F61D54AA7DEB88022A06D9142101FBDB
:109710000A91DA1C088902440A81142202FB0A9980
:10972000C3F57F43B9F80A20FD331344A9F80A3082
:1097300053E74248424900234360AB690360FFF7A7
:1097400089FE00285AD00223AB750023009304231E
:10975000EA182146374800F035FE002831D048F29B
:109760000D64CFE72B69002B14BF03230123AB75D6
:109770000023009305F10C02042304F10801E9E73A
:109780000123AB750022EB8800922A699B0004F14B
:109790000C01DFE703290CBF05230623AB7500236B
:1097A0000093042305F10802E118D3E70623AB7503
:1097B000234B1988214B5868FFF790FD0446002879
:1097C000A0D108B0BDE8F08748F20E649AE7002EF9
:1097D0007FF41FAF2B79012B36D0022B48D0002B02
:1097E0007FF4F9AE02232B710DF10A01EB680393AC
:1097F00003A8CDE90466FFF72DFE10B948F209640D
:10980000EBE60498BDF80A108388EB8003882B816F
:10981000FFF764FD0446002C7FF4DFAED1E700BF04
:1098200038440020BC4C0020B84300203C440020B9
:10983000D04C0020A82C0020C04300209C430020D6
:10984000DC4C002030440020DFF8189203AA4B467D
:109850003146A81DFFF74EFE044660B9B9F8041062
:109860000498FFF73BFD044648F209639C42D2D1BD
:1098700041F61D54B1E6C9E90066F5E7002E7FF414
:10988000C8AE724B93F86D20C2B183F86D601A7840
:10989000013A062A3FF69FAE01A151F822F000BF1F
:1098A000539902008B990200A3990200A999020022
:1098B000D7950200AF990200C19902001A78072AD1
:1098C000E5D801A151F822F0E99802008F98020032
:1098D0008F980200179902002B9902004F990200FD
:1098E0004F990200139902001A895948594C0132C4
:1098F0001A8100225A8083F86D20142505FB02F19D
:109900000132095DB1FA81F14909632A00F8011BAE
:10991000F4D1012207E0504958688A884088033210
:1099200002448A8002221A70B1E75C88494A4A4997
:10993000142505FB0422086854685060888810814B
:1099400002200C608880002111740622EBE70722B8
:10995000E9E7404A3E4910460024142511F801EB7E
:109960001FFA86FCBEF1000F12D005FB060E01F8AF
:10997000014CDEF80CE0BEF1000F09D192F810E0C6
:10998000BEF1000F04D0A3F802C0FFF7F7FD41E7D6
:109990000136632E02F11402E0D100221A705A80BF
:1099A00063E6FFF7B7FC35E7FFF754FC32E75A8868
:1099B000284B142101FB02335868FFF77FFC29E78D
:1099C00000225A60FFF766FC24E701228DF80C2084
:1099D0001A89ADF818209A88DB68ADF81A2005932B
:1099E00010E002228DF80C201A89ADF818209A8810
:1099F000ADF81A20DA689B7D05929A1F53425341B5
:109A00008DF81C3003A8FFF7D3FB0026414613480E
:109A10003E60FEF7B1FF12480121FFF72CF8002845
:109A20007FF4C5ADCDE603228DF80C20DA88ADF8C1
:109A300018201A89D0E704228DF80C20DB88ADF8B5
:109A40001830DFE705238DF80C30DBE7C04300203A
:109A5000CA4300203C440020D04C0020BC4C0020D5
:109A6000CC4C0020E04C00204068FFF799BD00007E
:109A700008B505480121FEF7E6FF18B9BDE8084022
:109A8000FFF78EBD08BD00BFCC4C00202DE9F3418F
:109A90009846374B1B7806460D46002B5CD00029B4
:109AA0005DD009884FF6FF7399425BD06B88002B1D
:109AB00058D06B689B0758D14AB92F890DF1020124
:109AC0003846FFF79BFB30B102B0BDE8F081138848
:109AD0005788ADF8023001A8FFF738FC044660B99A
:109AE000BDF80220234B142101FB023358890338AF
:109AF000C01B588148F20760E6E780F80080002329
:109B00008375BDF8023083826B68036101211A48B6
:109B1000FEF7A5FF2B882381B8F1030F6B88A38084
:109B200004BF0423A3754FF0000508BF3368E0604D
:109B300008BFA3611148E780658101A9FEF7E1FE36
:109B400036B1E36833600E4B75601B89B5723381A3
:109B5000FFF78EFF0020B7E748F20160B4E748F254
:109B60000460B1E748F20360AEE748F20260ABE799
:109B7000B84300203C44002034440020BC4C00206A
:109B8000C043002008B5034607480268042A08D0ED
:109B90000168064A42F821300121FEF760FF0020EB
:109BA00008BD48F20B60FBE7D84C0020A84300201A
:109BB0002DE9F04FDFF8208289B01422002103A89C
:109BC00004F0BFFA98F8003003F0FF0200923BB1B6
:109BD00003A8FFF7EDFA0027384609B0BDE8F08F7B
:109BE00008F10400FEF753FF0028F4D1009BDFF8D2
:109BF000ECA1D3F8F83F5C1C08BF4FF010234FF0E6
:109C0000805208BF5B6911695269581C08BF02FB8A
:109C100001F3CAF810306949A3F5C8230022504661
:109C2000CAF80C3000F09CFB07460028D4D11C2356
:109C300063496448DFF8A8B1C422FEF703FE642339
:109C4000B9463D4601933C46DAF80C604E44304636
:109C5000FFF78AFB012867D0032817D000283DD1E1
:109C600059494FF0140C0CFB04FC01EB0C0201F8F9
:109C70000C0056600CF110020CF1080C0A4430463E
:109C80006144FFF789FB45F002054AE03268531C46
:109C900002D04E4B9A4239D1321D06F580511068E0
:109CA000013033D104329142F9D1DBF800203AB9C6
:109CB00002220123CBF80060ABF8042000930BE0F4
:109CC00014226243404B022099189854404A4E6037
:109CD000548001340881A4B245F0010509F580598A
:109CE000B9F5C82FB0D1019B012B98BF0025EDB26B
:109CF000022D03D0062D36D0002D3ED1002388F84A
:109D0000003048F20A67C8F8043065E7019B2E4925
:109D10005A1E93B2142262438818019346600320AE
:109D200088540134A4B2D9E7009B6BB1264B1422AE
:109D30006243991802209854DBF800204A60244AB4
:109D4000088154800134A4B200222249CBF800607B
:109D50003046FFF721FBBBF80420022A0CBF042287
:109D600008221543BAE7012388F8003003A800232E
:109D7000C8F80430FFF71CFA2EE702A8FFF7E6FA4E
:109D8000C8B10123013D03700A2D09D8DFE805F0B1
:109D900006080608070807080F110F0000230371C3
:109DA00002A90848FEF7ADFDFFF762FE14E70323A2
:109DB000F5E70223F3E748F207670DE73CEA020004
:109DC000F84B0020BC4C00203C440020DEC0ADDE3F
:109DD000C0430020D44C0020B8430020A82C002011
:109DE000D04C002073B50D460446C8B1C1B10DF189
:109DF0000601FFF72FFBB0B1BDF806300B486668CF
:109E0000142202FB030001210C30FEF728FE6368D8
:109E10002E600C336B600123A372002002B070BD72
:109E200048F20460FAE748F20960F7E73C44002092
:109E300013B50446A8B10DF10601FFF70BFB98B16D
:109E4000BDF806200B4B142101FB0233DA6872B116
:109E5000A27A62B1DA680020013ADA60A07202B038
:109E600010BD48F20460FAE748F20960F7E748F2EB
:109E70000560F4E73C44002002230022FFF706BE01
:109E800018B103230022FFF701BE48F204607047B7
:109E9000104B1B7837B505469BB1A8B101A8FFF759
:109EA00055FAA0B1042303702B68C3600024047129
:109EB00001A90948FEF725FDFFF7DAFD204603B0AA
:109EC00030BD48F20160FAE748F20460F7E748F273
:109ED0000760F4E7B8430020BC4C00200F4B1B7810
:109EE00007B5ABB101A8FFF731FAA0B106230370A3
:109EF00001A90B48FEF705FD0A4B1A7812B10122A1
:109F000083F86D20FFF7B4FD002003B05DF804FB7B
:109F100048F20160F9E748F20760F6E7B84300202D
:109F2000BC4C0020C04300200B46002102460846DE
:109F3000FFF7E0BA07B5ADF80600ADF804100DF173
:109F4000060001A9FFF7D6FA03B05DF804FB000094
:109F50002DE9F84F3B4B1B780446002B6CD00028B2
:109F60006DD0DFF8E4901222002104F0EAF86423B7
:109F700023804FF0000A4F4614264FF00108D9F80D
:109F80000410B9F80AB0B9F808500846FFF7ECF920
:109F9000032808BF2388628804BF03F1FF332380AE
:109FA00006FB0A735D44DB681344638023899B448A
:109FB0006389A4F808B0ADB22B446381C5F5806510
:109FC000A389ADB2AB4238BFA58101F1080501F507
:109FD0008051A94226D92B68013323D02846FFF7A8
:109FE000F7F8012807D0022812D00028F1D1A38861
:109FF0000133A38007E0E3880133E380E3896A88C3
:10A0000003331344E3816B88033305EB8305E0E7F7
:10A01000E38884F810804D1BE189013301EBA50131
:10A02000E380E1810AF1010ABAF1630F09F1140931
:10A03000A5D10020BDE8F88F48F20160FAE748F2A8
:10A040000460F7E7B84300203C44002029DF704754
:10A0500028DF704770B503689E6886B004460D46D9
:10A060006EB114220021684604F06BF8A3680593D2
:10A07000237901952BB1012B0DD06846B04706B06E
:10A0800070BD01238DF8003023690293E3680393C8
:10A0900063690493F1E702238DF80030E3681B0342
:10A0A0000293F5E70846704700207047024B187A84
:10A0B000003818BF01207047844D0020034B187AE8
:10A0C0000122B0FA80F05A7440097047844D002094
:10A0D00008B510461A4604F00BF8002008BD000031
:10A0E00008B514220021044804F02BF80348FEF7B9
:10A0F000BCFB002008BD00BF844D0020744D002033
:10A1000010B5094C094B43602046FEF7C0FC40B92E
:10A1100003F018FE064920741C2306488C22FEF723
:10A1200091FB002010BD00BF844D002030EA0200EA
:10A13000E84C0020744D002038B5234D234C2B7A79
:10A140003BB923492348FEF7ECFB206008B968605F
:10A1500038BD022324682B72237973B1012B24D0DC
:10A1600020460321FFF776FF00232B726B6018490E
:10A170001848BDE83840FEF7FFBBD4E90523D21AE2
:10A18000B2F5805FD4E9031028BF4FF480529208E3
:10A19000012A38BF012219441844FFF757FF50B174
:10A1A0001128DDD101232B72D2E7D4E9030318442F
:10A1B000FFF74EFFF3E72B7C002BC9D1BDE83840F9
:10A1C000022000F009B800BF844D00209C4D002003
:10A1D000984D0020744D002038B5234C237A002B75
:10A1E00041D0022B09D1032830D0204B00221B681C
:10A1F000E2601A793AB1012A22D0637C7BBBBDE8C8
:10A200003840FFF799BFD3E905128D1AB5F5805F85
:10A2100094BF521902F580529A619142EDD1022801
:10A220004FF0000308BF19462372104B18BF0D21D1
:10A230001868FFF70FFF0E490E48FEF79DFBDCE79D
:10A240001A6901321A615B699A42E7E7E3680133F0
:10A25000082B01D8E360D0E70023E360DFE7BDE827
:10A26000384003F05FBD38BD844D00209C4D002078
:10A27000984D0020744D0020831E012B01D8FFF75C
:10A28000ABBF704700F0FD03012B08D1044B002247
:10A290005A74421E504250411874FFF74DBF704728
:10A2A000844D002010B5064C201DFEF7F0FB28B9A8
:10A2B000637C1BB9BDE81040FFF73EBF10BD00BF77
:10A2C000844D00202DE9F34180460D46104801A938
:10A2D00016461F46FEF7EBFA0446B0B118220021DD
:10A2E000043003F02EFF2D0B0123237101A9084830
:10A2F000C4F80080A760E5606661FEF702FBFFF727
:10A30000D1FF002002B0BDE8F0810420FAE700BFD1
:10A31000744D00202DE9F34180460F460F4801A9F6
:10A3200016461D46FEF7C3FA0446A8B118220021BE
:10A33000043003F006FF089BA36001A9C4E903678A
:10A340000648C4F800806561FEF7DBFAFFF7AAFF54
:10A35000002002B0BDE8F0810420FAE7744D00202F
:10A3600013B50B46114680B9104B1148114AC01A5B
:10A370000E23C0080093104B0004104940F0010068
:10A38000FDF779FB0E2002B010BD4BB9074B084812
:10A390000B4AC01AC0080E2300930004064BECE7DA
:10A3A00003601B6802B0BDE81040184784E2020059
:10A3B000ECE202005CEA020018EC020061EA020032
:10A3C00090EA02002DE9F743DDF8288088B93E4B7A
:10A3D0003E483F4AC01AC0080E243E4B0094000479
:10A3E0003D4940F00100FDF746FB204603B0BDE8C3
:10A3F000F0834AB9344B3548384AC01AC0080E2495
:10A40000344B00940004EBE7D0F800E0BEF1000FFD
:10A4100009D12D4B2D48324AC01AC00808242D4BB3
:10A4200000940004DCE74BB9274B28482D4AC01A9A
:10A43000C0080924274B00940004D1E74568D5F8EB
:10A440000490B3FBF9F509FB15354DB11E4B1F48C0
:10A45000254AC01AC00809241E4B00940004BFE717
:10A460008D0709D0184B1948204AC01AC00810247B
:10A47000184B00940004B3E712F0030F09D0124BFD
:10A4800012481B4AC01AC0081024124B0094000442
:10A49000A6E7C568A9420DD34D1EEC180569AC426C
:10A4A00008D8CDF82880DEF80C40A44603B0BDE8FB
:10A4B000F0436047044B05480E4AC01AC0081024F8
:10A4C000044B009400048BE784E20200ECE20200FB
:10A4D0005CEA020005EC020061EA0200DEEA02002A
:10A4E0008AEA02009DEA0200E4EA02000EEB0200A2
:10A4F00026EB020049EB0200F7B580B92A4B2B4846
:10A500002B4AC01AC0080E242A4B009400042A4982
:10A5100040F00100FDF7AFFA204603B0F0BDD0F8DF
:10A5200000C0BCF1000F09D11F4B2048234AC01ABC
:10A53000C00808241F4B00940004E8E74AB91A4BEE
:10A540001A481F4AC01AC00809241A4B0094000474
:10A55000DDE74568D5F800E00EF1FF350D4209D082
:10A56000114B1248174AC01AC0081024114B00940E
:10A570000004CCE7C568A9420CD34D1E0EFB025463
:10A580000569AC4206D8DCF81040A44603B0BDE82B
:10A59000F0406047044B05480B4AC01AC00810241D
:10A5A000044B00940004B2E784E20200ECE20200F3
:10A5B0005CEA0200F2EB020061EA02008AEA0200B1
:10A5C0009DEA020070EB020096EB02004FF0805310
:10A5D000D3F83001A0F108035842584170470000F9
:10A5E0004FF08053D3F83021082A06D1D3F8343104
:10A5F000052B02D8024AD05C70470020704700BF8C
:10A6000030EC0200024AD2F80034002BFBD0704735
:10A6100000E0014010B5FFF7D9FF40B14FF0804393
:10A620000022C3F80C21C3F81021C3F83825FFF726
:10A63000CDFF002846D04FF08052654BD2F804146D
:10A64000C3F82015D2F80814C3F82415D2F80C1456
:10A65000C3F82815D2F81014C3F82C15D2F8141426
:10A66000C3F83015D2F81814C3F83415D2F81C14F6
:10A67000C3F84015D2F82014C3F84415D2F82414B6
:10A68000C3F84815D2F82814C3F84C15D2F82C1486
:10A69000C3F85015D2F83014C3F85415D2F8341456
:10A6A000C3F86015D2F83814C3F86415D2F83C1416
:10A6B000C3F86815D2F84014C3F86C15D2F84424D6
:10A6C000C3F87025FFF78CFF18B1424B424AC3F81C
:10A6D0008C26FFF785FF18B1404BFB22C3F81825E5
:10A6E000FFF77EFF70B14FF080414FF08053D1F8FB
:10A6F000E42ED3F8583222F00F0203F00F03134375
:10A70000C1F8E43EFFF76CFF20B1354B4FF4007207
:10A71000C3F84026FFF75AFF48B14FF08043D3F803
:10A720000024D20744BF6FF00102C3F800242D4A71
:10A73000D2F8883043F47003C2F88830BFF34F8FEB
:10A74000BFF36F8F4FF08053D3F83021082A0ED11A
:10A75000D3F83431052B02D8234AD35C3BB14FF0F8
:10A760001023D3F808224FF08043C3F858254FF048
:10A770001023D3F80022002A03DBD3F80432002B85
:10A7800022DA1A4901234FF01020C1F804351224AF
:10A79000FFF738FFC0F80042FFF734FFC0F804426B
:10A7A000FFF730FF0023C1F80435FFF72BFFBFF39D
:10A7B0004F8F0C490E4BCA6802F4E0621343CB6022
:10A7C000BFF34F8F00BFFDE70A4B0B4A1A6010BD65
:10A7D00000C00040005000404881030000F00040ED
:10A7E0000090024000ED00E02AEC020000E0014091
:10A7F0000400FA05002D00200090D003074B1B5CDD
:10A800001F2B86BF064903F01F034FF0A041012212
:10A8100002FA03F3C1F80C35704700BF36EC0200B2
:10A8200000030050074B1B5C1F2B86BF064903F03B
:10A830001F034FF0A041012202FA03F3C1F80835CB
:10A84000704700BF36EC02000003005038B5074CDB
:10A85000051E04F1080318BF1C4623682BB11A68B3
:10A8600022605B6828469847F7E738BDA84D00206E
:10A8700020B9054B01225A70FFF7E8BF012802D129
:10A88000014A9070F8E77047A04D002020B9034BB3
:10A8900001225A70FFF7DABF704700BFA04D0020B9
:10A8A00038B50E4C2378B3B90D486360A3602361BB
:10A8B000E36000F01BF9054603F044FA08B900F024
:10A8C00021F901232370074BD3F800340BB1012386
:10A8D000A370284638BD8525F5E700BFA04D0020B0
:10A8E00071A802000000014037B5184CA378054656
:10A8F00003F0FF029BB110B1436801209847002389
:10A900000DF107008DF80730FDF724FEE3689DF890
:10A9100007000133E360FDF741FE03B030BD0DF1E8
:10A9200007008DF80720FDF715FE25B122691346B3
:10A930003BB92A602561E368002BE7D100F0F4F809
:10A94000E4E79D42F7D01B68F2E700BFA04D00206E
:10A9500037B50D4C00230DF107008DF80730FDF7DA
:10A96000F9FDE368013BE360E36833B9074BD3F8D3
:10A97000005415B900F0E5F8A5709DF80700FDF743
:10A980000DFE03B030BD00BFA04D0020000001400F
:10A99000012813B50CD0032820D038B9134B01225D
:10A9A000C3F88020BFF34F8FBFF36F8F02B010BD8D
:10A9B0000F4C00230DF107008DF80730FDF7CAFD9D
:10A9C00023780BB9FFF76CFFE3689DF807000133AC
:10A9D000E3600123A370FDF7E1FDE7E700F092F8E3
:10A9E00002B0BDE81040FFF7B3BF00BF00E100E0D8
:10A9F000A04D00201FB503788DF800304368019307
:10AA000083688DF80830C368054A0393054B684690
:10AA100053F8213052F82110984705B05DF804FB37
:10AA2000B44D0020BC4D00201FB503788DF80030D8
:10AA30004368019383688DF80830C368054A03931F
:10AA4000054B684653F8213052F82110984705B05D
:10AA50005DF804FBB44D0020BC4D0020F0B5194B4F
:10AA600090F800C0DFF86CE043F82C20164B164637
:10AA70000A6943F82C204B7F0EF80C300C46074631
:10AA80000FCC89B06D460FC594E80F0085E80F0024
:10AA90003B78CDF810C01EF803304BB1002E0B4AA6
:10AAA000694608BF3246381D00F02AFE09B0F0BDE5
:10AAB000002E074A694608BF324607F10C0000F035
:10AAC000E3FBF3E7BC4D0020B44D0020F5A90200E4
:10AAD00029AA0200C44D002000F18040002382B06A
:10AAE000036003680193019B02B07047044A137925
:10AAF00023B9012110609180184670478520704766
:10AB0000C84D0020074B1A68D20704D4C02283F82E
:10AB1000002301221A604FF080430122C3F8182558
:10AB2000704700BF00E100E008B54FF48270FFF706
:10AB3000D3FF4FF080430222C3F8042301229A601E
:10AB400008BD4FF0804208B50223C2F808334FF425
:10AB50008270FFF7C1FF0123D360D2F81834DB0302
:10AB6000FBD408BD4FF0804110B5D1F8003163B17E
:10AB70004FF48070FFF7B0FF0D4B58790122C1F8F8
:10AB8000082310B95A711B6898474FF08042D2F8D9
:10AB9000043163B14FF48270FFF79EFF0223C2F8C5
:10ABA0000833034BBDE810401B680120184710BD57
:10ABB000C84D002000F1804000F5C040002382B065
:10ABC000036003680193019B02B0704703681F2B69
:10ABD00083BF03F01F03036001484FF0A04070479C
:10ABE0000003005007B5019001A8FFF7EFFF019B9C
:10ABF00000EB8300D0F8003723F44033C0F800376F
:10AC0000D0F8003743EA0141C0F8001703B05DF8FF
:10AC100004FB0000054B4FF0FF32072843F82020CB
:10AC200084BFC01880F85820704700BFD04D002066
:10AC300038B51D4991F86A30A3BB4FF6FF70FF2469
:10AC40005A09012A0CBF02464FF0FF3203F01F05DC
:10AC5000EA40D20748BFCA1803F1010348BF82F88F
:10AC60003040302BECD10024E0B20134FFF7D2FFAA
:10AC70000C2CF9D10D4B00224A669A800C4BC02057
:10AC800083F80603402018604FF4BE70FFF792FF70
:10AC9000084B4FF00040C3F80403012381F86A30E9
:10ACA000104638BD0820FCE7D04D0020344E00206F
:10ACB00000E100E000600040034B93F86A000038B8
:10ACC00018BF0120704700BFD04D0020F7B53D4FA1
:10ACD0003B18044693F93030002B71DA8B78C3F3BC
:10ACE0004003002B0BBF082500250C2008208542BF
:10ACF00002D1042003B0F0BD57F82560013647D1DA
:10AD000038196EB247F8252080F8306013B97B19E6
:10AD100083F858408B785A071AD4D8073AD501A837
:10AD20000194FFF753FF019B00EB8300D0F800373D
:10AD300023F00203C0F800372348E20804F0070CB0
:10AD4000012303FA0CF310F802C043EA0C03835406
:10AD500088780B7810F0020028D0AD0005F180450E
:10AD600005F5C0452402D5F8102522F44F3222F40F
:10AD70004072C5F810251B04D5F8102504F47C5446
:10AD800003F440331C431443C5F810450020B1E7D9
:10AD90000135ACE701A84A780194FFF717FF019B42
:10ADA00003F5E073920040F82320C5E7083E47FA18
:10ADB00086F797F8604044EA831387F8603099E794
:10ADC000082097E7D04D0020344E002073B5244D65
:10ADD0002E18044696F93020072A1DDD083A45FA58
:10ADE00082F595F860309B09032B10D1019001A8E2
:10ADF000FFF7ECFE019BD0F81015D94001F00101DE
:10AE00000231204602B0BDE87040FFF7EBBE012BD7
:10AE10000CBF02210321F4E7D3B2072B1DD8930006
:10AE200003F1804303F5C043D3F8100540F001005F
:10AE3000C3F8100502F1400040B2800080B2FFF775
:10AE4000B9FE51B196F9303055F823302BB10123BA
:10AE500003FA02F2034BC3F8042302B070BD00BF33
:10AE6000D04D0020006000400E4B034493F9302089
:10AE7000072A02DD0021FFF7B5BED3B2072B10D899
:10AE8000930003F1804303F5C043D3F8101521F07C
:10AE90000101C3F81015012303FA02F2024BC3F8B3
:10AEA00008237047D04D00200060004007B5019096
:10AEB00001A8FFF78BFE019BD0F81005D84000F0E9
:10AEC000010003B05DF804FB2DE9FF470024CDE944
:10AED0000244584D4FF48072012102F1804303F582
:10AEE000C04390B21B68012B06D1D5F804330B4246
:10AEF00002D0FFF75FFE0C430432B2F5907F4FEAB9
:10AF00004101EAD14B4BD3F87C31012B11D14FF4E5
:10AF1000BE70FFF74FFE4FF0A04344F00044D3F85B
:10AF200020250292C3F82025D3F820280392C3F8E5
:10AF30002028E3B2D3B1404F00250126344210D07F
:10AF4000AB0003F1804303F5C043D3F81005D3F8F9
:10AF5000101557F8253023B1C1F30141C0F3052086
:10AF600098470135082D4FEA4606E7D1002C59DAFB
:10AF7000314D324C324E4FF00008012716F9013B9B
:10AF80005A1C3CD0C3F3C201103169445FFA83F903
:10AF900011F8081C03F03F0203F0070307FA03F35C
:10AFA00019422CD001A80192FFF710FE019B03F576
:10AFB000E07350F82330C3F3014ABAF1020F0CBF1B
:10AFC000032102211046FFF70DFE01A80192FFF7B1
:10AFD000FDFD019B07FA03F3C0F82035AB1893F988
:10AFE000303055F8233053B14FEA9911032904D07A
:10AFF000BAF1020F19D1012901D11046984708F181
:10B000000108B8F1040FB9D14FF0A043D3F82025BF
:10B010000292C3F82025D4F820350393C4F82035D4
:10B020001343A7D104B0BDE8F087BAF1030FE6D10E
:10B030000229E1E700600040D04D002000030050ED
:10B04000304E0020014B1B68184700BF3C4E0020CB
:10B050000E4B984237B50C4602D0002003B030BDED
:10B0600000230DF107008DF80730FDF773FA084B48
:10B070001D7915B901221C601A719DF80700FDF7B2
:10B080008DFA002DE9D01120E8E700BF0020004034
:10B090003C4E0020034B984201BF034B00221A6034
:10B0A0001A717047002000403C4E0020002343509E
:10B0B00082B043580193019B02B070470A4610B515
:10B0C0004FF48E71FFF7F2FF136A9168C95C136A3F
:10B0D00001331362C0F81C1510BD8B690A4610B508
:10B0E0004FF4847123B9FFF7E1FFD0F8183510BD94
:10B0F000FFF7DCFF536AD168D0F81805C854536ACB
:10B1000001335362F3E700001FB501238DF80030CF
:10B11000044BCDE90110D3E900126846904705B011
:10B120005DF804FB444E002030B54D4DD5F8043396
:10B130009A0585B051D5D5F82431002B4DD04FF468
:10B1400092712846FFF7B2FF4FF40173C5F8083338
:10B15000444B93F829200AB901226A60404902222F
:10B160008DF80020D1F88024C1F8802403929A69D8
:10B170000292DA6801920022C3E906226846D3E906
:10B18000001290473648D0F81C315BB1354A5169FE
:10B19000136A99424DD992F82830002B49D11146B3
:10B1A000FFF78CFF2E48D0F84431002B56D04FF4D7
:10B1B000A271FFF77BFF2B4B93F829200AB10122E4
:10B1C00002609A69002A49D0586AD96800229A61B7
:10B1D00005B0BDE83040FFF797BFD5F804335B07F3
:10B1E000D0D5D5F80831002BCCD01E4C1C482146B8
:10B1F000FFF773FF636AA2699A42C3D1E369E1680A
:10B200004BB1A3612369E3600023606AE361636279
:10B21000FFF77AFFB6E794F829300BB901236B608A
:10B220000F4B4FF40172C3F808230023606AA36137
:10B23000EEE70B484FF48E71FFF738FF5369002B90
:10B24000B0D051690291002391688DF800300191CE
:10B2500053616846D2E900139847A3E705B030BDB3
:10B2600000200040444E00201F2886BF00F01F0031
:10B27000044B4FF0A04300F5E070022243F8202079
:10B28000704700BF000300502DE9F843604D90F86F
:10B2900004802C2303FB0853064693F82A300C46FF
:10B2A0009146002B40F0AF805A490068FFF7D0FE6E
:10B2B0000746002840F0A9802268531C10D01F2A9E
:10B2C00087BF554902F01F0313464FF0A0410120EC
:10B2D000984003F5E073C1F80805032041F8230006
:10B2E0006168481C0DD01F298BBF01F01F030B465E
:10B2F00049484FF0A04003F5E0734FF0000C40F8D0
:10B3000023C03068A369C0F8243594F814C0637D65
:10B31000BCF1010F4CEA0303C0F86C35C0F81415FA
:10B32000C0F80C252BD1A368591C0DD01F2B8BBF47
:10B3300003F01F021A4638494FF0A04102F5E072AF
:10B340004FF0000C41F822C0E1684A1C13D01F29BD
:10B3500087BF314A01F01F0C8C464FF0A0424FF0DE
:10B36000010E0EFA0CFE0CF5E07CC2F808E54FF079
:10B37000030E42F82CE0C0F80815C0F810352C2256
:10B3800002FB08F2AB18C3F804902369AB50B9F183
:10B39000000F20D04FF48E71247FFFF787FE4FF40B
:10B3A000A2713068FFF782FE32681C4BC2F804338A
:10B3B000130B42F307326101002AC9B21EDB1848A1
:10B3C000841884F800130121520903F01F0301FAC5
:10B3D00003F340F8223033680422C3F800252C23FD
:10B3E00003FB08530022C3E9062283F829205A618F
:10B3F000012283F82A203846BDE8F883094A03F081
:10B400000F03D154E7E70827F5E71127F3E700BF5B
:10B41000444E002029B102000003005080000200C9
:10B4200000E100E014ED00E02DE9F041036805794A
:10B43000284C0022C3F800252C2202FB05420146BD
:10B440005268A2B1244AC3F808231A0B43F3073306
:10B45000002B0CDB02F01F005B090122824020332D
:10B460001E4840F82320BFF34F8FBFF36F8F0B6848
:10B47000D3F80C05D3F81485D3F80865D3F8107504
:10B480004FF0FF329042C3F81425C3F80C25C3F8DF
:10B490000825C3F8102501D0FFF7E6FEB8F1FF3FFD
:10B4A00002D04046FFF7E0FE7A1C02D03846FFF794
:10B4B000DBFE731C02D03046FFF7D6FE0868FFF7AC
:10B4C000E9FD2C2303FB0544002384F82A30636044
:10B4D000BDE8F081444E00208402020000E100E05B
:10B4E0000279044B2C2101FB02335869003818BF44
:10B4F00001207047444E00202DE9F84F064690F891
:10B50000048089469246FFF7EBFF044600283CD1B1
:10B51000204F2C2508FB057B4FF48E71CBF814A02F
:10B52000CBF80890CBF820008BF828003068FFF7A4
:10B53000BDFD3068012383605946FFF7BFFDDBF88E
:10B5400004305D461BBB3068DBF814402B6A9C421C
:10B5500011D83368D3F81C21002AFBD00122DA600D
:10B5600000202C2303FB087700237B61BDE8F88FC4
:10B5700095F828303BB9D0F81C31002BF8D059464B
:10B58000FFF79CFDE2E70F20EBE71120EEE72046F6
:10B59000ECE700BF444E00200023435082B04358E4
:10B5A0000193019B02B070471FB501238DF8003055
:10B5B000044BCDE90110D3E900126846904705B06D
:10B5C0005DF804FB704E00207FB5434AD2F8246139
:10B5D000002E60D010464FF49271FFF7DDFF02237A
:10B5E0008DF80030D2F88034C2F880340393D2F85A
:10B5F0003C350293394BDA6801920022C3E90622F6
:10B600006846D3E9001290473348D0F8443173B10B
:10B610004FF4A271FFF7C0FF304B9A693AB1002294
:10B62000C3E90622D968D0F83C05FFF7BDFF2A48D8
:10B63000D0F82031ABB14FF49071FFF7ADFF01238B
:10B64000C360264B5A6962B1D0F84C1502910022B2
:10B6500099688DF8002001915A616846D3E900127B
:10B6600090471D48D0F858319BB14FF4AC71FFF7AB
:10B6700093FF1A4B5A6962B1D0F84C15029100221F
:10B6800099688DF8002001915A616846D3E900124B
:10B69000904704B070BDD2F81031002BB4D04FF4F5
:10B6A00088711046FFF778FF0C4BD2F83C0599697A
:10B6B0008842A9D1DC69D96864B1D2F8005225F07A
:10B6C0002005C2F800521A699C61DA60DE61FFF75A
:10B6D0006BFF99E79C61FAE700200040704E002064
:10B6E0001F2886BF00F01F00044B4FF0A04300F559
:10B6F000E070022243F82020704700BF0003005092
:10B700002DE9F843664E90F80480242303FB086378
:10B71000044693F820300D469146002B40F0BC8043
:10B7200060490068FFF794FC0746002840F0B680A7
:10B7300029684B1C10D01F2987BF5B4A01F01F03EB
:10B740000B464FF0A0420120984003F5E073C2F889
:10B750000805032042F823006A68501C0DD01F2AF8
:10B760008BBF02F01F0313464F484FF0A04003F574
:10B77000E0734FF0000C40F823C02068AB69C0F8BC
:10B78000243595F814C06B7DBCF1010F4CEA03031E
:10B79000C0F86C35C0F80C15C0F814252BD1AB6877
:10B7A000591C0DD01F2B8BBF03F01F021A463E49B8
:10B7B0004FF0A04102F5E0724FF0000C41F822C0BA
:10B7C000E9684A1C13D01F2987BF374A01F01F0CB4
:10B7D0008C464FF0A0424FF0010E0EFA0CFE0CF515
:10B7E000E07CC2F808E54FF0030E42F82CE0C0F808
:10B7F0000815C0F81035242202FB08F2B318C3F86C
:10B8000004902B69B350B9F1000F2FD04FF4887119
:10B810002A7FFFF7C1FE20684FF49071FFF7BCFE4E
:10B8200020684FF49271FFF7B7FE20684FF4A271C1
:10B83000FFF7B2FE4FF4AC712068FFF7ADFE23684E
:10B840001A49C3F80413190B43F307335201002BB1
:10B85000D2B21CDB1648C51885F8002301225B090B
:10B8600001F01F0102FA01F140F8231023680822B9
:10B87000C3F80025242303FB08660023C6E906332A
:10B880007361012386F820303846BDE8F883094B00
:10B8900001F00F015A54E9E70827F5E71127F3E70C
:10B8A000704E0020C9B50200000300501003420092
:10B8B00000E100E014ED00E02DE9F0413D4D067996
:10B8C0000468242303FB065302465B68ABB13A4B82
:10B8D000C4F8083344F30733002B4FEA14310CDB70
:10B8E00001F01F005B09012181402033334840F8FB
:10B8F0002310BFF34F8FBFF36F8FD4F8003223F0C4
:10B900002003C4F80032242303FB06539B6933B1A0
:10B910004FF4A2712046FFF73FFE012363604FF40E
:10B92000AC712046FFF738FE0123E360242303FBBC
:10B930000653D4F858110029FBD0996919B1D4F8ED
:10B9400044110029F5D00023C4F800351368D3F85A
:10B950000C05D3F81485D3F80815D3F810754FF0FB
:10B96000FF329042C3F80C25C3F81425C3F808250C
:10B97000C3F8102501D0FFF7B3FEB8F1FF3F02D0A6
:10B980004046FFF7ADFE7A1C02D03846FFF7A8FE0E
:10B990004B1C02D00846FFF7A3FE2046FFF77AFBB8
:10B9A000242303FB0655002385F820306B60BDE897
:10B9B000F08100BF704E00201003420000E100E063
:10B9C0000279044B242101FB02335869003818BF67
:10B9D00001207047704E002001F06043B3F1005F1A
:10B9E0002DE9F0470646884692463BD190F80490F0
:10B9F000FFF7E6FF0446002836D11D4F30682425A6
:10BA000005FB09754FF49071C5F814A0C5F80880BE
:10BA1000FFF7C2FD4FF4AC713068FFF7BDFD33682E
:10BA20006A69A968C3F84415C3F8482501229A60D9
:10BA30006A68DAB9D3F82021D3F858011AB9002876
:10BA4000F8D00F2007E00028FBD10122DA60D3F8FC
:10BA50005821002AFBD0242303FB097700237B61B4
:10BA6000BDE8F0871020FBE71120F9E72046F7E753
:10BA7000704E00200023435082B043580193019B35
:10BA800002B070472DE9F047DFF8988004460D4674
:10BA9000914600F5A07A4FF480370026D4F804339D
:10BAA000B10001F5A0713B4289B20DD0DAF8003047
:10BAB00053B1C4F848732046C4F80873FFF7DAFF9F
:10BAC00058F82530F0B298470136B1454FEA47079C
:10BAD0000AF1040AE2D1D4F80433DA070CD5D4F819
:10BAE00000314BB120464FF48071FFF7C3FF0D4B7F
:10BAF000042053F825309847D4F804339B070ED51B
:10BB0000D4F804315BB120464FF48271FFF7B2FFE5
:10BB1000044B052053F82530BDE8F0471847BDE831
:10BB2000F08700BF9C4E0020F8B5274C4379274E84
:10BB300044F82320264C274A03EB4303A41AF35C62
:10BB4000E40824045BB10820FDF728FB224A2349BE
:10BB5000034644F00200FBF784FF0820F8BD90F98B
:10BB600004508B7802795B01002DDBB226DB1C4F81
:10BB700007EB050C8CF8003301236D0902F01F025E
:10BB800003FA02F247F8252003680A88C3F808255B
:10BB900043790879C97803EB4303F2185070917028
:10BBA00000200122F254FDF7F9FA0B4A0B49034633
:10BBB00044F00300FBF755FF0020CFE7094D02F0EA
:10BBC0000F02AB54E0E700BF9C4E0020944E0020D3
:10BBD000A4E2020084E20200CDEC02005CEC020070
:10BBE00000E100E014ED00E0036801221A604379EF
:10BBF000074A084803EB43030221D154064B074987
:10BC0000C01AC008000440F00300FBF71DBF00BFCE
:10BC1000944E0020A4E2020084E202007AEC0200CA
:10BC20002DE9F34706464FF480380068DFF8D8C0A6
:10BC3000304C314D08FA01F8C0F84883C0F8088349
:10BC400096F805E00F460EEB4E01614422F07F426C
:10BC500091F801A007F5A8714FEA4E0940F821209C
:10BC6000BAF1000F21D0D0F804A5CE44F444AAEBD9
:10BC70000201524588BF01F1FF119CF802C088BF44
:10BC800001F57F41614510DA0D20FDF787FA641B4D
:10BC9000E40824040346194A194944F00200FBF75A
:10BCA000E0FE0D2002B0BDE8F08743B107F150017E
:10BCB000890089B2FFF7DEFE3368C3F80483641B92
:10BCC00033681049C3F84483E408240444F00304AF
:10BCD0003B46009220467279FBF7CDFE0020FDF72F
:10BCE0005DFA064A064903462046FBF7BAFE0020E5
:10BCF000D8E700BFA4E2020084E20200BDEC02002B
:10BD00005CEC020083EC0200944E00200248032207
:10BD10000021FFF7B7BE00BF00B000400248042278
:10BD20000121FFF7AFBE00BF0040024072DF704745
:10BD300073DF704776DF70477ADF70477CDF7047CC
:10BD40007FDF70478FDF7047B1DF7047FCF7A6B920
:10BD500008B5064B01211878FFF7EAFF08B1FCF798
:10BD60009DF9BDE808400020FEF748BD1C2D0020CD
:10BD70002DE9F047424E434C434DDFF83481002318
:10BD80003370424BE41AE4082404ADF6A87D44F075
:10BD900003072B78132B27D9DFF8189198F8003078
:10BDA00099F800200133934252DA39493846FBF7BB
:10BDB0004BFE99F8002037493846FBF749FE98F8C2
:10BDC00000100131C9B202A888F8001000F0C8FEC6
:10BDD000314A431E00F69F7013F8011F42F8041BFE
:10BDE0008342F9D100232B70DFF8CCA0DFF8CC9090
:10BDF000DAF80030019333780093D9F800302A78CC
:10BE000026493846FBF743FE2B78C82213FB02F283
:10BE1000214B02A803EB820300210246013153F8B3
:10BE200004CB00F801CBC829F8D11D4B1D49188857
:10BE300001F06EFE13280FD1DAF800300193337849
:10BE40000093D9F800302A7817493846FBF71FFECF
:10BE50000DF6A87DBDE8F08728B1144944F0010033
:10BE6000FBF7F2FDF4E7337801333370D9F8003093
:10BE70000133C9F800302B7801332B7089E700BFFC
:10BE8000A88D0020BCE20200A98D002084E20200FF
:10BE9000DBEC0200EBEC0200A44E00200FED0200F0
:10BEA0001E2D0020848D002001ED020049ED0200CE
:10BEB000AA8D0020D43C0020AC8D00202C8D0020C9
:10BEC00030B503883B2B85B005467BD010D8132BAB
:10BED0006AD005D8102B19D0112B4AD005B030BD2F
:10BEE000212BFBD100238DF80C308DF80D3037E07D
:10BEF000562B67D0572B6AD0522BEFD146480023E0
:10BF00001A4619460088FFF71FFF54E0434B444C84
:10BF10004449E41AE408240444F003042046FBF7EF
:10BF200093FD0120FEF76AFC0020FEF77BFC3E4BF0
:10BF30003E49002220461A60FBF786FD364BA98851
:10BF40003B48198001F09EFC08B1FCF7A7F8FCF70C
:10BF500063F808B1FCF7A2F8364B1B88ADF80C303B
:10BF6000A88803A9FFF7EEFE0028B7D0FCF796F8E3
:10BF7000B4E72A4B2A483049C01AC008000440F0F0
:10BF80000300FBF761FD0120FEF74CFC224B4FF64E
:10BF9000FF721A80FCF756F808B1FCF77FF805B07D
:10BFA000BDE83040FFF7D4BE1B48002300881A4686
:10BFB0008521FFF7C5FE002890D005B0BDE83040D0
:10BFC000FCF76CB8A8881321FFF7B4FEF3E71B4C0D
:10BFD0008279236812481A4D1A4903EB4203236001
:10BFE0000E4BC01AC008000440F003000190FBF79C
:10BFF0002FFD2B78226814490198FBF732FD2A782F
:10C0000023689A423FF76AAF0023236005B0BDE87A
:10C010003040FFF7ADBE00BF1E2D002084E20200BD
:10C02000BCE2020057ED02002C8D002061ED020001
:10C030009C8D002092EE02006BED0200AC8D002082
:10C04000A88D002078ED020084ED02002DE9F0417A
:10C05000314B324CE41AE408ADF5835D2404022A26
:10C0600082B0164644F003050BD12D492846FBF754
:10C07000EBFC2C4B00221A700DF5835D02B0BDE87D
:10C08000F08129492846FBF7DFFC284B002132A824
:10C09000197000F065FD2649431E0A4600F69F70A0
:10C0A00013F8017F42F8047B9842F9D16A460023D5
:10C0B0009046013351F8040B02F8010BC82BF8D15C
:10C0C0001C4F1D493A782846FBF7C2FC1B492846FD
:10C0D000FBF7BAFC1A4A1B49002313701A4A136073
:10C0E00001223A70194A1360194B4246188801F030
:10C0F0000FFD20B1174944F00100FBF7A5FC022019
:10C1000036B1FEF77BFB14492846FBF79DFCB3E7ED
:10C11000FEF788FB1149F7E784E20200BCE2020067
:10C12000A0ED0200288D0020B9ED0200AA8D0020AC
:10C13000A44E0020A98D0020C8ED0200DDED020014
:10C14000A88D0020848D00202C8D0020AC8D002037
:10C150001E2D002049ED0200ECED0200FDED020075
:10C1600008B503784BB9054B3B211888FFF7E2FD72
:10C1700018B1BDE80840FBF791BF08BD1E2D002097
:10C180000B2808B51AD1104B10481149C01AC00825
:10C19000000440F00300FBF757FC0E4B0E491888D3
:10C1A000372201F0B5FC30F008020BD043F2020256
:10C1B000904207D043F20142904203D0BDE80840CC
:10C1C000FBF76CBF08BD00BF84E20200BCE20200C6
:10C1D0000FEE02001E2D0020848D002070B54FF060
:10C1E000A0430D4D4FF48012C3F80825C82445F034
:10C1F00001054FF47A40A847013CFAD1012000F034
:10C2000079FA064A06480123936021460822BDE8D0
:10C210007040FFF705BD00BFA0EE020000400240E5
:10C22000A8EE0200FBF73ABF10B548BB1D4A1E4BF3
:10C2300014781CB901201070196010BD1B68C91A50
:10C240001A4B1B780029C4BF6FF0D70091FBF0F0A8
:10C250005BB90A23B0FBF3F000F054FB4FF0A043AE
:10C260004FF48012C3F80C25E7E7114B114812492F
:10C27000C01AC008000440F00300FBF7E5FBEDE73F
:10C280000B4B0C48C01AC00800040B460A4640F08D
:10C2900003000A49FBF7E5FBBDE81040002000F071
:10C2A00031BB00BF288D0020248D00209C8E0020F3
:10C2B00084E20200BCE2020029EE02003DEE020030
:10C2C00000B58D49ADB0192000F090F94FF48041D0
:10C2D0000020FBF71BFA08B1FBF7E0FEFBF754F96F
:10C2E000FBF7BCFF08B1FBF7D9FE844B844C8549B2
:10C2F000E41AE408240444F003052846FBF7A4FBF1
:10C30000FEF7CEFA08B1FBF7C9FE0020FEF7ECFA03
:10C310007D4B7E4AD3F80200DB881D90ADF8783063
:10C320001DA940F6FF737A48ADF87430FFF7FCFBA7
:10C33000014644F00100FBF787FB75480123082202
:10C340000021FFF76DFC08B1FBF7A8FE7048FFF76E
:10C350004BFC6C492846FBF777FB01F075FC08B1F4
:10C36000FBF79CFE00231DA901201D9301F03CFD5D
:10C3700008B1FBF793FE1DA801F0F6FD08B1FBF72D
:10C380008DFE64492846FBF75FFB684600F078FAAB
:10C39000002000F0B7FAFCF75FFE08B1FBF77EFE65
:10C3A0005D4840F233320121FBF7DEFD08B1FBF7B7
:10C3B00075FE112359498DF8383014220EA8FFF765
:10C3C000BDFC08B1FBF76AFE0023ADF878300C2302
:10C3D000ADF874302023ADF876301DA84FF4C87343
:10C3E000ADF87A30FFF7A8FC08B1FBF757FE4C48D0
:10C3F000002101F033F908B1FBF750FE00230E9342
:10C400004848494B1D931DA901F02AFA08B1FBF7D2
:10C4100045FE464B46480E930EA901F007FB08B1B6
:10C42000FBF73CFE41F22353ADF81C30404B414C2E
:10C430009B7C8DF81E303C2200210EA801F081FE6D
:10C4400002238DF838303C2240F2016300211DA800
:10C45000ADF83A3001F075FE22460123ADF8843084
:10C4600052F8041B07AB0EA8229300F047FC08B15A
:10C47000FBF714FE304AA1681DA800F03FFC08B18C
:10C48000FBF70CFE1822002108A801F05AFE012338
:10C490008DF835308DF8203026492848402308AAE9
:10C4A0000A93FFF743FC08B1FBF7F8FD14220021C3
:10C4B0001DA801F046FE4FF4A0334FF4A022CDE9B1
:10C4C0001E2303238DF880301D4B22931DA81D4B86
:10C4D000239300F0DDFE08B1FBF7E0FD0949284693
:10C4E000FBF7B2FAFFF734FCFBF762F908B9FCF787
:10C4F000C9FD00F099F9F7E729C2020084E20200C1
:10C50000BCE2020058EE020092EE0200DDC1020021
:10C51000A8EE020070EE0200042D00207DEE020065
:10C52000708D00209C8D00204DBD02004DC002008A
:10C53000848D00200C2D0020182D00201C2D0020A3
:10C5400061C1020025C20200F8B51D20FEF78CFC77
:10C55000204D214B214801260024EE6017211C713B
:10C560004FF0A0471C6006606E64D5F84425172A7A
:10C5700018D91B4C227812B91A4A01215163197932
:10C58000194A18291968126806BF41F317010020DB
:10C59000012090472378E3B1BDE8F84001211D2038
:10C5A000FEF714BCD0F84021002ADDD0C0F840418D
:10C5B000D7F81025D3F800C0C2F340728A4042EA8F
:10C5C0000C021A601A790132D2B201391A71CBD237
:10C5D000CFE7F8BD00A00040BC8D002000900040D7
:10C5E000B08D002000600040B48D002013B5022300
:10C5F0008DF804309DF80630384C23F007038DF891
:10C600000630374B206019604FF0A0430022032111
:10C610008DF80520C3F870174FF08051C3F8081546
:10C6200040F20F21C3F850174FF48011C3F80815DA
:10C63000C3F87427FEF740FB20B9FEF7F9FA08B1FA
:10C64000FBF72CFD274A01A91D20FEF73FFB08B18F
:10C65000FBF724FD244B0122C3F840251022C3F828
:10C6600044252022C3F848250422C3F800220022D2
:10C67000C3F8102503F580532268C3F84025022231
:10C68000C3F80425A3F58043184AC3F8142503F51D
:10C69000C833174AC3F81025A2F544520C3AC3F820
:10C6A000142502F544521032C3F81825A2F543525E
:10C6B000203AC3F81C2502F57E522432C3F814290F
:10C6C00002F59C72C3F82025A2F58952103AC3F8EE
:10C6D00024250722C3F8002502B010BDB88D002024
:10C6E000B48D002049C5020000900040031C1100D9
:10C6F00040910040044B80F001001870034B012171
:10C7000059661D20FEF762BBB08D0020006000401E
:10C7100041DF704713B52A4B416804462948227807
:10C720001B1ADB081B0443F00300274B53F822209D
:10C7300089B926490190FBF78BF923780198012BE1
:10C7400013D0032B26D023B9636813B9204B0122E1
:10C750001A7002B010BDA1F506411E4B019053F8AE
:10C7600021301D49FBF77DF9E7E76368002BF0D125
:10C77000A2681A490190FBF76BF9A2890198184940
:10C78000FBF766F9E2891749019802B0BDE810404D
:10C79000FBF75EB9636873B9A26810490190FBF7B3
:10C7A00057F9A2890E490198FBF752F9E2890D4920
:10C7B0000198FBF74DF90C4B00225A70C9E700BFF6
:10C7C0001CE3020084E2020054F30200B6EE020011
:10C7D000C68D002018F30200D7EE0200EFEE020033
:10C7E00001EF020011EF0200C48D0020014B012275
:10C7F0001A707047C48D002010B586B0002401A9BE
:10C8000003A8CDE90144CDE903440594FDF78CFB71
:10C8100038B903A8FDF73CFBB0FA80F0400906B038
:10C8200010BD2046FBE7000038B50F4D6B78012B9B
:10C8300018D02B78B3B10D4B0D4C0E49E41AE40817
:10C84000240444F003042046FBF7FEF8FFF7D4FF6E
:10C85000287038B9084B094918702046BDE838409F
:10C86000FBF7F2B838BD00BFC48D002084E202009F
:10C870001CE3020024EF02009C8E00203AEF02002D
:10C8800070B5054686B01A48FDF77CF919481A4B71
:10C890001A491B1ADB081B0443F00300FBF7D4F80A
:10C8A000FDF786F908B1FBF7F9FB154C2378DBB1EE
:10C8B0001222002101A801F044FC01A8FDF748FB69
:10C8C00008B1FBF7EBFB01AB2A4605AE1C4603CCD7
:10C8D000B44210605160234602F10802F6D1238869
:10C8E0001380284606B070BDFFF712FFDEE700BFD9
:10C8F00015C7020084E202001CE3020055EF0200AB
:10C90000C68D00202DE9F04300248FB00746FDF7C7
:10C91000E5FACDE90644CDE90044DFF840920894F9
:10C9200099F80030A34269DC7B4D7C4B7C4EED1ABC
:10C93000ED082D0445F00304B8F1000F40F0CF805E
:10C9400002A906A8CDE90288FDF74CFA08B1FBF769
:10C95000A5FB0399724840F6B47201F0C9FB12229C
:10C96000002109A801F0EDFB09A8FDF7F1FA08B1D3
:10C97000FBF794FBBDF828206A492046FBF768F8CE
:10C98000BDF82A2068492046FBF762F8B6F8B02FB8
:10C99000B2F57A6F75D320466449FBF755F899F8DC
:10C9A000003006A8013389F8003096F8B29FFDF7F1
:10C9B0003FFA08B1FBF772FB6B4606AA47F210017B
:10C9C00048F21000FDF7B6FA4FF00008CDE90488F0
:10C9D000F8B957492046FBF737F804A906A8FDF730
:10C9E00001FA05994E4840F6B47201F081FB06A8A1
:10C9F000FDF71EFA58B3FBF751FB28E06B4606AA79
:10CA000047F2100148F21000FDF794FA0134804615
:10CA100086E748492046FBF717F84FF47A6241460B
:10CA20003F48A6F8B08F09F1010901F08AFB42499D
:10CA3000377006A886F8B29FFDF71EFA48F2066224
:10CA4000904203460FD13D492046FAF7FDFF3C4D89
:10CA50000A2445F001054FF47A40A847013CFAD179
:10CA60000FB0BDE8F08348F20862904201D1354929
:10CA700004E048F2076290424AD1334945F0010090
:10CA8000E3E7B75431493B462046FAF7EAFFB6F8E8
:10CA9000B03F06A80133A6F8B03FFDF7C9F9064636
:10CAA00038B102462A492046FAF7D2FF3046FBF752
:10CAB000F5FA214906A8FDF7E3F948F20663984222
:10CAC0000646C0D048F207639842D6D00028BED0B0
:10CAD000024620492046FAF7BBFF30468BE71E4945
