:020000022000DC
:1070000000000420757302005D7302005F730200CC
:1070100061730200637302006573020000000000E8
:107020000000000000000000000000006773020084
:1070300069730200000000006B7302006D730200B0
:10704000FDAA02006F730200DDAF02006F73020041
:107050006F7302006F73020061AE02006F73020073
:107060006F7302006F7302006F730200A5BC020011
:107070006F7302006F7302006F7302006F73020080
:107080006F730200158802006F7302006F730200B5
:107090006F7302006F73020091D802006F730200D9
:1070A0006F7302006F7302006F7302006F73020050
:1070B0006F7302006F730200000000000000000008
:1070C0006F7302006F7302006F7302006F73020030
:1070D000B5BC02006F7302006F7302006F73020091
:1070E0006F7302006F7302006F73020000000000F4
:1070F000000000006F730200000000006F730200C8
:10710000000000000000000000000000000000007F
:10711000000000000000000000000000000000006F
:10712000000000000000000000000000000000005F
:10713000000000000000000000000000000000004F
:10714000000000000000000000000000000000003F
:10715000000000000000000000000000000000002F
:10716000000000000000000000000000000000001F
:10717000000000000000000000000000000000000F
:1071800000000000000000000000000000000000FF
:1071900000000000000000000000000000000000EF
:1071A00000000000000000000000000000000000DF
:1071B00000000000000000000000000000000000CF
:1071C00000000000000000000000000000000000BF
:1071D00000000000000000000000000000000000AF
:1071E000000000000000000000000000000000009F
:1071F000000000000000000000000000000000008F
:10720000354936480A1A02D0072291438D4634493F
:1072100034480A1A06D00722914381F309880222D2
:1072200082F3148830483149314A00F044F831483B
:107230003149324A00F03FF831483249324A00F0D1
:107240003AF832483249334A00F035F83248334987
:10725000334A00F030F833483349344A00F02BF811
:1072600033483449344A00F026F83448344900227F
:1072700000F02CF833483449002200F027F8334856
:107280003349091A082902DB002202604160314AB1
:1072900090471F481F49884205D00268043003B454
:1072A000904703BCF7E700208646EC46002000210B
:1072B000294A9047FEE7884207D0521A05D0037842
:1072C00001300B700131013AF9D17047884202D088
:1072D00002700130FAE770470000042000E003204C
:1072E000000004200000042020F3020014230020EA
:1072F00044330020D0730200D073020070DD02001E
:1073000020F302001423002014230020B0DE02002A
:10731000B0DE0200B0DE0200B0DE0200B0DE02002D
:10732000B0DE0200B0DE0200B0DE020020F3020098
:107330005003030044330020443300204433002032
:10734000403E0020403E0020403E0020403E0020C5
:10735000405E00209D7302007DBF0200FEE7FEE755
:10736000FEE7FEE7FEE7FEE7FEE7FEE7FEE7FEE7F5
:1073700000F002B8FFF7FCBF0F484FF00701884349
:1073800085460E4880470E48016841F4700101604F
:10739000BFF34F8FBFF36F8FFFF732BF09480A4922
:1073A0000A4A884207D0521A05D0037801300B7080
:1073B0000131013AF9D170470000042051A50200C3
:1073C00088ED00E09CDE0200002300201423002052
:1073D000F0B595B01D46164608460C4601F006FE6F
:1073E0001A9B0D93CDE9086500252B46082205A9B7
:1073F00020460A958DF82C500C9501F013FE079B42
:107400000293069B03939DF814308DF8115003F0FE
:107410000302012A1DD1BDF81420059DC3F3C20348
:10742000C2F383168DF81030B20008230EA920464F
:1074300001F0F8FDC5F3952508AB0093324602AB89
:107440000EA9284600F0BAFB204601F0D3FD15B086
:10745000F0BD022AF8D1BDF81650C3F3C203C5F33C
:1074600089158DF810300827082D2E4628BF0826CC
:107470003B4632460EA9204601F0D4FDAD1B08ABB9
:1074800002AA31460EA8374400F0FCFB002DEBD1D8
:10749000DAE70000014B01221A70704785330020A3
:1074A0007047000070B50E4D06460FCD88B06C4693
:1074B0000FC495E80F00002E84E80F00094A0A481F
:1074C0004FF0060308BF00226946009303F092FACA
:1074D00008B100F0D5FD054B1E7008B070BD00BFAF
:1074E000B0DE020095740200142300204433002013
:1074F00007B5044B0093044A4023FFF769FF03B02C
:107500005DF804FB0D7502004533002038B50D48C9
:107510000D4C0E4D002323700378EB5CD2B263B1A7
:10752000043004F025FA08B100F0AAFD084B1A78DF
:1075300012B12378002BFBD038BD0C3003F0A8FF2C
:10754000F1E700BF1423002085330020F03B00202A
:107550004433002008B50848084A0378D35C3BB19F
:10756000043004F075F9BDE808400020FFF79ABF29
:107570000C3003F025FFF6E714230020F03B002039
:107580000120FFF78FBF000008B5FFF7F9FF04489F
:10759000042100F07DFA034B01225A7108BD00BF9F
:1075A0008CDE020028230020037813F0040216D09A
:1075B00003F00303012B03D0022B09D001207047F5
:1075C0000A6800880232C0F3831002440A60F5E7BB
:1075D0000B684288023303EB92130B60EEE7104610
:1075E000704700002DE9F04FDFF81CA187B00F466F
:1075F00000230446861C0DF1070015468DF8073060
:1076000000F09AFFDAF804203A60DAF8083003F55F
:1076100080739B1A0AF21C470AF583690AF2144820
:10762000B3421AD30020002D69D004F00F039B0150
:1076300043F0050363F30F00DAF80430DAB20332E3
:1076400033444AF822009DF80700CAF8043000F0DD
:1076500097FF012007B0BDE8F08F0121384601F007
:10766000F0F9484601F008FA404601F005FADAF868
:1076700008000290C0B203300AEB800002A9FFF7B5
:1076800093FF029B30BBDAB20AEB8202D16803910E
:107690009A1C0133DBB20AEB83030292D3F80CB0DD
:1076A00001F00303012B22D0022B15D08346404664
:1076B00001F0E5F910B1029BCAF808305946384686
:1076C00001F0BFF9DAF80830DAF8042003F5807326
:1076D0009B1AA5E7D8B2CEE7BDF80E30C3F38913E5
:1076E00003334FEA1B4B02EB93030293DFE7BDF832
:1076F0000C30C3F383134FEA1B4B1344F5E7A40587
:1077000044F0060098E700BF58340020064B0748B5
:1077100010B500221A7001F022FC044610B904488A
:1077200001F0CAFC204610BD58340020D8DD02000C
:1077300004DF020030B50A4C71B10A4A0A49121B33
:10774000D20800239A4201D1002030BD31F82350E5
:10775000854202D00133F5E7034654F83300F4E7DD
:10776000ECDD02008CDE020014230020094B0139FD
:1077700003EBC000032909D8DFE801F00A02040680
:1077800004207047007970474079704700207047A7
:1077900002207047ECDD020070470000034BD3E984
:1077A0000130C31A58425841704700BF5834002076
:1077B0002DE9F04186B0FFF7F1FF0546002840F0C3
:1077C000ED80774CC4F81804BFF34F8FA368029381
:1077D000DBB2033304EB830002A9FFF7E5FE029B53
:1077E00018B1D4F81824002A5AD0DAB2991C0133FF
:1077F00004EB8202DBB204EB8303D268DB68049300
:1078000002F00303022B0392029154D1BDF80E3013
:107810006448C3F38917502F3E4628BF502606F10F
:10782000080166F38F13C1F30901ADF80E3001F0C2
:10783000AEFB0546002800F09C8001F0D7FB00233A
:10784000082203A9284601F0E3FB0299CB43DBB2EF
:107850000133C9B20331B6EB830F4FEA830204EB65
:10786000810125D95FFA82F80823A6EB080628468D
:1078700001F0CEFBF6B208F108034B4903F0FC031C
:107880003246284601F0C4FB029B033703EB9707FF
:107890000297D4F81834002B43D1D4F8106453E085
:1078A00062689A4294D8A260284606B0BDE8F0818A
:1078B00008233246E5E7012B5BD1BDF80C3039488F
:1078C000C3F38311062928BF062161F3891302310E
:1078D00001F00F018900ADF80C3001F058FB0546AE
:1078E000002846D001F082FB0023082203A9284685
:1078F00001F08EFB0026BDF80C20C2F38312B3000A
:10790000964203F10803C4D202994A1CC9B203315A
:10791000029204EB81010422284601F079FB013632
:10792000E9E7284601F066FBFFF738FF80F0010029
:10793000C5B2B9E7F3685B7923B1336829461B68A0
:1079400030469847F3681E68002EF3D1284601F0B0
:1079500051FB0DF107008DF8076000F0EDFDD4F844
:1079600018340BB9029BA3609DF8070000F008FED5
:10797000DAE7D4F8104454B90C4B0D480D49C01A3D
:10798000C008000440F0020000F05EF8CCE7236875
:1079900020469B689847E3681C68ECE7002583E76E
:1079A00058340020D8DD020064340020ECDD0200F1
:1079B00024DE0200EDDE02002DE9F34704460E4608
:1079C000924601A9012218469946FFF70BFE1C4F6B
:1079D00010B3019D4FF00008AA1CC84508EB020136
:1079E00025D11848002100F0E5FF80F310000004C5
:1079F00040EA1440E4006B1C04F03804DBB2EDB242
:107A000044F0010407EB8303033544EA881444EA95
:107A10008624D86047F825403B781BB1FFF7C8FEA5
:107A20000028FBD1FFF7B8FE02B0BDE8F087C9B26D
:107A300007EB81015AF82830CB6008F10108CCE748
:107A4000583400207438002000231A46FFF7B4BFD2
:107A500007B50123019201AAFFF7AEFF03B05DF85D
:107A600004FB07B5CDE9002302236A46FFF7A4FF14
:107A700003B05DF804FB1FB5CDE90123069B03931A
:107A800001AA0323FFF798FF05B05DF804FB00008F
:107A900030B50F4CD4F8102403460020114631B9FC
:107AA000D96808714AB9C4F810340A6030BDC96891
:107AB0000D79854206D00968F1E7D26814680C6038
:107AC0001360F3E701300A28E8D14FF0FF30EDE70B
:107AD0005834002038B5084B0125D3F810441D70E8
:107AE00004B938BDE3685D71236820465B68984738
:107AF000E3681C68F4E700BF5834002030B5C38841
:107B000085B004460D4633B1144A00921449154A13
:107B1000284601F017F8217A05291DD0637A4BB168
:107B2000A088FFF723FE104B104953F82020284669
:107B300001F008F8227A0E4BA08853F82220039215
:107B40000021FFF7F7FD039A0A490346284605B0CE
:107B5000BDE8304000F0F6BF05B030BD30DF0200B8
:107B600018DF020010DF02009CDF020035DF020098
:107B7000C0DF020038DF020007B503460846197A65
:107B8000052911D05B7A2BB1094A0A49019000F00E
:107B9000D9FF01980849019000F0D4FF019803B083
:107BA0005DF804EB00F0C3BF002AF8D0F2E700BF95
:107BB00030DF020035DF02002DDF02002DE9F04347
:107BC00085B01F460C9D002395F80C902B7306463C
:107BD0000C46904629463846FFF790FFB8F1060F4D
:107BE00009D8DFE808F00412181F28334000314696
:107BF000284600F0A7FF002229463846FFF7BCFFC1
:107C000085F80C9005B0BDE8F0832268314628461F
:107C100000F098FFEFE7D4E900233146284600F052
:107C200091FFE8E7A36800933146D4E90023284692
:107C300000F088FFDFE7E3680193A3680093314613
:107C4000D4E90023284600F07DFFD4E7236902939E
:107C5000E3680193A36800933146D4E900232846E2
:107C600000F070FFC7E76369039323690293E36839
:107C70000193A36800933146D4E90023284600F01D
:107C800061FFB8E708292DE9F74F80460E461746F1
:107C90001C463DD800251B7B2573214610460193C9
:107CA000FFF72CFFDFF88CA0DFF88CB0AE4232D9A2
:107CB00018F805205946204600F044FF0135082DEC
:107CC000F4D11B49DFF874A0DFF874B0204600F04F
:107CD00039FF4FF000094E4524D918F809507E2D80
:107CE0001ED8284605F066FF002814BF2A462E221B
:107CF0005946204600F026FF09F10109B9F1080FA5
:107D0000E9D1012221463846FFF736FF019B237354
:107D100003B0BDE8F08F5146204600F013FFCDE7D9
:107D20002E22E5E75146204600F00CFFE4E700BFB5
:107D30004CDF020048DF020042DF02004ADF02009F
:107D40004EDF0200C30710B507D4F023054A4008F0
:107D5000145C23401943115410BD0901C9B20F230B
:107D6000F4E700BF2039002030B5094B1C78094BDF
:107D7000196800239C4202DC0022104630BD11F835
:107D80003350854201EBC302F7D00133F2E700BF65
:107D9000103900204039002013B504460191FFF747
:107DA000E3FF38B143682BB10199204602B0BDE82A
:107DB0001040184702B010BD034B04481968002258
:107DC000490800F081BA00BF143900203023002098
:107DD00010B5C0B2FFF7C8FF0446007803F032F8D0
:107DE00063785A1E53425341834208D1044BD3E96E
:107DF0000023134303D1BDE81040FFF7DDBF10BDE2
:107E00001839002037B54308374AD35CC2074CBF46
:107E10001B0903F00F0304460D46042B25D8DFE8A9
:107E200003F003262F3C4000F9B10121FFF78AFF40
:107E300000230DF107008DF8073000F07DFB0120D5
:107E4000A4F12003C4F12001284A20FA01F100FA2C
:107E500003F30B43A040D2E9004120430B43C2E9A6
:107E600000039DF8070000F08BFB03B030BD002934
:107E700018BF0221204603B0BDE83040FFF762BFC3
:107E800049B10321FFF75EFF0121204603B0BDE8A1
:107E90003040FFF781BF0121ECE70029E5D1042143
:107EA000E8E709B10321E5E7FFF74CFF2946204643
:107EB000FFF772FF0DF107008DF8075000F03CFB53
:107EC0000120A4F12003C4F12001084A20FA01F1A5
:107ED00000FA03F30B43A040D2E9004124EA00007A
:107EE00021EA0303BBE700BF203900201839002036
:107EF0002DE9F041124E134F00243378A34208DCE1
:107F0000114BD3E90023134318D0BDE8F041FFF72C
:107F100053BF3D6805EBC40815F8340002F092FF2A
:107F200098F801305A1E53425341181A41424141B8
:107F300015F83400FFF766FF0134DEE7BDE8F08195
:107F4000103900204039002018390020092AF7B5DF
:107F500005460C4616463ED902F07AFEE8B11F4BA4
:107F60001F481D601F4B204F1C70204B00212022FA
:107F70001E6005F096FE1E4B00200021C3E90001A3
:107F8000013CE4B20326FF2C0DD11A4A1A48002105
:107F900003B0BDE8F04000F085B902F015FE0028FE
:107FA000DDD003B0F0BD9DF8063015F834008DF833
:107FB000046005EBC40223F007038DF8063001A925
:107FC00093788DF805303A4602F04CFE013CE4B25D
:107FD0000028D8D0E5E70720E3E700BF40390020BC
:107FE0002039002010390020D17D020014390020F2
:107FF00018390020F17E0200E0DF020070B5084D64
:10800000084E00242B789C4201D3002070BD3368B9
:10801000012113F8340002F0A5FE0134F2E700BF9D
:10802000103900204039002073B5114D114E002445
:108030002B789C4215D300230DF107008DF80730F3
:1080400000F07AFA0C4B00210020C3E900019DF8F2
:10805000070000F095FA094802B0BDE8704000F052
:1080600061B9336813F8340002F0CAFE0134DFE767
:10807000103900204039002018390020302300201A
:108080001FB50021039001AA44F20100CDE90111BE
:1080900000F004F805B05DF804FB000038B572B6D6
:1080A000FFF718FDFFF784FB0028FBD1104B114CA4
:1080B000114D1249E41AE408240444F00100FFF7CA
:1080C000C3FCD5F8F030DB0700D500BE0C4944F006
:1080D0000200FFF7B9FCBFF34F8FEA68094B02F4C7
:1080E000E0621343EB60BFF34F8F00BFFDE700BFBB
:1080F000ECDD020024DE020000ED00E0E4DF02001F
:10810000F0DF02000400FA0510B5D0E90243D1E91E
:108110000202A04272EB03032CBF0120002010BD1D
:1081200008B50A4800F05FFB094AD2E90031C018DF
:10813000084BD3E9002341F10001904271EB0303A6
:1081400003D210F1807041F1000108BD50230020DE
:1081500048390020C039002037B505460C460A488A
:1081600001A900F096FB60B10570446001A90648C2
:1081700000F0B9FB18B1054800F03AFB002003B04D
:1081800030BD0420FBE700BFAC39002050230020A5
:10819000294B73B51E7804461EB90026304602B03E
:1081A00070BD0028F9D0FFF7BBFFD4E9022390424D
:1081B000994139D300230DF107008DF8073000F005
:1081C000BBF923692BB94FF0FF324FF0FF33C4E9FD
:1081D00002239DF8070000F0D3F9D4E90530984751
:1081E00000250DF107008DF8075000F0A5F923696F
:1081F000C3B1D4E90212B2F1FF3F08BFB1F1FF3FB2
:1082000005D05B1842F10002C4E9023235469DF800
:10821000070000F0B5F9002DBFD00848214600F056
:108220006AFFBBE71D46F2E7B3F1FF3F08BFB2F1BB
:10823000FF3FB2D0F1E700BF503900200CE0020050
:1082400013B5114B114918680190082310485822A2
:1082500000F0EAFA044698B90E4A0F4801A900F066
:10826000B3F9044660B90C48012100F09FFA0123DC
:108270000A4A0948194600F001FA094B01221A700E
:10828000204602B010BD00BF08E0020054390020B3
:10829000AC3900208183020050230020FFFF7F00C3
:1082A0005039002030B56AB103684FF0FF344FF009
:1082B000FF355A614A1E5142C3E9024551411961D5
:1082C000002030BD0720FCE7F7B5044600250DF17E
:1082D000070017460E468DF8075000F02DF9D4E937
:1082E0000223B3F1FF3F08BFB2F1FF3F07D1FFF711
:1082F00017FF301841F10001C4E9020101259DF882
:10830000070000F03DF955B12369A76103B126616B
:108310002146002003B0BDE8F040FFF71DBF28460E
:1083200003B0F0BD37B5054600240DF107008DF808
:10833000074000F001F9D5E90223B3F1FF3F08BF80
:10834000B2F1FF3F1FBF4FF0FF324FF0FF33C5E9DF
:10835000022301249DF8070000F012F934B12946E8
:10836000012003B0BDE83040FFF7F6BE204603B061
:1083700030BD0000014800F036BA00BF5023002095
:108380002DE9F743064600F019FA40B1624AD2E9F6
:10839000003113F1807341F10001C2E90031002185
:1083A000304600F01AFA38B15C4C236823B12068DB
:1083B000FFF7EEFE002323600121304600F00DFAA6
:1083C00020B1FFF7ADFE564BC3E900015548534CB1
:1083D00001A900F098FA4FF0FF384FF0FF39A0B92B
:1083E000DFF844814D4D404600F09BFE002800F030
:1083F0008580D0E90223B3F1FF3F08BFB2F1FF3F10
:1084000032D1404600F087FEEDE70378012B20D003
:10841000022B08D1444D284600F07DFE002877D07D
:10842000C0E90289F7E75BB94168D1E90223B3F1FA
:10843000FF3F08BFB2F1FF3F02D03B4800F05BFEB8
:1084400001A9384800F08AFA01A9364800F05BFA21
:10845000C5E741682368994202D100232360EFE712
:10846000314800F061FEEBE7296891B12968D1E954
:10847000020182428B412FD22B68D3E90223B3F150
:10848000FF3F08BFB2F1FF3F03D02968404600F02C
:1084900032FE404600F03FFED0E902490746FFF7B2
:1084A0003FFE201A69EB0109012879F1000318DB6E
:1084B000B0F5350F13D3FFF75DFF1C4A02441C488B
:1084C0004FF49603002100F0F9F890B92B6813B926
:1084D000304600F0CBF82F6003B0BDE8F0832246B1
:1084E000EDE71348002100F06EF93846FFF750FE23
:1084F00001E00D28F9D000232B6074E7074B1B68BF
:10850000002BE9D1304603B0BDE8F04300F0B2B82B
:10851000084B01221A7093E748390020C83900201F
:10852000C0390020AC3900200CE00200FFFFB4008D
:10853000502300205039002070B5EFF3108672B63A
:108540000C4A946801239CB993600B4B0B4DD3F8F4
:10855000801029401160C3F88050D3F88410516016
:108560004FF0FF32C3F88420047006B962B670BDC4
:108570000370FAE7CC39002000E100E0FC06FFBD03
:10858000084B9A6810B55AB150B9EFF3108172B622
:10859000054A1C6814605C685460986001B962B652
:1085A00010BD00BFCC39002000E100E0435882B08C
:1085B0003BB10023435043580193019B012002B07B
:1085C00070471846FBE70000F8B5204B4479204E71
:1085D00043F824201F4A204B06EBC4049B1A22793F
:1085E000DB081B0432B143F002001C49FFF72CFAF0
:1085F0000820F8BD02680C88C2F8084590F90450BC
:108600008A7804795201002DD2B219DB14494F192E
:1086100087F8002301226D0904F01F0402FA04F414
:1086200041F82540427906EBC201012446F83200A8
:108630000C7143F003000B49FFF706FA0020D8E75E
:10864000094904F00F040A55ECE700BFE0390020A7
:10865000D8390020ECDD020034DE020018E0020010
:1086600000E100E03AE0020014ED00E003680122BE
:108670001A607047036801225A60704773B501F1B0
:108680005005AD000068ADB24FF480348C40002638
:10869000C0F80843C0F84843465101F5A871455950
:1086A000019522F07F42019D40F82120C0F844430B
:1086B0000BB1C0F8044302B070BD00002DE9F74FC4
:1086C0000D4622F07F4402684FF4803705F15006D2
:1086D0008F408046B60002EB8500C2F84873B6B200
:1086E000C2F80873D2F8041599464FF0000BD0F881
:1086F0004035C0F8401542F806B05B1A9259009216
:1087000023F07F43012B009A4FEA850A0CD1264BB8
:108710004FF4806043F001039847D8F8003043F8E5
:1087200006B09B590193019BD8F80010D1F804655D
:10873000C1F84473A31B23F07F43012B1CD11A4BB8
:1087400005F5A875013443F0010341F825404FF4C5
:1087500080609847D8F80030D3F804359E4209D19C
:10876000D8F800300020C3F84473C3F8047303B092
:10877000BDE8F08F0D20FAE78A44C9F1FF13CAF86B
:108780004045D1F80405221A013A22F07F4203F550
:108790007F439342EED3002AE2D10134CAF8404528
:1087A000D1F804359842DAE750E00200036802226B
:1087B000C3F8442309B1C3F80423704700684FF499
:1087C0008271FFF7F3BE4FF4803303FA01F10368BF
:1087D000C3F84813C3F80813704750318900006884
:1087E00089B2FFF7E3BE0368D3F8040570470000C1
:1087F00090F90430002B09DB5A09012103F01F0313
:1088000001FA03F34032024941F82230704700BFB9
:1088100000E100E0024B034A1B681068184700BFE4
:10882000E0390020D839002010B561B1B2FBF3F473
:1088300003FB1424A4B244B9C0E90014846082810B
:10884000C381204610BD0E20FCE70920FAE782B064
:1088500050E8022FC188B2EB324F4FF0000317BF30
:1088600092B241EA014142EA014104E04268B2EBBE
:10887000324F08BF012340E80212002AE8D18DF8E8
:1088800007309DF80730002B0CBF1120002002B0EC
:10889000704737B550E8013F9DB2C48925448489AB
:1088A000A54228BF2D1B0489A54202BFBFF32F8F0D
:1088B000002207E0C5EA030540E80154002CE9D195
:1088C0004FF001028DF803200193019A0A609DF890
:1088D000031001F0FF0321B1006810FA82F003B029
:1088E00030BD1846FBE70A884B889A4209D150E808
:1088F000012FC2EA024240E80123002BF7D10120F8
:1089000070470020704737B550E8023F1FFAA3F5C3
:10891000C488A54202BFBFF32F8F00220DE0C48997
:1089200025448489A54228BF2D1BC3EA054540E89C
:108930000254002CE8D14FF001028DF8032001937E
:10894000019A0A609DF8031001F0FF0321B100684D
:1089500000EB124003B030BD1846FBE70A884B8895
:108960009A4209D150E8022FC2EA224240E802238B
:10897000002BF7D1012070470020704701F01F0243
:108980004B090121914000EB830000F02AB801F06F
:108990001F0301229A404B0900EB8300D14300F0F2
:1089A00038B84B0901F01F0150F82300C84000F00F
:1089B0000100704710B5034653E8000F0A4643E82C
:1089C000002494F0000FF7D110BD10B5034653E812
:1089D000000F40EA010243E8002494F0000FF6D1B2
:1089E00010BD10B5034653E8002F42EA010043E8EA
:1089F000000494F0000FF6D110BD10B5034653E803
:108A0000000F00EA010243E8002494F0000FF6D1C1
:108A100010BD10B5034653E8002F02EA010043E8F9
:108A2000000494F0000FF6D110BD10B5034653E8D2
:108A3000000F00EB010243E8002494F0000FF6D190
:108A400010BD10B5034653E8002F02EB010043E8C8
:108A5000000494F0000FF6D110BD10B5034653E8A2
:108A6000002FA2EB010043E8000494F0000FF6D1C0
:108A700010BD0121FFF7A9BF0121FFF7B2BF0021FF
:108A8000FFF7BBBF10B590B1D0E9012301689B1A75
:108A9000DBB20A60013BDBB2FF2B026802D100208F
:108AA000107110BD11684C1C14600B70F2E70E20A1
:108AB000F7E737B5054600240DF107008DF80740AC
:108AC000FFF73AFD2A686B68116899420ED9481E73
:108AD000106011F8013CEC68298A01FB0344AB6883
:108AE00011791B1ADBB2994238BF13719DF8070048
:108AF000FFF746FD204603B030BD37B505460023DD
:108B00000DF107000C468DF80730FFF715FD2A68B8
:108B10001368591C1160E968641A298AB4FBF1F4DE
:108B20001C709DF80700FFF72BFD03B030BD826875
:108B300010B504462AB143690168006998470023CB
:108B4000A36010BD0EB403B5039921B104AB01AA13
:108B5000019300F077F802B05DF804EB03B07047C2
:108B60000A2938B504460D4602D10D21FFF7F8FF5A
:108B7000A3682268591CA160D554D4E901329A42F5
:108B800004D32046BDE83840FFF7D1BF38BD000010
:108B90002DE9F84F9846DDE90A43154682460F460F
:108BA0000A464FF00109AA420FD2C14538BFC1465B
:108BB00013F0010B01D16CB900240126B8F1010FAB
:108BC0001BD908F1FF386E43F8E709F10109B2FB40
:108BD000F5F2E8E79B070ED5B8F1000F0CBF302681
:108BE0002026A145E9D2013C31465046FFF7B8FFA7
:108BF000002CF6D1E0E72026F3E7B7FBF6F39D4221
:108C0000E1D9DFF83C80B7FBF6F3504618F80310C3
:108C100006FB1377FFF7A4FF3346AB42B6FBF5F62E
:108C2000F1D2BBF1000F02D00CB1A14501D3BDE8D8
:108C3000F88F20215046013CFFF792FFF4E700BF78
:108C400056E002002DE9F74F0546174688460029F1
:108C500000F03E8118F8011B49B92B7B002B00F076
:108C60003781284603B0BDE8F04FFFF760BF2529E4
:108C700040F0B780002698F800302D2B424608F1CE
:108C8000010823D0302B24D02B2B25D000242A2BD5
:108C900002F1010123D13B681A1D1B683A601C4494
:108CA0000A4613782E2B26D101324FF0000A1046C7
:108CB00010F8011BA1F1300CBCF1090F1DD80A23DB
:108CC00003FB0A13A3F1300A0246F0E746F001065F
:108CD000D1E746F00206CEE746F00406CBE711F8EE
:108CE000013CA3F130000928DBD80A2202FB04343E
:108CF000303C0A46CBE74FF0000A12F8011B01F0A6
:108D0000FB0068289046F8D0782909D86F290CD83C
:108D1000632962D022D8252963D0582900F08880A1
:108D200098F80030002B95D197E770390829F7D8CB
:108D300001A353F821F000BFAB8E0200218D020089
:108D4000218D0200418E0200218D02001F8E020043
:108D5000218D0200218D0200318E0200642901D094
:108D60006929DDD13A68D2F80090111D89EAE972CB
:108D70003960A2EBE9724FF0010B092A35DCD345CB
:108D800038BFD3462CB1B9F1000F01DB720700D513
:108D9000013CB30702D5BAF1000F03D0F00701D4AC
:108DA0004CBB0024B9F1000F2DDAC9F100092D21C7
:108DB0002846FFF7D5FE06F00302022A04D1BAF1D5
:108DC000000F01D11CBB0024CDE9004653460A2206
:108DD00049462846FFF7DCFEA2E73B681A1D1978D2
:108DE0003A602846FFF7BCFE9AE70A230BF1010B15
:108DF000B2FBF3F2C1E7A345D4D220212846013CBF
:108E0000FFF7AEFECCE77107D5D52B21D0E7A34500
:108E1000DAD230212846013CFFF7A2FED2E73968BA
:108E2000CDE900460A1D3A6053460A220968D0E798
:108E300039680A1D3A60CDE9004653461022F5E72D
:108E40003B681A1D3A6016F00106D3F8009024D151
:108E5000B9F1000F03D0484604F056FF0646B4426D
:108E60001DD809F1FF3919F8011F00293FF458AF47
:108E70002846FFF775FEF6E728460136FFF770FE35
:108E800019F806100029F7D1A642BFF449AF2021F6
:108E90002846013CFFF764FEF6E70026F0E72021B4
:108EA0002846013CFFF75CFED9E73B681A1D3A6093
:108EB000302128461C68FFF753FE78212846FFF72B
:108EC0004FFE00220823CDE900322146102280E720
:108ED00003B0BDE8F08F00BF2DE9F84FB0F806A051
:108EE0004579D2F800B09DF828900AFB05F5043DBD
:108EF00088460BEB0301A94203F1040488BFA5EBEC
:108F0000030BB4FBFAF607460AFB1644C2F800B09E
:108F10004EB9AAEB04055D4528BF5D46BBF1000FC5
:108F200004D1BDE8F88F3F68013EF1E7043408EB57
:108F300006003C442A46B9F1000F0DD02146ABEBA8
:108F4000050B04F085FEDA452E443F6855464FF088
:108F5000000428BF5D46E1E701462046EFE7FFF742
:108F600091BDF8B546790146721E0546002393422D
:108F70002D6803D30024A64202D8F8BD0133F6E7DA
:108F80000F682846FFF7B9FD01343946F3E72DE9AC
:108F9000F843068ACD1C0746FFF78BFD043E354497
:108FA0000446B5FBF6F5F0B14FF48073EDB2838063
:108FB000C680013D076081464FF00008A84512D2E7
:108FC0003846FFF776FD064648B163790133637191
:108FD00008F10108C9F8000007608146EEE7204665
:108FE000FFF7BFFF34462046BDE8F8830121043077
:108FF000FFF727BD10B5012104460430FFF72DFD12
:10900000C0B220B92046BDE81040FFF7AABF10BD8E
:109010001FB503920022009203AAFFF75DFF05B07F
:109020005DF804FB1FB503920122009203AAFFF72B
:1090300053FF05B05DF804FB41DF7047064B10B5E8
:1090400000241C70054B1C60BFF35F8F044905486A
:1090500000F03BF8204610BDEC390020F03900202C
:1090600070E00200E439002007B500230DF107008D
:109070008DF80730FFF760FAF1EE103A23F09F0306
:10908000E1EE103ABFF35F8F0A4B4022C3F8842110
:109090009DF80700FFF774FA04F0E0FB20B103B07D
:1090A0005DF804EBFFF7C8BF20BF40BF20BF03B08F
:1090B0005DF804FB00E100E0836800225A60C3E928
:1090C00004229A60DA601A6070470B684A6843604D
:1090D000934208BF0023016008BF436070474368A4
:1090E00043B10268916852680B449342436004BFE5
:1090F00000234360704770B5446806460D462068FB
:1091000018B1B3682946984718B923682B602560C1
:1091100070BD2468F3E74368186808B102681A60F4
:1091200070474368186870474368186800B970470B
:10913000884203D102681A60012070470346006824
:10914000F4E7000010B50D49A1F59472914201D8E1
:1091500000200FE08C1AE30F03EBE4035B1002EB3B
:10916000C30452F83330834205D802D204F1080216
:10917000ECE7606810BD2146E8E700BF7CE502002F
:1091800008B5FFF7DFFF024B002808BF184608BDEF
:109190003FE4020070B5064D0646002455F8043B36
:1091A0000BB1304698470134042CF7D170BD00BF95
:1091B000003A00204388033300EB830399420BD32A
:1091C00082884FF6FF739A4208D0038833B18068D3
:1091D000431C584258417047022070470120704795
:1091E000033080B240F2FE33984230B51FD8134BA3
:1091F0001A783AB91C895D892C440444A4B2B4F5A8
:10920000806F0AD91A7DAAB99A8BDC8B224402445A
:1092100092B2B2F5806F0DD801220A801446142252
:1092200002FB04335A8910445881002030BD48F2B3
:109230000860FBE748F20660F8E700BF343A002018
:109240000B4A0C495388142000FB0311CB6833B937
:109250000420496810700122074801F0EBB8074963
:109260000523137002238B80012209680023F3E792
:10927000183A0020343A002000230020FC3A002055
:1092800007B5002305490093054A096805480823E6
:1092900001F036F803B05DF804FB00BFFC3A002093
:1092A00088E502000023002007B500230146009353
:1092B000034A0448082301F023F803B05DF804FBD7
:1092C00080E502000023002013B500230C46009324
:1092D0000146084A0848042301F012F838B9074B40
:1092E000142101FB043101230B7402B010BD48F2BC
:1092F0000D60FAE77CE5020000230020343A0020EC
:1093000037B50A480A4B42689C8819685388032578
:10931000033305709BB2002000909B0001EB840199
:10932000044800F0EDFF03B030BD00BF183A002044
:10933000FC3A00200023002010B501460448FFF746
:10934000A8FA1C220446002104F0ABFC204610BD04
:10935000E83A002068B10268084B9A4209D1406897
:10936000074B984207D00133984214BF03200120D5
:109370007047032070470020704700BFDEC0ADDE9D
:10938000FE011EF12DE9F0410D460223154F2B8001
:10939000164600F5805100F108044FF001088C4298
:1093A0000ED2236801330BD02046FFF703FF48B1EC
:1093B0000EB186F80080022809D14FF480632B801B
:1093C000BDE8F081A3683A68934200D93B602B88DE
:1093D0006288033313442B806388033304EB8304D4
:1093E000DDE700BF2C3A002038B5144B14220D469F
:1093F00002FB00302B68446804F58051A3B15C88FF
:10940000033403EB84048C4215D22368013312D059
:109410002046FFF7CFFE012808D002280BD00028F5
:10942000F1D12C60012038BD0834ECE763880333A8
:1094300004EB8304E7E70020F5E700BF343A00209F
:10944000426873B504460D466AB3234BD9688A4215
:1094500029D31B699A4226D812F0030323D11F494E
:109460000089098988421ED12068916888421AD1F2
:109470001B4841688A4203D901F580518A420DD3C5
:1094800081698A420CD901F580518A4208D20122B1
:109490002A80B3FA83F0400902B070BD1A46F7E79C
:1094A00048F20963F5E700262E800196288801A975
:1094B000FFF79AFF30B92B8801339BB2012B2B8029
:1094C000F3D9E9E7019B226899689142EED1636084
:1094D000024B1B892381DFE700230020183A00207C
:1094E000343A00202DE9F8431C461D4B1B780646F4
:1094F0000F46154673B382B37CB3DFF86C804FF030
:109500001409A388012B02D948F2096020E009FB65
:1095100003F318F803302BB9A0882146FFF764FF46
:1095200020B92060A3880133A380EAE723681EB135
:10953000998832889142EFD11FB119883A889142B7
:10954000EAD19A68C5E90023064B1B892B810020CC
:10955000BDE8F88348F20160FAE748F20460F7E7F3
:10956000103A0020183A0020343A002008B5074B82
:109570005888191DFFF738FF18B1BDE80840FFF7FC
:10958000BFBEBDE80840FFF75BBE00BF183A002031
:109590002DE9F0479F4FDFF8A08288B006463B6870
:1095A00023B99D484146FFF7AEF938603D682978F8
:1095B0004B1E052B07D8DFE813F020007400740061
:1095C000060106015D0148F20E641422002103A881
:1095D00004F067FB41F61D539C4208BF00243B6822
:1095E00004941A78023A042A00F2FC81DFE812F0AF
:1095F000DD01E9010B0213021A022EB1874B002292
:109600005A604FF40644E0E72B79032B1CD8DFE8BF
:1096100003F014022A35824A1378022B1AD0137DE4
:10962000022B4FF0010317D114214B43D118002016
:10963000D0544868FFF738FE03E001232B71FFF791
:109640001FFE002800F0B980744B00225A6048F2D7
:109650000D64BAE70023E7E7704A137000235360F4
:1096600041F61D54B1E76F496F48002302222B7168
:109670008A800968012200F0DDFEE2E76B4B684C4E
:109680005B88684A14214B43E11800262E714D680F
:1096900010681560958848600D810221E65491801C
:1096A000C8E7B5F814A0AA7DDFF87491AEB1022A1C
:1096B000EB8806D9142101FB0A91DA1C08890244BF
:1096C0000A81142202FB0A99C3F57F43B9F80A20E4
:1096D000FD331344A9F80A3093E7142303FB0A93DC
:1096E00018895C6804EB8004062A69D8DFE802F078
:1096F000274E36441D5A040041F61D54AA7DEB88BE
:10970000022A06D9142101FB0A91DA1C08890244B5
:109710000A81142202FB0A99C3F57F43B9F80A2093
:10972000FD331344A9F80A304FE74148414900236B
:109730004360AB690360FFF783FE00285BD0022320
:10974000AB75002300930423EA182146364800F045
:10975000D7FD002831D048F20D64CFE72B69002BEC
:1097600014BF03230123AB750023009305F10C0202
:10977000042304F10801E9E70123AB750022EB881B
:1097800000922A699B0004F10C01DFE703290CBF5A
:1097900005230623AB7500230093042305F108027B
:1097A000E118D3E70623AB75224B1988204B586884
:1097B000FFF78AFD04460028A0D108B0BDE8F08775
:1097C00048F20E649AE7002E7FF41BAF2B79012B31
:1097D00034D0022B3FF444AF002B7FF4F4AE0223CD
:1097E0002B710DF10A01EB68039303A8CDE9046620
:1097F000FFF726FE10B948F20964E6E60498BDF8C2
:109800000A108388EB8003882B81FFF75DFD0446F7
:1098100029E000BF303A0020E83A0020103A00204A
:10982000343A0020FC3A002000230020183A00209F
:10983000F4390020083B0020283A0020DFF800928D
:1098400003AA4B463146A81DFFF74CFE044670B9EB
:10985000B9F804100498FFF737FD044648F209638D
:109860009C423FF4FDAE002C7FF4AFAEA5E7C9E902
:109870000066F3E7002E7FF4C4AE6C4B1A7BBAB1DE
:109880001E731A78013A062A3FF69DAE01A151F8DF
:1098900022F000BF3F9902006599020083990200FF
:1098A00089990200C79502008F990200A1990200D0
:1098B0001A78072AE5D801A151F822F0DD980200B4
:1098C000839802008398020003990200179902000E
:1098D0003B9902003B990200FF9802001A89544903
:1098E00001321A8100225A801A730A78B2FA82F27F
:1098F00052099A720A7DB2FA82F25209DA72012290
:1099000007E04C4958688A884088033202448A80BC
:1099100002221A70B5E75C88454A4649142505FBC2
:1099200004220868546850608888108102200C6006
:109930008880002111740622EBE70722E9E79A7A72
:1099400032B9DA7A8AB900221A705A805A6087E6E8
:10995000374900229A72CA68002AF2D1097C00298C
:10996000EFD05A80FFF702FE51E70022DA72304A48
:10997000116A0029E7D192F82420002AE3D00122BD
:10998000EFE7FFF7BDFC42E7FFF75AFC3FE75A88D5
:10999000274B142101FB02335868FFF785FC36E79B
:1099A00000225A60FFF76CFC31E701228DF80C2091
:1099B0001A89ADF818209A88DB68ADF81A2005934B
:1099C00010E002228DF80C201A89ADF818209A8830
:1099D000ADF81A20DA689B7D05929A1F53425341D5
:1099E0008DF81C3003A8FFF7D5FB0026414612482E
:1099F0003E60FEF7B3FF11480121FFF72EF8002863
:109A00007FF4CDADD9E603228DF80C20DA88ADF8CD
:109A100018201A89D0E704228DF80C20DB88ADF8D5
:109A20001830DFE705238DF80C30DBE7183A00200B
:109A3000343A0020FC3A0020E83A0020F83A0020AE
:109A40000C3B00204068FFF7A3BD000008B50548A7
:109A50000121FEF7EAFF18B9BDE80840FFF798BDFD
:109A600008BD00BFF83A00202DE9F3419846374B76
:109A70001B7806460D46002B5CD000295DD0098876
:109A80004FF6FF7399425BD06B88002B58D06B6800
:109A90009B0758D14AB92F890DF102013846FFF7CB
:109AA0009FFB30B102B0BDE8F08113885788ADF854
:109AB000023001A8FFF740FC044660B9BDF802205F
:109AC000234B142101FB023358890338C01B5881F2
:109AD00048F20760E6E780F8008000238375BDF850
:109AE000023083826B68036101211A48FEF7A9FFE7
:109AF0002B882381B8F1030F6B88A38004BF042354
:109B0000A3754FF0000508BF3368E06008BFA3618C
:109B10001148E780658101A9FEF7E5FE36B1E368EB
:109B200033600E4B75601B89B5723381FFF78EFF72
:109B30000020B7E748F20160B4E748F20460B1E7FB
:109B400048F20360AEE748F20260ABE7103A00204B
:109B5000343A00202C3A0020E83A0020183A00203D
:109B600008B5034607480268042A08D00168064A77
:109B700042F821300121FEF764FF002008BD48F2C1
:109B80000B60FBE7043B0020003A00202DE9F04F7A
:109B9000DFF8208289B01422002103A804F081F8A4
:109BA00098F8003003F0FF0200923BB103A8FFF7E2
:109BB000F1FA0027384609B0BDE8F08F08F104003B
:109BC000FEF757FF0028F4D1009BDFF8ECA1D3F893
:109BD000F83F5C1C08BF4FF010234FF0805208BFC5
:109BE0005B6911695269581C08BF02FB01F3CAF88E
:109BF00010306949A3F5405300225046CAF80C3092
:109C000000F04CFB07460028D4D11C23634964486C
:109C1000DFF8A8B18C22FEF707FE0323B9463D46C4
:109C200001933C46DAF80C604E443046FFF792FB55
:109C3000012867D0032817D000283DD159494FF09B
:109C4000140C0CFB04FC01EB0C0201F80C00566038
:109C50000CF110020CF1080C0A4430466144FFF785
:109C600091FB45F002054AE03268531C02D04E4B8E
:109C70009A4239D1321D06F580511068013033D136
:109C800004329142F9D1DBF800203AB902220123D3
:109C9000CBF80060ABF8042000930BE01422624381
:109CA000404B022099189854404A4E605480013429
:109CB0000881A4B245F0010509F58059B9F5405F66
:109CC000B0D1019B012B98BF0025EDB2022D03D02E
:109CD000062D36D0002D3ED1002388F8003048F202
:109CE0000A67C8F8043065E7019B2E495A1E93B2F3
:109CF000142262438818019346600320885401347B
:109D0000A4B2D9E7009B6BB1264B14226243991889
:109D100002209854DBF800204A60244A08815480CD
:109D20000134A4B200222249CBF800603046FFF78C
:109D300029FBBBF80420022A0CBF04220822154389
:109D4000BAE7012388F8003003A80023C8F80430DC
:109D5000FFF720FA2EE702A8FFF7EEFAC8B10123B9
:109D6000013D03700A2D09D8DFE805F00608060852
:109D7000070807080F110F000023037102A9084804
:109D8000FEF7B1FDFFF762FE14E70323F5E70223B8
:109D9000F3E748F207670DE79CE502005C3A002014
:109DA000E83A0020343A0020DEC0ADDE183A002048
:109DB000003B0020103A002000230020FC3A002045
:109DC00073B50D460446C8B1C1B10DF10601FFF7E8
:109DD00037FBB0B1BDF806300B486668142202FBB1
:109DE000030001210C30FEF72CFE63682E600C335B
:109DF0006B600123A372002002B070BD48F20460C2
:109E0000FAE748F20960F7E7343A002013B5044650
:109E1000A8B10DF10601FFF713FB98B1BDF80620BC
:109E20000B4B142101FB0233DA6872B1A27A62B1E2
:109E3000DA680020013ADA60A07202B010BD48F280
:109E40000460FAE748F20960F7E748F20560F4E7D2
:109E5000343A002002230022FFF706BE18B1032384
:109E60000022FFF701BE48F20460704707B5ADF865
:109E70000600ADF804100DF1060001A9FFF732FB52
:109E800003B05DF804FB00002DE9F84F3C4B1B7854
:109E90000446002B6DD000286ED0DFF8E890122227
:109EA000002103F0FEFE032323804FF0000A4F46FB
:109EB00014264FF00108D9F80410B9F80AB0B9F81F
:109EC00008500846FFF746FA032808BF238862882F
:109ED00004BF03F1FF33238006FB0A735D44DB6894
:109EE0001344638023899B446389A4F808B0ADB20E
:109EF0002B446381C5F58065A389ADB2AB4238BF01
:109F0000A58101F1080501F58051A94229D92B68E5
:109F1000013326D02846FFF74DF901280AD0022840
:109F200015D00028F1D1A3880133A3800AE04FF0B7
:109F3000010AC0E7E3880133E380E3896A880333D9
:109F40001344E3816B88033305EB8305DDE7E38886
:109F500084F810804D1BE189013301EBA501E380FA
:109F6000E18109F11409BAF1000FE0D00020BDE849
:109F7000F88F48F20160FAE748F20460F7E700BFA3
:109F8000103A0020343A002029DF704728DF70475C
:109F900070B503689E6886B004460D466EB1142203
:109FA0000021684603F07DFEA3680593237901959F
:109FB0002BB1012B0DD06846B04706B070BD012310
:109FC0008DF8003023690293E36803936369049377
:109FD000F1E702238DF80030E3681B030293F5E7F5
:109FE0000846704700207047024B187A003818BFA7
:109FF00001207047B03B0020034B187A0122B0FAD1
:10A0000080F05A7440097047B03B002008B51046F4
:10A010001A4603F01DFE002008BD000008B51422FA
:10A020000021044803F03DFE0348FEF710FC002029
:10A0300008BD00BFB03B0020A03B002010B5094C7C
:10A04000094B43602046FEF714FD40B903F006FCBF
:10A05000064920741C2306488C22FEF7E5FB0020ED
:10A0600010BD00BFB03B002090E50200143B002073
:10A07000A03B002038B5234D234C2B7A3BB9234914
:10A080002348FEF740FC206008B9686038BD022311
:10A0900024682B72237973B1012B24D0204603212D
:10A0A000FFF776FF00232B726B6018491848BDE854
:10A0B0003840FEF753BCD4E90523D21AB2F5805FCD
:10A0C000D4E9031028BF4FF480529208012A38BF08
:10A0D000012219441844FFF757FF50B11128DDD170
:10A0E00001232B72D2E7D4E903031844FFF74EFF94
:10A0F000F3E72B7C002BC9D1BDE83840022000F0EB
:10A1000009B800BFB03B0020C83B0020C43B002082
:10A11000A03B002038B5234C237A002B41D0022BE2
:10A1200009D1032830D0204B00221B68E2601A7945
:10A130003AB1012A22D0637C7BBBBDE83840FFF7EF
:10A1400099BFD3E905128D1AB5F5805F94BF5219F6
:10A1500002F580529A619142EDD102284FF000033E
:10A1600008BF19462372104B18BF0D211868FFF75E
:10A170000FFF0E490E48FEF7F1FBDCE71A690132CA
:10A180001A615B699A42E7E7E3680133082B01D85B
:10A19000E360D0E70023E360DFE7BDE8384003F089
:10A1A0004DBB38BDB03B0020C83B0020C43B002065
:10A1B000A03B0020831E012B01D8FFF7ABBF7047E7
:10A1C00000F0FD03012B08D1044B00225A74421EFB
:10A1D000504250411874FFF74DBF7047B03B00200C
:10A1E00010B5064C201DFEF744FC28B9637C1BB952
:10A1F000BDE81040FFF73EBF10BD00BFB03B0020E0
:10A200002DE9F34180460D46104801A916461F4628
:10A21000FEF73FFB0446B0B118220021043003F0E2
:10A2200040FD2D0B0123237101A90848C4F80080CB
:10A23000A760E5606661FEF756FBFFF7D1FF0020DF
:10A2400002B0BDE8F0810420FAE700BFA03B002087
:10A250002DE9F34180460F460F4801A916461D46D9
:10A26000FEF717FB0446A8B118220021043003F0C2
:10A2700018FD089BA36001A9C4E903670648C4F858
:10A2800000806561FEF72FFBFFF7AAFF002002B0F8
:10A29000BDE8F0810420FAE7A03B002013B50B468F
:10A2A000114680B9104B1148114AC01A0E23C0083C
:10A2B0000093104B0004104940F00100FDF7DBFB58
:10A2C0000E2002B010BD4BB9074B08480B4AC01A0C
:10A2D000C0080E2300930004064BECE703601B68E4
:10A2E00002B0BDE810401847ECDD020054DE020069
:10A2F000BCE5020078E70200C1E50200F0E50200DB
:10A300002DE9F743DDF8288088B93E4B3E483F4AA7
:10A31000C01AC0080E243E4B009400043D4940F092
:10A320000100FDF7A8FB204603B0BDE8F0834AB961
:10A33000344B3548384AC01AC0080E24344B0094B8
:10A340000004EBE7D0F800E0BEF1000F09D12D4B7F
:10A350002D48324AC01AC00808242D4B009400042E
:10A36000DCE74BB9274B28482D4AC01AC0080924FE
:10A37000274B00940004D1E74568D5F80490B3FB5F
:10A38000F9F509FB15354DB11E4B1F48254AC01A7A
:10A39000C00809241E4B00940004BFE78D0709D0B4
:10A3A000184B1948204AC01AC0081024184B0094B2
:10A3B0000004B3E712F0030F09D0124B12481B4AF6
:10A3C000C01AC0081024124B00940004A6E7C56808
:10A3D000A9420DD34D1EEC180569AC4208D8CDF842
:10A3E0002880DEF80C40A44603B0BDE8F043604787
:10A3F000044B05480E4AC01AC0081024044B0094B0
:10A4000000048BE7ECDD020054DE0200BCE5020034
:10A4100065E70200C1E502003EE60200EAE502004F
:10A42000FDE5020044E602006EE6020086E6020058
:10A43000A9E60200F7B580B92A4B2B482B4AC01A6F
:10A44000C0080E242A4B009400042A4940F0010061
:10A45000FDF711FB204603B0F0BDD0F800C0BCF101
:10A46000000F09D11F4B2048234AC01AC0080824F6
:10A470001F4B00940004E8E74AB91A4B1A481F4AD8
:10A48000C01AC00809241A4B00940004DDE745688F
:10A49000D5F800E00EF1FF350D4209D0114B1248FE
:10A4A000174AC01AC0081024114B00940004CCE7CE
:10A4B000C568A9420CD34D1E0EFB02540569AC427F
:10A4C00006D8DCF81040A44603B0BDE8F040604771
:10A4D000044B05480B4AC01AC0081024044B0094D2
:10A4E0000004B2E7ECDD020054DE0200BCE502002D
:10A4F00052E70200C1E50200EAE50200FDE50200C4
:10A50000D0E60200F6E602004FF08053D3F83001A7
:10A51000A0F1080358425841704700004FF08053A3
:10A52000D3F83021082A06D1D3F83431052B02D8CC
:10A53000024AD05C70470020704700BF90E70200DD
:10A54000024AD2F80034002BFBD0704700E00140F3
:10A5500010B5FFF7D9FF40B14FF080430022C3F898
:10A560000C21C3F81021C3F83825FFF7CDFF0028D0
:10A5700046D04FF08052654BD2F80414C3F8201532
:10A58000D2F80814C3F82415D2F80C14C3F828150F
:10A59000D2F81014C3F82C15D2F81414C3F83015DF
:10A5A000D2F81814C3F83415D2F81C14C3F84015A7
:10A5B000D2F82014C3F84415D2F82414C3F848156F
:10A5C000D2F82814C3F84C15D2F82C14C3F850153F
:10A5D000D2F83014C3F85415D2F83414C3F8601507
:10A5E000D2F83814C3F86415D2F83C14C3F86815CF
:10A5F000D2F84014C3F86C15D2F84424C3F870257F
:10A60000FFF78CFF18B1424B424AC3F88C26FFF784
:10A6100085FF18B1404BFB22C3F81825FFF77EFFDA
:10A6200070B14FF080414FF08053D1F8E42ED3F851
:10A63000583222F00F0203F00F031343C1F8E43E37
:10A64000FFF76CFF20B1354B4FF40072C3F8402682
:10A65000FFF75AFF48B14FF08043D3F80024D207E8
:10A6600044BF6FF00102C3F800242D4AD2F88830AD
:10A6700043F47003C2F88830BFF34F8FBFF36F8F7E
:10A680004FF08053D3F83021082A0ED1D3F834315B
:10A69000052B02D8234AD35C3BB14FF01023D3F8EB
:10A6A00008224FF08043C3F858254FF01023D3F809
:10A6B0000022002A03DBD3F80432002B22DA1A49E5
:10A6C00001234FF01020C1F804351224FFF738FFA2
:10A6D000C0F80042FFF734FFC0F80442FFF730FF34
:10A6E0000023C1F80435FFF72BFFBFF34F8F0C4950
:10A6F0000E4BCA6802F4E0621343CB60BFF34F8F86
:10A7000000BFFDE70A4B0B4A1A6010BD00C00040B5
:10A71000005000404881030000F0004000900240DB
:10A7200000ED00E08AE7020000E001400400FA05C5
:10A73000582300200090D003074B1B5C1F2B86BFC3
:10A74000064903F01F034FF0A041012202FA03F370
:10A75000C1F80C35704700BF96E7020000030050B7
:10A76000074B1B5C1F2B86BF064903F01F034FF0EE
:10A77000A041012202FA03F3C1F80835704700BF77
:10A7800096E702000003005008B50020FFF7E8FF3D
:10A790000120FFF7E5FF0220FFF7E2FFBDE80840D8
:10A7A0000320FFF7DDBFC20710B504460CD54FF0FC
:10A7B000A0430322C3F83427C3F83827C3F83C2743
:10A7C000C3F84027FFF7E0FFA3070AD54FF0A043E7
:10A7D0000C22C3F82C27C3F83027C3F86027C3F82E
:10A7E000642710BD38B5074C051E04F1080318BFD7
:10A7F0001C4623682BB11A6822605B68284698477C
:10A80000F7E738BDD43B002020B9054B01225A7030
:10A81000FFF7E8BF012802D1014A9070F8E77047BE
:10A82000CC3B002020B9034B01225A70FFF7DABF5E
:10A83000704700BFCC3B002038B50E4C2378B3B92D
:10A840000D486360A3602361E36000F01BF90546D7
:10A8500003F004F808B900F021F901232370074B35
:10A86000D3F800340BB10123A370284638BD8525E9
:10A87000F5E700BFCC3B002009A802000000014022
:10A8800037B5184CA378054603F0FF029BB110B111
:10A8900043680120984700230DF107008DF8073029
:10A8A000FDF74AFEE3689DF807000133E360FDF71A
:10A8B00067FE03B030BD0DF107008DF80720FDF7EE
:10A8C0003BFE25B1226913463BB92A602561E36846
:10A8D000002BE7D100F0F4F8E4E79D42F7D01B68C5
:10A8E000F2E700BFCC3B002037B50D4C00230DF143
:10A8F00007008DF80730FDF71FFEE368013BE360BA
:10A90000E36833B9074BD3F8005415B900F0E5F804
:10A91000A5709DF80700FDF733FE03B030BD00BF02
:10A92000CC3B002000000140012813B50CD00328C7
:10A9300020D038B9134B0122C3F88020BFF34F8FCA
:10A94000BFF36F8F02B010BD0F4C00230DF1070055
:10A950008DF80730FDF7F0FD23780BB9FFF76CFF9A
:10A96000E3689DF807000133E3600123A370FDF75E
:10A9700007FEE7E700F092F802B0BDE81040FFF7ED
:10A98000B3BF00BF00E100E0CC3B00201FB503785F
:10A990008DF800304368019383688DF80830C368F0
:10A9A000054A0393054B684653F8213052F82110AD
:10A9B000984705B05DF804FBE03B0020E83B002031
:10A9C0001FB503788DF800304368019383688DF8D4
:10A9D0000830C368054A0393054B684653F8213095
:10A9E00052F82110984705B05DF804FBE03B0020C9
:10A9F000E83B0020F0B5194B90F800C0DFF86CE0A0
:10AA000043F82C20164B16460A6943F82C204B7F3E
:10AA10000EF80C300C4607460FCC89B06D460FC5BA
:10AA200094E80F0085E80F003B78CDF810C01EF8C1
:10AA300003304BB1002E0B4A694608BF3246381D21
:10AA400000F02AFE09B0F0BD002E074A694608BF93
:10AA5000324607F10C0000F0E3FBF3E7E83B00208F
:10AA6000E03B00208DA90200C1A90200F03B0020BC
:10AA700000F18040002382B0036003680193019BD2
:10AA800002B07047044A137923B901211060918004
:10AA90001846704785207047F43B0020074B1A6822
:10AAA000D20704D4C02283F8002301221A604FF099
:10AAB00080430122C3F81825704700BF00E100E081
:10AAC00008B54FF48270FFF7D3FF4FF080430222A6
:10AAD000C3F8042301229A6008BD4FF0804208B5F4
:10AAE0000223C2F808334FF48270FFF7C1FF01233D
:10AAF000D360D2F81834DB03FBD408BD4FF080419B
:10AB000010B5D1F8003163B14FF48070FFF7B0FF9A
:10AB10000D4B58790122C1F8082310B95A711B68EE
:10AB200098474FF08042D2F8043163B14FF48270FD
:10AB3000FFF79EFF0223C2F80833034BBDE8104025
:10AB40001B680120184710BDF43B002000F1804035
:10AB500000F5C040002382B0036003680193019BAD
:10AB600002B0704703681F2B83BF03F01F0303600D
:10AB700001484FF0A04070470003005007B5019016
:10AB800001A8FFF7EFFF019B00EB8300D0F800372F
:10AB900023F44033C0F80037D0F8003743EA0141CE
:10ABA000C0F8001703B05DF804FB0000054B4FF040
:10ABB000FF32072843F8202084BFC01880F85820AF
:10ABC000704700BFFC3B002038B51D4991F86A3042
:10ABD000A3BB4FF6FF70FF245A09012A0CBF02469F
:10ABE0004FF0FF3203F01F05EA40D20748BFCA18F2
:10ABF00003F1010348BF82F83040302BECD1002430
:10AC0000E0B20134FFF7D2FF0C2CF9D10D4B00223A
:10AC10004A669A800C4BC02083F8060340201860D7
:10AC20004FF4BE70FFF792FF084B4FF00040C3F89F
:10AC30000403012381F86A30104638BD0820FCE780
:10AC4000FC3B0020603C002000E100E00060004090
:10AC5000034B93F86A00003818BF0120704700BF0B
:10AC6000FC3B0020F7B53D4F3B18044693F93030CC
:10AC7000002B71DA8B78C3F34003002B0BBF082540
:10AC800000250C200820854202D1042003B0F0BD2D
:10AC900057F82560013647D138196EB247F825209C
:10ACA00080F8306013B97B1983F858408B785A07C5
:10ACB0001AD4D8073AD501A80194FFF753FF019B96
:10ACC00000EB8300D0F8003723F00203C0F8003710
:10ACD0002348E20804F0070C012303FA0CF310F8F0
:10ACE00002C043EA0C03835488780B7810F002000A
:10ACF00028D0AD0005F1804505F5C0452402D5F802
:10AD0000102522F44F3222F44072C5F810251B049E
:10AD1000D5F8102504F47C5403F440331C43144349
:10AD2000C5F810450020B1E70135ACE701A84A7825
:10AD30000194FFF717FF019B03F5E073920040F8C1
:10AD40002320C5E7083E47FA86F797F8604044EAB3
:10AD5000831387F8603099E7082097E7FC3B0020D1
:10AD6000603C002073B5244D2E18044696F930201F
:10AD7000072A1DDD083A45FA82F595F860309B09EF
:10AD8000032B10D1019001A8FFF7ECFE019BD0F836
:10AD90001015D94001F001010231204602B0BDE892
:10ADA0007040FFF7EBBE012B0CBF02210321F4E73B
:10ADB000D3B2072B1DD8930003F1804303F5C043A2
:10ADC000D3F8100540F00100C3F8100502F140006F
:10ADD00040B2800080B2FFF7B9FE51B196F9303031
:10ADE00055F823302BB1012303FA02F2034BC3F8C9
:10ADF000042302B070BD00BFFC3B00200060004097
:10AE00000E4B034493F93020072A02DD0021FFF79F
:10AE1000B5BED3B2072B10D8930003F1804303F5DE
:10AE2000C043D3F8101521F00101C3F81015012318
:10AE300003FA02F2024BC3F808237047FC3B0020E0
:10AE40000060004007B5019001A8FFF78BFE019B51
:10AE5000D0F81005D84000F0010003B05DF804FB05
:10AE60002DE9FF470024CDE90244584D4FF480728C
:10AE7000012102F1804303F5C04390B21B68012B0E
:10AE800006D1D5F804330B4202D0FFF75FFE0C4326
:10AE90000432B2F5907F4FEA4101EAD14B4BD3F82F
:10AEA0007C31012B11D14FF4BE70FFF74FFE4FF0F4
:10AEB000A04344F00044D3F820250292C3F8202593
:10AEC000D3F820280392C3F82028E3B2D3B1404F2F
:10AED00000250126344210D0AB0003F1804303F576
:10AEE000C043D3F81005D3F8101557F8253023B117
:10AEF000C1F30141C0F3052098470135082D4FEA01
:10AF00004606E7D1002C59DA314D324C324E4FF023
:10AF10000008012716F9013B5A1C3CD0C3F3C201BB
:10AF2000103169445FFA83F911F8081C03F03F02FD
:10AF300003F0070307FA03F319422CD001A801928A
:10AF4000FFF710FE019B03F5E07350F82330C3F3C5
:10AF5000014ABAF1020F0CBF032102211046FFF78C
:10AF60000DFE01A80192FFF7FDFD019B07FA03F317
:10AF7000C0F82035AB1893F9303055F8233053B171
:10AF80004FEA9911032904D0BAF1020F19D101290E
:10AF900001D11046984708F10108B8F1040FB9D162
:10AFA0004FF0A043D3F820250292C3F82025D4F80F
:10AFB00020350393C4F820351343A7D104B0BDE86E
:10AFC000F087BAF1030FE6D10229E1E70060004003
:10AFD000FC3B0020000300505C3C0020014B1B6840
:10AFE000184700BF683C00200E4B984237B50C460E
:10AFF00002D0002003B030BD00230DF107008DF812
:10B000000730FDF799FA084B1D7915B901221C602C
:10B010001A719DF80700FDF7B3FA002DE9D0112051
:10B02000E8E700BF00200040683C0020034B984246
:10B0300001BF034B00221A601A71704700200040C4
:10B04000683C00200023435082B043580193019B89
:10B0500002B070470A4610B54FF48E71FFF7F2FF49
:10B06000136A9168C95C136A01331362C0F81C1536
:10B0700010BD8B690A4610B54FF4847123B9FFF7F0
:10B08000E1FFD0F8183510BDFFF7DCFF536AD16837
:10B09000D0F81805C854536A01335362F3E700002F
:10B0A0001FB501238DF80030044BCDE90110D3E921
:10B0B00000126846904705B05DF804FB703C002024
:10B0C00030B54D4DD5F804339A0585B051D5D5F836
:10B0D0002431002B4DD04FF492712846FFF7B2FF78
:10B0E0004FF40173C5F80833444B93F829200AB98B
:10B0F00001226A60404902228DF80020D1F88024A4
:10B10000C1F8802403929A690292DA6801920022BF
:10B11000C3E906226846D3E9001290473648D0F8C2
:10B120001C315BB1354A5169136A99424DD992F885
:10B130002830002B49D11146FFF78CFF2E48D0F85C
:10B140004431002B56D04FF4A271FFF77BFF2B4BFD
:10B1500093F829200AB1012202609A69002A49D095
:10B16000586AD96800229A6105B0BDE83040FFF7FF
:10B1700097BFD5F804335B07D0D5D5F80831002B3D
:10B18000CCD01E4C1C482146FFF773FF636AA269AE
:10B190009A42C3D1E369E1684BB1A3612369E360DB
:10B1A0000023606AE3616362FFF77AFFB6E794F811
:10B1B00029300BB901236B600F4B4FF40172C3F8B8
:10B1C00008230023606AA361EEE70B484FF48E71F9
:10B1D000FFF738FF5369002BB0D05169029100236B
:10B1E00091688DF80030019153616846D2E90013EF
:10B1F0009847A3E705B030BD00200040703C002018
:10B200001F2886BF00F01F00044B4FF0A04300F53D
:10B21000E070022243F82020704700BF0003005076
:10B220002DE9F843604D90F804802C2303FB08536C
:10B23000064693F82A300C469146002B40F0AF802A
:10B240005A490068FFF7D0FE0746002840F0A98061
:10B250002268531C10D01F2A87BF554902F01F03D4
:10B2600013464FF0A0410120984003F5E073C1F868
:10B270000805032041F823006168481C0DD01F29F0
:10B280008BBF01F01F030B4649484FF0A04003F568
:10B29000E0734FF0000C40F823C03068A369C0F899
:10B2A000243594F814C0637DBCF1010F4CEA03030C
:10B2B000C0F86C35C0F81415C0F80C252BD1A36864
:10B2C000591C0DD01F2B8BBF03F01F021A463849A3
:10B2D0004FF0A04102F5E0724FF0000C41F822C09F
:10B2E000E1684A1C13D01F2987BF314A01F01F0CA7
:10B2F0008C464FF0A0424FF0010E0EFA0CFE0CF5FA
:10B30000E07CC2F808E54FF0030E42F82CE0C0F8EC
:10B310000815C0F810352C2202FB08F2AB18C3F850
:10B3200004902369AB50B9F1000F20D04FF48E7117
:10B33000247FFFF787FE4FF4A2713068FFF782FE8B
:10B3400032681C4BC2F80433130B42F3073261011D
:10B35000002AC9B21EDB1848841884F800130121A2
:10B36000520903F01F0301FA03F340F82230336857
:10B370000422C3F800252C2303FB08530022C3E951
:10B38000062283F829205A61012283F82A203846B0
:10B39000BDE8F883094A03F00F03D154E7E7082713
:10B3A000F5E71127F3E700BF703C0020C1B00200B1
:10B3B000000300508000020000E100E014ED00E016
:10B3C0002DE9F04103680579284C0022C3F80025D7
:10B3D0002C2202FB054201465268A2B1244AC3F85E
:10B3E00008231A0B43F30733002B0CDB02F01F007A
:10B3F0005B090122824020331E4840F82320BFF31E
:10B400004F8FBFF36F8F0B68D3F80C05D3F81485FB
:10B41000D3F80865D3F810754FF0FF329042C3F8A7
:10B420001425C3F80C25C3F80825C3F8102501D04E
:10B43000FFF7E6FEB8F1FF3F02D04046FFF7E0FE1F
:10B440007A1C02D03846FFF7DBFE731C02D0304670
:10B45000FFF7D6FE0868FFF7E9FD2C2303FB054440
:10B46000002384F82A306360BDE8F081703C00203E
:10B470008402020000E100E00279044B2C2101FB70
:10B4800002335869003818BF01207047703C002013
:10B490002DE9F84F064690F8048089469246FFF75A
:10B4A000EBFF044600283CD1204F2C2508FB057BF0
:10B4B0004FF48E71CBF814A0CBF80890CBF8200095
:10B4C0008BF828003068FFF7BDFD306801238360EA
:10B4D0005946FFF7BFFDDBF804305D461BBB306803
:10B4E000DBF814402B6A9C4211D83368D3F81C2136
:10B4F000002AFBD00122DA6000202C2303FB08770E
:10B5000000237B61BDE8F88F95F828303BB9D0F86F
:10B510001C31002BF8D05946FFF79CFDE2E70F20C5
:10B52000EBE71120EEE72046ECE700BF703C00207F
:10B530000023435082B043580193019B02B07047EF
:10B540001FB501238DF80030044BCDE90110D3E97C
:10B5500000126846904705B05DF804FB9C3C002053
:10B560007FB5434AD2F82461002E60D010464FF4D4
:10B570009271FFF7DDFF02238DF80030D2F880349E
:10B58000C2F880340393D2F83C350293394BDA6821
:10B5900001920022C3E906226846D3E900129047CF
:10B5A0003348D0F8443173B14FF4A271FFF7C0FFB4
:10B5B000304B9A693AB10022C3E90622D968D0F823
:10B5C0003C05FFF7BDFF2A48D0F82031ABB14FF45E
:10B5D0009071FFF7ADFF0123C360264B5A6962B13A
:10B5E000D0F84C150291002299688DF80020019145
:10B5F0005A616846D3E9001290471D48D0F8583187
:10B600009BB14FF4AC71FFF793FF1A4B5A6962B1CB
:10B61000D0F84C150291002299688DF80020019114
:10B620005A616846D3E90012904704B070BDD2F861
:10B630001031002BB4D04FF488711046FFF778FF1B
:10B640000C4BD2F83C0599698842A9D1DC69D968CC
:10B6500064B1D2F8005225F02005C2F800521A69F0
:10B660009C61DA60DE61FFF76BFF99E79C61FAE7A6
:10B67000002000409C3C00201F2886BF00F01F00D7
:10B68000044B4FF0A04300F5E070022243F8202065
:10B69000704700BF000300502DE9F843664E90F854
:10B6A0000480242303FB0863044693F820300D46EE
:10B6B0009146002B40F0BC8060490068FFF794FC85
:10B6C0000746002840F0B68029684B1C10D01F297F
:10B6D00087BF5B4A01F01F030B464FF0A0420120D9
:10B6E000984003F5E073C2F80805032042F82300F0
:10B6F0006A68501C0DD01F2A8BBF02F01F0313462F
:10B700004F484FF0A04003F5E0734FF0000C40F8B5
:10B7100023C02068AB69C0F8243595F814C06B7D50
:10B72000BCF1010F4CEA0303C0F86C35C0F80C15EE
:10B73000C0F814252BD1AB68591C0DD01F2B8BBF23
:10B7400003F01F021A463E494FF0A04102F5E07295
:10B750004FF0000C41F822C0E9684A1C13D01F29A1
:10B7600087BF374A01F01F0C8C464FF0A0424FF0C4
:10B77000010E0EFA0CFE0CF5E07CC2F808E54FF065
:10B78000030E42F82CE0C0F80815C0F8103524224A
:10B7900002FB08F2B318C3F804902B69B350B9F157
:10B7A000000F2FD04FF488712A7FFFF7C1FE206869
:10B7B0004FF49071FFF7BCFE20684FF49271FFF7D1
:10B7C000B7FE20684FF4A271FFF7B2FE4FF4AC71E0
:10B7D0002068FFF7ADFE23681A49C3F80413190B5C
:10B7E00043F307335201002BD2B21CDB1648C518B5
:10B7F00085F8002301225B0901F01F0102FA01F123
:10B8000040F8231023680822C3F80025242303FBF3
:10B8100008660023C6E906337361012386F82030E9
:10B820003846BDE8F883094B01F00F015A54E9E7A7
:10B830000827F5E71127F3E79C3C002061B50200DB
:10B84000000300501003420000E100E014ED00E0AE
:10B850002DE9F0413D4D06790468242303FB06538E
:10B8600002465B68ABB13A4BC4F8083344F3073384
:10B87000002B4FEA14310CDB01F01F005B090121A2
:10B8800081402033334840F82310BFF34F8FBFF37C
:10B890006F8FD4F8003223F02003C4F80032242341
:10B8A00003FB06539B6933B14FF4A2712046FFF7A7
:10B8B0003FFE012363604FF4AC712046FFF738FE72
:10B8C0000123E360242303FB0653D4F85811002915
:10B8D000FBD0996919B1D4F844110029F5D000239F
:10B8E000C4F800351368D3F80C05D3F81485D3F8E1
:10B8F0000815D3F810754FF0FF329042C3F80C25AD
:10B90000C3F81425C3F80825C3F8102501D0FFF7A4
:10B91000B3FEB8F1FF3F02D04046FFF7ADFE7A1C00
:10B9200002D03846FFF7A8FE4B1C02D00846FFF7AE
:10B93000A3FE2046FFF77AFB242303FB06550023D2
:10B9400085F820306B60BDE8F08100BF9C3C002092
:10B950001003420000E100E00279044B242101FBC6
:10B9600002335869003818BF012070479C3C002002
:10B9700001F06043B3F1005F2DE9F04706468846C9
:10B9800092463BD190F80490FFF7E6FF044600286A
:10B9900036D11D4F3068242505FB09754FF4907191
:10B9A000C5F814A0C5F80880FFF7C2FD4FF4AC71CC
:10B9B0003068FFF7BDFD33686A69A968C3F84415AC
:10B9C000C3F8482501229A606A68DAB9D3F82021C1
:10B9D000D3F858011AB90028F8D00F2007E0002842
:10B9E000FBD10122DA60D3F85821002AFBD02423AE
:10B9F00003FB097700237B61BDE8F0871020FBE79C
:10BA00001120F9E72046F7E79C3C00200023435033
:10BA100082B043580193019B02B070472DE9F04773
:10BA2000DFF8988004460D46914600F5A07A4FF461
:10BA300080370026D4F80433B10001F5A0713B42F1
:10BA400089B20DD0DAF8003053B1C4F848732046FB
:10BA5000C4F80873FFF7DAFF58F82530F0B29847BA
:10BA60000136B1454FEA47070AF1040AE2D1D4F89A
:10BA70000433DA070CD5D4F800314BB120464FF42B
:10BA80008071FFF7C3FF0D4B042053F82530984712
:10BA9000D4F804339B070ED5D4F804315BB12046AB
:10BAA0004FF48271FFF7B2FF044B052053F82530A5
:10BAB000BDE8F0471847BDE8F08700BFC83C00204C
:10BAC000F8B5274C4379274E44F82320264C274AC3
:10BAD00003EB4303A41AF35CE40824045BB10820DD
:10BAE000FDF74EFB224A2349034644F00200FBF7D0
:10BAF000B8FF0820F8BD90F904508B7802795B01FB
:10BB0000002DDBB226DB1C4F07EB050C8CF8003355
:10BB100001236D0902F01F0203FA02F247F8252003
:10BB200003680A88C3F8082543790879C97803EBC4
:10BB30004303F2185070917000200122F254FDF777
:10BB40001FFB0B4A0B49034644F00300FBF789FF38
:10BB50000020CFE7094D02F00F02AB54E0E700BF31
:10BB6000C83C0020C03C00200CDE0200ECDD0200DE
:10BB70002DE80200BCE7020000E100E014ED00E067
:10BB8000036801221A604379074A084803EB43031C
:10BB90000221D154064B0749C01AC008000440F0E6
:10BBA0000300FBF751BF00BFC03C00200CDE0200C9
:10BBB000ECDD0200DAE702002DE9F34706464FF418
:10BBC00080380068DFF8D8C0304C314D08FA01F8F1
:10BBD000C0F84883C0F8088396F805E00F460EEBDE
:10BBE0004E01614422F07F4291F801A007F5A8714F
:10BBF0004FEA4E0940F82120BAF1000F21D0D0F8C9
:10BC000004A5CE44F444AAEB0201524588BF01F1D9
:10BC1000FF119CF802C088BF01F57F41614510DA31
:10BC20000D20FDF7ADFA641BE40824040346194A0D
:10BC3000194944F00200FBF714FF0D2002B0BDE8E3
:10BC4000F08743B107F15001890089B2FFF7DEFEAA
:10BC50003368C3F80483641B33681049C3F8448312
:10BC6000E408240444F003043B4600922046727921
:10BC7000FBF701FF0020FDF783FA064A0649034659
:10BC80002046FBF7EEFE0020D8E700BF0CDE0200E6
:10BC9000ECDD02001DE80200BCE70200E3E7020061
:10BCA000C03C0020024803220021FFF7B7BE00BFBE
:10BCB00000B00040024804220121FFF7AFBE00BFE0
:10BCC0000040024072DF704773DF704776DF7047D5
:10BCD0007ADF70477CDF70477FDF70478FDF704708
:10BCE000B1DF7047FCF7CCB908B5064B01211878D5
:10BCF000FFF7EAFF08B1FCF7C3F9BDE808400020F0
:10BD0000FEF71ABD742300200388212B13B50446C7
:10BD100058D007D8112B32D0132B4BD0102B0CD06E
:10BD200002B010BD522B5BD0562B01D03B2BF7D16C
:10BD3000A0881321FFF7CAFF1AE02D4B2D482E498A
:10BD4000C01AC008000440F00300FBF77DFE01208C
:10BD5000FEF7F2FC0020FEF703FD284BA1882848DF
:10BD6000198001F01DFB08B1FCF78AF9FCF746F9D0
:10BD70000028D5D002B0BDE81040FCF781B91C4BBB
:10BD80001C482049C01AC008000440F00300FBF71B
:10BD90005BFE0120FEF7E4FC184B4FF6FF721A80A1
:10BDA000FCF742F908B1FCF76BF902B0BDE81040AE
:10BDB000FFF79ABF114800231A4685210088FFF734
:10BDC0008BFFD5E7002380888DF8043001A98DF81A
:10BDD0000530FFF783FF0028A2D0FCF751F99FE759
:10BDE000064800231A4619460088FFF779FFBFE787
:10BDF000ECDD020024DE02003BE802007623002096
:10BE0000403D002045E8020013B540BB1B4A1C4BD7
:10BE1000147824B901201070196002B010BD1A689E
:10BE2000184C891A0029CABFD822024691FBF2F2A7
:10BE300020881549019201F003FC1349208801F084
:10BE4000CFFB124B1248019A1249C01AC0080004D5
:10BE500040F0030002B0BDE81040FBF7F9BD0B4B0A
:10BE60000B48C01AC0080B460A4600040A4940F0B5
:10BE7000030002B0BDE81040FBF7F3BDD43C002046
:10BE8000D03C002076230020283D0020ECDD02007D
:10BE900024DE020052E8020067E802000B2808B521
:10BEA0001AD1104B10481149C01AC008000440F0C4
:10BEB0000300FBF7C9FD0E4B0E491888372201F02D
:10BEC000BFFB30F008020BD043F20202904207D0D1
:10BED00043F20142904203D0BDE80840FCF7D0B8DD
:10BEE00008BD00BFECDD020024DE020082E8020093
:10BEF00076230020283D002008B503784BB9054B78
:10BF00003B211888FFF7E2FE18B1BDE80840FCF7B6
:10BF1000B7B808BD7623002010B50A4B0A4CE41AC6
:10BF2000E408240444F0030402203AB1FEF704FCC0
:10BF300006492046BDE81040FBF786BDFEF710FC21
:10BF40000349F6E7ECDD020024DE02009CE8020073
:10BF5000ADE8020010B5012000F04CFA044A054893
:10BF600001239360BDE8104008220021FFF724BEA2
:10BF70000040024034E90200FCF782B870B5ADF52C
:10BF8000825D9A4986B0192000F0B0F94FF48041E3
:10BF90000020FBF7BBFB08B1FCF772F8FBF7F4FAE3
:10BFA0000120FEF700FCFCF74BF908B1FCF768F83C
:10BFB0008F4B904D9049ED1AED082D0445F0030488
:10BFC0002046FBF741FDFEF737FC08B1FCF758F8B7
:10BFD0000020FEF755FC894B894A18689B882E90F3
:10BFE000ADF8BC302EA940F6FF738648ADF8B830E6
:10BFF000FFF766FD014645F00100FBF725FD81488E
:10C00000012308220021FFF7D7FD08B1FCF738F81B
:10C010007C48FFF7B5FD78492046FBF715FD01F098
:10C020009FFB08B1FCF72CF800232EA901202E93CA
:10C0300001F062FC08B1FCF723F82EA801F0FEFC29
:10C0400008B1FCF71DF870492046FBF7FDFC02A87B
:10C0500000F04CFA6D492046FBF7F6FC00F088FA38
:10C060006B492046FBF7F0FC2EA800F0F7FA0546D6
:10C07000027868492046FBF7EBFC6A786549204660
:10C08000FBF7E6FCFCF7DAFF08B1FBF7F9FF6248C3
:10C0900040F233320121FBF759FF08B1FBF7F0FF03
:10C0A00016AD112305F8183D5C4914222846FFF708
:10C0B00011FE08B1FBF7E4FF0023ADF880305023F8
:10C0C000ADF87C30A023ADF87E301FA84FF4C873C4
:10C0D000ADF88230FFF7FCFD08B1FBF7D1FF504807
:10C0E000002101F04BF808B1FBF7CAFF00231093C1
:10C0F0004C484D4B1F931FA901F040F908B1FBF7C5
:10C10000BFFF4A4B4A481093294601F0F9F908B19C
:10C11000FBF7B6FF41F22353ADF82430444B454EB4
:10C120009B7C8DF826303C220021284601F0B9FD89
:10C1300002238DF840303C2240F2016300211FA809
:10C14000ADF8423001F0ADFD32460123ADF88C3040
:10C1500052F8041B09AB2846249300F05FFB08B19A
:10C16000FBF78EFF344AB1681FA800F057FB08B1F7
:10C17000FBF786FF0AAB182200211846019301F055
:10C1800090FD01238DF83D308DF82830019A294922
:10C190002A4840230C93FFF795FD08B1FBF770FF89
:10C1A000142200211FA801F07CFD4FF4A0334FF4AE
:10C1B000A022CDE9202303238DF88830204B24933F
:10C1C0001FA8204B259300F0F3FD08B1FBF758FFA3
:10C1D00009492046FBF738FCFFF786FDFBF7E8FA34
:10C1E0000028FBD1FCF740FFF8E700BF09BE0200C2
:10C1F000ECDD020024DE0200BFE802002CE90200B0
:10C2000055BF020034E90200D7E80200E4E802006A
:10C21000F5E8020004E902005C23002016E90200B0
:10C22000143D0020403D0020E5BC020019BF020083
:10C23000283D002064230020702300207423002068
:10C24000F9BE020079BF0200F8B51D20FEF7D8FD47
:10C25000204D214B214801260024EE6017211C713E
:10C260004FF0A0471C6006606E64D5F84425172A7D
:10C2700018D91B4C227812B91A4A01215163197935
:10C28000194A18291968126806BF41F317010020DE
:10C29000012090472378E3B1BDE8F84001211D203B
:10C2A000FEF760BDD0F84021002ADDD0C0F8404143
:10C2B000D7F81025D3F800C0C2F340728A4042EA92
:10C2C0000C021A601A790132D2B201391A71CBD23A
:10C2D000CFE7F8BD00A00040583D0020009000408E
:10C2E0004C3D002000600040503D002013B502236B
:10C2F0008DF804309DF80630384C23F007038DF894
:10C300000630374B206019604FF0A0430022032114
:10C310008DF80520C3F870174FF08051C3F8081549
:10C3200040F20F21C3F850174FF48011C3F80815DD
:10C33000C3F87427FEF78CFC20B9FEF745FC08B162
:10C34000FBF79EFE274A01A91D20FEF78BFC08B1D2
:10C35000FBF796FE244B0122C3F840251022C3F8B8
:10C3600044252022C3F848250422C3F800220022D5
:10C37000C3F8102503F580532268C3F84025022234
:10C38000C3F80425A3F58043184AC3F8142503F520
:10C39000C833174AC3F81025A2F544520C3AC3F823
:10C3A000142502F544521032C3F81825A2F5435261
:10C3B000203AC3F81C2502F57E522432C3F8142912
:10C3C00002F59C72C3F82025A2F58952103AC3F8F1
:10C3D00024250722C3F8002502B010BD543D0020DB
:10C3E000503D002049C2020000900040031C110093
:10C3F00040910040044B80F001001870034B012174
:10C4000059661D20FEF7AEBC4C3D00200060004088
:10C4100041DF704713B52A4B41680446294822780A
:10C420001B1ADB081B0443F00300274B53F82220A0
:10C4300089B926490190FBF70BFB23780198012B62
:10C4400013D0032B26D023B9636813B9204B0122E4
:10C450001A7002B010BDA1F506411E4B019053F8B1
:10C4600021301D49FBF7FDFAE7E76368002BF0D1A7
:10C47000A2681A490190FBF7EBFAA28901981849C2
:10C48000FBF7E6FAE2891749019802B0BDE81040CF
:10C49000FBF7DEBA636873B9A26810490190FBF735
:10C4A000D7FAA2890E490198FBF7D2FAE2890D4921
:10C4B0000198FBF7CDFA0C4B00225A70C9E700BF78
:10C4C00084DE0200ECDD0200A4EC020042E902007E
:10C4D000623D002068EC020063E902007BE9020093
:10C4E0008DE902009DE90200603D002070B505461F
:10C4F00086B01A48FDF734FB19481A4B1A491B1A23
:10C50000DB081B0443F00300FBF79EFAFDF73EFB3C
:10C5100008B1FBF7B5FD154C2378DBB112220021E1
:10C5200001A801F0BEFB01A8FDF7AEFC08B1FBF7C6
:10C53000A7FD01AB2A4605AE1C4603CCB4421060F1
:10C540005160234602F10802F6D123881380284661
:10C5500006B070BDFFF75CFFDEE700BF15C4020048
:10C56000ECDD020084DE0200B0E90200623D002042
:10C5700030B589B00023CDE90533CDE90133079308
:10C5800005AA01AB47F2100148F21000FDF76EFC5E
:10C59000294C2A4BE41AE408240444F0030500283B
:10C5A00035D1CDE9030003A905A8FDF709FC08B1C1
:10C5B000FBF766FD0499224840F6B27201F048FB91
:10C5C00028461F4A1F49FBF743FA05A8FDF71EFC42
:10C5D00008B1FBF755FD1C4905A8FDF73FFC48F2E3
:10C5E00006629042034604D118492846FBF72CFA0C
:10C5F00002E00BB1FBF744FD154D0A2445F001059F
:10C600004FF47A40A847013CFAD109B030BD114936
:10C610002846FBF719FA0C4905A8FDF71BFC48F260
:10C62000066290420346DFD048F208629042E0D1B1
:10C63000094944F00100D9E784DE0200ECDD020084
:10C6400078230020C4E90200BCEC0200F2E90200F9
:10C6500060EC020034EA02004BEA02002DE9F041EE
:10C6600088B00023CDE90533CDE90133274C07938A
:10C67000274B284E284FDFF8AC80E41AE408240446
:10C6800044F0010501AB05AA47F2100148F2100081
:10C69000FDF7ECFB28BBCDE9030003A905A8FDF7D6
:10C6A0008FFB48F20963984224D048F20C63984209
:10C6B0001BD008BB049D19492A7844F00300FBF7FE
:10C6C000C7F94FF47A6001F07DFA4FF47A62294697
:10C6D000044601F0BDFA05A8FDF798FB08B1FBF789
:10C6E000CFFC204608B0BDE8F08139462846FBF76C
:10C6F000ABF9C7E73146F9E7A0F50640084958F815
:10C7000020202846FBF7A4F9BCE700BF84DE020026
:10C71000ECDD020077EA02005DEA0200ADEA020009
:10C7200091EA020068EC02006DDF704779DF704724
:10C730007DDF704764DF70472DE9F04F85B000253D
:10C740000E9CBDF83CB0B4F800A00191074690469D
:10C750001E46A9463A884A450DDC45B12388013B6F
:10C76000A3EB0A039BB2FF2B3AD806F80A3000204D
:10C7700005B0BDE8F08F7A6852F8290003900022D6
:10C780000DF10B0103A8FFF7D5FF0028F0D19DF8AC
:10C790000B20424521D12288002D14BF0020022009
:10C7A00002EB0801014459451ADC3DB9013292B24D
:10C7B000019B2280B35422880132228022880DF10D
:10C7C0000B01324403A8FFF7B5FF0028D0D1218820
:10C7D0009DF80B200A442280012509F10109B9E7DF
:10C7E0000C20C5E72DE9F341089FBDF824801546CC
:10C7F000CDE90078022204461E46FFF79DFF50B99E
:10C800003346102229462046CDE9087802B0BDE81B
:10C81000F041FFF791BF02B0BDE8F0812DE9F04F84
:10C8200000231788138090F82D3085B006460D46FA
:10C8300014465BB3082F01D80C2028E102A8FFF7AB
:10C8400073FF002840F023812388DDF809100822B7
:10C85000EA54238801339BB21B222380EA542388A5
:10C8600001339BB2EA182380E950BDF80D30938064
:10C8700023889DF8082006339BB212F0FE0218BFF1
:10C8800001222380EA54238801332380B378FBB14B
:10C8900023880433BB42CFD802A8FFF747FF002804
:10C8A00040F0F58023880322EA54238801339BB2A9
:10C8B00019222380EA542388BDF8082001339BB253
:10C8C000E9182380EA54120A4A702388023323802D
:10C8D000F2789AB12388D91CB942ADD80221E95423
:10C8E000238801339BB201212380E95423880B4420
:10C8F0009BB22380EA5423880B4423807268AAB138
:10C900002388D91CB94297D8022192F90020E95412
:10C91000238801339BB20A212380E9542388013301
:10C920009BB22380EA542388013323803389002B70
:10C9300040F0A180338A5BB1CDE900472B46072246
:10C94000032106F11000FFF74DFF002840F09F8003
:10C95000338B5BB1CDE900472B461522142106F13C
:10C960001800FFF73FFF002840F09180326A002A4C
:10C9700040F09080D6F82480B8F1000F30D0B8F89D
:10C9800004302188981C8A1C0244BA423FF654AFF6
:10C99000FE283FF651AF03336B54238801339BB21B
:10C9A000FF222380EA54238801339BB22380B8F806
:10C9B0000020EA54E918120A4A702088023080B236
:10C9C0002080B8F804205AB1D8F8081000296BD09C
:10C9D000284401F03DF92388B8F80420134423804B
:10C9E00096F82C30002B40F09880307800284ED0FC
:10C9F0003388012B58D0228802F1020CBC453FF647
:10CA00001BAF012805D17378023313449F42FFF412
:10CA100013AF023FBF1ABFB202A905EB0C00ADF87D
:10CA20000870FFF785FE90BB3178BDF80830022909
:10CA300000F0B98072789A4202D39F4280F0B180B0
:10CA4000012940F0B280974293B2C0F0AE80ADF8B9
:10CA500008300821BDF80830FE2B3FF6EDAE2288E5
:10CA60000133AB542288013292B22280A954228829
:10CA7000134423800BE0CDE900472B460622022118
:10CA800006F10800FFF7AEFE00283FF453AF05B0F3
:10CA9000BDE8F08FB4F800C00CF10603BB423FF6CE
:10CAA000CBAE1188052901D80720F0E76FF4486E56
:10CAB00001EB0E039BB24FF27D3E7345F4D95388D0
:10CAC000052BF1D96FF44860181880B27045EBD986
:10CAD0004FF6FF70814201D09942E5D8052305F851
