:1000000000000420750300005D0300004944000067
:1000100061030000630300006503000000000000AE
:100020000000000000000000000000006703000066
:1000300069030000000000006B0300006D03000076
:10004000DD6300006F030000ED630000BD6A000087
:100050006F0300006F030000A16000006F03000049
:100060006F0300006F0300006F0300006F030000C8
:100070006F0300006F0300006F0300006F030000B8
:100080006F030000354400006F0300006F030000A1
:100090006F0300006F0300006F0300006F03000098
:1000A0006F0300006F0300006F0300006F03000088
:1000B0006F0300006F03000000000000000000005C
:1000C0006F0300006F0300006F0300006F03000068
:1000D0006F0300006F0300006F030000C189000080
:1000E0006F030000196A00006F03000000000000A9
:1000F000000000006F030000000000006F0300001C
:1001000000000000000000000000000000000000EF
:1001100000000000000000000000000000000000DF
:1001200000000000000000000000000000000000CF
:1001300000000000000000000000000000000000BF
:1001400000000000000000000000000000000000AF
:10015000000000000000000000000000000000009F
:10016000000000000000000000000000000000008F
:10017000000000000000000000000000000000007F
:10018000000000000000000000000000000000006F
:10019000000000000000000000000000000000005F
:1001A000000000000000000000000000000000004F
:1001B000000000000000000000000000000000003F
:1001C000000000000000000000000000000000002F
:1001D000000000000000000000000000000000001F
:1001E000000000000000000000000000000000000F
:1001F00000000000000000000000000000000000FF
:10020000354936480A1A02D0072291438D463449AF
:1002100034480A1A06D00722914381F30988022242
:1002200082F3148830483149314A00F044F83148AB
:100230003149324A00F03FF831483249324A00F041
:100240003AF832483249334A00F035F832483349F7
:10025000334A00F030F833483349344A00F02BF881
:1002600033483449344A00F026F8344834490022EF
:1002700000F02CF833483449002200F027F83348C6
:100280003349091A082902DB002202604160314A21
:1002900090471F481F49884205D00268043003B4C4
:1002A000904703BCF7E700208646EC46002000217B
:1002B000294A9047FEE7884207D0521A05D00378B2
:1002C00001300B700131013AF9D17047884202D0F8
:1002D00002700130FAE770470000042000E00320BC
:1002E0000000042000000420ECDF000000000020DB
:1002F000E4000020D0030000D0030000D4BA0000C6
:10030000ECDF0000000000200000002078BB0000AF
:1003100078BB000078BB000078BB000078BB000011
:1003200078BB000078BB000078BB0000ECDF000069
:10033000D0E00000E4000020E4000020E400002001
:10034000E0220320E0220320E0220320E022032019
:10035000E04203209D0300008D930000FEE7FEE7CE
:10036000FEE7FEE7FEE7FEE7FEE7FEE7FEE7FEE765
:1003700000F002B8FFF7FCBF0F484FF007018843B9
:1003800085460E4880470E48016841F470010160BF
:10039000BFF34F8FBFF36F8FFFF732BF09480A4992
:1003A0000A4A884207D0521A05D0037801300B70F0
:1003B0000131013AF9D170470000042045AE000038
:1003C00088ED00E078BB0000000000200000002065
:1003D000F0B595B01D46164608460C4605F095F951
:1003E0001A9B0D93CDE9086500252B460C2205A923
:1003F00020460A958DF82C500C9505F0ADF9079B19
:100400000293069B03939DF814308DF8115003F06E
:100410000302012A1DD1BDF81420059DC3F3C203B8
:10042000C2F383168DF81030B2000C230EA92046BB
:1004300005F092F9C5F3952508AB0093324602AB5F
:100440000EA9284600F03CFC204605F062F915B0E4
:10045000F0BD022AF8D1BDF81650C3F3C203C5F3AC
:1004600089158DF810300C27082D2E4628BF082638
:100470003B4632460EA9204605F06EF9AD1B08AB8F
:1004800002AA31460EA8374400F07EFC002DEBD1C5
:10049000DAE70000014B01221A70704725010020A5
:1004A0007047000070B50F4D06460FCD88B06C4602
:1004B0000FC495E80F00002E84E80F000A4A0B488D
:1004C0004FF0060308BF00226946009305F028FBA1
:1004D00018B1074A432100F067FF064B1E7008B0B1
:1004E00070BD00BFE4BB00009504000000000020C8
:1004F00078BB0000E400002007B5044B0093044AD9
:100500004023FFF765FF03B05DF804FB150500000D
:10051000E500002038B50E480E4C0F4D0023237027
:100520000378EB5CD2B273B1043007F02DF818B148
:100530000A4A532100F038FF094B1A7812B1237888
:10054000002BFBD038BD0C3006F050FDEFE700BFAC
:1005500000000020250100202C0A002078BB0000AC
:10056000E400002008B50848084A0378D35C3BB192
:10057000043006F079FFBDE808400020FFF792BF85
:100580000C3006F0C9FCF6E7000000202C0A002021
:100590000120FFF787BF000008B5FFF7F9FF074804
:1005A000042100F0C7FA002803DA0549482003F0C7
:1005B000F9FF044B01225A7108BD00BF54BB000073
:1005C00010BC000014000020037813F0040216D0C1
:1005D00003F00303012B03D0022B09D00120704745
:1005E0000A6800880332C0F3831002440A60F5E70A
:1005F0000B684288033303EB92130B60EEE710465F
:10060000704700002DE9F04FDFF81CA10F4685B0C0
:100610000446C61C0020154603F01EFDDAF804202F
:100620003A60DAF8083003F580739B1A0AF21C4727
:100630000AF583690AF21448B34219D30020002D49
:100640006CD004F00F039B0143F0050363F30F002C
:10065000DAF80430DAB2033233444AF822000020D8
:10066000CAF8043003F008FD012005B0BDE8F08FA2
:100670000121384604F04DF8484604F070F8404631
:1006800004F06DF8DAF808000090C0B203300AEB0D
:1006900080006946FFF798FF009B834608B1D8B2F7
:1006A000F4E7DAB20AEB8202591CD2680192C9B2AD
:1006B0000AEB810102F003020333012AC9680093A7
:1006C0001ED0022A24D1BDF80620C2F389120332BB
:1006D0004FEA114B03EB92030093404604F042F8BB
:1006E00010B1009BCAF808305946384604F011F89A
:1006F000DAF80830DAF8042003F580739B1A9BE7D8
:10070000BDF80420C2F383124FEA114B1344E3E710
:1007100004494FF4C27003F045FFDEE7A40544F03E
:10072000060095E790BC0000F801002038B50446AB
:10073000084684B1094D00232B7000F085FB084862
:10074000C5F80C4404F09AFF044610B9054805F0BA
:1007500017F8204638BD0724FBE700BFF80100204A
:1007600064BB00000CBD000030B50A4C71B10A4AF0
:100770000A49121BD20800239A4201D1002030BD41
:1007800031F82350854202D00133F5E7034654F88F
:100790003300F4E7D4BA000054BB0000000000208E
:1007A000094B013903EBC000032909D8DFE801F048
:1007B0000A020406042070470079704740797047A8
:1007C0000020704702207047D4BA00007047000034
:1007D000034BD3E90130C31A58425841704700BF58
:1007E000F80100202DE9FF41FFF7F2FF0546002840
:1007F00040F0EE80774CC4F81804BFF34F8FA36825
:100800000093DBB2033304EB83006946FFF7DCFEA1
:10081000009B50B1D4F818243AB962689A42F0D8D3
:10082000A260284604B0BDE8F081591CC9B204EBAF
:100830008101DAB2C968029104EB8202991CD26884
:100840000192C9B2033304EB8101009302F0030368
:10085000C9680391022B4CD1BDF806305E48C3F342
:100860008917502F3E4628BF502606F10C0166F32B
:100870008F13C1F30901ADF8063004F017FF0546E8
:10088000002800F0908004F040FF0C2201A92846C7
:10089000002304F04DFF0099C843C0B20130C9B233
:1008A0000331B6EB800F4FEA800204EB81011DD9C2
:1008B0005FFA82F80C23A6EB0806284604F038FFFE
:1008C000F6B208F10C03454903F0FC033246284612
:1008D00004F02EFF009B033703EB97070097D4F833
:1008E0001834002B3BD1D4F810644BE00C23324673
:1008F000EDE7012B57D1BDF804303748C3F383111E
:10090000062928BF062161F38913033101F00F0185
:100910008900ADF8043004F0C9FE0546002842D035
:1009200004F0F3FE00230C2201A9284604F000FF86
:100930000026BDF80420C2F38312B300964203F1EF
:100940000C03CCD200994A1CC9B20331009204EBCB
:1009500081010422284604F0EBFE0136E9E728462F
:1009600004F0D7FEFFF734FF80F00100C5B258E76E
:10097000F3685B7923B1336829461B683046984792
:10098000F3681E68002EF3D1284604F0C2FE3046FC
:1009900003F062FBD4F818340BB9009BA36000206D
:1009A00003F06AFBDEE7D4F8104454B90C4B0D4851
:1009B0000D49C01AC008000440F0020000F078F8A9
:1009C000D0E7236820469B689847E3681C68ECE7FB
:1009D000002526E7F801002064BB00000402002087
:1009E000D4BA00000CBB0000F7BC00002DE9F347AF
:1009F00004460F46914601A9012218469846FFF782
:100A000001FE264E002835D0019D0023E81C4345F9
:100A100003EB000139D12248002103F057FE80F397
:100A2000100A204B204A4FEA14499B1AB9EBD30F06
:100A300004D31E4940F2A91003F0B4FD6B1CDBB2D5
:100A400006EB830349EA0A40D860D6F80C3498478D
:100A5000AB1CDBB2E40006EB830304F03804EDB218
:100A600044F00104D860033544EA881343EA87233D
:100A700046F8253033781BB1FFF7B4FE0028FBD1D0
:100A8000FFF7A4FE02B0BDE8F087C9B206EB810112
:100A900059F82320CA600133B9E700BFF8010020EC
:100AA0001406002054BB0000D4BA000090BC000023
:100AB00000231A46FFF79ABF07B50123019201AA46
:100AC000FFF794FF03B05DF804FB07B5CDE9002301
:100AD00002236A46FFF78AFF03B05DF804FB1FB5E7
:100AE000CDE90123069B039301AA0323FFF77EFFB1
:100AF00005B05DF804FB1FB5CDE90023069B02930A
:100B0000079B03936A460423FFF770FF05B05DF867
:100B100004FB7FB5CDE90123089B0393099B049354
:100B20000A9B059301AA0523FFF760FF07B05DF854
:100B300004FB000030B50F4CD4F81024034600200D
:100B4000114631B9D96808714AB9C4F810340A603D
:100B500030BDC9680D79854206D00968F1E7D268D1
:100B600014680C601360F3E701300A28E8D14FF0F5
:100B7000FF30EDE7F801002038B5084B0125D3F828
:100B800010441D7004B938BDE3685D7123682046C8
:100B90005B689847E3681C68F4E700BFF801002031
:100BA000F0B5C38887B005460E4633B1294A009296
:100BB00029492A4A304604F009FB297A052946D0FA
:100BC0006B7A4BB1A888FFF7EBFD254B254953F80D
:100BD0002020304604F0FAFA234B2C681B68B4FB43
:100BE000F3F4224B1868B4FBF0F34FF47A7E00FB69
:100BF00013444FF461610EFB04F4B3FBF1F23C27A4
:100C000001FB1231B4FBF0FCB1FBF7F300FB1C4419
:100C100007FB13110EFB04F40091B4FBF0F414492C
:100C2000CDE901C4304604F0D1FA2A7A114BA888E4
:100C300053F8222005920021FFF796FD059A0E49F0
:100C40000346304607B0BDE8F04004F0BFBA07B035
:100C5000F0BD00BF38BD000020BD000018BD000081
:100C6000BCBD00003DBD0000B4060020B006002061
:100C700040BD0000E0BD00005CBD000007B50346BC
:100C80000846197A052911D05B7A2BB1094A0A491D
:100C9000019004F09BFA01980849019004F096FA3B
:100CA000019803B05DF804EB04F07EBA002AF8D096
:100CB000F2E700BF38BD00003DBD000080DA000053
:100CC0002DE9F04385B01F460C9D002395F80C904C
:100CD0002B7306460C46904629463846FFF760FFC0
:100CE000B8F1060F09D8DFE808F00412181F2833FE
:100CF00040003146284604F069FA00222946384669
:100D0000FFF7BCFF85F80C9005B0BDE8F0832268C2
:100D10003146284604F05AFAEFE7D4E90023314679
:100D2000284604F053FAE8E7A36800933146D4E973
:100D30000023284604F04AFADFE7E3680193A3683A
:100D400000933146D4E90023284604F03FFAD4E763
:100D500023690293E3680193A36800933146D4E9C1
:100D60000023284604F032FAC7E763690393236936
:100D70000293E3680193A36800933146D4E900230A
:100D8000284604F023FAB8E708292DE9F74F8046F2
:100D90000E4617461C463DD800251B7B2573214671
:100DA00010460193FFF7FCFEDFF88CA0DFF88CB053
:100DB000AE4232D918F805205946204604F006FA0A
:100DC0000135082DF4D11B49DFF874A0DFF874B0A9
:100DD000204604F0FBF94FF000094E4524D918F8DD
:100DE00009507E2D1ED828460AF054FA002814BF58
:100DF0002A462E225946204604F0E8F909F1010955
:100E0000B9F1080FE9D1012221463846FFF736FF34
:100E1000019B237303B0BDE8F08F5146204604F0D8
:100E2000D5F9CDE72E22E5E75146204604F0CEF96C
:100E3000E4E700BF6CBD000056DD000066BD0000A9
:100E400058DD00006EBD0000084A10B50123084CB3
:100E500013600021A04204D801B11360054B186053
:100E600010BD40085B000121F4E700BFB40600207C
:100E700040420F00B00600200268530910B5044636
:100E800018D0012B4FF6FF7318BF002302F01F028A
:100E9000D340DB0704D409494FF4F67003F082FB1A
:100EA00023681F2B83BF03F01F03054823604FF007
:100EB000A04010BD4FF0FF33E8E700BFF4BD0000D5
:100EC00000030050032813B5044603D909493A200A
:100ED00003F068FB084B01A81B5D0193FFF7CCFFF3
:100EE000019BD0F80405D840C04300F0010002B0D7
:100EF00010BD00BF22BE000078BE0000032813B55D
:100F0000044603D90849412003F04CFB074B01A8D4
:100F10001B5D0193FFF7B0FF019A01239340C0F8D6
:100F20000C3502B010BD00BF22BE000078BE00002C
:100F3000032813B5044603D90849472003F032FBC0
:100F4000074B01A81B5D0193FFF796FF019A012350
:100F50009340C0F8083502B010BD00BF22BE0000AB
:100F600078BE000008B50020FFF7E2FF0120FFF780
:100F7000DFFF0220FFF7DCFFBDE808400320FFF79A
:100F8000D7BF08B50020FFF7B9FF0120FFF7B6FF74
:100F90000220FFF7B3FFBDE808400320FFF7AEBF14
:100FA000032813B5044603D90B495F2003F0FAFA6E
:100FB0000A4B01A81B5D0193FFF75EFF0199D0F872
:100FC000043501228A4022EA03011340C0F80815C3
:100FD000C0F80C3502B010BD22BE000078BE000083
:100FE0000B2809D00C2809D0182809D019280CBFC3
:100FF00003204FF0FF3070470020704701207047FA
:1010000002207047F7B5C207044612D5134E0025DB
:10101000032716F8013B019301A8FFF72DFF019B61
:10102000013503F5E073042D40F82370F1D1FFF78B
:1010300099FFA30710D50A4D00240C2615F8013B93
:10104000019301A8FFF718FF019B013403F5E0733A
:10105000042C40F82360F1D103B0F0BD78BE00004D
:1010600074BE0000C30710B507D4F023054A40083A
:10107000145C23401943115410BD0901C9B20F2358
:10108000F4E700BFC8060020034B0448196800229B
:10109000490800F0D9BA00BFBC060020200000209B
:1010A00038B50B4B1C780B4B196800239C4206DCAF
:1010B0000949882003F076FA0022104638BD11F85D
:1010C0003350854201EBC302F7D00133EEE700BF96
:1010D000B8060020E80600207CBE000013B50446D8
:1010E0000191FFF7DDFF38B143682BB1019920462C
:1010F00002B0BDE81040184702B010BD10B5C0B234
:10110000FFF7CEFF0446007804F0B2FF63785A1E62
:1011100053425341834208D1044BD3E90023134384
:1011200003D1BDE81040FFF7AFBF10BDC0060020DF
:1011300038B5334A43080446D35CC2074CBF1B0989
:1011400003F00F030D46042B59D8DFE803F0032208
:101150002A363900002952D00121FFF783FF0020F1
:1011600002F07AFF0120A4F12003C4F12001254AF6
:1011700020FA01F100FA03F30B43A040D2E9004149
:1011800020430B43C2E90003BDE83840002002F0D1
:1011900073BF002918BF02212046BDE83840FFF781
:1011A00061BF41B10321FFF75DFF20460121BDE88A
:1011B0003840FFF793BF0121EEE701BB0421EBE7C5
:1011C00009B10321E8E7FFF74DFF29462046FFF765
:1011D00085FF284602F040FF0120A4F12003C4F15E
:1011E0002001084A20FA01F100FA03F30B43A04062
:1011F000D2E9004124EA000021EA0303C2E738BD36
:10120000C8060020C00600202DE9F041124E134F01
:1012100000243378A34208DC114BD3E900231343A5
:1012200018D0BDE8F041FFF72FBF3D6805EBC408BB
:1012300015F8340004F01CFF98F801305A1E534290
:101240005341181A4142414115F83400FFF770FF2D
:101250000134DEE7BDE8F081B8060020E806002092
:10126000C0060020092AF7B505460C4616463ED9A9
:1012700004F000FEE8B11F4B1F481D601F4B204FBC
:101280001C70204B002120221E600AF0C2F81E4B69
:1012900000200021C3E90001013CE4B20326FF2C39
:1012A0000DD11A4A1A48002103B0BDE8F04000F001
:1012B000A9B904F0A5FD0028DDD003B0F0BD9DF86C
:1012C000063015F834008DF8046005EBC40223F0F5
:1012D00007038DF8063001A993788DF805303A465A
:1012E00004F0D2FD013CE4B20028D8D0E5E70720A5
:1012F000E3E700BFE8060020C8060020B80600208B
:10130000FD100000BC060020C006002009120000ED
:10131000E8BE000070B50B4D2B6823B90A4940F2B6
:10132000351003F03FF9094E00243378A34201D869
:10133000002070BD2B68012113F8340004F036FE44
:101340000134F2E7E80600207CBE0000B806002069
:1013500082B001238DF807309DF80730114B1860DB
:10136000596044F2010188429A6012D044F20201AD
:10137000884206D1DA60DA6812689A61DA685268DF
:10138000DA6172B69DF80730002BFBD162B602B06D
:1013900070471A611A6992685A611A6912689A61EB
:1013A0001A69ECE7EC06002000B583B002900091CA
:1013B000019244F2010071466A4600F003F803B05E
:1013C00000BD0000F0B5064687B00F46154672B660
:1013D000FFF7D2FBFFF706FA0028FBD11E4B1F4C8C
:1013E000E41AE40844F2010324049E4244F0010498
:1013F00017D044F202039E4228D1D5E900321849A1
:101400002046FFF762FB174BD3F8F030DB0700D51F
:1014100000BE2A463946304607B0BDE8F040FFF727
:1014200097BFAA680592104604F034FA296802971B
:101430000191696800910346059A0B492046FFF720
:1014400068FB0A492046FFF733FBDCE708493A46C8
:101450002046FFF731FBD6E7D4BA00000CBB0000F2
:10146000ECBE000000ED00E006BF00002CBF000055
:1014700040BF000010B5D0E90243D1E90202A0420A
:1014800072EB03032CBF0120002010BD08B50A48F1
:1014900002F0B9FF094AD2E90031C018084BD3E97C
:1014A000002341F10001904271EB030303D210F1DC
:1014B000807041F1000108BD4000002010070020AD
:1014C0008807002037B505460C460A4801A903F0F5
:1014D00088F860B10570446001A9064803F0ABF8D4
:1014E00018B1054802F094FF002003B030BD04207D
:1014F000FBE700BF7407002040000020436970B57F
:1015000004461BB92349A52003F04CF8224B1E7852
:1015100016B90026304670BDFFF7B8FFD4E90223A4
:10152000904299412FD3002002F096FD23692BB9F8
:101530004FF0FF324FF0FF33C4E90223002002F0E6
:101540009BFDD4E905309847002002F085FD256910
:101550006DB1D4E90212B2F1FF3F08BFB1F1FF3F14
:101560000FD0691842F10002C4E90212354600208A
:1015700002F082FD002DCCD00848214604F018F975
:10158000C8E70025F3E7B3F1FF3F08BFB2F1FF3F23
:10159000BFD0F1E758BF000018070020C8BF000007
:1015A00013B5114B114918680190082310485822AF
:1015B00003F004F8044698B90E4A0F4801A902F056
:1015C000BFFD044660B90C48012102F003FF01236E
:1015D0000A4A0948194602F051FE094B01221A70C5
:1015E000204602B010BD00BFC2BF00001C07002093
:1015F000740700200D17000040000020FFFF7F004F
:101600001807002070B50C461546064620B90D494E
:1016100040F25A2002F0C6FF35B940F25B2009497A
:1016200002F0C0FF072070BD621E336854424FF0C5
:10163000FF304FF0FF315441C3E902015D611C618D
:101640000020F0E758BF0000F8B50D4617460446E5
:1016500020B9154940F26B2002F0A4FF002002F0EF
:10166000FBFCD4E90223B3F1FF3F08BFB2F1FF3F17
:1016700015D1FFF70BFF281841F10001C4E9020161
:101680000126002002F0F8FC5EB12369A76103B1D6
:10169000256121460020BDE8F840FFF713BF002672
:1016A000EFE73046F8BD00BF58BF000038B504462C
:1016B00020B9124940F2932002F074FF002002F09A
:1016C000CBFCD4E90223B3F1FF3F08BFB2F1FF3FE7
:1016D0001FBF4FF0FF324FF0FF33C4E90223012553
:1016E00008BF0025002002F0C7FC2DB121460120D3
:1016F000BDE83840FFF7E6BE284638BD58BF0000B9
:10170000014802F080BE00BF400000202DE9F743F1
:10171000044602F063FE40B16F4AD2E9003113F192
:10172000807341F10001C2E900310021204602F03E
:101730005FFED0B1694E3368BBB1204602F063FE54
:1017400000210546204602F058FE281A20F07F406E
:10175000B0F5960F04D3624940F2411002F022FF27
:101760003068FFF7CBFE002333600121204602F0F2
:101770003FFE20B1FFF78AFE5A4BC3E900015A48E9
:10178000564D01A902F067FF4FF0FF364FF0FF37CB
:10179000A0B9DFF85881514E404604F035F80028D2
:1017A00000F08B80D0E90223B3F1FF3F08BFB2F114
:1017B000FF3F33D1404604F017F8EDE70378012BE3
:1017C00021D0022B09D1DFF82481404604F00CF827
:1017D00000287CD0C0E90267F7E75BB94168D1E92E
:1017E0000223B3F1FF3F08BFB2F1FF3F02D03F48F1
:1017F00003F0DEFF01A93C4802F058FF01A93A4876
:1018000002F029FFC4E741682B68994202D1002306
:101810002B60EFE7354804F003F8EBE7316891B14E
:101820003168D1E9020182428B412FD23368D3E97A
:101830000223B3F1FF3F08BFB2F1FF3F03D031688D
:10184000404603F0B5FF404603F0CEFFD0E9025911
:101850000746FFF71BFE281A69EB0109012879F1F9
:10186000000318DBB0F5350F13D3FFF749FF204A0B
:10187000024420484FF49603002102F02DFDA0B948
:10188000336813B9204602F0DDFC376003B0BDE8D1
:10189000F0832A46EDE71748002102F0A3FD384601
:1018A000FFF72CFE0023336076E70D28F7D00C49B4
:1018B0004FF4867002F076FEF4E7084B1B68002BAD
:1018C000E4D1204603B0BDE8F04302F0C9BC0A4BA6
:1018D00001221A708EE700BF100700209007002039
:1018E00058BF00008807002074070020C8BF000010
:1018F000FFFFB4004000002018070020024B5B6887
:1019000003B11847704700BF9807002038B50D464F
:10191000044620B9064940F2431002F043FE6378C2
:10192000AB4283BFA07840190019002038BD00BF2A
:10193000D4BF000038B50D46044620B906494FF41F
:10194000887002F02FFE237AAB4283BF093405EB87
:1019500045056019002038BDD4BF000070B50D46A4
:10196000044620B90D4940F20F1002F01BFE6368D7
:1019700023B90A494FF4887002F014FE63681B68AB
:1019800023B9064940F2111002F00CFE63682946A3
:1019900020461B68BDE87040184700BF3BC00000F0
:1019A00010B5044620B9044940F2432002F0FAFD84
:1019B0002368186810BD00BF97C0000000F00F0337
:1019C00010F0800F10B51C460AD0082B04D9094925
:1019D0004FF4CC7002F0E6FD074800EBC40010BDE8
:1019E000082B04D903494FF4CF7002F0DBFD034804
:1019F000F3E700BF3BC00000A4070020EC07002075
:101A000070B50D460646FFF7D9FF044605604DB98F
:101A1000730604D105494FF4E17002F0C3FD0023C1
:101A2000636070BD6B681B68FAE700BF3BC00000D5
:101A3000024B0146D3E90002104700BFEC0700202B
:101A400038B5831EDBB2062B98BF1A4A1A4D98BFD1
:101A5000D25C2B78A3F10203DBB288BF0022062BF5
:101A60009ABF1449CB5C00239342044603D0B2B121
:101A7000124803F099FF022C14D0A4F1080042424E
:101A800042412B78022B0FD0A3F108014B424B416E
:101A9000934202D052B106F0A9FA2C7038BD03F07F
:101AA000BFFFE8E70122ECE70123F1E706F094FA33
:101AB000F3E700BFFCC000006809002048000020D8
:101AC0000378052B73B504460BD1344AD2F884341D
:101AD000D2F88024D2B222B9314ADBB2052B08BF3A
:101AE00014462378002B32D12E4B2F4E1D68C5B9DA
:101AF00028462E4D02F0B0FA2B6813B92C4B6288A1
:101B00001A800121294802F004FE002002F0B4FAF4
:101B1000284B1B6813B10121204698472B6802B05F
:101B200070BD2B6823B931464FF48D7002F03AFD39
:101B30002B689B6823B9314640F21B1002F032FD3E
:101B40002B6860889B6898472B685D68CFE71A48C8
:101B500001A902F046FD05460028E0D02368036095
:101B6000002002F079FA124B10481B8802680133FA
:101B70009B1AEB80002102F0A9FDA880002002F052
:101B80007BFA01A90C4802F056FD0A4B1B6801467E
:101B9000002BC4D020469847C1E700BF0070024028
:101BA00014C100005C0900203BC000006409002053
:101BB000340800209807002040090020FFF780BF6C
:101BC000012805D0022805D030B90648FFF778BFB4
:101BD0000548FBE70548F9E7054940F2622002F0B5
:101BE000E1BC00BF0CC1000008C1000010C1000032
:101BF0003BC0000008B520B1044940F27B2002F050
:101C0000D1FCBDE808400248FFF75ABF3BC00000C6
:101C100018C100002DE9F04F87B000260546884620
:101C200091461F4602966B6800225C682946012394
:101C300002A8A047044638B98DF8060004908246F1
:101C4000564503D8052028E00136ECE76B680DF116
:101C50000602D3F804B02946012304A8D8476B68CC
:101C60000DF10702D3F804B02946012304A8D84790
:101C70009DF8073043459DF8063013D14C450FD1F0
:101C8000109A13603B7087F801806A68023B5468C1
:101C90002946BA1C04A8A047002007B0BDE8F08F71
:101CA0000134E4B26A68023BD2F804B0294600224B
:101CB00004A8D8479DF806309A44C1E7014B18881C
:101CC000704700BF50090020F7B5054603F00CFE31
:101CD00020B9304940F2313002F064FC2E492F48DF
:101CE00008234FF4847202F069FC002850D12C487C
:101CF00006F0BCF90446002834D12A4B18702A4B50
:101D000018602A4B014618604822294809F081FBD7
:101D100028484822214609F07CFB274B2DBBC3E90C
:101D200000551D72002003F09FFE30B1852804D0BD
:101D3000184A40F25F31FFF737FB204F0025294654
:101D40003846FFF7F7FD0135EDB20446F0B90B2335
:101D50001A488DF8043001A9FFF700FE044608B1C7
:101D600005F0FEFF204603B0F0BD95E8070083E8CC
:101D70000700D7E700783946FFF742FEF1B2204668
:101D8000FFF7C4FD01360028F4D1D8E70026F5E7B7
:101D90000324E7E73BC0000036080020400900208C
:101DA000BD1B0000680900205409002058090020CC
:101DB000A4070020EC0700209807002090C1000035
:101DC00010B506F0B7F810B90823184610BD06F094
:101DD000B9F804460028F7D1064803F060FE034630
:101DE0000028F2D0044A40F2C231FFF7DDFA234660
:101DF000EBE700BF04C100003BC0000005F0C6BF18
:101E000008B506F0A9F820B1044940F2D13002F03B
:101E1000C9FBBDE8084006F06DBE00BF3BC0000036
:101E200008B506F08FF820B90A494FF4767002F031
:101E3000B9FB4FF08043D3F83824920704D5BDE8AE
:101E400008400548FFF73CBED3F83824D107F2D448
:101E500008BD00BF3BC000001DC1000007B58223C4
:101E600001A88DF80430FFF72BFE03B05DF804FBEA
:101E7000F7B5044620B9384940F26A5002F092FBA7
:101E8000636823B9344940F26B5002F08BFB6368FE
:101E90001B6823B9304940F26C5002F083FB236881
:101EA0001B6823B12C4940F26D5002F07BFB06F019
:101EB00049F830B1284940F2715002F073FB002616
:101EC00013E006F037F80028F9D1F3E70078FFF7C0
:101ED00075FD0368013713B1112023E00027F9B223
:101EE0002846FFF713FD0028F0D131462046FFF7C2
:101EF00021FD0136F6B205460028EFD129462046DD
:101F0000FFF718FD0135EDB20646C8B9134D124E64
:101F10002B68BBB92C600B2301A920468DF8043037
:101F2000FFF71CFD03B0F0BD00782146FFF768FD08
:101F3000F9B23046FFF7EAFC01370028F4D1DDE7BB
:101F40000027F5E7A34204D1314640F2975002F052
:101F500029FB2B681D68DBE73BC00000540900200B
:101F6000024B1878003818BF012070476009002024
:101F7000030710B5044604D406F07AFB204606F0A9
:101F80008BFE2046BDE8104006F032BE06F0FABDDA
:101F9000014B1868704700BF540900202DE9F84331
:101FA0000F4B1C6806460D46BCB194F808904FF0E4
:101FB00000085FFA88F7B94504D82046FFF7F0FC1F
:101FC0000446F1E739462046FFF7B4FC0378B342F4
:101FD00008F10108EDD105B12F702046BDE8F88366
:101FE000540900201146FFF7B9BC07B500F00F03F4
:101FF000082B019109D8FFF7E1FC006828B101998D
:1020000003B05DF804EBFFF7A9BC102003B05DF846
:1020100004FB000038B5074B1C68054604B938BD01
:1020200029462046FFF79AFC2046FFF7B9FC0446F4
:10203000F4E700BF5409002038B5084B1C6805467A
:102040000CB9062038BD29462046FFF787FC062834
:10205000F8D12046FFF7A4FC0446F1E7540900201C
:1020600013B50446019106F04EF850B1064B1B78AB
:10207000022B06D10199204602B0BDE8104006F0BF
:1020800049B8082002B010BD6809002013B5044605
:10209000019106F038F850B1064B1B78022B06D19F
:1020A0000199204602B0BDE8104006F0BDB80820F6
:1020B00002B010BD6809002043689B6870B50546F2
:1020C0000E4614469BB92B7AB34204D20F4940F214
:1020D000F92002F067FAB4B931462846FFF72AFC26
:1020E00046780546E1B2B14205D3002002E09847A8
:1020F0000628E8D070BD2846FFF708FC0078FFF7F7
:1021000037FF0134EEE70720F4E700BF3BC00000D3
:102110004368DB6870B504460D4603B19847237ADF
:10212000AB4204D20B494FF4467002F03BFA294609
:102130002046FFF7FFFB467804460025E9B28E42B1
:1021400000D870BD2046FFF7E1FB007806F01AFDCD
:102150000135F3E73BC0000043681B6903B1184732
:1021600018467047F8B50D4B0D4E1C6804B9F8BD04
:10217000277A0025E9B28F4204D82046FFF710FCE9
:102180000446F3E700222046FFF796FF20B13146D0
:1021900040F26A7002F006FA0135EBE754090020BC
:1021A0003BC00000094B70B51C6804B970BD267AAD
:1021B0000025E9B28E42204603D8FFF7F1FB044622
:1021C000F3E7FFF7A5FF0135F3E700BF540900204F
:1021D00038B5944B1B68044623B9934940F2254017
:1021E00002F0E0F901F058FF052804D88E4940F2CA
:1021F0002C4002F0D7F923780F2B13D9A3F18002DA
:1022000083F08003052B06D9BDE83840864940F2AB
:10221000265002F0C7B9052AF6D8DFE802F05C299B
:102220003E6871D30F2BEFD801A252F823F000BF04
:102230001F23000053230000B32300007723000076
:1022400095230000C5230000D723000009220000C9
:10225000192400001D240000212400000922000090
:10226000092200000922000009220000CF230000FB
:102270006E48FFF7DDFB6D48FFF7CCFE0D20FFF742
:102280003DFBFFF78FFF00F0EAF9012005F020FE8B
:102290000120BDE83840FFF7D3BBFFF783FF06F00E
:1022A000FBFB0020FFF7CCFB6148FFF7B3FE604863
:1022B000FFF7BEFB0E20FFF721FB5E4B1B78023BB6
:1022C000DBB2062B3DD85C4AD35C002B39D0BDE88D
:1022D000384003F0A5BB574B1B78062B05D003F005
:1022E000FD03052B2DD10220D3E70820D1E7514B68
:1022F0001B78032B25D106F01FFC10B30420C8E780
:102300004C4B1B78032B05D106F016FC10B10420B2
:10231000FFF796FB05F02EFE98B10620B9E7474B74
:1023200062881A80434B1B78032B01D0082B02D103
:102330004348FFF74DFF0020FFF7E0FA414B1D68CF
:1023400005B938BD28462146FFF708FB2B685D68B4
:10235000F6E7FFF727FF00F079F90220FFF770FB9F
:102360000120FFF7CBFA2046FFF762FB2046BDE8CD
:102370003840FFF74FBE2F4B1B78082B06D10220A9
:10238000FFF75EFB05F03CFE0320EAE70520FFF7C0
:1023900057FBF9E70320FFF7B1FA2B48FFF748FB9B
:1023A0002948FFF737FE234B1B78062B9BD10720CC
:1023B0006FE70320FFF744FB0220FFF79FFA204658
:1023C000FFF728FE2046BDE83840FFF731BB0F205D
:1023D000FFF794FACAE7A078FFF7F0FA036805461A
:1023E00023B9114940F2025002F0DCF86B6823B9BE
:1023F0000D4940F2035002F0D5F86B682868214679
:10240000984700289DD0A07802079AD0030798D457
:10241000BDE8384006F0F4B80820D9E70920D7E72E
:102420000A20D5E7540900203BC000001CC1000071
:102430001BC1000068090020FCC0000050090020FA
:102440001AC100005809002019C1000073B5224EBE
:1024500000230193336823B92049214802F0FBF897
:1024600030603468ECB1A58885B1E388B3F5006FBE
:1024700024BF0023E380E388ADF806305A1C013DF9
:10248000E280A58001A8FFF7A3FE07E02046FFF742
:102490009FFE1249124802F009F93560012002B08E
:1024A00070BD104B18680028F9D0204601F0D4FD0B
:1024B0000D4B0C481A88B2F5006F28BF1C801A8893
:1024C000ADF80620511C1980012102F03AF90020D4
:1024D00001F0D2FDD6E700BF6C0900209407002070
:1024E00040090020640900203408002000207047C3
:1024F00010B5044620B9044940F2432002F052F8D6
:102500002368186810BD00BF97C000002DE9F04F88
:102510002DED028B4B6885B007460C4691466BB992
:102520000868FFF7E5FF48B9A5683DB9C7E9005558
:10253000284605B0BDEC028BBDE8F08FB9F1400F25
:1025400004D9354940F2971002F02CF805F0B6FE98
:10255000E36801904B4528BF4B46984604F11003B1
:102560004FF0000A08EE103A56460125B8F1000F68
:102570002DD0A368616843459B4628BFC34651B32D
:10258000019B5A46981908F01BFF00236360A3685B
:10259000E268A3EB0B03A2EB0B02A360E260A8EBE3
:1025A0000B085E4433B9BAF1000F03D02068FFF77F
:1025B0009FFF2060E368002B2CD0A368002BD5D1AF
:1025C0002268BAB9626016B1B14588BF0025019B87
:1025D000C7E90036ACE7002BD9D02168019A4B68D7
:1025E00018EE100AD3F804A032445B46D0474FF0EF
:1025F000010ACCE7029321684B680022D3F804B0AB
:1026000002A80123D84708B92061AFE7A3680133C6
:10261000A360F0E71D46A9E71EC10000084B1A7829
:1026200082420CD0052818BF064A187018BF1378CC
:1026300005481CBF23F002031370FFF7C9BD7047A4
:102640007C09002098090020A0C1000008B50020E6
:10265000FFF78EFCBDE808408020FFF789BC08B575
:102660000020FFF793FCBDE808408020FFF78EBCF8
:1026700038B505460C4606F08BF8A84205BFD4E9EC
:102680000001034B1020C3E9000108BF002038BD42
:102690009C0900207FB5C38893421E4628BF16467A
:1026A00093420D46144620D9802005F027FDB4FB47
:1026B000F0F202FB1044B4FA84F46409002003949D
:1026C000CDE9015601F0C8FC01A98020FFF7C8FC44
:1026D000044620B906498020FFF7CAFF04460020BF
:1026E00001F0CAFC204604B070BD0024E6E700BF3C
:1026F000D4C100002DE9F04F0B780E2B89B00446B1
:102700000D4613D8A3B1013B0D2B11D8DFE813F010
:1027100012002400160010003500340210001000D2
:10272000100010000902140221022902852B1ED07C
:10273000062418E00320FFF771FFF9E7A34802F031
:1027400011F830B1A24B0122DA65BFF36F8FBFF3EE
:102750004F8FA04B1C780CB1002404E09E4940F23E
:10276000424001F01FFF204609B0BDE8F08F994BB1
:102770001B78032BDCD10420DDE705230DF11500C8
:102780008DF8143005F098FF9DF81570934D0023D7
:1027900007F01F072B60032F00F28181DFE817F09D
:1027A00004002E017601D10024B98B494FF45A70F0
:1027B00001F0F8FE9DF8152012F0600FC2F34111F0
:1027C00040F0BF80D2099DF8163000F0AB80062B98
:1027D00011D0082B00F09980002B40F0B280804986
:1027E0004B70804B0A701B78980744BF03230B7013
:1027F00002227B490FE09DF81830022B11D0032BE9
:1028000075D0012B40F09D80BDF81B30002B00F0EF
:10281000AC80754912220DF11500FFF73BFF04460D
:102820003BE0BDF81B30002B00F09F80092B28BF38
:1028300009239846FFF7ACFBDFF89CA106464FF052
:1028400009097EBB664C69494246204608F0B8FD3E
:102850002771A4F80290FFF783FB18B1E37943F0E6
:102860002003E371FFF794FB614BC3E90004C3F855
:102870000880BDF81B20DA60002001F0EDFB5D4907
:102880008020FFF703FC044620B95B498020FFF756
:10289000EFFE0446002001F0EFFB062C51D0002C87
:1028A00063D05AE0736823B9514640F2D12001F059
:1028B00079FE73685B6823B9514640F2D22001F07B
:1028C00071FE0024039473680022D3F804B03146EB
:1028D000012303A8D84740B9337A30461F44FFF795
:1028E00007FEA144FFB20646ABE70134EBE7BDF8B3
:1028F0001B30002B39D0BDF819109DF8170001F0DE
:102900006DFB0146E8B1027885E7324B1B78052B59
:1029100003D1334B1A7001226BE7042B11D1304BDA
:102920001970F8E7013B082B0BD8DFE803F02B0AFE
:102930000E0A050A0A0A380027494FF4637001F0AD
:1029400031FE05A8FFF778FB9EE0BDF81730012B9C
:10295000F7D1FFF705FB18B90F2405F00FFF02E7C9
:10296000204A137843F0020313702C68002C00F007
:10297000228105F00DFF044600287FF4EDAE05F03E
:10298000BDFEF0E6BDF81730012BDAD1FFF7E8FA0B
:102990000028E1D0134A137823F00203E4E70D4B3B
:1029A0001B78043B012B01D90824D6E79DF817308A
:1029B0002BB9FFF7F7FB0420FFF730FED5E7012B1B
:1029C0005BD1FFF7CFFB0520F6E700BFA40900208D
:1029D000007002407C0900201EC100009C090020FC
:1029E000A809002098090020C0C10000A1C1000072
:1029F00080090020DCC10000D4C100009DF819004E
:102A000003A9FFF7CBFA074608B91024A5E79DF8FC
:102A10000C1005AAFFF7E6FA062804467FF43FAF3C
:102A20009DF8152012F0600F97D1654B9DF80C10A2
:102A30001E789DF81630D20916D07BB10A2B8CD1A6
:102A4000052EB1D138460192FFF786FB5D49019A08
:102A500008700DF11500FFF71DFE15E0052EA3D13E
:102A600058490B800222F4E70B2B7FF476AF052E3A
:102A70009AD1BDF81730FF2B01D907246DE79DF8D7
:102A800017203846FFF718FB044608E79DF81900A1
:102A9000020706D19DF8153013F0600F09D0062407
:102AA0005BE705A9FFF7A1FA062804467FF4F7AE15
:102AB000F0E79DF81620424B9DF819401B78012A3B
:102AC0001DD0032A0CD0002AE9D1052B02D0230700
:102AD0007FF46AAF204605F0ADFD3A490880C1E7B2
:102AE0002707DCD4BDF81720002AD8D12607D6D076
:102AF000052B7FF459AF204605F082FD35E720070E
:102B0000CDD4BDF81720002AC9D12107C7D0052B85
:102B10007FF44AAF204605F0ABFD204606F0BCF836
:102B200023E7274B1B78002B3FF416AE264940F2D3
:102B3000564001F037FD0FE6214B1B78012B04D0E6
:102B4000214940F25C4001F02DFD0020FFF766FDB9
:102B500002E64FF08043D3F83834DA070AD5022072
:102B6000F4E7174B1B78012B04D817494FF48E60FC
:102B700001F018FD0120E9E7CB78032B3FF4D8AD35
:102B80008B785B0604D0104940F27E4001F00AFDCC
:102B90000E4E336893B100227168E878326098472E
:102BA000044600287FF4D9AE336823B1AB78002BFC
:102BB0007FF4D2ADE3E605F0D7FDD4E50E24CCE6F4
:102BC0007C090020A80900201EC100009C090020EB
:102BD00008B1402303600148704700BFA8090020E6
:102BE0000068704738B50D46044620B906494FF4D1
:102BF000887001F0D7FC237AAB4283BF093405EB20
:102C000045056019002038BDE4C1000038B50D4607
:102C1000044620B9064940F2431001F0C3FC637832
:102C2000AB4283BFA07840190019002038BD00BF17
:102C3000E4C1000008B50021FFF7D4FF0021FFF731
:102C4000E5FF007808BD08B50021FFF7CBFF0121A3
:102C5000FFF7DCFF007808BD2DE9F843DFF880823C
:102C600099460B7A88F800300E461746054620B97B
:102C7000964940F6DC0001F095FC2C6854B3A4F6AC
:102C8000E304202C00F21D81202C00F21A81DFE8E1
:102C900014F03600420018011801180118015500FF
:102CA00061006F007B0088009500A10018011801E9
:102CB000180118011801180118011801180118014C
:102CC000C000CC00180118011801DE00EA00F6006F
:102CD00002010E017E4B1C707D4B1A7898F8003073
:102CE0009A4202D340F6081305E00923A1452B714F
:102CF00006D840F6E3032B600120BDE8F8830024EA
:102D00000FB12B793B55013404234C452B7103D370
:102D100040F6E403EFE700240FB12B793B556C4BF1
:102D200030461978FFF75EFF6A4B013418604C4556
:102D300003782B7103D340F6E903DCE700240FB1DD
:102D40002B793B55013400234C452B7103D340F6BE
:102D5000EA03D0E700240FB12B793B555D4B1B688C
:102D600001345B782B714C4503D340F6EB03C2E78B
:102D700000240FB12B793B55013408234C452B71AE
:102D800003D340F6EC03B6E700240FB12B793B5593
:102D9000013496F828302B714C4503D340F6ED03EF
:102DA000A9E700240FB12B793B55013496F829305F
:102DB0002B714C4503D340F6EE039CE700240FB182
:102DC0002B793B55013400234C452B7103D340F63E
:102DD000EF0390E700240FB12B793B553D4B1B6867
:102DE0005A783D4B1A703D4B002201341A703B4B10
:102DF0001A78394B1B789A4204D3354A1378013339
:102E0000137069E70723A1452B7103D840F6FA0335
:102E100071E700240FB12B793B55013405234C4554
:102E20002B7103D340F6FB0365E700240FB12B7928
:102E30003B552A4B1978274B1868FFF7E7FE0134FA
:102E400003782B714C4503D340F6FF0353E700246E
:102E50000FB12B793B55013402234C452B7103D321
:102E60004FF4106347E700240FB12B793B55013431
:102E700040234C452B7103D340F601133BE700245C
:102E80000FB12B793B55013400234C452B7103D3F3
:102E900040F602132FE700240FB12B793B55013484
:102EA00000234C452B7103D340F6031323E7002482
:102EB0000FB12B793B55094A137801330134137054
:102EC00095E700232B60184617E700BF26C20000D5
:102ED000E9090020EC090020E8090020EB090020A6
:102EE000EA09002010B5044618B906498E2001F001
:102EF00059FB23681BB903498F2001F053FB20685D
:102F00000C3010BD26C2000003681B6937B50446AB
:102F10000D4633B9074901924FF4A37001F042FB0B
:102F2000019A23681B692946204603B0BDE830405A
:102F3000184700BF90C2000003685B6910B50446E3
:102F400023B905494FF4AA7001F02CFB23682046F1
:102F50005B69BDE81040184790C2000003685B68D9
:102F600010B504461BB90549FD2001F01BFB236881
:102F700020465B68BDE81040184700BF90C20000C3
:102F800038B50546FFF7AEFF0446002001F064F8AF
:102F900094F8312094F832309A4204D30C494FF41B
:102FA000897001F0FFFA94F83120AB699A4204D39A
:102FB000074940F2131001F0F5FA94F8313001336B
:102FC00084F83130BDE83840002001F055B800BF2A
:102FD00026C2000070B50546FFF784FF06460020B4
:102FE00001F03AF82846FFF77DFF90F831402CB108
:102FF000D5E9044296F8303002FB0344002001F08A
:103000003BF8204670BD38B50446FFF76BFF054618
:10301000002001F021F82046FFF764FFA16990F835
:1030200032308B4215D295F8322095F83030134467
:10303000B3FBF1F001FB1033D4E90441DBB2013200
:1030400001FB034485F83220002001F015F82046EA
:1030500038BD0024F8E7000038B50546FFF742FF09
:103060000446002000F0F8FF94F8313023B91349EA
:103070004FF4A37001F096FA94F8323023B90F4957
:1030800040F2471001F08EFA94F83130013B84F899
:10309000313094F83230013B84F8323094F83030DB
:1030A000AA690133B3FBF2F102FB113384F830302B
:1030B000BDE83840002000F0DFBF00BF26C200009E
:1030C0000149822001F06EBA26C200002DE9FF41BD
:1030D000884617461E46044608B9FFF7F1FF20460A
:1030E000FFF700FF05462046FFF7A4FD002301A9D6
:1030F000CDE901870393FEF7B3FF00B92E7004B04A
:10310000BDE8F0817FB5044608B9FFF7D9FF204636
:10311000FFF7E8FE05462046FFF795FD1F266B1CCE
:10312000044600211846324608F073F90023CDE921
:10313000010601A920460393FEF792FF08B9022376
:103140002B7004B070BDF8B50F46044608B9FFF700
:10315000B7FF2046FFF7C6FE06462046FFF76AFD8A
:1031600005462046FFF76FFD0446284605F048FA5D
:10317000204605F045FA284605F0E4FB204605F018
:10318000E1FB3770F8BD38B5856804460DB9FFF727
:1031900097FF2846FFF7A6FE6368026D5968436CE7
:1031A0000A440265826C4B43934294BFD21A0022B8
:1031B0008264C26C0021934294BFD31A0B46C3644D
:1031C00080F8541038BD7FB50E46054608B9FFF7A4
:1031D00077FF2846FFF786FE04462846FFF72AFDBC
:1031E000E36CA26B84F82C60934238BF13461A0A32
:1031F00084F8283084F829201A0C1B0E84F82B3010
:1032000004F1200384F82A2001930D22002301A950
:10321000CDE90223FEF724FF08B90623237004B08A
:1032200070BD10B5044608B9FFF74AFF2046FFF706
:1032300059FE0930FFF7D4FC28B920460121BDE82A
:103240001040FFF7C0BF20460721FFF77CFF00209A
:1032500010BD00002DE9FF41044608B9FFF730FF1B
:103260002046FFF73FFE90F83C3005461BB100209A
:1032700004B0BDE8F081436B002BF8D02046FFF787
:1032800031FEA36990F832209A42F0D22046FFF72F
:10329000BAFE6B6B6269934228BF13469846064696
:1032A00020B90E4940F2D13001F07CF9012385F8B4
:1032B0003C302046FFF716FE07462046FFF7C3FCCA
:1032C000002401A9CDE901680394FEF7C9FE10B9F5
:1032D00005233B70CCE785F83C40C9E726C20000D7
:1032E0002DE9FF41054608B9FFF7EAFE2846FFF73A
:1032F000F9FD90F8543004461BB1002004B0BDE83D
:10330000F08190F85530002B55D1836C002BF4D010
:103310002846FFF7E7FDAB6990F832209A42ECD2DD
:10332000EB69A27BA76C53F822802846FFF7DAFDF1
:103330006E69436CB74228BF374628467E1E1E443E
:10334000B6FBF3F6FFF75FFE054620B91B4940F2D6
:10335000AF3001F027F9236D0395CDE90136012344
:1033600084F85430D8F800309B6823B914494FF4DE
:10337000897001F017F9D8F800305B6923B910495A
:1033800040F2131001F00EF9D8F80030019D5B698E
:103390004046984703689D420BD2D8F8003001A9F7
:1033A0009B68404698470028A8D0002384F85430F2
:1033B000A4E70720F9E70620A0E700BF26C2000027
:1033C00090C2000038B5D36C0546144623B9BDE859
:1033D00038400121FFF7F7BE936C23B92846BDE8BA
:1033E0003840FFF71EBF92F90D30002BF6DA084681
:1033F000FFF778FD0023038680F83230D4E91223EA
:103400009A4288BFA364A363A36C636388BF02224C
:103410004FF0000388BF84F82C2084F83C3084F8F7
:1034200054302846FFF75CFF044610B12846FFF7EA
:10343000F8FE204638BD00002DE9FF41054608B9D9
:10344000FFF73EFE2846FFF74DFD90F85430044646
:1034500023B10025284604B0BDE8F08190F855302E
:10346000002B68D1836C002B52D02846FFF73AFD21
:1034700090F83130002BECD0EB69A27BA76C53F8AD
:1034800022802846FFF72EFD6E69436CB74228BFA5
:10349000374628467E1E1E44B6FBF3F6FFF79AFD1C
:1034A000054620B9254940F2F53001F07BF8236D3F
:1034B0000395CDE90136012384F85430D8F8003063
:1034C000DB6823B91E494FF4977001F06BF8D8F808
:1034D00000305B6923B91A4940F22F1001F062F8FD
:1034E000D8F80030019D5B694046984703689D42CB
:1034F0000CD2D8F8003001A9DB6840469847054651
:103500000028A7D0002384F85430A3E70725F9E763
:103510000378052B9DD1C36C6BB990F82C1028460D
:10352000FFF751FE0546002894D0044940F20D40B3
:1035300001F038F88EE706258CE700BF26C20000B0
:1035400090C2000073B5044608B9FFF7B9FD2046E4
:10355000FFF7C8FC90F83C3005461BB1002420461C
:1035600002B070BD90F83D30002B3BD1436B33B3BC
:103570002046FFF7B7FC90F83130002BEED0204604
:10358000FFF728FD6A6B63699A4228BF1A46064610
:1035900030B91549019240F27F3001F003F8019AE9
:1035A000012385F83C30204604233146FFF78EFD89
:1035B00004460028D3D0002385F83C30CFE70378B9
:1035C000042BCBD1836B6BB990F82C102046FFF7FE
:1035D000FAFD04460028C2D003494FF4647000F09D
:1035E000E1FFBCE70624BAE726C200000B78022BF5
:1035F00070B50C4602D0032B29D070BD002000F01E
:103600002BFDA5680DB9FFF75BFD2846FFF76AFCA7
:1036100006462846FFF7B4FC637853B92046FFF707
:10362000B2FD2846FFF78EFF38B12846FFF7F9FDB7
:1036300008E0012386F83D30F3E72846FFF750FE07
:103640000028F2D1BDE87040002000F015BD002038
:1036500000F002FDA5680DB9FFF732FD2846FFF71F
:10366000FBFC63785BB92046FFF78DFD2846FFF72A
:10367000F1FD0028D9D12846FFF7DEFEE0E7284615
:10368000FFF7CFFDF2E738B5D36C0546144623B9F2
:10369000BDE838400121FFF796BD936C23B9284659
:1036A000BDE83840FFF7BDBD92F90D30002BF6DBC9
:1036B0000846FFF717FC0023038680F83230D4E970
:1036C00012239A4288BFA364A363A36C636388BF79
:1036D00002224FF0000388BF84F82C2084F83C308D
:1036E00084F854302846FFF7B5FD044610B128464B
:1036F000FFF797FD204638BD2DE9F04F0E4685B007
:10370000054628BB94494FF4046000F04BFF2EB9E6
:10371000914940F6410000F045FF0DB9FFF7D0FC9C
:103720002846FFF7DFFB337807460E2B2FD8DFE85C
:1037300013F0190012008F0319002E001E00E20082
:103740002E002E002E002E0091031900AC03E90379
:103750000029E5D1DCE70D22002107F05AFE7F4B5E
:103760001B683B620024204605B0BDE8F08F25B9F8
:10377000794940F2213000F015FF7278D1094FEA03
:1037800052134ED013F0030303D0012B26D006248E
:10379000E9E702F01F02012AF9D1B478062CF6D12C
:1037A00003A80293FFF714FA02AB0093F278317981
:1037B000034607462846FEF72DFA0528D3D0029B7C
:1037C0003F2B04D964494FF4187000F0EBFE029AC5
:1037D0003946701CFEF75EFF0446C4E70DB9FFF7DB
:1037E0006FFCB378FE2BD2D1B6F80330002BCED1CC
:1037F000B6F80730012BCAD103A8FFF7E9F92B6A05
:10380000044623B9544940F2CE2000F0CBFE2B6A87
:10381000013B23802846FFF775FC01222146B018A2
:10382000D8E74BB3012BB2D10DB9FFF749FC2846BD
:10383000FFF758FBB378FF2B0746A8D1B6F8033043
:10384000002BA4D1B6F80740002CA0D12846FFF7E2
:10385000F1F980462846FFF7F6F90646404605F09E
:1038600071F8304605F06EF83B78022B3FF47AAFE2
:103870002846FFF747FC76E70DB9FFF721FC2846FD
:10388000FFF730FB747804F01F04022C07467FF426
:103890007EAF96F80280B8F1010F7FF478AFB6F8EA
:1038A0000330002B7FF473AF0378082B00F05F83A5
:1038B0007679304604F0DCFE304605F0EDF933064B
:1038C0007FF550AF3B78072B09D0092B7FF44AAF27
:1038D0002846FFF7B8F905F0DFF9214605E028464C
:1038E000FFF7B1F905F0D8F94146284605B0BDE823
:1038F000F04FFFF768BC96F90230002B67DA0DB97C
:10390000FFF7DEFB2846FFF7EDFA03A90446B0787F
:1039100004F0D8FC08B100230393F378002B7FF464
:1039200021AF2378033B042B4FD801A252F823F098
:103930004539000061390000653700006537000037
:103940008F370000E36C039A9B1AE364002128463A
:10395000FFF739FC40E700BF26C20000D1C20000DB
:10396000039E0DB9FFF7ACFB2846FFF7BBFA6A6967
:10397000436B934228BF13469E42044604D0C0497D
:1039800040F24C7000F00EFE626B0023964284F809
:103990003C3098BF931B6363A36B9E4294BF9B1BF9
:1039A0000023A3632846FFF757FB2846FFF7CAFD0D
:1039B000044630B92846FFF793FC044600283FF43C
:1039C000D1AE2846FFF72DFCCDE60324CBE60DB99A
:1039D000FFF776FB2846FFF785FA02A90446B07880
:1039E00004F070FC08B100230293F278012A0CD194
:1039F0002378052B3FF4B6AE062B02D0012B7FF4C3
:103A0000B1AE2846FFF77EFBE6E6032A02D101238A
:103A10002370A7E6022A237808D1052B04D10921B7
:103A20002846FFF790FB9DE60821F9E7023B052BAE
:103A300000F2FC8101A252F823F000BF553A0000C9
:103A40002D3E00002D3E0000C13D00006537000006
:103A50008F3700000DB9FFF733FB2846FFF742FA16
:103A60000446002128223030002607F0D2FC66628E
:103A70002846FFF7E8F803A904F024FC00B10396F8
:103A8000039B1F2BD0D17F490422601C07F00AFC46
:103A900001460028C8D1D4F80530A67B636204F142
:103AA000090284F82C0084F840601046FFF798F86B
:103AB0002B6AE0649E4203D32846FFF7B2FB8BE6F5
:103AC000237C2A2B5ED8112B08D80A2B3ED910460E
:103AD000FFF786F80028EFD1012138E7123B182BB9
:103AE000F5D801A151F823F0893C0000CF3A00003D
:103AF000CF3A00004D390000CF3A0000CF3A000025
:103B0000CF3A0000CF3A0000033D00004D390000DD
:103B1000CF3A00004D390000D93A0000CF3A0000FA
:103B2000CF3A0000CF3A0000CF3A0000CF3A000071
:103B3000CF3A0000333D0000CF3A0000CF3A0000FA
:103B4000693D0000CF3A0000953D00000A2BBED829
:103B500001A151F823F000BFB33B0000CF3A0000B1
:103B6000CF3A0000C93B0000B93A0000CF3A00004C
:103B7000CF3A0000CF3A00000D3C0000CF3A0000E1
:103B8000473C0000552B3FF4E1AE5A2B9FD1E37B1D
:103B9000092B91D91046FFF723F8042802468BD849
:103BA0000623A165E16584F8593084F85810032391
:103BB000BCE01046FFF714F800287FF47DAFE37BEC
:103BC000062B3FF4C3AE77E7E37B052B7FF674AF9C
:103BD0001046FFF705F8122806463FF66DAF00289D
:103BE0003FF4B4AE04F1580712220021384607F022
:103BF00010FCF02384F858300B2384F85F303246F1
:103C0000032339462846FFF761FAE5E5E37B052BF8
:103C10007FF652AFEB6953F82600FFF78DF9637C0E
:103C2000628A4068217D60641B0452BA03F4F81371
:103C300092B2134341432365A16422462946284694
:103C4000FFF7C0FBC8E5E37B052B7FF635AFEB69DB
:103C500053F82600FFF770F9637C628A4068217D83
:103C600060641B0452BA03F4F81392B21343414345
:103C70002365A164224629462846FFF704FDABE5EB
:103C800026C2000006C30000A37C002B7FF414AF03
:103C90001046FEF7A5FF242807463FF60DAF002883
:103CA0003FF454AEB34AA265202284F85C20EA694E
:103CB000012152F82600039303AAFFF725F9039E7A
:103CC00004F1600004F1680804F1780986B13168F4
:103CD000082207F047FB71681022404607F042FBBC
:103CE000B1680422484607F03DFB03233A461DE035
:103CF0002666102246603146404607F08AFBA667DA
:103D0000F3E7E37B052B7FF6D7AE1046FEF768FF9F
:103D100004283FF6D1AE0022032384F8592084F80A
:103D20005A2084F85B2084F85830024604F1580188
:103D300068E7E37B092B7FF6BFAE1046FEF750FF26
:103D4000082807463FF6B8AE00283FF4FFADEB6900
:103D500053F82600FFF7F0F80368013B1BBAA36590
:103D600043681BBAE365C0E7E37B092B7FF6A4AE8B
:103D7000EB6953F82600FFF7DFF8B4F81730416815
:103D8000D4F8122061645BBA9BB212BA4B4322652D
:103D9000A36452E7E37B092B7FF68EAEEB6953F801
:103DA0002600FFF7C9F8B4F817304168D4F812209C
:103DB00061645BBA9BB212BA4B432265A36459E7B4
:103DC000002000F049F9029C0DB9FFF779F9284667
:103DD000FFF788F86B69426B934228BF13469C42F9
:103DE0001CBF012380F8553094424FF0000380F847
:103DF0003C3098BF131B4363836B9C4294BF1B1BD7
:103E0000002383632846FFF7BBF82846FFF722FA12
:103E1000044620B92846FFF70FFB044610B1284698
:103E2000FFF7FFF9002000F027F99CE4524940F623
:103E30002E0000F0B7FBAAE4EB69002253F824003F
:103E40001146FFF761F801342B6AA342F4D889E4E4
:103E50000024F9E70021032000F0C0F80446002800
:103E60003FF495AC0378192B4FEA53067FF68FACDD
:103E70000125B542BFF476AC34F8150007F002FA1C
:103E800000283FF484AC0135F3E72B6A102B04D9EA
:103E9000394940F6990000F085FB0026DFF8E08004
:103EA000DFF8E090DFF8D0A034462B6AB3427FF60B
:103EB0005AACEB6953F826B0DBF800301B681BB92D
:103EC0004146F02000F06EFBDBF800302A461B680C
:103ED000494658469847044690B9B7F87C200123D4
:103EE000B3401343A7F87C305846FFF725F86B69B9
:103EF00042689A4204D9514640F6A50000F052FBB0
:103F00000136D2E72B6A102B04D91B4940F6AF00CB
:103F100000F048FB194B0026344643F001082B6A99
:103F2000B3427FF620ACEB6953F826A05046FFF76A
:103F300015F84FF0FB090446112C0CD1B9F1010919
:103F400001D10136EBE74FF47A40C0475046FFF706
:103F500005F80446F0E7002CF3D1012303FA06F23A
:103F6000B7F87C3023EA0203A7F87C30E9E70F2496
:103F7000FFF7F9BB0080061226C2000000C3000054
:103F800090C20000ED350000F8B5124B53F82050F8
:103F90002B7813B9AE1C3046F8BD0020FEF718FE92
:103FA0000D4F0646013D002315F8012F5C1C2AB970
:103FB0006400E4B244F440743480ECE71E2B03D96F
:103FC0003946FC2000F0EEFAE3B22A7826F81320F6
:103FD000EAE700BFCCC300000AC30000034608B9EB
:103FE000FFF7D2BF012807D0022805D0032803D04D
:103FF000042801D0052809D1054800EB430358786F
:1040000020B1044B53F82030002BE9D10020704739
:10401000E4C30000CCC3000072B6024A1368013347
:1040200013607047F0090020034A1368013B1360D6
:1040300003B962B6704700BFF0090020EFF30583B3
:10404000C3F308032BB9EFF31480C04300F0010061
:10405000704701207047000008B5FFF7EFFF012807
:1040600003D00449432000F09DFABDE80840FFF763
:10407000D3BF00BFF0C3000008B5FFF7DFFF012882
:1040800003D00449512000F08DFABDE80840FFF745
:10409000CBBF00BFF0C30000EFF30583C3F30803F9
:1040A0008BB1103B5AB2002AABBF02F16043074A02
:1040B00003F5614303F00F03ACBF93F80003D05C3A
:1040C0004009C0B270470F20704700BF14ED00E0F8
:1040D00038B50C46054618B90449B32000F062FA19
:1040E0002B68C3F84843C3F8084338BD55C40000E3
:1040F00070B50C461646054618B90549A92000F0CA
:1041000051FA2B68C3F844430EB1C3F8044370BDA1
:1041100055C4000037B50C46054618B90749BA2002
:1041200000F040FA2B68185928B100221A511B5987
:104130000193019B012003B030BD00BF55C40000B6
:104140002DE9F8430F461546044618B93249552063
:1041500000F028FA1FB93049562000F023FA1DB9A3
:104160002D49572000F01EFA63792C4ADFF8D080E1
:1041700042F823502A4E2B4A08EBC303B61A1B7988
:10418000F60836043BB146F002002749FCF790FCE4
:104190000820BDE8F8833D88D4F80090B5F5805F2D
:1041A00004D322494FF4BE7000F0FCF9C9F8085559
:1041B000BF7894F90450072F03D91D496B2000F0F4
:1041C000F1F9002DB6BF1B4B05F1604505F00F0559
:1041D0004FEA4717FFB2AABF05F561455F5585F85D
:1041E000007394F90430002B08DB0122590903F015
:1041F0001F0302FA03F3104A42F82130637908EBF7
:10420000C3020121117146F003000C4948F8334004
:10421000FCF74EFC0020BCE755C40000FC09002060
:104220001CBB0000D4BA0000B1C40000D3C400001D
:1042300000C5000014ED00E000E100E02FC5000023
:10424000F409002010B5044618B90449872000F08D
:10425000A9F9236801221A6010BD00BF55C40000EF
:1042600010B5044618B904498D2000F09BF9236865
:1042700001225A6010BD00BF55C400002DE9F34172
:104280000C4616461F46804618B91249962000F083
:1042900089F904F150018900D8F8002089B24FF45F
:1042A0008035A5400023C2F80853C2F84853535044
:1042B00004F5A8745358019326F07F46019B42F8F9
:1042C0002460C2F844530FB1C2F8045302B0BDE8F1
:1042D000F08100BF55C400002DE9F74F0D4614468C
:1042E0009846074618B93949CD2000F05BF94FF4DC
:1042F000803909FA05F949463846FFF7E9FE3A6878
:1043000005F1500602EB8500B600B6B2D2F80415EE
:10431000D0F84035C0F840154FF0000B42F806B019
:104320005B1A9259009223F07F43012B009A24F0EC
:104330007F444FEA850A0BD1254B4FF4806043F050
:10434000010398473B6843F806B09B590193019BD2
:104350003868D0F80465C0F84493A31B23F07F436A
:10436000012B1AD11A4B05F5A875013440F82540E8
:1043700043F001034FF4806098473B68D3F804355D
:104380009E4208D1384601224946FFF7B1FE00207F
:1043900003B0BDE8F08F0D20FAE700EB0A03621EC0
:1043A000C3F84045D0F80415C8F1FF18521A22F09E
:1043B0007F4208F57F489045EDD3002AE2D10134D1
:1043C000C3F84045D0F804359942DAE755C40000F7
:1043D00050C500000A460221FFF78ABE4FF48271E1
:1043E000FFF798BE4FF4803303FA01F1FFF770BE78
:1043F0005031890089B2FFF78DBE036801F5A871BD
:1044000053F8210070470368D3F804057047000093
:1044100090F90430002B09DB5A09012103F01F0336
:1044200001FA03F34032024941F82230704700BFDD
:1044300000E100E0024B034A1B681068184700BF08
:10444000FC090020F40900201EF0040F1CBFEFF34C
:1044500009800AE0EFF308800549064A884201D83E
:10446000904202D88D464FF00000034B18470000E1
:104470000000042000E00320A1440000BFF34F8FA0
:104480000549064BCA6802F4E0621343CB60BFF3F0
:104490004F8F00BFFDE700BF00ED00E00400FA050C
:1044A0002DE9F3470546FCF767FBFCF79BF900286D
:1044B000FBD1304C3048314B241AE40824049F6A65
:1044C00044F00104002D4FD0AA692D492046FCF785
:1044D000F3FAEB680193AB682A4900932046D5E9CB
:1044E0000023FCF708FBEB6900932749D5E9042377
:1044F0002046FCF7F4FA214BDB6A990703D52349E0
:104500002046FCF7D5FADFF89490DFF894A0002657
:104510004FF0010808FA06F33B4206D059F826206E
:104520001AB151462046FCF7C7FA01361A2EF1D1CE
:104530003A0605D5114B16495A6B2046FCF7BCFAD2
:1045400017F4004F0D4E04D0B26B12492046FCF711
:10455000B3FAD6F8F030DB0700D500BE2846FFF7E7
:104560008DFF02B0BDE8F0870B492046FCF7A0FAAA
:10457000C1E700BF3CBB0000D4BA000000ED00E082
:1045800056C500006BC50000A0C50000FBC50000BB
:104590004AC600006AC60000C8C5000044CB00003F
:1045A0003FC6000007B5CDE900016A46002144F28C
:1045B0000200FCF707FF03B05DF804FB10B561B122
:1045C000B2FBF3F403FB1424A4B244B9C0E9001411
:1045D00084608281C381204610BD0E20FCE7092043
:1045E000FAE737B550E8013F9DB2C4892544848974
:1045F000A54228BF2D1B0489A54202BFBFF32F8F00
:10460000002207E0C5EA030540E80154002CE9D187
:104610004FF001028DF803200193019A0A609DF882
:10462000031001F0FF0321B1006810FA82F003B01B
:1046300030BD1846FBE70A884B889A4209D150E8FA
:10464000012FC2EA024240E80123002BF7D10120EA
:1046500070470020704737B550E8023F1FFAA3F5B6
:10466000C488A54202BFBFF32F8F00220DE0C4898A
:1046700025448489A54228BF2D1BC3EA054540E88F
:104680000254002CE8D14FF001028DF80320019371
:10469000019A0A609DF8031001F0FF0321B1006840
:1046A00000EB124003B030BD1846FBE70A884B8888
:1046B0009A4209D150E8022FC2EA224240E802237E
:1046C000002BF7D1012070470020704710B503463A
:1046D00053E8000F0A4643E8002494F0000FF7D196
:1046E00010BD10B5034653E8002F42EA010043E82D
:1046F000000494F0000FF6D110BD10B5034653E846
:10470000000F00EA010243E8002494F0000FF6D104
:1047100010BD10B5034653E8002F02EB010043E83B
:10472000000494F0000FF6D110BD10B5034653E815
:10473000002FA2EB010043E8000494F0000FF6D133
:1047400010BD10B5034653E8002F8A422CBF501A03
:10475000104643E8000494F0000FF4D110BD01218D
:10476000FFF7BFBF0021FFF7C8BF000010B5044628
:10477000002834D003681BB91A49FF20FFF712FF45
:10478000636823B917494FF48070FFF70BFFA368E4
:1047900023B9144940F20110FFF704FFE36823B97D
:1047A00010494FF48170FFF7FDFE238A23B90D49AC
:1047B00040F20310FFF7F6FED4E9012321689B1AAB
:1047C000DBB20A60013BDBB2FF2B226802D1002082
:1047D000107110BD1168481C10600B70F2E70E20BC
:1047E000F7E700BFACCB000038B5044620B911494B
:1047F0004FF49270FFF7D6FE0020FFF72DFC2268E1
:1048000063681168994213D9481E106011F8013C81
:10481000E568218A01FB0355A36811791B1ADBB2F5
:10482000994200D213710020FFF726FC284638BDBC
:104830000025F8E7ACCB000038B50C46054620B99A
:104840000E4940F24710FFF7ADFE24B90B494FF473
:10485000A470FFF7A7FE0020FFF7FEFB2A6813688D
:10486000591C1160E968641A298AB4FBF1F41C70C0
:10487000BDE838400020FFF7FFBB00BFACCB000015
:1048800019B1012905D00620704702B1117000202E
:10489000704712B104301060F9E70720704700003C
:1048A00010B5044618B90349FB20FFF77BFEA06949
:1048B00010BD00BF0CCC000030B50C4685B00546DD
:1048C00018B91149AC20FFF76DFE1CB90E49AD2097
:1048D000FFF768FED4E90031AA690B4411688B42E6
:1048E0000DD893686BB1D26802940321ADF804101F
:1048F0002846039201A99847002005B030BD10203A
:10490000FBE71846F9E700BF0CCC00007FB50D4669
:104910001646044618B90B494520FFF743FEA36924
:1049200022695A6062691A60C3E902563DB10023E8
:1049300001A92046CDE90236ADF80430A847002091
:1049400004B070BD0CCC00007FB50C46054618B90C
:1049500013497F20FFF726FE1CB911498020FFF77D
:1049600021FED4E90032AE69316813448B4213D87A
:104970007368A0685A43002106F04BFDB3686BB121
:104980000222ADF80420F26802942846039201A99D
:104990009847002004B070BD1020FBE71846F9E7E7
:1049A0000CCC000030B5044685B018B90C49642021
:1049B000FFF7F8FDA569AB684BB10122ADF8042003
:1049C00000220292EA68039201A920469847102229
:1049D0000021284606F01DFD002005B030BD00BFB7
:1049E0000CCC000010B5044620B9044940F22D302B
:1049F000FFF7D8FDE06A043010BD00BF98CC00007E
:104A00007FB5044620B9144940F2AB10FFF7CAFD48
:104A1000124E3368A3421DD1E56A2B78012BDAB21E
:104A200018D1EB6843B1ADF80420002202922A6944
:104A3000039201A92046984700242C7001F014FF2E
:104A400041F238022146284606F0E3FC3460204655
:104A500004B070BD1120FBE798CC0000000A0020D4
:104A60002DE9F0470F4686B09046054620B94649E5
:104A700040F22B10FFF796FD2A69D3B223B106242A
:104A8000204606B0BDE8F0874FF48053B3FBF2F345
:104A90005343B3F5805FF2D1DFF8F490D9F80030DA
:104AA000002B6FD13949EE6A2A4605F1180001F052
:104AB000A3FD04460028E3D1DFF8D8A0DAF800000F
:104AC000BAF8043001902246214601A8ADF808301A
:104AD00001F07EFE04460028D2D199230246014609
:104AE00001A88DF8043001F073FE04460028C7D1F8
:104AF0009AF808308DF802309F23BAF806208DF816
:104B000004300423ADF8002001466A460DEB030093
:104B10008DF8053001F05CFE04460028B0D16846EF
:104B200000F038FE0028AAD08368B3F5805FA6D1D4
:104B30002B694168B1FBF3F28B42A0D84FF480504F
:104B4000B0FBF3F0B2FBF0F400FB1424002C96D180
:104B5000C6E90123012333704FF0FF3333632B7D0C
:104B6000C9F8005003F00103C6E9037886F82D3038
:104B7000002F85D003A92846CDE90448ADF80C40A4
:104B8000B8477DE711247BE798CC0000ED4D00008D
:104B9000000A002008CD0000026B90F82E3010B4FF
:104BA00012037BB9436B93FAA3F30524816800F8E1
:104BB000384BB3FA83F34B435DF8044B1A44184463
:104BC00001F0AEBE04230370002380F82E305DF8A0
:104BD000044B1146184601F0FFBE00002DE9FF47C7
:104BE0000A68C46AD1F808A0A7684FF48055B5FBDD
:104BF000F7F5B2FBF5F905FB19294A68A5EB09059C
:104C0000954228BF154609FB07F96F43BB0780464D
:104C10000E4604D0334940F22120FFF7C3FCD8F8F8
:104C20002CC00CEB0902BB083432AAF1040A00279D
:104C30004FF0010E52F8041F5AF8040F81420ED0B3
:104C4000DCF834000131DCF80810B9FBF1F10EFAA0
:104C500001F141EA000118BF0127CCF83410DAF85D
:104C600000101160013B09F10409E3D117B10123E0
:104C700084F82E3033687768A268B1682B443360BB
:104C800094F82E307F1B02FB05117760B1604BB1A9
:104C90004FF48053B3FBF2F201239340626B013B6C
:104CA00013436363636B13B194F82D3013B1E3685E
:104CB00003B137B1D8F82C0004B0BDE8F047FFF7D6
:104CC0006BBF0322ADF8042004F1140202922269A2
:104CD000039201224046227001A99847384604B049
:104CE000BDE8F08798CC000070B50E461446054626
:104CF00020B9164940F2F320FFF754FC1EB1012EF3
:104D00001AD0062070BDED6A2B78012BDEB218D1C7
:104D100095F82D300BB16B6B1BB900207CB1207066
:104D2000F0E72846FFF738FF0028EBD104B12670E2
:104D3000012385F82C30E5E72CB1043525600020EF
:104D4000E0E71120DEE70720DCE700BF98CC000099
:104D5000F8B50D46064620B9224940F2D710FFF7B4
:104D600021FC25B91F494FF4EC70FFF71BFCD5E976
:104D70000032F46A1344626893422ED81A4B1B68BF
:104D8000B3422CD12378012BDFB228D195E807005C
:104D900004F1200383E8070095E8070004F11403F9
:104DA00083E807000223D4E908212370A368A06ADE
:104DB0005A43594301F0E2FD08B12770F8BDE3689A
:104DC000C4E90900002BF9D12378012BF6D0F26A4F
:104DD0001378012BF2D030BFFAE71020EEE7112054
:104DE000ECE700BF98CC0000000A00202DE9FF4747
:104DF000674B1B688B420D4673D1CC6A2278032A1D
:104E0000D3B200F0838005D8022B2AD0614940F24A
:104E100019108FE0043B012BF8D8616B91FAA1F3D4
:104E2000B3FA83F22378052B01BF012393404B4053
:104E30006363606B002840F09880636A002B7ED02B
:104E4000A368226A20465A43120B0323226300F808
:104E5000383B12034FF4805104B0BDE8F04701F035
:104E60008DBD94F82D306BB3D4F81480A668D4F8B7
:104E700030E006FB08F3BEEB133F4FEA133A21D3B1
:104E8000A76908EB070C0CFB06F3BEEB133F4FEAD8
:104E9000133917D8F2454FF48052E069B2FBF6F3AC
:104EA00004F1380120D1B8FBF3F203FB1288A3EB25
:104EB00008039F4228BF1F4606FB07F208FB0611A6
:104EC00006F07EFA01232370E36853B10222ADF8A5
:104ED000042004F1140202922269039201A92846D7
:104EE000984704B0BDE8F08703FB0EFAAAEB080868
:104EF000F14506FB0800E3D1BCFBF3F203FB12C350
:104F00009F4228BF1F4606FB07F2D9E7A268236A23
:104F10005343226BB2EB133F03D01E49CF20FFF760
:104F200041FB04F120012846FFF758FE0028D8D0A5
:104F30001849D32004B0BDE8F047FFF733BB012385
:104F40002370E3686BB194F82C2052B90322ADF8BA
:104F5000042004F1140202922269039201A9284656
:104F60009847002384F82C30BBE790FAA0F0052383
:104F7000A168226B04F8383BB0FA80F0484300EB9C
:104F80000232204404B0BDE8F04701F0C9BC00BFC4
:104F9000000A002098CC0000F8B50D46064620B95E
:104FA0002F4940F29620FFF7FDFA25B92C4940F22F
:104FB0009720FFF7F7FAD5E90032F46A13446268E4
:104FC000934248D8274B1B68B34246D12378012B24
:104FD00043D195E8070004F1200787E8070095E82A
:104FE000070004F1140383E80700A368226A5A4308
:104FF000236BB3EB123F4FEA123107D139463046EB
:10500000FFF7ECFDD8B101232370F8BD94F82D0013
:1050100038B1013305D0636B1BB1F06AFFF7BCFDFB
:10502000F0E72046032322F47F62216322F00F027F
:1050300000F8383B4FF4805101F0A0FCE2E7E36850
:10504000002BE2D12378012BDFD0F26A1378012BF9
:10505000DBD030BFFAE71020D7E71120D5E700BF3B
:1050600098CC0000000A002019B1012905D00620C3
:10507000704702B111700020704712B10430106007
:10508000F9E707207047000010B5044618B9034936
:10509000E320FFF787FAE06910BD00BF2CCD0000C8
:1050A0007FB50D461646044618B90C494220FFF755
:1050B00079FAE3692169A2695960B2FBF1F2C3E9A7
:1050C00002561A603DB1002301A92046CDE90236FF
:1050D000ADF80430A847002004B070BD2CCD00000E
:1050E0002DE9FF410C461746054618B91A497A20A2
:1050F000FFF758FA1CB918497B20FFF753FAD4E997
:105100000013EE693268C818904220D87268686946
:10511000022F02FB0100A16808BF844603FB02F2D4
:1051200004BF0846614606F04BF9B3684FF000082B
:105130007BB1F2688DF8047028468DF805800294E2
:10514000039201A99847404604B0BDE8F0811020C1
:10515000FAE71846F8E700BF2CCD00000322FFF75E
:10516000BFBF0222FFF7BCBF30B5044685B018B9F7
:105170000C496020FFF716FAE569AB684BB10122D4
:10518000ADF8042000220292EA68039201A92046A9
:10519000984710220021284606F03BF9002005B070
:1051A00030BD00BF2CCD000010B5044618B906492B
:1051B0003120FFF7F7F9A2682AB1636921682069F5
:1051C00098470023A36010BDB4CD00000EB433B5E2
:1051D000059D044618B911494220FFF7E3F96369B8
:1051E0001BB90E494320FFF7DDF923681BB90B49B2
:1051F0004420FFF7D7F963681BB908494520FFF73A
:10520000D1F935B106AB01AA29462046019300F039
:1052100079F802B0BDE8304003B07047B4CD00006B
:105220000A2938B504460D4602D10D21FFF7F8FFD3
:10523000A3682268591CA160D554D4E901329A426E
:1052400004D32046BDE83840FFF7AEBF38BD0000AC
:105250002DE9F84F9846DDE90A43154682460F4688
:105260000A464FF00109AA420FD2C14538BFC146D4
:1052700013F0010B01D16CB900240126B8F1010F24
:105280001BD908F1FF386E43F8E709F10109B2FBB9
:10529000F5F2E8E79B070ED5B8F1000F0CBF3026FA
:1052A0002026A145E9D2013C31465046FFF7B8FF20
:1052B000002CF6D1E0E72026F3E7B7FBF6F39D429A
:1052C000E1D9DFF83C80B7FBF6F3504618F803103D
:1052D00006FB1377FFF7A4FF3346AB42B6FBF5F6A8
:1052E000F1D2BBF1000F02D00CB1A14501D3BDE852
:1052F000F88F20215046013CFFF792FFF4E700BFF2
:1053000067CE00002DE9F74F88461746054620B9BD
:10531000AF4940F25220FFF745F96B6923B9AC4918
:105320004FF41570FFF73EF92B6823B9A84940F2F6
:105330005520FFF737F96B6823B9A54940F256208D
:10534000FFF730F9B8F1000F00F03E8118F8011BAB
:1053500049B92B7B002B00F03781284603B0BDE80C
:10536000F04FFFF721BF252940F0B780002698F8BD
:1053700000302D2B424608F1010823D0302B24D0D9
:105380002B2B25D000242A2B02F1010123D13B68CD
:105390001A1D1B683A601C440A4613782E2B26D12E
:1053A00001324FF0000A104610F8011BA1F1300C39
:1053B000BCF1090F1DD80A2303FB0A13A3F1300A1D
:1053C0000246F0E746F00106D1E746F00206CEE7D6
:1053D00046F00406CBE711F8013CA3F130000928A0
:1053E000DBD80A2202FB0434303C0A46CBE74FF0FC
:1053F000000A12F8011B01F0FB0068289046F8D063
:10540000782909D86F290CD8632962D022D8252998
:1054100063D0582900F0888098F80030002B95D18F
:1054200097E770390829F7D801A353F821F000BF96
:10543000A35500001954000019540000395500000C
:1054400019540000175500001954000019540000A9
:1054500029550000642901D06929DDD13A68D2F8C4
:105460000090111D89EAE9723960A2EBE9724FF0F0
:10547000010B092A35DCD34538BFD3462CB1B9F12D
:10548000000F01DB720700D5013CB30702D5BAF16A
:10549000000F03D0F00701D44CBB0024B9F1000F7A
:1054A0002DDAC9F100092D212846FFF7B9FE06F0D3
:1054B0000302022A04D1BAF1000F01D11CBB00245F
:1054C000CDE9004653460A2249462846FFF7C0FE6A
:1054D000A2E73B681A1D19783A602846FFF7A0FE3C
:1054E0009AE70A230BF1010BB2FBF3F2C1E7A345E4
:1054F000D4D220212846013CFFF792FECCE7710769
:10550000D5D52B21D0E7A345DAD230212846013C5E
:10551000FFF786FED2E73968CDE900460A1D3A60FA
:1055200053460A220968D0E739680A1D3A60CDE976
:10553000004653461022F5E73B681A1D3A6016F004
:105540000106D3F8009024D1B9F1000F03D04846EA
:1055500005F092FF0646B4421DD809F1FF3919F84B
:10556000011F00293FF458AF2846FFF759FEF6E720
:1055700028460136FFF754FE19F806100029F7D126
:10558000A642BFF449AF20212846013CFFF748FE60
:10559000F6E70026F0E720212846013CFFF740FE11
:1055A000D9E73B681A1D3A60302128461C68FFF78E
:1055B00037FE78212846FFF733FE00220823CDE985
:1055C00000322146102280E703B0BDE8F08F00BF13
:1055D0000ACE00002DE9F74F99469DF83030009330
:1055E00088469346064618B92349B620FEF7DAFFE7
:1055F000F28871794A43043A4A4505D81E49019216
:10560000C420FEF7CFFF019ADBF80070B6F806A0C1
:1056100007EB0901914209F1040488BFA2EB0907D5
:10562000B4FBFAF5CBF800700AFB154445B9AAEBB8
:10563000040BBB4528BFBB462FB903B0BDE8F08FB4
:105640003668013DF2E7009B043408EB0500344462
:105650005A466BB12146A7EB0B0705F0B1FEBA45E0
:105660005D443668D3464FF0000428BFBB46E3E7ED
:1056700001462046EFE700BF77CE0000FFF776B87F
:10568000F8B546790146721E0546002393422D68FF
:1056900003D30024A64202D8F8BD0133F6E70F6811
:1056A0002846FFF7C9F801343946F3E72DE9F843F6
:1056B000068ACD1C0746FFF797F8043E354404469A
:1056C000B5FBF6F5F0B14FF48073EDB28380C68080
:1056D000013D076081464FF00008A84512D23846C8
:1056E000FFF782F8064648B163790133637108F128
:1056F0000108C9F8000007608146EEE72046FFF781
:10570000BFFF34462046BDE8F88301210430FFF78F
:1057100000B810B5012104460430FFF706F8C0B206
:1057200020B92046BDE81040FFF7AABF10BD000019
:105730001FB5144603920022009203AAFFF74AFF06
:10574000039BA34203D00349F620FEF72BFF04B0CE
:1057500010BD00BF77CE00001FB514460392012292
:10576000009203AAFFF736FF039BA34204D003492C
:105770004FF48070FEF716FF04B010BD77CE000026
:10578000836800225A60C3E904229A60DA601A60D2
:1057900070470000014608B50322044805F082FD69
:1057A0000028024818BF002008BD00BFD8CE000066
:1057B00070B50C46064618B90A493A20FEF7F2FEC3
:1057C0001CB908493B20FEF7EDFE7568286818B142
:1057D000B3682146984718B92B6823602C6070BDC8
:1057E0002D68F3E7E8CE000010B5044618B9054966
:1057F0005120FEF7D7FE6368186808B102681A6086
:1058000010BD00BFE8CE000010B5044618B903492A
:105810005D20FEF7C7FE6368186810BDE8CE000083
:1058200038B50C46054618B90A496920FEF7BAFE94
:105830001CB908496A20FEF7B5FE6B68186820B1EC
:10584000A04203D102681A60012038BD03460068F7
:10585000F5E700BFE8CE000010B50D49A1F58C7248
:10586000914201D800200FE08C1AE30F03EBE40310
:105870005B1002EBC30452F83330834205D802D2E6
:1058800004F10802ECE7606810BD2146E8E700BFBC
:1058900014D4000008B5FFF7DFFF024B002808BF53
:1058A000184608BDE6D2000038B5074C051E04F1C5
:1058B000080318BF1C4623682BB11A6822605B6876
:1058C00028469847F7E738BD0C0A002020B9054B59
:1058D00001225A70FFF7E8BF012802D1014A9070F7
:1058E000F8E77047040A0020014B1878704700BFA2
:1058F000040A002038B50C4C23789BB90B48636030
:10590000A3602361E36000F06DF9054600F07EF9C5
:1059100001232370064BD3F800340BB10123A3708D
:10592000284638BD8525F5E7040A0020CD5800003B
:105930000000014038B51A4C237805461BB91949B7
:10594000F620FEF72FFEA37803F0FF00ABB115B1F0
:105950006B68012098470020FEF77EFBE36800207B
:105960000133E360FEF788FBE368C3B9BDE8384064
:105970000C494FF48970FEF715BEFEF76DFB25B19B
:10598000226913463BB92A602561E368002BE5D103
:1059900000F05EF9E2E79D42F7D01B68F2E738BD00
:1059A000040A002014D4000038B51B4C23780546A7
:1059B00023B91A4940F23310FEF7F4FD637803F07F
:1059C000FF00ABB115B16B68002098470020FEF7CF
:1059D00043FB6368002001336360FEF74DFB63689F
:1059E000C3B9BDE838400D4940F24F10FEF7DABDAB
:1059F000FEF732FB25B1A26813463BB92A60A560C9
:105A00006368002BE5D100F03BF9E2E79D42F7D057
:105A10001B68F2E738BD00BF040A002014D4000060
:105A200038B50F4C237823B90E494FF4AA70FEF70E
:105A3000B9FD636823B90B4940F25510FEF7B2FD7A
:105A40000020FEF709FB6368013B6360656815B9D8
:105A500000F02EF96570BDE838400020FEF70CBB61
:105A6000040A002014D4000010B5074C23784BB969
:105A7000064B002808BF184600F0E4FB08B90123D4
:105A8000237010BD8520FCE7180A002079D400009F
:105A900008B500F01AFCBDE8084000F01DBC07B5D1
:105AA0000190FFF7F5FF019800F0F8FB00F006FC0D
:105AB000002003B05DF804FB1FB503788DF80030BB
:105AC0004368019383688DF80830C368054A0393DF
:105AD000054B684653F8213052F82110984705B01D
