:020000022000DC
:1070000000000420757302005D7302005F730200CC
:1070100061730200637302006573020000000000E8
:107020000000000000000000000000006773020084
:1070300069730200000000006B7302006D730200B0
:10704000B98502006F730200998A02006F73020013
:107050006F7302006F7302001D8902006F730200DC
:107060006F7302006F7302006F7302006F73020090
:107070006F7302006F7302006F7302006F73020080
:107080006F730200357E02006F7302006F7302009F
:107090006F7302006F730200ED9E02006F730200B7
:1070A0006F7302006F7302006F7302006F73020050
:1070B0006F7302006F730200000000000000000008
:1070C0006F7302006F7302006F7302006F73020030
:1070D0006F7302006F7302006F7302006F73020020
:1070E0006F7302006F7302006F73020000000000F4
:1070F000000000006F730200000000006F730200C8
:10710000000000000000000000000000000000007F
:10711000000000000000000000000000000000006F
:10712000000000000000000000000000000000005F
:10713000000000000000000000000000000000004F
:10714000000000000000000000000000000000003F
:10715000000000000000000000000000000000002F
:10716000000000000000000000000000000000001F
:10717000000000000000000000000000000000000F
:1071800000000000000000000000000000000000FF
:1071900000000000000000000000000000000000EF
:1071A00000000000000000000000000000000000DF
:1071B00000000000000000000000000000000000CF
:1071C00000000000000000000000000000000000BF
:1071D00000000000000000000000000000000000AF
:1071E000000000000000000000000000000000009F
:1071F000000000000000000000000000000000008F
:10720000354936480A1A02D0072291438D4634493F
:1072100034480A1A06D00722914381F309880222D2
:1072200082F3148830483149314A00F044F831483B
:107230003149324A00F03FF831483249324A00F0D1
:107240003AF832483249334A00F035F83248334987
:10725000334A00F030F833483349344A00F02BF811
:1072600033483449344A00F026F83448344900227F
:1072700000F02CF833483449002200F027F8334856
:107280003349091A082902DB002202604160314AB1
:1072900090471F481F49884205D00268043003B454
:1072A000904703BCF7E700208646EC46002000210B
:1072B000294A9047FEE7884207D0521A05D0037842
:1072C00001300B700131013AF9D17047884202D088
:1072D00002700130FAE770470000042000E003204C
:1072E0000000042000000420DCA102000023002094
:1072F00048230020D0730200D0730200ECA00200EB
:10730000DCA1020000230020002300203CA1020099
:107310003CA102003CA102003CA102003CA10200F1
:107320003CA102003CA102003CA10200DCA1020041
:1073300024A20200482300204823002048230020E4
:107340002826002028260020282600202826002085
:10735000284600209D730200658C0200FEE7FEE7D0
:10736000FEE7FEE7FEE7FEE7FEE7FEE7FEE7FEE7F5
:1073700000F002B8FFF7FCBF0F484FF00701884349
:1073800085460E4880470E48016841F4700101604F
:10739000BFF34F8FBFF36F8FFFF732BF09480A4922
:1073A0000A4A884207D0521A05D0037801300B7080
:1073B0000131013AF9D17047000004200181020037
:1073C00088ED00E03CA10200002300200023002003
:1073D000C30710B507D4F023054A4008145C2340C6
:1073E0001943115410BD0901C9B20F23F4E700BFBE
:1073F0005823002030B5094B1C78094B196800232D
:107400009C4202DC0022104630BD11F83350854208
:1074100001EBC302F7D00133F2E700BF482300209D
:107420007823002013B504460191FFF7E3FF38B13C
:1074300043682BB10199204602B0BDE810401847BF
:1074400002B010BD034B044819680022490800F03F
:1074500063BA00BF4C2300200023002010B5C0B247
:10746000FFF7C8FF0446007801F04AFA63785A1E15
:1074700053425341834208D1044BD3E900231343C1
:1074800003D1BDE81040FFF7DDBF10BD5023002041
:1074900037B54308374AD35CC2074CBF1B0903F01A
:1074A0000F0304460D46042B25D8DFE803F003261E
:1074B0002F3C4000F9B10121FFF78AFF00230DF1B5
:1074C00007008DF8073000F05FFB0120A4F12003D6
:1074D000C4F12001284A20FA01F100FA03F30B431A
:1074E000A040D2E9004120430B43C2E900039DF8CC
:1074F000070000F06DFB03B030BD002918BF02216A
:10750000204603B0BDE83040FFF762BF49B1032118
:10751000FFF75EFF0121204603B0BDE83040FFF7D2
:1075200081BF0121ECE70029E5D10421E8E709B199
:107530000321E5E7FFF74CFF29462046FFF772FFDE
:107540000DF107008DF8075000F01EFB0120A4F19B
:107550002003C4F12001084A20FA01F100FA03F3E4
:107560000B43A040D2E9004124EA000021EA0303D2
:10757000BBE700BF58230020502300202DE9F04135
:10758000124E134F00243378A34208DC114BD3E989
:107590000023134318D0BDE8F041FFF753BF3D6807
:1075A00005EBC40815F8340001F0AAF998F8013089
:1075B0005A1E53425341181A4142414115F83400B2
:1075C000FFF766FF0134DEE7BDE8F08148230020C5
:1075D0007823002050230020092AF7B505460C46E1
:1075E00016463ED901F092F8E8B11F4B1F481D60C6
:1075F0001F4B204F1C70204B002120221E6002F0E8
:1076000042FD1E4B00200021C3E90001013CE4B211
:107610000326FF2C0DD11A4A1A48002103B0BDE8F9
:10762000F04000F067B901F02DF80028DDD003B07C
:10763000F0BD9DF8063015F834008DF8046005EBB8
:10764000C40223F007038DF8063001A993788DF862
:1076500005303A4601F064F8013CE4B20028D8D085
:10766000E5E70720E3E700BF782300205823002048
:10767000482300205D7402004C230020502300208A
:107680007D7502003CA1020070B5084D084E002433
:107690002B789C4201D3002070BD3368012113F880
:1076A000340001F0BDF80134F2E700BF48230020A8
:1076B0007823002073B5114D114E00242B789C4285
:1076C00015D300230DF107008DF8073000F05CFAA8
:1076D0000C4B00210020C3E900019DF8070000F0D9
:1076E00077FA094802B0BDE8704000F043B933684A
:1076F00013F8340001F0E2F80134DFE748230020FA
:107700007823002050230020002300201FB50021F3
:10771000039001AA44F20100CDE9011100F004F840
:1077200005B05DF804FB000072B6094BD3F8F020F9
:10773000D20700D500BEBFF34F8FD968054A01F4C8
:10774000E0610A43DA60BFF34F8F00BFFDE700BF7F
:1077500000ED00E00400FA0510B5D0E90243D1E9DC
:107760000202A04272EB03032CBF0120002010BDD7
:1077700008B50A4800F047FB094AD2E90031C018B1
:10778000084BD3E9002341F10001904271EB030360
:1077900003D210F1807041F1000108BD20230020C8
:1077A00080230020F823002037B505460C460A4800
:1077B00001A900F05CFB60B10570446001A90648B6
:1077C00000F07FFB18B1054800F022FB002003B059
:1077D00030BD0420FBE700BFE4230020202300206D
:1077E000294B73B51E7804461EB90026304602B0F8
:1077F00070BD0028F9D0FFF7BBFFD4E90223904207
:10780000994139D300230DF107008DF8073000F0BE
:10781000BBF923692BB94FF0FF324FF0FF33C4E9B6
:1078200002239DF8070000F0D3F9D4E9053098470A
:1078300000250DF107008DF8075000F0A5F9236928
:10784000C3B1D4E90212B2F1FF3F08BFB1F1FF3F6B
:1078500005D05B1842F10002C4E9023235469DF8BA
:10786000070000F0B5F9002DBFD00848214600F010
:10787000FDFBBBE71D46F2E7B3F1FF3F08BFB2F1E6
:10788000FF3FB2D0F1E700BF8823002044A10200EF
:1078900013B5114B1149186801900823104858225C
:1078A00000F0D2FA044698B90E4A0F4801A900F038
:1078B000B3F9044660B90C48012100F087FA0123AE
:1078C0000A4A0948194600F0E9F9094B01221A70E1
:1078D000204602B010BD00BF40A102008C23002052
:1078E000E4230020D179020020230020FFFF7F0045
:1078F0008823002030B56AB103684FF0FF344FF0A1
:10790000FF355A614A1E5142C3E90245514119618E
:10791000002030BD0720FCE7F7B5044600250DF137
:10792000070017460E468DF8075000F02DF9D4E9F0
:107930000223B3F1FF3F08BFB2F1FF3F07D1FFF7CA
:1079400017FF301841F10001C4E9020101259DF83B
:10795000070000F03DF955B12369A76103B1266125
:107960002146002003B0BDE8F040FFF71DBF2846C8
:1079700003B0F0BD37B5054600240DF107008DF8C2
:10798000074000F001F9D5E90223B3F1FF3F08BF3A
:10799000B2F1FF3F1FBF4FF0FF324FF0FF33C5E999
:1079A000022301249DF8070000F012F934B12946A2
:1079B000012003B0BDE83040FFF7F6BE204603B01B
:1079C00030BD0000014800F01EBA00BF2023002097
:1079D0002DE9F743064600F001FA40B1624AD2E9C8
:1079E000003113F1807341F10001C2E9003100213F
:1079F000304600F002FA38B15C4C236823B12068AD
:107A0000FFF7EEFE002323600121304600F0F5F978
:107A100020B1FFF7ADFE564BC3E900015548534C6A
:107A200001A900F05EFA4FF0FF384FF0FF39A0B91E
:107A3000DFF844814D4D404600F02EFB002800F059
:107A40008580D0E90223B3F1FF3F08BFB2F1FF3FC9
:107A500032D1404600F01AFBEDE70378012B20D02D
:107A6000022B08D1444D284600F010FB002877D0A7
:107A7000C0E90289F7E75BB94168D1E90223B3F1B4
:107A8000FF3F08BFB2F1FF3F02D03B4800F0EEFAE3
:107A900001A9384800F050FA01A9364800F021FA4F
:107AA000C5E741682368994202D100232360EFE7CC
:107AB000314800F0F4FAEBE7296891B12968D1E97F
:107AC000020182428B412FD22B68D3E90223B3F10A
:107AD000FF3F08BFB2F1FF3F03D02968404600F0E6
:107AE000C5FA404600F0D2FAD0E902490746FFF74E
:107AF0003FFE201A69EB0109012879F1000318DB28
:107B0000B0F5350F13D3FFF75DFF1C4A02441C4844
:107B10004FF49603002100F0E1F890B92B6813B9F7
:107B2000304600F0B3F82F6003B0BDE8F083224682
:107B3000EDE71348002100F056F93846FFF750FEF4
:107B400001E00D28F9D000232B6074E7074B1B6878
:107B5000002BE9D1304603B0BDE8F04300F09AB8FD
:107B6000084B01221A7093E7802300200024002094
:107B7000F8230020E423002044A10200FFFFB4000A
:107B8000202300208823002070B5EFF3108672B602
:107B90000C4A946801239CB993600B4B0B4DD3F8AE
:107BA000801029401160C3F88050D3F884105160D0
:107BB0004FF0FF32C3F88420047006B962B670BD7E
:107BC0000370FAE70424002000E100E0FC06FFBD9A
:107BD000084B9A6810B55AB150B9EFF3108172B6DC
:107BE000054A1C6814605C685460986001B962B60C
:107BF00010BD00BF0424002000E100E0435882B023
:107C00003BB10023435043580193019B012002B034
:107C100070471846FBE7000070B5184C4379184DC3
:107C200044F8232005EBC3031B792BBB03680A88A8
:107C3000C3F8082590F904408B7802795B01002C89
:107C4000DBB214DB0F490E1986F8003301236409F7
:107C500002F01F0203FA02F241F82420437905EBF7
:107C6000C302012145F833001171002070BD06499F
:107C700002F00F028B54F1E70820F7E718240020E8
:107C80001024002000E100E014ED00E00368012270
:107C90001A607047036801225A60704773B501F19A
:107CA0005005AD000068ADB24FF480348C40002622
:107CB000C0F80843C0F84843465101F5A87145593A
:107CC000019522F07F42019D40F82120C0F84443F5
:107CD0000BB1C0F8044302B070BD00002DE9F74FAE
:107CE0000D4622F07F4402684FF4803705F15006BC
:107CF0008F408046B60002EB8500C2F84873B6B2EA
:107D0000C2F80873D2F8041599464FF0000BD0F86A
:107D10004035C0F8401542F806B05B1A92590092FF
:107D200023F07F43012B009A4FEA850A0CD1264BA2
:107D30004FF4806043F001039847D8F8003043F8CF
:107D400006B09B590193019BD8F80010D1F8046547
:107D5000C1F84473A31B23F07F43012B1CD11A4BA2
:107D600005F5A875013443F0010341F825404FF4AF
:107D700080609847D8F80030D3F804359E4209D186
:107D8000D8F800300020C3F84473C3F8047303B07C
:107D9000BDE8F08F0D20FAE78A44C9F1FF13CAF855
:107DA0004045D1F80405221A013A22F07F4203F53A
:107DB0007F439342EED3002AE2D10134CAF8404512
:107DC000D1F804359842DAE750A102000368022294
:107DD000C3F8442309B1C3F80423704700684FF483
:107DE0008271FFF70BBF4FF4803303FA01F1036890
:107DF000C3F84813C3F8081370475031890000686E
:107E000089B2FFF7FBBE0368D3F804057047000092
:107E100090F90430002B09DB5A09012103F01F03FC
:107E200001FA03F34032024941F82230704700BFA3
:107E300000E100E0024B034A1B681068184700BFCE
:107E4000182400201024002010B561B1B2FBF3F417
:107E500003FB1424A4B244B9C0E9001484608281F5
:107E6000C381204610BD0E20FCE70920FAE737B594
:107E700050E8013F9DB2C48925448489A54228BFAA
:107E80002D1B0489A54202BFBFF32F8F002207E0FC
:107E9000C5EA030540E80154002CE9D14FF0010286
:107EA0008DF803200193019A0A609DF8031001F0F8
:107EB000FF0321B1006810FA82F003B030BD18460C
:107EC000FBE70A884B889A4209D150E8012FC2EAA1
:107ED000024240E80123002BF7D101207047002027
:107EE000704737B550E8023F1FFAA3F5C488A54292
:107EF00002BFBFF32F8F00220DE0C489254484897F
:107F0000A54228BF2D1BC3EA054540E80254002CBA
:107F1000E8D14FF001028DF803200193019A0A6025
:107F20009DF8031001F0FF0321B1006800EB12403F
:107F300003B030BD1846FBE70A884B889A4209D146
:107F400050E8022FC2EA224240E80223002BF7D178
:107F5000012070470020704701F01F024B090121EA
:107F6000914000EB830000F013B801F01F030122E1
:107F70009A404B0900EB8300D14300F015B84B0940
:107F800001F01F0150F82300C84000F001007047C5
:107F900010B5034653E8002F42EA010043E800040D
:107FA00094F0000FF6D110BD10B5034653E8002F32
:107FB00002EA010043E8000494F0000FF6D110BD7E
:107FC00041DF7047064B10B500241C70054B1C6048
:107FD000BFF35F8F0449054800F032F8204610BD1A
:107FE000242400202824002058A102001C24002062
:107FF00007B500230DF107008DF80730FFF7C4FD2A
:10800000F1EE103A23F09F03E1EE103ABFF35F8FD9
:108010000A4B4022C3F884219DF80700FFF7D8FDE2
:1080200001F04AFF20B103B05DF804EBFFF7C8BFD1
:1080300020BF40BF20BF03B05DF804FB00E100E0BB
:108040000B684A684360934208BF0023016008BF81
:1080500043607047436843B10268916852680B44BB
:108060009342436004BF00234360704770B5446887
:1080700006460D46206818B1B3682946984718B9D6
:1080800023682B60256070BD2468F3E74368186897
:1080900008B102681A6070474368186870474368FF
:1080A000186800B97047884203D102681A6001203D
:1080B000704703460068F4E74FF08053D3F830016F
:1080C000A0F1080358425841704700004FF0805318
:1080D000D3F83021082A06D1D3F83431052B02D841
:1080E000024AD05C70470020704700BF6AA10200BE
:1080F000024AD2F80034002BFBD0704700E0014068
:1081000010B5FFF7D9FF40B14FF080430022C3F80C
:108110000C21C3F81021C3F83825FFF7CDFF002844
:1081200046D04FF08052654BD2F80414C3F82015A6
:10813000D2F80814C3F82415D2F80C14C3F8281583
:10814000D2F81014C3F82C15D2F81414C3F8301553
:10815000D2F81814C3F83415D2F81C14C3F840151B
:10816000D2F82014C3F84415D2F82414C3F84815E3
:10817000D2F82814C3F84C15D2F82C14C3F85015B3
:10818000D2F83014C3F85415D2F83414C3F860157B
:10819000D2F83814C3F86415D2F83C14C3F8681543
:1081A000D2F84014C3F86C15D2F84424C3F87025F3
:1081B000FFF78CFF18B1424B424AC3F88C26FFF7F9
:1081C00085FF18B1404BFB22C3F81825FFF77EFF4F
:1081D00070B14FF080414FF08053D1F8E42ED3F8C6
:1081E000583222F00F0203F00F031343C1F8E43EAC
:1081F000FFF76CFF20B1354B4FF40072C3F84026F7
:10820000FFF75AFF48B14FF08043D3F80024D2075C
:1082100044BF6FF00102C3F800242D4AD2F8883021
:1082200043F47003C2F88830BFF34F8FBFF36F8FF2
:108230004FF08053D3F83021082A0ED1D3F83431CF
:10824000052B02D8234AD35C3BB14FF01023D3F85F
:1082500008224FF08043C3F858254FF01023D3F87D
:108260000022002A03DBD3F80432002B22DA1A4959
:1082700001234FF01020C1F804351224FFF738FF16
:10828000C0F80042FFF734FFC0F80442FFF730FFA8
:108290000023C1F80435FFF72BFFBFF34F8F0C49C4
:1082A0000E4BCA6802F4E0621343CB60BFF34F8FFA
:1082B00000BFFDE70A4B0B4A1A6010BD00C000402A
:1082C000005000404881030000F000400090024050
:1082D00000ED00E064A1020000E001400400FA05A6
:1082E000282300200090D003074B1B5C1F2B86BF68
:1082F000064903F01F034FF0A041012202FA03F3E5
:10830000C1F80C35704700BF70A102000003005097
:10831000074B1B5C1F2B86BF064903F01F034FF062
:10832000A041012202FA03F3C1F80835704700BFEB
:1083300070A102000003005008B50020FFF7E8FF1D
:108340000120FFF7E5FF0220FFF7E2FFBDE808404C
:108350000320FFF7DDBF0000C10710B5044642D57A
:108360004FF08043D3F84036DA072ED54FF0102374
:10837000D3F8043303F00703072B26D11D4A01234A
:10838000C2F80435D2F80034002BFBD04FF0102196
:10839000D1F8043323F0070343F00403C1F8043396
:1083A0000023C2F80435134AD2F80034002BFBD066
:1083B000BFF34F8F1049114BCA6802F4E0621343B8
:1083C000CB60BFF34F8F00BFFDE74FF0A0420C49D9
:1083D0000323C2F81837C2F82037C1F82437C2F88F
:1083E0003037FFF7A9FFA30742BF054B0C22C3F8A4
:1083F000182710BD00E0014000ED00E00400FA0580
:108400000003005038B5074C051E04F1080318BFDF
:108410001C4623682BB11A6822605B68284698477F
:10842000F7E738BD3424002020B9054B01225A70EB
:10843000FFF7E8BF012802D1014A9070F8E77047C2
:108440002C24002020B9034B01225A70FFF7DABF19
:10845000704700BF2C24002038B50E4C2378B3B9E8
:108460000D486360A3602361E36000F075F8054682
:1084700001F022FD08B900F07BF801232370074BBF
:10848000D3F800340BB10123A370284638BD8525ED
:10849000F5E700BF2C2400202984020000000140E1
:1084A00037B50D4C00230DF107008DF80730FFF7AD
:1084B0006BFBE368013BE360E36833B9074BD3F838
:1084C000005415B900F066F8A5709DF80700FFF795
:1084D0007FFB03B030BD00BF2C2400200000014012
:1084E000012813B50CD0032820D038B9134B012232
:1084F000C3F88020BFF34F8FBFF36F8F02B010BD62
:108500000F4C00230DF107008DF80730FFF73CFBFF
:1085100023780BB9FFF7A0FFE3689DF8070001334C
:10852000E3600123A370FFF753FBE7E700F020F8B7
:1085300002B0BDE81040FFF7B3BF00BF00E100E0AC
:108540002C24002000F18040002382B003600368E7
:108550000193019B02B07047044A137923B90121AA
:108560001060918018467047852070474024002095
:10857000074B1A68D20704D4C02283F800230122D3
:108580001A604FF080430122C3F81825704700BFDE
:1085900000E100E04FF0804208B50223C2F8083342
:1085A0004FF48270FFF7CEFF0123D360D2F8183466
:1085B000DB03FBD408BD00004FF0804110B5D1F8BB
:1085C000003163B14FF48070FFF7BCFF0D4B587959
:1085D0000122C1F8082310B95A711B6898474FF05F
:1085E0008042D2F8043163B14FF48270FFF7AAFFE2
:1085F0000223C2F80833034BBDE810401B6801207A
:10860000184710BD4024002000F1804000F5C04014
:10861000002382B0036003680193019B02B070479E
:1086200003681F2B83BF03F01F03036001484FF053
:10863000A04070470003005007B5019001A8FFF764
:10864000EFFF019B00EB8300D0F8003723F44033A9
:10865000C0F80037D0F8003743EA0141C0F80017EE
:1086600003B05DF804FB0000054B4FF0FF32072814
:1086700043F8202084BFC01880F85820704700BFFE
:108680004824002038B51D4991F86A30A3BB4FF645
:10869000FF70FF245A09012A0CBF02464FF0FF3237
:1086A00003F01F05EA40D20748BFCA1803F10103CF
:1086B00048BF82F83040302BECD10024E0B20134C6
:1086C000FFF7D2FF0C2CF9D10D4B00224A669A809D
:1086D0000C4BC02083F80603402018604FF4BE7096
:1086E000FFF792FF084B4FF00040C3F8040301234B
:1086F00081F86A30104638BD0820FCE74824002085
:10870000AC24002000E100E000600040034B93F83F
:108710006A00003818BF0120704700BF48240020BD
:10872000F7B53D4F3B18044693F93030002B71DA12
:108730008B78C3F34003002B0BBF082500250C20CA
:108740000820854202D1042003B0F0BD57F825600F
:10875000013647D138196EB247F8252080F83060CD
:1087600013B97B1983F858408B785A071AD4D80765
:108770003AD501A80194FFF753FF019B00EB83005A
:10878000D0F8003723F00203C0F800372348E2088E
:1087900004F0070C012303FA0CF310F802C043EABB
:1087A0000C03835488780B7810F0020028D0AD00B9
:1087B00005F1804505F5C0452402D5F8102522F4C1
:1087C0004F3222F44072C5F810251B04D5F810254D
:1087D00004F47C5403F440331C431443C5F810459F
:1087E0000020B1E70135ACE701A84A780194FFF712
:1087F00017FF019B03F5E073920040F82320C5E7C3
:10880000083E47FA86F797F8604044EA831387F8F2
:10881000603099E7082097E748240020AC24002026
:1088200073B5244D2E18044696F93020072A1DDD15
:10883000083A45FA82F595F860309B09032B10D170
:10884000019001A8FFF7ECFE019BD0F81015D9406C
:1088500001F001010231204602B0BDE87040FFF78F
:10886000EBBE012B0CBF02210321F4E7D3B2072B8F
:108870001DD8930003F1804303F5C043D3F81005DE
:1088800040F00100C3F8100502F1400040B2800042
:1088900080B2FFF7B9FE51B196F9303055F8233068
:1088A0002BB1012303FA02F2034BC3F8042302B0F5
:1088B00070BD00BF48240020006000400E4B034400
:1088C00093F93020072A02DD0021FFF7B5BED3B2AD
:1088D000072B10D8930003F1804303F5C043D3F86E
:1088E000101521F00101C3F81015012303FA02F25B
:1088F000024BC3F808237047482400200060004062
:1089000007B5019001A8FFF78BFE019BD0F8100579
:10891000D84000F0010003B05DF804FB2DE9FF47EB
:108920000024CDE90244584D4FF48072012102F138
:10893000804303F5C04390B21B68012B06D1D5F8E4
:1089400004330B4202D0FFF75FFE0C430432B2F552
:10895000907F4FEA4101EAD14B4BD3F87C31012B98
:1089600011D14FF4BE70FFF74FFE4FF0A04344F01B
:108970000044D3F820250292C3F82025D3F82028FC
:108980000392C3F82028E3B2D3B1404F012600255B
:10899000344210D0AB0003F1804303F5C043D3F859
:1089A0001005D3F8101557F8253023B1C1F3014154
:1089B000C0F3052098470135082D4FEA4606E7D158
:1089C000002C59DA314D324C324E4FF0000801275D
:1089D00016F9013B5A1C3CD0C3F3C2011031694463
:1089E0005FFA83F911F8081C03F03F0203F0070354
:1089F00007FA03F319422CD001A80192FFF710FEE9
:108A0000019B03F5E07350F82330C3F3014ABAF138
:108A1000020F0CBF032102211046FFF70DFE01A833
:108A20000192FFF7FDFD019B07FA03F3C0F8203523
:108A3000AB1893F9303055F8233053B14FEA991100
:108A4000032904D0BAF1020F19D1012901D110462E
:108A5000984708F10108B8F1040FB9D14FF0A043CD
:108A6000D3F820250292C3F82025D4F820350393AB
:108A7000C4F820351343A7D104B0BDE8F087BAF19C
:108A8000030FE6D10229E1E70060004048240020FE
:108A900000030050A8240020014B1B68184700BFAA
:108AA000B424002072DF704773DF704776DF7047B1
:108AB0007ADF70477CDF70477FDF70478FDF70475A
:108AC000B1DF7047FEF722BE08B5064B01211878CA
:108AD000FFF7EAFF08B1FEF719FEBDE808400020E5
:108AE000FFF702BC4423002002200AB1FFF7FCBBC1
:108AF000FFF70EBC0388212B13B5044644D007D8DA
:108B0000112B28D0132B37D0102B0CD002B010BD56
:108B1000522B47D0562B01D03B2BF7D1A0881321E5
:108B2000FFF7C4FF10E00120FFF7DEFB0020FFF796
:108B3000EFFB204BA1882048198001F030F808B1E4
:108B4000FEF7E4FDFEF7A0FD0028DFD002B0BDE88F
:108B50001040FEF7DBBD0120FFF7DAFB154B4FF6A7
:108B6000FF721A80FEF7A6FD08B1FEF7CFFD02B036
:108B7000BDE81040FFF7A8BF0E4800231A46852124
:108B80000088FFF799FFDFE7002380888DF8043025
:108B900001A98DF80530FFF791FF0028B6D0FEF748
:108BA000B5FDB3E7034800231A4619460088FFF7CE
:108BB00087FFC9E7462300202C25002010B430B9D8
:108BC0000C4A0D4B14782CB90120107019605DF817
:108BD000044B70471A68094B5DF8044B891A002949
:108BE000CABFD822024691FBF2F21888044901F06C
:108BF000BFB800BFC0240020BC24002046230020B2
:108C000014250020262808B510D10B4B0B491888D5
:108C1000372201F0ADF830F008020BD043F2020227
:108C2000904207D043F20142904203D0BDE8084091
:108C3000FEF76CBD08BD00BF4623002014250020B0
:108C400008B503784BB9054B3B211888FFF72EFF79
:108C500018B1BDE80840FEF759BD08BD4623002005
:108C6000FEF754BD00B56649A7B0192000F034F9ED
:108C70000120FFF771FBFEF70BFE08B1FEF746FD82
:108C8000604840F233320121FEF7A6FC08B1FEF73E
:108C90003DFDFFF797F908B1FEF738FD01F0CEF87A
:108CA00008B1FEF733FD002317A90120179301F047
:108CB00051F908B1FEF72AFD17A801F08FF908B1A4
:108CC000FEF724FD112350498DF82030142208A806
:108CD000FFF7F0FE08B1FEF719FD0023ADF8603094
:108CE0005023ADF85C30A023ADF85E3017A84FF4E8
:108CF000C873ADF86230FFF7DBFE08B1FEF706FD82
:108D00004248002100F075FE08B1FEF7FFFC002389
:108D100008933F483F4B179317A900F02EFF08B167
:108D2000FEF7F4FC3C4B3D48089308A900F0B0FF67
:108D300008B1FEF7EBFC41F22353ADF80430374B9A
:108D4000374C9B7C8DF806303C22002108A801F0AE
:108D50009AF902238DF820303C2240F20163002171
:108D600017A8ADF8223001F08EF922460123ADF8A4
:108D70006C3052F8041B01AB08A81C9300F0B8F942
:108D800008B1FEF7C3FC274AA16817A800F0B0F9A4
:108D900008B1FEF7BBFC1822002102A801F073F90C
:108DA00001238DF81D308DF808301D491E484023E1
:108DB00002AA0493FFF776FE08B1FEF7A7FC14227F
:108DC000002117A801F05FF94FF4A0334FF4A0225F
:108DD000CDE9182303238DF86830144B1C9317A892
:108DE000134B1D9300F04EFC08B1FEF78FFCFFF70C
:108DF0006BFE002000F0F4F8FFF7FAF8FCE700BF84
:108E0000BD8B02002C23002074A10200002500204D
:108E10002C250020C58A0200E98A020014250020C2
:108E2000342300204023002044230020418C0200F2
:108E3000618C0200F8B51820FFF740FD204D214B52
:108E4000214801260024EE6017211C714FF0A04735
:108E50001C6006606E64D5F84425172A18D91B4C8F
:108E6000227812B91A4A012151631979194A18292D
:108E70001968126806BF41F31701002001209047CE
:108E80002378E3B1BDE8F84001211820FFF7C8BC02
:108E9000D0F84021002ADDD0C0F84041D7F8102595
:108EA000D3F800C0C2F300628A4042EA0C021A60A2
:108EB0001A790132D2B201391A71CBD2CFE7F8BD9B
:108EC00000A00040442500200090004038250020EC
:108ED000006000403C25002013B502238DF80430CB
:108EE0009DF80630384C23F007038DF80630374BD9
:108EF000206019604FF0A043002203218DF8052067
:108F0000C3F858174FF48001C3F8081540F20F2139
:108F1000C3F850174FF48011C3F80815C3F8602741
:108F2000FFF7F4FB20B9FFF7ADFB08B1FEF7EEFB4E
:108F3000274A01A91820FFF7F3FB08B1FEF7E6FB6B
:108F4000244B0122C3F840251022C3F844252022D7
:108F5000C3F848250422C3F800220022C3F81025D4
:108F600003F580532268C3F840250222C3F8042584
:108F7000A3F58043184AC3F8142503F5C833174AEC
:108F8000C3F81025A2F544520C3AC3F8142502F593
:108F900044521032C3F81825A2F54352203AC3F8C0
:108FA0001C2502F57E522432C3F8142902F59C7266
:108FB000C3F82025A2F58952103AC3F824250722C8
:108FC000C3F8002502B010BD402500203C2500203C
:108FD000358E0200009000400316110040910040C1
:108FE000044B80F001001870034B012159661820D2
:108FF000FFF716BC38250020006000406DDF704789
:1090000079DF70477DDF704764DF70472DE9F04FEF
:1090100085B000250E9CBDF83CB0B4F800A00191CD
:10902000074690461E46A9463A884A450DDC45B19A
:109030002388013BA3EB0A039BB2FF2B3AD806F827
:109040000A30002005B0BDE8F08F7A6852F8290098
:10905000039000220DF10B0103A8FFF7D5FF0028B4
:10906000F0D19DF80B20424521D12288002D14BF5C
:109070000020022002EB0801014459451ADC3DB9E9
:10908000013292B2019B2280B354228801322280A5
:1090900022880DF10B01324403A8FFF7B5FF002829
:1090A000D0D121889DF80B200A442280012509F1A6
:1090B0000109B9E70C20C5E72DE9F341089FBDF888
:1090C00024801546CDE90078022204461E46FFF7AB
:1090D0009DFF50B93346102229462046CDE9087835
:1090E00002B0BDE8F041FFF791BF02B0BDE8F081EA
:1090F0002DE9F04F00231788138090F82D3085B0AC
:1091000006460D4614465BB3082F01D80C2028E113
:1091100002A8FFF773FF002840F023812388DDF8C1
:1091200009100822EA54238801339BB21B222380B2
:10913000EA54238801339BB2EA182380E950BDF832
:109140000D30938023889DF8082006339BB212F0DF
:10915000FE0218BF01222380EA54238801332380B2
:10916000B378FBB123880433BB42CFD802A8FFF702
:1091700047FF002840F0F58023880322EA54238823
:1091800001339BB219222380EA542388BDF80820BA
:1091900001339BB2E9182380EA54120A4A702388EB
:1091A00002332380F2789AB12388D91CB942ADD812
:1091B0000221E954238801339BB201212380E95421
:1091C00023880B449BB22380EA5423880B442380DA
:1091D0007268AAB12388D91CB94297D8022192F9A2
:1091E0000020E954238801339BB20A212380E954EB
:1091F000238801339BB22380EA54238801332380E0
:109200003389002B40F0A180338A5BB1CDE9004760
:109210002B460722032106F11000FFF74DFF00281F
:1092200040F09F80338B5BB1CDE900472B46152280
:10923000142106F11800FFF73FFF002840F091804D
:10924000326A002A40F09080D6F82480B8F1000FEE
:1092500030D0B8F804302188981C8A1C0244BA42E5
:109260003FF654AFFE283FF651AF03336B542388CB
:1092700001339BB2FF222380EA54238801339BB23F
:109280002380B8F80020EA54E918120A4A702088AE
:10929000023080B22080B8F804205AB1D8F8081003
:1092A00000296BD0284400F0C5FE2388B8F80420BC
:1092B0001344238096F82C30002B40F098803078AF
:1092C00000284ED03388012B58D0228802F1020C9E
:1092D000BC453FF61BAF012805D173780233134418
:1092E0009F42FFF413AF023FBF1ABFB202A905EBC2
:1092F0000C00ADF80870FFF785FE90BB3178BDF823
:109300000830022900F0B98072789A4202D39F4255
:1093100080F0B180012940F0B280974293B2C0F052
:10932000AE80ADF808300821BDF80830FE2B3FF6BE
:10933000EDAE22880133AB542288013292B22280F2
:10934000A9542288134423800BE0CDE900472B4623
:109350000622022106F10800FFF7AEFE00283FF4C6
:1093600053AF05B0BDE8F08FB4F800C00CF10603B0
:10937000BB423FF6CBAE1188052901D80720F0E7A4
:109380006FF4486E01EB0E039BB24FF27D3E7345C6
:10939000F4D95388052BF1D96FF44860181880B2BE
:1093A0007045EBD94FF6FF70814201D09942E5D864
:1093B000052305F80C30238801339BB2122123804A
:1093C000E954238801339BB223801188E954E818BB
:1093D000090A4170238802339BB223805288EA54E1
:1093E000E918120A4A702388023323802CE7B36AF3
:1093F000002BC3D04FF000084FF00C0A4FF0160BB3
:10940000B16A5FFA88F20AFB02F201EB0209B9F8CD
:109410000430981CFE283FF679AE208803332B5485
:10942000238801339BB2238005F803B023880133DE
:109430009BB223808A5AEA54E918120A4A7020889B
:10944000023080B22080B9F804205AB1D9F808104F
:10945000002993D0284400F0EDFD2388B9F80420BA
:109460001344238096F82C2008F101085FFA88F352
:109470009A42C5D823E7092156E79F42FBD2ADF8AF
:10948000087050E775DF704776DF70477ADF704706
:109490007BDF7047034B1A8882420CBF18460020BE
:1094A000704700BF68250020024B9B6903B1184735
:1094B000704700BF4C25002073B585B22846FFF7E2
:1094C000E9FF044638B3174E027A337B9A420CD236
:1094D00000F10A012846FFF7D5FFF0B111281AD094
:1094E00002B0BDE87040FFF7DFBF00230372337C9A
:1094F00043B13B212846FFF7C7FF30F0080301D0F6
:10950000FFF7D2FF736933B100228DF80420ADF864
:10951000065001A8984702B070BD237A0133237228
:10952000F9E700BF4C25002037B50B46497A0F4AB2
:1095300079B9D2E901141D7A0246002D18BF2146DF
:109540005868FEF7E9F978B103B0BDE83040FFF79D
:10955000ABBF00211972536933B10122ADF8060087
:109560008DF8042001A8984703B030BD4C25002099
:109570004B8802889A4212D842889A420FD3808838
:109580008B8840F2F311884294BF021A421A9A4221
:1095900005D80844984234BF0020012070470020BD
:1095A000704700000388122B70B5014659D004D8CB
:1095B000102B1ED0112B44D070BD502BFCD12F4B43
:1095C000C288DB899A42F7D1038A022BF4D18688BC
:1095D0003046FFF75FFF05460028EDD001F112008D
:1095E00000F045F938BB6868FEF7C4F90028E3D0FD
:1095F00009E0C37B012BDFD14FF6FF70FFF74AFF75
:10960000054620B90420BDE87040FFF74DBF1C4A55
:109610008E880680002303721368C0F80A305368EE
:10962000C0F80E3010310A30FFF7A2FF134B6872FA
:10963000DB89002BC0D129463046BDE87040FFF7DA
:1096400073BF8088FFF726FF04460028B4D0406827
:10965000FEF790F908B1FFF727FF4FF6FF7323805D
:10966000AAE786883046FFF715FF05460028A3D0F5
:1096700008310A30FFF77CFF6872DCE74C250020D8
:109680007C250020F8B5064648B305460FCD154F9A
:109690003C460FC495E8070084E807003068124C88
:1096A0003C60B0B1FFF7F2FEC0B9326813682360C6
:1096B000536863600D480E4A4FF6FF7303800D4BED
:1096C00040F8043F0021FEF715F9002818BF0320D9
:1096D00004E02046FFF7DCFE0028EBD0F8BD0E20AA
:1096E000FCE700BF4C2500207C25002068250020D9
:1096F000B9940200882500200AB1FEF72DBCFEF7C0
:1097000034BC73B50191019C06466CB100252C4612
:10971000294601A8FEF733FC18B106EB44030134D7
:109720009D800135142DF3D13046346002B070BDF8
:109730002DE9F04703888488103B8CB005460A2B3E
:1097400021D8DFE803F006402020202020202065DB
:109750004700DFF8E880D8F80830DB430093D8F8FA
:1097600004106846FEF720FC009901A8FFF7C9FF26
:109770000DF108090027019B9F4207D3132C12D932
:109780000420FDF7C3FF0CB0BDE8F08739F802AB49
:1097900000260136514608EB8600FEF7E6FB1E2E3A
:1097A000F7D10137E7E71F482146FEF7D5FB1E48F2
:1097B0002146FEF7D1FBEB7B022BE4D11B4821466F
:1097C000FEF7CAFBDFE7174821460CB0BDE8F047BB
:1097D000FEF7CBBB027A16483F2A4FEA1215214604
:1097E00094BF00220122FFF787FF022D94BF0022C1
:1097F000012210482146FFF77FFF012D0E4894BF3C
:109800000022012221460CB0BDE8F047FFF774BFEB
:10981000037A002BB7D1427A0548C2F3C002214631
:10982000F1E700BFB0250020AC250020B4250020C2
:10983000C0250020BC250020B8250020A825002038
:10984000AADF7047002301380B70042806D8DFE830
:1098500000F00306080A0C0011230B707047212347
:10986000FBE73123F9E71223F7E72223F5E7008826
:1098700000F001007047F0B58B7891B00C46012BD9
:1098800038BF012300278DF80E3005460B88607C19
:10989000ADF80C306946ADF800708DF80270FFF736
:1098A000D1FFA07C0DF10101FFF7CCFF1646237B11
:1098B000E27B217D43EAC203227C43EA02139DF846
:1098C0000220B94222F0190203F0190314BF022149
:1098D0000121134361F342031C22394609A88DF884
:1098E000023000F0D0FB637B13F0300F14D00DF189
:1098F0000901E07CADF808708DF80A70FFF7A2FF4F
:1099000011238DF808309DF80A30012102AA61F375
:1099100042038DF80A300E92637B8DF82430A37BCE
:109920008DF825300023CDE90633089303AB04936B
:10993000A388ADF81C30A368CDF814D01BB1E28821
:10994000ADF818200893A36973B301A90022ADF8FC
:1099500004208A701A88ADF82C205A88ADF82E2081
:109960005A680D91187B0A92FFF76CFFA3690DF1FD
:109970000501587BFFF766FFA3699A7A197A41EAD5
:10998000C201DA7A9B7B41EA02119DF80620002B86
:1099900001F0190122F0190214BF0223012311431F
:1099A00063F342018DF80610E36903B10C9333466B
:1099B00004AA09A92846FFF743FF11B0F0BD90DFC4
:1099C0007047A5DF7047B5DF70471FB50023ADF8BE
:1099D0000810ADF80A106A4602A9ADF80C30ADF8CF
:1099E0000E300093ADF80430FFF7E9FF05B05DF8E5
:1099F00004FB78B14FF0171303601B230371172387
:109A0000C380038141F61B320023016143818281BF
:109A1000184670470E20704713B5034680880C46E1
:109A2000A0B91A88242A7CD012D8112A56D0232A09
:109A300000F08780102A2ED0A37A3BB1E188002065
:109A4000FFF7BFFF10B94FF48073638102B010BD00
:109A50003A2A4BD0552AEFD1DB88C988A072172B40
:109A600038BF17238B4228BF0B462381FFF7ABFF7C
:109A7000E27A002AE0D12369002BDDD040F677217D
:109A8000ADF802202289ADF80010ADF80420694637
:109A900020469847D0E7DB7B0A790A73012B13D065
:109AA000022B14D0E18823898B4205D20020FFF7D6
:109AB00088FF70B90123E372217B637B8B42BBD2A9
:109AC0000020FFF782FFB7E70B88E380EAE74B88C7
:109AD000FBE7112804BF0123A372EDE71723CB8016
:109AE0000B8141F61B3348818B81A5E75B89CA88CE
:109AF000934228BF1346172B0A6938BF17230B81DF
:109B000062B1C97A51B140F67721ADF80010ADF8D5
:109B10000200ADF804306946204690470023638177
:109B20008AE71A7A0B694A73002B85D04DF67A21A1
:109B30008DF80500ADF80010ADF802008DF8042096
:109B4000A5E7197A237B994228BF1946B9E7B0DF08
:109B5000704766DF704710B5002104464088FFF764
:109B6000F8FF034608B9237210BD112801D1012363
:109B7000F9E76368BDE81040184760B159B1037850
:109B8000DE2B0AD00B684360DE2303704FF6FF73B1
:109B90004380002070470E2070470820704728B18E
:109BA0000378DE2B04D14180002070470E207047DF
:109BB00008207047F0B5054685B00C46002942D014
:109BC000002840D00B78DE2B3DD182884B889A420A
:109BD00004D10B7A13B10846FFF7BDFF2B88112B78
:109BE00033D0512B0FD0012B2DD12B7A012B2AD121
:109BF000A9886288914226D12046237205B0BDE82B
:109C0000F040FFF7A8BFAE886388B3421BD1AF799D
:109C1000022F18D1AD7B2B1F022B14D8002110224C
:109C2000684600F030FA052D18BF4FF4C07369463E
:109C3000304618BFADF804308DF80070FFF787FF8D
:109C400008B16368984705B0F0BD6388AA889A4256
:109C500004BF4FF6FF736380F5E7A8DF7047AEDF00
:109C6000704762DF70470288502A10B40DD1C48853
:109C70004A88944209D1028A012A06D14B6923B14C
:109C8000827C5DF8044B808818475DF8044B704770
:109C9000F0B50B6843618FB0344B02AA044603F160
:109CA0001007164618685968154603C50833BB42A5
:109CB0002A46F7D104F112013046FFF7D2FF0028FF
:109CC00051D1A37C8DF80630224641F2235301A9DD
:109CD0000120ADF80430FFF7C0FF002843D1014652
:109CE000202206A800F0CFF941F22453ADF8183035
:109CF000A37C8DF81A304FF0041307939DF825309C
:109D0000224623F01203012543F0120332F80A0B16
:109D10008DF8253006A98DF829508DF82B50FFF7C6
:109D2000AAFD00BB0146202206A800F0ACF941F2D2
:109D30002553ADF81830A37C8DF81A304FF002137C
:109D400007939DF825308DF82950224623F00A0309
:109D500043F00A0332F8020B8DF8253006A98DF87E
:109D60002A50FFF788FD0FB0F0BD00BF89A10200A7
:109D700000B589B00423ADF80E300023CDF81330C0
:109D80008DF8173001238DF812304B89ADF8103063
:109D900001AB079304A90DF10E0301920693FFF79F
:109DA0005EFF09B05DF804FB10DF704713B5044691
:109DB00009496846FEF744F9019808B902B010BD98
:109DC000D0E900212046904718B16846FEF742F9D5
:109DD000F2E71120F2E700BFA0A1020013B504468C
:109DE00007496846FEF72CF9019B0BB902B010BD7C
:109DF0002046D3E9002190476846FEF72BF9F3E7A8
:109E0000B8A102000B4991F816335A09EC2313410B
:109E1000DB0706D5084B9A683AB94FF480030B600C
:109E2000704742F20200FDF771BC1A6842F48002EA
:109E30001A60704700E100E004240020F7B5194FD4
:109E40003C7864BB184E012520463570FFF7AEFF05
:109E5000112821D02046FFF7C1FF144B8DF8034095
:109E6000186801900DF10300FDF78EFE104901A85E
:109E7000FFF79AFF0446B0FA80F0400938709DF869
:109E80000300FDF7A5FE3CB90A4B34701C70FFF7C8
:109E9000B9FF2846FFF7A2FF204603B0F0BD082413
:109EA000FAE700BF252600202426002099A1020001
:109EB0002977020026260020014B1878704700BF42
:109EC0002526002007B508496846FEF7B9F8019B2A
:109ED00013B903B05DF804FBD3E90020904768464E
:109EE000FEF7B8F8F3E700BFACA10200FFF7EABF46
:109EF00060DF704769DF704761DF704730B5134B33
:109F00001B7891B0FBB1124D34240DF1020103A86E
:109F1000ADF80240FFF7F0FF70B9294601A8FEF73F
:109F20008FF8029B002BF0D003A8D3E900219047C3
:109F300001A8FEF78FF8F4E7052804D011B0BDE8BA
:109F40003040FDF7E3BB11B030BD00BF2726002035
:109F5000C4A102007FB50D4600293BD000241E4A53
:109F60000A60CDE90144062301268DF8040001A909
:109F70002020ADF8083003948DF80660FFF7BAFF93
:109F80002A68039401A94020CDE901448DF80560B9
:109F9000FFF7B0FF0A232A68039401A93046CDE9F0
:109FA00001448DF80430FFF7A5FF4FF4B0632A6831
:109FB000019301A9A120CDE90244FFF79BFF2A6884
:109FC000039401A9A020CDE90144FFF793FF2046A7
:109FD00004B070BD0E20FBE70023002008B5FFF79A
:109FE00087FF10B9014B01221A7008BD27260020F7
:109FF0004BDF70471FB50E4C01A8FFF7F9FF70B992
:10A00000214602A8FEF71CF8039B002BF4D0019810
:10A01000D3E90021904702A8FEF71CF8F4E70528D1
:10A0200004D004B0BDE81040FDF770BB04B010BD13
:10A03000D0A10200844640EA010313F0030F18D1B7
:10A040008446202A0BD32DE9F007B1E8F807A0E8F1
:10A05000F807A2F12002202AF7D2BDE8F007042A6F
:10A0600007D351F8043B40F8043BA2F10402042A50
:10A07000F7D2002A05D011F8013B00F8013B013A64
:10A08000F9D1604670478446002A2DD010F0030FA6
:10A0900004D000F8011B013A26D0F7E7C9B241EA23
:10A0A000012141EA0141202A12D3A2F120022DE927
:10A0B000F0030B460C460D460E460F468846894671
:10A0C000A0E8FA03203AFBD2BDE8F00320320BD01F
:10A0D000042A05D340F8041B043A05D0042AF9D217
:0CA0E00000F8011B013AFBD160467047FC
:08A0EC004584020000000000A1
:10A0F4003197020000000000199A02000025002098
:10A10400A595020000000000B59B02002C2500204C
:10A11400679C020014250020F58A0200000000005C
:08A12400E184020000000000CC
:10A12C00FD9E020000000000F59F020000000000F0
:10A13C000023002001000600000000007C2300200A
:10A14C00597702000338FDD870470000F4A00200D4
:10A15C00F4A0020004000000000000000101010056
:10A16C00000000000608290C536D617274204675BE
:10A17C00656C2050726F746F747970650023D1BC5C
:10A18C00EA5F782315DEEF121200000000010000D8
:10A19C000700000024A1020024A102000800000016
:10A1AC002CA102003CA102000800000024A1020026
:10A1BC002CA1020008000000F4A0020024A102005F
:10A1CC0008000000ECA00200F4A00200080000004F
:10A1DC000000000000000000FFFFFFFFFFFFFFFF7B
:10A1EC000000000000000000000000000000000063
:10A1FC0000100140110004000090D0032600030061
:10A20C00058C0200C12400201F000000E024002067
:08A21C001F000000FF00FFFF1E
:0400000320007375F1
:00000001FF
