:020000022000DC
:1070000000000420757302005D7302005F730200CC
:1070100061730200637302006573020000000000E8
:107020000000000000000000000000006773020084
:1070300069730200000000006B7302006D730200B0
:107040006F7302006F730200CDD102006F730200F4
:107050006F7302006F7302006F7302006F730200A0
:107060006F7302006F7302006F7302006F73020090
:107070006F7302006F7302006F7302006F73020080
:107080006F730200118D02006F7302006F730200B4
:107090006F7302006F73020009EB02006F7302004E
:1070A0006F7302006F7302006F7302006F73020050
:1070B0006F7302006F730200000000000000000008
:1070C0006F7302006F7302006F7302006F73020030
:1070D0006F7302006F7302006F7302006F73020020
:1070E0006F7302006F7302006F73020000000000F4
:1070F000000000006F730200000000006F730200C8
:10710000000000000000000000000000000000007F
:10711000000000000000000000000000000000006F
:10712000000000000000000000000000000000005F
:10713000000000000000000000000000000000004F
:10714000000000000000000000000000000000003F
:10715000000000000000000000000000000000002F
:10716000000000000000000000000000000000001F
:10717000000000000000000000000000000000000F
:1071800000000000000000000000000000000000FF
:1071900000000000000000000000000000000000EF
:1071A00000000000000000000000000000000000DF
:1071B00000000000000000000000000000000000CF
:1071C00000000000000000000000000000000000BF
:1071D00000000000000000000000000000000000AF
:1071E000000000000000000000000000000000009F
:1071F000000000000000000000000000000000008F
:10720000354936480A1A02D0072291438D4634493F
:1072100034480A1A06D00722914381F309880222D2
:1072200082F3148830483149314A00F044F831483B
:107230003149324A00F03FF831483249324A00F0D1
:107240003AF832483249334A00F035F83248334987
:10725000334A00F030F833483349344A00F02BF811
:1072600033483449344A00F026F83448344900227F
:1072700000F02CF833483449002200F027F8334856
:107280003349091A082902DB002202604160314AB1
:1072900090471F481F49884205D00268043003B454
:1072A000904703BCF7E700208646EC46002000210B
:1072B000294A9047FEE7884207D0521A05D0037842
:1072C00001300B700131013AF9D17047884202D088
:1072D00002700130FAE770470000042000C003206C
:1072E0000000042000000420C81D030044230020E7
:1072F00020240020D0730200D0730200D4F40200D6
:10730000C81D030044230020442300205CF7020032
:107310005CF702005CF702005CF702005CF7020019
:107320005CF702005CF702005CF70200C81D030076
:10733000A41E03002024002020240020202400205C
:1073400067310020683100206C3100206C31002052
:107350006C3300209D73020091E50200FEE7FEE71A
:10736000FEE7FEE7FEE7FEE7FEE7FEE7FEE7FEE7F5
:1073700000F002B8FFF7FCBF0F484FF00701884349
:1073800085460E4880470E48016841F4700101604F
:10739000BFF34F8FBFF36F8FFFF732BF09480A4922
:1073A0000A4A884207D0521A05D0037801300B7080
:1073B0000131013AF9D17047000004202DE70200A5
:1073C00088ED00E078F602006022002044230020CF
:1073D0000048704760310020F0B595B01D46164654
:1073E00008460C4605F0A0FB1A9B0D93CDE90865F5
:1073F00000252B46082205A920460A958DF82C5019
:107400000C9505F0ADFB079B0293069B03939DF83B
:1074100014308DF8115003F00302012A1DD1BDF87C
:107420001420059DC3F3C203C2F383168DF81030F8
:10743000B20008230EA9204605F092FBC5F395255E
:1074400008AB0093324602AB0EA9284600F09CFF21
:10745000204605F06DFB15B0F0BD022AF8D1BDF84D
:107460001650C3F3C203C5F389158DF810300827F1
:10747000082D2E4628BF08263B4632460EA9204638
:1074800005F06EFBAD1B08AB02AA31460EA83744CF
:1074900000F0DEFF002DEBD1DAE7704707B5044BB3
:1074A0000093044A4023FFF797FF03B05DF804FB05
:1074B000F97402002124002030B50C4D0FCD89B0A5
:1074C0006C460FC495E80F0084E80F0006230848B7
:1074D00000930022694605F03BFE08B101F018F860
:1074E000044B00221A7009B030BD00BF5CF70200E7
:1074F000442300202024002038B50D480D4C0E4DAB
:10750000002323700378EB5CD2B263B1043006F041
:10751000B9FB08B100F0FCFF084B1A7812B12378D0
:10752000002BFBD038BD0C3006F0BAF8F1E700BFF5
:107530004423002061240020442C0020202400202B
:1075400008B50848084A0378D35C33B1043006F024
:1075500009FBBDE80840FFF7AFBF0C3006F038F874
:10756000F7E700BF44230020442C00200023042818
:10757000CB604B6098BF044B044A98BF53F820304F
:107580008A600B60704700BFB8FC020094FC0200E8
:10759000CB6800225A717047C368DB6800225A71B9
:1075A0007047CB6801225A717047C368DB680122BB
:1075B0005A7170470D4A8A6070B50D4A0D4C002310
:1075C000121BCB604B600B6012091D469A4207D01C
:1075D000E6683679FF2E05D0854202D1A3680B609C
:1075E00070BD013501331034F0E700BFCCFC020060
:1075F00040F6020020F602002DE9F3478368D3F835
:107600004831C3F340059B07074606D500221146C3
:1076100002B0BDE8F04704F015B9144E144CDFF881
:107620005880DFF85890DFF858A0A41B2409A54221
:1076300002D102B0BDE8F087F168B3680A79FF2A89
:1076400007D10C4A0821384603F0E4F8013510361A
:10765000EDE74879002814BF41464946CDE90012BC
:1076600038465246082103F0D5F8EFE720F602002D
:1076700040F6020099F7020088F7020090F7020036
:10768000B8F702002DE9F74F154D164C9946641BCB
:1076900052F8043C06468846174624094FF0000B72
:1076A0005C4507D1104A0221304603B0BDE8F04FD7
:1076B00003F0B0B8A9680193184607F0B3FEAA46D4
:1076C000019B103540B93B46424651463046CC46B8
:1076D00003B0BDE8F04F60470BF1010BE0E700BFDE
:1076E00020F6020040F60200D9F70200014BFFF736
:1076F000C9BF00BFB17A0200014BFFF7C3BF00BF93
:1077000091750200014BFFF7BDBF00BFA3750200DA
:10771000014BFFF7B7BF00BF8D7B0200037813F06A
:10772000040216D003F00303012B03D0022B09D06F
:10773000012070470A6800880232C0F383100244B7
:107740000A60F5E70B684288023303EB92130B6083
:10775000EEE71046704700002DE9F04FDFF81CA15E
:1077600087B00F4600230446861C0DF1070015461E
:107770008DF8073001F036F9DAF804203A60DAF8CB
:10778000083003F580739B1A0AF21C470AF58369D7
:107790000AF21448B3421AD30020002D69D004F035
:1077A0000F039B0143F0050363F30F00DAF8043085
:1077B000DAB2033233444AF822009DF80700CAF8CF
:1077C000043001F033F9012007B0BDE8F08F01214A
:1077D000384602F014FB484602F02CFB404602F00B
:1077E00029FBDAF808000290C0B203300AEB8000EF
:1077F00002A9FFF793FF029B30BBDAB20AEB8202C9
:10780000D16803919A1C0133DBB20AEB8303029225
:10781000D3F80CB001F00303012B22D0022B15D0BA
:107820008346404602F009FB10B1029BCAF80830BB
:107830005946384602F0E3FADAF80830DAF804205C
:1078400003F580739B1AA5E7D8B2CEE7BDF80E30DA
:10785000C3F3891303334FEA1B4B02EB93030293E9
:10786000DFE7BDF80C30C3F383134FEA1B4B13441F
:10787000F5E7A40544F0060098E700BF3425002092
:10788000012907B5034604D08168D1F8481189075A
:1078900007D500221146184603B05DF804EB03F04B
:1078A000D1BF53680193054B00931368044A02212A
:1078B00002F0B0FF03B05DF804FB00BFF9F702006F
:1078C000EFF7020030B599B10A4B0B4A0B49D21AB7
:1078D000D20800239A4201D1052006E031F8235056
:1078E0000468A54202D10360002030BD0133F1E7F6
:1078F0000846FAE780F5020018F60200AC220020E4
:107900002DE9F84F1E4B1F4801221A7005F0C5F8EB
:10791000814690BB1C48DFF880801C4CDFF87CA0BF
:1079200005F05FFAA4EB0804E4084D46A54208D12F
:107930000023174A19469C421AD022F8231001331B
:10794000F9E700273E4608EBC50BB54209D058F8C9
:107950003610DBF80000142207F066FC0028C8BFD0
:1079600001370136B442F0D12AF825700135DDE740
:107970000848A200002107F000FD4846BDE8F88F46
:107980003425002040F6020088FC020018F60200B0
:10799000AE220020F822002080F50200AC22002058
:1079A00007B5019001A8FFF78DFF30B9019A044B8C
:1079B00053F8320003B05DF804FB0020FAE700BF83
:1079C00080F50200002310B5CB604B60034B8B6049
:1079D0000C460121FFF7E4FF206010BD94FC02007B
:1079E000094B013903EBC000032909D8DFE801F096
:1079F0000A020406042070470079704740797047F6
:107A0000002070470220704780F5020030B5124C0C
:107A100000EB400054F8215002FA00F3072202FA6A
:107A200000F06B400D4A03406B40C3F3821044F8F2
:107A3000213002EB8101C3F3C202824238BF024609
:107A4000C3F34220824203F0070338BF0246934249
:107A500038BF13464B8030BDF8220020AC220020F6
:107A600013B50446019101A8114693B1FFF72AFF0F
:107A700010B1002002B010BD01990B4A04EB440084
:107A800052F8212007238340134023FA00F0C0B2AC
:107A9000F0E7FFF717FF0028EBD1019A034B03EB48
:107AA000C2039879E6E700BFF822002080F50200C3
:107AB000294B2A4A2DE9F04F9B1A4FEAD30ACB688B
:107AC0005B7985B005460E461BB9254A022102F0B6
:107AD000A1FE244B244ADFF8A4800821284602F0A6
:107AE00099FE224A0821284602F094FE00245445BB
:107AF00002D105B0BDE8F08FF36893F8049001233C
:107B00001A4621464846FFF7ABFF002307460122ED
:107B100021464846FFF7A4FF0121032881468346FA
:107B2000204628BF4FF00309FFF73AFF5FFA89F9B3
:107B30000F4A58F82910034658F827000D4F0090B7
:107B4000CB4598BF1746CDE901170B4A08212846B7
:107B500002F060FE0134CAE718F6020080F5020068
:107B600010F8020023F802002FF802004DF802007E
:107B70000C0003000EF802008AF80200A4FC0200C8
:107B800013460A46C168FFF793BF00002DE9F04F86
:107B90002DED028B054683B09B461646002A5DD02C
:107BA000DBF80070CB68554993F804A0384607F01D
:107BB00039FC0446F0B9012E09D1514A0221284668
:107BC00003B0BDEC028BBDE8F04F02F023BEDBF842
:107BD00004304C4F57F8041B00930A22184607F054
:107BE00023FB002800F083800134052C009BF1D199
:107BF000454A15E04549384607F014FC044668B983
:107C0000012E36D04FF00108414B424AA3EB020946
:107C10004FEAD9030093DFF808914FE03E4A3B4614
:107C20000221284603B0BDEC028BBDE8F04F02F004
:107C3000F1BD00231A4631465046FFF711FFA0421E
:107C400011D200213046FFF7ABFE42460346022127
:107C5000284602F0DFFD0136BE42EAD103B0BDEC9A
:107C6000028BBDE8F08F224631465046FFF7CEFE2C
:107C7000F1E7274F274BDFF8A480FF1AFF08002603
:107C8000EAE700213846FFF78BFE18EE101A202293
:107C900007F0CAFA034608B1013716E00246019020
:107CA00039465046FFF7DCFEA042019B18D322461E
:107CB00039465046FFF7AAFE08F10108B045CDD27B
:107CC0005BF8283008EE103A0027009BBB42D8D161
:107CD0005BF828304A460221284602F09BFDEBE77C
:107CE00019463846FFF75CFE0C4A0346F3E7022EBE
:107CF000E4B2BED04FF0020886E700BFA0F8020051
:107D0000A7F80200A4FC020012F90200BEF802006B
:107D100018F6020080F50200C6F80200DBF8020047
:107D2000FEF8020013460A46C168FFF72FBF0000A5
:107D3000034BD3E90130C31A58425841704700BF82
:107D4000342500202DE9F04387B0FFF7F1FF054609
:107D5000002840F00E81884CC4F81804BFF34F8F00
:107D6000A3680293DBB2033304EB830002A9FFF79D
:107D7000D5FC029B18B1D4F81824002A63D0DAB2DB
:107D8000991C013304EB8202DBB204EB8303D2685B
:107D9000DB68049302F00303022B039202915DD18E
:107DA000BDF80E3075489DF80C50C3F3891847464E
:107DB000502F28BF502707F1080167F38F13C1F335
:107DC0000901ADF80E3004F080FEC5F3C205064689
:107DD000002800F0B58004F0A7FE0023082203A9C4
:107DE000304604F0B3FE0299CB43DBB20133C9B293
:107DF0000331B7EB830F4FEA830204EB81012AD9E9
:107E00005FFA82F90823A7EB0907304604F09EFECB
:107E1000FFB209F108035A4903F0FC033A46304621
:107E200004F094FE029B08F1030803EB980302930D
:107E3000D4F81834002B49D1D4F81074DFF85491D9
:107E40004FF0070867E062689A428BD8A260284624
:107E500007B0BDE8F08308233A46E0E7012B6FD175
:107E6000BDF80C504548C5F38311062928BF0621EB
:107E700061F38915023101F00F018900ADF80C5052
:107E800004F023FEC5F3C2050646002858D004F0CE
:107E90004BFE0023082203A9304604F057FE0027BA
:107EA000BDF80C20C2F38312BB00974203F1080314
:107EB000BED202994A1CC9B20331029204EB81017D
:107EC0000422304604F042FE0137E9E7304604F070
:107ED0002FFEFFF72DFF80F00100C5B2B7E7FB686A
:107EE0005A79B2B11B79BDF8101003EB430259F86F
:107EF000211008FA02F3052D03EA010323FA02F325
:107F000008BF0325AB4204D33B6831461B683846A3
:107F10009847FB681F68002FE1D1304604F008FE47
:107F20000DF107008DF8077000F05CFDD4F81834EF
:107F30000BB9029BA3609DF8070000F077FDC8E72E
:107F4000D4F8104474B90F4B5B88012BC1D90E4B88
:107F50000E480F49C01AC008000440F0020000F0AB
:107F600061F8B6E7236820469B689847E3681C6879
:107F7000E8E700256BE700BF3425002040F602004B
:107F800040250020B822002080F5020098F502006C
:107F90002FF90200F82200202DE9F34704460E468F
:107FA000924601A9012218469946FFF7D5FB1B4FBF
:107FB00010B3019D4FF00008AA1CC84508EB020150
:107FC00023D11748002101F0D3FE80F310000004F4
:107FD00040EA1440E4006B1C04F03804DBB2EDB25C
:107FE00044F0010407EB8303033544EA881444EAB0
:107FF0008624D86047F825403B781BB1FFF7A2FEE6
:108000000028FBD102B0BDE8F087C9B207EB8101BF
:108010005AF82830CB6008F10108CEE7342500205B
:108020005029002000231A46FFF7B6BF07B50123E9
:10803000019201AAFFF7B0FF03B05DF804FB07B59A
:10804000CDE9002302236A46FFF7A6FF03B05DF8DF
:1080500004FB1FB5CDE90123069B039301AA03236B
:10806000FFF79AFF05B05DF804FB00002DE9F84327
:1080700088461B49D1F81034054600241A468AB9AF
:10808000EA681471A3B9C1F810541360154B164E69
:10809000F61AF608002703F10709B7420DD120466A
:1080A000BDE8F883D2681079A04212D01268E6E7E2
:1080B000DB68196811601D60E8E719F83720EB6884
:1080C00042453946187928BF4246FFF79FFC0137E1
:1080D000E3E701340A2CD1D14FF0FF34DFE700BFD2
:1080E0003425002080F5020018F6020038B5084B50
:1080F0000125D3F810441D7004B938BDE3685D71E3
:10810000236820465B689847E3681C68F4E700BF73
:108110003425002010B588B00023CDE90233CDE925
:10812000003304931F4B204A0593204B06929B1A61
:108130009B08079302AA6B4643F2274141F26E0067
:1081400001F0DEFCB0B905A902A801F07FFC184BD4
:108150005B88022B04460AD91648174B1749C01AE8
:10816000C0080004224640F00300FFF75FFF2046EE
:1081700008B010BD48F20963984210D105A902A8C1
:1081800001F060FC0A4B5B88022B0446EFD90948DA
:10819000094B0B49C01AC00800042246E3E7032438
:1081A000E5E700BF6E102734F822002044230020AA
:1081B000B822002098F5020080F5020040F9020084
:1081C00071F9020010B58368D3F848319B07044663
:1081D00005D50022BDE81040114603F033BBFFF780
:1081E00099FF30B9044A08212046BDE8104002F04A
:1081F00011BB024A0221F7E7A2F90200BAF9020014
:1082000000B589B00023CDE90533CDE901330793EB
:1082100005AA01AB43F2274141F26E0001F070FC68
:1082200090B9CDE9030003A905A801F0A9FB40B965
:108230001048114A0499121A07F076F805A801F0BF
:10824000DDFB09B05DF804FB48F2096398420FD1E9
:108250000A4B5B88012B09D909480A4B0A49C01A05
:10826000C008000440F00200FFF7DCFE0520E8E74C
:108270000320E6E7F822002044230020B822002053
:1082800098F5020080F50200DFF9020010B583685E
:10829000D3F848319B07044605D50022BDE81040BD
:1082A000114603F0CFBAFFF7ABFF30B9044A0821FB
:1082B0002046BDE8104002F0ADBA024A0221F7E7BD
:1082C00004FA02001CFA020030B5C38885B00446E7
:1082D0000D4633B1144A00921449154A284603F05A
:1082E000C0FE217A05291DD0637A4BB1A088FFF723
:1082F00077FB104B104953F82020284603F0B1FEBD
:10830000227A0E4BA08853F8222003920021FFF717
:1083100047FB039A0A490346284605B0BDE83040AA
:1083200003F09FBE05B030BD34FE02001CFE02000B
:1083300014FE02008CFE020059010300B0FE020090
:1083400039FE020007B503460846197A052911D0FF
:108350005B7A2BB1094A0A49019003F082FE019829
:108360000849019003F07DFE019803B05DF804EB2D
:1083700003F06CBE002AF8D0F2E700BF34FE020022
:10838000590103000A0003002DE9F04385B01F46A0
:108390000C9D002395F80C902B7306460C469046D6
:1083A00029463846FFF790FFB8F1060F09D8DFE8F5
:1083B00008F00412181F283340003146284603F005
:1083C00050FE002229463846FFF7BCFF85F80C9086
:1083D00005B0BDE8F08322683146284603F041FE2F
:1083E000EFE7D4E900233146284603F03AFEE8E7F8
:1083F000A36800933146D4E90023284603F031FEF8
:10840000DFE7E3680193A36800933146D4E90023D2
:10841000284603F026FED4E723690293E36801931C
:10842000A36800933146D4E90023284603F019FEDF
:10843000C7E76369039323690293E3680193A36821
:1084400000933146D4E90023284603F00AFEB8E73A
:1084500008292DE9F74F80460E4617461C463DD8A1
:1084600000251B7B2573214610460193FFF72CFF47
:10847000DFF88CA0DFF88CB0AE4232D918F80520B6
:108480005946204603F0EDFD0135082DF4D11B4976
:10849000DFF874A0DFF874B0204603F0E2FD4FF07F
:1084A00000094E4524D918F809507E2D1ED82846BB
:1084B00006F018FD002814BF2A462E2259462046F1
:1084C00003F0CFFD09F10109B9F1080FE9D101224B
:1084D00021463846FFF736FF019B237303B0BDE802
:1084E000F08F5146204603F0BCFDCDE72E22E5E794
:1084F0005146204603F0B5FDE4E700BF4DFE020003
:1085000049FE020043FE02004BFE02004FFE020045
:108510001FB50021039001AA44F20100CDE9011129
:1085200000F004F805B05DF804FB000010B572B669
:10853000FFF7DCFDFFF706FC0028FBD1164C638833
:108540004BB11648164B1749C01AC008000440F03A
:108550000100FFF767FD144BD3F8F030DB0700D5BF
:1085600000BE6388012B09D90C480D4B0F49C01A76
:10857000C008000440F00200FFF754FDBFF34F8F26
:1085800009490B4BCA6802F4E0621343CB60BFF3A6
:108590004F8F00BFFDE700BFB822002098F5020012
:1085A00080F50200C4FE020000ED00E0D0FE0200F3
:1085B0000400FA0510B5D0E90243D1E90202A04255
:1085C00072EB03032CBF0120002010BD08B50A4840
:1085D00000F087FB094AD2E90031C018084BD3E903
:1085E000002341F10001904271EB030303D210F12B
:1085F000807041F1000108BD74230020F0290020A3
:10860000582A002037B505460C460A4801A901F052
:108610003AFB60B10570446001A9064801F05DFBBA
:1086200018B1054800F062FB002003B030BD042003
:10863000FBE700BF6023002074230020294B73B5A3
:108640001E7804461EB90026304602B070BD0028D0
:10865000F9D0FFF7BBFFD4E902239042994139D307
:1086600000230DF107008DF8073000F0BBF92369F6
:108670002BB94FF0FF324FF0FF33C4E902239DF8CE
:10868000070000F0D3F9D4E90530984700250DF133
:1086900007008DF8075000F0A5F92369C3B1D4E9AC
:1086A0000212B2F1FF3F08BFB1F1FF3F05D05B18E6
:1086B00042F10002C4E9023235469DF8070000F09D
:1086C000B5F9002DBFD00848214604F0BFFCBBE738
:1086D0001D46F2E7B3F1FF3F08BFB2F1FF3FB2D052
:1086E000F1E700BFF829002000FF020013B5114B8D
:1086F00011491868019008231048582201F08EFA99
:10870000044698B90E4A0F4801A900F0CDF9044675
:1087100060B90C48012100F0C7FA01230A4A094850
:10872000194600F029FA094B01221A70204602B0BE
:1087300010BD00BFFAFE0200FC29002060230020CB
:108740002D88020074230020FFFF7F00F8290020FD
:1087500030B56AB103684FF0FF344FF0FF355A610E
:108760004A1E5142C3E9024551411961002030BD02
:108770000720FCE7F7B5044600250DF10700174672
:108780000E468DF8075000F02DF9D4E90223B3F11D
:10879000FF3F08BFB2F1FF3F07D1FFF717FF3018C7
:1087A00041F10001C4E9020101259DF8070000F034
:1087B0003DF955B12369A76103B126612146002027
:1087C00003B0BDE8F040FFF71DBF284603B0F0BD81
:1087D00037B5054600240DF107008DF8074000F07D
:1087E00001F9D5E90223B3F1FF3F08BFB2F1FF3F22
:1087F0001FBF4FF0FF324FF0FF33C5E902230124C2
:108800009DF8070000F012F934B12946012003B0A9
:10881000BDE83040FFF7F6BE204603B030BD000093
:10882000014800F05EBA00BF742300202DE9F74331
:10883000064600F041FA40B1624AD2E9003113F134
:10884000807341F10001C2E900310021304600F09F
:1088500042FA38B15C4C236823B12068FFF7EEFE82
:10886000002323600121304600F035FA20B1FFF7E4
:10887000ADFE564BC3E900015548534C01A901F028
:108880003CFA4FF0FF384FF0FF39A0B9DFF84481D0
:108890004D4D404604F0F0FB002800F08580D0E903
:1088A0000223B3F1FF3F08BFB2F1FF3F32D1404690
:1088B00004F0DCFBEDE70378012B20D0022B08D17C
:1088C000444D284604F0D2FB002877D0C0E9028945
:1088D000F7E75BB94168D1E90223B3F1FF3F08BF75
:1088E000B2F1FF3F02D03B4804F0B0FB01A9384889
:1088F00001F02EFA01A9364801F0FFF9C5E74168F9
:108900002368994202D100232360EFE7314804F045
:10891000B6FBEBE7296891B12968D1E902018242EF
:108920008B412FD22B68D3E90223B3F1FF3F08BF5D
:10893000B2F1FF3F03D02968404604F087FB404670
:1089400004F094FBD0E902490746FFF73FFE201AE6
:1089500069EB0109012879F1000318DBB0F5350F47
:1089600013D3FFF75DFF1C4A02441C484FF49603E3
:10897000002100F021F990B92B6813B9304600F0BE
:10898000F3F82F6003B0BDE8F0832246EDE713480B
:10899000002100F096F93846FFF750FE01E00D285F
:1089A000F9D000232B6074E7074B1B68002BE9D13B
:1089B000304603B0BDE8F04300F0DAB8084B0122BE
:1089C0001A7093E7F0290020602A0020582A00201E
:1089D0006023002000FF0200FFFFB400742300208A
:1089E000F829002070B5EFF3108672B60C4A94682F
:1089F00001239CB993600B4B0B4DD3F88010294099
:108A00001160C3F88050D3F8841051604FF0FF32EA
:108A1000C3F88420047006B962B670BD0370FAE72B
:108A2000642A002000E100E0FC06FFBD084B9A68C4
:108A300010B55AB150B9EFF3108172B6054A1C68EF
:108A400014605C685460986001B962B610BD00BFE4
:108A5000642A002000E100E003462AB110881A468B
:108A600019448A4203D170474FF6FF70F7E712F8B6
:108A7000013B40BA80B25840C0F30313584080EA2B
:108A80000033580100F4FF509BB25840E9E74358C7
:108A900082B03BB10023435043580193019B012016
:108AA00002B070471846FBE7F8B5264C4379264DCF
:108AB00044F8232005EBC303244E1B7973B173885C
:108AC000012B09D92248234B2349C01AC0080004AE
:108AD00040F00200FFF7A6FA0820F8BD03680A88F4
:108AE000C3F8082590F904408B7802795B01002CCB
:108AF000DBB221DB19490F1987F800330123640920
:108B000002F01F0203FA02F241F82420437905EB38
:108B1000C30245F8330073880121022B117109D972
:108B20000B480C4B0E49C01AC008000440F003006B
:108B3000FFF778FA0020D0E70A4902F00F028B54C1
:108B4000E4E700BF782A0020702A0020BC22002021
:108B5000A0F5020080F502000CFF020000E100E039
:108B60002EFF020014ED00E0036801221A60704736
:108B7000036801225A60704773B501F15005AD00DA
:108B80000068ADB24FF480348C400026C0F8084332
:108B9000C0F84843465101F5A8714559019522F0A6
:108BA0007F42019D40F82120C0F844430BB1C0F83A
:108BB000044302B070BD00002DE9F74F0D4622F0CE
:108BC0007F4402684FF4803705F150068F4080469D
:108BD000B60002EB8500C2F84873B6B2C2F808735B
:108BE000D2F8041599464FF0000BD0F84035C0F884
:108BF000401542F806B05B1A9259009223F07F4369
:108C0000012B009A4FEA850A0CD1264B4FF4806065
:108C100043F001039847D8F8003043F806B09B5959
:108C20000193019BD8F80010D1F80465C1F8447392
:108C3000A31B23F07F43012B1CD11A4B05F5A8750C
:108C4000013443F0010341F825404FF48060984718
:108C5000D8F80030D3F804359E4209D1D8F8003056
:108C60000020C3F84473C3F8047303B0BDE8F08F69
:108C70000D20FAE78A44C9F1FF13CAF84045D1F83C
:108C80000405221A013A22F07F4203F57F43934202
:108C9000EED3002AE2D10134CAF84045D1F80435B8
:108CA0009842DAE740FF020003680222C3F8442337
:108CB00009B1C3F80423704700684FF48271FFF7CD
:108CC000E6BE4FF4803303FA01F10368C3F848139A
:108CD000C3F80813704750318900006889B2FFF764
:108CE000D6BE0368D3F804057047000090F904303D
:108CF000002B09DB5A09012103F01F0301FA03F3DA
:108D00004032024941F82230704700BF00E100E0E4
:108D1000024B034A1B681068184700BF782A0020DE
:108D2000702A002070B5064D0646002455F8043B15
:108D30000BB1304698470134042CF7D170BD00BF09
:108D4000882A00204388033300EB830399420BD326
:108D500082884FF6FF739A4208D0038833B1806847
:108D6000431C584258417047022070470120704709
:108D7000033080B240F2FE33984230B51FD8134B17
:108D80001A783AB91C895D892C440444A4B2B4F51C
:108D9000806F0AD91A7DAAB99A8BDC8B22440244CF
:108DA00092B2B2F5806F0DD801220A8014461422C7
:108DB00002FB04335A8910445881002030BD48F228
:108DC0000860FBE748F20660F8E700BFBC2A002015
:108DD0000B4A0C495388142000FB0311CB6833B9AC
:108DE0000420496810700122074803F003BC0749BA
:108DF0000523137002238B80012209680023F3E707
:108E0000A02A0020BC2A002098220020742B0020D9
:108E100007B5002305490093054A0968054808235A
:108E200003F024FB03B05DF804FB00BF742B0020AB
:108E300064FF02009822002007B50023014600933A
:108E4000034A0448082303F011FB03B05DF804FB58
:108E50005CFF02009822002013B500230C4600930B
:108E60000146084A0848042303F000FB38B9074BC1
:108E7000142101FB043101230B7402B010BD48F230
:108E80000D60FAE758FF020098220020BC2A00205B
:108E900037B50A480A4B42689C88196853880325ED
:108EA000033305709BB2002000909B0001EB84010E
:108EB000044803F0DBFA03B030BD00BFA02A002055
:108EC000742B00209822002010B50146044800F0C1
:108ED000DAFE1C220446002106F04FFA204610BD9F
:108EE0007C23002068B10268084B9A4209D140688F
:108EF000074B984207D00133984214BF032001204A
:108F00007047032070470020704700BFDEC0ADDE11
:108F1000FE011EF12DE9F0410D460223154F2B8075
:108F2000164600F5805100F108044FF001088C420C
:108F30000ED2236801330BD02046FFF703FF48B160
:108F40000EB186F80080022809D14FF480632B808F
:108F5000BDE8F081A3683A68934200D93B602B8852
:108F60006288033313442B806388033304EB830448
:108F7000DDE700BFB42A002038B5144B14220D469B
:108F800002FB00302B68446804F58051A3B15C8873
:108F9000033403EB84048C4215D22368013312D0CE
:108FA0002046FFF7CFFE012808D002280BD000286A
:108FB000F1D12C60012038BD0834ECE7638803331D
:108FC00004EB8304E7E70020F5E700BFBC2A00209C
:108FD000426873B504460D466AB3234BD9688A428A
:108FE00029D31B699A4226D812F0030323D11F49C3
:108FF0000089098988421ED12068916888421AD167
:109000001B4841688A4203D901F580518A420DD339
:1090100081698A420CD901F580518A4208D2012225
:109020002A80B3FA83F0400902B070BD1A46F7E710
:1090300048F20963F5E700262E800196288801A9E9
:10904000FFF79AFF30B92B8801339BB2012B2B809D
:10905000F3D9E9E7019B226899689142EED16360F8
:10906000024B1B892381DFE798220020A02A0020E1
:10907000BC2A00202DE9F8431C461D4B1B780646F0
:109080000F46154673B382B37CB3DFF86C804FF0A4
:109090001409A388012B02D948F2096020E009FBDA
:1090A00003F318F803302BB9A0882146FFF764FFBB
:1090B00020B92060A3880133A380EAE723681EB1AA
:1090C000998832889142EFD11FB119883A8891422C
:1090D000EAD19A68C5E90023064B1B892B81002041
:1090E000BDE8F88348F20160FAE748F20460F7E768
:1090F000982A0020A02A0020BC2A002008B5074B8F
:109100005888191DFFF738FF18B1BDE80840FFF770
:10911000BFBEBDE80840FFF75BBE00BFA02A00202D
:109120002DE9F0479F4FDFF8A08288B006463B68E4
:1091300023B99D48414600F0E0FD38603D6829783C
:109140004B1E052B07D8DFE813F0200074007400D5
:10915000060106015D0148F20E641422002103A8F5
:1091600006F00BF941F61D539C4208BF00243B68F2
:1091700004941A78023A042A00F2FC81DFE812F023
:10918000DD01E9010B0213021A022EB1874B002206
:109190005A604FF40644E0E72B79032B1CD8DFE834
:1091A00003F014022A35824A1378022B1AD0137D59
:1091B000022B4FF0010317D114214B43D11800208B
:1091C000D0544868FFF738FE03E001232B71FFF706
:1091D0001FFE002800F0B980744B00225A6048F24C
:1091E0000D64BAE70023E7E7704A13700023536069
:1091F00041F61D54B1E76F496F48002302222B71DD
:109200008A800968012203F0F5F9E2E76B4B684CAC
:109210005B88684A14214B43E11800262E714D6883
:1092200010681560958848600D810221E654918090
:10923000C8E7B5F814A0AA7DDFF87491AEB1022A90
:10924000EB8806D9142101FB0A91DA1C0889024433
:109250000A81142202FB0A99C3F57F43B9F80A2058
:10926000FD331344A9F80A3093E7142303FB0A9350
:1092700018895C6804EB8004062A69D8DFE802F0EC
:10928000274E36441D5A040041F61D54AA7DEB8832
:10929000022A06D9142101FB0A91DA1C088902442A
:1092A0000A81142202FB0A99C3F57F43B9F80A2008
:1092B000FD331344A9F80A304FE7414841490023E0
:1092C0004360AB690360FFF783FE00285BD0022395
:1092D000AB75002300930423EA182146364803F0B7
:1092E000C5F8002831D048F20D64CFE72B69002B78
:1092F00014BF03230123AB750023009305F10C0277
:10930000042304F10801E9E70123AB750022EB888F
:1093100000922A699B0004F10C01DFE703290CBFCE
:1093200005230623AB7500230093042305F10802EF
:10933000E118D3E70623AB75224B1988204B5868F8
:10934000FFF78AFD04460028A0D108B0BDE8F087E9
:1093500048F20E649AE7002E7FF41BAF2B79012BA5
:1093600034D0022B3FF444AF002B7FF4F4AE022341
:109370002B710DF10A01EB68039303A8CDE9046694
:10938000FFF726FE10B948F20964E6E60498BDF836
:109390000A108388EB8003882B81FFF75DFD04466C
:1093A00029E000BFB82A00207C230020982A002052
:1093B000BC2A0020742B002098220020A02A002024
:1093C0007C2A0020802B0020B02A0020DFF80092A9
:1093D00003AA4B463146A81DFFF74CFE044670B960
:1093E000B9F804100498FFF737FD044648F2096302
:1093F0009C423FF4FDAE002C7FF4AFAEA5E7C9E977
:109400000066F3E7002E7FF4C4AE6C4B1A7BBAB152
:109410001E731A78013A062A3FF69DAE01A151F853
:1094200022F000BFCF940200F594020013950200D1
:1094300019950200579102001F9502003195020014
:109440001A78072AE5D801A151F822F06D9402009C
:10945000139402001394020093940200A794020054
:10946000CB940200CB9402008F9402001A895449D5
:1094700001321A8100225A801A730A78B2FA82F2F3
:1094800052099A720A7DB2FA82F25209DA72012204
:1094900007E04C4958688A884088033202448A8031
:1094A00002221A70B5E75C88454A4649142505FB37
:1094B00004220868546850608888108102200C607B
:1094C0008880002111740622EBE70722E9E79A7AE7
:1094D00032B9DA7A8AB900221A705A805A6087E65D
:1094E000374900229A72CA68002AF2D1097C002901
:1094F000EFD05A80FFF702FE51E70022DA72304ABD
:10950000116A0029E7D192F82420002AE3D0012231
:10951000EFE7FFF7BDFC42E7FFF75AFC3FE75A8849
:10952000274B142101FB02335868FFF785FC36E70F
:1095300000225A60FFF76CFC31E701228DF80C2005
:109540001A89ADF818209A88DB68ADF81A200593BF
:1095500010E002228DF80C201A89ADF818209A88A4
:10956000ADF81A20DA689B7D05929A1F5342534149
:109570008DF81C3003A8FFF7D5FB002641461248A2
:109580003E6000F0E5FB1148012100F044FC00289A
:109590007FF4CDADD9E603228DF80C20DA88ADF842
:1095A00018201A89D0E704228DF80C20DB88ADF84A
:1095B0001830DFE705238DF80C30DBE7A02A002008
:1095C000BC2A0020742B00207C230020702B00205C
:1095D000842B00204068FFF7A3BD000008B50548B4
:1095E000012100F000FC18B9BDE80840FFF798BD64
:1095F00008BD00BF702B00202DE9F34198460023E1
:10960000ADF80230414B1B7806460D46002B71D059
:10961000002972D009884FF6FF73994270D06B8889
:10962000002B6DD06B689B076DD142B92F896946BD
:109630003846FFF79DFB30B102B0BDE8F0811388DA
:109640005788ADF8003001A8FFF73EFC044660B92A
:10965000BDF800202E4B142101FB0233588903383A
:10966000C01B588148F20760E6E780F800800023BD
:109670008375BDF8003083826B6803610121254842
:1096800000F0BDFB2B882381B8F1030F6B88A3800A
:1096900001BF0423A3753368A361E06000220621A3
:1096A000E780201DFFF7D8F90DF10202ADF80200A6
:1096B000042104F10C00FFF7CFF9A968ADF802000E
:1096C000890068680DF10202FFF7C6F901A9ADF83B
:1096D00002006081104800F000FB3EB10023E26808
:1096E0007360B3720D4B32601B893381FFF776FFD5
:1096F0000020A1E748F201609EE748F204609BE782
:1097000048F2036098E748F2026095E7982A002043
:10971000BC2A0020B42A00207C230020A02A00209C
:1097200008B5034607480268042A08D00168064ABB
:1097300042F82130012100F062FB002008BD48F210
:109740000B60FBE77C2B0020882A00202DE9F04FDE
:10975000DFF8208289B01422002103A805F00DFE55
:1097600098F8003003F0FF0200923BB103A8FFF726
:10977000D9FA0027384609B0BDE8F08F08F1040097
:1097800000F055FB0028F4D1009BDFF8ECA1D3F8E2
:10979000F83F5C1C08BF4FF010234FF0805208BF09
:1097A0005B6911695269581C08BF02FB01F3CAF8D2
:1097B00010306949A3F5405300225046CAF80C30D6
:1097C00002F018FE07460028D4D11C2363496448E0
:1097D000DFF8A8B18C2200F021FA0323B9463D46F8
:1097E00001933C46DAF80C604E443046FFF77AFBB2
:1097F000012867D0032817D000283DD159494FF0E0
:10980000140C0CFB04FC01EB0C0201F80C0056607C
:109810000CF110020CF1080C0A4430466144FFF7C9
:1098200079FB45F002054AE03268531C02D04E4BEA
:109830009A4239D1321D06F580511068013033D17A
:1098400004329142F9D1DBF800203AB90222012317
:10985000CBF80060ABF8042000930BE014226243C5
:10986000404B022099189854404A4E60548001346D
:109870000881A4B245F0010509F58059B9F5405FAA
:10988000B0D1019B012B98BF0025EDB2022D03D072
:10989000062D36D0002D3ED1002388F8003048F246
:1098A0000A67C8F8043065E7019B2E495A1E93B237
:1098B00014226243881801934660032088540134BF
:1098C000A4B2D9E7009B6BB1264B142262439918CE
:1098D00002209854DBF800204A60244A0881548012
:1098E0000134A4B200222249CBF800603046FFF7D1
:1098F00011FBBBF80420022A0CBF042208221543E6
:10990000BAE7012388F8003003A80023C8F8043020
:10991000FFF708FA2EE702A8FFF7D6FAC8B101232D
:10992000013D03700A2D09D8DFE805F00608060896
:10993000070807080F110F000023037102A9084848
:1099400000F0CBF9FFF74AFE14E70323F5E7022303
:10995000F3E748F207670DE7A0080300E42A0020B8
:109960007C230020BC2A0020DEC0ADDEA02A00201F
:10997000782B0020982A002098220020742B0020A9
:109980002DE9F3410D46044668B361B301A9FFF721
:109990001FFB58B36668002206213046B6F80680E1
:1099A0007788FFF759F8791CADF806000DF106022B
:1099B000890006F10800FFF74FF8804519D1BDF87E
:1099C00004300D48142202FB030001210C3000F08A
:1099D00016FA63682E600C336B600123A3720020BB
:1099E00002B0BDE8F08148F20460F9E748F209608E
:1099F000F6E748F20C60F3E7BC2A002013B50446F2
:109A0000A8B10DF10601FFF7E3FA98B1BDF8062001
:109A10000B4B142101FB0233DA6872B1A27A62B1F6
:109A2000DA680020013ADA60A07202B010BD48F294
:109A30000460FAE748F20960F7E748F20560F4E7E6
:109A4000BC2A002002230022FFF7D6BD18B1032351
:109A50000022FFF7D1BD48F204607047104B1B781D
:109A600037B505469BB1A8B101A8FFF72DFAA0B103
:109A7000042303702B68C3600024047101A9094802
:109A800000F02BF9FFF7AAFD204603B030BD48F2E5
:109A90000160FAE748F20460F7E748F20760F4E78C
:109AA000982A00207C2300200F4B1B7807B5A3B118
:109AB00001A8FFF709FA98B10623037001A90B4822
:109AC00000F00BF90A4B1A780AB101221A73FFF75A
:109AD00085FD002003B05DF804FB48F20160F9E762
:109AE00048F20760F6E700BF982A00207C23002098
:109AF000A02A00200B46002102460846FFF7BABA0A
:109B000007B5ADF80600ADF804100DF1060001A987
:109B1000FFF7B0FA03B05DF804FB00002DE9F84F41
:109B20003C4B1B780446002B6DD000286ED0DFF82C
:109B3000E8901222002105F020FC032323804FF03F
:109B4000000A4F4614264FF00108D9F80410B9F85E
:109B50000AB0B9F808500846FFF7C4F9032808BF4F
:109B60002388628804BF03F1FF33238006FB0A7356
:109B70005D44DB681344638023899B446389A4F8B4
:109B800008B0ADB22B446381C5F58065A389ADB241
:109B9000AB4238BFA58101F1080501F58051A9420A
:109BA00029D92B68013326D02846FFF7CBF80128A6
:109BB0000AD0022815D00028F1D1A3880133A38050
:109BC0000AE04FF0010AC0E7E3880133E380E3894C
:109BD0006A8803331344E3816B88033305EB830501
:109BE000DDE7E38884F810804D1BE189013301EB48
:109BF000A501E380E18109F11409BAF1000FE0D079
:109C00000020BDE8F88F48F20160FAE748F20460EE
:109C1000F7E700BF982A0020BC2A002010B561B1E8
:109C2000B2FBF3F403FB1424A4B244B9C0E900145A
:109C300084608281C381204610BD0E20FCE709208C
:109C4000FAE782B050E8022FC188B2EB324F4FF0F2
:109C5000000317BF92B241EA014142EA014104E028
:109C60004268B2EB324F08BF012340E80212002ADB
:109C7000E8D18DF807309DF80730002B0CBF11207C
:109C8000002002B0704737B550E8013F9DB2C4894B
:109C900025448489A54228BF2D1B0489A54202BF03
:109CA000BFF32F8F002207E0C5EA030540E8015407
:109CB000002CE9D14FF001028DF803200193019AA5
:109CC0000A609DF8031001F0FF0321B1006810FA4B
:109CD00082F003B030BD1846FBE70A884B889A42F1
:109CE00009D150E8012FC2EA024240E80123002BCB
:109CF000F7D1012070470020704737B550E8023F88
:109D00001FFAA3F5C488A54202BFBFF32F8F00221C
:109D10000DE0C48925448489A54228BF2D1BC3EAD0
:109D2000054540E80254002CE8D14FF001028DF8BF
:109D300003200193019A0A609DF8031001F0FF03CC
:109D400021B1006800EB124003B030BD1846FBE7BC
:109D50000A884B889A4209D150E8022FC2EA22426F
:109D600040E80223002BF7D1012070470020704704
:109D700010B5034653E8000F0A4643E8002494F068
:109D8000000FF7D110BD10B5034653E8000F40EAAD
:109D9000010243E8002494F0000FF6D110BD10B585
:109DA000034653E8002F42EA010043E8000494F020
:109DB000000FF6D110BD10B5034653E8000F00EABE
:109DC000010243E8002494F0000FF6D110BD10B555
:109DD000034653E8002F02EA010043E8000494F030
:109DE000000FF6D110BD10B5034653E8000F00EB8D
:109DF000010243E8002494F0000FF6D110BD10B525
:109E0000034653E8002F02EB010043E8000494F0FE
:109E1000000FF6D110BD10B5034653E8002FA2EB9A
:109E2000010043E8000494F0000FF6D110BD0121B9
:109E3000FFF7A9BF0121FFF7B2BF0021FFF7BBBFAA
:109E40000021FFF7C4BF00002DE9F0478368D3F875
:109E50004831C3F340059B0788B0074606D500226A
:109E6000114608B0BDE8F04701F0ECBC012906D965
:109E70001E4A022108B0BDE8F04700F0CBBC1C4CE4
:109E80001C4EDFF874A04FF06408A946361B1C2353
:109E9000B6FBF3F6AE4204F11C0402D108B0BDE8F3
:109EA000F08754F81C0C54E90623017900689A1ACB
:109EB0001B1ADBB2039308FB03F3B3FBF2F3CDE908
:109EC000019334F8043C0093CDE9061254F8083CA1
:109ED00011FB08F13846B1FBF2F1CDE904215246FD
:109EE000082100F097FC0135D4E700BF6CFF0200A9
:109EF00040F6020078F602007FFF020010B590B134
:109F0000D0E9012301689B1ADBB20A60013BDBB296
:109F1000FF2B026802D10020107110BD11684C1C8B
:109F200014600B70F2E70E20F7E737B50546002402
:109F30000DF107008DF80740FEF754FD2A686B68A5
:109F4000116899420ED9481E106011F8013CEC6866
:109F5000298B01FB0344AB6811791B1ADBB29942D0
:109F600038BF13719DF80700FEF760FD204603B06F
:109F700030BD37B5054600230DF107000C468DF8BE
:109F80000730FEF72FFD2A681368591C1160E96835
:109F9000641A298BB4FBF1F41C709DF80700FEF7DE
:109FA00045FD03B030BD30B18A68B2F8483143F0A6
:109FB0002003A2F848317047436810B59C68606878
:109FC000036801219B689847A36810B903221A709F
:109FD00010BD0422FBE70968006805F023BA000001
:109FE0002DE9F843089E1D460C46F1B9194E1A4951
:109FF000891BB2EBD10F4FEAD10905D2174F0436B6
:10A0000007EB8207A14502D100232B6009E056F837
:10A0100034803868D8F8001005F004FA18B9C5F88B
:10A020000080BDE8F8830134ECE70028ECD001782B
:10A03000436839B13146104698473368002BE3D066
:10A040002E60EEE7110103EB02125B58002BDBD010
:10A050002A60E6E7D4F4020044F502006022002002
:10A0600030B583680546D3F8400187B0E8B10023D6
:10A07000092203A9019002F073FDAB68049AC3F8AA
:10A0800040210024234601988DF81440092203A999
:10A09000CDE9034402F05AFD019802F000FDAB68DF
:10A0A000D3F8400118B9C3F83C0107B030BD2346CE
:10A0B00003A9092202F054FDA8680394D0F84001D6
:10A0C0002346092203A902F041FDEEE708B105F09D
:10A0D000D0B9704710B584680068FFF7F7FFE37FD9
:10A0E0001844637EB0FBF3F203FB1200B0FA80F079
:10A0F000400910BD10B584680068FFF7E7FFE37FF3
:10A10000627EA07653FA80F3B3FBF2F102FB1133C7
:10A1100001332375A37F53FA80F00131B0FBF2F3D2
:10A1200002FB1300A1750130591C6075E17504F143
:10A13000140010BD10B584680068FFF7C7FFA37F47
:10A140001844637EB0FBF3F203FB1200B0FA80F018
:10A15000400910BD07B58368DA7E8A421ED01B22F3
:10A160008DF800205B228DF8012031228DF802202D
:10A170003B228DF8032033228DF8042001F12F02B9
:10A180008DF805206D22D9768DF8062000228DF8F5
:10A190000720044900696A4601F063FF03B05DF8D7
:10A1A00004FB00BF590103000A4609B1FFF7D2BF03
:10A1B0008168CA760069024A024901F052BF00BFB5
:10A1C000E20403005901030007B583681A7F8A423D
:10A1D00018D01B228DF800205B228DF8012034223C
:10A1E0008DF8022001F12F028DF803206D221977DE
:10A1F0008DF8042000228DF80520044900696A4684
:10A2000001F02FFF03B05DF804FB00BF590103000C
:10A210002DE9F743002506460F46144605602078D1
:10A2200040B104F057FE68B1002304F8013B3368E5
:10A230000B2BF4D933680022284647F8232003B0BB
:10A24000BDE8F08333685A1C326047F82340054666
:10A2500094F80080B8F1000FE9D0002D77D1B8F163
:10A26000270F05D0B8F15C0F79D0B8F1220F66D175
:10A270002046FFF72BFF611C0246204604F0AEFE8D
:10A280004546E5E72046FFF721FF611C02462046D0
:10A2900004F0A4FE0025DBE7302826D102234FF08E
:10A2A0000008E05CA0F13001C9B207295FFA83F928
:10A2B00018D8013341EAC801052B5FFA81F8F0D1C3
:10A2C000994609F1FF31214420460191FFF7FEFE36
:10A2D0000230A0EB09020199204604F07FFE04F849
:10A2E000018BB5E7B9F1020FEBD178282DD102210E
:10A2F0004FF00008635CA3F13002D2B2092AC8B261
:10A300000AD842EA081303295FFA83F802D14FF012
:10A310000409D6E70321EDE7A3F16102052A03D87A
:10A32000573B43EA0813EEE7A3F14102052A01D89F
:10A33000373BF6E7022808D04FF00309C1E7404653
:10A3400004F0C8FD00287FF472AF013480E7A8450F
:10A3500098D0B8F15C0FF8D1607885429CD1204646
:10A36000FFF7B4FE04F1010802464146204604F01E
:10A3700035FE44466CE72DE9F34105460F46144689
:10A38000002614B902B0BDE8F0816868036822466F
:10A39000D3F80C80B91901ABC047019B1E44E41AE5
:10A3A000002BEED1AB681A78032AEAD0D3F8482103
:10A3B0009206FBD5B3F848216FF34512A3F8482164
:10A3C000DFE700000A46014901F04BBE90000300A0
:10A3D00011B10069FFF7F6BF70470000014901F0B5
:10A3E00040BE00BF0B000300014A024901F039BE24
:10A3F000F304030059010300014A024901F031BE90
:10A40000DF04030059010300014A024901F029BE9B
:10A41000DB040300590103000A4619B1024900692F
:10A4200001F01FBE704700BF960003000A4619B135
:10A430000249006901F015BE704700BF9C0003008F
:10A4400038B50546FFF756FE8379027881780133E7
:10A450009A42044601D1012913D0012904D90139B6
:10A46000C9B22846FFF7D8FF2378A1798B4209D9D2
:10A47000013B591AC9B22846FFF7D8FFAB68002242
:10A48000DA7738BD0131C91AC9B22846FFF7A0FFF3
:10A49000F4E7F8B50546FFF72DFE8778C678044641
:10A4A0002846FFF717FE18B92846FFF743FE10B1FC
:10A4B0002869FFF793FFB74208D161782378C91A5A
:10A4C0002846C9B2BDE8F840FFF7B0BFA378E178ED
:10A4D000C91AC9B22846FFF79FFF237861788B42DB
:10A4E000EDD9591A2846C9B2BDE8F840FFF770BF48
:10A4F0002DE9F04F044685B00E4690460025705D6C
:10A5000004F0E8FC20BB5FFA88FA3046FFF7DEFD76
:10A51000A3685B7E401BA3EB080B584506EB0509BF
:10A5200018D94A46002712F8011B039308460292E5
:10A53000019104F0CFFCDDE9022318B101990A2949
:10A5400031D0BB4608EB07018B422BD90137EAE734
:10A550000135D4E74B460027B84217D013F8012B3A
:10A560000A2A05EB070A1BD1206901F06FFD494655
:10A570003A462046FFF7FFFE2069FFF72FFF5FFAFC
:10A5800088F120460AF10105FFF722FF20697119C1
:10A5900001F067FD206905B0BDE8F04FFFF71EBF71
:10A5A0000137D9E75F46206901F050FD3A46494638
:10A5B0002046FFF7E0FE3D44705D04F08BFC38B9A7
:10A5C0002069FFF70BFF51462046FFF701FF9CE78C
:10A5D0000135F1E72DE9F34105468068424F00243B
:10A5E00080222146A0308DF8034004F0C6FE3F498A
:10A5F000286901F036FD286901F028FD4FF47A76CC
:10A6000047F00107686803680122D3F810800DF154
:10A61000030101ABC047019B5BB94FF6C010B847BF
:10A62000019B002BEED1013EB6B2002EEAD10D20E7
:10A6300035E09DF80330AA681B2B48D092F8A01093
:10A640001B29EDD1522B42D11444002384F8A030B1
:10A6500092F8A1105B291FD102F1A20602211D462A
:10A6600016F8010B4C1C3B28E1B264B21AD1002C45
:10A6700020DB01F1A0041444002314F8010BD8B925
:10A68000FA2B28BFFA23FA2D13752B4628BFFA237D
:10A69000937582F8A00002E082F8A0300B2002B08F
:10A6A000BDE8F08105EB850300EB4303303B8029D7
:10A6B0009DB2D5D10C20F2E703EB830300EB4300FE
:10A6C0004E1C303883B23006F1B2F3D4D5E71119FD
:10A6D0000134E4B2092C81F8A030A1D9002382F81A
:10A6E000A0300420DBE700BF10050300FA040300DC
:10A6F00038B50546FFF7FEFC027843789A420446D7
:10A700008378C27801D1934213D09A4205D9D21AE4
:10A710000B492869D2B201F0A4FC237861788B42FE
:10A7200008D9591AC9B22846FFF780FEAB689A7F4C
:10A73000DA7738BDC91AC9B22846FFF749FEF5E7EE
:10A74000A2000300F8B51E46C3685B680546986022
:10A750004068036817461C68284A2B46A0470446F1
:10A76000002842D1686902F098F9044600283CD1DB
:10A7700001464FF4A672A86804F0FFFDA9682048BE
:10A78000B1F848311F4A43F02003A1F84831B1F82D
:10A79000483167F38203A1F84831B1F8483143F0FA
:10A7A0000803A1F8483101230B7045F218030B830D
:10A7B000121A154B4FEAD20C21460430614516D1CE
:10A7C000072A04D9114B1048042204F021FC66B179
:10A7D0009DF81810E868FDF749FC0028A1BFEB6858
:10A7E000DB6801225A71B8BF04242046F8BD50F836
:10A7F00031703F6843F8047B0131DFE7A79F020017
:10A80000D4F4020044F5020060220020D79F020029
:10A81000FFF7B1BD0CB473B506AB044653F8046B37
:10A8200001938368D3F848516D0719D5DD7E8D42B9
:10A8300016D0B3F81B50FFF7B7FC206901AA3146C8
:10A8400001F08EFCE9B22046FFF7AEFC290A02D0E7
:10A850002046FFF7B9FC02B0BDE8704002B0704777
:10A86000206901AA314601F07BFCF4E782680021EF
:10A87000D18382F820100368014A0321FFF7CABF81
:10A8800059010300F8B504468068867FB3187F2B12
:10A890000F46154638DC002A36D0C37FF61A03F17E
:10A8A000200113442033F6B20144721C184404F012
:10A8B00095FBA068C37F20332A463946184404F02C
:10A8C0008DFBA76807F12000FFF700FCFB7F0F4A14
:10A8D000B87720333B4420460821FFF79BFFA3684D
:10A8E000DA7F1544DD772046FFF7F4FB18B92046E0
:10A8F000FFF720FC10B12069FFF770FD26B120465C
:10A90000BDE8F840FFF7C5BDF8BD00BF5901030021
:10A910002DE9F04104468068D0F84861827FC37F0A
:10A92000C6F30008D51A16F001060F46EDB23CD169
:10A930007E2A3ED83DB103F12001213301442A464D
:10A94000184404F04BFBA368DA7F1A4482F82070A5
:10A95000002E6AD19A7F0132D2B29A77134483F8DB
:10A960002080002D6AD02046FFF7C4FB8278C37890
:10A970009A4220D1A268D37F203313440821204675
:10A98000314AFFF747FFA91BC9B22046FFF74EFD2A
:10A99000A268D37F0133D3772046FFF79BFBF0B14A
:10A9A0002069BDE8F041FFF719BD7E2ACBD9002D03
:10A9B000C9D1BDE8F0812069FFF71EFDA268D37FF1
:10A9C000203313440821204A2046FFF723FF206943
:10A9D000FFF70AFD20690121FFF7F4FCD8E72046C4
:10A9E000FFF7A8FB0028E4D02046FFF783FBC278DE
:10A9F0008378013AD21A12F0FF02054603D01349B8
:10AA0000206901F02EFB2069FFF7E8FCE978AB78BC
:10AA1000C91A2046C9B2FFF7FFFC29780139204640
:10AA2000C9B2BDE8F041FFF7D3BC002D9BD1987FA0
:10AA30000130C0B29877034483F82050044920695C
:10AA40003A4601F00EFBA3E759010300A200030000
:10AA50004FFE020070B5836886B00025CDE903552E
:10AA6000D3F844218DF8145004460E46002945D1F0
:10AA7000002A3ED0FFF7E4FCA0683346D0F844013A
:10AA8000092203A902F06CF8A668049BB57FC6F8FA
:10AA90004431002B52D106F1A00108460191FFF785
:10AAA00015FB019938B306F1200004F099FCA06869
:10AAB0002030FFF70BFB8DF814009DF81430A268CE
:10AAC000AB42D377937702D22069FFF79DFCA3684E
:10AAD0002C4A204620330821FFF79CFE2046FFF732
:10AAE000F9FA18B92046FFF725FB10B12069FFF7E6
:10AAF00075FC06B070BD86F82000D8E7D3F8401189
:10AB00009142F6D0D3F83C31002BF2D0FFF798FCFD
:10AB1000A668D6F8440140BB06F120010846019121
:10AB2000FFF7D4FAD6F83C310199C6F8443110F059
:10AB3000FF0517D006F1A00004F052FCA06803A99D
:10AB4000D0F844010023092202F00AF8A0689DF819
:10AB5000142000F120010923D0F84401013201F052
:10AB6000FFFFAAE786F8A050E8E72B46092203A9D1
:10AB700001F0F6FFA368039A9DF81450C3F844212E
:10AB8000DCE700BF5901030038B504468068C37F85
:10AB9000857FED1A15F0FF053BD003F1210120332D
:10ABA00001442A46184404F019FAA268937F013B35
:10ABB00093772046FFF79EFA8278C3789A4214D1A1
:10ABC000A268D37F203313442046124A0821FFF79E
:10ABD00021FE20690F49104A01F043FA691E204600
:10ABE000C9B2BDE83840FFF721BC2069FFF704FC7B
:10ABF0002069FFF709FCA268D37F20331344204665
:10AC0000044A0821FFF706FE2069BDE83840FFF737
:10AC1000EBBB38BD59010300EF0403002DE9F041FF
:10AC2000C3685B6890B004460D461868002203A90B
:10AC300002F08BF8002840F08A808DB1039801F073
:10AC400077FFA268D2F838310133C2F8383103F007
:10AC50000703012B04D00125284610B0BDE8F08180
:10AC60002046FFF747FA81780129064604D90139C1
:10AC7000C9B22046FFF7D0FB3178012904D9013948
:10AC8000C9B22046FFF7D2FB2069FFF7BDFB2DB10B
:10AC9000304A02212046FFF7BDFDDDE700230822F0
:10ACA000039804A901F05CFF069B0793059B08939A
:10ACB0009DF810308DF8255003F00302012A25D1AC
:10ACC000BDF81020049E0398C3F3C203C2F3831798
:10ACD0008DF82430BA0008230AA901F041FFC6F319
:10ACE0009526236900933A4607AB0AA93046FDF73B
:10ACF0004BFB039801F01CFFE3685B6800221868B7
:10AD000003A902F022F80028C8D0A4E7022AF0D153
:10AD1000BDF81260C3F3C203C6F389168DF8243060
:10AD20004FF00808082E374628BF082743460398E7
:10AD30003A460AA901F014FFF61B236907AA39460F
:10AD40000AA8B844FDF784FB002EEBD1D1E700251B
:10AD500082E700BFA8000300436801219868FFF75D
:10AD60005DBFF7B547680191BD68AB681E78042EDA
:10AD70000ED0386801A901F016FF044650B90198B9
:10AD800001F0D2FE032E03D121462846FFF746FFED
:10AD900003B0F0BDF11E18BF01212846FFF73EFFAA
:10ADA000E7E700002DE9F04F83468068A7B0102147
:10ADB00000F5A470FEF7F3FFDBF808301B78022BD8
:10ADC0007ED100230D93DBF80400036801221C6987
:10ADD0000DF133010DABA0470D9B002B55D09DF914
:10ADE0003330002BEFDB01F0C5FEDBF80840637861
:10ADF000012B00F04F84022B00F05384002B40F015
:10AE00001E859DF833500D2D1FD00A2D1DD0B4F88E
:10AE1000482163F38D12A4F84821092D00F0F48134
:10AE200000F2E181002DCED0082D00F0C08328462D
:10AE300004F058F80028C6D0D4F848311E07C3F3F0
:10AE4000C00040F11584294614E3D4F8483113F4C6
:10AE50007F5F05D0D4F84831C3F387139D42DCD11E
:10AE6000B4F84831A67F65F38D13A4F84831B6BB1A
:10AE7000C4F84461DBF81000FFF7B0FADBF80830E3
:10AE800002221A705846FFF7F1FC00215846FFF7DE
:10AE9000C5FEA8B1DBF80030B64A03215846FFF7DB
:10AEA000B9FCDBF80830D3F84821120708D558461A
:10AEB000B04A20330821FFF7ADFC5846FFF7E9FA06
:10AEC000DBF8100001F0C2F8DBF808006FF01001A9
:10AED00000F5A47027B0BDE8F04FFEF778BF94F8F6
:10AEE0002030002B61D1DBF8085005F12000FFF77E
:10AEF000EDF8002610F0FF04C5F8446124D0D5F821
:10AF00003C01002800F091803346092219A901F084
:10AF100027FE9DF86C309C4240F08780DBF80800EB
:10AF2000092300F1A001621CD0F83C0101F018FED9
:10AF3000DBF8085005F1A00105F1200004F072FAD9
:10AF4000002870D185F8A0005846FFF7D1FB58467D
:10AF5000FFF7C0F818B9DBF81000FFF73FFADBF88D
:10AF6000082019A9203210A8FFF752F9109B002BD6
:10AF700080D0002840F0A2807F4E804D199BAD1BF1
:10AF8000ED080446A54240F0A0807D4A00920221CF
:10AF90007C4A5846FFF73EFC70E70135B5F5807FE7
:10AFA00004D1002384F820309DE700256319EFB217
:10AFB00093F8200003F08EFF0028EED16FB104F16A
:10AFC0002000721C521B411904F008F8DBF808201D
:10AFD000937FDB1BDBB29377D377DBF80860B57F19
:10AFE00005F11F073744BA465FFA87F953460293C3
:10AFF000187803F06FFF5FFA8AF8A9EB0804029B48
:10B00000E4B20AF1FF3A0028F0D19F423FF46BAF5F
:10B010002C1BA8EB090334442B44DBB284F820003A
:10B02000B377F3775FE785F8A060082604F10A0597
:10B03000DBF81400294601F048FD0446002837D00B
:10B04000DBF80830D3F83C01B0B9C3E94F44CDE98F
:10B0500019009B7F8DF86C3019A920460023092226
:10B0600001F074FDDBF808108A7F092301322031DA
:10B07000204601F06BFD67E70023092219A901F0C2
:10B080006FFDDBF808001A9400230922D0F83C0178
:10B0900019A901F05BFD00231A93DBF80830D3F8FF
:10B0A0003C2119929A7F8DF86C20C3F83C41D3E77C
:10B0B0005846FEF7D5FF013EBAD145E70346324A6E
:10B0C00002215846FFF7A6FBD8E67268029318469D
:10B0D000116804F0A7F93746029B083618B101340D
:10B0E000A542BFF44FAFDBF8080000211022043066
:10B0F000119104F042F97C68E36833B194E80F00E1
:10B10000DBF80850043585E80F00D4F80890DFF824
:10B1100080A019AE4FF0000801250027109BAB421C
:10B1200012D974685146204604F07CF920B11749C1
:10B13000204604F077F968BBDBF80820B2F8483104
:10B1400043F00203A2F84831DBF808301B69002BFA
:10B1500043D0109919AA02EB8802A1EB08015846C6
:10B160009847DBF80830B3F848216FF34102A3F8A1
:10B17000482183E659010300D4F4020044F502009B
:10B18000EA000300B6010300D6000300010103003A
:10B19000FE00030015AB0093484611AB3A46294622
:10B1A000FEF71EFF781CCFD0119C002CCCD021685C
:10B1B000706804F037F901370028AFD1E3683BB17C
:10B1C00094E80F00DBF80870043787E80F00A84602
:10B1D000D4F80890013504369FE7A84A0221584662
:10B1E000FFF718FBBDE71B2D0BD07F2D7FF41FAEA3
:10B1F000D4F848311F077FF5E6AD5846FFF7C4FC89
:10B20000E1E501236370DEE5D4F8483119077FF5E5
:10B21000DAADA37FC3F17F0313F0FF0304933FF480
:10B22000D2ADE27F04F1200104F1A00004F07CF82B
:10B23000DBF80850EB7F2B440024D87F83F8A04034
:10B2400003F048FE031B18BF012305F1A00205907F
:10B25000C5F8444119A90EA80693FEF7D9FF19981D
:10B26000FEF734FFCDE90F44C3B2029325462746CB
:10B270000394A24626460E9B2BB1069A013B13442B
:10B28000AB4200F28C80059B002B3DD126AB03EB3B
:10B29000850353F8340CFEF719FFC3B2029326ABB3
:10B2A00003EB85034FF00009099309F101030793AC
:10B2B00011AB00934A460FAB29463846FEF790FE85
:10B2C0000F9B002B54D01968099B029A53F8340C39
:10B2D0000B9103F0A9FF0890C0B9039B0B990133B0
:10B2E00003930846109B0A93FEF7F0FE0A9B5FFA51
:10B2F00080F893B9029B049AA8EB03039A4201DDFC
:10B30000DBB20493CA4626E00023C7E7A046DDF877
:10B310001C904446C9E74E46F9E7A045049B38BF58
:10B32000A0465FFA88F8B3B115AB0093324610AB74
:10B3300038462946FEF754FE0F9B089E1868109B5E
:10B340001C68029AB118F3B2425CFAB9049A9A42A4
:10B3500028BF1A4604920F9B1093079B002BDAD14B
:10B36000474A04215846FFF755FA44464FF0FF3646
:10B37000002F40D00F9B002B3DD00E9B069A01352D
:10B38000EDB213449D42FFF476AF34E0615C91422C
:10B39000DCD10136B6F5807FD3D1FF23D6E726ABCB
:10B3A00003EB85034FF00008079311AB009342466F
:10B3B0000FAB29463846FEF713FEB8F1FF3F05D123
:10B3C0002F4A04215846FFF725FAFCE4DDF83C90AB
:10B3D000B9F1000F3FF4F7AC079BD9F8001053F810
:10B3E000340C04F01FF808F101080028DDD1D9F869
:10B3F0000870002FC1D1039B002B3FF4E4AC012B5C
:10B400005ED13B783BB111AB0093324610AB29467D
:10B410003846FEF7E5FD109B1C682046FEF756FEF9
:10B42000029B984205D01946049A21445846FFF7DA
:10B4300029FADBF80840E57F631993F8200003F050
:10B4400049FDF8B9D4F84831DA0712D5B4F84831D3
:10B4500060F30003A4F8483120215846FFF758FA5A
:10B46000DBF80820B2F8483143F00103A2F8483174
:10B47000A9E420215846FFF74BFAA4E40801030091
:10B4800026010300A37FAB427FF69DAC5846FEF732
:10B4900031FEDBF808208478D37F0133D377584618
:10B4A000FEF728FE8378A34205D1DBF810000121C6
:10B4B000FEF788FF87E4DBF81000FEF78FFF82E4D9
:10B4C000DBF80830CB4E00225A7726AB03EB85031E
:10B4D00006930AF10103059311AB524600932946E6
:10B4E0000FAB3846FEF77CFD0F9B029AD3F800A005
:10B4F000069B514653F8340C03F096FE90BB039B19
:10B500003046013B0393FEF7E1FDDBF8083007937B
:10B510005A7E04EB0008A2EB00095046FEF7D6FD68
:10B52000079B5A7F5FFA88F8511CB9FBF8F95FFA5C
:10B5300089F95977B2FBF9F309FB1322A8EB00084C
:10B54000D2B25FFA88F882B9AB4ACDF800A0334690
:10B5500007215846FFF75EF941465846FEF738FF87
:10B56000039B4BB1DDF814A0B3E7A44A534607216F
:10B570005846FFF74FF9EFE7DBF80030A04A58468E
:10B580000321FFF747F9DBF808309C4A20330821F4
:10B590005846FFF73FF95846FEF77BFF109B049A89
:10B5A0001968029B58461944FFF76CF90BE4D4F86C
:10B5B00048311B077FF507ACA67F002E3FF403AC94
:10B5C000E07F00283FF4FFAB361A00F12001F6B20D
:10B5D0001F30721C2144204403F000FDDBF80830CA
:10B5E000DA7F013ADA779A7F013A9A77C6B32A4628
:10B5F0008449DBF8100000F034FD5846FEF77AFD70
:10B600008278C3789A4213D1DBF80820D37F2033A5
:10B6100013442946794A5846FFF7FCF8DBF8100036
:10B62000FEF7F2FE31465846FEF700FFFFF7CBBBB0
:10B63000DBF81000FEF7E0FEDBF81000FEF7E4FE9A
:10B64000DBF80820D37F2033134458466B4A294641
:10B65000FFF7E0F8DBF81000FEF7C6FEFFF7B3BB1C
:10B66000694A6649DBF8100000F0FBFCFFF7ABBB52
:10B67000A27F7E2A3FF6A7ABE17F4B1CDBB2E377CC
:10B6800021442344013281F8205083F82000A2771E
:10B69000FFF799BB9DF833305B2B40F0D08002233D
:10B6A000B0E500236370D4F8483119077FF5EDAB9E
:10B6B0009DF83330313B1B2B3FF685AB01A252F88E
:10B6C00023F000BFE5B7020019B8020039B8020044
:10B6D000D7B70200C7AD0200C7AD0200C7AD020078
:10B6E000C7AD0200C7AD0200C7AD0200C7AD020082
:10B6F000C7AD0200C7AD0200C7AD0200C7AD020072
:10B70000C7AD020035B7020041B7020045B70200DD
:10B7100093B70200C7AD0200DBB70200C7AD02005D
:10B72000E9B70200C7AD0200C7AD0200C7AD020015
:10B730001DB8020001215846FFF78CF9FFF743BB03
:10B740000021F8E75846FEF7D5FC037842789A4284
:10B75000044604D18178C27891423FF434AB6279D7
:10B760009A4210D12949DBF81000012200F079FC3F
:10B7700061795846FEF75AFEDBF80820D37F013383
:10B78000D377FFF720BBDBF810000121FEF71AFE8C
:10B79000F2E75846FEF7AEFC8379027801339A420D
:10B7A000044603D18378012B3FF40DAB012ADBF86B
:10B7B00010000BD1164900F054FC61795846FEF791
:10B7C00007FEDBF80820D37F013BD9E711490122AE
:10B7D00000F047FCF5E7032363705846FEF788FF47
:10B7E000FFF7F1BA032363705846FEF729FEFFF70F
:10B7F000EABA00BF4AFE02005201030059010300E9
:10B80000580103004FFE0200F6040300A2000300EB
:10B81000960003009C00030003236370D4F84831B2
:10B82000B4F8482103F0010383F0010363F300023D
:10B83000A4F84821FFF7C7BA03236370D8E40023B4
:10B84000E0E400BF2DE9F04F8BB0836817466C4AE7
:10B85000009204466B4A5B680D460821FEF7DAFF4A
:10B86000A6687068FEF732FCB168033082B211B18D
:10B870002046FEF73DFE644A00212046FEF7CAFF3F
:10B88000002F3DD0002D3BD04FF00C0AA9460AFBFB
:10B89000075A0826D9F80400FEF718FC8046D9F8A4
:10B8A0000000FEF713FC4044B04209F10C0988BFC8
:10B8B00086B2CA45EED106F10408544B544A0093AF
:10B8C0001FFA88F806F107090821204643461FFAA7
:10B8D00089F9FEF79FFF4F494A462046FEF708FECA
:10B8E0002DB1DFF82CB14FF0000ABA450AD1A36898
:10B8F000D3F80C80B8F1000F3ED10BB0BDE8F08F4B
:10B900000826D8E7D5E9002373B32AB30192424A47
:10B9100000920821414A2046FEF77CFF6868FEF746
:10B92000D5FB03902868FEF7D1FB0399B31C591A85
:10B93000091AC9B22046FEF74BFD394920693A225F
:10B9400000F08FFBA96899B14A462046FEF7D0FD6A
:10B950000AF1010A0C35C8E7009343465A4608210C
:10B960002046FEF757FFEDE7002AEBD00092F4E700
:10B970002069FEF733FDEBE700220592174606AE7D
:10B98000009605AB0121404602F10109FEF728FBB4
:10B99000059D3DB12868FEF799FBB84200D987B2F2
:10B9A0004A46EDE7B9F1010FA7D01E4ADFF860A0C3
:10B9B00029462046FEF72EFF2A46BD1CADB205AB38
:10B9C00000960121404602F10109FEF709FB059BA3
:10B9D000002B92D01B68009308212B46524620462C
:10B9E000FEF718FF059B596831B17A1D92B22046C7
:10B9F000FEF77EFD4A46E2E72069FEF7EFFCF9E735
:10BA0000FF040300530103005C010300160503005B
:10BA1000660103006E010300880603008101030034
:10BA20004FFE02008A01030000221146FFF70ABF01
:10BA3000022910B5044608D18368D3F848319B0722
:10BA400003D5BDE81040FFF7EFBF2069054A06495E
:10BA500000F007FB2069054A0349BDE8104000F0EB
:10BA600000BB00BFEB04030059010300E604030020
:10BA7000012906D0022906D18368D3F848319B07F3
:10BA800001D5FFF7D1BF024A0221FEF7C3BE00BFB6
:10BA90000801030038B58368D3F84821C2F3400594
:10BAA00092070C4606D500221146FFF7CBFE2C4626
:10BAB000204638BD0029FBD05B68024A0221FEF710
:10BAC000A9FEF5E798010300012937B5054614469C
:10BAD00004D103B0BDE83040FFF7A6BF023918BF5C
:10BAE0000121FFF7D7FF48B963680193044B009326
:10BAF000044A236802212846FEF78CFE03B030BDBD
:10BB0000F9F70200B3010300012907B504D103B01E
:10BB10005DF804EBFFF788BF02290AD1536801934F
:10BB2000084B00931368084AFEF774FE03B05DF8F3
:10BB300004FB8CBF0121002103B05DF804EBFFF78B
:10BB4000A9BF00BFF9F70200B3010300013910B526
:10BB500018BF01210446FFF79DFF40B9044A05497B
:10BB6000206900F07EFAA36845F218021A8310BD1E
:10BB7000D5040300590103000129F7B50446154611
:10BB800033D18568FEF726FD18BBA36820691F7DA9
:10BB90009E7DFA21FEF716FC20691D49FA2200F06D
:10BBA00060FA2046FEF716FD98B9A368197D6976FC
:10BBB000A368C91B9B7D2B762046C9B2FEF736FCD5
:10BBC000297E891BC9B2204603B0BDE8F040FEF7CC
:10BBD00023BCA36845F218021A830E4A04212046AA
:10BBE00003B0BDE8F040FEF715BE022994BF002166
:10BBF0000121FFF74FFF48B96B680193064B009393
:10BC00002B68064A02212046FEF704FE03B0F0BD71
:10BC1000A2000300BC010300F9F70200B301030016
:10BC20002DE9F041013986B018BF01210546FFF723
:10BC300031FF40BBAB68DFF85480D3F84061044665
:10BC4000EEB1082C1BD030460023092203A900F0D6
:10BC500087FF9DF81420A968304609230132A031DE
:10BC600000F07EFFAB68049EA0330093671C234660
:10BC7000424600212846FEF7CDFD3C46E0E7AB6892
:10BC8000002283F8A02006B0BDE8F081F601030091
:10BC9000013910B518BF01210446FFF7FBFE30B98A
:10BCA000A368B3F8482160F38202A3F8482110BDCD
:10BCB000013910B518BF01210446FFF7EBFE30B97A
:10BCC000A268B2F8483143F00403A2F8483110BD2D
:10BCD000013910B518BF01210446FFF7DBFE30B96A
:10BCE000A368B3F8482160F3C302A3F8482110BD4C
:10BCF000013910B518BF01210446FFF7CBFE30B95A
:10BD0000A268B2F8483143F00803A2F8483110BDE8
:10BD1000022973B50D4694BF002101210446164641
:10BD2000FFF7B8FE014658B9022D0BD17368019395
:10BD30000C4B00930C4A336829462046FEF76AFDF7
:10BD400002B070BDA368094AD3F8483113F0080F58
:10BD5000074B18BF1346074A204602B0BDE87040A3
:10BD6000FEF758BDF9F70200B301030097FA02008D
:10BD70000002030004020300013910B518BF0121BD
:10BD80000446FFF787FE48B9A368C3F83801E368A3
:10BD90005B68BDE81040186801F01FB810BD0000D6
:10BDA0007FB5013918BF01210446FFF773FE054630
:10BDB000B8B9E3685B681E68304601F00BF8B268FA
:10BDC000A168C3B2CDE9013264204343B3FBF2F36F
:10BDD000DBB20093D1F83831034A29462046FEF7FA
:10BDE00019FD04B070BD00BF150203001A60C068E1
:10BDF0001A4601F0C4B8000010B4074C0378E35CA5
:10BE000023B15DF8044B043001F03CBF5DF8044BF6
:10BE10000C3001F045BC00BF442C00204069054AAD
:10BE20000378D35C13B1043001F0E6BF0C3001F0AD
:10BE300001BD00BF442C00200378044AD35C13B139
:10BE4000043001F08FBE0C3001F0C2BB442C002046
:10BE500010B504464069FFF7EFFFA368BDE8104046
:10BE60001868FCF7B5BC000037B5FF230446009303
:10BE7000C06801236A4601A900F0BCFF98B9009888
:10BE800088B163690B4D0199C2B21878285C60B122
:10BE9000181D01F045FF30B9A3682246186840F22A
:10BEA0006661FCF767FC03B030BD03F10C0001F0E4
:10BEB00047FCF0E7442C002038B5436893F828305D
:10BEC00004460D460BB383681868FCF781FC30F01C
:10BED00008030ED175B16069FFF7AEFF6168606954
:10BEE0000022083101F034F968B96368012283F84F
:10BEF000292038BD636893F8283043B12046BDE857
:10BF00003840FFF7B1BF0620F3E70029E3D1064A26
:10BF1000A0680021FCF71CFC6368012283F828203C
:10BF20000028EBD0E5E700BF1DBE020073B5037823
:10BF3000FF26012B05460C46019623D0022B18D074
:10BF4000F3B9017A206901F05AF801AA2069019633
:10BF50000123694600F0DCFF019A22B10099606973
:10BF6000D2B2FFF749FF63680120D3E9002190476F
:10BF700006E0017AE06800F075FF2046FFF774FFE5
:10BF800002B070BD017AE06800F06CFF2B7A002BE4
:10BF9000F3D063680020D3E900219047EDE700006B
:10BFA00037B51A6005461A46006900F072FF04466C
:10BFB00008BB6869134A0378D35CFBB1043001F015
:10BFC00055FEC0B9FF2301932869012301AA6946E0
:10BFD00000F09EFF78B99DF8042000996869FFF78A
:10BFE0000BFF6B6893F82930044623B118B9019907
:10BFF000286901F004F8204603B030BD0C3001F090
:10C0000043FBDEE7442C002038B504464068C0E915
:10C0100000230023038501F120020B46083053F86A
:10C02000045B40F8045B9342F9D1074A60690C61F4
:10C0300001F08EF8054628B9E06800F0D2FE2069CC
:10C0400000F0CFFE284638BD2DBF0200826810B533
:10C0500004462AB143690168006998470023A36038
:10C0600010BD0EB403B5039921B104AB01AA01932D
:10C0700000F076F802B05DF804EB03B070470A29CF
:10C0800038B504460D4602D10D21FFF7F8FFA3682D
:10C090002268591CA160D554D4E901329A4204D3D4
:10C0A0002046BDE83840FFF7D1BF38BD2DE9F84F35
:10C0B0009846DDE90A43154682460F460A464FF088
:10C0C0000109AA420FD2C14538BFC14613F0010B86
:10C0D00001D16CB900240126B8F1010F1BD908F178
:10C0E000FF386E43F8E709F10109B2FBF5F2E8E722
:10C0F0009B070ED5B8F1000F0CBF30262026A145B6
:10C10000E9D2013C31465046FFF7B9FF002CF6D189
:10C11000E0E72026F3E7B7FBF6F39D42E1D9DFF82D
:10C120003C80B7FBF6F3504618F8031006FB137774
:10C13000FFF7A5FF3346AB42B6FBF5F6F1D2BBF1F4
:10C14000000F02D00CB1A14501D3BDE8F88F20212A
:10C150005046013CFFF793FFF4E700BFA806030039
:10C160002DE9F74F054617468846002900F03E8125
:10C1700018F8011B49B92B7B002B00F037812846AA
:10C1800003B0BDE8F04FFFF761BF252940F0B7804D
:10C19000002698F800302D2B424608F1010823D0E4
:10C1A000302B24D02B2B25D000242A2B02F1010187
:10C1B00023D13B681A1D1B683A601C440A46137859
:10C1C0002E2B26D101324FF0000A104610F8011B29
:10C1D000A1F1300CBCF1090F1DD80A2303FB0A138F
:10C1E000A3F1300A0246F0E746F00106D1E746F037
:10C1F0000206CEE746F00406CBE711F8013CA3F1B6
:10C2000030000928DBD80A2202FB0434303C0A46FD
:10C21000CBE74FF0000A12F8011B01F0FB00682881
:10C220009046F8D0782909D86F290CD8632962D0B4
:10C2300022D8252963D0582900F0888098F800304A
:10C24000002B95D197E770390829F7D801A353F847
:10C2500021F000BFC7C302003DC202003DC2020080
:10C260005DC302003DC202003BC302003DC20200AA
:10C270003DC202004DC30200642901D06929DDD10D
:10C280003A68D2F80090111D89EAE9723960A2EB90
:10C29000E9724FF0010B092A35DCD34538BFD3468C
:10C2A0002CB1B9F1000F01DB720700D5013CB307D7
:10C2B00002D5BAF1000F03D0F00701D44CBB002423
:10C2C000B9F1000F2DDAC9F100092D212846FFF739
:10C2D000D6FE06F00302022A04D1BAF1000F01D102
:10C2E0001CBB0024CDE9004653460A224946284695
:10C2F000FFF7DCFEA2E73B681A1D19783A60284672
:10C30000FFF7BDFE9AE70A230BF1010BB2FBF3F234
:10C31000C1E7A345D4D220212846013CFFF7AFFE58
:10C32000CCE77107D5D52B21D0E7A345DAD2302150
:10C330002846013CFFF7A3FED2E73968CDE9004665
:10C340000A1D3A6053460A220968D0E739680A1D77
:10C350003A60CDE9004653461022F5E73B681A1DC6
:10C360003A6016F00106D3F8009024D1B9F1000F1D
:10C3700003D0484603F07DF80646B4421DD809F1C3
:10C38000FF3919F8011F00293FF458AF2846FFF77D
:10C3900076FEF6E728460136FFF771FE19F806101B
:10C3A0000029F7D1A642BFF449AF20212846013C1D
:10C3B000FFF765FEF6E70026F0E720212846013C5E
:10C3C000FFF75DFED9E73B681A1D3A603021284629
:10C3D0001C68FFF754FE78212846FFF750FE002224
:10C3E0000823CDE900322146102280E703B0BDE8E2
:10C3F000F08F00BF13B50B46114698B9144B5B88FC
:10C400006BB1144B1448154AC01A0E23C008009390
:10C41000134B0004134940F00100FBF71AFE0E20F5
:10C4200002B010BD6BB90A4B5B88002BF7D0094BEB
:10C4300009480D4AC01AC0080E2300930004084B97
:10C44000E8E703601B6802B0BDE81040184700BF72
:10C45000DC22002080F50200E0F50200B8060300AF
:10C4600074080300BD060300EC0603002DE9F74342
:10C47000DDF82880B0B9524B5B88002B00F0978024
:10C48000504B5148514AC01AC0080E24504B0094DA
:10C490000004504940F00100FBF7DBFD204603B0EB
:10C4A000BDE8F0836AB9464B5B88002B7FD0454BD3
:10C4B0004548494AC01AC0080E24454B0094000460
:10C4C000E7E7D0F800E0BEF1000F0DD13C4B5B88F0
:10C4D000002B6ED03B4B3C48404AC01AC008082491
:10C4E0003B4B00940004D4E76BB9354B5B88002BC1
:10C4F00061D0344B34483A4AC01AC0080924344B3E
:10C5000000940004C5E74568D5F80490B3FBF9F53D
:10C5100009FB15356DB12A4B5B88002B4BD0294B9D
:10C520002948304AC01AC0080924294B0094000445
:10C53000AFE78D070DD0224B5B88002B3DD0214B00
:10C540002148294AC01AC0081024214B0094000435
:10C550009FE712F0030F0CD0194B5B886BB3194B9C
:10C560001948224AC01AC0081024194B009400042C
:10C570008FE7C568A9420DD34D1EEC180569AC4282
:10C5800008D8CDF82880DEF80C40A44603B0BDE8FA
:10C59000F04360470A4B5B887BB10A4B0A48144A58
:10C5A000C01AC00810240A4B0094000471E70E243E
:10C5B00074E7082472E7092470E710246EE700BFCF
:10C5C000DC22002080F50200E0F50200B80603003E
:10C5D00061080300BD0603003A070300E6060300F6
:10C5E000F9060300400703006A07030082070300FF
:10C5F000A5070300F7B5A0B9374B5B88002B63D0C4
:10C60000364B3748374AC01AC0080E24364B0094C0
:10C610000004364940F00100FBF71BFD204603B043
:10C62000F0BDD0F800C0BCF1000F0DD12A4B5B88E3
:10C63000002B4BD0294B2A482D4AC01AC008082489
:10C64000294B00940004E4E76AB9234B5B88002B74
:10C650003ED0224B2248274AC01AC0080924224B48
:10C6600000940004D5E74568D5F800E00EF1FF35E9
:10C670000D420CD0184B5B8863B3184B18481E4A08
:10C68000C01AC0081024184B00940004C1E7C56804
:10C69000A9420CD34D1E0EFB02540569AC4206D8CC
:10C6A000DCF81040A44603B0BDE8F04060470A4BF8
:10C6B0005B887BB1094B0A48104AC01AC008102495
:10C6C000094B00940004A4E70E24A7E70824A5E77B
:10C6D0000924A3E71024A1E7DC22002080F5020052
:10C6E000E0F50200B80603004E080300BD06030093
:10C6F000E6060300F9060300CC070300F207030077
:10C7000029DF704728DF704770B503689E6886B0E0
:10C7100004460D466EB114220021684602F02DFE3B
:10C72000A3680593237901952BB1012B0DD06846A1
:10C73000B04706B070BD01238DF800302369029325
:10C74000E368039363690493F1E702238DF80030F3
:10C75000E3681B030293F5E7084670470020704723
:10C76000024B187A003818BF01207047182C00209F
:10C77000034B187A0122B0FA80F05A7440097047CE
:10C78000182C002008B510461A4602F0CDFD0020F6
:10C7900008BD000008B514220021044802F0EDFD98
:10C7A0000348FDF74EFA002008BD00BF182C0020FA
:10C7B0009023002010B5094C094B43602046FDF73B
:10C7C00036FB40B902F086F9064920741C2306485E
:10C7D0008C22FDF723FA002010BD00BF182C00208A
:10C7E000940803008C2B00209023002038B5234DA3
:10C7F000234C2B7A3BB923492348FDF77EFA20606E
:10C8000008B9686038BD022324682B72237973B19C
:10C81000012B24D020460321FFF776FF00232B7243
:10C820006B6018491848BDE83840FDF791BAD4E963
:10C830000523D21AB2F5805FD4E9031028BF4FF464
:10C8400080529208012A38BF012219441844FFF788
:10C8500057FF50B11128DDD101232B72D2E7D4E963
:10C8600003031844FFF74EFFF3E72B7C002BC9D1DD
:10C87000BDE83840022000F009B800BF182C0020A5
:10C88000302C00202C2C00209023002038B5234C85
:10C89000237A002B41D0022B09D1032830D0204B22
:10C8A00000221B68E2601A793AB1012A22D0637C27
:10C8B0007BBBBDE83840FFF799BFD3E905128D1A5D
:10C8C000B5F5805F94BF521902F580529A6191428A
:10C8D000EDD102284FF0000308BF19462372104B18
:10C8E00018BF0D211868FFF70FFF0E490E48FDF71E
:10C8F0002FFADCE71A6901321A615B699A42E7E7AD
:10C90000E3680133082B01D8E360D0E70023E3603C
:10C91000DFE7BDE8384002F0CDB838BD182C002064
:10C92000302C00202C2C002090230020831E012B73
:10C9300001D8FFF7ABBF704700F0FD03012B08D112
:10C94000044B00225A74421E504250411874FFF7A3
:10C950004DBF7047182C002010B5064C201DFDF768
:10C9600066FA28B9637C1BB9BDE81040FFF73EBFEB
:10C9700010BD00BF182C00202DE9F34180460D4664
:10C98000104801A916461F46FDF77DF90446B0B1CF
:10C9900018220021043002F0F0FC2D0B012323713A
:10C9A00001A90848C4F80080A760E5606661FDF74A
:10C9B00094F9FFF7D1FF002002B0BDE8F081042018
:10C9C000FAE700BF902300202DE9F34180460F468F
:10C9D0000F4801A916461D46FDF755F90446A8B1B2
:10C9E00018220021043002F0C8FC089BA36001A9B2
:10C9F000C4E903670648C4F800806561FDF76DF976
:10CA0000FFF7AAFF002002B0BDE8F0810420FAE79A
:10CA1000902300202DE9F84FB0F806A04579D2F810
:10CA200000B09DF828900AFB05F5043D88460BEB05
:10CA30000301A94203F1040488BFA5EB030BB4FB77
:10CA4000FAF607460AFB1644C2F800B04EB9AAEB44
:10CA500004055D4528BF5D46BBF1000F04D1BDE86C
:10CA6000F88F3F68013EF1E7043408EB06003C44D0
:10CA70002A46B9F1000F0DD02146ABEB050B02F0B1
:10CA800053FCDA452E443F6855464FF0000428BF5A
:10CA90005D46E1E701462046EFE7FDF72FBAF8B51E
:10CAA00046790146721E0546002393422D6803D342
:10CAB0000024A64202D8F8BD0133F6E70F682846E5
:10CAC000FDF757FA01343946F3E72DE9F843068BB1
:10CAD000CD1C0746FDF729FA043E35440446B5FB54
