:1000000000000420750300005D0300005F03000092
:1000100061030000630300006503000000000000AE
:100020000000000000000000000000006703000066
:1000300069030000000000006B0300006D03000076
:100040000D0600006F0300006F0300006F03000047
:100050006F0300006F0300006F0300006F030000D8
:100060006F0300006F0300006F03000085070000AE
:100070006F0300006F0300006F0300006F030000B8
:100080006F0300006F0300006F0300006F030000A8
:100090006F0300006F0300006F0300006F03000098
:1000A0006F0300006F0300006F0300006F03000088
:1000B0006F0300006F03000000000000000000005C
:1000C0006F0300006F0300006F0300006F03000068
:1000D0006F0300006F0300006F0300006F03000058
:1000E0006F0300006F0300006F03000000000000BA
:1000F000000000006F030000000000006F0300001C
:1001000000000000000000000000000000000000EF
:1001100000000000000000000000000000000000DF
:1001200000000000000000000000000000000000CF
:1001300000000000000000000000000000000000BF
:1001400000000000000000000000000000000000AF
:10015000000000000000000000000000000000009F
:10016000000000000000000000000000000000008F
:10017000000000000000000000000000000000007F
:10018000000000000000000000000000000000006F
:10019000000000000000000000000000000000005F
:1001A000000000000000000000000000000000004F
:1001B000000000000000000000000000000000003F
:1001C000000000000000000000000000000000002F
:1001D000000000000000000000000000000000001F
:1001E000000000000000000000000000000000000F
:1001F00000000000000000000000000000000000FF
:10020000354936480A1A02D0072291438D463449AF
:1002100034480A1A06D00722914381F30988022242
:1002200082F3148830483149314A00F044F83148AB
:100230003149324A00F03FF831483249324A00F041
:100240003AF832483249334A00F035F832483349F7
:10025000334A00F030F833483349344A00F02BF881
:1002600033483449344A00F026F8344834490022EF
:1002700000F02CF833483449002200F027F83348C6
:100280003349091A082902DB002202604160314A21
:1002900090471F481F49884205D00268043003B4C4
:1002A000904703BCF7E700208646EC46002000217B
:1002B000294A9047FEE7884207D0521A05D00378B2
:1002C00001300B700131013AF9D17047884202D0F8
:1002D00002700130FAE770470000042000E00320BC
:1002E0000000042000000420300B0000000000206B
:1002F00004000020D0030000D0030000100B000019
:10030000300B00000000002000000020100B000057
:10031000100B0000100B0000100B0000100B000071
:10032000100B0000100B0000100B0000300B000041
:10033000340B000004000020040000200400002012
:100340002C0000202C0000202C0000202C0000207D
:100350002C2000209D03000079080000FEE7FEE746
:10036000FEE7FEE7FEE7FEE7FEE7FEE7FEE7FEE765
:1003700000F002B8FFF7FCBF0F484FF007018843B9
:1003800085460E4880470E48016841F470010160BF
:10039000BFF34F8FBFF36F8FFFF732BF09480A4992
:1003A0000A4A884207D0521A05D0037801300B70F0
:1003B0000131013AF9D170470000042029090000F9
:1003C00088ED00E0100B000000000020000000207D
:1003D000074B1B5C1F2B86BF064903F01F034FF022
:1003E000A041012202FA03F3C1F80835704700BFAB
:1003F000100B00000003005008B50020FFF7E8FFD5
:100400000120FFF7E5FF0220FFF7E2FFBDE808400B
:100410000320FFF7DDBFC20710B504460CD54FF02F
:10042000A0430322C3F83427C3F83827C3F83C2776
:10043000C3F84027FFF7E0FFA3070AD54FF0A0431A
:100440000C22C3F82C27C3F83027C3F86027C3F861
:10045000642710BD1FB50021039001AA44F20100DA
:10046000CDE9011100F004F805B05DF804FB0000CF
:1004700072B6094BD3F8F020D20700D500BEBFF307
:100480004F8FD968054A01F4E0610A43DA60BFF38F
:100490004F8F00BFFDE700BF00ED00E00400FA054C
:1004A00072B6024A136801331360704704000020DB
:1004B000034A1368013B136003B962B6704700BF7B
:1004C00004000020FFF7ECBFFFF7F2BF38B5074C80
:1004D000051E04F1080318BF1C4623682BB11A68D7
:1004E00022605B6828469847F7E738BD1000002077
:1004F00020B9054B01225A70FFF7E8BF012802D14D
:10050000014A9070F8E770470800002038B50C4C9D
:1005100023789BB90B486360A3602361E36000F01C
:1005200049F8054600F052F801232370064BD3F832
:1005300000340BB10123A370284638BD8525F5E7AB
:1005400008000020F10400000000014038B5134C01
:10055000A378054603F0FF0073B115B16B68012065
:1005600098470020FFF7AEFFE3680133E360002007
:10057000BDE83840FFF7A8BFFFF7A4FF25B1226907
:1005800013463BB92A602561E368002BECD100F0EB
:100590002FF8E9E79D42F7D01B68F2E7080000203A
:1005A00000F18040002382B0036003680193019B47
:1005B00002B07047044A137923B901211060918079
:1005C00018467047852070471C000020074B1A68AA
:1005D000D20704D4C02283F8002301221A604FF00E
:1005E00080430122C3F81825704700BF00E100E0F6
:1005F00008B54FF48270FFF7D3FF4FF0804302221B
:10060000C3F8042301229A6008BD00004FF0804126
:1006100010B5D1F8003163B14FF48070FFF7C0FF1F
:100620000D4B58790122C1F8082310B95A711B6883
:1006300098474FF08042D2F8043163B14FF4827092
:10064000FFF7AEFF0223C2F80833034BBDE81040AA
:100650001B680120184710BD1C00002000234350D8
:1006600082B043580193019B02B07047F0B51A4C19
:1006700043791A4D44F8232003EB4303EB5C43BB5F
:1006800090F904408B7802795B01002CDBB21BDB14
:10069000134E371987F800330123640902F01F0253
:1006A00003FA02F246F8242003680A88C3F80825F2
:1006B00043790879C97803EB4303EA1850709170C5
:1006C0000122EA540020F0BD064C02F00F02A354B0
:1006D000EAE70820F7E700BF2800002024000020F8
:1006E00000E100E014ED00E0036801221A604379A4
:1006F000024A03EB43030221D15470472400002037
:100700002DE9F04105464FF4803400681C4F8C40C1
:10071000C0F84843C0F8084395F805C00CEB4C06F8
:100720003E4422F07F4296F8018001F5A8764FEA18
:100730004C0E40F82620B8F1000F11D0D0F80485F7
:10074000F4446744A8EB0206424588BF06F1FF1651
:10075000BA7888BF06F57F46964201DA0D200CE094
:100760003BB15031890089B2FFF778FF2B68C3F89D
:1007700004432B680020C3F84443BDE8F08100BF68
:10078000240000202DE9F041224E234FDFF88C8019
:1007900000254FF48034D7F8043306F5A0412342F6
:1007A00089B20CD0336853B1C7F848433846C7F80C
:1007B0000843FFF753FFD8F80030E8B298470135F7
:1007C000032D4FEA440406F10406E4D11248D0F8A0
:1007D0000433DA070AD5D0F800313BB14FF4807109
:1007E000FFF73CFF0D4B04201B6898470A48D0F8E0
:1007F00004339B070CD5D0F804314BB14FF4827110
:10080000FFF72CFF054BBDE8F0411B68052018479A
:10081000BDE8F08140B1004000B000402800002059
:100820004FF0A0420123D2F8041503FA00F020EAA9
:1008300001030840C2F80835C2F80C0570470000F3
:1008400010B5044660B90E20FFF7EAFF084A0948D0
:100850000123936021460822BDE81040FFF750BFF6
:10086000042804D1BDE810400D20FFF7D9BF10BD0A
:1008700000B000401C0B000007B50120FFF7CBFDC6
:10088000FFF744FE08B1FFF7E5FD0020FFF75EFE2D
:10089000104B114A18689B880090ADF804300F483F
:1008A00040F6FF736946ADF80030FFF7DFFE08B190
:1008B000FFF7D0FD0948012308220021FFF720FFA0
:1008C00008B1FFF7C7FD0548FFF70EFF40BF20BF87
:1008D00020BFFBE7140B0000410800001C0B0000C8
:1008E0004FF08053D3F83001A0F10803584258412B
:1008F000704700004FF08053D3F83021082A06D10A
:10090000D3F83431052B02D8024AD05C704700205E
:10091000704700BF2A0B0000024AD2F80034002BB7
:10092000FBD0704700E0014010B5FFF7D9FF40B1A0
:100930004FF080430022C3F80C21C3F81021C3F804
:100940003825FFF7CDFF002846D04FF08052654B89
:10095000D2F80414C3F82015D2F80814C3F82415EB
:10096000D2F80C14C3F82815D2F81014C3F82C15BB
:10097000D2F81414C3F83015D2F81814C3F834158B
:10098000D2F81C14C3F84015D2F82014C3F844154B
:10099000D2F82414C3F84815D2F82814C3F84C151B
:1009A000D2F82C14C3F85015D2F83014C3F85415EB
:1009B000D2F83414C3F86015D2F83814C3F86415AB
:1009C000D2F83C14C3F86815D2F84014C3F86C157B
:1009D000D2F84424C3F87025FFF78CFF18B1424BBE
:1009E000424AC3F88C26FFF785FF18B1404BFB2223
:1009F000C3F81825FFF77EFF70B14FF080414FF02C
:100A00008053D1F8E42ED3F8583222F00F0203F0CD
:100A10000F031343C1F8E43EFFF76CFF20B1354BE1
:100A20004FF40072C3F84026FFF75AFF48B14FF069
:100A30008043D3F80024D20744BF6FF00102C3F80B
:100A400000242D4AD2F8883043F47003C2F888306D
:100A5000BFF34F8FBFF36F8F4FF08053D3F8302128
:100A6000082A0ED1D3F83431052B02D8234AD35C9F
:100A70003BB14FF01023D3F808224FF08043C3F866
:100A800058254FF01023D3F80022002A03DBD3F8B7
:100A90000432002B22DA1A4901234FF01020C1F84A
:100AA00004351224FFF738FFC0F80042FFF734FF87
:100AB000C0F80442FFF730FF0023C1F80435FFF708
:100AC0002BFFBFF34F8F0C490E4BCA6802F4E06254
:100AD0001343CB60BFF34F8F00BFFDE70A4B0B4AB8
:100AE0001A6010BD00C00040005000404881030063
:100AF00000F000400090024000ED00E0240B0000F8
:100B000000E001400400FA05000000200090D0033E
:100B10000D0E0F10000006410000000000B0004064
:100B20000B000300000000000101010000000000B4
:040B30000090D0035E
:040000030000037581
:00000001FF
