:020000022000DC
:1070000000000420757302005D7302005F730200CC
:1070100061730200637302006573020000000000E8
:107020000000000000000000000000006773020084
:1070300069730200000000006B7302006D730200B0
:10704000219502006F730200A99E02006F73020077
:107050006F7302006F730200999902006F73020050
:107060006F7302006F7302006F7302006F73020090
:107070006F7302006F7302006F7302006F73020080
:107080006F7302000D8402006F7302006F730200C1
:107090006F7302006F7302007DBC02006F73020009
:1070A0006F7302006F7302006F7302006F73020050
:1070B0006F7302006F730200000000000000000008
:1070C0006F7302006F7302006F7302006F73020030
:1070D0006F7302006F7302006F7302006F73020020
:1070E0006F7302006F7302006F73020000000000F4
:1070F000000000006F730200000000006F730200C8
:10710000000000000000000000000000000000007F
:10711000000000000000000000000000000000006F
:10712000000000000000000000000000000000005F
:10713000000000000000000000000000000000004F
:10714000000000000000000000000000000000003F
:10715000000000000000000000000000000000002F
:10716000000000000000000000000000000000001F
:10717000000000000000000000000000000000000F
:1071800000000000000000000000000000000000FF
:1071900000000000000000000000000000000000EF
:1071A00000000000000000000000000000000000DF
:1071B00000000000000000000000000000000000CF
:1071C00000000000000000000000000000000000BF
:1071D00000000000000000000000000000000000AF
:1071E000000000000000000000000000000000009F
:1071F000000000000000000000000000000000008F
:10720000354936480A1A02D0072291438D4634493F
:1072100034480A1A06D00722914381F309880222D2
:1072200082F3148830483149314A00F044F831483B
:107230003149324A00F03FF831483249324A00F0D1
:107240003AF832483249334A00F035F83248334987
:10725000334A00F030F833483349344A00F02BF811
:1072600033483449344A00F026F83448344900227F
:1072700000F02CF833483449002200F027F8334856
:107280003349091A082902DB002202604160314AB1
:1072900090471F481F49884205D00268043003B454
:1072A000904703BCF7E700208646EC46002000210B
:1072B000294A9047FEE7884207D0521A05D0037842
:1072C00001300B700131013AF9D17047884202D088
:1072D00002700130FAE770470000042000E003204C
:1072E0000000042000000420E8CB0200E82A00206F
:1072F000502B0020D0730200D073020030BF020078
:10730000E8CB0200E82A0020E82A002044C002005E
:1073100044C0020044C0020044C0020044C0020055
:1073200044C0020044C0020044C00200E8CB020096
:1073300050CC0200502B0020502B0020502B00205E
:107340006A3A00206C3A00206C3A00206C3A002027
:107350006C5A00209D73020059AB0200FEE7FEE765
:10736000FEE7FEE7FEE7FEE7FEE7FEE7FEE7FEE7F5
:1073700000F002B8FFF7FCBF0F484FF00701884349
:1073800085460E4880470E48016841F4700101604F
:10739000BFF34F8FBFF36F8FFFF732BF09480A4922
:1073A0000A4A884207D0521A05D0037801300B7080
:1073B0000131013AF9D170470000042049900200E0
:1073C00088ED00E044C00200E82A0020E82A0020FE
:1073D000704700BF00B583B0044B0093044A4023BC
:1073E00000F036F803B05DF804FB00BFF57302004F
:1073F000542B002002B32DE9F843114B114E88465F
:107400001446032743F001090025224608EB050135
:10741000002003F0C1FC0346E41A4FF47A401D44F7
:1074200023B9337833B1C847013F06D00123337005
:10743000002CEAD1BDE8F88370473770BDE8F883C7
:1074400050C00200502B0020704700BF03F07ABDEF
:10745000F0B595B0084600240E4617461D4601F0CB
:10746000D3FC1A9A0D922346082205A93046CDE98D
:10747000095408978DF82C400C9401F029FDDDE9A2
:1074800006219DF814308DF81140CDE9021203F069
:107490000302012A28D0022A04D0304601F0B8FCA9
:1074A00015B0F0BDBDF81650C3F3C203C5F389157E
:1074B0008DF810300827082D2C4628BF08243B469D
:1074C00022460EA9304601F003FD2D1B08AB02AA8F
:1074D00021460EA8274400F04FFD002DEBD1304689
:1074E00001F096FC15B0F0BDBDF814100598C1F37D
:1074F0008312C3F3C203C0F39525C1F383148DF83F
:1075000010300EA930469200082301F0E1FC08ABD0
:107510000093224602AB0EA9284600F0B7FC304685
:1075200001F076FC15B0F0BD38B50A4DFFF78EFFBF
:107530000421284600F02CFC074B01245C7100F06C
:1075400007FE042105F1100000F022FC034B5C71E2
:1075500038BD00BF24C00200E82A0020F02A002025
:10756000064B074810B500221A7001F001FC0446D2
:1075700010B9044801F022FD204610BD642C002003
:1075800088BF0200A0C0020030B499B10D490E4D71
:10759000491BC90813D00D4C002302E00133994266
:1075A0000AD034F823208242F8D1184655F830002A
:1075B00030BC7047044DF9E7002030BC70470846E6
:1075C000F6E700BF24C002009CBF0200E82A0020AA
:1075D000094B013903EBC00003290BD8DFE801F0A8
:1075E0000402080604207047022070474079704763
:1075F00000797047002070479CBF0200704700BFB1
:107600002DE9F043904CD4E901239A4285B060D033
:107610000023C4F81834BFF34F8FA568EAB2D31C17
:1076200004EB830114F82330580718D566680B78EB
:1076300003F00303012B42D0022B03D14B88023508
:1076400005EB9315EAB2D4F81804D31C04EB8301BC
:1076500028B9AE4239D914F823305B07E7D404EBDC
:1076600082026B1CDBB2D26804EB830302F00301DD
:10767000DB680229CDE9012305F102062DD001299D
:1076800000F09280D4F810543DB12B6828469B68D6
:107690009847EB681D68002DF7D16C486C4B6D491D
:1076A000C01AC008000440F0020000F09BFAD4E9C0
:1076B0000130C01A18BF012005B0BDE8F0830B8867
:1076C0000235C3F383131D44BCE7A66005B0BDE8D3
:1076D000F083002005B0BDE8F083BDF806305E48B9
:1076E000C3F389184546502D28BF502505F10801E0
:1076F00065F38F13C1F30901ADF8063001F03AFBD1
:1077000007460028BED001F07FFB0023082201A914
:10771000384601F0A9FBF343DBB20133B5EB830F2D
:107720004FEA83027ED9F1B25FFA82F9033104EBAA
:10773000810138460823A5EB090501F095FBEDB260
:1077400009F10803454903F0FC032A46384601F0D5
:107750008BFB08F1030806EB9806D4F81834002BCD
:107760006ED1D4F8105465B1EB685A792846394681
:10777000002A61D02B681B689847EB681D68002DB4
:10778000F2D1384601F044FB00230DF103008DF8DF
:10779000033000F0E7FDD4F8183403B9A6609DF873
:1077A000030000F005FE82E7BDF804202A48C2F37A
:1077B0008313062B28BF062363F38912023303F0D9
:1077C0000F018900ADF8042001F0D4FA0746002823
:1077D0003FF458AF01F018FB0023082201A93846F6
:1077E00001F042FBBDF8043013F4707FB5D06FF0A8
:1077F00001094FF00808A9EB0509F1B2033143462E
:10780000042204EB8101384601F02EFBBDF8043060
:107810000136C3F3831309EB0602934208F104080F
:10782000EBD89AE7F1B203312A4604EB8101082331
:10783000384601F019FB8CE71D68002D94D1A0E7B4
:10784000384601F0E5FA32E7642C0020C4BF02009C
:107850009CBF020088C0020088BF0200702C00207C
:107860002DE9F04FDFF8BCB189B0002406460DF1D8
:1078700013000393CDE901128DF8134000F072FD5F
:10788000DBF80830DBF8047003F58073DB1B032B97
:1078900000F281800BF21C450BF583680BF2144457
:1078A0001AE0BDF81630C3F3891303334FEA1149C8
:1078B0000AEB930A204600F05DFE494600283AD0C4
:1078C0002846CBF808A000F031FEDBE9012303F5E0
:1078D00080739B1A032B5FD80121284600F026FEF7
:1078E000404600F03BFE204600F038FEDBF8083052
:1078F000DAB2D11C0BEB810C1BF8211001F0040053
:10790000490728D40BEB82015A1CC9680591D2B2F1
:1079100001F003000BEB82020128D16803F1020A97
:1079200031D00228BDD0204600F024FE4FF00009DF
:1079300049460028C4D12846C5E7BCF802300EEB02
:107940009313DAB2D11C0BEB810C1BF8210000F071
:1079500004000028D6D09CF8001001F00301012992
:107960000AD0022903F1020E02F10301E5D00BEB6C
:10797000810C0028EFD1C5E7BCF800200233C2F328
:1079800083121344DDE7BDF81430C3F383134FEAC9
:1079900011499A448EE73A46D3B203330432852123
:1079A0009DF813004BF82310CBF8042000F000FDE5
:1079B000BB1CDBB20BEB8303029ADA60FB1CDBB26D
:1079C0000BEB8303039ADA600021154800F08CFD6D
:1079D00080F31001F300019A9BF8004003F0380394
:1079E00043F08103781C43EA8223C0B2FAB209044F
:1079F0000BEB8000033241EA1641C1604BF82230A4
:107A000024B9FFF7FBFD09B0BDE8F08FFFF7F8FDE3
:107A10000028F6D0FFF7F4FD0028F7D1F1E700BF0A
:107A200080300020642C00202DE9F04FDFF8B0B149
:107A300087B0002306460DF10B008DF80B30CDE921
:107A4000001200F08FFCDBE9018303F58073A3EBE8
:107A50000803022B00F281800BF21C450BF58367B3
:107A60000BF214441AE0BDF80E20C2F3891203325F
:107A70004FEA114A09EB9209204600F07BFD51467E
:107A800000283AD02846CBF8089000F04FFDDBE9FB
:107A9000012303F580739B1A022B5FD8012128462E
:107AA00000F044FD384600F059FD204600F056FD38
:107AB000DBF80830DAB2D11C0BEB810C1BF821107B
:107AC00001F00400490728D40BEB82015A1CC96855
:107AD0000391D2B201F003000BEB82020128D168BE
:107AE00003F1020931D00228BDD0204600F042FD4A
:107AF0004FF0000A51460028C4D12846C5E7BCF81B
:107B000002300EEB9313DAB2D11C0BEB810C1BF895
:107B1000211001F004000028D6D09CF8001001F0DC
:107B2000030101290AD0022903F1020E02F1030127
:107B3000E5D00BEB810C0028EFD1C5E7BCF80020A5
:107B40000233C2F383121344DDE7BDF80C20C2F305
:107B500083124FEA114A91448EE74246D3B203336F
:107B6000033245219DF80B004BF82310CBF804207D
:107B700000F01EFC08F10203DBB20BEB8303019A59
:107B8000DA600021154800F0AFFC80F31001F3002B
:107B9000009A9BF8004003F0380343F0410308F1DA
:107BA000010043EA8223C0B25FFA88F209040BEBBA
:107BB0008000033241EA1641C1604BF8223024B9FB
:107BC000FFF71CFD07B0BDE8F08FFFF719FD002897
:107BD000F6D0FFF715FD0028F7D1F1E7803000203F
:107BE000642C00202DE9F04FDFF8A0A187B000231E
:107BF00006460DF10B008DF80B30019100F0B2FB41
:107C0000DAE9018303F58073A3EB0803012B00F28B
:107C100081800AF21C450AF583670AF214441AE0CF
:107C2000BDF80E30C3F3891303334FEA11490BEB50
:107C3000930B204600F09EFC494600283AD0284687
:107C4000CAF808B000F072FCDAE9012303F580738A
:107C50009B1A012B5FD80121284600F067FC3846AB
:107C600000F07CFC204600F079FCDAF80830DAB24B
:107C7000D11C0AEB810C1AF8211001F0040049070D
:107C800028D40AEB82015A1CC9680391D2B201F0D0
:107C900003000AEB82020128D16803F1020B31D004
:107CA0000228BDD0204600F065FC4FF0000949468F
:107CB0000028C4D12846C5E7BCF802300EEB931368
:107CC000DAB2D11C0AEB810C1AF8211001F0040081
:107CD0000028D6D09CF8001001F0030101290AD039
:107CE000022903F1020E02F10301E5D00AEB810C37
:107CF0000028EFD1C5E7BCF800200233C2F383129D
:107D00001344DDE7BDF80C30C3F383134FEA114988
:107D10009B448EE74246D3B20333023205219DF8DD
:107D20000B004AF82310CAF8042000F041FB0021A0
:107D3000154800F0D9FB80F31001F300019A9AF87E
:107D4000004003F0380343F0010308F1010043EA67
:107D50008223C0B25FFA88F209040AEB8000033282
:107D600041EA1641C1604AF8223024B9FFF746FCC7
:107D700007B0BDE8F08FFFF743FC0028F6D0FFF70F
:107D80003FFC0028F7D1F1E780300020642C002070
:107D900030B4124DD5F8101404460020B1B10B4692
:107DA00001E01B6853B1DB681A798242F9D10130D6
:107DB0000A28F3D14FF0FF3030BC7047E2681071F1
:107DC000CB68196811601C6030BC7047E36818719B
:107DD000C5F8104430BC1960704700BF642C002007
:107DE00038B5084BD3F8104401251D704CB12368F9
:107DF000E2685B68557120469847E3681C68002C70
:107E0000F5D138BD642C002030B5C38885B0044658
:107E10000D4623BB237A052B1FD0627A82B9144A00
:107E2000A08852F8232003920021FFF7ADFB039AAC
:107E300010490346284605B0BDE8304000F018BCA4
:107E40001946A088FFF7C4FB0B4B0C4953F82020C0
:107E5000284600F00DFC237AE1E705B030BD084963
:107E60000091084A0849284600F002FCD2E700BF0A
:107E700078C10200D8C0020054C10200D4C0020080
:107E8000CCC00200ACC00200B4C002002DE9F04337
:107E900085B01D460C9C002394F80C9023738046FB
:107EA0000E46174621462846FFF7AEFF062F09D893
:107EB000DFE807F0042E343B444F1F0041462046C4
:107EC00000F0D6FB2B7A052B05D06B7A5BB92749DE
:107ED000204600F0CDFB204600F0BEFB84F80C905D
:107EE00005B0BDE8F083224A2249204600F0C0FBDD
:107EF000EDE77369039333690293F3680193B36801
:107F00000093D6E900234146204600F0B1FBD9E7B3
:107F100032684146204600F0ABFBD3E7D6E90023A8
:107F20004146204600F0A4FBCCE7B3680093D6E9B5
:107F300000234146204600F09BFBC3E7F368019312
:107F4000B3680093D6E900234146204600F090FB39
:107F5000B8E733690293F3680193B3680093D6E9F5
:107F600000234146204600F083FBABE7E4C002005B
:107F7000CCC00200D4C00200082900D970472DE906
:107F8000F04F1D4683B000241B7B2C730E46074622
:107F90002946104690460193DFF8BCB0DFF8BCA03C
:107FA000FFF732FF05E03A5D013400F061FB082C79
:107FB00009D0A64251462846F5D85946013400F06A
:107FC00057FB082CF5D12049DFF894B0DFF894A0D6
:107FD000284600F04DFB002414E017F80490B9F196
:107FE0007E0F4FF02E02484605D803F00DFF002803
:107FF00014BF4A462E2251462846013400F038FB71
:10800000082C08D0A642E8D859462846013400F08A
:108010002FFB082CF6D198F80830052B02D098F8E1
:1080200009305BB90949284600F022FB284600F0D8
:1080300013FB019B2B7303B0BDE8F08F044A054985
:10804000284600F015FBEDE7F4C00200E4C0020092
:10805000CCC00200D4C00200F0C00200E8C00200A0
:10806000E0C00200F8C00200014B01221A70704704
:1080700060310020704700BF00B583B0044B00930F
:10808000044A4023FFF7E4F903B05DF804FB00BFA6
:10809000998002002031002038B50F480F4D037839
:1080A0000F4CEB5C4FF0000C84F800C0D2B253B11F
:1080B000043002F047FC58B90A4B1B7813B12378FF
:1080C000002BFCD038BD0C3002F072F90028F3D040
:1080D00000F066F8F0E700BFF82A0020D431002055
:1080E000603100201C31002010B51548154A037876
:1080F000D35C88B0C3B1043002F06EFB124C0FCCDD
:10810000EC46ACE80F0094E80F008CE80F00062363
:108110000B4800930022694601F092F940B90B4BDD
:1081200000221A7008B010BD0C3002F0BFF8E5E76D
:1081300000F036F8054B00221A7008B010BD00BFE1
:10814000F82A0020D43100208CC102001C3100200C
:1081500010B50F4C0FCC88B0EC46ACE80F0094E89B
:108160000F008CE80F0006230A4A0B48009369466B
:1081700001F066F920B9094B01221A7008B010BD50
:1081800000F00EF8054B01221A7008B010BD00BFB8
:108190008CC1020069800200F82A00201C310020F6
:1081A00000B585B00346002101AA44F20100CDE9E3
:1081B0000111039300F004F805B05DF804FB00BF63
:1081C00010B572B6FFF70CFEFFF71AFA0028FBD1C4
:1081D000104B114C1149E41AE408240444F0010046
:1081E000FFF700FD0E4BD3F8F030DB0700D500BEE3
:1081F0000C4944F00200FFF7F5FCBFF34F8F08492C
:10820000094BCA6802F4E0621343CB60BFF34F8F9F
:1082100000BFFDE79CBF0200C4BF0200C4C1020052
:1082200000ED00E0D0C102000400FA05F0B583B013
:108230000446002501A817460E468DF8045000F0AC
:1082400091F8D4E90223B3F1FF3F08BFB2F1FF3F39
:1082500006D09DF8040000F0ABF8284603B0F0BD4E
:108260001C4800F0BDF81C4B1C4A19685B6840189C
:10827000D2E9001243F10003884273EB020224D3D7
:10828000301843F10003A060E3609DF8040000F0A3
:108290008FF82369A76103B12661114801A900F095
:1082A000BFF8034670B100250D481D705C6001A940
:1082B00000F0E8F80028D1D0064800F095F82846EC
:1082C00003B0F0BD042003B0F0BD10F1807043F1A5
:1082D0000003D5E70C2B00206831002080310020FE
:1082E0007031002030B583B00446002501A88DF818
:1082F000045000F037F8D4E90223B3F1FF3F08BF80
:10830000B2F1FF3F1CD04FF0FF334FF0FF32C4E912
:1083100002239DF8040000F04BF8104801A900F07A
:108320007FF8034648B10122027001A90B485C6046
:1083300000F0A8F858B903B030BD042003B030BD38
:108340009DF8040000F034F8284603B030BD04481E
:1083500000F04AF8284603B030BD00BF703100205D
:108360000C2B002070B4EFF3108472B60D4B9A689A
:10837000AAB9012199600C490C4ED1F880503540C2
:108380001D60C1F88060D1F884505D604FF0FF330C
:10839000C1F88430027004B962B670BC7047012322
:1083A0000370F8E78831002000E100E0FC06FFBD23
:1083B000094B9A687AB170B910B4EFF3108172B6B4
:1083C000064A1C6814605C685460986001B962B623
:1083D0005DF8044B704770478831002000E100E0F1
:1083E0000368D3F80405704790F90430002B09DBCB
:1083F0005A09054803F01F030121403201FA03F333
:1084000040F82230704700BF00E100E0024A034B11
:1084100010681B68184700BF943100209C31002071
:1084200010B483B050E8013F1FFA83FCC489A44410
:108430008489A44528BFACEB040C0489A44502BF81
:10844000BFF32F8F002207E0CCEA030C40E801C401
:10845000002CE7D14FF001028DF803200193019C1D
:108460009DF803200C6032B1006810FA84F003B06C
:108470005DF8044B704702F0FF03184603B05DF847
:10848000044B70470A884B889A4201D000207047FD
:1084900050E8012FC2EA024240E80123002BF7D145
:1084A000012070474B0901F01F024FF0010C0CFA3C
:1084B00002F100EB830000F021B800BF01F01F02C1
:1084C000012303FA02F24B0900EB8300D14300F0D1
:1084D00021B800BF4B0901F01F0150F82300C8402C
:1084E00000F00100704700BF034653E8000F0A4642
:1084F00043E8002C9CF0000FF7D17047034653E887
:10850000002F42EA010043E8000C9CF0000FF6D176
:10851000704700BF034653E8002F02EA010043E81A
:10852000000C9CF0000FF6D1704700BF034653E8E3
:10853000002F02EB010043E8000C9CF0000FF6D185
:10854000704700BF034653E8002FA2EB010043E849
:10855000000C9CF0000FF6D1704700BF03460122CB
:1085600053E8001F41EA020043E8000C9CF0000FB2
:10857000F6D170470346002253E8000F00EA0201DB
:1085800043E8001C9CF0000FF6D17047F8B130B4FE
:10859000D0E901431B1B0268DBB2591E1460C9B24B
:1085A0008BB1023B651C1560DBB2217051B10168D3
:1085B0000A6803F1FF3C541C0C6013705FFA8CF3E3
:1085C000FF2BF4D102680020107130BC70470E20E0
:1085D000704700BF30B583B0044600250DF1070099
:1085E0008DF80750FFF7BEFED4E9002311689942C9
:1085F0000ED9481EA368106011F801CC1179E56806
:108600001B1ADBB2208A994200FB0C5538BF13714C
:108610009DF80700FFF7CCFE284603B030BD00BF31
:1086200030B5054683B00DF1070000230C468DF8E8
:108630000730FFF797FE2A681368591C1160E96834
:108640002A8A641AB4FBF2F41C709DF80700FFF745
:10865000AFFE03B030BD00BF826842B110B54369C0
:1086600001680446006998470023A36010BD704765
:108670000EB400B582B0039921B104AB01AA0193F5
:1086800000F0B6F802B05DF804EB03B0704700BF2D
:108690002DE9F04F154683B0A942DDF830900D9AD0
:1086A0000F4606469A46C0F09E800B464FF00108E2
:1086B000B3FBF5F39D4208F10108F9D9D04538BF65
:1086C000D04612F00103019302D1B9F1000F67D136
:1086D000B268BAF1010F4FF0010406D90AF1FF3A6E
:1086E000BAF1010F05FB04F4F8D8B7FBF4F39D428F
:1086F00005D805FB04F4B7FBF4F39D42F9D9DFF884
:10870000ECA007E0AC42B4FBF5F31AD3B2681C4608
:10871000B7FBF3F31AF803B0BBF10A0F04FB1377AE
:1087200028D03368511CB16003F802B0D6E9013299
:108730009A42E7D33046FFF78FFFB4FBF5F3AC4224
:10874000E4D2019B9BB1B9F1000F10D02024C845A1
:1087500009F1FF390BD2B3683268591CB160D454A7
:10876000D6E901329A4214D2B9F1000FEFD103B029
:10877000BDE8F08F511C3368B1604FF00D01995482
:10878000D6E901329A42CCD33046FFF765FFB26892
:10879000C7E73046FFF760FFB9F1000FD7D1E6E732
:1087A00093071AD42024B268C84502F1010190D27F
:1087B0003368B1609C54D6E901329A4209F1FF391D
:1087C00003D2B9F1000FEFD183E73046FFF744FF42
:1087D000B268B9F1000FE7D17BE7BAF1000F0CBF27
:1087E00030242024DFE74FF0010867E7ECC10200E6
:1087F000002900F036822DE9F04FDFF86C950D78F6
:1088000085B0064690460C464FF00D0A0FE00A2D43
:10881000B36800F08E803268591CB160D554D6E937
:108820000130984280F081802578002D69D0013494
:10883000002D66D0252DEAD10027234614F8012B00
:108840002D2A6CD0302A6DD02B2A61D02A2A7FD0D5
:10885000A2F1300109294FF000050BD805EB850581
:1088600002EB450513F8012FA2F130010929A5F10A
:108870003005F3D92E2A1C4675D0002301E014F8E8
:10888000012F02F0FB016829F9D0252A00F05F8151
:10889000583AD1B2202930D8202A2ED8DFE812F059
:1088A00021002D002D002D002D002D002D002D006C
:1088B0002D002D002D00FE0079002D002D002D0033
:1088C0002D0079002D002D002D002D002D002D00F4
:1088D000BD002D002D001A012D0016012D002D00C8
:1088E0002100D8F80000102201680430CDE90057BB
:1088F000C8F800003046FFF7CBFE01342578002D84
:1089000095D1337B002B40F01C8105B0BDE8F08F82
:10891000234614F8012B2D2A47F0040792D147F083
:1089200001078AE747F0020787E73046FFF794FE22
:108930007AE73268591CB16002F803A0D6E9012336
:108940009342FFF468AF3046FFF786FEB36862E7F4
:10895000D8F80020111DC8F8001015685A782E2A82
:1089600003F1010489D16278A2F13003092B04F1EB
:1089700001044FF0000384D803EB830302EB4303AD
:1089800014F8012FA2F130010929A3F13003F3D922
:1089900077E7D8F80020D2F800B00432C8F80020F9
:1089A0008BEAEB72A2EBEB72092A40F3D981DFF874
:1089B000BCC3012011466329ACFB02E200F10100B7
:1089C0004FEAD202F6DC9842024638BF1A460292BB
:1089D000002D00F0F780BBF1000FC0F207817A078D
:1089E00000F10481B80740F10381002B40F00081C1
:1089F000BBF1000FC0F27B817A0700F18B8107F099
:108A00000302022A00F02E81CDE9005759460A22BE
:108A10003046FFF73DFE013470E7D8F80020B36818
:108A200017683168101D5A1CC8F80000B260302267
:108A3000CA54D6E90123934280F0D380591C32688E
:108A4000B1607821D154D6E901329A4280F0C480D5
:108A50000F2F03D93B461B090F2BFCD84FF0805535
:108A600006E00F2D4FEA15137FF647AFB2681D469B
:108A7000B7FBF5F319F803B0BBF10A0F05FB137749
:108A800051D03368511CB16003F802B0D6E901300F
:108A90009842E6D33046FFF7DFFDE2E7D8F8003032
:108AA0001D7804330A2DC8F80030B36800F038810F
:108AB0003268591CB160D554D6E901309842FFF4B0
:108AC0001CAF3046FFF7C8FD013417E7D8F80000A7
:108AD0000A2209E7D8F800301A1DC8F8002017F05C
:108AE0000107D3F800B03DD1BBF1000F03D05846C9
:108AF00003F0EEF90746BD4240F2CC80202202E0AE
:108B0000BD4200F0C780B1683368481CB0605A5459
:108B1000D6E90130984205F1FF35F1D33046FFF731
:108B20009BFD2022ECE73368511CB16003F802A0E2
:108B3000D6E901329A42A4D33046FFF78DFDB268E0
:108B40009FE7304605B0BDE8F04FFFF785BDB3683D
:108B50003168581CB060CA54D6E901309842B0D28E
:108B60000134CBE69BF80030002B00F0FB80B068AE
:108B70005F46CBF101020A2B02EB070B5FD0411CD1
:108B8000B16031680B54D6E90130984249D217F8E8
:108B9000013F002BEFD15D457FF6AFAE202702E00D
:108BA0005D453FF4AAAEB2683368511CB1609F5472
:108BB000D6E90130984205F1FF35F1D33046FFF791
:108BC0004BFDEDE7B80705D5002B3FF411AFF907D2
:108BD0003FF50EAF00250BE73046FFF73DFDB268CD
:108BE00036E73046FFF738FDB36827E7013DF9E681
:108BF000F9073FF5FDAE002DECD020220299A942E5
:108C0000BFF4F6AEB168481CB06030684254D6E993
:108C10000101814205F1FF3580F09180002DEDD1F9
:108C2000D8E730460292FFF717FD17F8013F002BF7
:108C3000B1D0029AB0680A2B02EB070B9FD1411CFE
:108C4000B160316801F800A0D6E90110884296D3DE
:108C50003046CDE90232FFF7FFFCDDE90232B068B1
:108C60008DE77047002B7FF4CFAE8DB13022029993
:108C70008D427FF6C9AEB168481CB060306842547E
:108C8000D6E90101814205F1FF3562D2002DEED116
:108C90000025B9E69BF80050002D3FF42EAE0A2DBA
:108CA000B0680ED03368421CB2601D54D6E9013062
:108CB000984214D21BF8015F002D3FF41EAE0A2D1E
:108CC000F0D13368421CB26003F800A0D6E901304D
:108CD0009842E7D33046FFF7BFFCB068E2E7304682
:108CE000FFF7BAFC1BF8015F002DD8D105E6B1688B
:108CF0003268481CB060CBF1000B2D205054D6E9EF
:108D000001219142FFF47BAE30460393FFF7A4FCB0
:108D1000039B74E6B1683268481CB0602B20EDE715
:108D20003268591CB16002F803A0D6E901239342CE
:108D3000FFF4BEAE3046FFF78FFCB368B8E63046AE
:108D40000393FFF789FC039B2022002D7FF456AF8D
:108D500040E730460393FFF77FFC039B302295E703
:108D6000012030E69B4616E7ECC10200CDCCCCCC0E
:108D7000FFF70CBC2DE9F041058A0331043D4E1983
:108D80008046B6FBF5F6FFF725FCA0B3F6B24FF42C
:108D90008073013E04468380C580C0F800802BD0DC
:108DA0000346002508E06279AE4202F101026271D9
:108DB0003860C0F800801FD040461F46FFF70AFC0D
:108DC000013503460028EED16779791E17D0224677
:108DD000013399421268FBD1D2F800805FB1266856
:108DE000002501E034463668214640460135FFF74C
:108DF00017FCAF42F6D800242046BDE8F081206879
:108E00002146FFF70DFCF6E701210430FFF78EBB8A
:108E10002DE9F041012104460430FFF793FB10F0E7
:108E2000FF0301D0BDE8F0816779791E16D0224694
:108E3000013399421268FBD1D2F80080002FF1D0A3
:108E40002668002501E03446366821464046013553
:108E5000FFF7E6FBAF42F6D8BDE8F0812068214677
:108E6000BDE8F041FFF7DCBB2DE9F843C788884631
:108E7000417907FB01F1043902EB030C1E1D61452A
:108E8000154638BFCD1AB7420446B6FBF7F207FBCA
:108E9000126002D8013A2468FCD13E1AAE4228BFC3
:108EA0002E469DB14FF000090430AD1B324608EB51
:108EB0000901204402F0B0FFAF42B14424683E46AD
:108EC0004FF0000028BF2E46002DEDD1BDE8F883FD
:108ED0002DE9F843C7880446407907FB00F00438C1
:108EE00002EB030C1E1D6045154638BFC51AB7427C
:108EF0008846B6FBF7F107FB116202D801392468F6
:108F0000FCD1BE1AAE4228BF2E469DB14FF00009DB
:108F1000111DAD1B3246214408EB090002F07CFF15
:108F2000AF42B14424683E464FF0000228BF2E46AF
:108F3000002DEDD1BDE8F88341DF7047064A074BAD
:108F400010B5002414701C60BFF35F8F04490548FE
:108F500000F03EF8204610BDA8310020AC310020C2
:108F600008C20200A031002000B583B000230DF13B
:108F700007008DF80730FFF7F5F9F1EE103A23F00E
:108F80009F03E1EE103ABFF35F8F0B4B4022C3F813
:108F900084219DF80700FFF70BFA02F069FE28B95B
:108FA00020BF40BF20BF03B05DF804FB03B05DF8F5
:108FB00004EBFFF7C1BF00BF00E100E083680022BF
:108FC0005A60C3E904229A60DA601A60704700BFF1
:108FD000D1E900329342C0E9001304BF002343608B
:108FE000704700BF436843B10268D2E901210B44D6
:108FF0009342436004BF0023436070471049A1F5CA
:10900000947205E052F83330984238BF61460CD272
:10901000A1EB020C4FEADC7303EBEC035B10914213
:1090200002EBC30CEED80748704702D90CF10802D6
:10903000EEE7DCF80400034B002808BF1846704731
:1090400048C702000CC602004FF0805310B4D3F89A
:109050003021082A23D0844AD2F8883043F47003A0
:10906000C2F88830BFF34F8FBFF36F8F4FF080533C
:10907000D3F83021082A00F0B3804FF01023D3F842
:109080000022002AC0F2BF80D3F80432002BC0F2C5
:10909000BA80764B764A5DF8044B1A6070474FF001
:1090A00080410020C1F80C01724AC1F81001C1F8DA
:1090B0003805D3F80414C2F82015D3F80814C2F800
:1090C0002415D3F80C14C2F82815D3F81014C2F8DC
:1090D0002C15D3F81414C2F83015D3F81814C2F8AC
:1090E0003415D3F81C14C2F84015D3F82014C2F874
:1090F0004415D3F82414C2F84815D3F82814C2F83C
:109100004C15D3F82C14C2F85015D3F83014C2F80B
:109110005415D3F83414C2F86015D3F83814C2F8D3
:109120006415D3F83C14C2F86815D3F84014C2F89B
:109130006C15D3F83411D3F84434C2F870350529CE
:1091400042D84D4B5B5C1BB14C4B4D4AC3F88C264F
:109150004C4B5B5C73B14FF080534B49D3F83021DB
:10916000FB20C1F81805082AD3F834117FF473AF37
:10917000052929D8454B5B5CBBB14FF080524FF0BD
:109180008040D2F85832D0F8E41ED2F8304121F0B5
:109190000F0103F00F030B43C0F8E43E082CD2F894
:1091A00034117FF458AF05290ED8394B5B5C5BB1A5
:1091B0004FF08053374AD3F830314FF40071082B09
:1091C000C2F840167FF447AF4FF08043D3F8002435
:1091D000D2077FF540AF6FF00102C3F800243AE7F1
:1091E000D3F83431052B08D94FF010224FF08043CB
:1091F000D2F80822C3F858253FE7274AD35C002B52
:109200003FF43BAFF0E7254A0123C2F80435D2F81A
:109210000034002BFBD04FF0102312211F4AC3F85B
:109220000012D2F80034002BFBD04FF01023122193
:109230001A4AC3F80412D2F80034002BFBD00023E2
:109240001649C2F80435D1F80034002BFBD0BFF327
:109250004F8F0549124BCA6802F4E0621343CB609A
:10926000BFF34F8F00BFFDE700ED00E0142B00209F
:109270000090D00300C0004050C7020000500040E2
:109280004881030050C7020000F0004050C70200B0
:1092900050C702000090024048C7020000E00140B1
:1092A0000400FA0510B568B90E4CA368012262707B
:1092B0003BB1D3E900230020A2609847A368002BAC
:1092C000F7D110BD0128FCD1064C2369A070002BFA
:1092D000F7D0D3E900230120226198472369002BAE
:1092E000F7D110BDB031002070B910B5074CA3689C
:1092F000012262703BB1D3E900230020A2609847AD
:10930000A368002BF7D110BD704700BFB03100201B
:1093100030B5012883B004D0032821D0B0B103B008
:1093200030BD294C00230DF107008DF80730FFF701
:1093300019F823786BB3E3689DF807000122134402
:10934000E360A270FFF734F803B030BD1F4B012279
:10935000C3F88020BFF34F8FBFF36F8F03B030BDD2
:10936000194C00F0B5F800230DF107008DF8073017
:10937000FEF7F8FFE368013BE360E3681BB9144BB9
:10938000D3F80054C5B19DF80700FFF711F803B0FA
:1093900030BD10486360A3602361E36000F08CF887
:1093A00002F066FC60B10A4AD2F80024012323705F
:1093B000002AC0D0A370BEE700F09CF8A570E2E7D9
:1093C00000F086F8EFE700BFB031002000E100E0D8
:1093D00000000140A592020030B50A4B0A4C53F838
:1093E000213054F82110027885B0D0E901548DF86D
:1093F0000020C26801958DF808400392684698479E
:1094000005B030BDCC310020C431002030B50A4B4E
:109410000A4C53F8213054F82110027885B0D0E975
:1094200001548DF80020C26801958DF80840039220
:109430006846984705B030BDCC310020C4310020CB
:10944000F0B5184B067843F82620174B0446487FA2
:1094500098551546154A8E46096942F82610227815
:109460009F5CBEE80F0089B0EC46ACE80F009EE8B8
:109470000F008CE80F0004964FB1002D0C4A69468E
:1094800008BF2A46201D01F0AFF809B0F0BD002D3D
:10949000084A694608BF2A4604F10C0000F024FE81
:1094A00009B0F0BDCC310020D4310020C4310020FF
:1094B000D99302000D940200044A137923B90121C3
:1094C000106091801846704785207047D831002081
:1094D000074B1A68D20704D4C02283F80023012264
:1094E0001A604FF080430122C3F81825704700BF6F
:1094F00000E100E04FF0804202210023C2F808138F
:1095000082B0C2F80431D2F80431019301230199E9
:10951000D360D2F81834DB03FBD402B0704700BF2D
:1095200010B54FF0804382B0D3F8002162B1002122
:10953000164AC3F80011D3F80011507900910121A7
:10954000009CC3F80813A8B14FF08043D3F804215E
:10955000CAB10022C3F80421D3F8042101920B4AB6
:1095600001980221C3F808131368012002B0BDE876
:10957000104018471368517198474FF08043D3F853
:109580000421002AE5D102B010BD00BFD83100206F
:1095900030B5224C94F86A3083B0002B3AD14FF6A4
:1095A000FF704FF0FF0C5A09012A18BF4FF0FF312E
:1095B00003F01F0208BF014621FA02F2D20748BF9A
:1095C000E21803F1010348BF82F830C0302BEAD122
:1095D0004FF0FF352C22FF211148256002F045FC99
:1095E0001049114B25660020C0226066888083F8F0
:1095F000062340221A600D4BC3F87C01D3F87C117E
:1096000001914FF000420121019D84F86A10C3F8D6
:10961000042300E0082003B030BD00BFE03100208B
:10962000E43100204432002000E100E0006000400E
:10963000034B93F86A00003818BF0120704700BF41
:10964000E031002070B57D4B03EB000E9EF930C079
:10965000BCF1000F01DB082070BD91F802C01CF0C6
:10966000020FCCF340055DD11C6A013400F0DF80AD
:109670005C6A013400F0D1804FF00C0E4FF00A0C00
:1096800053F82C40013459D00CF10104744547D2F1
:1096900053F82460013600F0B8800CF102047445E0
:1096A0003ED253F82460013600F0AF800CF103067F
:1096B000764535D253F8264001343ED00CF10406ED
:1096C00076452DD253F82640013436D00CF10506EC
:1096D000764525D253F8264001342ED00CF10606EB
:1096E00076451DD253F82640013426D00CF10706EA
:1096F000764515D253F8264001341ED00CF10806E9
:1097000076450DD253F82640013416D00CF1090CE1
:10971000F44505D2DC6A013408BF4FF00B0C0DD0C4
:10972000042070BD1C68013471D05C6801347BD0AA
:109730004FF0080E4FF0020CA2E7B44643F82C207D
:109740001A184FFA8CFE82F830E015B99C448CF858
:1097500058008A7854071CD4D50747D51F2887BFDF
:10976000374A00F01F0404464FF0A04202EB840287
:10977000D2F8004724F00204C2F80047314DC40873
:1097800000F0070C2E5D012202FA0CF232432A553A
:109790008A7812F002021CD04FEA8E0303F1804354
:1097A00003F5C0430978D3F8104524F44F3424F46A
:1097B0004074C3F8104502020904D3F8100501F4FF
:1097C000403102F47C520A430243C3F810250020C2
:1097D00070BDAEF1080E43FA8EF30C7893F860106A
:1097E000104641EA841283F8602070BD1F284C782F
:1097F00087BF134D00F01F0202464FF0A04502F54F
:10980000E072A40045F82240B8E7A44696E71A6043
:1098100000228EF8302096469BE74FF0090C8EF818
:1098200030C05A62E64691E74FF0010C86E74FF0F0
:10983000080C8EF830C01A62E64687E7E031002057
:10984000000300504432002010B4334C231883B07E
:1098500093F93030072B25DD083B44FA83F393F866
:1098600060309B09032B46D0012B0CBF4FF4003214
:109870004FF440321F288ABF284B4FF0A04300F01E
:109880001F0003EB8000D0F8003723F44033C0F80A
:109890000037D0F800371A43C0F8002703B05DF84E
:1098A000044B7047DAB2072AF8D89A0002F18042D6
:1098B00002F5C042D2F8100540F00100C2F81005D0
:1098C00003F1400252B2920092B202F1804202F5DC
:1098D000C0420020106012680192019A0029DDD078
:1098E00054F82320002AD9D00D49012202FA03F3AB
:1098F000C1F80433D2E71F288ABF084A4FF0A042BC
:1099000000F01F03D2F8102598BF0346DA4002F09A
:10991000010202321204ADE7E031002000030050E2
:1099200000600040194B034493F93030072B13DDDE
:109930001F288ABF164B4FF0A04300F01F0003EB17
:109940008000D0F8003723F44033C0F80037D0F857
:109950000037C0F800377047DAB2072A14D89A00E7
:1099600002F1804202F5C04210B4D2F81005094C51
:10997000012120F0010001FA03F3C2F81005C4F838
:1099800008335DF8044B7047704700BFE03100209A
:1099900000030050006000402DE9F047002384B030
:1099A000CDE902331C4AD2F80011012900F03082BF
:1099B0001E46194BD3F80421012A00F01A82164BD7
:1099C000D3F80821012A00F00582134BD3F80C21AB
:1099D000012A00F0F081104BD3F81021012A00F089
:1099E000DB810D4BD3F81421012A00F0C1810A4B11
:1099F000D3F81821012A00F0AC81074BD3F81C21C1
:109A0000012A0BD0044BD3F87C21012A00F02182DB
:109A100056BB04B0BDE8F08700600040D3F80423D3
:109A20001206EFD50022C3F81C21D3F81C110091B7
:109A3000D3F87C110098012946F0800614D1C3F8B0
:109A40007C21D3F87C3101934FF0A042019BD2F8E6
:109A50002015CF4B0291C2F82015D3F82025039290
:109A6000C3F8202546F00046CA4F00240125A30074
:109A700003F18043354203F5C0434FEA45050BD05F
:109A8000D3F8100557F82420D3F81015C0F305209B
:109A9000C1F3014102B190470134082CE7D1002EF7
:109AA000B7DABC4CBA4E01254FF0A04794F96000DC
:109AB000431C48D0C0F3C20202F110030DEB0302B5
:109AC00000F0070312F8082C05FA03F31A42C1B29A
:109AD00000F03F0037D01F2800F22B8102464FF0E4
:109AE000A04909EB820305FA02F2D3F800C7D3F8C4
:109AF00000E72EF4403EC3F800E704EB000ECCF381
:109B0000014C9EF930E0D3F800A754F82E80BCF148
:109B1000020F0CBF4FF4403E4FF4003E4EEA0A0ED7
:109B2000C3F800E7C9F82025B8F1000F0BD0890968
:109B3000032900F08281BCF1020F00F07B81BCF1AF
:109B4000030F00F0A68194F96100411C48D0C0F3D6
:109B5000C20202F110030DEB030200F0070312F83A
:109B6000082C05FA03F31A42C1B200F03F0037D0C7
:109B70001F2800F2E28002464FF0A04909EB820361
:109B800005FA02F2D3F800C7D3F800E72EF4403EFE
:109B9000C3F800E704EB000ECCF3014C9EF930E073
:109BA000D3F800A754F82E80BCF1020F0CBF4FF47D
:109BB000403E4FF4003E4EEA0A0EC3F800E7C9F8F3
:109BC0002025B8F1000F0BD08909032900F03A8154
:109BD000BCF1020F00F03381BCF1030F00F05D8196
:109BE00094F96200421C48D0C0F3C20202F1100393
:109BF0000DEB030200F0070312F8082C05FA03F33B
:109C00001A42C1B200F03F0037D01F2800F29980FD
:109C100002464FF0A04909EB820305FA02F2D3F89D
:109C200000C7D3F800E72EF4403EC3F800E704EB8A
:109C3000000ECCF3014C9EF930E0D3F800A754F8A5
:109C40002E80BCF1020F0CBF4FF4403E4FF4003E9B
:109C50004EEA0A0EC3F800E7C9F82025B8F1000F54
:109C60000BD08909032900F0F280BCF1020F00F04B
:109C7000EB80BCF1030F00F0088194F96300431CF2
:109C800047D0C0F3C20202F110030DEB030200F053
:109C9000070312F8082C05FA03F31A42C1B200F0C8
:109CA0003F0036D01F2850D802464FF0A04909EB9C
:109CB000820305FA02F2D3F800C7D3F800E72EF4C6
:109CC000403EC3F800E704EB000ECCF3014C9EF9D4
:109CD00030E0D3F800A754F82E80BCF1020F0CBF7F
:109CE0004FF4403E4FF4003E4EEA0A0EC3F800E740
:109CF000C9F82025B8F1000F0BD08909032900F01D
:109D00009780BCF1020F00F09080BCF1030F00F0CF
:109D1000B880D7F820250292C7F82025D6F820353C
:109D20000393C6F8203513437FF4C0AE04B0BDE8FA
:109D3000F08701F01F02B146D3E601F01F02B146E1
:109D40001CE701F01F02B14665E701F01F02B146B2
:109D5000ADE7D3F8042351067FF54FAE0022C3F8D8
:109D60001821D3F818310093009B46F0400644E6D2
:109D7000D3F8042390067FF53AAE0022C3F81421ED
:109D8000D3F814310093009B46F020062FE600BF65
:109D900000030050E0310020D3F80423D4067FF5FF
:109DA00020AE0022C3F81021D3F810310093009B9D
:109DB00046F0100615E6D3F8042315077FF50BAE21
:109DC0000022C3F80C21D3F80C310093009B46F01D
:109DD000080600E6D3F8042357077FF5F6AD002206
:109DE000C3F80821D3F808310093009B46F004061D
:109DF000EBE5D3F8042392077FF5E1AD0022C3F829
:109E00000421D3F804310093009B46F00206D6E506
:109E1000D2F8046316F001063FF4CBADC2F800316E
:109E2000D2F800310093009BC3E501297FF471AFA4
:109E3000C0476EE701297FF486AEC04783E601295B
:109E40007FF4CEAEC047CBE601297FF416AFC04702
:109E500013E70022C3F87C21D3F87C3101934FF043
:109E6000A042019BD2F820150E4B0291C2F820159A
:109E7000D3F820250392C3F82025002E3FF411AE1D
:109E8000F0E502297FF445AFD2E702297FF4F5AE71
:109E9000DDE702297FF457AECFE702297FF4A0AEB9
:109EA000D0E700BF00030050014B1B68184700BFFC
:109EB0004C320020104B98421BD130B583B00023A8
:109EC0000DF107008DF807300D46FEF74BFA0B4BEE
:109ED0009DF807001C793CB901221D601A71FEF73C
:109EE00067FA204603B030BDFEF762FA112003B0D6
:109EF00030BD0020704700BF002000404C320020E1
:109F0000034B984203D1034B00221A601A71704729
:109F1000002000404C32002010B5714AD2F80433C2
:109F200099058AB068D5D2F82431002B64D000217D
:109F30006C4BC2F82411D2F8240193F82910019037
:109F40004FF40170019CC2F8080309B90121516066
:109F50006349D86802228DF81820D1F88024C1F80E
:109F600080249FED5D7B996983ED067BCDE9081226
:109F7000D3E90012079006A89047594AD2F81C313D
:109F8000C3B1584B5869196A88426AD993F82810A6
:109F900001F0FF00002964D1C2F81C01D2F81C11A5
:109FA000039103999C68186A196A205C013119624F
:109FB000C2F81C054A4AD2F84431DBB10021494BB2
:109FC000C2F84411D2F8440193F829100090009887
:109FD00009B1012111609A6962B1D8685C6A0021F7
:109FE0000122CDE9070499618DF8182006A8D3E96C
:109FF000001290470AB010BD394AD2F804335B070B
:10A00000BBD5D2F80831002BB7D0364B996900295F
:10A010003ED00021C2F80811D2F808110491049929
:10A02000D868596AD2F8182542545A6A9969013297
:10A030005A625A6A8A42A0D1DA69002A31D09A61FA
:10A040001A69D8685C6ADA60002101220894D96133
:10A05000596207905C6819688DF8182006A8A04717
:10A060008BE71F4A0020C2F81C01D2F81C21029283
:10A07000029A5A69002A9DD0D3E901215C698DF8C2
:10A080001800CDE907145861196806A8904791E7B0
:10A09000C2F80811D2F8080105900598D2F81825E1
:10A0A000C7E793F8292012B90D4A012151600C4AE3
:10A0B000D8684FF40171C2F808135C6A00210122CC
:10A0C00099618DF81820D3E90012CDE9070406A89C
:10A0D000904752E7AFF3008000000000000000004E
:10A0E00000200040583200202DE9F043694D90F8DF
:10A0F00004802C2303FB085383B093F82A30002BF1
:10A1000040F08D8006460C46006863491746FFF70D
:10A11000D1FE00287FD1216833684A1C14D01F2942
:10A1200087BFDFF884E101F01F020A464FF0A04E1E
:10A130004FF0010C0CFA02FC02F5E072CEF808C5F3
:10A140004FF0030C4EF822C0D4F804C0BCF1FF3F1E
:10A150000FD0BCF11F0F8BBF0CF01F026246DFF85F
:10A1600048E14FF0A04E02F5E0724FF000094EF8C2
:10A170002290A269C3F8242594F814E0627DBEF110
:10A18000010F4EEA0202C3F86C25C3F814C5C3F8E8
:10A190000C154FD02C2303FB08F3EA1857602269F3
:10A1A000EA502FB33368227F0021C3F81C11D3F883
:10A1B0001C410094009CC3F84411D3F84411019150
:10A1C00001993649C3F8041343F3073100294FEAD4
:10A1D000133428DB324F52017B18D2B283F80023AC
:10A1E0000123490904F01F0403FA04F447F821404D
:10A1F00033680422C3F800252C2303FB08550122F1
:10A200000023C5E9063385F829306B6185F82A20DB
:10A2100003B0BDE8F083112003B0BDE8F08308204F
:10A2200003B0BDE8F0831F4904F00F045201D2B21D
:10A230000A55DEE7A1684A1C0ED01F298BBF01F02A
:10A240001F020A46DFF860E04FF0A04E02F5E07210
:10A250004FF0000C4EF822C0E268B2F1FF3F14D07C
:10A260001F2A87BFDFF8409002F01F0C94464FF082
:10A27000A0494FF0010E0EFA0CFE0CF5E07CC9F877
:10A2800008E54FF0030E49F82CE0C3F80825C3F8A1
:10A2900010157FE758320020199F0200800002004D
:10A2A00000E100E014ED00E000030050F8B50346C3
:10A2B000067900683A4C0022C0F800252C2202FBE7
:10A2C00006425268BAB1374AC0F8082340F3073251
:10A2D000002A4FEA10310EDB5209334D20320120A3
:10A2E00001F01F0100FA01F145F82210BFF34F8F72
:10A2F000BFF36F8F1868D0F80C55D0F81415D0F84C
:10A300000835D0F810254FF0FF37BD42C0F814755E
:10A31000C0F80C75C0F80875C0F810750CD01F2D6A
:10A3200086BF05F01F05214F4FF0A04705F5E075EA
:10A330004FF0020C47F825C04D1C0BD01F2986BFDB
:10A3400001F01F01194D4FF0A04501F5E071022702
:10A3500045F82170511C0BD01F2A86BF02F01F0246
:10A3600012494FF0A04102F5E072022541F8225057
:10A370005A1C0BD01F2B86BF03F01F030B4A4FF054
:10A38000A04203F5E073022142F82310FFF7B8FD65
:10A390002C2303FB0644002384F82A306360F8BDB5
:10A3A000583200208402020000E100E00003005067
:10A3B000F0B52E4C90F804C02C2303FB0C4385B061
:10A3C0005D69002D45D15A6102681D6283F82850ED
:10A3D000C2F81C519960D2F81C1102910299012116
:10A3E0009160C2F81C51D2F81C1101910199986832
:10A3F000196A465C196A013119625968C2F81C650C
:10A4000011B1284605B0F0BD5E69196A8E4219D9AE
:10A410002F4602E093F82810F9B9D2F81C11002950
:10A42000F8D0C2F81C71D2F81C1103910399196A73
:10A4300010F801E0196A01311962C2F81CE5196AC5
:10A440008E42EAD8D2F81C31002BFBD00123D36016
:10A4500004E01125284605B0F0BD0F252C2303FB91
:10A460000C4428460023636105B0F0BD583200203B
:10A4700010B55B4BD3F824218AB0002A58D00022B3
:10A48000C3F82421D3F82411049102228DF8182056
:10A490000499544AD3F88014C3F880149FED4E7B7E
:10A4A0000991D3F83C45D06882ED067BCDE90704DD
:10A4B000D2E9001306A89847494BD3F8442152B17A
:10A4C0000021484AC3F84411D3F84401916903902C
:10A4D0000398002961D1424BD3F8202162B10020BA
:10A4E000C3F82001D3F82021029201213D4A029CA9
:10A4F000D9605169002943D1394BD3F85821AAB109
:10A500000020C3F85801D3F85811364A0191019937
:10A51000516959B1D3F84C458DF81800D2E9013191
:10A520005061CDE9071406A8116898470AB010BD1C
:10A53000D3F810110029BFD0C3F81021D3F810119F
:10A54000284C05910599A169D3F83C058842B3D1FF
:10A55000E169002933D0C4E90612D3F8002222F0C1
:10A560002002C3F80022E2680792012122698DF8D7
:10A570001810089063682168E26006A898479BE776
:10A58000D3F84C458DF81800D2E901315061CDE97E
:10A59000071406A811689847AEE79FED0F7BD3F824
:10A5A0003C45D0684FF0010CCDE9070482ED067BF5
:10A5B000D2E900138DF818C006A898478BE7E26827
:10A5C000A1610123CDE907208DF8183006A8D4E950
:10A5D0000013984770E700BF000000000000000073
:10A5E00000200040883200202DE9F0470779744EA2
:10A5F00007EBC70306EB830386B093F82030002BEC
:10A6000040F0A38005460C4600686E499046FFF76F
:10A6100051FC002840F09580D4F800C02A68BCF1B5
:10A62000FF3F4FEAC70912D0BCF11F0F87BFDFF809
:10A63000A0E10CF01F0363464FF0A04E01219940AA
:10A6400003F5E073CEF8081503214EF82310616876
:10A650004B1C0ED01F298BBF01F01F030B46DFF8E8
:10A6600070E14FF0A04E03F5E0734FF0000A4EF892
:10A6700023A0A369C2F8243594F814E0637DBEF1E9
:10A68000010F4EEA0303C2F86C35C2F80CC5C2F8DC
:10A69000141565D009EB070206EB8203C3F80480AA
:10A6A000236946F82230B8F1000F39D02B68227F99
:10A6B0000021C3F81011D3F810410194019CC3F894
:10A6C0002011D3F820410294029CC3F82411D3F83E
:10A6D00024410394039CC3F84411D3F844410494E7
:10A6E000049CC3F85811D3F85811059105993649BF
:10A6F000C3F8041343F3073100294FEA133428DB6E
:10A70000DFF8D0C052010CEB0103D2B283F8002372
:10A710000123490904F01F0403FA04F44CF8214012
:10A720002B684F4406EB87060121002286F8201093
:10A730000821C3F80015C6E90622726106B0BDE81B
:10A74000F087112006B0BDE8F087082006B0BDE80C
:10A75000F0871E4904F00F045201D2B20A55E0E717
:10A76000A368591C0ED01F2B8BBF03F01F01194685
:10A77000DFF85CE04FF0A04E01F5E0714FF0000C07
:10A780004EF821C0E168B1F1FF3F14D01F2987BF07
:10A79000DFF83CA001F01F0C8C464FF0A04A4FF0B0
:10A7A000010E0EFA0CFE0CF5E07CCAF808E54FF03D
:10A7B000030E4AF82CE0C2F80815C2F8103569E714
:10A7C0008832002071A402001003420014ED00E062
:10A7D0000003005000E100E0F0B50579554C05EBB1
:10A7E000C50204EB820203465268006883B0EE00A3
:10A7F000CAB1514AC0F8082340F30732002A4FEA91
:10A80000103110DB5209DFF838C12032012701F086
:10A810001F0107FA01F14CF82210BFF34F8FBFF36D
:10A820006F8F196800E00146731904EB83039A697E
:10A83000D0F8003223F02003C0F8003242B10023E8
:10A84000C0F84431D0F844310093009B01234360A9
:10A850000023C0F85831D0F858310193019B731987
:10A86000012204EB8303C2609A69D0F85831002BAF
:10A87000FBD01AB1D0F84431002BF6D00023C0F839
:10A880000035D1F80CC5D1F81475D1F80835D1F8D8
:10A8900010254FF0FF3EF445C1F80CE5C1F814E572
:10A8A000C1F808E5C1F810E50DD0BCF11F0F86BF57
:10A8B0000CF01F0CDFF884E04FF0A04E0CF5E07CAC
:10A8C00002214EF82C10791C0CD01F2F86BF07F0E8
:10A8D0001F07DFF868C04FF0A04C07F5E0770221B2
:10A8E0004CF82710511C0BD01F2A86BF02F01F0204
:10A8F000124F4FF0A04702F5E072022147F82210F4
:10A900005A1C0BD01F2B86BF03F01F030B494FF0BF
:10A91000A04103F5E073022241F82320FFF7F0FA8B
:10A92000354404EB8504002384F82030636003B0D1
:10A93000F0BD00BF88320020100342000003005029
:10A9400000E100E001F0604CBCF1005F43D170B564
:10A9500090F804E0234C0EEBCE0C04EB8C0C034679
:10A96000DCF8140082B04FEACE05002835D11B6810
:10A97000CCF81420C3F82001D3F820210192019AC9
:10A98000C3F85801D3F858210092009ADCF81460FB
:10A99000CCF808100122C3F84415C3F848659A6042
:10A9A000DCF8042012B102B070BDC8B9D3F8202180
:10A9B000D3F85801002AF8D090B90122DA60D3F810
:10A9C0005821002AFBD005EB0E0304EB8303002281
:10A9D0005A6102B070BD10207047112002B070BDE6
:10A9E0000F20F0E788320020032806D8012A06D07D
:10A9F00001291BD0022908D071B107207047012915
:10AA000011D002294FF00002F6D10B4B00EB4000B1
:10AA1000034400205A707047074B00EB400003448A
:10AA200008469A70704700F10E02D2B200EB400364
:10AA300001490020CA547047AC3200200388102B13
:10AA400010B507D0112B04D1254B186801381860B8
:10AA500030B110BD224C216811B30131216010BD0D
:10AA600001220221FFF7C0FF40B1072806D01D4B8D
:10AA70001B68002BEDD0BDE81040184707220221CB
:10AA80000120FFF7B1FF08B10728F0D100210A2209
:10AA90000846FFF7A9FF0028DBD00728E7D1D8E751
:10AAA00001220846FFF7A0FF38B1072805D00D4B5B
:10AAB0001B6803B198472168CFE7072202210120D4
:10AAC000FFF792FF08B10728F1D1042202210020EC
:10AAD000FFF78AFF0028EED00728E8D1EBE700BF98
:10AAE000BC320020B832002000B585B004230191AB
:10AAF000ADF80E30B0B90DEB03010DF10E024FF6BB
:10AB0000FF73104801F076F80F4B1048019A104976
:10AB1000C01AC008000440F00300FCF785FF05B030
:10AB20005DF804FB084B0948C01AC0080B46000436
:10AB300008491A4640F00300FCF792FE05B05DF8A4
:10AB400004FB00BF182B00209CBF0200C4BF020002
:10AB500084C702009CC7020008B51349192000F001
:10AB600085F84FF480410020FCF7FAFCB0B9FCF7FF
:10AB7000DBFCFEF7E3F9A0B90C4B0D480D49C01AF8
:10AB8000C008000440F00300FDF72CF8012000F09D
:10AB9000F5F8FCF735FDFEF7E7F9FAE7FDF700FBFE
:10ABA000E5E7FDF7FDFAE7E7E9AA02009CBF02002E
:10ABB000C4BF0200B8C7020070B51820FEF7B2FE8D
:10ABC000244C254B254801210025D9604FF0170C56
:10ABD00025714FF0A04E2560016002E0D0F84021C1
:10ABE000AAB95964D3F84425172AF7D91C4D2B78F4
:10ABF00013B91C4B01225A6323792168182B1A4B75
:10AC00001AD01B68012098472B78EBB970BDC0F8AB
:10AC10004051DEF810252668C2F3006202FA0CF2F9
:10AC20003243226022790CF1FF3C0132D2B2BCF1F6
:10AC3000FF3F2271D5D1D9E71B6841F317010020EE
:10AC400098472B78002BE1D0BDE8704001211820F7
:10AC5000FEF7FABD2437002000A00040009000401D
:10AC600018370020006000401C37002030B583B04A
:10AC700002249DF80620ADF804404FF0A043364D65
:10AC8000364C296022F007028DF80620032220604E
:10AC90004FF40005C3F85C2740F20F22C3F80855B3
:10ACA0004FF00071C3F864270022C3F80815C3F8F9
:10ACB0006027FEF7BDFC002844D0294A01A91820CE
:10ACC000FEF7C0FC002844D1264A01211023C2F817
:10ACD00040152020C2F8443500210423C2F848055D
:10ACE000C2F80032C2F8101502F5805225681E49DC
:10ACF000C2F840550220C2F804051C4B1C4C1D48EC
:10AD0000C1F81445A2F56C6201F54551C3F8102550
:10AD1000194CC3F81405043102F6C86200F58240EC
:10AD2000C3F818150C30C3F81C45A1F59A71C3F887
:10AD300014290722C3F82005C3F82415C3F80025F9
:10AD400003B030BDFEF724FC0028B6D0FDF728FA8A
:10AD5000B3E7FDF725FAB7E71C37002020370020BE
:10AD6000B9AB0200009000400060004000F00140DC
:10AD70000317110034600040646000400121044A60
:10AD8000044B4840107059661820FEF75DBD00BFA7
:10AD900018370020006000402DE9F04FDFF8A09147
:10ADA00000EB400609EBC60683B0F76A012F804628
:10ADB0008B4692464FEA400407D0022F49D03FB35A
:10ADC0000027384603B0BDE8F08FB76A756AAF4216
:10ADD0007AD9013F7F1B366A574528BF5746721BF9
:10ADE00097427BD208F1010303EB430309EBC30352
:10ADF000594658683A46284401F00EF8444409EB95
:10AE0000C4093D443846C9F8245003B0BDE8F08F6A
:10AE1000B36A756AAB429CBF326A9B18013B5B1BED
:10AE20009A45CED8044409EBC40400F10108266A0F
:10AE3000771B08EB4808BA4509EBC8096ED2D9F868
:10AE4000040052462844554400F0E6FF5746656228
:10AE5000B7E700F1010808EB4808756A4FEAC8082F
:10AE60000027B26AAA4202F1FF3422D9621B346A77
:10AE7000524509EB0801A4EB050428BF5246944251
:10AE8000486828BF144628445946224600F0C4FFAB
:10AE9000336A25449D42AAEB040A2744A3440DD0FB
:10AEA0007562BAF1000F8CD0B26AAA4202F1FF3487
:10AEB000DCD8346A2244013A521BD9E70025756276
:10AEC000BAF1000FCDD17CE7366A3744013F7F1BD2
:10AED000574528BF5746721B974283D308F1010A92
:10AEE0000AEB4A0A09EBCA0A5946DAF80400019249
:10AEF000284400F091FFBE1B019ADAF804003544A3
:10AF00000BEB02012A4600F087FF444409EBC40919
:10AF10003846C9F8245003B0BDE8F08FD9F80400D2
:10AF2000284455443A46AD1B00F076FF0BEB070171
:10AF3000D9F804002A4600F06FFF5746656240E7E3
:10AF40002C3700201348144B1449006810B4C3F880
:10AF5000070003C918600220114C9980C3E904005E
:10AF60001048C3E906404FF4007018620E484FF0D5
:10AF7000200C0022C3E9124083F806C010209A6218
:10AF80005DF8044B5A62DA6218659A655A65DA65AB
:10AF9000704700BFF8C702002C370020FCC7020032
:10AFA000ECC70200B4370020A437002000B3012909
:10AFB0004FF000030FDD00EB030C9CF801C094453B
:10AFC00009D010F803C00CF1010C63449BB203F1EB
:10AFD000010C6145EFDC8B4209D2C25C3AB1013A07
:10AFE00092B222B102339BB21A44914201DA00209C
:10AFF00070471844704700BF72DF704773DF7047B7
:10B00000C288F8B50023C0F8263404460D46817086
:10B0100000F22646C0F829340AB1012963D0E37949
:10B02000002B5ED194F82734002B40F08B8094F8ED
:10B030002834002B40F0868094F82934002B40F00F
:10B04000818094F82A34002B7CD194F82B34002B87
:10B0500078D194F82C341A1E18BF01226B1E032BD2
:10B0600000F25181DFE803F00206090DA379002BFD
:10B0700040F00081E379002B66D1237A002B40F069
:10B080009080657A002D74D194F82400A570002377
:10B0900084F82F34E26A0023E36323646364A364C7
:10B0A000E3642365511E0123994204F13C0784F8AF
:10B0B0003C3022D9042A20D084F8513010B3A36A3E
:10B0C0005A1E012A3CD9042B3AD0012384F852306D
:10B0D000042D2CD8DFE815F067001D00F4009E0059
:10B0E0006B00022D9ED1636B002B00F004810122C6
:10B0F00084F82D240820984794E7D3B284F851307F
:10B100000028DCD1042D12D8DFE805F04D03BD8402
:10B11000510000230122C4E9106384F83120C4F8EF
:10B1200020340222802384F83C20A4F84830D4F84C
:10B1300020143A4604F15400FFF75EFF50B1F8BD09
:10B14000DBB2C3E7012289E7002A96D094F82400F5
:10B1500002259BE794F8301094F85400FFF74EFF57
:10B160000028ECD1636B13B194F8310098470020AC
:10B17000F8BD0425636BA570002B00F0B9806279DF
:10B18000002A00F0B58094F82E24002A40F0B08008
:10B1900001220720A4F82F24984794F82400A578CA
:10B1A00078E70325E6E7002384F83130DAE7D4E9CD
:10B1B00007236264A4F8483010B1062384F83C30B9
:10B1C0006379002B00F08E8094F82E34002B40F031
:10B1D000898094F83034002B00F084800223B4F886
:10B1E0001414D4F8100484F850300122FFF7DEFE66
:10B1F00008B10423037004F582663A46314604F12F
:10B200005400FFF7F9FE002878D10623A57884F8CA
:10B21000313061E0D4E905236264A4F8483010B10C
:10B22000062384F83C306379002B50D094F82E34F8
:10B23000002B4CD194F83034002B48D00223B4F8C2
:10B240001414D4F8100484F850300122FFF7AEFE35
:10B2500008B10423037004F582663A46314604F1CE
:10B260005400FFF7C9FE002848D10523A57884F8CB
:10B27000313031E094F8240000287FF4FBAE002A3E
:10B280003FF4FBAE02E7022384F83130032384F855
:10B290003C302369A4F848300023C4F82034E36824
:10B2A000C4E91063002D3FF45DAFD4F820143A4692
:10B2B00004F15400FFF7A0FE00287FF440AF49E7F7
:10B2C000022384F83130072384F83C30E1E703257A
:10B2D00084F8315004F58266C4F82064002D3FF4F0
:10B2E00041AFE2E7042584F8315004F58266F3E7C4
:10B2F00094F82400CBE684F82D3493E6A578002D4D
:10B300003FF430AFD1E7002594F82400A570BEE6E5
:10B310000388112B10B50C460BD0262B22D0102BF6
:10B3200000D010BDC37B012BFBD18388A1F824344E
:10B3300010BDB1F82424838800219A4284F82E1489
:10B34000EFD12379002BECD1237813B301212046D0
:10B35000FFF756FE0028E4D0A36B002BE1D0BDE838
:10B3600010401847037A013B012BDAD80B7883B1E0
:10B370008978094B0131A3FB012303F4FE7202EB30
:10B380009303C91AC9B22046FFF73AFE0028E3D159
:10B3900010BD0820E0E700BFCDCCCCCC70B5028852
:10B3A000122A82B003466ED015D8102A30D0112A46
:10B3B0000FD16A4C828823889A420AD16068FCF7D0
:10B3C00091FF18B1664B9B6903B198474FF6FF7325
:10B3D000238002B070BD502AFBD1614DC188EA893B
:10B3E0009142F6D1028A022AF3D15C4C82882688E7
:10B3F0009642EED1123000F0A1F9002800F09980B9
:10B40000637A002B40F09C80D5E90113324668E056
:10B4100090F80FC0BCF1010FDBD1504C21884FF6E2
:10B42000FF7291427ED14F4D8288B0F812E02280A7
:10B430000021217203CDC4F80A00C4F80E106189FE
:10B44000714560D8A18971455DD3E1899B8A40F23D
:10B45000F315A94294BF481A481B984253D829446F
:10B46000994250D33E4D84F809C0EB89002BB0D1EE
:10B470006B69002BADD001218DF80410ADF80620CA
:10B4800001A89847A5E7354C828821889142A0D130
:10B490004089658985421FD8A58985421CD3E089EA
:10B4A0009B8940F2F31C604594BF051AA0EB0C0584
:10B4B0009D4211D8604498420ED3294B5B694FF4EA
:10B4C00080722281002B84D001228DF80420ADF8F7
:10B4D000061001A898477CE7214D00236372696834
:10B4E000AB68207A002818BF19466068FCF79EFEFA
:10B4F00000283FF46EAFAB69002B3FF46AAF02B097
:10B50000BDE870401847164DEB8900216172002B91
:10B510007FF45FAF69686068FCF788FE00283FF43D
:10B5200058AFE8E70E4B9B69002B3FF452AF042065
:10B53000E5E76068FCF7D6FE00283FF44AAFDAE79B
:10B540006B6900222272002B3FF443AF01228DF879
:10B550000420ADF8066001A898473AE7D0390020EA
:10B56000B4390020E43900202DE9F04F0388B0F809
:10B570000490103B99B007460A2B12D8DFE803F07D
:10B580002871111111111111117814004648494602
:10B59000FCF788FF45484946FCF784FFFB7B022BFC
:10B5A0007CD019B0BDE8F08F037A41483F2B4FEAB9
:10B5B0001314494665D9FCF775FF3E484946FCF728
:10B5C00071FF3D48494619B0BDE8F04FFCF76ABF2E
:10B5D0003A4A9368DB43009351686846FCF79AFF48
:10B5E000009B0193019B9BB34FF00008444621460A
:10B5F00001A8FCF76FFF30B118AB03EB480308F16B
:10B60000010823F8284C0134142CF0D1CDF83480F3
:10B610000DAD0FCD02AC0FC40FCD0FC495E80700E0
:10B6200084E80700B8F1000F12D0254E0DF10A0B87
:10B630004FF0000A3BF8025F1C4C204629460434B8
:10B64000FCF73CFFA642F8D10AF1010AC245F1D14C
:10B65000B9F1130F9AD90420FCF7A2FD19B0BDE887
:10B66000F08F1148494619B0BDE8F04FFCF726BFEE
:10B67000037A002B95D1437A0D481B074946F2D532
:10B68000A1E7FCF71BFF032C97D00A484946FCF7BB
:10B6900015FF022C95D008484946E4E70948494679
:10B6A000FCF700FF7DE700BFF4390020F0390020EF
:10B6B000043A0020003A0020FC390020EC39002038
:10B6C000683A0020F8390020132801D91420704767
:10B6D00010B5044621460448FCF7FCFE08B120469C
:10B6E00010BD142010BD00BFF03900201AB3002394
:10B6F00070B5044615461360B8B10368ABB1C38892
:10B7000013F003060FD10846FFF7DEFFC0B214287E
:10B710000FD0237983420AD9E288236800FB0230E4
:10B720002860304670BD072070BD0E2070BD04201B
:10B7300070BD052070BD0E20704700BF008800F06E
:10B740000100704790DF7047A5DF7047B5DF704795
:10B7500070B5002484B061F30F04002361F31F442B
:10B760006A4602A90294064603930093ADF804309A
:10B77000FFF7E8FF044610B9204604B070BD124B35
:10B78000124DED1AED08FDF739FC2D0445F00105C9
:10B7900003460F4932462846FCF762F8BDF8002000
:10B7A000BDF8023052EA030103D00A492846FCF7EB
:10B7B00057F8BDF80420002ADED028460649FCF7D9
:10B7C00033F9204604B070BD9CBF0200F4BF0200F4
:10B7D00004C8020050C8020090C802008288002AF3
:10B7E0003FD130B50388242B83B00C4611D80F2BE2
:10B7F00033D9103B142B30D8DFE803F074992F2F86
:10B800002F2F2F2F2F2F2F2F2F2F2F2F2F2F2FA2D5
:10B8100088003A2B46D0552B1FD1C388C988A27205
:10B82000172B38BF17238B4228BF0B4623811046A6
:10B83000FFF78CFF002840F08E80E37A6BB9226915
:10B840005AB12189ADF8041040F67720ADF8000018
:10B85000ADF80230694620469047A37A5BB903B041
:10B8600030BD7047112840F09180237B627B01211D
:10B870009A42A17245D3E1880020FFF765FF60B3CB
:10B880001128ECD0FDF7BAFB484B4949024649481C
:10B890001B1ADB081B0443F0010003B0BDE8304075
:10B8A000FCF7C2B84389C98825698B4228BF0B467B
:10B8B000172B38BF1723238165B1E17A51B140F6C8
:10B8C0007721ADF80010ADF80220ADF804306946DC
:10B8D0002046A84700236381C1E74FF4807363814A
:10B8E00003B030BDC27B0B790B73012A41D0022A11
:10B8F0002FD14988E18022898A423DD3627B9A42D6
:10B90000ABD219460020FFF723FFA6E70B69027AA6
:10B910004A73002BA1D000204DF67A218DF8050046
:10B9200000918DF8042069462046984795E7224902
:10B93000C4F80610002241F6FB336281A3818EE732
:10B94000017A237B994228BF19460020FFF700FFA8
:10B9500083E7C988CFE7FDF751FB144B174902462F
:10B9600014481B1ADB081B0443F00100FCF75CF8C9
:10B9700063E70988E180BEE70020FFF7E5FE0028C5
:10B980007FF470AF0122237BE272B7E7FDF736FB4D
:10B99000064B0749024607481B1ADB081B0443F005
:10B9A0000100FCF741F8237BA8E700BFF4BF0200C9
:10B9B000E8C802009CBF0200F70017001CC9020083
:10B9C000B0DF704766DF7047F9B170B5054684B0E7
:10B9D00050B10B78DE2B0C4606D180884B889842FC
:10B9E00014D02B88012B01D004B070BD2E7A012E0B
:10B9F000FAD16388A8889842F6D126720021FFF711
:10BA0000E1FF00284DD12072EEE770470B7AEBB9C9
:10BA10002B88112B31D0512BE4D1AB79022BE3D100
:10BA2000AA7B02F0FD0104292ED0052ADCD10022D8
:10BA30006946C1E901220092CA608DF80030FFF723
:10BA4000BFFF0028D0D063689847CDE70021FFF7FB
:10BA5000B9FF0346B0B1112813D0636898472B880B
:10BA6000112B06D0512BBDD1A88863888342D4D036
:10BA7000BAE7AA8863889A42B6D14FF6FF7363800B
:10BA8000B2E701232372EAE769460022C1E90122F5
:10BA90000092CA604FF4C0728DF80030ADF80420F7
:10BAA000CDE7112804D0636804B0BDE870401847A2
:10BAB000267299E7ADDF7047AEDF704700295CD092
:10BAC00070B504468AB038B10388502B0D4655D066
:10BAD000572B35D0102B01D00AB070BD8188686912
:10BAE000002601AA0196FFF701FE02232989A088FA
:10BAF000CDF80CD002AAADF80A60ADF80830FFF717
:10BB0000D9FF0028E8D1AB69002BE5D00398FFF7F7
:10BB100015FE0028E0D0019B0BB101221A70A2880B
:10BB200007930221002304930693CDE908338DF88F
:10BB30001010AB690595ADF8182004A89847CBE71D
:10BB40008188686902AAFFF7D1FD0028C4D1029B51
:10BB50001A78002AC0D0AA69002ABDD0CDE9060310
:10BB6000A18804900123CDE908000595ADF81810CF
:10BB70008DF8103004A89047AEE770478188686957
:10BB800002AAFFF7B3FD00230693CDE90833298904
:10BB90000493E388A288ADF818209942029A05958B
:10BBA00007920DD0AA899A4296D1AB69002B93D007
:10BBB000228AADF824201234089404A898478BE711
:10BBC000268A022EEED1002A86D004F11200FFF759
:10BBD000B5FD40B1029B01221A708DF81060AB696F
:10BBE000002BEAD178E7029A032310708DF8103009
:10BBF000F5E700BF80B3F0B587B00E4617460446A0
:10BC000001AA406919461D46FFF770FD8446D8B960
:10BC10004FF6FF739D421AD0019BC3B11B7823B32B
:10BC20003B88F42B1CD8A288CDF80BC001232846F2
:10BC300002A98DF80FC0ADF80820059604978DF87D
:10BC40000A30FFF739FF8446604607B0F0BD4FF079
:10BC5000050C604607B0F0BD4FF00E0C6046704713
:10BC60004FF0070C604607B0F0BD4FF0080CEBE753
:10BC7000014B1878704700BF683A002000B583B0C8
:10BC800008496846FDF7A4F9019B43B1D3E90020B8
:10BC900090476846FDF7A6F9019B002BF6D103B04B
:10BCA0005DF804FB6CC9020061DF704730B5154DCB
:10BCB000ADF5017D4FF4FA740DF1020103A8ADF862
:10BCC0000240FFF7F1FF88B9294601A8FDF780F986
:10BCD000029B002BF0D0D3E9003103A8984701A8BC
:10BCE000FDF780F9029B002BF5D1E5E7052802D18D
:10BCF0000DF5017D30BD0DF5017DBDE83040FCF74F
:10BD00004FBA00BF84C90200024B1B780BB1FFF78A
:10BD1000CDBF7047693A00204BDF704710B5124C19
:10BD200084B001A8FFF7F8FFA8B9214602A8FDF7E3
:10BD30004FF9039B002BF4D0D3E9003101989847C9
:10BD400002A8FDF74FF9039B002BF5D101A8FFF7DF
:10BD5000E3FF0028E9D0052801D104B010BD04B0EC
:10BD6000BDE81040FCF71CBA9CC902007F2805D82A
:10BD7000034A044B105C5B5C18407047002070471E
:10BD8000B4C9020034CA0200A0F16103192B98BFA4
:10BD900020387047A0F14103192B98BF203070471D
:10BDA0007F299ABF017001206FF02E00704700BFFD
:10BDB0005AB10A787F2A0AD800B102600021501ACD
:10BDC000C3E9001118BF01207047104670476FF09B
:10BDD0002E007047A0F16103192B98BF20387047DF
:10BDE000A0F14103192B98BF203070477F2805D858
:10BDF000034A044B105C5B5C18407047002070479E
:10BE0000B4C9020034CA0200024B5B689B68092176
:10BE10001B6818473C2B0020844640EA010313F0BE
:10BE2000030F18D18446202A0BD32DE9F007B1E87F
:10BE3000F807A0E8F807A2F12002202AF7D2BDE80F
:10BE4000F007042A07D351F8043B40F8043BA2F161
:10BE50000402042AF7D2002A05D011F8013B00F8A9
:10BE6000013B013AF9D1604670478446002A2DD043
:10BE700010F0030F04D000F8011B013A26D0F7E7B9
:10BE8000C9B241EA012141EA0141202A12D3A2F1BB
:10BE900020022DE9F0030B460C460D460E460F46D8
:10BEA00088468946A0E8FA03203AFBD2BDE8F003B1
:10BEB00020320BD0042A05D340F8041B043A05D0E5
:10BEC000042AF9D200F8011B013AFBD16046704701
:10BED00000F1010110F0030F11D010F8012B002A1E
:10BEE00023D010F0030F0AD010F8012B002A1CD029
:10BEF00010F0030F03D010F8012B002A15D02DE904
:10BF000070004FF001324FF0803350F8044BA4EB37
:10BF1000020525EA04051D4000D1F6E7A0F1040062
:10BF200070BC10F8012B002AFBD1A0EB0100704778
:08BF3000E9920200000000008C
:10BF380069B50200000000003DAA020000000000F0
:10BF480011B30200C0320020DDB70200F436002031
:10BF58009DB3020000000000C9B902000C370020A0
:08BF6800BDBA0200182B0020F5
:08BF7000119302000000000023
:10BF780009BD0200000000001DBD02000000000015
:10BF8800942B00205C2C0020642C00209C2B00208B
:04BF9800180000008D
:10BF9C0060C702000000000068C70200000000003B
:10BFAC0070C702000000000074C70200000000000F
:10BFBC007CC70200000000009CC0020000000303CC
:10BFCC00B8C1020000000000E0C102000000000047
:10BFDC005CC902000000000058C70200000000000D
:10BFEC00E4C70200000000004CC90200000003037B
:10BFFC0064C902000000030378C9020000000303B7
:10C00C0090C9020000000303FCC102000000000004
:08C01C0014C202000000000044
:10C0240058C002000000000078C00200E82A002086
:10C03400ACC102000000000064C00200F02A00202D
:10C044000000000000000000000000000338FDD8DC
:10C0540070470000D573020049740200D1730200D6
:10C06400756172745F6C6F675F6261636B656E6448
:10C07400000000007274745F6C6F675F6261636BD1
:10C08400656E64004261636B656E647320666C75F3
:10C0940073686564000000006170700084300020E3
:10C0A4007F000000043100201B5B313B33316D0005
:10C0B40025734C6F67732064726F707065642028F9
:10C0C40025642925730D0A001B5B306D00000000F8
:10C0D400257300003C25733E2025733A20000000A0
:10C0E4000D0A0000202530327800000020202000B6
:10C0F4007C000000256300001B5B313B33306D0086
:10C104001B5B313B33326D001B5B313B33336D00C2
:10C114001B5B313B33346D001B5B313B33356D00AE
:10C124001B5B313B33366D001B5B313B33376D009A
:10C134006572726F720000007761726E696E6700DB
:10C14400696E666F00000000646562756700000038
:10C15400CCC00200FCC00200ACC0020004C102005A
:10C164000CC1020014C102001CC1020024C102005F
:10C174002CC102000000000034C102003CC10200D6
:10C1840044C102004CC10200FFFFFFFFFFFFFFFF9D
:10C19400FFFFFFFFFFFFFFFF0000000000000000A3
:10C1A4000000D6010601000079800200E980020047
:10C1B400758002006170705F627574746F6E000048
:10C1C400466174616C206572726F72005379737486
:10C1D400656D207265736574000000006170705FA6
:10C1E40074696D657200000030313233343536378E
:10C1F40038394142434445467077725F6D676D74C8
:10C204000000000070BF020070BF020004000000C4
:10C21400736F72746C697374000000004E52465F51
:10C2240053554343455353004E52465F4552524F74
:10C23400525F5356435F48414E444C45525F4D490B
:10C244005353494E470000004E52465F4552524FE9
:10C25400525F534F46544445564943455F4E4F54ED
:10C264005F454E41424C4544000000004E52465F3B
:10C274004552524F525F494E5445524E414C000074
:10C284004E52465F4552524F525F4E4F5F4D454DA1
:10C29400000000004E52465F4552524F525F4E4FCF
:10C2A400545F464F554E44004E52465F4552524FDE
:10C2B400525F4E4F545F535550504F5254454400B3
:10C2C4004E52465F4552524F525F494E56414C4979
:10C2D400445F504152414D004E52465F4552524FC9
:10C2E400525F494E56414C49445F535441544500B2
:10C2F4004E52465F4552524F525F494E56414C4949
:10C30400445F4C454E475448000000004E52465F7F
:10C314004552524F525F494E56414C49445F464C38
:10C32400414753004E52465F4552524F525F494E69
:10C3340056414C49445F4441544100004E52465FCB
:10C344004552524F525F444154415F53495A45004C
:10C354004E52465F4552524F525F54494D454F55D8
:10C36400540000004E52465F4552524F525F4E55A4
:10C374004C4C00004E52465F4552524F525F464F5E
:10C384005242494444454E004E52465F4552524F34
:10C39400525F494E56414C49445F41444452000067
:10C3A4004E52465F4552524F525F42555359000018
:10C3B4004E52465F4552524F525F434F4E4E5F437B
:10C3C4004F554E54000000004E52465F4552524FA6
:10C3D400525F5245534F5552434553004E52465FA8
:10C3E4004552524F525F4D4F44554C455F4E4F544A
:10C3F4005F494E495449414C495A454400000000A4
:10C404004E52465F4552524F525F4D555445585F08
:10C41400494E49545F4641494C4544004E52465F9B
:10C424004552524F525F4D555445585F4C4F434B04
:10C434005F4641494C4544004E52465F4552524F77
:10C44400525F4D555445585F554E4C4F434B5F46D4
:10C4540041494C45440000004E52465F4552524FFC
:10C46400525F4D555445585F434F4E445F494E49C2
:10C47400545F4641494C4544000000004E52465F1B
:10C484004552524F525F4D4F44554C455F414C52BB
:10C49400454144595F494E495449414C495A4544E0
:10C4A400000000004E52465F4552524F525F5354B3
:10C4B4004F524147455F46554C4C00004E52465F33
:10C4C4004552524F525F4150495F4E4F545F494D60
:10C4D400504C454D454E5445440000004E52465F75
:10C4E4004552524F525F464541545552455F4E4F57
:10C4F400545F454E41424C45440000004E52465F55
:10C504004552524F525F494F5F50454E44494E4742
:10C51400000000004E52465F4552524F525F445253
:10C52400565F5457495F4552525F4F5645525255D4
:10C534004E0000004E52465F4552524F525F4452E5
:10C54400565F5457495F4552525F414E41434B0039
:10C554004E52465F4552524F525F4452565F5457B3
:10C56400495F4552525F444E41434B004E52465F31
:10C574004552524F525F424C455F495053505F52AF
:10C58400585F504B545F5452554E434154454400F8
:10C594004E52465F4552524F525F424C455F49509E
:10C5A40053505F4348414E4E454C5F414C524541C8
:10C5B40044595F4558495354530000004E52465F56
:10C5C4004552524F525F424C455F495053505F4C65
:10C5D400494E4B5F444953434F4E4E4543544544A3
:10C5E400000000004E52465F4552524F525F424C8B
:10C5F400455F495053505F504545525F52454A4547
:10C604004354454400000000556E6B6E6F776E20F6
:10C614006572726F7220636F646500000000000031
:10C6240020C20200010000002CC20200020000002F
:10C634004CC202000300000070C2020004000000AB
:10C6440084C202000500000098C202000600000037
:10C65400ACC2020007000000C4C2020008000000CF
:10C66400DCC2020009000000F4C202000A0000005B
:10C6740010C302000B00000028C302000C000000DD
:10C6840040C302000D00000054C302000E0000006D
:10C6940068C302000F00000078C30200100000000D
:10C6A4008CC3020011000000A4C3020012000000A9
:10C6B400B4C3020013000000CCC3020080000000D9
:10C6C400E0C302008100000004C4020082000000F4
:10C6D40020C40200830000003CC402008400000067
:10C6E4005CC402008500000080C4020086000000D3
:10C6F400A8C4020090000000C0C402009100000021
:10C70400E0C402009200000000C5020000820000A4
:10C7140018C502000182000038C502000282000030
:10C7240054C502000084000070C5020001840000AA
:10C7340094C5020002840000C0C502000384000006
:10C74400E8C5020000000000010100000100000033
:10C7540000000000636C6F636B000000434C4F43A8
:10C764004B0000004750494F5445000050525300BD
:10C7740055415254000000005541525445000000F8
:10C78400414443206D6561737572656D656D656EB9
:10C7940074202564000000004144432072656164F4
:10C7A4006F7574206572726F722E20256420307844
:10C7B400257800004465627567206C6F6767696E51
:10C7C4006720666F722055415254206F766572203F
:10C7D40052545420737461727465642E0000000016
:10C7E40068783731310000005465726D696E616C90
:10C7F400000000005254540053454747455200007E
:10C8040073645F626C655F6761705F646174615FCC
:10C814006C656E6774685F7570646174652829203F
:10C82400287265717565737429206F6E20636F6E4D
:10C834006E656374696F6E20307825782072657434
:10C8440075726E65642025732E000000546865209F
:10C854007265717565737465642054582F5258203D
:10C864007061636B6574206C656E677468206973AE
:10C8740020746F6F206C6F6E672062792025752F8E
:10C884002575206F63746574732E000054686520E9
:10C8940072657175657374656420636F6D62696E2A
:10C8A4006174696F6E206F6620545820616E642035
:10C8B4005258207061636B6574206C656E67746890
:10C8C4007320697320746F6F206C6F6E67206279B8
:10C8D400202575206D6963726F7365636F6E647371
:10C8E4002E00000073645F626C655F67617474633B
:10C8F4005F65786368616E67655F6D74755F7265A7
:10C90400717565737428292072657475726E656417
:10C914002025732E0000000073645F626C655F67FE
:10C92400617474735F65786368616E67655F6D7465
:10C93400755F7265706C7928292072657475726EE2
:10C9440065642025732E00006E72665F626C655FFD
:10C954006761747400000000626C655F6E7573003B
:10C964006E72665F7364680078BF020088BF02005D
:10C97400080000006E72665F7364685F626C650035
:10C9840038BF020070BF0200080000006E72665FCC
:10C994007364685F736F630030BF020038BF0200C6
:10C9A4000800000043000000504F534958000000A5
:10C9B400202020202020202020682828282820200B
:10C9C4002020202020202020202020202020202063
:10C9D400481010101010101010101010101010101B
:10C9E40084848484848484848484101010101010BB
:10C9F4001081818181818101010101010101010114
:10CA040001010101010101010101011010101010C7
:10CA140010828282828282020202020202020202E4
:10CA2400020202020202020202020210101010208C
:10CA3400000703200417020108571040800000007B
:10CA4400A8C90200ACCA0200C0CB020053756E0034
:10CA54004D6F6E0054756500576564005468750029
:10CA64004672690053617400000000004A616E0060
:10CA7400466562004D617200417072004D6179003B
:10CA84004A756E004A756C00417567005365700005
:10CA94004F6374004E6F760044656300000000002D
:10CAA400414D00504D000000E4CB0200E0CB0200F9
:10CAB400E0CB0200E0CB0200E0CB0200E0CB0200BE
:10CAC400E0CB0200E0CB0200E0CB0200E0CB0200AE
